Archive member included to satisfy reference by file (symbol)

c:/program files (x86)/atmel/studio/7.0/toolchain/arm/arm-gnu-toolchain/bin/../lib/gcc/arm-none-eabi/6.3.1/../../../../arm-none-eabi/lib/thumb/v7e-m\libc.a(lib_a-exit.o)
                              c:/program files (x86)/atmel/studio/7.0/toolchain/arm/arm-gnu-toolchain/bin/../lib/gcc/arm-none-eabi/6.3.1/../../../../arm-none-eabi/lib/thumb/v7e-m/crt0.o (exit)
c:/program files (x86)/atmel/studio/7.0/toolchain/arm/arm-gnu-toolchain/bin/../lib/gcc/arm-none-eabi/6.3.1/../../../../arm-none-eabi/lib/thumb/v7e-m\libc.a(lib_a-impure.o)
                              c:/program files (x86)/atmel/studio/7.0/toolchain/arm/arm-gnu-toolchain/bin/../lib/gcc/arm-none-eabi/6.3.1/../../../../arm-none-eabi/lib/thumb/v7e-m\libc.a(lib_a-exit.o) (_global_impure_ptr)
c:/program files (x86)/atmel/studio/7.0/toolchain/arm/arm-gnu-toolchain/bin/../lib/gcc/arm-none-eabi/6.3.1/../../../../arm-none-eabi/lib/thumb/v7e-m\libc.a(lib_a-init.o)
                              c:/program files (x86)/atmel/studio/7.0/toolchain/arm/arm-gnu-toolchain/bin/../lib/gcc/arm-none-eabi/6.3.1/../../../../arm-none-eabi/lib/thumb/v7e-m/crt0.o (__libc_init_array)
c:/program files (x86)/atmel/studio/7.0/toolchain/arm/arm-gnu-toolchain/bin/../lib/gcc/arm-none-eabi/6.3.1/../../../../arm-none-eabi/lib/thumb/v7e-m\libc.a(lib_a-iprintf.o)
                              src/main.o (iprintf)
c:/program files (x86)/atmel/studio/7.0/toolchain/arm/arm-gnu-toolchain/bin/../lib/gcc/arm-none-eabi/6.3.1/../../../../arm-none-eabi/lib/thumb/v7e-m\libc.a(lib_a-malloc.o)
                              src/ASF/thirdparty/freertos/freertos-8.2.3/Source/portable/MemMang/heap_3.o (malloc)
c:/program files (x86)/atmel/studio/7.0/toolchain/arm/arm-gnu-toolchain/bin/../lib/gcc/arm-none-eabi/6.3.1/../../../../arm-none-eabi/lib/thumb/v7e-m\libc.a(lib_a-mallocr.o)
                              c:/program files (x86)/atmel/studio/7.0/toolchain/arm/arm-gnu-toolchain/bin/../lib/gcc/arm-none-eabi/6.3.1/../../../../arm-none-eabi/lib/thumb/v7e-m\libc.a(lib_a-malloc.o) (_malloc_r)
c:/program files (x86)/atmel/studio/7.0/toolchain/arm/arm-gnu-toolchain/bin/../lib/gcc/arm-none-eabi/6.3.1/../../../../arm-none-eabi/lib/thumb/v7e-m\libc.a(lib_a-memcpy.o)
                              src/ASF/thirdparty/freertos/freertos-8.2.3/Source/queue.o (memcpy)
c:/program files (x86)/atmel/studio/7.0/toolchain/arm/arm-gnu-toolchain/bin/../lib/gcc/arm-none-eabi/6.3.1/../../../../arm-none-eabi/lib/thumb/v7e-m\libc.a(lib_a-memset.o)
                              c:/program files (x86)/atmel/studio/7.0/toolchain/arm/arm-gnu-toolchain/bin/../lib/gcc/arm-none-eabi/6.3.1/../../../../arm-none-eabi/lib/thumb/v7e-m/crt0.o (memset)
c:/program files (x86)/atmel/studio/7.0/toolchain/arm/arm-gnu-toolchain/bin/../lib/gcc/arm-none-eabi/6.3.1/../../../../arm-none-eabi/lib/thumb/v7e-m\libc.a(lib_a-mlock.o)
                              c:/program files (x86)/atmel/studio/7.0/toolchain/arm/arm-gnu-toolchain/bin/../lib/gcc/arm-none-eabi/6.3.1/../../../../arm-none-eabi/lib/thumb/v7e-m\libc.a(lib_a-mallocr.o) (__malloc_lock)
c:/program files (x86)/atmel/studio/7.0/toolchain/arm/arm-gnu-toolchain/bin/../lib/gcc/arm-none-eabi/6.3.1/../../../../arm-none-eabi/lib/thumb/v7e-m\libc.a(lib_a-sbrkr.o)
                              c:/program files (x86)/atmel/studio/7.0/toolchain/arm/arm-gnu-toolchain/bin/../lib/gcc/arm-none-eabi/6.3.1/../../../../arm-none-eabi/lib/thumb/v7e-m\libc.a(lib_a-mallocr.o) (_sbrk_r)
c:/program files (x86)/atmel/studio/7.0/toolchain/arm/arm-gnu-toolchain/bin/../lib/gcc/arm-none-eabi/6.3.1/../../../../arm-none-eabi/lib/thumb/v7e-m\libc.a(lib_a-setbuf.o)
                              src/main.o (setbuf)
c:/program files (x86)/atmel/studio/7.0/toolchain/arm/arm-gnu-toolchain/bin/../lib/gcc/arm-none-eabi/6.3.1/../../../../arm-none-eabi/lib/thumb/v7e-m\libc.a(lib_a-setvbuf.o)
                              c:/program files (x86)/atmel/studio/7.0/toolchain/arm/arm-gnu-toolchain/bin/../lib/gcc/arm-none-eabi/6.3.1/../../../../arm-none-eabi/lib/thumb/v7e-m\libc.a(lib_a-setbuf.o) (setvbuf)
c:/program files (x86)/atmel/studio/7.0/toolchain/arm/arm-gnu-toolchain/bin/../lib/gcc/arm-none-eabi/6.3.1/../../../../arm-none-eabi/lib/thumb/v7e-m\libc.a(lib_a-sprintf.o)
                              src/ASF/thirdparty/freertos/freertos-8.2.3/Source/tasks.o (sprintf)
c:/program files (x86)/atmel/studio/7.0/toolchain/arm/arm-gnu-toolchain/bin/../lib/gcc/arm-none-eabi/6.3.1/../../../../arm-none-eabi/lib/thumb/v7e-m\libc.a(lib_a-strcpy.o)
                              src/ASF/thirdparty/freertos/freertos-8.2.3/Source/tasks.o (strcpy)
c:/program files (x86)/atmel/studio/7.0/toolchain/arm/arm-gnu-toolchain/bin/../lib/gcc/arm-none-eabi/6.3.1/../../../../arm-none-eabi/lib/thumb/v7e-m\libc.a(lib_a-strlen.o)
                              src/ASF/thirdparty/freertos/freertos-8.2.3/Source/tasks.o (strlen)
c:/program files (x86)/atmel/studio/7.0/toolchain/arm/arm-gnu-toolchain/bin/../lib/gcc/arm-none-eabi/6.3.1/../../../../arm-none-eabi/lib/thumb/v7e-m\libc.a(lib_a-svfprintf.o)
                              c:/program files (x86)/atmel/studio/7.0/toolchain/arm/arm-gnu-toolchain/bin/../lib/gcc/arm-none-eabi/6.3.1/../../../../arm-none-eabi/lib/thumb/v7e-m\libc.a(lib_a-sprintf.o) (_svfprintf_r)
c:/program files (x86)/atmel/studio/7.0/toolchain/arm/arm-gnu-toolchain/bin/../lib/gcc/arm-none-eabi/6.3.1/../../../../arm-none-eabi/lib/thumb/v7e-m\libc.a(lib_a-vfiprintf.o)
                              c:/program files (x86)/atmel/studio/7.0/toolchain/arm/arm-gnu-toolchain/bin/../lib/gcc/arm-none-eabi/6.3.1/../../../../arm-none-eabi/lib/thumb/v7e-m\libc.a(lib_a-iprintf.o) (_vfiprintf_r)
c:/program files (x86)/atmel/studio/7.0/toolchain/arm/arm-gnu-toolchain/bin/../lib/gcc/arm-none-eabi/6.3.1/../../../../arm-none-eabi/lib/thumb/v7e-m\libc.a(lib_a-wsetup.o)
                              c:/program files (x86)/atmel/studio/7.0/toolchain/arm/arm-gnu-toolchain/bin/../lib/gcc/arm-none-eabi/6.3.1/../../../../arm-none-eabi/lib/thumb/v7e-m\libc.a(lib_a-vfiprintf.o) (__swsetup_r)
c:/program files (x86)/atmel/studio/7.0/toolchain/arm/arm-gnu-toolchain/bin/../lib/gcc/arm-none-eabi/6.3.1/../../../../arm-none-eabi/lib/thumb/v7e-m\libc.a(lib_a-__call_atexit.o)
                              c:/program files (x86)/atmel/studio/7.0/toolchain/arm/arm-gnu-toolchain/bin/../lib/gcc/arm-none-eabi/6.3.1/../../../../arm-none-eabi/lib/thumb/v7e-m\libc.a(lib_a-exit.o) (__call_exitprocs)
c:/program files (x86)/atmel/studio/7.0/toolchain/arm/arm-gnu-toolchain/bin/../lib/gcc/arm-none-eabi/6.3.1/../../../../arm-none-eabi/lib/thumb/v7e-m\libc.a(lib_a-atexit.o)
                              c:/program files (x86)/atmel/studio/7.0/toolchain/arm/arm-gnu-toolchain/bin/../lib/gcc/arm-none-eabi/6.3.1/../../../../arm-none-eabi/lib/thumb/v7e-m\libc.a(lib_a-__call_atexit.o) (atexit)
c:/program files (x86)/atmel/studio/7.0/toolchain/arm/arm-gnu-toolchain/bin/../lib/gcc/arm-none-eabi/6.3.1/../../../../arm-none-eabi/lib/thumb/v7e-m\libc.a(lib_a-dtoa.o)
                              c:/program files (x86)/atmel/studio/7.0/toolchain/arm/arm-gnu-toolchain/bin/../lib/gcc/arm-none-eabi/6.3.1/../../../../arm-none-eabi/lib/thumb/v7e-m\libc.a(lib_a-svfprintf.o) (_dtoa_r)
c:/program files (x86)/atmel/studio/7.0/toolchain/arm/arm-gnu-toolchain/bin/../lib/gcc/arm-none-eabi/6.3.1/../../../../arm-none-eabi/lib/thumb/v7e-m\libc.a(lib_a-fflush.o)
                              c:/program files (x86)/atmel/studio/7.0/toolchain/arm/arm-gnu-toolchain/bin/../lib/gcc/arm-none-eabi/6.3.1/../../../../arm-none-eabi/lib/thumb/v7e-m\libc.a(lib_a-setvbuf.o) (_fflush_r)
c:/program files (x86)/atmel/studio/7.0/toolchain/arm/arm-gnu-toolchain/bin/../lib/gcc/arm-none-eabi/6.3.1/../../../../arm-none-eabi/lib/thumb/v7e-m\libc.a(lib_a-findfp.o)
                              c:/program files (x86)/atmel/studio/7.0/toolchain/arm/arm-gnu-toolchain/bin/../lib/gcc/arm-none-eabi/6.3.1/../../../../arm-none-eabi/lib/thumb/v7e-m\libc.a(lib_a-setvbuf.o) (__sinit)
c:/program files (x86)/atmel/studio/7.0/toolchain/arm/arm-gnu-toolchain/bin/../lib/gcc/arm-none-eabi/6.3.1/../../../../arm-none-eabi/lib/thumb/v7e-m\libc.a(lib_a-fini.o)
                              c:/program files (x86)/atmel/studio/7.0/toolchain/arm/arm-gnu-toolchain/bin/../lib/gcc/arm-none-eabi/6.3.1/../../../../arm-none-eabi/lib/thumb/v7e-m\libc.a(lib_a-__call_atexit.o) (__libc_fini_array)
c:/program files (x86)/atmel/studio/7.0/toolchain/arm/arm-gnu-toolchain/bin/../lib/gcc/arm-none-eabi/6.3.1/../../../../arm-none-eabi/lib/thumb/v7e-m\libc.a(lib_a-fputwc.o)
                              c:/program files (x86)/atmel/studio/7.0/toolchain/arm/arm-gnu-toolchain/bin/../lib/gcc/arm-none-eabi/6.3.1/../../../../arm-none-eabi/lib/thumb/v7e-m\libc.a(lib_a-vfiprintf.o) (_fputwc_r)
c:/program files (x86)/atmel/studio/7.0/toolchain/arm/arm-gnu-toolchain/bin/../lib/gcc/arm-none-eabi/6.3.1/../../../../arm-none-eabi/lib/thumb/v7e-m\libc.a(lib_a-freer.o)
                              c:/program files (x86)/atmel/studio/7.0/toolchain/arm/arm-gnu-toolchain/bin/../lib/gcc/arm-none-eabi/6.3.1/../../../../arm-none-eabi/lib/thumb/v7e-m\libc.a(lib_a-malloc.o) (_free_r)
c:/program files (x86)/atmel/studio/7.0/toolchain/arm/arm-gnu-toolchain/bin/../lib/gcc/arm-none-eabi/6.3.1/../../../../arm-none-eabi/lib/thumb/v7e-m\libc.a(lib_a-fvwrite.o)
                              c:/program files (x86)/atmel/studio/7.0/toolchain/arm/arm-gnu-toolchain/bin/../lib/gcc/arm-none-eabi/6.3.1/../../../../arm-none-eabi/lib/thumb/v7e-m\libc.a(lib_a-vfiprintf.o) (__sfvwrite_r)
c:/program files (x86)/atmel/studio/7.0/toolchain/arm/arm-gnu-toolchain/bin/../lib/gcc/arm-none-eabi/6.3.1/../../../../arm-none-eabi/lib/thumb/v7e-m\libc.a(lib_a-fwalk.o)
                              c:/program files (x86)/atmel/studio/7.0/toolchain/arm/arm-gnu-toolchain/bin/../lib/gcc/arm-none-eabi/6.3.1/../../../../arm-none-eabi/lib/thumb/v7e-m\libc.a(lib_a-findfp.o) (_fwalk)
c:/program files (x86)/atmel/studio/7.0/toolchain/arm/arm-gnu-toolchain/bin/../lib/gcc/arm-none-eabi/6.3.1/../../../../arm-none-eabi/lib/thumb/v7e-m\libc.a(lib_a-locale.o)
                              c:/program files (x86)/atmel/studio/7.0/toolchain/arm/arm-gnu-toolchain/bin/../lib/gcc/arm-none-eabi/6.3.1/../../../../arm-none-eabi/lib/thumb/v7e-m\libc.a(lib_a-fputwc.o) (__locale_mb_cur_max)
c:/program files (x86)/atmel/studio/7.0/toolchain/arm/arm-gnu-toolchain/bin/../lib/gcc/arm-none-eabi/6.3.1/../../../../arm-none-eabi/lib/thumb/v7e-m\libc.a(lib_a-localeconv.o)
                              c:/program files (x86)/atmel/studio/7.0/toolchain/arm/arm-gnu-toolchain/bin/../lib/gcc/arm-none-eabi/6.3.1/../../../../arm-none-eabi/lib/thumb/v7e-m\libc.a(lib_a-svfprintf.o) (_localeconv_r)
c:/program files (x86)/atmel/studio/7.0/toolchain/arm/arm-gnu-toolchain/bin/../lib/gcc/arm-none-eabi/6.3.1/../../../../arm-none-eabi/lib/thumb/v7e-m\libc.a(lib_a-lock.o)
                              c:/program files (x86)/atmel/studio/7.0/toolchain/arm/arm-gnu-toolchain/bin/../lib/gcc/arm-none-eabi/6.3.1/../../../../arm-none-eabi/lib/thumb/v7e-m\libc.a(lib_a-vfiprintf.o) (__retarget_lock_init_recursive)
c:/program files (x86)/atmel/studio/7.0/toolchain/arm/arm-gnu-toolchain/bin/../lib/gcc/arm-none-eabi/6.3.1/../../../../arm-none-eabi/lib/thumb/v7e-m\libc.a(lib_a-makebuf.o)
                              c:/program files (x86)/atmel/studio/7.0/toolchain/arm/arm-gnu-toolchain/bin/../lib/gcc/arm-none-eabi/6.3.1/../../../../arm-none-eabi/lib/thumb/v7e-m\libc.a(lib_a-setvbuf.o) (__swhatbuf_r)
c:/program files (x86)/atmel/studio/7.0/toolchain/arm/arm-gnu-toolchain/bin/../lib/gcc/arm-none-eabi/6.3.1/../../../../arm-none-eabi/lib/thumb/v7e-m\libc.a(lib_a-mbtowc_r.o)
                              c:/program files (x86)/atmel/studio/7.0/toolchain/arm/arm-gnu-toolchain/bin/../lib/gcc/arm-none-eabi/6.3.1/../../../../arm-none-eabi/lib/thumb/v7e-m\libc.a(lib_a-locale.o) (__ascii_mbtowc)
c:/program files (x86)/atmel/studio/7.0/toolchain/arm/arm-gnu-toolchain/bin/../lib/gcc/arm-none-eabi/6.3.1/../../../../arm-none-eabi/lib/thumb/v7e-m\libc.a(lib_a-memchr.o)
                              c:/program files (x86)/atmel/studio/7.0/toolchain/arm/arm-gnu-toolchain/bin/../lib/gcc/arm-none-eabi/6.3.1/../../../../arm-none-eabi/lib/thumb/v7e-m\libc.a(lib_a-svfprintf.o) (memchr)
c:/program files (x86)/atmel/studio/7.0/toolchain/arm/arm-gnu-toolchain/bin/../lib/gcc/arm-none-eabi/6.3.1/../../../../arm-none-eabi/lib/thumb/v7e-m\libc.a(lib_a-memmove.o)
                              c:/program files (x86)/atmel/studio/7.0/toolchain/arm/arm-gnu-toolchain/bin/../lib/gcc/arm-none-eabi/6.3.1/../../../../arm-none-eabi/lib/thumb/v7e-m\libc.a(lib_a-fvwrite.o) (memmove)
c:/program files (x86)/atmel/studio/7.0/toolchain/arm/arm-gnu-toolchain/bin/../lib/gcc/arm-none-eabi/6.3.1/../../../../arm-none-eabi/lib/thumb/v7e-m\libc.a(lib_a-mprec.o)
                              c:/program files (x86)/atmel/studio/7.0/toolchain/arm/arm-gnu-toolchain/bin/../lib/gcc/arm-none-eabi/6.3.1/../../../../arm-none-eabi/lib/thumb/v7e-m\libc.a(lib_a-dtoa.o) (_Balloc)
c:/program files (x86)/atmel/studio/7.0/toolchain/arm/arm-gnu-toolchain/bin/../lib/gcc/arm-none-eabi/6.3.1/../../../../arm-none-eabi/lib/thumb/v7e-m\libc.a(lib_a-reallocr.o)
                              c:/program files (x86)/atmel/studio/7.0/toolchain/arm/arm-gnu-toolchain/bin/../lib/gcc/arm-none-eabi/6.3.1/../../../../arm-none-eabi/lib/thumb/v7e-m\libc.a(lib_a-fvwrite.o) (_realloc_r)
c:/program files (x86)/atmel/studio/7.0/toolchain/arm/arm-gnu-toolchain/bin/../lib/gcc/arm-none-eabi/6.3.1/../../../../arm-none-eabi/lib/thumb/v7e-m\libc.a(lib_a-reent.o)
                              c:/program files (x86)/atmel/studio/7.0/toolchain/arm/arm-gnu-toolchain/bin/../lib/gcc/arm-none-eabi/6.3.1/../../../../arm-none-eabi/lib/thumb/v7e-m\libc.a(lib_a-sbrkr.o) (errno)
c:/program files (x86)/atmel/studio/7.0/toolchain/arm/arm-gnu-toolchain/bin/../lib/gcc/arm-none-eabi/6.3.1/../../../../arm-none-eabi/lib/thumb/v7e-m\libc.a(lib_a-stdio.o)
                              c:/program files (x86)/atmel/studio/7.0/toolchain/arm/arm-gnu-toolchain/bin/../lib/gcc/arm-none-eabi/6.3.1/../../../../arm-none-eabi/lib/thumb/v7e-m\libc.a(lib_a-findfp.o) (__sread)
c:/program files (x86)/atmel/studio/7.0/toolchain/arm/arm-gnu-toolchain/bin/../lib/gcc/arm-none-eabi/6.3.1/../../../../arm-none-eabi/lib/thumb/v7e-m\libc.a(lib_a-strcmp.o)
                              c:/program files (x86)/atmel/studio/7.0/toolchain/arm/arm-gnu-toolchain/bin/../lib/gcc/arm-none-eabi/6.3.1/../../../../arm-none-eabi/lib/thumb/v7e-m\libc.a(lib_a-locale.o) (strcmp)
c:/program files (x86)/atmel/studio/7.0/toolchain/arm/arm-gnu-toolchain/bin/../lib/gcc/arm-none-eabi/6.3.1/../../../../arm-none-eabi/lib/thumb/v7e-m\libc.a(lib_a-svfiprintf.o)
                              c:/program files (x86)/atmel/studio/7.0/toolchain/arm/arm-gnu-toolchain/bin/../lib/gcc/arm-none-eabi/6.3.1/../../../../arm-none-eabi/lib/thumb/v7e-m\libc.a(lib_a-svfprintf.o) (__ssprint_r)
c:/program files (x86)/atmel/studio/7.0/toolchain/arm/arm-gnu-toolchain/bin/../lib/gcc/arm-none-eabi/6.3.1/../../../../arm-none-eabi/lib/thumb/v7e-m\libc.a(lib_a-wbuf.o)
                              c:/program files (x86)/atmel/studio/7.0/toolchain/arm/arm-gnu-toolchain/bin/../lib/gcc/arm-none-eabi/6.3.1/../../../../arm-none-eabi/lib/thumb/v7e-m\libc.a(lib_a-fputwc.o) (__swbuf_r)
c:/program files (x86)/atmel/studio/7.0/toolchain/arm/arm-gnu-toolchain/bin/../lib/gcc/arm-none-eabi/6.3.1/../../../../arm-none-eabi/lib/thumb/v7e-m\libc.a(lib_a-wcrtomb.o)
                              c:/program files (x86)/atmel/studio/7.0/toolchain/arm/arm-gnu-toolchain/bin/../lib/gcc/arm-none-eabi/6.3.1/../../../../arm-none-eabi/lib/thumb/v7e-m\libc.a(lib_a-fputwc.o) (_wcrtomb_r)
c:/program files (x86)/atmel/studio/7.0/toolchain/arm/arm-gnu-toolchain/bin/../lib/gcc/arm-none-eabi/6.3.1/../../../../arm-none-eabi/lib/thumb/v7e-m\libc.a(lib_a-wctomb_r.o)
                              c:/program files (x86)/atmel/studio/7.0/toolchain/arm/arm-gnu-toolchain/bin/../lib/gcc/arm-none-eabi/6.3.1/../../../../arm-none-eabi/lib/thumb/v7e-m\libc.a(lib_a-locale.o) (__ascii_wctomb)
c:/program files (x86)/atmel/studio/7.0/toolchain/arm/arm-gnu-toolchain/bin/../lib/gcc/arm-none-eabi/6.3.1/../../../../arm-none-eabi/lib/thumb/v7e-m\libc.a(lib_a-writer.o)
                              c:/program files (x86)/atmel/studio/7.0/toolchain/arm/arm-gnu-toolchain/bin/../lib/gcc/arm-none-eabi/6.3.1/../../../../arm-none-eabi/lib/thumb/v7e-m\libc.a(lib_a-stdio.o) (_write_r)
c:/program files (x86)/atmel/studio/7.0/toolchain/arm/arm-gnu-toolchain/bin/../lib/gcc/arm-none-eabi/6.3.1/../../../../arm-none-eabi/lib/thumb/v7e-m\libc.a(lib_a-__atexit.o)
                              c:/program files (x86)/atmel/studio/7.0/toolchain/arm/arm-gnu-toolchain/bin/../lib/gcc/arm-none-eabi/6.3.1/../../../../arm-none-eabi/lib/thumb/v7e-m\libc.a(lib_a-atexit.o) (__register_exitproc)
c:/program files (x86)/atmel/studio/7.0/toolchain/arm/arm-gnu-toolchain/bin/../lib/gcc/arm-none-eabi/6.3.1/../../../../arm-none-eabi/lib/thumb/v7e-m\libc.a(lib_a-callocr.o)
                              c:/program files (x86)/atmel/studio/7.0/toolchain/arm/arm-gnu-toolchain/bin/../lib/gcc/arm-none-eabi/6.3.1/../../../../arm-none-eabi/lib/thumb/v7e-m\libc.a(lib_a-mprec.o) (_calloc_r)
c:/program files (x86)/atmel/studio/7.0/toolchain/arm/arm-gnu-toolchain/bin/../lib/gcc/arm-none-eabi/6.3.1/../../../../arm-none-eabi/lib/thumb/v7e-m\libc.a(lib_a-closer.o)
                              c:/program files (x86)/atmel/studio/7.0/toolchain/arm/arm-gnu-toolchain/bin/../lib/gcc/arm-none-eabi/6.3.1/../../../../arm-none-eabi/lib/thumb/v7e-m\libc.a(lib_a-stdio.o) (_close_r)
c:/program files (x86)/atmel/studio/7.0/toolchain/arm/arm-gnu-toolchain/bin/../lib/gcc/arm-none-eabi/6.3.1/../../../../arm-none-eabi/lib/thumb/v7e-m\libc.a(lib_a-ctype_.o)
                              c:/program files (x86)/atmel/studio/7.0/toolchain/arm/arm-gnu-toolchain/bin/../lib/gcc/arm-none-eabi/6.3.1/../../../../arm-none-eabi/lib/thumb/v7e-m\libc.a(lib_a-locale.o) (_ctype_)
c:/program files (x86)/atmel/studio/7.0/toolchain/arm/arm-gnu-toolchain/bin/../lib/gcc/arm-none-eabi/6.3.1/../../../../arm-none-eabi/lib/thumb/v7e-m\libc.a(lib_a-fclose.o)
                              c:/program files (x86)/atmel/studio/7.0/toolchain/arm/arm-gnu-toolchain/bin/../lib/gcc/arm-none-eabi/6.3.1/../../../../arm-none-eabi/lib/thumb/v7e-m\libc.a(lib_a-findfp.o) (_fclose_r)
c:/program files (x86)/atmel/studio/7.0/toolchain/arm/arm-gnu-toolchain/bin/../lib/gcc/arm-none-eabi/6.3.1/../../../../arm-none-eabi/lib/thumb/v7e-m\libc.a(lib_a-fstatr.o)
                              c:/program files (x86)/atmel/studio/7.0/toolchain/arm/arm-gnu-toolchain/bin/../lib/gcc/arm-none-eabi/6.3.1/../../../../arm-none-eabi/lib/thumb/v7e-m\libc.a(lib_a-makebuf.o) (_fstat_r)
c:/program files (x86)/atmel/studio/7.0/toolchain/arm/arm-gnu-toolchain/bin/../lib/gcc/arm-none-eabi/6.3.1/../../../../arm-none-eabi/lib/thumb/v7e-m\libc.a(lib_a-isattyr.o)
                              c:/program files (x86)/atmel/studio/7.0/toolchain/arm/arm-gnu-toolchain/bin/../lib/gcc/arm-none-eabi/6.3.1/../../../../arm-none-eabi/lib/thumb/v7e-m\libc.a(lib_a-makebuf.o) (_isatty_r)
c:/program files (x86)/atmel/studio/7.0/toolchain/arm/arm-gnu-toolchain/bin/../lib/gcc/arm-none-eabi/6.3.1/../../../../arm-none-eabi/lib/thumb/v7e-m\libc.a(lib_a-lseekr.o)
                              c:/program files (x86)/atmel/studio/7.0/toolchain/arm/arm-gnu-toolchain/bin/../lib/gcc/arm-none-eabi/6.3.1/../../../../arm-none-eabi/lib/thumb/v7e-m\libc.a(lib_a-stdio.o) (_lseek_r)
c:/program files (x86)/atmel/studio/7.0/toolchain/arm/arm-gnu-toolchain/bin/../lib/gcc/arm-none-eabi/6.3.1/../../../../arm-none-eabi/lib/thumb/v7e-m\libc.a(lib_a-readr.o)
                              c:/program files (x86)/atmel/studio/7.0/toolchain/arm/arm-gnu-toolchain/bin/../lib/gcc/arm-none-eabi/6.3.1/../../../../arm-none-eabi/lib/thumb/v7e-m\libc.a(lib_a-stdio.o) (_read_r)
c:/program files (x86)/atmel/studio/7.0/toolchain/arm/arm-gnu-toolchain/bin/../lib/gcc/arm-none-eabi/6.3.1/thumb/v7e-m\libgcc.a(_arm_addsubdf3.o)
                              c:/program files (x86)/atmel/studio/7.0/toolchain/arm/arm-gnu-toolchain/bin/../lib/gcc/arm-none-eabi/6.3.1/../../../../arm-none-eabi/lib/thumb/v7e-m\libc.a(lib_a-dtoa.o) (__aeabi_dsub)
c:/program files (x86)/atmel/studio/7.0/toolchain/arm/arm-gnu-toolchain/bin/../lib/gcc/arm-none-eabi/6.3.1/thumb/v7e-m\libgcc.a(_arm_muldivdf3.o)
                              c:/program files (x86)/atmel/studio/7.0/toolchain/arm/arm-gnu-toolchain/bin/../lib/gcc/arm-none-eabi/6.3.1/../../../../arm-none-eabi/lib/thumb/v7e-m\libc.a(lib_a-dtoa.o) (__aeabi_dmul)
c:/program files (x86)/atmel/studio/7.0/toolchain/arm/arm-gnu-toolchain/bin/../lib/gcc/arm-none-eabi/6.3.1/thumb/v7e-m\libgcc.a(_arm_cmpdf2.o)
                              c:/program files (x86)/atmel/studio/7.0/toolchain/arm/arm-gnu-toolchain/bin/../lib/gcc/arm-none-eabi/6.3.1/../../../../arm-none-eabi/lib/thumb/v7e-m\libc.a(lib_a-svfprintf.o) (__aeabi_dcmpeq)
c:/program files (x86)/atmel/studio/7.0/toolchain/arm/arm-gnu-toolchain/bin/../lib/gcc/arm-none-eabi/6.3.1/thumb/v7e-m\libgcc.a(_arm_unorddf2.o)
                              c:/program files (x86)/atmel/studio/7.0/toolchain/arm/arm-gnu-toolchain/bin/../lib/gcc/arm-none-eabi/6.3.1/../../../../arm-none-eabi/lib/thumb/v7e-m\libc.a(lib_a-svfprintf.o) (__aeabi_dcmpun)
c:/program files (x86)/atmel/studio/7.0/toolchain/arm/arm-gnu-toolchain/bin/../lib/gcc/arm-none-eabi/6.3.1/thumb/v7e-m\libgcc.a(_arm_fixdfsi.o)
                              c:/program files (x86)/atmel/studio/7.0/toolchain/arm/arm-gnu-toolchain/bin/../lib/gcc/arm-none-eabi/6.3.1/../../../../arm-none-eabi/lib/thumb/v7e-m\libc.a(lib_a-dtoa.o) (__aeabi_d2iz)
c:/program files (x86)/atmel/studio/7.0/toolchain/arm/arm-gnu-toolchain/bin/../lib/gcc/arm-none-eabi/6.3.1/thumb/v7e-m\libgcc.a(_aeabi_uldivmod.o)
                              c:/program files (x86)/atmel/studio/7.0/toolchain/arm/arm-gnu-toolchain/bin/../lib/gcc/arm-none-eabi/6.3.1/../../../../arm-none-eabi/lib/thumb/v7e-m\libc.a(lib_a-svfprintf.o) (__aeabi_uldivmod)
c:/program files (x86)/atmel/studio/7.0/toolchain/arm/arm-gnu-toolchain/bin/../lib/gcc/arm-none-eabi/6.3.1/thumb/v7e-m\libgcc.a(_udivmoddi4.o)
                              c:/program files (x86)/atmel/studio/7.0/toolchain/arm/arm-gnu-toolchain/bin/../lib/gcc/arm-none-eabi/6.3.1/thumb/v7e-m\libgcc.a(_aeabi_uldivmod.o) (__udivmoddi4)
c:/program files (x86)/atmel/studio/7.0/toolchain/arm/arm-gnu-toolchain/bin/../lib/gcc/arm-none-eabi/6.3.1/thumb/v7e-m\libgcc.a(_dvmd_tls.o)
                              c:/program files (x86)/atmel/studio/7.0/toolchain/arm/arm-gnu-toolchain/bin/../lib/gcc/arm-none-eabi/6.3.1/thumb/v7e-m\libgcc.a(_aeabi_uldivmod.o) (__aeabi_ldiv0)

Allocating common symbols
Common symbol       size              file

__lock___atexit_recursive_mutex
                    0x1               c:/program files (x86)/atmel/studio/7.0/toolchain/arm/arm-gnu-toolchain/bin/../lib/gcc/arm-none-eabi/6.3.1/../../../../arm-none-eabi/lib/thumb/v7e-m\libc.a(lib_a-lock.o)
__lock___arc4random_mutex
                    0x1               c:/program files (x86)/atmel/studio/7.0/toolchain/arm/arm-gnu-toolchain/bin/../lib/gcc/arm-none-eabi/6.3.1/../../../../arm-none-eabi/lib/thumb/v7e-m\libc.a(lib_a-lock.o)
errno               0x4               c:/program files (x86)/atmel/studio/7.0/toolchain/arm/arm-gnu-toolchain/bin/../lib/gcc/arm-none-eabi/6.3.1/../../../../arm-none-eabi/lib/thumb/v7e-m\libc.a(lib_a-reent.o)
xSemaphore          0x4               src/main.o
xQueueRegistry      0x40              src/ASF/thirdparty/freertos/freertos-8.2.3/Source/queue.o
ptr_get             0x4               src/ASF/common/utils/stdio/read.o
__lock___env_recursive_mutex
                    0x1               c:/program files (x86)/atmel/studio/7.0/toolchain/arm/arm-gnu-toolchain/bin/../lib/gcc/arm-none-eabi/6.3.1/../../../../arm-none-eabi/lib/thumb/v7e-m\libc.a(lib_a-lock.o)
__lock___sinit_recursive_mutex
                    0x1               c:/program files (x86)/atmel/studio/7.0/toolchain/arm/arm-gnu-toolchain/bin/../lib/gcc/arm-none-eabi/6.3.1/../../../../arm-none-eabi/lib/thumb/v7e-m\libc.a(lib_a-lock.o)
ptr_put             0x4               src/ASF/common/utils/stdio/write.o
__lock___malloc_recursive_mutex
                    0x1               c:/program files (x86)/atmel/studio/7.0/toolchain/arm/arm-gnu-toolchain/bin/../lib/gcc/arm-none-eabi/6.3.1/../../../../arm-none-eabi/lib/thumb/v7e-m\libc.a(lib_a-lock.o)
pio_capture_enable_flag
                    0x4               src/ASF/sam/drivers/pio/pio.o
stdio_base          0x4               src/ASF/common/utils/stdio/write.o
__lock___at_quick_exit_mutex
                    0x1               c:/program files (x86)/atmel/studio/7.0/toolchain/arm/arm-gnu-toolchain/bin/../lib/gcc/arm-none-eabi/6.3.1/../../../../arm-none-eabi/lib/thumb/v7e-m\libc.a(lib_a-lock.o)
__lock___dd_hash_mutex
                    0x1               c:/program files (x86)/atmel/studio/7.0/toolchain/arm/arm-gnu-toolchain/bin/../lib/gcc/arm-none-eabi/6.3.1/../../../../arm-none-eabi/lib/thumb/v7e-m\libc.a(lib_a-lock.o)
__lock___tz_mutex   0x1               c:/program files (x86)/atmel/studio/7.0/toolchain/arm/arm-gnu-toolchain/bin/../lib/gcc/arm-none-eabi/6.3.1/../../../../arm-none-eabi/lib/thumb/v7e-m\libc.a(lib_a-lock.o)
__lock___sfp_recursive_mutex
                    0x1               c:/program files (x86)/atmel/studio/7.0/toolchain/arm/arm-gnu-toolchain/bin/../lib/gcc/arm-none-eabi/6.3.1/../../../../arm-none-eabi/lib/thumb/v7e-m\libc.a(lib_a-lock.o)

Discarded input sections

 .text          0x00000000        0x0 c:/program files (x86)/atmel/studio/7.0/toolchain/arm/arm-gnu-toolchain/bin/../lib/gcc/arm-none-eabi/6.3.1/thumb/v7e-m/crti.o
 .data          0x00000000        0x0 c:/program files (x86)/atmel/studio/7.0/toolchain/arm/arm-gnu-toolchain/bin/../lib/gcc/arm-none-eabi/6.3.1/thumb/v7e-m/crti.o
 .bss           0x00000000        0x0 c:/program files (x86)/atmel/studio/7.0/toolchain/arm/arm-gnu-toolchain/bin/../lib/gcc/arm-none-eabi/6.3.1/thumb/v7e-m/crti.o
 .data          0x00000000        0x4 c:/program files (x86)/atmel/studio/7.0/toolchain/arm/arm-gnu-toolchain/bin/../lib/gcc/arm-none-eabi/6.3.1/thumb/v7e-m/crtbegin.o
 .text          0x00000000       0x74 c:/program files (x86)/atmel/studio/7.0/toolchain/arm/arm-gnu-toolchain/bin/../lib/gcc/arm-none-eabi/6.3.1/../../../../arm-none-eabi/lib/thumb/v7e-m/crt0.o
 .data          0x00000000        0x0 c:/program files (x86)/atmel/studio/7.0/toolchain/arm/arm-gnu-toolchain/bin/../lib/gcc/arm-none-eabi/6.3.1/../../../../arm-none-eabi/lib/thumb/v7e-m/crt0.o
 .bss           0x00000000        0x0 c:/program files (x86)/atmel/studio/7.0/toolchain/arm/arm-gnu-toolchain/bin/../lib/gcc/arm-none-eabi/6.3.1/../../../../arm-none-eabi/lib/thumb/v7e-m/crt0.o
 .ARM.extab     0x00000000        0x0 c:/program files (x86)/atmel/studio/7.0/toolchain/arm/arm-gnu-toolchain/bin/../lib/gcc/arm-none-eabi/6.3.1/../../../../arm-none-eabi/lib/thumb/v7e-m/crt0.o
 .ARM.exidx     0x00000000        0x8 c:/program files (x86)/atmel/studio/7.0/toolchain/arm/arm-gnu-toolchain/bin/../lib/gcc/arm-none-eabi/6.3.1/../../../../arm-none-eabi/lib/thumb/v7e-m/crt0.o
 .ARM.attributes
                0x00000000       0x1c c:/program files (x86)/atmel/studio/7.0/toolchain/arm/arm-gnu-toolchain/bin/../lib/gcc/arm-none-eabi/6.3.1/../../../../arm-none-eabi/lib/thumb/v7e-m/crt0.o
 .group         0x00000000        0x8 src/ASF/common/services/clock/same70/sysclk.o
 .group         0x00000000        0x8 src/ASF/common/services/clock/same70/sysclk.o
 .group         0x00000000        0x8 src/ASF/common/services/clock/same70/sysclk.o
 .group         0x00000000        0x8 src/ASF/common/services/clock/same70/sysclk.o
 .group         0x00000000        0x8 src/ASF/common/services/clock/same70/sysclk.o
 .group         0x00000000        0x8 src/ASF/common/services/clock/same70/sysclk.o
 .group         0x00000000        0x8 src/ASF/common/services/clock/same70/sysclk.o
Memory Configuration

Name             Origin             Length             Attributes
rom              0x00400000         0x00200000         xr
ram              0x20400000         0x00060000         xrw
*default*        0x00000000         0xffffffff

Linker script and memory map

LOAD c:/program files (x86)/atmel/studio/7.0/toolchain/arm/arm-gnu-toolchain/bin/../lib/gcc/arm-none-eabi/6.3.1/thumb/v7e-m/crti.o
LOAD c:/program files (x86)/atmel/studio/7.0/toolchain/arm/arm-gnu-toolchain/bin/../lib/gcc/arm-none-eabi/6.3.1/thumb/v7e-m/crtbegin.o
LOAD c:/program files (x86)/atmel/studio/7.0/toolchain/arm/arm-gnu-toolchain/bin/../lib/gcc/arm-none-eabi/6.3.1/../../../../arm-none-eabi/lib/thumb/v7e-m/crt0.o
LOAD src/ASF/common/services/clock/same70/sysclk.o
LOAD src/ASF/common/services/serial/usart_serial.o
LOAD src/ASF/common/utils/interrupt/interrupt_sam_nvic.o
LOAD src/ASF/common/utils/stdio/read.o
LOAD src/ASF/common/utils/stdio/write.o
LOAD src/ASF/sam/boards/same70_xplained/init.o
LOAD src/ASF/sam/drivers/mpu/mpu.o
LOAD src/ASF/sam/drivers/pio/pio.o
LOAD src/ASF/sam/drivers/pio/pio_handler.o
LOAD src/ASF/sam/drivers/pmc/pmc.o
LOAD src/ASF/sam/drivers/pmc/sleep.o
LOAD src/ASF/sam/drivers/uart/uart.o
LOAD src/ASF/sam/drivers/usart/usart.o
LOAD src/ASF/sam/utils/cmsis/same70/source/templates/gcc/startup_same70.o
LOAD src/ASF/sam/utils/cmsis/same70/source/templates/system_same70.o
LOAD src/ASF/sam/utils/syscalls/gcc/syscalls.o
LOAD src/ASF/thirdparty/freertos/freertos-8.2.3/Source/croutine.o
LOAD src/ASF/thirdparty/freertos/freertos-8.2.3/Source/event_groups.o
LOAD src/ASF/thirdparty/freertos/freertos-8.2.3/Source/list.o
LOAD src/ASF/thirdparty/freertos/freertos-8.2.3/Source/portable/GCC/ARM_CM7/r0p1/port.o
LOAD src/ASF/thirdparty/freertos/freertos-8.2.3/Source/portable/MemMang/heap_3.o
LOAD src/ASF/thirdparty/freertos/freertos-8.2.3/Source/queue.o
LOAD src/ASF/thirdparty/freertos/freertos-8.2.3/Source/tasks.o
LOAD src/ASF/thirdparty/freertos/freertos-8.2.3/Source/timers.o
LOAD src/main.o
START GROUP
LOAD ../src/ASF/thirdparty/CMSIS/Lib/GCC\libarm_cortexM7lfsp_math_softfp.a
LOAD c:/program files (x86)/atmel/studio/7.0/toolchain/arm/arm-gnu-toolchain/bin/../lib/gcc/arm-none-eabi/6.3.1/../../../../arm-none-eabi/lib/thumb/v7e-m\libm.a
END GROUP
START GROUP
LOAD c:/program files (x86)/atmel/studio/7.0/toolchain/arm/arm-gnu-toolchain/bin/../lib/gcc/arm-none-eabi/6.3.1/thumb/v7e-m\libgcc.a
LOAD c:/program files (x86)/atmel/studio/7.0/toolchain/arm/arm-gnu-toolchain/bin/../lib/gcc/arm-none-eabi/6.3.1/../../../../arm-none-eabi/lib/thumb/v7e-m\libc.a
END GROUP
LOAD c:/program files (x86)/atmel/studio/7.0/toolchain/arm/arm-gnu-toolchain/bin/../lib/gcc/arm-none-eabi/6.3.1/thumb/v7e-m/crtend.o
LOAD c:/program files (x86)/atmel/studio/7.0/toolchain/arm/arm-gnu-toolchain/bin/../lib/gcc/arm-none-eabi/6.3.1/thumb/v7e-m/crtn.o
                0x00002000                STACK_SIZE = DEFINED (STACK_SIZE)?STACK_SIZE:0x2000
                0x2045fffc                __ram_end__ = ((ORIGIN (ram) + LENGTH (ram)) - 0x4)
                0x00000200                HEAP_SIZE = DEFINED (HEAP_SIZE)?HEAP_SIZE:0x200

.text           0x00400000     0x9714
                0x00400000                . = ALIGN (0x4)
                0x00400000                _sfixed = .
 *(.vectors .vectors.*)
 .vectors       0x00400000      0x140 src/ASF/sam/utils/cmsis/same70/source/templates/gcc/startup_same70.o
                0x00400000                exception_table
 *(.text .text.* .gnu.linkonce.t.*)
 .text          0x00400140       0x6c c:/program files (x86)/atmel/studio/7.0/toolchain/arm/arm-gnu-toolchain/bin/../lib/gcc/arm-none-eabi/6.3.1/thumb/v7e-m/crtbegin.o
 .text.sysclk_init
                0x004001ac       0x70 src/ASF/common/services/clock/same70/sysclk.o
                0x004001ac                sysclk_init
 .text._read    0x0040021c       0x3c src/ASF/common/utils/stdio/read.o
                0x0040021c                _read
 .text._write   0x00400258       0x50 src/ASF/common/utils/stdio/write.o
                0x00400258                _write
 .text.board_init
                0x004002a8      0x198 src/ASF/sam/boards/same70_xplained/init.o
                0x004002a8                board_init
 .text.pio_set_debounce_filter
                0x00400440       0x1a src/ASF/sam/drivers/pio/pio.o
                0x00400440                pio_set_debounce_filter
 .text.pio_set_peripheral
                0x0040045a       0x92 src/ASF/sam/drivers/pio/pio.o
                0x0040045a                pio_set_peripheral
 .text.pio_set_input
                0x004004ec       0x36 src/ASF/sam/drivers/pio/pio.o
                0x004004ec                pio_set_input
 .text.pio_set_output
                0x00400522       0x28 src/ASF/sam/drivers/pio/pio.o
                0x00400522                pio_set_output
 *fill*         0x0040054a        0x2 
 .text.pio_configure
                0x0040054c       0x90 src/ASF/sam/drivers/pio/pio.o
                0x0040054c                pio_configure
 .text.pio_configure_interrupt
                0x004005dc       0x32 src/ASF/sam/drivers/pio/pio.o
                0x004005dc                pio_configure_interrupt
 .text.pio_enable_interrupt
                0x0040060e        0x4 src/ASF/sam/drivers/pio/pio.o
                0x0040060e                pio_enable_interrupt
 .text.pio_get_interrupt_status
                0x00400612        0x4 src/ASF/sam/drivers/pio/pio.o
                0x00400612                pio_get_interrupt_status
 .text.pio_get_interrupt_mask
                0x00400616        0x4 src/ASF/sam/drivers/pio/pio.o
                0x00400616                pio_get_interrupt_mask
 *fill*         0x0040061a        0x2 
 .text.pio_handler_process
                0x0040061c       0x50 src/ASF/sam/drivers/pio/pio_handler.o
                0x0040061c                pio_handler_process
 .text.pio_handler_set
                0x0040066c       0x70 src/ASF/sam/drivers/pio/pio_handler.o
                0x0040066c                pio_handler_set
 .text.PIOA_Handler
                0x004006dc       0x14 src/ASF/sam/drivers/pio/pio_handler.o
                0x004006dc                PIOA_Handler
 .text.PIOB_Handler
                0x004006f0       0x14 src/ASF/sam/drivers/pio/pio_handler.o
                0x004006f0                PIOB_Handler
 .text.PIOC_Handler
                0x00400704       0x14 src/ASF/sam/drivers/pio/pio_handler.o
                0x00400704                PIOC_Handler
 .text.PIOD_Handler
                0x00400718       0x14 src/ASF/sam/drivers/pio/pio_handler.o
                0x00400718                PIOD_Handler
 .text.PIOE_Handler
                0x0040072c       0x14 src/ASF/sam/drivers/pio/pio_handler.o
                0x0040072c                PIOE_Handler
 .text.pmc_mck_set_division
                0x00400740       0x38 src/ASF/sam/drivers/pmc/pmc.o
                0x00400740                pmc_mck_set_division
 .text.pmc_switch_mck_to_pllack
                0x00400778       0x64 src/ASF/sam/drivers/pmc/pmc.o
                0x00400778                pmc_switch_mck_to_pllack
 .text.pmc_switch_mainck_to_xtal
                0x004007dc       0x54 src/ASF/sam/drivers/pmc/pmc.o
                0x004007dc                pmc_switch_mainck_to_xtal
 .text.pmc_osc_is_ready_mainck
                0x00400830       0x10 src/ASF/sam/drivers/pmc/pmc.o
                0x00400830                pmc_osc_is_ready_mainck
 .text.pmc_disable_pllack
                0x00400840       0x10 src/ASF/sam/drivers/pmc/pmc.o
                0x00400840                pmc_disable_pllack
 .text.pmc_is_locked_pllack
                0x00400850       0x10 src/ASF/sam/drivers/pmc/pmc.o
                0x00400850                pmc_is_locked_pllack
 .text.pmc_enable_periph_clk
                0x00400860       0x54 src/ASF/sam/drivers/pmc/pmc.o
                0x00400860                pmc_enable_periph_clk
 .text.pmc_set_flash_in_wait_mode
                0x004008b4        0x2 src/ASF/sam/drivers/pmc/pmc.o
                0x004008b4                pmc_set_flash_in_wait_mode
 *fill*         0x004008b6        0x2 
 .text.pmc_enable_waitmode
                0x004008b8       0x4c src/ASF/sam/drivers/pmc/pmc.o
                0x004008b8                pmc_enable_waitmode
 .text.pmc_sleep
                0x00400904      0x274 src/ASF/sam/drivers/pmc/sleep.o
                0x00400904                pmc_sleep
 .text.uart_write
                0x00400b78       0x12 src/ASF/sam/drivers/uart/uart.o
                0x00400b78                uart_write
 .text.uart_read
                0x00400b8a       0x14 src/ASF/sam/drivers/uart/uart.o
                0x00400b8a                uart_read
 .text.usart_set_async_baudrate
                0x00400b9e       0x5a src/ASF/sam/drivers/usart/usart.o
                0x00400b9e                usart_set_async_baudrate
 .text.usart_reset
                0x00400bf8       0x28 src/ASF/sam/drivers/usart/usart.o
                0x00400bf8                usart_reset
 .text.usart_init_rs232
                0x00400c20       0x54 src/ASF/sam/drivers/usart/usart.o
                0x00400c20                usart_init_rs232
 .text.usart_enable_tx
                0x00400c74        0x6 src/ASF/sam/drivers/usart/usart.o
                0x00400c74                usart_enable_tx
 .text.usart_enable_rx
                0x00400c7a        0x6 src/ASF/sam/drivers/usart/usart.o
                0x00400c7a                usart_enable_rx
 .text.usart_write
                0x00400c80       0x16 src/ASF/sam/drivers/usart/usart.o
                0x00400c80                usart_write
 .text.usart_read
                0x00400c96       0x18 src/ASF/sam/drivers/usart/usart.o
                0x00400c96                usart_read
 .text.Dummy_Handler
                0x00400cae        0x2 src/ASF/sam/utils/cmsis/same70/source/templates/gcc/startup_same70.o
                0x00400cae                DACC_Handler
                0x00400cae                DebugMon_Handler
                0x00400cae                UART3_Handler
                0x00400cae                UART2_Handler
                0x00400cae                TRNG_Handler
                0x00400cae                HardFault_Handler
                0x00400cae                TC2_Handler
                0x00400cae                AFEC1_Handler
                0x00400cae                NMI_Handler
                0x00400cae                TC7_Handler
                0x00400cae                QSPI_Handler
                0x00400cae                ISI_Handler
                0x00400cae                TC9_Handler
                0x00400cae                RSWDT_Handler
                0x00400cae                MCAN1_Handler
                0x00400cae                USART0_Handler
                0x00400cae                RTT_Handler
                0x00400cae                USBHS_Handler
                0x00400cae                RTC_Handler
                0x00400cae                UsageFault_Handler
                0x00400cae                TC6_Handler
                0x00400cae                WDT_Handler
                0x00400cae                TC4_Handler
                0x00400cae                TC1_Handler
                0x00400cae                HSMCI_Handler
                0x00400cae                UART1_Handler
                0x00400cae                TC3_Handler
                0x00400cae                Dummy_Handler
                0x00400cae                TWIHS1_Handler
                0x00400cae                XDMAC_Handler
                0x00400cae                UART4_Handler
                0x00400cae                PWM1_Handler
                0x00400cae                USART1_Handler
                0x00400cae                PWM0_Handler
                0x00400cae                AFEC0_Handler
                0x00400cae                SSC_Handler
                0x00400cae                TC11_Handler
                0x00400cae                ACC_Handler
                0x00400cae                PMC_Handler
                0x00400cae                GMAC_Handler
                0x00400cae                MemManage_Handler
                0x00400cae                SUPC_Handler
                0x00400cae                TC8_Handler
                0x00400cae                EFC_Handler
                0x00400cae                USART2_Handler
                0x00400cae                SDRAMC_Handler
                0x00400cae                SPI1_Handler
                0x00400cae                MCAN0_Handler
                0x00400cae                TC10_Handler
                0x00400cae                TWIHS2_Handler
                0x00400cae                UART0_Handler
                0x00400cae                BusFault_Handler
                0x00400cae                RSTC_Handler
                0x00400cae                TC0_Handler
                0x00400cae                TC5_Handler
                0x00400cae                ICM_Handler
                0x00400cae                AES_Handler
                0x00400cae                TWIHS0_Handler
                0x00400cae                SPI0_Handler
 .text.Reset_Handler
                0x00400cb0       0xc8 src/ASF/sam/utils/cmsis/same70/source/templates/gcc/startup_same70.o
                0x00400cb0                Reset_Handler
 .text.SystemCoreClockUpdate
                0x00400d78      0x10c src/ASF/sam/utils/cmsis/same70/source/templates/system_same70.o
                0x00400d78                SystemCoreClockUpdate
 .text.system_init_flash
                0x00400e84       0x8c src/ASF/sam/utils/cmsis/same70/source/templates/system_same70.o
                0x00400e84                system_init_flash
 .text._sbrk    0x00400f10       0x38 src/ASF/sam/utils/syscalls/gcc/syscalls.o
                0x00400f10                _sbrk
 .text._close   0x00400f48        0x6 src/ASF/sam/utils/syscalls/gcc/syscalls.o
                0x00400f48                _close
 .text._fstat   0x00400f4e        0xa src/ASF/sam/utils/syscalls/gcc/syscalls.o
                0x00400f4e                _fstat
 .text._isatty  0x00400f58        0x4 src/ASF/sam/utils/syscalls/gcc/syscalls.o
                0x00400f58                _isatty
 .text._lseek   0x00400f5c        0x4 src/ASF/sam/utils/syscalls/gcc/syscalls.o
                0x00400f5c                _lseek
 .text.vListInitialise
                0x00400f60       0x16 src/ASF/thirdparty/freertos/freertos-8.2.3/Source/list.o
                0x00400f60                vListInitialise
 .text.vListInitialiseItem
                0x00400f76        0x6 src/ASF/thirdparty/freertos/freertos-8.2.3/Source/list.o
                0x00400f76                vListInitialiseItem
 .text.vListInsertEnd
                0x00400f7c       0x18 src/ASF/thirdparty/freertos/freertos-8.2.3/Source/list.o
                0x00400f7c                vListInsertEnd
 .text.vListInsert
                0x00400f94       0x34 src/ASF/thirdparty/freertos/freertos-8.2.3/Source/list.o
                0x00400f94                vListInsert
 .text.uxListRemove
                0x00400fc8       0x26 src/ASF/thirdparty/freertos/freertos-8.2.3/Source/list.o
                0x00400fc8                uxListRemove
 .text.prvTaskExitError
                0x00400fee       0x16 src/ASF/thirdparty/freertos/freertos-8.2.3/Source/portable/GCC/ARM_CM7/r0p1/port.o
 .text.prvPortStartFirstTask
                0x00401004       0x20 src/ASF/thirdparty/freertos/freertos-8.2.3/Source/portable/GCC/ARM_CM7/r0p1/port.o
 .text.vPortEnableVFP
                0x00401024       0x14 src/ASF/thirdparty/freertos/freertos-8.2.3/Source/portable/GCC/ARM_CM7/r0p1/port.o
 .text.pxPortInitialiseStack
                0x00401038       0x28 src/ASF/thirdparty/freertos/freertos-8.2.3/Source/portable/GCC/ARM_CM7/r0p1/port.o
                0x00401038                pxPortInitialiseStack
 .text.SVC_Handler
                0x00401060       0x24 src/ASF/thirdparty/freertos/freertos-8.2.3/Source/portable/GCC/ARM_CM7/r0p1/port.o
                0x00401060                SVC_Handler
 .text.vPortEnterCritical
                0x00401084       0x24 src/ASF/thirdparty/freertos/freertos-8.2.3/Source/portable/GCC/ARM_CM7/r0p1/port.o
                0x00401084                vPortEnterCritical
 .text.vPortExitCritical
                0x004010a8       0x14 src/ASF/thirdparty/freertos/freertos-8.2.3/Source/portable/GCC/ARM_CM7/r0p1/port.o
                0x004010a8                vPortExitCritical
 .text.PendSV_Handler
                0x004010bc       0x68 src/ASF/thirdparty/freertos/freertos-8.2.3/Source/portable/GCC/ARM_CM7/r0p1/port.o
                0x004010bc                PendSV_Handler
 .text.SysTick_Handler
                0x00401124       0x38 src/ASF/thirdparty/freertos/freertos-8.2.3/Source/portable/GCC/ARM_CM7/r0p1/port.o
                0x00401124                SysTick_Handler
 .text.vPortSetupTimerInterrupt
                0x0040115c       0x18 src/ASF/thirdparty/freertos/freertos-8.2.3/Source/portable/GCC/ARM_CM7/r0p1/port.o
                0x0040115c                vPortSetupTimerInterrupt
 .text.xPortStartScheduler
                0x00401174       0x50 src/ASF/thirdparty/freertos/freertos-8.2.3/Source/portable/GCC/ARM_CM7/r0p1/port.o
                0x00401174                xPortStartScheduler
 .text.pvPortMalloc
                0x004011c4       0x30 src/ASF/thirdparty/freertos/freertos-8.2.3/Source/portable/MemMang/heap_3.o
                0x004011c4                pvPortMalloc
 .text.vPortFree
                0x004011f4       0x24 src/ASF/thirdparty/freertos/freertos-8.2.3/Source/portable/MemMang/heap_3.o
                0x004011f4                vPortFree
 .text.prvCopyDataToQueue
                0x00401218       0x84 src/ASF/thirdparty/freertos/freertos-8.2.3/Source/queue.o
 .text.prvNotifyQueueSetContainer
                0x0040129c       0x54 src/ASF/thirdparty/freertos/freertos-8.2.3/Source/queue.o
 .text.prvCopyDataFromQueue
                0x004012f0       0x28 src/ASF/thirdparty/freertos/freertos-8.2.3/Source/queue.o
 .text.prvUnlockQueue
                0x00401318       0xa4 src/ASF/thirdparty/freertos/freertos-8.2.3/Source/queue.o
 .text.xQueueGenericReset
                0x004013bc       0x7c src/ASF/thirdparty/freertos/freertos-8.2.3/Source/queue.o
                0x004013bc                xQueueGenericReset
 .text.xQueueGenericCreate
                0x00401438       0x50 src/ASF/thirdparty/freertos/freertos-8.2.3/Source/queue.o
                0x00401438                xQueueGenericCreate
 .text.xQueueGenericSend
                0x00401488      0x16c src/ASF/thirdparty/freertos/freertos-8.2.3/Source/queue.o
                0x00401488                xQueueGenericSend
 .text.xQueueGenericSendFromISR
                0x004015f4       0x90 src/ASF/thirdparty/freertos/freertos-8.2.3/Source/queue.o
                0x004015f4                xQueueGenericSendFromISR
 .text.xQueueGiveFromISR
                0x00401684       0x80 src/ASF/thirdparty/freertos/freertos-8.2.3/Source/queue.o
                0x00401684                xQueueGiveFromISR
 .text.xQueueGenericReceive
                0x00401704      0x17c src/ASF/thirdparty/freertos/freertos-8.2.3/Source/queue.o
                0x00401704                xQueueGenericReceive
 .text.vQueueAddToRegistry
                0x00401880       0x34 src/ASF/thirdparty/freertos/freertos-8.2.3/Source/queue.o
                0x00401880                vQueueAddToRegistry
 .text.vQueueWaitForMessageRestricted
                0x004018b4       0x58 src/ASF/thirdparty/freertos/freertos-8.2.3/Source/queue.o
                0x004018b4                vQueueWaitForMessageRestricted
 .text.prvListTaskWithinSingleList
                0x0040190c       0xb2 src/ASF/thirdparty/freertos/freertos-8.2.3/Source/tasks.o
 *fill*         0x004019be        0x2 
 .text.prvResetNextTaskUnblockTime
                0x004019c0       0x2c src/ASF/thirdparty/freertos/freertos-8.2.3/Source/tasks.o
 .text.prvAddCurrentTaskToDelayedList
                0x004019ec       0x58 src/ASF/thirdparty/freertos/freertos-8.2.3/Source/tasks.o
 .text.xTaskGenericCreate
                0x00401a44      0x1fc src/ASF/thirdparty/freertos/freertos-8.2.3/Source/tasks.o
                0x00401a44                xTaskGenericCreate
 .text.vTaskStartScheduler
                0x00401c40       0x78 src/ASF/thirdparty/freertos/freertos-8.2.3/Source/tasks.o
                0x00401c40                vTaskStartScheduler
 .text.vTaskSuspendAll
                0x00401cb8       0x10 src/ASF/thirdparty/freertos/freertos-8.2.3/Source/tasks.o
                0x00401cb8                vTaskSuspendAll
 .text.xTaskGetTickCount
                0x00401cc8        0xc src/ASF/thirdparty/freertos/freertos-8.2.3/Source/tasks.o
                0x00401cc8                xTaskGetTickCount
 .text.uxTaskGetNumberOfTasks
                0x00401cd4        0xc src/ASF/thirdparty/freertos/freertos-8.2.3/Source/tasks.o
                0x00401cd4                uxTaskGetNumberOfTasks
 .text.xTaskIncrementTick
                0x00401ce0      0x138 src/ASF/thirdparty/freertos/freertos-8.2.3/Source/tasks.o
                0x00401ce0                xTaskIncrementTick
 .text.xTaskResumeAll
                0x00401e18       0xfc src/ASF/thirdparty/freertos/freertos-8.2.3/Source/tasks.o
                0x00401e18                xTaskResumeAll
 .text.vTaskDelay
                0x00401f14       0x74 src/ASF/thirdparty/freertos/freertos-8.2.3/Source/tasks.o
                0x00401f14                vTaskDelay
 .text.prvIdleTask
                0x00401f88       0x9c src/ASF/thirdparty/freertos/freertos-8.2.3/Source/tasks.o
 .text.uxTaskGetSystemState
                0x00402024       0xac src/ASF/thirdparty/freertos/freertos-8.2.3/Source/tasks.o
                0x00402024                uxTaskGetSystemState
 .text.vTaskSwitchContext
                0x004020d0       0xb0 src/ASF/thirdparty/freertos/freertos-8.2.3/Source/tasks.o
                0x004020d0                vTaskSwitchContext
 .text.vTaskPlaceOnEventList
                0x00402180       0x6c src/ASF/thirdparty/freertos/freertos-8.2.3/Source/tasks.o
                0x00402180                vTaskPlaceOnEventList
 .text.vTaskPlaceOnEventListRestricted
                0x004021ec       0x68 src/ASF/thirdparty/freertos/freertos-8.2.3/Source/tasks.o
                0x004021ec                vTaskPlaceOnEventListRestricted
 .text.xTaskRemoveFromEventList
                0x00402254       0x80 src/ASF/thirdparty/freertos/freertos-8.2.3/Source/tasks.o
                0x00402254                xTaskRemoveFromEventList
 .text.vTaskSetTimeOutState
                0x004022d4       0x18 src/ASF/thirdparty/freertos/freertos-8.2.3/Source/tasks.o
                0x004022d4                vTaskSetTimeOutState
 .text.xTaskCheckForTimeOut
                0x004022ec       0x64 src/ASF/thirdparty/freertos/freertos-8.2.3/Source/tasks.o
                0x004022ec                xTaskCheckForTimeOut
 .text.vTaskMissedYield
                0x00402350        0xc src/ASF/thirdparty/freertos/freertos-8.2.3/Source/tasks.o
                0x00402350                vTaskMissedYield
 .text.xTaskGetSchedulerState
                0x0040235c       0x20 src/ASF/thirdparty/freertos/freertos-8.2.3/Source/tasks.o
                0x0040235c                xTaskGetSchedulerState
 .text.vTaskPriorityInherit
                0x0040237c       0xa4 src/ASF/thirdparty/freertos/freertos-8.2.3/Source/tasks.o
                0x0040237c                vTaskPriorityInherit
 .text.xTaskPriorityDisinherit
                0x00402420       0x84 src/ASF/thirdparty/freertos/freertos-8.2.3/Source/tasks.o
                0x00402420                xTaskPriorityDisinherit
 .text.vTaskList
                0x004024a4      0x110 src/ASF/thirdparty/freertos/freertos-8.2.3/Source/tasks.o
                0x004024a4                vTaskList
 .text.pvTaskIncrementMutexHeldCount
                0x004025b4       0x1c src/ASF/thirdparty/freertos/freertos-8.2.3/Source/tasks.o
                0x004025b4                pvTaskIncrementMutexHeldCount
 .text.prvInsertTimerInActiveList
                0x004025d0       0x4c src/ASF/thirdparty/freertos/freertos-8.2.3/Source/timers.o
 .text.prvCheckForValidListAndQueue
                0x0040261c       0x70 src/ASF/thirdparty/freertos/freertos-8.2.3/Source/timers.o
 .text.xTimerCreateTimerTask
                0x0040268c       0x44 src/ASF/thirdparty/freertos/freertos-8.2.3/Source/timers.o
                0x0040268c                xTimerCreateTimerTask
 .text.xTimerGenericCommand
                0x004026d0       0x58 src/ASF/thirdparty/freertos/freertos-8.2.3/Source/timers.o
                0x004026d0                xTimerGenericCommand
 .text.prvSampleTimeNow
                0x00402728       0xa4 src/ASF/thirdparty/freertos/freertos-8.2.3/Source/timers.o
 .text.prvTimerTask
                0x004027cc      0x1c8 src/ASF/thirdparty/freertos/freertos-8.2.3/Source/timers.o
 .text.but_callback
                0x00402994       0x38 src/main.o
                0x00402994                but_callback
 .text.task_led
                0x004029cc       0x6c src/main.o
 .text.task_monitor
                0x00402a38       0x40 src/main.o
 .text.usart_serial_getchar
                0x00402a78       0xdc src/main.o
 .text.usart_serial_putchar
                0x00402b54       0xd4 src/main.o
 .text.vApplicationStackOverflowHook
                0x00402c28       0x18 src/main.o
                0x00402c28                vApplicationStackOverflowHook
 .text.vApplicationIdleHook
                0x00402c40       0x10 src/main.o
                0x00402c40                vApplicationIdleHook
 .text.vApplicationTickHook
                0x00402c50        0x2 src/main.o
                0x00402c50                vApplicationTickHook
 .text.vApplicationMallocFailedHook
                0x00402c52        0x2 src/main.o
                0x00402c52                vApplicationMallocFailedHook
 .text.init_but_board
                0x00402c54       0x6c src/main.o
                0x00402c54                init_but_board
 .text.main     0x00402cc0      0x148 src/main.o
                0x00402cc0                main
 .text.__libc_init_array
                0x00402e08       0x50 c:/program files (x86)/atmel/studio/7.0/toolchain/arm/arm-gnu-toolchain/bin/../lib/gcc/arm-none-eabi/6.3.1/../../../../arm-none-eabi/lib/thumb/v7e-m\libc.a(lib_a-init.o)
                0x00402e08                __libc_init_array
 .text.iprintf  0x00402e58       0x28 c:/program files (x86)/atmel/studio/7.0/toolchain/arm/arm-gnu-toolchain/bin/../lib/gcc/arm-none-eabi/6.3.1/../../../../arm-none-eabi/lib/thumb/v7e-m\libc.a(lib_a-iprintf.o)
                0x00402e58                iprintf
 .text.malloc   0x00402e80       0x10 c:/program files (x86)/atmel/studio/7.0/toolchain/arm/arm-gnu-toolchain/bin/../lib/gcc/arm-none-eabi/6.3.1/../../../../arm-none-eabi/lib/thumb/v7e-m\libc.a(lib_a-malloc.o)
                0x00402e80                malloc
 .text.free     0x00402e90       0x10 c:/program files (x86)/atmel/studio/7.0/toolchain/arm/arm-gnu-toolchain/bin/../lib/gcc/arm-none-eabi/6.3.1/../../../../arm-none-eabi/lib/thumb/v7e-m\libc.a(lib_a-malloc.o)
                0x00402e90                free
 .text._malloc_r
                0x00402ea0      0x560 c:/program files (x86)/atmel/studio/7.0/toolchain/arm/arm-gnu-toolchain/bin/../lib/gcc/arm-none-eabi/6.3.1/../../../../arm-none-eabi/lib/thumb/v7e-m\libc.a(lib_a-mallocr.o)
                0x00402ea0                _malloc_r
 .text          0x00403400      0x134 c:/program files (x86)/atmel/studio/7.0/toolchain/arm/arm-gnu-toolchain/bin/../lib/gcc/arm-none-eabi/6.3.1/../../../../arm-none-eabi/lib/thumb/v7e-m\libc.a(lib_a-memcpy.o)
                0x00403400                memcpy
 .text.memset   0x00403534       0x9c c:/program files (x86)/atmel/studio/7.0/toolchain/arm/arm-gnu-toolchain/bin/../lib/gcc/arm-none-eabi/6.3.1/../../../../arm-none-eabi/lib/thumb/v7e-m\libc.a(lib_a-memset.o)
                0x00403534                memset
 .text.__malloc_lock
                0x004035d0        0xc c:/program files (x86)/atmel/studio/7.0/toolchain/arm/arm-gnu-toolchain/bin/../lib/gcc/arm-none-eabi/6.3.1/../../../../arm-none-eabi/lib/thumb/v7e-m\libc.a(lib_a-mlock.o)
                0x004035d0                __malloc_lock
 .text.__malloc_unlock
                0x004035dc        0xc c:/program files (x86)/atmel/studio/7.0/toolchain/arm/arm-gnu-toolchain/bin/../lib/gcc/arm-none-eabi/6.3.1/../../../../arm-none-eabi/lib/thumb/v7e-m\libc.a(lib_a-mlock.o)
                0x004035dc                __malloc_unlock
 .text._sbrk_r  0x004035e8       0x24 c:/program files (x86)/atmel/studio/7.0/toolchain/arm/arm-gnu-toolchain/bin/../lib/gcc/arm-none-eabi/6.3.1/../../../../arm-none-eabi/lib/thumb/v7e-m\libc.a(lib_a-sbrkr.o)
                0x004035e8                _sbrk_r
 .text.setbuf   0x0040360c       0x10 c:/program files (x86)/atmel/studio/7.0/toolchain/arm/arm-gnu-toolchain/bin/../lib/gcc/arm-none-eabi/6.3.1/../../../../arm-none-eabi/lib/thumb/v7e-m\libc.a(lib_a-setbuf.o)
                0x0040360c                setbuf
 .text.setvbuf  0x0040361c      0x190 c:/program files (x86)/atmel/studio/7.0/toolchain/arm/arm-gnu-toolchain/bin/../lib/gcc/arm-none-eabi/6.3.1/../../../../arm-none-eabi/lib/thumb/v7e-m\libc.a(lib_a-setvbuf.o)
                0x0040361c                setvbuf
 .text.sprintf  0x004037ac       0x4c c:/program files (x86)/atmel/studio/7.0/toolchain/arm/arm-gnu-toolchain/bin/../lib/gcc/arm-none-eabi/6.3.1/../../../../arm-none-eabi/lib/thumb/v7e-m\libc.a(lib_a-sprintf.o)
                0x004037ac                sprintf
 .text.strcpy   0x004037f8       0xbc c:/program files (x86)/atmel/studio/7.0/toolchain/arm/arm-gnu-toolchain/bin/../lib/gcc/arm-none-eabi/6.3.1/../../../../arm-none-eabi/lib/thumb/v7e-m\libc.a(lib_a-strcpy.o)
                0x004037f8                strcpy
 *fill*         0x004038b4        0xc 
 .text          0x004038c0       0xdc c:/program files (x86)/atmel/studio/7.0/toolchain/arm/arm-gnu-toolchain/bin/../lib/gcc/arm-none-eabi/6.3.1/../../../../arm-none-eabi/lib/thumb/v7e-m\libc.a(lib_a-strlen.o)
                0x004038c0                strlen
 .text._svfprintf_r
                0x0040399c     0x145c c:/program files (x86)/atmel/studio/7.0/toolchain/arm/arm-gnu-toolchain/bin/../lib/gcc/arm-none-eabi/6.3.1/../../../../arm-none-eabi/lib/thumb/v7e-m\libc.a(lib_a-svfprintf.o)
                0x0040399c                _svfprintf_r
 .text.__sprint_r.part.0
                0x00404df8       0x80 c:/program files (x86)/atmel/studio/7.0/toolchain/arm/arm-gnu-toolchain/bin/../lib/gcc/arm-none-eabi/6.3.1/../../../../arm-none-eabi/lib/thumb/v7e-m\libc.a(lib_a-vfiprintf.o)
 .text._vfiprintf_r
                0x00404e78      0xc90 c:/program files (x86)/atmel/studio/7.0/toolchain/arm/arm-gnu-toolchain/bin/../lib/gcc/arm-none-eabi/6.3.1/../../../../arm-none-eabi/lib/thumb/v7e-m\libc.a(lib_a-vfiprintf.o)
                0x00404e78                _vfiprintf_r
 .text.__sbprintf
                0x00405b08       0x84 c:/program files (x86)/atmel/studio/7.0/toolchain/arm/arm-gnu-toolchain/bin/../lib/gcc/arm-none-eabi/6.3.1/../../../../arm-none-eabi/lib/thumb/v7e-m\libc.a(lib_a-vfiprintf.o)
 .text.__swsetup_r
                0x00405b8c       0xc8 c:/program files (x86)/atmel/studio/7.0/toolchain/arm/arm-gnu-toolchain/bin/../lib/gcc/arm-none-eabi/6.3.1/../../../../arm-none-eabi/lib/thumb/v7e-m\libc.a(lib_a-wsetup.o)
                0x00405b8c                __swsetup_r
 .text.startup.register_fini
                0x00405c54       0x14 c:/program files (x86)/atmel/studio/7.0/toolchain/arm/arm-gnu-toolchain/bin/../lib/gcc/arm-none-eabi/6.3.1/../../../../arm-none-eabi/lib/thumb/v7e-m\libc.a(lib_a-__call_atexit.o)
 .text.atexit   0x00405c68        0xc c:/program files (x86)/atmel/studio/7.0/toolchain/arm/arm-gnu-toolchain/bin/../lib/gcc/arm-none-eabi/6.3.1/../../../../arm-none-eabi/lib/thumb/v7e-m\libc.a(lib_a-atexit.o)
                0x00405c68                atexit
 .text.quorem   0x00405c74      0x128 c:/program files (x86)/atmel/studio/7.0/toolchain/arm/arm-gnu-toolchain/bin/../lib/gcc/arm-none-eabi/6.3.1/../../../../arm-none-eabi/lib/thumb/v7e-m\libc.a(lib_a-dtoa.o)
 *fill*         0x00405d9c        0x4 
 .text._dtoa_r  0x00405da0      0xe54 c:/program files (x86)/atmel/studio/7.0/toolchain/arm/arm-gnu-toolchain/bin/../lib/gcc/arm-none-eabi/6.3.1/../../../../arm-none-eabi/lib/thumb/v7e-m\libc.a(lib_a-dtoa.o)
                0x00405da0                _dtoa_r
 .text.__sflush_r
                0x00406bf4      0x140 c:/program files (x86)/atmel/studio/7.0/toolchain/arm/arm-gnu-toolchain/bin/../lib/gcc/arm-none-eabi/6.3.1/../../../../arm-none-eabi/lib/thumb/v7e-m\libc.a(lib_a-fflush.o)
                0x00406bf4                __sflush_r
 .text._fflush_r
                0x00406d34       0x54 c:/program files (x86)/atmel/studio/7.0/toolchain/arm/arm-gnu-toolchain/bin/../lib/gcc/arm-none-eabi/6.3.1/../../../../arm-none-eabi/lib/thumb/v7e-m\libc.a(lib_a-fflush.o)
                0x00406d34                _fflush_r
 .text._cleanup_r
                0x00406d88        0xc c:/program files (x86)/atmel/studio/7.0/toolchain/arm/arm-gnu-toolchain/bin/../lib/gcc/arm-none-eabi/6.3.1/../../../../arm-none-eabi/lib/thumb/v7e-m\libc.a(lib_a-findfp.o)
                0x00406d88                _cleanup_r
 .text.std.isra.0
                0x00406d94       0x50 c:/program files (x86)/atmel/studio/7.0/toolchain/arm/arm-gnu-toolchain/bin/../lib/gcc/arm-none-eabi/6.3.1/../../../../arm-none-eabi/lib/thumb/v7e-m\libc.a(lib_a-findfp.o)
 .text.__sinit  0x00406de4       0x58 c:/program files (x86)/atmel/studio/7.0/toolchain/arm/arm-gnu-toolchain/bin/../lib/gcc/arm-none-eabi/6.3.1/../../../../arm-none-eabi/lib/thumb/v7e-m\libc.a(lib_a-findfp.o)
                0x00406de4                __sinit
 .text.__sfp_lock_acquire
                0x00406e3c        0xc c:/program files (x86)/atmel/studio/7.0/toolchain/arm/arm-gnu-toolchain/bin/../lib/gcc/arm-none-eabi/6.3.1/../../../../arm-none-eabi/lib/thumb/v7e-m\libc.a(lib_a-findfp.o)
                0x00406e3c                __sfp_lock_acquire
 .text.__sfp_lock_release
                0x00406e48        0xc c:/program files (x86)/atmel/studio/7.0/toolchain/arm/arm-gnu-toolchain/bin/../lib/gcc/arm-none-eabi/6.3.1/../../../../arm-none-eabi/lib/thumb/v7e-m\libc.a(lib_a-findfp.o)
                0x00406e48                __sfp_lock_release
 .text.__libc_fini_array
                0x00406e54       0x34 c:/program files (x86)/atmel/studio/7.0/toolchain/arm/arm-gnu-toolchain/bin/../lib/gcc/arm-none-eabi/6.3.1/../../../../arm-none-eabi/lib/thumb/v7e-m\libc.a(lib_a-fini.o)
                0x00406e54                __libc_fini_array
 .text.__fputwc
                0x00406e88       0xa0 c:/program files (x86)/atmel/studio/7.0/toolchain/arm/arm-gnu-toolchain/bin/../lib/gcc/arm-none-eabi/6.3.1/../../../../arm-none-eabi/lib/thumb/v7e-m\libc.a(lib_a-fputwc.o)
                0x00406e88                __fputwc
 .text._fputwc_r
                0x00406f28       0x68 c:/program files (x86)/atmel/studio/7.0/toolchain/arm/arm-gnu-toolchain/bin/../lib/gcc/arm-none-eabi/6.3.1/../../../../arm-none-eabi/lib/thumb/v7e-m\libc.a(lib_a-fputwc.o)
                0x00406f28                _fputwc_r
 .text._malloc_trim_r
                0x00406f90       0xa0 c:/program files (x86)/atmel/studio/7.0/toolchain/arm/arm-gnu-toolchain/bin/../lib/gcc/arm-none-eabi/6.3.1/../../../../arm-none-eabi/lib/thumb/v7e-m\libc.a(lib_a-freer.o)
                0x00406f90                _malloc_trim_r
 .text._free_r  0x00407030      0x1cc c:/program files (x86)/atmel/studio/7.0/toolchain/arm/arm-gnu-toolchain/bin/../lib/gcc/arm-none-eabi/6.3.1/../../../../arm-none-eabi/lib/thumb/v7e-m\libc.a(lib_a-freer.o)
                0x00407030                _free_r
 .text.__sfvwrite_r
                0x004071fc      0x2f0 c:/program files (x86)/atmel/studio/7.0/toolchain/arm/arm-gnu-toolchain/bin/../lib/gcc/arm-none-eabi/6.3.1/../../../../arm-none-eabi/lib/thumb/v7e-m\libc.a(lib_a-fvwrite.o)
                0x004071fc                __sfvwrite_r
 .text._fwalk_reent
                0x004074ec       0x54 c:/program files (x86)/atmel/studio/7.0/toolchain/arm/arm-gnu-toolchain/bin/../lib/gcc/arm-none-eabi/6.3.1/../../../../arm-none-eabi/lib/thumb/v7e-m\libc.a(lib_a-fwalk.o)
                0x004074ec                _fwalk_reent
 .text.__locale_mb_cur_max
                0x00407540       0x1c c:/program files (x86)/atmel/studio/7.0/toolchain/arm/arm-gnu-toolchain/bin/../lib/gcc/arm-none-eabi/6.3.1/../../../../arm-none-eabi/lib/thumb/v7e-m\libc.a(lib_a-locale.o)
                0x00407540                __locale_mb_cur_max
 .text._localeconv_r
                0x0040755c       0x1c c:/program files (x86)/atmel/studio/7.0/toolchain/arm/arm-gnu-toolchain/bin/../lib/gcc/arm-none-eabi/6.3.1/../../../../arm-none-eabi/lib/thumb/v7e-m\libc.a(lib_a-localeconv.o)
                0x0040755c                _localeconv_r
 .text.__retarget_lock_init_recursive
                0x00407578        0x4 c:/program files (x86)/atmel/studio/7.0/toolchain/arm/arm-gnu-toolchain/bin/../lib/gcc/arm-none-eabi/6.3.1/../../../../arm-none-eabi/lib/thumb/v7e-m\libc.a(lib_a-lock.o)
                0x00407578                __retarget_lock_init_recursive
 .text.__retarget_lock_close_recursive
                0x0040757c        0x4 c:/program files (x86)/atmel/studio/7.0/toolchain/arm/arm-gnu-toolchain/bin/../lib/gcc/arm-none-eabi/6.3.1/../../../../arm-none-eabi/lib/thumb/v7e-m\libc.a(lib_a-lock.o)
                0x0040757c                __retarget_lock_close_recursive
 .text.__retarget_lock_acquire_recursive
                0x00407580        0x4 c:/program files (x86)/atmel/studio/7.0/toolchain/arm/arm-gnu-toolchain/bin/../lib/gcc/arm-none-eabi/6.3.1/../../../../arm-none-eabi/lib/thumb/v7e-m\libc.a(lib_a-lock.o)
                0x00407580                __retarget_lock_acquire_recursive
 .text.__retarget_lock_release_recursive
                0x00407584        0x4 c:/program files (x86)/atmel/studio/7.0/toolchain/arm/arm-gnu-toolchain/bin/../lib/gcc/arm-none-eabi/6.3.1/../../../../arm-none-eabi/lib/thumb/v7e-m\libc.a(lib_a-lock.o)
                0x00407584                __retarget_lock_release_recursive
 .text.__swhatbuf_r
                0x00407588       0x5c c:/program files (x86)/atmel/studio/7.0/toolchain/arm/arm-gnu-toolchain/bin/../lib/gcc/arm-none-eabi/6.3.1/../../../../arm-none-eabi/lib/thumb/v7e-m\libc.a(lib_a-makebuf.o)
                0x00407588                __swhatbuf_r
 .text.__smakebuf_r
                0x004075e4       0x94 c:/program files (x86)/atmel/studio/7.0/toolchain/arm/arm-gnu-toolchain/bin/../lib/gcc/arm-none-eabi/6.3.1/../../../../arm-none-eabi/lib/thumb/v7e-m\libc.a(lib_a-makebuf.o)
                0x004075e4                __smakebuf_r
 .text.__ascii_mbtowc
                0x00407678       0x2c c:/program files (x86)/atmel/studio/7.0/toolchain/arm/arm-gnu-toolchain/bin/../lib/gcc/arm-none-eabi/6.3.1/../../../../arm-none-eabi/lib/thumb/v7e-m\libc.a(lib_a-mbtowc_r.o)
                0x00407678                __ascii_mbtowc
 *fill*         0x004076a4        0xc 
 .text          0x004076b0       0xa0 c:/program files (x86)/atmel/studio/7.0/toolchain/arm/arm-gnu-toolchain/bin/../lib/gcc/arm-none-eabi/6.3.1/../../../../arm-none-eabi/lib/thumb/v7e-m\libc.a(lib_a-memchr.o)
                0x004076b0                memchr
 .text.memmove  0x00407750       0xc8 c:/program files (x86)/atmel/studio/7.0/toolchain/arm/arm-gnu-toolchain/bin/../lib/gcc/arm-none-eabi/6.3.1/../../../../arm-none-eabi/lib/thumb/v7e-m\libc.a(lib_a-memmove.o)
                0x00407750                memmove
 .text._Balloc  0x00407818       0x4c c:/program files (x86)/atmel/studio/7.0/toolchain/arm/arm-gnu-toolchain/bin/../lib/gcc/arm-none-eabi/6.3.1/../../../../arm-none-eabi/lib/thumb/v7e-m\libc.a(lib_a-mprec.o)
                0x00407818                _Balloc
 .text._Bfree   0x00407864       0x14 c:/program files (x86)/atmel/studio/7.0/toolchain/arm/arm-gnu-toolchain/bin/../lib/gcc/arm-none-eabi/6.3.1/../../../../arm-none-eabi/lib/thumb/v7e-m\libc.a(lib_a-mprec.o)
                0x00407864                _Bfree
 .text.__multadd
                0x00407878       0x80 c:/program files (x86)/atmel/studio/7.0/toolchain/arm/arm-gnu-toolchain/bin/../lib/gcc/arm-none-eabi/6.3.1/../../../../arm-none-eabi/lib/thumb/v7e-m\libc.a(lib_a-mprec.o)
                0x00407878                __multadd
 .text.__hi0bits
                0x004078f8       0x40 c:/program files (x86)/atmel/studio/7.0/toolchain/arm/arm-gnu-toolchain/bin/../lib/gcc/arm-none-eabi/6.3.1/../../../../arm-none-eabi/lib/thumb/v7e-m\libc.a(lib_a-mprec.o)
                0x004078f8                __hi0bits
 .text.__lo0bits
                0x00407938       0x60 c:/program files (x86)/atmel/studio/7.0/toolchain/arm/arm-gnu-toolchain/bin/../lib/gcc/arm-none-eabi/6.3.1/../../../../arm-none-eabi/lib/thumb/v7e-m\libc.a(lib_a-mprec.o)
                0x00407938                __lo0bits
 .text.__i2b    0x00407998       0x14 c:/program files (x86)/atmel/studio/7.0/toolchain/arm/arm-gnu-toolchain/bin/../lib/gcc/arm-none-eabi/6.3.1/../../../../arm-none-eabi/lib/thumb/v7e-m\libc.a(lib_a-mprec.o)
                0x00407998                __i2b
 .text.__multiply
                0x004079ac      0x124 c:/program files (x86)/atmel/studio/7.0/toolchain/arm/arm-gnu-toolchain/bin/../lib/gcc/arm-none-eabi/6.3.1/../../../../arm-none-eabi/lib/thumb/v7e-m\libc.a(lib_a-mprec.o)
                0x004079ac                __multiply
 .text.__pow5mult
                0x00407ad0       0xa0 c:/program files (x86)/atmel/studio/7.0/toolchain/arm/arm-gnu-toolchain/bin/../lib/gcc/arm-none-eabi/6.3.1/../../../../arm-none-eabi/lib/thumb/v7e-m\libc.a(lib_a-mprec.o)
                0x00407ad0                __pow5mult
 .text.__lshift
                0x00407b70       0xa4 c:/program files (x86)/atmel/studio/7.0/toolchain/arm/arm-gnu-toolchain/bin/../lib/gcc/arm-none-eabi/6.3.1/../../../../arm-none-eabi/lib/thumb/v7e-m\libc.a(lib_a-mprec.o)
                0x00407b70                __lshift
 .text.__mcmp   0x00407c14       0x38 c:/program files (x86)/atmel/studio/7.0/toolchain/arm/arm-gnu-toolchain/bin/../lib/gcc/arm-none-eabi/6.3.1/../../../../arm-none-eabi/lib/thumb/v7e-m\libc.a(lib_a-mprec.o)
                0x00407c14                __mcmp
 .text.__mdiff  0x00407c4c      0x108 c:/program files (x86)/atmel/studio/7.0/toolchain/arm/arm-gnu-toolchain/bin/../lib/gcc/arm-none-eabi/6.3.1/../../../../arm-none-eabi/lib/thumb/v7e-m\libc.a(lib_a-mprec.o)
                0x00407c4c                __mdiff
 .text.__d2b    0x00407d54       0xb8 c:/program files (x86)/atmel/studio/7.0/toolchain/arm/arm-gnu-toolchain/bin/../lib/gcc/arm-none-eabi/6.3.1/../../../../arm-none-eabi/lib/thumb/v7e-m\libc.a(lib_a-mprec.o)
                0x00407d54                __d2b
 .text._realloc_r
                0x00407e0c      0x34c c:/program files (x86)/atmel/studio/7.0/toolchain/arm/arm-gnu-toolchain/bin/../lib/gcc/arm-none-eabi/6.3.1/../../../../arm-none-eabi/lib/thumb/v7e-m\libc.a(lib_a-reallocr.o)
                0x00407e0c                _realloc_r
 .text.__sread  0x00408158       0x24 c:/program files (x86)/atmel/studio/7.0/toolchain/arm/arm-gnu-toolchain/bin/../lib/gcc/arm-none-eabi/6.3.1/../../../../arm-none-eabi/lib/thumb/v7e-m\libc.a(lib_a-stdio.o)
                0x00408158                __sread
 .text.__swrite
                0x0040817c       0x3c c:/program files (x86)/atmel/studio/7.0/toolchain/arm/arm-gnu-toolchain/bin/../lib/gcc/arm-none-eabi/6.3.1/../../../../arm-none-eabi/lib/thumb/v7e-m\libc.a(lib_a-stdio.o)
                0x0040817c                __swrite
 .text.__sseek  0x004081b8       0x20 c:/program files (x86)/atmel/studio/7.0/toolchain/arm/arm-gnu-toolchain/bin/../lib/gcc/arm-none-eabi/6.3.1/../../../../arm-none-eabi/lib/thumb/v7e-m\libc.a(lib_a-stdio.o)
                0x004081b8                __sseek
 .text.__sclose
                0x004081d8        0x8 c:/program files (x86)/atmel/studio/7.0/toolchain/arm/arm-gnu-toolchain/bin/../lib/gcc/arm-none-eabi/6.3.1/../../../../arm-none-eabi/lib/thumb/v7e-m\libc.a(lib_a-stdio.o)
                0x004081d8                __sclose
 .text.__ssprint_r
                0x004081e0       0xfc c:/program files (x86)/atmel/studio/7.0/toolchain/arm/arm-gnu-toolchain/bin/../lib/gcc/arm-none-eabi/6.3.1/../../../../arm-none-eabi/lib/thumb/v7e-m\libc.a(lib_a-svfiprintf.o)
                0x004081e0                __ssprint_r
 .text.__swbuf_r
                0x004082dc       0xb0 c:/program files (x86)/atmel/studio/7.0/toolchain/arm/arm-gnu-toolchain/bin/../lib/gcc/arm-none-eabi/6.3.1/../../../../arm-none-eabi/lib/thumb/v7e-m\libc.a(lib_a-wbuf.o)
                0x004082dc                __swbuf_r
 .text._wcrtomb_r
                0x0040838c       0x54 c:/program files (x86)/atmel/studio/7.0/toolchain/arm/arm-gnu-toolchain/bin/../lib/gcc/arm-none-eabi/6.3.1/../../../../arm-none-eabi/lib/thumb/v7e-m\libc.a(lib_a-wcrtomb.o)
                0x0040838c                _wcrtomb_r
 .text.__ascii_wctomb
                0x004083e0       0x1c c:/program files (x86)/atmel/studio/7.0/toolchain/arm/arm-gnu-toolchain/bin/../lib/gcc/arm-none-eabi/6.3.1/../../../../arm-none-eabi/lib/thumb/v7e-m\libc.a(lib_a-wctomb_r.o)
                0x004083e0                __ascii_wctomb
 .text._write_r
                0x004083fc       0x2c c:/program files (x86)/atmel/studio/7.0/toolchain/arm/arm-gnu-toolchain/bin/../lib/gcc/arm-none-eabi/6.3.1/../../../../arm-none-eabi/lib/thumb/v7e-m\libc.a(lib_a-writer.o)
                0x004083fc                _write_r
 .text.__register_exitproc
                0x00408428       0xc4 c:/program files (x86)/atmel/studio/7.0/toolchain/arm/arm-gnu-toolchain/bin/../lib/gcc/arm-none-eabi/6.3.1/../../../../arm-none-eabi/lib/thumb/v7e-m\libc.a(lib_a-__atexit.o)
                0x00408428                __register_exitproc
 .text._calloc_r
                0x004084ec       0x60 c:/program files (x86)/atmel/studio/7.0/toolchain/arm/arm-gnu-toolchain/bin/../lib/gcc/arm-none-eabi/6.3.1/../../../../arm-none-eabi/lib/thumb/v7e-m\libc.a(lib_a-callocr.o)
                0x004084ec                _calloc_r
 .text._close_r
                0x0040854c       0x24 c:/program files (x86)/atmel/studio/7.0/toolchain/arm/arm-gnu-toolchain/bin/../lib/gcc/arm-none-eabi/6.3.1/../../../../arm-none-eabi/lib/thumb/v7e-m\libc.a(lib_a-closer.o)
                0x0040854c                _close_r
 .text._fclose_r
                0x00408570       0xc4 c:/program files (x86)/atmel/studio/7.0/toolchain/arm/arm-gnu-toolchain/bin/../lib/gcc/arm-none-eabi/6.3.1/../../../../arm-none-eabi/lib/thumb/v7e-m\libc.a(lib_a-fclose.o)
                0x00408570                _fclose_r
 .text._fstat_r
                0x00408634       0x28 c:/program files (x86)/atmel/studio/7.0/toolchain/arm/arm-gnu-toolchain/bin/../lib/gcc/arm-none-eabi/6.3.1/../../../../arm-none-eabi/lib/thumb/v7e-m\libc.a(lib_a-fstatr.o)
                0x00408634                _fstat_r
 .text._isatty_r
                0x0040865c       0x24 c:/program files (x86)/atmel/studio/7.0/toolchain/arm/arm-gnu-toolchain/bin/../lib/gcc/arm-none-eabi/6.3.1/../../../../arm-none-eabi/lib/thumb/v7e-m\libc.a(lib_a-isattyr.o)
                0x0040865c                _isatty_r
 .text._lseek_r
                0x00408680       0x2c c:/program files (x86)/atmel/studio/7.0/toolchain/arm/arm-gnu-toolchain/bin/../lib/gcc/arm-none-eabi/6.3.1/../../../../arm-none-eabi/lib/thumb/v7e-m\libc.a(lib_a-lseekr.o)
                0x00408680                _lseek_r
 .text._read_r  0x004086ac       0x2c c:/program files (x86)/atmel/studio/7.0/toolchain/arm/arm-gnu-toolchain/bin/../lib/gcc/arm-none-eabi/6.3.1/../../../../arm-none-eabi/lib/thumb/v7e-m\libc.a(lib_a-readr.o)
                0x004086ac                _read_r
 .text          0x004086d8      0x370 c:/program files (x86)/atmel/studio/7.0/toolchain/arm/arm-gnu-toolchain/bin/../lib/gcc/arm-none-eabi/6.3.1/thumb/v7e-m\libgcc.a(_arm_addsubdf3.o)
                0x004086d8                __aeabi_drsub
                0x004086e0                __aeabi_dsub
                0x004086e0                __subdf3
                0x004086e4                __aeabi_dadd
                0x004086e4                __adddf3
                0x0040895c                __floatunsidf
                0x0040895c                __aeabi_ui2d
                0x0040897c                __floatsidf
                0x0040897c                __aeabi_i2d
                0x004089a0                __aeabi_f2d
                0x004089a0                __extendsfdf2
                0x004089dc                __floatundidf
                0x004089dc                __aeabi_ul2d
                0x004089ec                __floatdidf
                0x004089ec                __aeabi_l2d
 .text          0x00408a48      0x424 c:/program files (x86)/atmel/studio/7.0/toolchain/arm/arm-gnu-toolchain/bin/../lib/gcc/arm-none-eabi/6.3.1/thumb/v7e-m\libgcc.a(_arm_muldivdf3.o)
                0x00408a48                __aeabi_dmul
                0x00408a48                __muldf3
                0x00408c9c                __divdf3
                0x00408c9c                __aeabi_ddiv
 .text          0x00408e6c      0x110 c:/program files (x86)/atmel/studio/7.0/toolchain/arm/arm-gnu-toolchain/bin/../lib/gcc/arm-none-eabi/6.3.1/thumb/v7e-m\libgcc.a(_arm_cmpdf2.o)
                0x00408e6c                __gtdf2
                0x00408e6c                __gedf2
                0x00408e74                __ltdf2
                0x00408e74                __ledf2
                0x00408e7c                __nedf2
                0x00408e7c                __eqdf2
                0x00408e7c                __cmpdf2
                0x00408ef8                __aeabi_cdrcmple
                0x00408f08                __aeabi_cdcmpeq
                0x00408f08                __aeabi_cdcmple
                0x00408f18                __aeabi_dcmpeq
                0x00408f2c                __aeabi_dcmplt
                0x00408f40                __aeabi_dcmple
                0x00408f54                __aeabi_dcmpge
                0x00408f68                __aeabi_dcmpgt
 .text          0x00408f7c       0x2c c:/program files (x86)/atmel/studio/7.0/toolchain/arm/arm-gnu-toolchain/bin/../lib/gcc/arm-none-eabi/6.3.1/thumb/v7e-m\libgcc.a(_arm_unorddf2.o)
                0x00408f7c                __unorddf2
                0x00408f7c                __aeabi_dcmpun
 .text          0x00408fa8       0x50 c:/program files (x86)/atmel/studio/7.0/toolchain/arm/arm-gnu-toolchain/bin/../lib/gcc/arm-none-eabi/6.3.1/thumb/v7e-m\libgcc.a(_arm_fixdfsi.o)
                0x00408fa8                __aeabi_d2iz
                0x00408fa8                __fixdfsi
 .text          0x00408ff8       0x30 c:/program files (x86)/atmel/studio/7.0/toolchain/arm/arm-gnu-toolchain/bin/../lib/gcc/arm-none-eabi/6.3.1/thumb/v7e-m\libgcc.a(_aeabi_uldivmod.o)
                0x00408ff8                __aeabi_uldivmod
 .text          0x00409028      0x2dc c:/program files (x86)/atmel/studio/7.0/toolchain/arm/arm-gnu-toolchain/bin/../lib/gcc/arm-none-eabi/6.3.1/thumb/v7e-m\libgcc.a(_udivmoddi4.o)
                0x00409028                __udivmoddi4
 .text          0x00409304        0x4 c:/program files (x86)/atmel/studio/7.0/toolchain/arm/arm-gnu-toolchain/bin/../lib/gcc/arm-none-eabi/6.3.1/thumb/v7e-m\libgcc.a(_dvmd_tls.o)
                0x00409304                __aeabi_idiv0
                0x00409304                __aeabi_ldiv0
 *(.glue_7t)
 .glue_7t       0x00409308        0x0 linker stubs
 *(.glue_7)
 .glue_7        0x00409308        0x0 linker stubs
 *(.rodata .rodata* .gnu.linkonce.r.*)
 .rodata.vTaskList.str1.4
                0x00409308        0xf src/ASF/thirdparty/freertos/freertos-8.2.3/Source/tasks.o
 *fill*         0x00409317        0x1 
 .rodata.vTaskStartScheduler.str1.4
                0x00409318        0x5 src/ASF/thirdparty/freertos/freertos-8.2.3/Source/tasks.o
 *fill*         0x0040931d        0x3 
 .rodata.prvCheckForValidListAndQueue.str1.4
                0x00409320        0x5 src/ASF/thirdparty/freertos/freertos-8.2.3/Source/timers.o
 *fill*         0x00409325        0x3 
 .rodata.xTimerCreateTimerTask.str1.4
                0x00409328        0x8 src/ASF/thirdparty/freertos/freertos-8.2.3/Source/timers.o
 .rodata.but_callback.str1.4
                0x00409330       0x1e src/main.o
 *fill*         0x0040934e        0x2 
 .rodata.main.str1.4
                0x00409350       0xad src/main.o
 *fill*         0x004093fd        0x3 
 .rodata.task_led.str1.4
                0x00409400       0x1c src/main.o
 .rodata.task_monitor.str1.4
                0x0040941c        0xf src/main.o
 *fill*         0x0040942b        0x1 
 .rodata.vApplicationStackOverflowHook.str1.4
                0x0040942c       0x17 src/main.o
 *fill*         0x00409443        0x1 
 .rodata._global_impure_ptr
                0x00409444        0x4 c:/program files (x86)/atmel/studio/7.0/toolchain/arm/arm-gnu-toolchain/bin/../lib/gcc/arm-none-eabi/6.3.1/../../../../arm-none-eabi/lib/thumb/v7e-m\libc.a(lib_a-impure.o)
                0x00409444                _global_impure_ptr
 .rodata._svfprintf_r.str1.4
                0x00409448       0x42 c:/program files (x86)/atmel/studio/7.0/toolchain/arm/arm-gnu-toolchain/bin/../lib/gcc/arm-none-eabi/6.3.1/../../../../arm-none-eabi/lib/thumb/v7e-m\libc.a(lib_a-svfprintf.o)
 *fill*         0x0040948a        0x2 
 .rodata.blanks.7223
                0x0040948c       0x10 c:/program files (x86)/atmel/studio/7.0/toolchain/arm/arm-gnu-toolchain/bin/../lib/gcc/arm-none-eabi/6.3.1/../../../../arm-none-eabi/lib/thumb/v7e-m\libc.a(lib_a-svfprintf.o)
 .rodata.zeroes.7224
                0x0040949c       0x10 c:/program files (x86)/atmel/studio/7.0/toolchain/arm/arm-gnu-toolchain/bin/../lib/gcc/arm-none-eabi/6.3.1/../../../../arm-none-eabi/lib/thumb/v7e-m\libc.a(lib_a-svfprintf.o)
 .rodata._vfiprintf_r.str1.4
                0x004094ac       0x2f c:/program files (x86)/atmel/studio/7.0/toolchain/arm/arm-gnu-toolchain/bin/../lib/gcc/arm-none-eabi/6.3.1/../../../../arm-none-eabi/lib/thumb/v7e-m\libc.a(lib_a-vfiprintf.o)
 .rodata.blanks.7217
                0x004094ac       0x10 c:/program files (x86)/atmel/studio/7.0/toolchain/arm/arm-gnu-toolchain/bin/../lib/gcc/arm-none-eabi/6.3.1/../../../../arm-none-eabi/lib/thumb/v7e-m\libc.a(lib_a-vfiprintf.o)
 .rodata.zeroes.7218
                0x004094bc       0x10 c:/program files (x86)/atmel/studio/7.0/toolchain/arm/arm-gnu-toolchain/bin/../lib/gcc/arm-none-eabi/6.3.1/../../../../arm-none-eabi/lib/thumb/v7e-m\libc.a(lib_a-vfiprintf.o)
 .rodata._dtoa_r.str1.4
                0x004094cc       0x10 c:/program files (x86)/atmel/studio/7.0/toolchain/arm/arm-gnu-toolchain/bin/../lib/gcc/arm-none-eabi/6.3.1/../../../../arm-none-eabi/lib/thumb/v7e-m\libc.a(lib_a-dtoa.o)
                                 0x12 (size before relaxing)
 .rodata._setlocale_r.str1.4
                0x004094dc        0xa c:/program files (x86)/atmel/studio/7.0/toolchain/arm/arm-gnu-toolchain/bin/../lib/gcc/arm-none-eabi/6.3.1/../../../../arm-none-eabi/lib/thumb/v7e-m\libc.a(lib_a-locale.o)
                                  0xd (size before relaxing)
 *fill*         0x004094e6        0x2 
 .rodata.str1.4
                0x004094e8        0x4 c:/program files (x86)/atmel/studio/7.0/toolchain/arm/arm-gnu-toolchain/bin/../lib/gcc/arm-none-eabi/6.3.1/../../../../arm-none-eabi/lib/thumb/v7e-m\libc.a(lib_a-locale.o)
                                  0x2 (size before relaxing)
 *fill*         0x004094ec        0x4 
 .rodata.__mprec_bigtens
                0x004094f0       0x28 c:/program files (x86)/atmel/studio/7.0/toolchain/arm/arm-gnu-toolchain/bin/../lib/gcc/arm-none-eabi/6.3.1/../../../../arm-none-eabi/lib/thumb/v7e-m\libc.a(lib_a-mprec.o)
                0x004094f0                __mprec_bigtens
 .rodata.__mprec_tens
                0x00409518       0xc8 c:/program files (x86)/atmel/studio/7.0/toolchain/arm/arm-gnu-toolchain/bin/../lib/gcc/arm-none-eabi/6.3.1/../../../../arm-none-eabi/lib/thumb/v7e-m\libc.a(lib_a-mprec.o)
                0x00409518                __mprec_tens
 .rodata.p05.6055
                0x004095e0        0xc c:/program files (x86)/atmel/studio/7.0/toolchain/arm/arm-gnu-toolchain/bin/../lib/gcc/arm-none-eabi/6.3.1/../../../../arm-none-eabi/lib/thumb/v7e-m\libc.a(lib_a-mprec.o)
 .rodata._ctype_
                0x004095ec      0x101 c:/program files (x86)/atmel/studio/7.0/toolchain/arm/arm-gnu-toolchain/bin/../lib/gcc/arm-none-eabi/6.3.1/../../../../arm-none-eabi/lib/thumb/v7e-m\libc.a(lib_a-ctype_.o)
                0x004095ec                _ctype_
 *(.ARM.extab* .gnu.linkonce.armextab.*)
                0x004096f0                . = ALIGN (0x4)
 *fill*         0x004096ed        0x3 
 *(.init)
 .init          0x004096f0        0x4 c:/program files (x86)/atmel/studio/7.0/toolchain/arm/arm-gnu-toolchain/bin/../lib/gcc/arm-none-eabi/6.3.1/thumb/v7e-m/crti.o
                0x004096f0                _init
 .init          0x004096f4        0x8 c:/program files (x86)/atmel/studio/7.0/toolchain/arm/arm-gnu-toolchain/bin/../lib/gcc/arm-none-eabi/6.3.1/thumb/v7e-m/crtn.o
                0x004096fc                . = ALIGN (0x4)
                0x004096fc                __preinit_array_start = .
 *(.preinit_array)
                0x004096fc                __preinit_array_end = .
                0x004096fc                . = ALIGN (0x4)
                0x004096fc                __init_array_start = .
 *(SORT(.init_array.*))
 .init_array.00000
                0x004096fc        0x4 c:/program files (x86)/atmel/studio/7.0/toolchain/arm/arm-gnu-toolchain/bin/../lib/gcc/arm-none-eabi/6.3.1/../../../../arm-none-eabi/lib/thumb/v7e-m\libc.a(lib_a-__call_atexit.o)
 *(.init_array)
 .init_array    0x00409700        0x4 c:/program files (x86)/atmel/studio/7.0/toolchain/arm/arm-gnu-toolchain/bin/../lib/gcc/arm-none-eabi/6.3.1/thumb/v7e-m/crtbegin.o
                0x00409704                __init_array_end = .
                0x00409704                . = ALIGN (0x4)
 *crtbegin.o(.ctors)
 *(EXCLUDE_FILE(*crtend.o) .ctors)
 *(SORT(.ctors.*))
 *crtend.o(.ctors)
                0x00409704                . = ALIGN (0x4)
 *(.fini)
 .fini          0x00409704        0x4 c:/program files (x86)/atmel/studio/7.0/toolchain/arm/arm-gnu-toolchain/bin/../lib/gcc/arm-none-eabi/6.3.1/thumb/v7e-m/crti.o
                0x00409704                _fini
 .fini          0x00409708        0x8 c:/program files (x86)/atmel/studio/7.0/toolchain/arm/arm-gnu-toolchain/bin/../lib/gcc/arm-none-eabi/6.3.1/thumb/v7e-m/crtn.o
                0x00409710                . = ALIGN (0x4)
                0x00409710                __fini_array_start = .
 *(.fini_array)
 .fini_array    0x00409710        0x4 c:/program files (x86)/atmel/studio/7.0/toolchain/arm/arm-gnu-toolchain/bin/../lib/gcc/arm-none-eabi/6.3.1/thumb/v7e-m/crtbegin.o
 *(SORT(.fini_array.*))
                0x00409714                __fini_array_end = .
 *crtbegin.o(.dtors)
 *(EXCLUDE_FILE(*crtend.o) .dtors)
 *(SORT(.dtors.*))
 *crtend.o(.dtors)
                0x00409714                . = ALIGN (0x4)
                0x00409714                _efixed = .
                [!provide]                PROVIDE (__exidx_start, .)

.vfp11_veneer   0x00409714        0x0
 .vfp11_veneer  0x00409714        0x0 linker stubs

.v4_bx          0x00409714        0x0
 .v4_bx         0x00409714        0x0 linker stubs

.iplt           0x00409714        0x0
 .iplt          0x00409714        0x0 c:/program files (x86)/atmel/studio/7.0/toolchain/arm/arm-gnu-toolchain/bin/../lib/gcc/arm-none-eabi/6.3.1/thumb/v7e-m/crtbegin.o

.ARM.exidx      0x00409714        0x8
 *(.ARM.exidx* .gnu.linkonce.armexidx.*)
 .ARM.exidx     0x00409714        0x8 c:/program files (x86)/atmel/studio/7.0/toolchain/arm/arm-gnu-toolchain/bin/../lib/gcc/arm-none-eabi/6.3.1/thumb/v7e-m\libgcc.a(_udivmoddi4.o)
                [!provide]                PROVIDE (__exidx_end, .)

.eh_frame       0x0040971c        0x0
 .eh_frame      0x0040971c        0x0 c:/program files (x86)/atmel/studio/7.0/toolchain/arm/arm-gnu-toolchain/bin/../lib/gcc/arm-none-eabi/6.3.1/thumb/v7e-m/crtbegin.o

.rel.dyn        0x0040971c        0x0
 .rel.iplt      0x0040971c        0x0 c:/program files (x86)/atmel/studio/7.0/toolchain/arm/arm-gnu-toolchain/bin/../lib/gcc/arm-none-eabi/6.3.1/thumb/v7e-m/crtbegin.o

.jcr            0x0040971c        0x0
 .jcr           0x0040971c        0x0 c:/program files (x86)/atmel/studio/7.0/toolchain/arm/arm-gnu-toolchain/bin/../lib/gcc/arm-none-eabi/6.3.1/thumb/v7e-m/crtbegin.o

.igot.plt       0x0040971c        0x0
 .igot.plt      0x0040971c        0x0 c:/program files (x86)/atmel/studio/7.0/toolchain/arm/arm-gnu-toolchain/bin/../lib/gcc/arm-none-eabi/6.3.1/thumb/v7e-m/crtbegin.o
                0x0040971c                . = ALIGN (0x4)
                0x0040971c                _etext = .

.relocate       0x20400000      0x9b8 load address 0x0040971c
                0x20400000                . = ALIGN (0x4)
                0x20400000                _srelocate = .
 *(.ramfunc .ramfunc.*)
 *(.data .data.*)
 .data.g_interrupt_enabled
                0x20400000        0x1 src/ASF/common/utils/interrupt/interrupt_sam_nvic.o
                0x20400000                g_interrupt_enabled
 *fill*         0x20400001        0x3 
 .data.SystemCoreClock
                0x20400004        0x4 src/ASF/sam/utils/cmsis/same70/source/templates/system_same70.o
                0x20400004                SystemCoreClock
 .data.uxCriticalNesting
                0x20400008        0x4 src/ASF/thirdparty/freertos/freertos-8.2.3/Source/portable/GCC/ARM_CM7/r0p1/port.o
 .data._impure_ptr
                0x2040000c        0x4 c:/program files (x86)/atmel/studio/7.0/toolchain/arm/arm-gnu-toolchain/bin/../lib/gcc/arm-none-eabi/6.3.1/../../../../arm-none-eabi/lib/thumb/v7e-m\libc.a(lib_a-impure.o)
                0x2040000c                _impure_ptr
 .data.impure_data
                0x20400010      0x428 c:/program files (x86)/atmel/studio/7.0/toolchain/arm/arm-gnu-toolchain/bin/../lib/gcc/arm-none-eabi/6.3.1/../../../../arm-none-eabi/lib/thumb/v7e-m\libc.a(lib_a-impure.o)
 .data.__malloc_av_
                0x20400438      0x408 c:/program files (x86)/atmel/studio/7.0/toolchain/arm/arm-gnu-toolchain/bin/../lib/gcc/arm-none-eabi/6.3.1/../../../../arm-none-eabi/lib/thumb/v7e-m\libc.a(lib_a-mallocr.o)
                0x20400438                __malloc_av_
 .data.__malloc_sbrk_base
                0x20400840        0x4 c:/program files (x86)/atmel/studio/7.0/toolchain/arm/arm-gnu-toolchain/bin/../lib/gcc/arm-none-eabi/6.3.1/../../../../arm-none-eabi/lib/thumb/v7e-m\libc.a(lib_a-mallocr.o)
                0x20400840                __malloc_sbrk_base
 .data.__malloc_trim_threshold
                0x20400844        0x4 c:/program files (x86)/atmel/studio/7.0/toolchain/arm/arm-gnu-toolchain/bin/../lib/gcc/arm-none-eabi/6.3.1/../../../../arm-none-eabi/lib/thumb/v7e-m\libc.a(lib_a-mallocr.o)
                0x20400844                __malloc_trim_threshold
 .data.__atexit_recursive_mutex
                0x20400848        0x4 c:/program files (x86)/atmel/studio/7.0/toolchain/arm/arm-gnu-toolchain/bin/../lib/gcc/arm-none-eabi/6.3.1/../../../../arm-none-eabi/lib/thumb/v7e-m\libc.a(lib_a-__call_atexit.o)
                0x20400848                __atexit_recursive_mutex
 .data.__global_locale
                0x2040084c      0x16c c:/program files (x86)/atmel/studio/7.0/toolchain/arm/arm-gnu-toolchain/bin/../lib/gcc/arm-none-eabi/6.3.1/../../../../arm-none-eabi/lib/thumb/v7e-m\libc.a(lib_a-locale.o)
                0x2040084c                __global_locale
                0x204009b8                . = ALIGN (0x4)
                0x204009b8                _erelocate = .

.bss            0x204009b8      0x384 load address 0x0040a0d4
                0x204009b8                . = ALIGN (0x4)
                0x204009b8                _sbss = .
                0x204009b8                _szero = .
 *(.bss .bss.*)
 .bss           0x204009b8       0x1c c:/program files (x86)/atmel/studio/7.0/toolchain/arm/arm-gnu-toolchain/bin/../lib/gcc/arm-none-eabi/6.3.1/thumb/v7e-m/crtbegin.o
 .bss.gs_interrupt_sources
                0x204009d4       0x70 src/ASF/sam/drivers/pio/pio_handler.o
 .bss.gs_ul_nb_sources
                0x20400a44        0x4 src/ASF/sam/drivers/pio/pio_handler.o
 .bss.b_is_sleep_clock_used
                0x20400a48        0x1 src/ASF/sam/drivers/pmc/sleep.o
 *fill*         0x20400a49        0x3 
 .bss.callback_clocks_restored
                0x20400a4c        0x4 src/ASF/sam/drivers/pmc/sleep.o
 .bss.ul_reg_val.9325
                0x20400a50        0x4 src/ASF/sam/drivers/usart/usart.o
 .bss.heap.6420
                0x20400a54        0x4 src/ASF/sam/utils/syscalls/gcc/syscalls.o
 .bss.pxCurrentTCB
                0x20400a58        0x4 src/ASF/thirdparty/freertos/freertos-8.2.3/Source/tasks.o
                0x20400a58                pxCurrentTCB
 .bss.pxDelayedTaskList
                0x20400a5c        0x4 src/ASF/thirdparty/freertos/freertos-8.2.3/Source/tasks.o
 .bss.pxOverflowDelayedTaskList
                0x20400a60        0x4 src/ASF/thirdparty/freertos/freertos-8.2.3/Source/tasks.o
 .bss.pxReadyTasksLists
                0x20400a64       0x64 src/ASF/thirdparty/freertos/freertos-8.2.3/Source/tasks.o
 .bss.uxCurrentNumberOfTasks
                0x20400ac8        0x4 src/ASF/thirdparty/freertos/freertos-8.2.3/Source/tasks.o
 .bss.uxPendedTicks
                0x20400acc        0x4 src/ASF/thirdparty/freertos/freertos-8.2.3/Source/tasks.o
 .bss.uxSchedulerSuspended
                0x20400ad0        0x4 src/ASF/thirdparty/freertos/freertos-8.2.3/Source/tasks.o
 .bss.uxTaskNumber
                0x20400ad4        0x4 src/ASF/thirdparty/freertos/freertos-8.2.3/Source/tasks.o
 .bss.uxTasksDeleted
                0x20400ad8        0x4 src/ASF/thirdparty/freertos/freertos-8.2.3/Source/tasks.o
 .bss.uxTopReadyPriority
                0x20400adc        0x4 src/ASF/thirdparty/freertos/freertos-8.2.3/Source/tasks.o
 .bss.xDelayedTaskList1
                0x20400ae0       0x14 src/ASF/thirdparty/freertos/freertos-8.2.3/Source/tasks.o
 .bss.xDelayedTaskList2
                0x20400af4       0x14 src/ASF/thirdparty/freertos/freertos-8.2.3/Source/tasks.o
 .bss.xNextTaskUnblockTime
                0x20400b08        0x4 src/ASF/thirdparty/freertos/freertos-8.2.3/Source/tasks.o
 .bss.xNumOfOverflows
                0x20400b0c        0x4 src/ASF/thirdparty/freertos/freertos-8.2.3/Source/tasks.o
 .bss.xPendingReadyList
                0x20400b10       0x14 src/ASF/thirdparty/freertos/freertos-8.2.3/Source/tasks.o
 .bss.xSchedulerRunning
                0x20400b24        0x4 src/ASF/thirdparty/freertos/freertos-8.2.3/Source/tasks.o
 .bss.xSuspendedTaskList
                0x20400b28       0x14 src/ASF/thirdparty/freertos/freertos-8.2.3/Source/tasks.o
 .bss.xTasksWaitingTermination
                0x20400b3c       0x14 src/ASF/thirdparty/freertos/freertos-8.2.3/Source/tasks.o
 .bss.xTickCount
                0x20400b50        0x4 src/ASF/thirdparty/freertos/freertos-8.2.3/Source/tasks.o
 .bss.xYieldPending
                0x20400b54        0x4 src/ASF/thirdparty/freertos/freertos-8.2.3/Source/tasks.o
 .bss.pxCurrentTimerList
                0x20400b58        0x4 src/ASF/thirdparty/freertos/freertos-8.2.3/Source/timers.o
 .bss.pxOverflowTimerList
                0x20400b5c        0x4 src/ASF/thirdparty/freertos/freertos-8.2.3/Source/timers.o
 .bss.xActiveTimerList1
                0x20400b60       0x14 src/ASF/thirdparty/freertos/freertos-8.2.3/Source/timers.o
 .bss.xActiveTimerList2
                0x20400b74       0x14 src/ASF/thirdparty/freertos/freertos-8.2.3/Source/timers.o
 .bss.xLastTime.9559
                0x20400b88        0x4 src/ASF/thirdparty/freertos/freertos-8.2.3/Source/timers.o
 .bss.xTimerQueue
                0x20400b8c        0x4 src/ASF/thirdparty/freertos/freertos-8.2.3/Source/timers.o
 .bss.szList.10733
                0x20400b90      0x100 src/main.o
 .bss.__malloc_current_mallinfo
                0x20400c90       0x28 c:/program files (x86)/atmel/studio/7.0/toolchain/arm/arm-gnu-toolchain/bin/../lib/gcc/arm-none-eabi/6.3.1/../../../../arm-none-eabi/lib/thumb/v7e-m\libc.a(lib_a-mallocr.o)
                0x20400c90                __malloc_current_mallinfo
 .bss.__malloc_max_sbrked_mem
                0x20400cb8        0x4 c:/program files (x86)/atmel/studio/7.0/toolchain/arm/arm-gnu-toolchain/bin/../lib/gcc/arm-none-eabi/6.3.1/../../../../arm-none-eabi/lib/thumb/v7e-m\libc.a(lib_a-mallocr.o)
                0x20400cb8                __malloc_max_sbrked_mem
 .bss.__malloc_max_total_mem
                0x20400cbc        0x4 c:/program files (x86)/atmel/studio/7.0/toolchain/arm/arm-gnu-toolchain/bin/../lib/gcc/arm-none-eabi/6.3.1/../../../../arm-none-eabi/lib/thumb/v7e-m\libc.a(lib_a-mallocr.o)
                0x20400cbc                __malloc_max_total_mem
 .bss.__malloc_top_pad
                0x20400cc0        0x4 c:/program files (x86)/atmel/studio/7.0/toolchain/arm/arm-gnu-toolchain/bin/../lib/gcc/arm-none-eabi/6.3.1/../../../../arm-none-eabi/lib/thumb/v7e-m\libc.a(lib_a-mallocr.o)
                0x20400cc0                __malloc_top_pad
 *(COMMON)
 COMMON         0x20400cc4        0x4 src/ASF/common/utils/stdio/read.o
                0x20400cc4                ptr_get
 COMMON         0x20400cc8        0x8 src/ASF/common/utils/stdio/write.o
                0x20400cc8                ptr_put
                0x20400ccc                stdio_base
 COMMON         0x20400cd0       0x40 src/ASF/thirdparty/freertos/freertos-8.2.3/Source/queue.o
                0x20400cd0                xQueueRegistry
 COMMON         0x20400d10        0x4 src/main.o
                0x20400d10                xSemaphore
 COMMON         0x20400d14       0x21 c:/program files (x86)/atmel/studio/7.0/toolchain/arm/arm-gnu-toolchain/bin/../lib/gcc/arm-none-eabi/6.3.1/../../../../arm-none-eabi/lib/thumb/v7e-m\libc.a(lib_a-lock.o)
                0x20400d14                __lock___atexit_recursive_mutex
                0x20400d18                __lock___arc4random_mutex
                0x20400d1c                __lock___env_recursive_mutex
                0x20400d20                __lock___sinit_recursive_mutex
                0x20400d24                __lock___malloc_recursive_mutex
                0x20400d28                __lock___at_quick_exit_mutex
                0x20400d2c                __lock___dd_hash_mutex
                0x20400d30                __lock___tz_mutex
                0x20400d34                __lock___sfp_recursive_mutex
 *fill*         0x20400d35        0x3 
 COMMON         0x20400d38        0x4 c:/program files (x86)/atmel/studio/7.0/toolchain/arm/arm-gnu-toolchain/bin/../lib/gcc/arm-none-eabi/6.3.1/../../../../arm-none-eabi/lib/thumb/v7e-m\libc.a(lib_a-reent.o)
                0x20400d38                errno
                0x20400d3c                . = ALIGN (0x4)
                0x20400d3c                _ebss = .
                0x20400d3c                _ezero = .

.stack          0x20400d3c     0x2004 load address 0x0040a458
                0x20400d40                . = ALIGN (0x8)
 *fill*         0x20400d3c        0x4 
                0x20400d40                _sstack = .
                0x20402d40                . = (. + STACK_SIZE)
 *fill*         0x20400d40     0x2000 
                0x20402d40                . = ALIGN (0x8)
                0x20402d40                _estack = .

.heap           0x20402d40      0x200 load address 0x0040c45c
                0x20402d40                . = ALIGN (0x8)
                0x20402d40                _sheap = .
                0x20402f40                . = (. + HEAP_SIZE)
 *fill*         0x20402d40      0x200 
                0x20402f40                . = ALIGN (0x8)
                0x20402f40                _eheap = .
                0x20402f40                . = ALIGN (0x4)
                0x20402f40                _end = .
                0x2045ffff                _ram_end_ = ((ORIGIN (ram) + LENGTH (ram)) - 0x1)
OUTPUT(FREERTOS_SAM_EXAMPLE1.elf elf32-littlearm)

.ARM.attributes
                0x00000000       0x2e
 .ARM.attributes
                0x00000000       0x1e c:/program files (x86)/atmel/studio/7.0/toolchain/arm/arm-gnu-toolchain/bin/../lib/gcc/arm-none-eabi/6.3.1/thumb/v7e-m/crti.o
 .ARM.attributes
                0x0000001e       0x2e c:/program files (x86)/atmel/studio/7.0/toolchain/arm/arm-gnu-toolchain/bin/../lib/gcc/arm-none-eabi/6.3.1/thumb/v7e-m/crtbegin.o
 .ARM.attributes
                0x0000004c       0x37 src/ASF/common/services/clock/same70/sysclk.o
 .ARM.attributes
                0x00000083       0x37 src/ASF/common/utils/interrupt/interrupt_sam_nvic.o
 .ARM.attributes
                0x000000ba       0x37 src/ASF/common/utils/stdio/read.o
 .ARM.attributes
                0x000000f1       0x37 src/ASF/common/utils/stdio/write.o
 .ARM.attributes
                0x00000128       0x37 src/ASF/sam/boards/same70_xplained/init.o
 .ARM.attributes
                0x0000015f       0x37 src/ASF/sam/drivers/pio/pio.o
 .ARM.attributes
                0x00000196       0x37 src/ASF/sam/drivers/pio/pio_handler.o
 .ARM.attributes
                0x000001cd       0x37 src/ASF/sam/drivers/pmc/pmc.o
 .ARM.attributes
                0x00000204       0x37 src/ASF/sam/drivers/pmc/sleep.o
 .ARM.attributes
                0x0000023b       0x37 src/ASF/sam/drivers/uart/uart.o
 .ARM.attributes
                0x00000272       0x37 src/ASF/sam/drivers/usart/usart.o
 .ARM.attributes
                0x000002a9       0x37 src/ASF/sam/utils/cmsis/same70/source/templates/gcc/startup_same70.o
 .ARM.attributes
                0x000002e0       0x37 src/ASF/sam/utils/cmsis/same70/source/templates/system_same70.o
 .ARM.attributes
                0x00000317       0x37 src/ASF/sam/utils/syscalls/gcc/syscalls.o
 .ARM.attributes
                0x0000034e       0x37 src/ASF/thirdparty/freertos/freertos-8.2.3/Source/list.o
 .ARM.attributes
                0x00000385       0x37 src/ASF/thirdparty/freertos/freertos-8.2.3/Source/portable/GCC/ARM_CM7/r0p1/port.o
 .ARM.attributes
                0x000003bc       0x37 src/ASF/thirdparty/freertos/freertos-8.2.3/Source/portable/MemMang/heap_3.o
 .ARM.attributes
                0x000003f3       0x37 src/ASF/thirdparty/freertos/freertos-8.2.3/Source/queue.o
 .ARM.attributes
                0x0000042a       0x37 src/ASF/thirdparty/freertos/freertos-8.2.3/Source/tasks.o
 .ARM.attributes
                0x00000461       0x37 src/ASF/thirdparty/freertos/freertos-8.2.3/Source/timers.o
 .ARM.attributes
                0x00000498       0x37 src/main.o
 .ARM.attributes
                0x000004cf       0x2e c:/program files (x86)/atmel/studio/7.0/toolchain/arm/arm-gnu-toolchain/bin/../lib/gcc/arm-none-eabi/6.3.1/../../../../arm-none-eabi/lib/thumb/v7e-m\libc.a(lib_a-impure.o)
 .ARM.attributes
                0x000004fd       0x2e c:/program files (x86)/atmel/studio/7.0/toolchain/arm/arm-gnu-toolchain/bin/../lib/gcc/arm-none-eabi/6.3.1/../../../../arm-none-eabi/lib/thumb/v7e-m\libc.a(lib_a-init.o)
 .ARM.attributes
                0x0000052b       0x2e c:/program files (x86)/atmel/studio/7.0/toolchain/arm/arm-gnu-toolchain/bin/../lib/gcc/arm-none-eabi/6.3.1/../../../../arm-none-eabi/lib/thumb/v7e-m\libc.a(lib_a-iprintf.o)
 .ARM.attributes
                0x00000559       0x2e c:/program files (x86)/atmel/studio/7.0/toolchain/arm/arm-gnu-toolchain/bin/../lib/gcc/arm-none-eabi/6.3.1/../../../../arm-none-eabi/lib/thumb/v7e-m\libc.a(lib_a-malloc.o)
 .ARM.attributes
                0x00000587       0x2e c:/program files (x86)/atmel/studio/7.0/toolchain/arm/arm-gnu-toolchain/bin/../lib/gcc/arm-none-eabi/6.3.1/../../../../arm-none-eabi/lib/thumb/v7e-m\libc.a(lib_a-mallocr.o)
 .ARM.attributes
                0x000005b5       0x1c c:/program files (x86)/atmel/studio/7.0/toolchain/arm/arm-gnu-toolchain/bin/../lib/gcc/arm-none-eabi/6.3.1/../../../../arm-none-eabi/lib/thumb/v7e-m\libc.a(lib_a-memcpy.o)
 .ARM.attributes
                0x000005d1       0x2e c:/program files (x86)/atmel/studio/7.0/toolchain/arm/arm-gnu-toolchain/bin/../lib/gcc/arm-none-eabi/6.3.1/../../../../arm-none-eabi/lib/thumb/v7e-m\libc.a(lib_a-memset.o)
 .ARM.attributes
                0x000005ff       0x2e c:/program files (x86)/atmel/studio/7.0/toolchain/arm/arm-gnu-toolchain/bin/../lib/gcc/arm-none-eabi/6.3.1/../../../../arm-none-eabi/lib/thumb/v7e-m\libc.a(lib_a-mlock.o)
 .ARM.attributes
                0x0000062d       0x2e c:/program files (x86)/atmel/studio/7.0/toolchain/arm/arm-gnu-toolchain/bin/../lib/gcc/arm-none-eabi/6.3.1/../../../../arm-none-eabi/lib/thumb/v7e-m\libc.a(lib_a-sbrkr.o)
 .ARM.attributes
                0x0000065b       0x2e c:/program files (x86)/atmel/studio/7.0/toolchain/arm/arm-gnu-toolchain/bin/../lib/gcc/arm-none-eabi/6.3.1/../../../../arm-none-eabi/lib/thumb/v7e-m\libc.a(lib_a-setbuf.o)
 .ARM.attributes
                0x00000689       0x2e c:/program files (x86)/atmel/studio/7.0/toolchain/arm/arm-gnu-toolchain/bin/../lib/gcc/arm-none-eabi/6.3.1/../../../../arm-none-eabi/lib/thumb/v7e-m\libc.a(lib_a-setvbuf.o)
 .ARM.attributes
                0x000006b7       0x2e c:/program files (x86)/atmel/studio/7.0/toolchain/arm/arm-gnu-toolchain/bin/../lib/gcc/arm-none-eabi/6.3.1/../../../../arm-none-eabi/lib/thumb/v7e-m\libc.a(lib_a-sprintf.o)
 .ARM.attributes
                0x000006e5       0x2e c:/program files (x86)/atmel/studio/7.0/toolchain/arm/arm-gnu-toolchain/bin/../lib/gcc/arm-none-eabi/6.3.1/../../../../arm-none-eabi/lib/thumb/v7e-m\libc.a(lib_a-strcpy.o)
 .ARM.attributes
                0x00000713       0x1c c:/program files (x86)/atmel/studio/7.0/toolchain/arm/arm-gnu-toolchain/bin/../lib/gcc/arm-none-eabi/6.3.1/../../../../arm-none-eabi/lib/thumb/v7e-m\libc.a(lib_a-strlen.o)
 .ARM.attributes
                0x0000072f       0x2e c:/program files (x86)/atmel/studio/7.0/toolchain/arm/arm-gnu-toolchain/bin/../lib/gcc/arm-none-eabi/6.3.1/../../../../arm-none-eabi/lib/thumb/v7e-m\libc.a(lib_a-svfprintf.o)
 .ARM.attributes
                0x0000075d       0x2e c:/program files (x86)/atmel/studio/7.0/toolchain/arm/arm-gnu-toolchain/bin/../lib/gcc/arm-none-eabi/6.3.1/../../../../arm-none-eabi/lib/thumb/v7e-m\libc.a(lib_a-vfiprintf.o)
 .ARM.attributes
                0x0000078b       0x2e c:/program files (x86)/atmel/studio/7.0/toolchain/arm/arm-gnu-toolchain/bin/../lib/gcc/arm-none-eabi/6.3.1/../../../../arm-none-eabi/lib/thumb/v7e-m\libc.a(lib_a-wsetup.o)
 .ARM.attributes
                0x000007b9       0x2e c:/program files (x86)/atmel/studio/7.0/toolchain/arm/arm-gnu-toolchain/bin/../lib/gcc/arm-none-eabi/6.3.1/../../../../arm-none-eabi/lib/thumb/v7e-m\libc.a(lib_a-__call_atexit.o)
 .ARM.attributes
                0x000007e7       0x2e c:/program files (x86)/atmel/studio/7.0/toolchain/arm/arm-gnu-toolchain/bin/../lib/gcc/arm-none-eabi/6.3.1/../../../../arm-none-eabi/lib/thumb/v7e-m\libc.a(lib_a-atexit.o)
 .ARM.attributes
                0x00000815       0x2e c:/program files (x86)/atmel/studio/7.0/toolchain/arm/arm-gnu-toolchain/bin/../lib/gcc/arm-none-eabi/6.3.1/../../../../arm-none-eabi/lib/thumb/v7e-m\libc.a(lib_a-dtoa.o)
 .ARM.attributes
                0x00000843       0x2e c:/program files (x86)/atmel/studio/7.0/toolchain/arm/arm-gnu-toolchain/bin/../lib/gcc/arm-none-eabi/6.3.1/../../../../arm-none-eabi/lib/thumb/v7e-m\libc.a(lib_a-fflush.o)
 .ARM.attributes
                0x00000871       0x2e c:/program files (x86)/atmel/studio/7.0/toolchain/arm/arm-gnu-toolchain/bin/../lib/gcc/arm-none-eabi/6.3.1/../../../../arm-none-eabi/lib/thumb/v7e-m\libc.a(lib_a-findfp.o)
 .ARM.attributes
                0x0000089f       0x2e c:/program files (x86)/atmel/studio/7.0/toolchain/arm/arm-gnu-toolchain/bin/../lib/gcc/arm-none-eabi/6.3.1/../../../../arm-none-eabi/lib/thumb/v7e-m\libc.a(lib_a-fini.o)
 .ARM.attributes
                0x000008cd       0x2e c:/program files (x86)/atmel/studio/7.0/toolchain/arm/arm-gnu-toolchain/bin/../lib/gcc/arm-none-eabi/6.3.1/../../../../arm-none-eabi/lib/thumb/v7e-m\libc.a(lib_a-fputwc.o)
 .ARM.attributes
                0x000008fb       0x2e c:/program files (x86)/atmel/studio/7.0/toolchain/arm/arm-gnu-toolchain/bin/../lib/gcc/arm-none-eabi/6.3.1/../../../../arm-none-eabi/lib/thumb/v7e-m\libc.a(lib_a-freer.o)
 .ARM.attributes
                0x00000929       0x2e c:/program files (x86)/atmel/studio/7.0/toolchain/arm/arm-gnu-toolchain/bin/../lib/gcc/arm-none-eabi/6.3.1/../../../../arm-none-eabi/lib/thumb/v7e-m\libc.a(lib_a-fvwrite.o)
 .ARM.attributes
                0x00000957       0x2e c:/program files (x86)/atmel/studio/7.0/toolchain/arm/arm-gnu-toolchain/bin/../lib/gcc/arm-none-eabi/6.3.1/../../../../arm-none-eabi/lib/thumb/v7e-m\libc.a(lib_a-fwalk.o)
 .ARM.attributes
                0x00000985       0x2e c:/program files (x86)/atmel/studio/7.0/toolchain/arm/arm-gnu-toolchain/bin/../lib/gcc/arm-none-eabi/6.3.1/../../../../arm-none-eabi/lib/thumb/v7e-m\libc.a(lib_a-locale.o)
 .ARM.attributes
                0x000009b3       0x2e c:/program files (x86)/atmel/studio/7.0/toolchain/arm/arm-gnu-toolchain/bin/../lib/gcc/arm-none-eabi/6.3.1/../../../../arm-none-eabi/lib/thumb/v7e-m\libc.a(lib_a-localeconv.o)
 .ARM.attributes
                0x000009e1       0x2e c:/program files (x86)/atmel/studio/7.0/toolchain/arm/arm-gnu-toolchain/bin/../lib/gcc/arm-none-eabi/6.3.1/../../../../arm-none-eabi/lib/thumb/v7e-m\libc.a(lib_a-lock.o)
 .ARM.attributes
                0x00000a0f       0x2e c:/program files (x86)/atmel/studio/7.0/toolchain/arm/arm-gnu-toolchain/bin/../lib/gcc/arm-none-eabi/6.3.1/../../../../arm-none-eabi/lib/thumb/v7e-m\libc.a(lib_a-makebuf.o)
 .ARM.attributes
                0x00000a3d       0x2e c:/program files (x86)/atmel/studio/7.0/toolchain/arm/arm-gnu-toolchain/bin/../lib/gcc/arm-none-eabi/6.3.1/../../../../arm-none-eabi/lib/thumb/v7e-m\libc.a(lib_a-mbtowc_r.o)
 .ARM.attributes
                0x00000a6b       0x1c c:/program files (x86)/atmel/studio/7.0/toolchain/arm/arm-gnu-toolchain/bin/../lib/gcc/arm-none-eabi/6.3.1/../../../../arm-none-eabi/lib/thumb/v7e-m\libc.a(lib_a-memchr.o)
 .ARM.attributes
                0x00000a87       0x2e c:/program files (x86)/atmel/studio/7.0/toolchain/arm/arm-gnu-toolchain/bin/../lib/gcc/arm-none-eabi/6.3.1/../../../../arm-none-eabi/lib/thumb/v7e-m\libc.a(lib_a-memmove.o)
 .ARM.attributes
                0x00000ab5       0x2e c:/program files (x86)/atmel/studio/7.0/toolchain/arm/arm-gnu-toolchain/bin/../lib/gcc/arm-none-eabi/6.3.1/../../../../arm-none-eabi/lib/thumb/v7e-m\libc.a(lib_a-mprec.o)
 .ARM.attributes
                0x00000ae3       0x2e c:/program files (x86)/atmel/studio/7.0/toolchain/arm/arm-gnu-toolchain/bin/../lib/gcc/arm-none-eabi/6.3.1/../../../../arm-none-eabi/lib/thumb/v7e-m\libc.a(lib_a-reallocr.o)
 .ARM.attributes
                0x00000b11       0x2e c:/program files (x86)/atmel/studio/7.0/toolchain/arm/arm-gnu-toolchain/bin/../lib/gcc/arm-none-eabi/6.3.1/../../../../arm-none-eabi/lib/thumb/v7e-m\libc.a(lib_a-reent.o)
 .ARM.attributes
                0x00000b3f       0x2e c:/program files (x86)/atmel/studio/7.0/toolchain/arm/arm-gnu-toolchain/bin/../lib/gcc/arm-none-eabi/6.3.1/../../../../arm-none-eabi/lib/thumb/v7e-m\libc.a(lib_a-stdio.o)
 .ARM.attributes
                0x00000b6d       0x2e c:/program files (x86)/atmel/studio/7.0/toolchain/arm/arm-gnu-toolchain/bin/../lib/gcc/arm-none-eabi/6.3.1/../../../../arm-none-eabi/lib/thumb/v7e-m\libc.a(lib_a-svfiprintf.o)
 .ARM.attributes
                0x00000b9b       0x2e c:/program files (x86)/atmel/studio/7.0/toolchain/arm/arm-gnu-toolchain/bin/../lib/gcc/arm-none-eabi/6.3.1/../../../../arm-none-eabi/lib/thumb/v7e-m\libc.a(lib_a-wbuf.o)
 .ARM.attributes
                0x00000bc9       0x2e c:/program files (x86)/atmel/studio/7.0/toolchain/arm/arm-gnu-toolchain/bin/../lib/gcc/arm-none-eabi/6.3.1/../../../../arm-none-eabi/lib/thumb/v7e-m\libc.a(lib_a-wcrtomb.o)
 .ARM.attributes
                0x00000bf7       0x2e c:/program files (x86)/atmel/studio/7.0/toolchain/arm/arm-gnu-toolchain/bin/../lib/gcc/arm-none-eabi/6.3.1/../../../../arm-none-eabi/lib/thumb/v7e-m\libc.a(lib_a-wctomb_r.o)
 .ARM.attributes
                0x00000c25       0x2e c:/program files (x86)/atmel/studio/7.0/toolchain/arm/arm-gnu-toolchain/bin/../lib/gcc/arm-none-eabi/6.3.1/../../../../arm-none-eabi/lib/thumb/v7e-m\libc.a(lib_a-writer.o)
 .ARM.attributes
                0x00000c53       0x2e c:/program files (x86)/atmel/studio/7.0/toolchain/arm/arm-gnu-toolchain/bin/../lib/gcc/arm-none-eabi/6.3.1/../../../../arm-none-eabi/lib/thumb/v7e-m\libc.a(lib_a-__atexit.o)
 .ARM.attributes
                0x00000c81       0x2e c:/program files (x86)/atmel/studio/7.0/toolchain/arm/arm-gnu-toolchain/bin/../lib/gcc/arm-none-eabi/6.3.1/../../../../arm-none-eabi/lib/thumb/v7e-m\libc.a(lib_a-callocr.o)
 .ARM.attributes
                0x00000caf       0x2e c:/program files (x86)/atmel/studio/7.0/toolchain/arm/arm-gnu-toolchain/bin/../lib/gcc/arm-none-eabi/6.3.1/../../../../arm-none-eabi/lib/thumb/v7e-m\libc.a(lib_a-closer.o)
 .ARM.attributes
                0x00000cdd       0x2e c:/program files (x86)/atmel/studio/7.0/toolchain/arm/arm-gnu-toolchain/bin/../lib/gcc/arm-none-eabi/6.3.1/../../../../arm-none-eabi/lib/thumb/v7e-m\libc.a(lib_a-ctype_.o)
 .ARM.attributes
                0x00000d0b       0x2e c:/program files (x86)/atmel/studio/7.0/toolchain/arm/arm-gnu-toolchain/bin/../lib/gcc/arm-none-eabi/6.3.1/../../../../arm-none-eabi/lib/thumb/v7e-m\libc.a(lib_a-fclose.o)
 .ARM.attributes
                0x00000d39       0x2e c:/program files (x86)/atmel/studio/7.0/toolchain/arm/arm-gnu-toolchain/bin/../lib/gcc/arm-none-eabi/6.3.1/../../../../arm-none-eabi/lib/thumb/v7e-m\libc.a(lib_a-fstatr.o)
 .ARM.attributes
                0x00000d67       0x2e c:/program files (x86)/atmel/studio/7.0/toolchain/arm/arm-gnu-toolchain/bin/../lib/gcc/arm-none-eabi/6.3.1/../../../../arm-none-eabi/lib/thumb/v7e-m\libc.a(lib_a-isattyr.o)
 .ARM.attributes
                0x00000d95       0x2e c:/program files (x86)/atmel/studio/7.0/toolchain/arm/arm-gnu-toolchain/bin/../lib/gcc/arm-none-eabi/6.3.1/../../../../arm-none-eabi/lib/thumb/v7e-m\libc.a(lib_a-lseekr.o)
 .ARM.attributes
                0x00000dc3       0x2e c:/program files (x86)/atmel/studio/7.0/toolchain/arm/arm-gnu-toolchain/bin/../lib/gcc/arm-none-eabi/6.3.1/../../../../arm-none-eabi/lib/thumb/v7e-m\libc.a(lib_a-readr.o)
 .ARM.attributes
                0x00000df1       0x1e c:/program files (x86)/atmel/studio/7.0/toolchain/arm/arm-gnu-toolchain/bin/../lib/gcc/arm-none-eabi/6.3.1/thumb/v7e-m\libgcc.a(_arm_addsubdf3.o)
 .ARM.attributes
                0x00000e0f       0x1e c:/program files (x86)/atmel/studio/7.0/toolchain/arm/arm-gnu-toolchain/bin/../lib/gcc/arm-none-eabi/6.3.1/thumb/v7e-m\libgcc.a(_arm_muldivdf3.o)
 .ARM.attributes
                0x00000e2d       0x1e c:/program files (x86)/atmel/studio/7.0/toolchain/arm/arm-gnu-toolchain/bin/../lib/gcc/arm-none-eabi/6.3.1/thumb/v7e-m\libgcc.a(_arm_cmpdf2.o)
 .ARM.attributes
                0x00000e4b       0x1e c:/program files (x86)/atmel/studio/7.0/toolchain/arm/arm-gnu-toolchain/bin/../lib/gcc/arm-none-eabi/6.3.1/thumb/v7e-m\libgcc.a(_arm_unorddf2.o)
 .ARM.attributes
                0x00000e69       0x1e c:/program files (x86)/atmel/studio/7.0/toolchain/arm/arm-gnu-toolchain/bin/../lib/gcc/arm-none-eabi/6.3.1/thumb/v7e-m\libgcc.a(_arm_fixdfsi.o)
 .ARM.attributes
                0x00000e87       0x1e c:/program files (x86)/atmel/studio/7.0/toolchain/arm/arm-gnu-toolchain/bin/../lib/gcc/arm-none-eabi/6.3.1/thumb/v7e-m\libgcc.a(_aeabi_uldivmod.o)
 .ARM.attributes
                0x00000ea5       0x2e c:/program files (x86)/atmel/studio/7.0/toolchain/arm/arm-gnu-toolchain/bin/../lib/gcc/arm-none-eabi/6.3.1/thumb/v7e-m\libgcc.a(_udivmoddi4.o)
 .ARM.attributes
                0x00000ed3       0x1e c:/program files (x86)/atmel/studio/7.0/toolchain/arm/arm-gnu-toolchain/bin/../lib/gcc/arm-none-eabi/6.3.1/thumb/v7e-m\libgcc.a(_dvmd_tls.o)
 .ARM.attributes
                0x00000ef1       0x1e c:/program files (x86)/atmel/studio/7.0/toolchain/arm/arm-gnu-toolchain/bin/../lib/gcc/arm-none-eabi/6.3.1/thumb/v7e-m/crtn.o

.comment        0x00000000       0x59
 .comment       0x00000000       0x59 src/ASF/common/services/clock/same70/sysclk.o
                                 0x5a (size before relaxing)
 .comment       0x00000059       0x5a src/ASF/common/utils/interrupt/interrupt_sam_nvic.o
 .comment       0x00000059       0x5a src/ASF/common/utils/stdio/read.o
 .comment       0x00000059       0x5a src/ASF/common/utils/stdio/write.o
 .comment       0x00000059       0x5a src/ASF/sam/boards/same70_xplained/init.o
 .comment       0x00000059       0x5a src/ASF/sam/drivers/pio/pio.o
 .comment       0x00000059       0x5a src/ASF/sam/drivers/pio/pio_handler.o
 .comment       0x00000059       0x5a src/ASF/sam/drivers/pmc/pmc.o
 .comment       0x00000059       0x5a src/ASF/sam/drivers/pmc/sleep.o
 .comment       0x00000059       0x5a src/ASF/sam/drivers/uart/uart.o
 .comment       0x00000059       0x5a src/ASF/sam/drivers/usart/usart.o
 .comment       0x00000059       0x5a src/ASF/sam/utils/cmsis/same70/source/templates/gcc/startup_same70.o
 .comment       0x00000059       0x5a src/ASF/sam/utils/cmsis/same70/source/templates/system_same70.o
 .comment       0x00000059       0x5a src/ASF/sam/utils/syscalls/gcc/syscalls.o
 .comment       0x00000059       0x5a src/ASF/thirdparty/freertos/freertos-8.2.3/Source/list.o
 .comment       0x00000059       0x5a src/ASF/thirdparty/freertos/freertos-8.2.3/Source/portable/GCC/ARM_CM7/r0p1/port.o
 .comment       0x00000059       0x5a src/ASF/thirdparty/freertos/freertos-8.2.3/Source/portable/MemMang/heap_3.o
 .comment       0x00000059       0x5a src/ASF/thirdparty/freertos/freertos-8.2.3/Source/queue.o
 .comment       0x00000059       0x5a src/ASF/thirdparty/freertos/freertos-8.2.3/Source/tasks.o
 .comment       0x00000059       0x5a src/ASF/thirdparty/freertos/freertos-8.2.3/Source/timers.o
 .comment       0x00000059       0x5a src/main.o

.debug_info     0x00000000    0x1d53f
 .debug_info    0x00000000     0x1267 src/ASF/common/services/clock/same70/sysclk.o
 .debug_info    0x00001267      0xb01 src/ASF/common/utils/interrupt/interrupt_sam_nvic.o
 .debug_info    0x00001d68      0xac9 src/ASF/common/utils/stdio/read.o
 .debug_info    0x00002831      0xac6 src/ASF/common/utils/stdio/write.o
 .debug_info    0x000032f7     0x201f src/ASF/sam/boards/same70_xplained/init.o
 .debug_info    0x00005316     0x2150 src/ASF/sam/drivers/pio/pio.o
 .debug_info    0x00007466     0x1b22 src/ASF/sam/drivers/pio/pio_handler.o
 .debug_info    0x00008f88     0x1e0e src/ASF/sam/drivers/pmc/pmc.o
 .debug_info    0x0000ad96     0x165a src/ASF/sam/drivers/pmc/sleep.o
 .debug_info    0x0000c3f0     0x103b src/ASF/sam/drivers/uart/uart.o
 .debug_info    0x0000d42b     0x2324 src/ASF/sam/drivers/usart/usart.o
 .debug_info    0x0000f74f     0x156a src/ASF/sam/utils/cmsis/same70/source/templates/gcc/startup_same70.o
 .debug_info    0x00010cb9      0x55b src/ASF/sam/utils/cmsis/same70/source/templates/system_same70.o
 .debug_info    0x00011214      0xdb0 src/ASF/sam/utils/syscalls/gcc/syscalls.o
 .debug_info    0x00011fc4      0xc57 src/ASF/thirdparty/freertos/freertos-8.2.3/Source/list.o
 .debug_info    0x00012c1b      0xd02 src/ASF/thirdparty/freertos/freertos-8.2.3/Source/portable/GCC/ARM_CM7/r0p1/port.o
 .debug_info    0x0001391d      0xb4d src/ASF/thirdparty/freertos/freertos-8.2.3/Source/portable/MemMang/heap_3.o
 .debug_info    0x0001446a     0x21bb src/ASF/thirdparty/freertos/freertos-8.2.3/Source/queue.o
 .debug_info    0x00016625     0x2fb1 src/ASF/thirdparty/freertos/freertos-8.2.3/Source/tasks.o
 .debug_info    0x000195d6     0x1956 src/ASF/thirdparty/freertos/freertos-8.2.3/Source/timers.o
 .debug_info    0x0001af2c     0x2613 src/main.o

.debug_abbrev   0x00000000     0x3e53
 .debug_abbrev  0x00000000      0x31f src/ASF/common/services/clock/same70/sysclk.o
 .debug_abbrev  0x0000031f      0x212 src/ASF/common/utils/interrupt/interrupt_sam_nvic.o
 .debug_abbrev  0x00000531      0x1fe src/ASF/common/utils/stdio/read.o
 .debug_abbrev  0x0000072f      0x1e9 src/ASF/common/utils/stdio/write.o
 .debug_abbrev  0x00000918      0x368 src/ASF/sam/boards/same70_xplained/init.o
 .debug_abbrev  0x00000c80      0x410 src/ASF/sam/drivers/pio/pio.o
 .debug_abbrev  0x00001090      0x32f src/ASF/sam/drivers/pio/pio_handler.o
 .debug_abbrev  0x000013bf      0x369 src/ASF/sam/drivers/pmc/pmc.o
 .debug_abbrev  0x00001728      0x32b src/ASF/sam/drivers/pmc/sleep.o
 .debug_abbrev  0x00001a53      0x26e src/ASF/sam/drivers/uart/uart.o
 .debug_abbrev  0x00001cc1      0x3bd src/ASF/sam/drivers/usart/usart.o
 .debug_abbrev  0x0000207e      0x2e4 src/ASF/sam/utils/cmsis/same70/source/templates/gcc/startup_same70.o
 .debug_abbrev  0x00002362      0x102 src/ASF/sam/utils/cmsis/same70/source/templates/system_same70.o
 .debug_abbrev  0x00002464      0x264 src/ASF/sam/utils/syscalls/gcc/syscalls.o
 .debug_abbrev  0x000026c8      0x221 src/ASF/thirdparty/freertos/freertos-8.2.3/Source/list.o
 .debug_abbrev  0x000028e9      0x2ff src/ASF/thirdparty/freertos/freertos-8.2.3/Source/portable/GCC/ARM_CM7/r0p1/port.o
 .debug_abbrev  0x00002be8      0x268 src/ASF/thirdparty/freertos/freertos-8.2.3/Source/portable/MemMang/heap_3.o
 .debug_abbrev  0x00002e50      0x38a src/ASF/thirdparty/freertos/freertos-8.2.3/Source/queue.o
 .debug_abbrev  0x000031da      0x4a7 src/ASF/thirdparty/freertos/freertos-8.2.3/Source/tasks.o
 .debug_abbrev  0x00003681      0x3b0 src/ASF/thirdparty/freertos/freertos-8.2.3/Source/timers.o
 .debug_abbrev  0x00003a31      0x422 src/main.o

.debug_loc      0x00000000     0x88a4
 .debug_loc     0x00000000      0x183 src/ASF/common/services/clock/same70/sysclk.o
 .debug_loc     0x00000183       0xb3 src/ASF/common/utils/stdio/read.o
 .debug_loc     0x00000236      0x12b src/ASF/common/utils/stdio/write.o
 .debug_loc     0x00000361      0x261 src/ASF/sam/boards/same70_xplained/init.o
 .debug_loc     0x000005c2      0xea4 src/ASF/sam/drivers/pio/pio.o
 .debug_loc     0x00001466      0x588 src/ASF/sam/drivers/pio/pio_handler.o
 .debug_loc     0x000019ee      0xce3 src/ASF/sam/drivers/pmc/pmc.o
 .debug_loc     0x000026d1      0x389 src/ASF/sam/drivers/pmc/sleep.o
 .debug_loc     0x00002a5a      0x2a3 src/ASF/sam/drivers/uart/uart.o
 .debug_loc     0x00002cfd      0xf35 src/ASF/sam/drivers/usart/usart.o
 .debug_loc     0x00003c32       0x77 src/ASF/sam/utils/cmsis/same70/source/templates/gcc/startup_same70.o
 .debug_loc     0x00003ca9       0xfd src/ASF/sam/utils/syscalls/gcc/syscalls.o
 .debug_loc     0x00003da6       0x9c src/ASF/thirdparty/freertos/freertos-8.2.3/Source/list.o
 .debug_loc     0x00003e42       0xd5 src/ASF/thirdparty/freertos/freertos-8.2.3/Source/portable/GCC/ARM_CM7/r0p1/port.o
 .debug_loc     0x00003f17       0xbf src/ASF/thirdparty/freertos/freertos-8.2.3/Source/portable/MemMang/heap_3.o
 .debug_loc     0x00003fd6     0x162d src/ASF/thirdparty/freertos/freertos-8.2.3/Source/queue.o
 .debug_loc     0x00005603     0x205e src/ASF/thirdparty/freertos/freertos-8.2.3/Source/tasks.o
 .debug_loc     0x00007661      0xcb6 src/ASF/thirdparty/freertos/freertos-8.2.3/Source/timers.o
 .debug_loc     0x00008317      0x58d src/main.o

.debug_aranges  0x00000000      0xe18
 .debug_aranges
                0x00000000       0x40 src/ASF/common/services/clock/same70/sysclk.o
 .debug_aranges
                0x00000040       0x28 src/ASF/common/utils/interrupt/interrupt_sam_nvic.o
 .debug_aranges
                0x00000068       0x20 src/ASF/common/utils/stdio/read.o
 .debug_aranges
                0x00000088       0x20 src/ASF/common/utils/stdio/write.o
 .debug_aranges
                0x000000a8       0x20 src/ASF/sam/boards/same70_xplained/init.o
 .debug_aranges
                0x000000c8      0x1a8 src/ASF/sam/drivers/pio/pio.o
 .debug_aranges
                0x00000270       0x60 src/ASF/sam/drivers/pio/pio_handler.o
 .debug_aranges
                0x000002d0      0x250 src/ASF/sam/drivers/pmc/pmc.o
 .debug_aranges
                0x00000520       0x30 src/ASF/sam/drivers/pmc/sleep.o
 .debug_aranges
                0x00000550       0xd8 src/ASF/sam/drivers/uart/uart.o
 .debug_aranges
                0x00000628      0x2a8 src/ASF/sam/drivers/usart/usart.o
 .debug_aranges
                0x000008d0       0x28 src/ASF/sam/utils/cmsis/same70/source/templates/gcc/startup_same70.o
 .debug_aranges
                0x000008f8       0x30 src/ASF/sam/utils/cmsis/same70/source/templates/system_same70.o
 .debug_aranges
                0x00000928       0x60 src/ASF/sam/utils/syscalls/gcc/syscalls.o
 .debug_aranges
                0x00000988       0x40 src/ASF/thirdparty/freertos/freertos-8.2.3/Source/list.o
 .debug_aranges
                0x000009c8       0x78 src/ASF/thirdparty/freertos/freertos-8.2.3/Source/portable/GCC/ARM_CM7/r0p1/port.o
 .debug_aranges
                0x00000a40       0x28 src/ASF/thirdparty/freertos/freertos-8.2.3/Source/portable/MemMang/heap_3.o
 .debug_aranges
                0x00000a68      0x120 src/ASF/thirdparty/freertos/freertos-8.2.3/Source/queue.o
 .debug_aranges
                0x00000b88      0x1a0 src/ASF/thirdparty/freertos/freertos-8.2.3/Source/tasks.o
 .debug_aranges
                0x00000d28       0x80 src/ASF/thirdparty/freertos/freertos-8.2.3/Source/timers.o
 .debug_aranges
                0x00000da8       0x70 src/main.o

.debug_ranges   0x00000000      0xfc8
 .debug_ranges  0x00000000       0x30 src/ASF/common/services/clock/same70/sysclk.o
 .debug_ranges  0x00000030       0x18 src/ASF/common/utils/interrupt/interrupt_sam_nvic.o
 .debug_ranges  0x00000048       0x10 src/ASF/common/utils/stdio/read.o
 .debug_ranges  0x00000058       0x10 src/ASF/common/utils/stdio/write.o
 .debug_ranges  0x00000068       0x10 src/ASF/sam/boards/same70_xplained/init.o
 .debug_ranges  0x00000078      0x2a0 src/ASF/sam/drivers/pio/pio.o
 .debug_ranges  0x00000318       0x68 src/ASF/sam/drivers/pio/pio_handler.o
 .debug_ranges  0x00000380      0x240 src/ASF/sam/drivers/pmc/pmc.o
 .debug_ranges  0x000005c0       0x50 src/ASF/sam/drivers/pmc/sleep.o
 .debug_ranges  0x00000610       0xc8 src/ASF/sam/drivers/uart/uart.o
 .debug_ranges  0x000006d8      0x298 src/ASF/sam/drivers/usart/usart.o
 .debug_ranges  0x00000970       0x18 src/ASF/sam/utils/cmsis/same70/source/templates/gcc/startup_same70.o
 .debug_ranges  0x00000988       0x20 src/ASF/sam/utils/cmsis/same70/source/templates/system_same70.o
 .debug_ranges  0x000009a8       0x50 src/ASF/sam/utils/syscalls/gcc/syscalls.o
 .debug_ranges  0x000009f8       0x30 src/ASF/thirdparty/freertos/freertos-8.2.3/Source/list.o
 .debug_ranges  0x00000a28       0x68 src/ASF/thirdparty/freertos/freertos-8.2.3/Source/portable/GCC/ARM_CM7/r0p1/port.o
 .debug_ranges  0x00000a90       0x18 src/ASF/thirdparty/freertos/freertos-8.2.3/Source/portable/MemMang/heap_3.o
 .debug_ranges  0x00000aa8      0x110 src/ASF/thirdparty/freertos/freertos-8.2.3/Source/queue.o
 .debug_ranges  0x00000bb8      0x2d8 src/ASF/thirdparty/freertos/freertos-8.2.3/Source/tasks.o
 .debug_ranges  0x00000e90       0xc0 src/ASF/thirdparty/freertos/freertos-8.2.3/Source/timers.o
 .debug_ranges  0x00000f50       0x78 src/main.o

.debug_macro    0x00000000    0x2164c
 .debug_macro   0x00000000      0x6d1 src/ASF/common/services/clock/same70/sysclk.o
 .debug_macro   0x000006d1      0x8d4 src/ASF/common/services/clock/same70/sysclk.o
 .debug_macro   0x00000fa5      0x64b src/ASF/common/services/clock/same70/sysclk.o
 .debug_macro   0x000015f0       0x3a src/ASF/common/services/clock/same70/sysclk.o
 .debug_macro   0x0000162a      0x16d src/ASF/common/services/clock/same70/sysclk.o
 .debug_macro   0x00001797       0x76 src/ASF/common/services/clock/same70/sysclk.o
 .debug_macro   0x0000180d       0x16 src/ASF/common/services/clock/same70/sysclk.o
 .debug_macro   0x00001823      0x6e4 src/ASF/common/services/clock/same70/sysclk.o
 .debug_macro   0x00001f07       0x22 src/ASF/common/services/clock/same70/sysclk.o
 .debug_macro   0x00001f29       0x87 src/ASF/common/services/clock/same70/sysclk.o
 .debug_macro   0x00001fb0       0x51 src/ASF/common/services/clock/same70/sysclk.o
 .debug_macro   0x00002001       0xef src/ASF/common/services/clock/same70/sysclk.o
 .debug_macro   0x000020f0       0x6a src/ASF/common/services/clock/same70/sysclk.o
 .debug_macro   0x0000215a      0x1df src/ASF/common/services/clock/same70/sysclk.o
 .debug_macro   0x00002339       0x4a src/ASF/common/services/clock/same70/sysclk.o
 .debug_macro   0x00002383       0x3b src/ASF/common/services/clock/same70/sysclk.o
 .debug_macro   0x000023be       0x2d src/ASF/common/services/clock/same70/sysclk.o
 .debug_macro   0x000023eb       0x26 src/ASF/common/services/clock/same70/sysclk.o
 .debug_macro   0x00002411      0xf9a src/ASF/common/services/clock/same70/sysclk.o
 .debug_macro   0x000033ab      0x175 src/ASF/common/services/clock/same70/sysclk.o
 .debug_macro   0x00003520      0x257 src/ASF/common/services/clock/same70/sysclk.o
 .debug_macro   0x00003777      0xa0f src/ASF/common/services/clock/same70/sysclk.o
 .debug_macro   0x00004186      0x1b9 src/ASF/common/services/clock/same70/sysclk.o
 .debug_macro   0x0000433f      0x336 src/ASF/common/services/clock/same70/sysclk.o
 .debug_macro   0x00004675      0x15b src/ASF/common/services/clock/same70/sysclk.o
 .debug_macro   0x000047d0     0x1851 src/ASF/common/services/clock/same70/sysclk.o
 .debug_macro   0x00006021       0x1c src/ASF/common/services/clock/same70/sysclk.o
 .debug_macro   0x0000603d      0x68d src/ASF/common/services/clock/same70/sysclk.o
 .debug_macro   0x000066ca      0x31e src/ASF/common/services/clock/same70/sysclk.o
 .debug_macro   0x000069e8      0x4d4 src/ASF/common/services/clock/same70/sysclk.o
 .debug_macro   0x00006ebc      0x56e src/ASF/common/services/clock/same70/sysclk.o
 .debug_macro   0x0000742a     0x1332 src/ASF/common/services/clock/same70/sysclk.o
 .debug_macro   0x0000875c     0x278d src/ASF/common/services/clock/same70/sysclk.o
 .debug_macro   0x0000aee9     0x102b src/ASF/common/services/clock/same70/sysclk.o
 .debug_macro   0x0000bf14      0xe01 src/ASF/common/services/clock/same70/sysclk.o
 .debug_macro   0x0000cd15      0x3b1 src/ASF/common/services/clock/same70/sysclk.o
 .debug_macro   0x0000d0c6       0xa0 src/ASF/common/services/clock/same70/sysclk.o
 .debug_macro   0x0000d166       0x76 src/ASF/common/services/clock/same70/sysclk.o
 .debug_macro   0x0000d1dc      0x409 src/ASF/common/services/clock/same70/sysclk.o
 .debug_macro   0x0000d5e5       0x64 src/ASF/common/services/clock/same70/sysclk.o
 .debug_macro   0x0000d649      0x284 src/ASF/common/services/clock/same70/sysclk.o
 .debug_macro   0x0000d8cd      0x1d0 src/ASF/common/services/clock/same70/sysclk.o
 .debug_macro   0x0000da9d      0x248 src/ASF/common/services/clock/same70/sysclk.o
 .debug_macro   0x0000dce5      0x524 src/ASF/common/services/clock/same70/sysclk.o
 .debug_macro   0x0000e209      0x63b src/ASF/common/services/clock/same70/sysclk.o
 .debug_macro   0x0000e844      0x6b8 src/ASF/common/services/clock/same70/sysclk.o
 .debug_macro   0x0000eefc       0x4c src/ASF/common/services/clock/same70/sysclk.o
 .debug_macro   0x0000ef48      0x468 src/ASF/common/services/clock/same70/sysclk.o
 .debug_macro   0x0000f3b0      0x207 src/ASF/common/services/clock/same70/sysclk.o
 .debug_macro   0x0000f5b7      0x866 src/ASF/common/services/clock/same70/sysclk.o
 .debug_macro   0x0000fe1d     0x1547 src/ASF/common/services/clock/same70/sysclk.o
 .debug_macro   0x00011364       0x40 src/ASF/common/services/clock/same70/sysclk.o
 .debug_macro   0x000113a4       0x76 src/ASF/common/services/clock/same70/sysclk.o
 .debug_macro   0x0001141a      0xdaf src/ASF/common/services/clock/same70/sysclk.o
 .debug_macro   0x000121c9       0x82 src/ASF/common/services/clock/same70/sysclk.o
 .debug_macro   0x0001224b       0x76 src/ASF/common/services/clock/same70/sysclk.o
 .debug_macro   0x000122c1       0x4c src/ASF/common/services/clock/same70/sysclk.o
 .debug_macro   0x0001230d      0x135 src/ASF/common/services/clock/same70/sysclk.o
 .debug_macro   0x00012442      0x135 src/ASF/common/services/clock/same70/sysclk.o
 .debug_macro   0x00012577      0x135 src/ASF/common/services/clock/same70/sysclk.o
 .debug_macro   0x000126ac       0x6a src/ASF/common/services/clock/same70/sysclk.o
 .debug_macro   0x00012716       0x6a src/ASF/common/services/clock/same70/sysclk.o
 .debug_macro   0x00012780      0x313 src/ASF/common/services/clock/same70/sysclk.o
 .debug_macro   0x00012a93       0xb2 src/ASF/common/services/clock/same70/sysclk.o
 .debug_macro   0x00012b45       0xb2 src/ASF/common/services/clock/same70/sysclk.o
 .debug_macro   0x00012bf7       0xb2 src/ASF/common/services/clock/same70/sysclk.o
 .debug_macro   0x00012ca9      0x11d src/ASF/common/services/clock/same70/sysclk.o
 .debug_macro   0x00012dc6      0x11d src/ASF/common/services/clock/same70/sysclk.o
 .debug_macro   0x00012ee3      0x2cd src/ASF/common/services/clock/same70/sysclk.o
 .debug_macro   0x000131b0       0xb8 src/ASF/common/services/clock/same70/sysclk.o
 .debug_macro   0x00013268       0x5e src/ASF/common/services/clock/same70/sysclk.o
 .debug_macro   0x000132c6       0x40 src/ASF/common/services/clock/same70/sysclk.o
 .debug_macro   0x00013306       0x4c src/ASF/common/services/clock/same70/sysclk.o
 .debug_macro   0x00013352       0xa0 src/ASF/common/services/clock/same70/sysclk.o
 .debug_macro   0x000133f2      0x494 src/ASF/common/services/clock/same70/sysclk.o
 .debug_macro   0x00013886      0x135 src/ASF/common/services/clock/same70/sysclk.o
 .debug_macro   0x000139bb       0x4c src/ASF/common/services/clock/same70/sysclk.o
 .debug_macro   0x00013a07      0x313 src/ASF/common/services/clock/same70/sysclk.o
 .debug_macro   0x00013d1a       0x6a src/ASF/common/services/clock/same70/sysclk.o
 .debug_macro   0x00013d84       0xb8 src/ASF/common/services/clock/same70/sysclk.o
 .debug_macro   0x00013e3c       0x6a src/ASF/common/services/clock/same70/sysclk.o
 .debug_macro   0x00013ea6       0x2e src/ASF/common/services/clock/same70/sysclk.o
 .debug_macro   0x00013ed4      0x9b1 src/ASF/common/services/clock/same70/sysclk.o
 .debug_macro   0x00014885       0x6a src/ASF/common/services/clock/same70/sysclk.o
 .debug_macro   0x000148ef       0x88 src/ASF/common/services/clock/same70/sysclk.o
 .debug_macro   0x00014977       0x58 src/ASF/common/services/clock/same70/sysclk.o
 .debug_macro   0x000149cf       0xe2 src/ASF/common/services/clock/same70/sysclk.o
 .debug_macro   0x00014ab1       0x16 src/ASF/common/services/clock/same70/sysclk.o
 .debug_macro   0x00014ac7       0xe2 src/ASF/common/services/clock/same70/sysclk.o
 .debug_macro   0x00014ba9       0x4c src/ASF/common/services/clock/same70/sysclk.o
 .debug_macro   0x00014bf5       0x16 src/ASF/common/services/clock/same70/sysclk.o
 .debug_macro   0x00014c0b       0x4c src/ASF/common/services/clock/same70/sysclk.o
 .debug_macro   0x00014c57       0x2e src/ASF/common/services/clock/same70/sysclk.o
 .debug_macro   0x00014c85      0x1b5 src/ASF/common/services/clock/same70/sysclk.o
 .debug_macro   0x00014e3a      0x1b5 src/ASF/common/services/clock/same70/sysclk.o
 .debug_macro   0x00014fef      0x1b5 src/ASF/common/services/clock/same70/sysclk.o
 .debug_macro   0x000151a4      0x1b5 src/ASF/common/services/clock/same70/sysclk.o
 .debug_macro   0x00015359      0x1b5 src/ASF/common/services/clock/same70/sysclk.o
 .debug_macro   0x0001550e       0x1c src/ASF/common/services/clock/same70/sysclk.o
 .debug_macro   0x0001552a       0x2e src/ASF/common/services/clock/same70/sysclk.o
 .debug_macro   0x00015558       0x22 src/ASF/common/services/clock/same70/sysclk.o
 .debug_macro   0x0001557a       0x1c src/ASF/common/services/clock/same70/sysclk.o
 .debug_macro   0x00015596       0x52 src/ASF/common/services/clock/same70/sysclk.o
 .debug_macro   0x000155e8       0x10 src/ASF/common/services/clock/same70/sysclk.o
 .debug_macro   0x000155f8       0x1c src/ASF/common/services/clock/same70/sysclk.o
 .debug_macro   0x00015614       0x4c src/ASF/common/services/clock/same70/sysclk.o
 .debug_macro   0x00015660       0x4c src/ASF/common/services/clock/same70/sysclk.o
 .debug_macro   0x000156ac       0x4c src/ASF/common/services/clock/same70/sysclk.o
 .debug_macro   0x000156f8      0x31b src/ASF/common/services/clock/same70/sysclk.o
 .debug_macro   0x00015a13     0x1022 src/ASF/common/services/clock/same70/sysclk.o
 .debug_macro   0x00016a35      0x107 src/ASF/common/services/clock/same70/sysclk.o
 .debug_macro   0x00016b3c       0x58 src/ASF/common/services/clock/same70/sysclk.o
 .debug_macro   0x00016b94       0x35 src/ASF/common/services/clock/same70/sysclk.o
 .debug_macro   0x00016bc9       0x9c src/ASF/common/services/clock/same70/sysclk.o
 .debug_macro   0x00016c65       0x16 src/ASF/common/services/clock/same70/sysclk.o
 .debug_macro   0x00016c7b       0x35 src/ASF/common/services/clock/same70/sysclk.o
 .debug_macro   0x00016cb0      0x353 src/ASF/common/services/clock/same70/sysclk.o
 .debug_macro   0x00017003       0x10 src/ASF/common/services/clock/same70/sysclk.o
 .debug_macro   0x00017013       0x58 src/ASF/common/services/clock/same70/sysclk.o
 .debug_macro   0x0001706b       0x1f src/ASF/common/services/clock/same70/sysclk.o
 .debug_macro   0x0001708a       0x43 src/ASF/common/services/clock/same70/sysclk.o
 .debug_macro   0x000170cd       0x20 src/ASF/common/services/clock/same70/sysclk.o
 .debug_macro   0x000170ed      0x187 src/ASF/common/services/clock/same70/sysclk.o
 .debug_macro   0x00017274       0x10 src/ASF/common/services/clock/same70/sysclk.o
 .debug_macro   0x00017284       0x1c src/ASF/common/services/clock/same70/sysclk.o
 .debug_macro   0x000172a0       0x52 src/ASF/common/services/clock/same70/sysclk.o
 .debug_macro   0x000172f2       0x40 src/ASF/common/services/clock/same70/sysclk.o
 .debug_macro   0x00017332       0x10 src/ASF/common/services/clock/same70/sysclk.o
 .debug_macro   0x00017342       0x40 src/ASF/common/services/clock/same70/sysclk.o
 .debug_macro   0x00017382       0xd7 src/ASF/common/services/clock/same70/sysclk.o
 .debug_macro   0x00017459       0x16 src/ASF/common/services/clock/same70/sysclk.o
 .debug_macro   0x0001746f      0x18b src/ASF/common/services/clock/same70/sysclk.o
 .debug_macro   0x000175fa       0x22 src/ASF/common/services/clock/same70/sysclk.o
 .debug_macro   0x0001761c       0x16 src/ASF/common/services/clock/same70/sysclk.o
 .debug_macro   0x00017632       0x16 src/ASF/common/services/clock/same70/sysclk.o
 .debug_macro   0x00017648       0x29 src/ASF/common/services/clock/same70/sysclk.o
 .debug_macro   0x00017671       0x75 src/ASF/common/services/clock/same70/sysclk.o
 .debug_macro   0x000176e6       0x3f src/ASF/common/services/clock/same70/sysclk.o
 .debug_macro   0x00017725      0x3ca src/ASF/common/services/clock/same70/sysclk.o
 .debug_macro   0x00017aef      0x2c0 src/ASF/common/services/clock/same70/sysclk.o
 .debug_macro   0x00017daf      0xa96 src/ASF/common/services/clock/same70/sysclk.o
 .debug_macro   0x00018845       0x70 src/ASF/common/services/clock/same70/sysclk.o
 .debug_macro   0x000188b5       0x64 src/ASF/common/services/clock/same70/sysclk.o
 .debug_macro   0x00018919       0x5f src/ASF/common/services/clock/same70/sysclk.o
 .debug_macro   0x00018978       0xac src/ASF/common/services/clock/same70/sysclk.o
 .debug_macro   0x00018a24      0x655 src/ASF/common/utils/interrupt/interrupt_sam_nvic.o
 .debug_macro   0x00019079      0x655 src/ASF/common/utils/stdio/read.o
 .debug_macro   0x000196ce      0x655 src/ASF/common/utils/stdio/write.o
 .debug_macro   0x00019d23      0x70b src/ASF/sam/boards/same70_xplained/init.o
 .debug_macro   0x0001a42e       0x16 src/ASF/sam/boards/same70_xplained/init.o
 .debug_macro   0x0001a444       0x82 src/ASF/sam/boards/same70_xplained/init.o
 .debug_macro   0x0001a4c6       0x94 src/ASF/sam/boards/same70_xplained/init.o
 .debug_macro   0x0001a55a      0x66b src/ASF/sam/drivers/pio/pio.o
 .debug_macro   0x0001abc5       0x8e src/ASF/sam/drivers/pio/pio.o
 .debug_macro   0x0001ac53      0x676 src/ASF/sam/drivers/pio/pio_handler.o
 .debug_macro   0x0001b2c9      0x66b src/ASF/sam/drivers/pmc/pmc.o
 .debug_macro   0x0001b934       0x6a src/ASF/sam/drivers/pmc/pmc.o
 .debug_macro   0x0001b99e      0x684 src/ASF/sam/drivers/pmc/sleep.o
 .debug_macro   0x0001c022       0x34 src/ASF/sam/drivers/pmc/sleep.o
 .debug_macro   0x0001c056      0x665 src/ASF/sam/drivers/uart/uart.o
 .debug_macro   0x0001c6bb       0x16 src/ASF/sam/drivers/uart/uart.o
 .debug_macro   0x0001c6d1      0x69b src/ASF/sam/drivers/usart/usart.o
 .debug_macro   0x0001cd6c       0x34 src/ASF/sam/drivers/usart/usart.o
 .debug_macro   0x0001cda0      0x664 src/ASF/sam/utils/cmsis/same70/source/templates/gcc/startup_same70.o
 .debug_macro   0x0001d404       0x10 src/ASF/sam/utils/cmsis/same70/source/templates/gcc/startup_same70.o
 .debug_macro   0x0001d414      0x455 src/ASF/sam/utils/cmsis/same70/source/templates/system_same70.o
 .debug_macro   0x0001d869      0x1d6 src/ASF/sam/utils/syscalls/gcc/syscalls.o
 .debug_macro   0x0001da3f       0x52 src/ASF/sam/utils/syscalls/gcc/syscalls.o
 .debug_macro   0x0001da91       0x8d src/ASF/sam/utils/syscalls/gcc/syscalls.o
 .debug_macro   0x0001db1e       0x57 src/ASF/sam/utils/syscalls/gcc/syscalls.o
 .debug_macro   0x0001db75       0x97 src/ASF/sam/utils/syscalls/gcc/syscalls.o
 .debug_macro   0x0001dc0c       0xf6 src/ASF/sam/utils/syscalls/gcc/syscalls.o
 .debug_macro   0x0001dd02       0x4c src/ASF/sam/utils/syscalls/gcc/syscalls.o
 .debug_macro   0x0001dd4e       0x16 src/ASF/sam/utils/syscalls/gcc/syscalls.o
 .debug_macro   0x0001dd64       0x10 src/ASF/sam/utils/syscalls/gcc/syscalls.o
 .debug_macro   0x0001dd74       0x10 src/ASF/sam/utils/syscalls/gcc/syscalls.o
 .debug_macro   0x0001dd84       0x35 src/ASF/sam/utils/syscalls/gcc/syscalls.o
 .debug_macro   0x0001ddb9      0x122 src/ASF/sam/utils/syscalls/gcc/syscalls.o
 .debug_macro   0x0001dedb      0x6c6 src/ASF/thirdparty/freertos/freertos-8.2.3/Source/list.o
 .debug_macro   0x0001e5a1      0x794 src/ASF/thirdparty/freertos/freertos-8.2.3/Source/portable/GCC/ARM_CM7/r0p1/port.o
 .debug_macro   0x0001ed35      0x6e3 src/ASF/thirdparty/freertos/freertos-8.2.3/Source/portable/MemMang/heap_3.o
 .debug_macro   0x0001f418      0x747 src/ASF/thirdparty/freertos/freertos-8.2.3/Source/queue.o
 .debug_macro   0x0001fb5f       0x16 src/ASF/thirdparty/freertos/freertos-8.2.3/Source/queue.o
 .debug_macro   0x0001fb75       0xb0 src/ASF/thirdparty/freertos/freertos-8.2.3/Source/queue.o
 .debug_macro   0x0001fc25      0x785 src/ASF/thirdparty/freertos/freertos-8.2.3/Source/tasks.o
 .debug_macro   0x000203aa       0x10 src/ASF/thirdparty/freertos/freertos-8.2.3/Source/tasks.o
 .debug_macro   0x000203ba      0x706 src/ASF/thirdparty/freertos/freertos-8.2.3/Source/timers.o
 .debug_macro   0x00020ac0      0x8cd src/main.o
 .debug_macro   0x0002138d       0x7f src/main.o
 .debug_macro   0x0002140c       0x40 src/main.o
 .debug_macro   0x0002144c      0x1ce src/main.o
 .debug_macro   0x0002161a       0x16 src/main.o
 .debug_macro   0x00021630       0x1c src/main.o

.debug_line     0x00000000    0x10339
 .debug_line    0x00000000      0xb4f src/ASF/common/services/clock/same70/sysclk.o
 .debug_line    0x00000b4f      0xa01 src/ASF/common/utils/interrupt/interrupt_sam_nvic.o
 .debug_line    0x00001550      0x9e7 src/ASF/common/utils/stdio/read.o
 .debug_line    0x00001f37      0x9df src/ASF/common/utils/stdio/write.o
 .debug_line    0x00002916      0xc30 src/ASF/sam/boards/same70_xplained/init.o
 .debug_line    0x00003546      0xee3 src/ASF/sam/drivers/pio/pio.o
 .debug_line    0x00004429      0xabf src/ASF/sam/drivers/pio/pio_handler.o
 .debug_line    0x00004ee8     0x106b src/ASF/sam/drivers/pmc/pmc.o
 .debug_line    0x00005f53      0xb4c src/ASF/sam/drivers/pmc/sleep.o
 .debug_line    0x00006a9f      0xb79 src/ASF/sam/drivers/uart/uart.o
 .debug_line    0x00007618     0x1076 src/ASF/sam/drivers/usart/usart.o
 .debug_line    0x0000868e      0xa73 src/ASF/sam/utils/cmsis/same70/source/templates/gcc/startup_same70.o
 .debug_line    0x00009101      0x7e9 src/ASF/sam/utils/cmsis/same70/source/templates/system_same70.o
 .debug_line    0x000098ea      0x40b src/ASF/sam/utils/syscalls/gcc/syscalls.o
 .debug_line    0x00009cf5      0xbd5 src/ASF/thirdparty/freertos/freertos-8.2.3/Source/list.o
 .debug_line    0x0000a8ca      0xc2f src/ASF/thirdparty/freertos/freertos-8.2.3/Source/portable/GCC/ARM_CM7/r0p1/port.o
 .debug_line    0x0000b4f9      0xbaa src/ASF/thirdparty/freertos/freertos-8.2.3/Source/portable/MemMang/heap_3.o
 .debug_line    0x0000c0a3     0x10ad src/ASF/thirdparty/freertos/freertos-8.2.3/Source/queue.o
 .debug_line    0x0000d150     0x143b src/ASF/thirdparty/freertos/freertos-8.2.3/Source/tasks.o
 .debug_line    0x0000e58b      0xd3c src/ASF/thirdparty/freertos/freertos-8.2.3/Source/timers.o
 .debug_line    0x0000f2c7     0x1072 src/main.o

.debug_str      0x00000000    0x93360
 .debug_str     0x00000000    0x85ee0 src/ASF/common/services/clock/same70/sysclk.o
                              0x865ad (size before relaxing)
 .debug_str     0x00085ee0       0x94 src/ASF/common/utils/interrupt/interrupt_sam_nvic.o
                              0x81f5f (size before relaxing)
 .debug_str     0x00085f74       0x3f src/ASF/common/utils/stdio/read.o
                              0x81f08 (size before relaxing)
 .debug_str     0x00085fb3       0x2e src/ASF/common/utils/stdio/write.o
                              0x81f09 (size before relaxing)
 .debug_str     0x00085fe1      0xfd5 src/ASF/sam/boards/same70_xplained/init.o
                              0x871ab (size before relaxing)
 .debug_str     0x00086fb6      0x5b8 src/ASF/sam/drivers/pio/pio.o
                              0x82ab5 (size before relaxing)
 .debug_str     0x0008756e      0x44f src/ASF/sam/drivers/pio/pio_handler.o
                              0x82bd7 (size before relaxing)
 .debug_str     0x000879bd      0x6b5 src/ASF/sam/drivers/pmc/pmc.o
                              0x82c19 (size before relaxing)
 .debug_str     0x00088072      0x212 src/ASF/sam/drivers/pmc/sleep.o
                              0x85ed8 (size before relaxing)
 .debug_str     0x00088284      0x301 src/ASF/sam/drivers/uart/uart.o
                              0x8220f (size before relaxing)
 .debug_str     0x00088585      0xb6a src/ASF/sam/drivers/usart/usart.o
                              0x82aa7 (size before relaxing)
 .debug_str     0x000890ef      0x6a3 src/ASF/sam/utils/cmsis/same70/source/templates/gcc/startup_same70.o
                              0x8272c (size before relaxing)
 .debug_str     0x00089792      0x137 src/ASF/sam/utils/cmsis/same70/source/templates/system_same70.o
                              0x72838 (size before relaxing)
 .debug_str     0x000898c9      0x774 src/ASF/sam/utils/syscalls/gcc/syscalls.o
                               0x7469 (size before relaxing)
 .debug_str     0x0008a03d     0x30c6 src/ASF/thirdparty/freertos/freertos-8.2.3/Source/list.o
                              0x88717 (size before relaxing)
 .debug_str     0x0008d103      0xe7b src/ASF/thirdparty/freertos/freertos-8.2.3/Source/portable/GCC/ARM_CM7/r0p1/port.o
                              0x89479 (size before relaxing)
 .debug_str     0x0008df7e      0x120 src/ASF/thirdparty/freertos/freertos-8.2.3/Source/portable/MemMang/heap_3.o
                              0x88e2d (size before relaxing)
 .debug_str     0x0008e09e     0x130c src/ASF/thirdparty/freertos/freertos-8.2.3/Source/queue.o
                              0x8a292 (size before relaxing)
 .debug_str     0x0008f3aa     0x1a1f src/ASF/thirdparty/freertos/freertos-8.2.3/Source/tasks.o
                              0x8ac12 (size before relaxing)
 .debug_str     0x00090dc9      0x483 src/ASF/thirdparty/freertos/freertos-8.2.3/Source/timers.o
                              0x8a684 (size before relaxing)
 .debug_str     0x0009124c     0x2114 src/main.o
                              0x8e1f9 (size before relaxing)

.debug_frame    0x00000000     0x3458
 .debug_frame   0x00000000       0x88 src/ASF/common/services/clock/same70/sysclk.o
 .debug_frame   0x00000088       0x30 src/ASF/common/utils/interrupt/interrupt_sam_nvic.o
 .debug_frame   0x000000b8       0x30 src/ASF/common/utils/stdio/read.o
 .debug_frame   0x000000e8       0x48 src/ASF/common/utils/stdio/write.o
 .debug_frame   0x00000130       0x30 src/ASF/sam/boards/same70_xplained/init.o
 .debug_frame   0x00000160      0x390 src/ASF/sam/drivers/pio/pio.o
 .debug_frame   0x000004f0      0x110 src/ASF/sam/drivers/pio/pio_handler.o
 .debug_frame   0x00000600      0x494 src/ASF/sam/drivers/pmc/pmc.o
 .debug_frame   0x00000a94       0x5c src/ASF/sam/drivers/pmc/sleep.o
 .debug_frame   0x00000af0      0x19c src/ASF/sam/drivers/uart/uart.o
 .debug_frame   0x00000c8c      0x5c0 src/ASF/sam/drivers/usart/usart.o
 .debug_frame   0x0000124c       0x38 src/ASF/sam/utils/cmsis/same70/source/templates/gcc/startup_same70.o
 .debug_frame   0x00001284       0x40 src/ASF/sam/utils/cmsis/same70/source/templates/system_same70.o
 .debug_frame   0x000012c4       0xa0 src/ASF/sam/utils/syscalls/gcc/syscalls.o
 .debug_frame   0x00001364       0x6c src/ASF/thirdparty/freertos/freertos-8.2.3/Source/list.o
 .debug_frame   0x000013d0       0xe0 src/ASF/thirdparty/freertos/freertos-8.2.3/Source/portable/GCC/ARM_CM7/r0p1/port.o
 .debug_frame   0x000014b0       0x44 src/ASF/thirdparty/freertos/freertos-8.2.3/Source/portable/MemMang/heap_3.o
 .debug_frame   0x000014f4      0x380 src/ASF/thirdparty/freertos/freertos-8.2.3/Source/queue.o
 .debug_frame   0x00001874      0x52c src/ASF/thirdparty/freertos/freertos-8.2.3/Source/tasks.o
 .debug_frame   0x00001da0      0x198 src/ASF/thirdparty/freertos/freertos-8.2.3/Source/timers.o
 .debug_frame   0x00001f38      0x140 src/main.o
 .debug_frame   0x00002078       0x2c c:/program files (x86)/atmel/studio/7.0/toolchain/arm/arm-gnu-toolchain/bin/../lib/gcc/arm-none-eabi/6.3.1/../../../../arm-none-eabi/lib/thumb/v7e-m\libc.a(lib_a-init.o)
 .debug_frame   0x000020a4       0x74 c:/program files (x86)/atmel/studio/7.0/toolchain/arm/arm-gnu-toolchain/bin/../lib/gcc/arm-none-eabi/6.3.1/../../../../arm-none-eabi/lib/thumb/v7e-m\libc.a(lib_a-iprintf.o)
 .debug_frame   0x00002118       0x30 c:/program files (x86)/atmel/studio/7.0/toolchain/arm/arm-gnu-toolchain/bin/../lib/gcc/arm-none-eabi/6.3.1/../../../../arm-none-eabi/lib/thumb/v7e-m\libc.a(lib_a-malloc.o)
 .debug_frame   0x00002148       0x58 c:/program files (x86)/atmel/studio/7.0/toolchain/arm/arm-gnu-toolchain/bin/../lib/gcc/arm-none-eabi/6.3.1/../../../../arm-none-eabi/lib/thumb/v7e-m\libc.a(lib_a-mallocr.o)
 .debug_frame   0x000021a0       0x34 c:/program files (x86)/atmel/studio/7.0/toolchain/arm/arm-gnu-toolchain/bin/../lib/gcc/arm-none-eabi/6.3.1/../../../../arm-none-eabi/lib/thumb/v7e-m\libc.a(lib_a-memset.o)
 .debug_frame   0x000021d4       0x30 c:/program files (x86)/atmel/studio/7.0/toolchain/arm/arm-gnu-toolchain/bin/../lib/gcc/arm-none-eabi/6.3.1/../../../../arm-none-eabi/lib/thumb/v7e-m\libc.a(lib_a-mlock.o)
 .debug_frame   0x00002204       0x2c c:/program files (x86)/atmel/studio/7.0/toolchain/arm/arm-gnu-toolchain/bin/../lib/gcc/arm-none-eabi/6.3.1/../../../../arm-none-eabi/lib/thumb/v7e-m\libc.a(lib_a-sbrkr.o)
 .debug_frame   0x00002230       0x20 c:/program files (x86)/atmel/studio/7.0/toolchain/arm/arm-gnu-toolchain/bin/../lib/gcc/arm-none-eabi/6.3.1/../../../../arm-none-eabi/lib/thumb/v7e-m\libc.a(lib_a-setbuf.o)
 .debug_frame   0x00002250       0x48 c:/program files (x86)/atmel/studio/7.0/toolchain/arm/arm-gnu-toolchain/bin/../lib/gcc/arm-none-eabi/6.3.1/../../../../arm-none-eabi/lib/thumb/v7e-m\libc.a(lib_a-setvbuf.o)
 .debug_frame   0x00002298       0x84 c:/program files (x86)/atmel/studio/7.0/toolchain/arm/arm-gnu-toolchain/bin/../lib/gcc/arm-none-eabi/6.3.1/../../../../arm-none-eabi/lib/thumb/v7e-m\libc.a(lib_a-sprintf.o)
 .debug_frame   0x0000231c       0x20 c:/program files (x86)/atmel/studio/7.0/toolchain/arm/arm-gnu-toolchain/bin/../lib/gcc/arm-none-eabi/6.3.1/../../../../arm-none-eabi/lib/thumb/v7e-m\libc.a(lib_a-strcpy.o)
 .debug_frame   0x0000233c       0x40 c:/program files (x86)/atmel/studio/7.0/toolchain/arm/arm-gnu-toolchain/bin/../lib/gcc/arm-none-eabi/6.3.1/../../../../arm-none-eabi/lib/thumb/v7e-m\libc.a(lib_a-svfprintf.o)
 .debug_frame   0x0000237c       0xd8 c:/program files (x86)/atmel/studio/7.0/toolchain/arm/arm-gnu-toolchain/bin/../lib/gcc/arm-none-eabi/6.3.1/../../../../arm-none-eabi/lib/thumb/v7e-m\libc.a(lib_a-vfiprintf.o)
 .debug_frame   0x00002454       0x2c c:/program files (x86)/atmel/studio/7.0/toolchain/arm/arm-gnu-toolchain/bin/../lib/gcc/arm-none-eabi/6.3.1/../../../../arm-none-eabi/lib/thumb/v7e-m\libc.a(lib_a-wsetup.o)
 .debug_frame   0x00002480       0x5c c:/program files (x86)/atmel/studio/7.0/toolchain/arm/arm-gnu-toolchain/bin/../lib/gcc/arm-none-eabi/6.3.1/../../../../arm-none-eabi/lib/thumb/v7e-m\libc.a(lib_a-__call_atexit.o)
 .debug_frame   0x000024dc       0x20 c:/program files (x86)/atmel/studio/7.0/toolchain/arm/arm-gnu-toolchain/bin/../lib/gcc/arm-none-eabi/6.3.1/../../../../arm-none-eabi/lib/thumb/v7e-m\libc.a(lib_a-atexit.o)
 .debug_frame   0x000024fc       0x88 c:/program files (x86)/atmel/studio/7.0/toolchain/arm/arm-gnu-toolchain/bin/../lib/gcc/arm-none-eabi/6.3.1/../../../../arm-none-eabi/lib/thumb/v7e-m\libc.a(lib_a-dtoa.o)
 .debug_frame   0x00002584       0x5c c:/program files (x86)/atmel/studio/7.0/toolchain/arm/arm-gnu-toolchain/bin/../lib/gcc/arm-none-eabi/6.3.1/../../../../arm-none-eabi/lib/thumb/v7e-m\libc.a(lib_a-fflush.o)
 .debug_frame   0x000025e0      0x148 c:/program files (x86)/atmel/studio/7.0/toolchain/arm/arm-gnu-toolchain/bin/../lib/gcc/arm-none-eabi/6.3.1/../../../../arm-none-eabi/lib/thumb/v7e-m\libc.a(lib_a-findfp.o)
 .debug_frame   0x00002728       0x34 c:/program files (x86)/atmel/studio/7.0/toolchain/arm/arm-gnu-toolchain/bin/../lib/gcc/arm-none-eabi/6.3.1/../../../../arm-none-eabi/lib/thumb/v7e-m\libc.a(lib_a-fini.o)
 .debug_frame   0x0000275c       0x94 c:/program files (x86)/atmel/studio/7.0/toolchain/arm/arm-gnu-toolchain/bin/../lib/gcc/arm-none-eabi/6.3.1/../../../../arm-none-eabi/lib/thumb/v7e-m\libc.a(lib_a-fputwc.o)
 .debug_frame   0x000027f0       0x74 c:/program files (x86)/atmel/studio/7.0/toolchain/arm/arm-gnu-toolchain/bin/../lib/gcc/arm-none-eabi/6.3.1/../../../../arm-none-eabi/lib/thumb/v7e-m\libc.a(lib_a-freer.o)
 .debug_frame   0x00002864       0x68 c:/program files (x86)/atmel/studio/7.0/toolchain/arm/arm-gnu-toolchain/bin/../lib/gcc/arm-none-eabi/6.3.1/../../../../arm-none-eabi/lib/thumb/v7e-m\libc.a(lib_a-fvwrite.o)
 .debug_frame   0x000028cc       0x54 c:/program files (x86)/atmel/studio/7.0/toolchain/arm/arm-gnu-toolchain/bin/../lib/gcc/arm-none-eabi/6.3.1/../../../../arm-none-eabi/lib/thumb/v7e-m\libc.a(lib_a-fwalk.o)
 .debug_frame   0x00002920       0x6c c:/program files (x86)/atmel/studio/7.0/toolchain/arm/arm-gnu-toolchain/bin/../lib/gcc/arm-none-eabi/6.3.1/../../../../arm-none-eabi/lib/thumb/v7e-m\libc.a(lib_a-locale.o)
 .debug_frame   0x0000298c       0x40 c:/program files (x86)/atmel/studio/7.0/toolchain/arm/arm-gnu-toolchain/bin/../lib/gcc/arm-none-eabi/6.3.1/../../../../arm-none-eabi/lib/thumb/v7e-m\libc.a(lib_a-localeconv.o)
 .debug_frame   0x000029cc       0xb0 c:/program files (x86)/atmel/studio/7.0/toolchain/arm/arm-gnu-toolchain/bin/../lib/gcc/arm-none-eabi/6.3.1/../../../../arm-none-eabi/lib/thumb/v7e-m\libc.a(lib_a-lock.o)
 .debug_frame   0x00002a7c       0x68 c:/program files (x86)/atmel/studio/7.0/toolchain/arm/arm-gnu-toolchain/bin/../lib/gcc/arm-none-eabi/6.3.1/../../../../arm-none-eabi/lib/thumb/v7e-m\libc.a(lib_a-makebuf.o)
 .debug_frame   0x00002ae4       0x4c c:/program files (x86)/atmel/studio/7.0/toolchain/arm/arm-gnu-toolchain/bin/../lib/gcc/arm-none-eabi/6.3.1/../../../../arm-none-eabi/lib/thumb/v7e-m\libc.a(lib_a-mbtowc_r.o)
 .debug_frame   0x00002b30       0x30 c:/program files (x86)/atmel/studio/7.0/toolchain/arm/arm-gnu-toolchain/bin/../lib/gcc/arm-none-eabi/6.3.1/../../../../arm-none-eabi/lib/thumb/v7e-m\libc.a(lib_a-memmove.o)
 .debug_frame   0x00002b60      0x25c c:/program files (x86)/atmel/studio/7.0/toolchain/arm/arm-gnu-toolchain/bin/../lib/gcc/arm-none-eabi/6.3.1/../../../../arm-none-eabi/lib/thumb/v7e-m\libc.a(lib_a-mprec.o)
 .debug_frame   0x00002dbc       0x68 c:/program files (x86)/atmel/studio/7.0/toolchain/arm/arm-gnu-toolchain/bin/../lib/gcc/arm-none-eabi/6.3.1/../../../../arm-none-eabi/lib/thumb/v7e-m\libc.a(lib_a-reallocr.o)
 .debug_frame   0x00002e24       0x58 c:/program files (x86)/atmel/studio/7.0/toolchain/arm/arm-gnu-toolchain/bin/../lib/gcc/arm-none-eabi/6.3.1/../../../../arm-none-eabi/lib/thumb/v7e-m\libc.a(lib_a-reent.o)
 .debug_frame   0x00002e7c       0x88 c:/program files (x86)/atmel/studio/7.0/toolchain/arm/arm-gnu-toolchain/bin/../lib/gcc/arm-none-eabi/6.3.1/../../../../arm-none-eabi/lib/thumb/v7e-m\libc.a(lib_a-stdio.o)
 .debug_frame   0x00002f04       0x78 c:/program files (x86)/atmel/studio/7.0/toolchain/arm/arm-gnu-toolchain/bin/../lib/gcc/arm-none-eabi/6.3.1/../../../../arm-none-eabi/lib/thumb/v7e-m\libc.a(lib_a-svfiprintf.o)
 .debug_frame   0x00002f7c       0x40 c:/program files (x86)/atmel/studio/7.0/toolchain/arm/arm-gnu-toolchain/bin/../lib/gcc/arm-none-eabi/6.3.1/../../../../arm-none-eabi/lib/thumb/v7e-m\libc.a(lib_a-wbuf.o)
 .debug_frame   0x00002fbc       0x5c c:/program files (x86)/atmel/studio/7.0/toolchain/arm/arm-gnu-toolchain/bin/../lib/gcc/arm-none-eabi/6.3.1/../../../../arm-none-eabi/lib/thumb/v7e-m\libc.a(lib_a-wcrtomb.o)
 .debug_frame   0x00003018       0x3c c:/program files (x86)/atmel/studio/7.0/toolchain/arm/arm-gnu-toolchain/bin/../lib/gcc/arm-none-eabi/6.3.1/../../../../arm-none-eabi/lib/thumb/v7e-m\libc.a(lib_a-wctomb_r.o)
 .debug_frame   0x00003054       0x2c c:/program files (x86)/atmel/studio/7.0/toolchain/arm/arm-gnu-toolchain/bin/../lib/gcc/arm-none-eabi/6.3.1/../../../../arm-none-eabi/lib/thumb/v7e-m\libc.a(lib_a-writer.o)
 .debug_frame   0x00003080       0x34 c:/program files (x86)/atmel/studio/7.0/toolchain/arm/arm-gnu-toolchain/bin/../lib/gcc/arm-none-eabi/6.3.1/../../../../arm-none-eabi/lib/thumb/v7e-m\libc.a(lib_a-__atexit.o)
 .debug_frame   0x000030b4       0x28 c:/program files (x86)/atmel/studio/7.0/toolchain/arm/arm-gnu-toolchain/bin/../lib/gcc/arm-none-eabi/6.3.1/../../../../arm-none-eabi/lib/thumb/v7e-m\libc.a(lib_a-callocr.o)
 .debug_frame   0x000030dc       0x2c c:/program files (x86)/atmel/studio/7.0/toolchain/arm/arm-gnu-toolchain/bin/../lib/gcc/arm-none-eabi/6.3.1/../../../../arm-none-eabi/lib/thumb/v7e-m\libc.a(lib_a-closer.o)
 .debug_frame   0x00003108       0x3c c:/program files (x86)/atmel/studio/7.0/toolchain/arm/arm-gnu-toolchain/bin/../lib/gcc/arm-none-eabi/6.3.1/../../../../arm-none-eabi/lib/thumb/v7e-m\libc.a(lib_a-fclose.o)
 .debug_frame   0x00003144       0x2c c:/program files (x86)/atmel/studio/7.0/toolchain/arm/arm-gnu-toolchain/bin/../lib/gcc/arm-none-eabi/6.3.1/../../../../arm-none-eabi/lib/thumb/v7e-m\libc.a(lib_a-fstatr.o)
 .debug_frame   0x00003170       0x2c c:/program files (x86)/atmel/studio/7.0/toolchain/arm/arm-gnu-toolchain/bin/../lib/gcc/arm-none-eabi/6.3.1/../../../../arm-none-eabi/lib/thumb/v7e-m\libc.a(lib_a-isattyr.o)
 .debug_frame   0x0000319c       0x2c c:/program files (x86)/atmel/studio/7.0/toolchain/arm/arm-gnu-toolchain/bin/../lib/gcc/arm-none-eabi/6.3.1/../../../../arm-none-eabi/lib/thumb/v7e-m\libc.a(lib_a-lseekr.o)
 .debug_frame   0x000031c8       0x2c c:/program files (x86)/atmel/studio/7.0/toolchain/arm/arm-gnu-toolchain/bin/../lib/gcc/arm-none-eabi/6.3.1/../../../../arm-none-eabi/lib/thumb/v7e-m\libc.a(lib_a-readr.o)
 .debug_frame   0x000031f4       0xac c:/program files (x86)/atmel/studio/7.0/toolchain/arm/arm-gnu-toolchain/bin/../lib/gcc/arm-none-eabi/6.3.1/thumb/v7e-m\libgcc.a(_arm_addsubdf3.o)
 .debug_frame   0x000032a0       0x50 c:/program files (x86)/atmel/studio/7.0/toolchain/arm/arm-gnu-toolchain/bin/../lib/gcc/arm-none-eabi/6.3.1/thumb/v7e-m\libgcc.a(_arm_muldivdf3.o)
 .debug_frame   0x000032f0       0xc4 c:/program files (x86)/atmel/studio/7.0/toolchain/arm/arm-gnu-toolchain/bin/../lib/gcc/arm-none-eabi/6.3.1/thumb/v7e-m\libgcc.a(_arm_cmpdf2.o)
 .debug_frame   0x000033b4       0x20 c:/program files (x86)/atmel/studio/7.0/toolchain/arm/arm-gnu-toolchain/bin/../lib/gcc/arm-none-eabi/6.3.1/thumb/v7e-m\libgcc.a(_arm_unorddf2.o)
 .debug_frame   0x000033d4       0x24 c:/program files (x86)/atmel/studio/7.0/toolchain/arm/arm-gnu-toolchain/bin/../lib/gcc/arm-none-eabi/6.3.1/thumb/v7e-m\libgcc.a(_arm_fixdfsi.o)
 .debug_frame   0x000033f8       0x2c c:/program files (x86)/atmel/studio/7.0/toolchain/arm/arm-gnu-toolchain/bin/../lib/gcc/arm-none-eabi/6.3.1/thumb/v7e-m\libgcc.a(_aeabi_uldivmod.o)
 .debug_frame   0x00003424       0x34 c:/program files (x86)/atmel/studio/7.0/toolchain/arm/arm-gnu-toolchain/bin/../lib/gcc/arm-none-eabi/6.3.1/thumb/v7e-m\libgcc.a(_udivmoddi4.o)

Cross Reference Table

Symbol                                            File
ACC_Handler                                       src/ASF/sam/utils/cmsis/same70/source/templates/gcc/startup_same70.o
AES_Handler                                       src/ASF/sam/utils/cmsis/same70/source/templates/gcc/startup_same70.o
AFEC0_Handler                                     src/ASF/sam/utils/cmsis/same70/source/templates/gcc/startup_same70.o
AFEC1_Handler                                     src/ASF/sam/utils/cmsis/same70/source/templates/gcc/startup_same70.o
BusFault_Handler                                  src/ASF/sam/utils/cmsis/same70/source/templates/gcc/startup_same70.o
DACC_Handler                                      src/ASF/sam/utils/cmsis/same70/source/templates/gcc/startup_same70.o
DebugMon_Handler                                  src/ASF/sam/utils/cmsis/same70/source/templates/gcc/startup_same70.o
Dummy_Handler                                     src/ASF/sam/utils/cmsis/same70/source/templates/gcc/startup_same70.o
EFC_Handler                                       src/ASF/sam/utils/cmsis/same70/source/templates/gcc/startup_same70.o
GMAC_Handler                                      src/ASF/sam/utils/cmsis/same70/source/templates/gcc/startup_same70.o
HSMCI_Handler                                     src/ASF/sam/utils/cmsis/same70/source/templates/gcc/startup_same70.o
HardFault_Handler                                 src/ASF/sam/utils/cmsis/same70/source/templates/gcc/startup_same70.o
ICM_Handler                                       src/ASF/sam/utils/cmsis/same70/source/templates/gcc/startup_same70.o
ISI_Handler                                       src/ASF/sam/utils/cmsis/same70/source/templates/gcc/startup_same70.o
MCAN0_Handler                                     src/ASF/sam/utils/cmsis/same70/source/templates/gcc/startup_same70.o
MCAN1_Handler                                     src/ASF/sam/utils/cmsis/same70/source/templates/gcc/startup_same70.o
MemManage_Handler                                 src/ASF/sam/utils/cmsis/same70/source/templates/gcc/startup_same70.o
NMI_Handler                                       src/ASF/sam/utils/cmsis/same70/source/templates/gcc/startup_same70.o
PIOA_Handler                                      src/ASF/sam/drivers/pio/pio_handler.o
PIOB_Handler                                      src/ASF/sam/drivers/pio/pio_handler.o
PIOC_Handler                                      src/ASF/sam/drivers/pio/pio_handler.o
PIOD_Handler                                      src/ASF/sam/drivers/pio/pio_handler.o
PIOE_Handler                                      src/ASF/sam/drivers/pio/pio_handler.o
PMC_Handler                                       src/ASF/sam/utils/cmsis/same70/source/templates/gcc/startup_same70.o
PWM0_Handler                                      src/ASF/sam/utils/cmsis/same70/source/templates/gcc/startup_same70.o
PWM1_Handler                                      src/ASF/sam/utils/cmsis/same70/source/templates/gcc/startup_same70.o
PendSV_Handler                                    src/ASF/thirdparty/freertos/freertos-8.2.3/Source/portable/GCC/ARM_CM7/r0p1/port.o
                                                  src/ASF/sam/utils/cmsis/same70/source/templates/gcc/startup_same70.o
QSPI_Handler                                      src/ASF/sam/utils/cmsis/same70/source/templates/gcc/startup_same70.o
RSTC_Handler                                      src/ASF/sam/utils/cmsis/same70/source/templates/gcc/startup_same70.o
RSWDT_Handler                                     src/ASF/sam/utils/cmsis/same70/source/templates/gcc/startup_same70.o
RTC_Handler                                       src/ASF/sam/utils/cmsis/same70/source/templates/gcc/startup_same70.o
RTT_Handler                                       src/ASF/sam/utils/cmsis/same70/source/templates/gcc/startup_same70.o
Reset_Handler                                     src/ASF/sam/utils/cmsis/same70/source/templates/gcc/startup_same70.o
SDRAMC_Handler                                    src/ASF/sam/utils/cmsis/same70/source/templates/gcc/startup_same70.o
SPI0_Handler                                      src/ASF/sam/utils/cmsis/same70/source/templates/gcc/startup_same70.o
SPI1_Handler                                      src/ASF/sam/utils/cmsis/same70/source/templates/gcc/startup_same70.o
SSC_Handler                                       src/ASF/sam/utils/cmsis/same70/source/templates/gcc/startup_same70.o
SUPC_Handler                                      src/ASF/sam/utils/cmsis/same70/source/templates/gcc/startup_same70.o
SVC_Handler                                       src/ASF/thirdparty/freertos/freertos-8.2.3/Source/portable/GCC/ARM_CM7/r0p1/port.o
                                                  src/ASF/sam/utils/cmsis/same70/source/templates/gcc/startup_same70.o
SysTick_Handler                                   src/ASF/thirdparty/freertos/freertos-8.2.3/Source/portable/GCC/ARM_CM7/r0p1/port.o
                                                  src/ASF/sam/utils/cmsis/same70/source/templates/gcc/startup_same70.o
SystemCoreClock                                   src/ASF/sam/utils/cmsis/same70/source/templates/system_same70.o
SystemCoreClockUpdate                             src/ASF/sam/utils/cmsis/same70/source/templates/system_same70.o
                                                  src/ASF/common/services/clock/same70/sysclk.o
SystemInit                                        src/ASF/sam/utils/cmsis/same70/source/templates/system_same70.o
TC0_Handler                                       src/ASF/sam/utils/cmsis/same70/source/templates/gcc/startup_same70.o
TC10_Handler                                      src/ASF/sam/utils/cmsis/same70/source/templates/gcc/startup_same70.o
TC11_Handler                                      src/ASF/sam/utils/cmsis/same70/source/templates/gcc/startup_same70.o
TC1_Handler                                       src/ASF/sam/utils/cmsis/same70/source/templates/gcc/startup_same70.o
TC2_Handler                                       src/ASF/sam/utils/cmsis/same70/source/templates/gcc/startup_same70.o
TC3_Handler                                       src/ASF/sam/utils/cmsis/same70/source/templates/gcc/startup_same70.o
TC4_Handler                                       src/ASF/sam/utils/cmsis/same70/source/templates/gcc/startup_same70.o
TC5_Handler                                       src/ASF/sam/utils/cmsis/same70/source/templates/gcc/startup_same70.o
TC6_Handler                                       src/ASF/sam/utils/cmsis/same70/source/templates/gcc/startup_same70.o
TC7_Handler                                       src/ASF/sam/utils/cmsis/same70/source/templates/gcc/startup_same70.o
TC8_Handler                                       src/ASF/sam/utils/cmsis/same70/source/templates/gcc/startup_same70.o
TC9_Handler                                       src/ASF/sam/utils/cmsis/same70/source/templates/gcc/startup_same70.o
TRNG_Handler                                      src/ASF/sam/utils/cmsis/same70/source/templates/gcc/startup_same70.o
TWIHS0_Handler                                    src/ASF/sam/utils/cmsis/same70/source/templates/gcc/startup_same70.o
TWIHS1_Handler                                    src/ASF/sam/utils/cmsis/same70/source/templates/gcc/startup_same70.o
TWIHS2_Handler                                    src/ASF/sam/utils/cmsis/same70/source/templates/gcc/startup_same70.o
UART0_Handler                                     src/ASF/sam/utils/cmsis/same70/source/templates/gcc/startup_same70.o
UART1_Handler                                     src/ASF/sam/utils/cmsis/same70/source/templates/gcc/startup_same70.o
UART2_Handler                                     src/ASF/sam/utils/cmsis/same70/source/templates/gcc/startup_same70.o
UART3_Handler                                     src/ASF/sam/utils/cmsis/same70/source/templates/gcc/startup_same70.o
UART4_Handler                                     src/ASF/sam/utils/cmsis/same70/source/templates/gcc/startup_same70.o
USART0_Handler                                    src/ASF/sam/utils/cmsis/same70/source/templates/gcc/startup_same70.o
USART1_Handler                                    src/ASF/sam/utils/cmsis/same70/source/templates/gcc/startup_same70.o
USART2_Handler                                    src/ASF/sam/utils/cmsis/same70/source/templates/gcc/startup_same70.o
USBHS_Handler                                     src/ASF/sam/utils/cmsis/same70/source/templates/gcc/startup_same70.o
UsageFault_Handler                                src/ASF/sam/utils/cmsis/same70/source/templates/gcc/startup_same70.o
WDT_Handler                                       src/ASF/sam/utils/cmsis/same70/source/templates/gcc/startup_same70.o
XDMAC_Handler                                     src/ASF/sam/utils/cmsis/same70/source/templates/gcc/startup_same70.o
_Balloc                                           c:/program files (x86)/atmel/studio/7.0/toolchain/arm/arm-gnu-toolchain/bin/../lib/gcc/arm-none-eabi/6.3.1/../../../../arm-none-eabi/lib/thumb/v7e-m\libc.a(lib_a-mprec.o)
                                                  c:/program files (x86)/atmel/studio/7.0/toolchain/arm/arm-gnu-toolchain/bin/../lib/gcc/arm-none-eabi/6.3.1/../../../../arm-none-eabi/lib/thumb/v7e-m\libc.a(lib_a-dtoa.o)
_Bfree                                            c:/program files (x86)/atmel/studio/7.0/toolchain/arm/arm-gnu-toolchain/bin/../lib/gcc/arm-none-eabi/6.3.1/../../../../arm-none-eabi/lib/thumb/v7e-m\libc.a(lib_a-mprec.o)
                                                  c:/program files (x86)/atmel/studio/7.0/toolchain/arm/arm-gnu-toolchain/bin/../lib/gcc/arm-none-eabi/6.3.1/../../../../arm-none-eabi/lib/thumb/v7e-m\libc.a(lib_a-dtoa.o)
_Jv_RegisterClasses                               c:/program files (x86)/atmel/studio/7.0/toolchain/arm/arm-gnu-toolchain/bin/../lib/gcc/arm-none-eabi/6.3.1/thumb/v7e-m/crtbegin.o
_PathLocale                                       c:/program files (x86)/atmel/studio/7.0/toolchain/arm/arm-gnu-toolchain/bin/../lib/gcc/arm-none-eabi/6.3.1/../../../../arm-none-eabi/lib/thumb/v7e-m\libc.a(lib_a-locale.o)
__adddf3                                          c:/program files (x86)/atmel/studio/7.0/toolchain/arm/arm-gnu-toolchain/bin/../lib/gcc/arm-none-eabi/6.3.1/thumb/v7e-m\libgcc.a(_arm_addsubdf3.o)
__aeabi_cdcmpeq                                   c:/program files (x86)/atmel/studio/7.0/toolchain/arm/arm-gnu-toolchain/bin/../lib/gcc/arm-none-eabi/6.3.1/thumb/v7e-m\libgcc.a(_arm_cmpdf2.o)
__aeabi_cdcmple                                   c:/program files (x86)/atmel/studio/7.0/toolchain/arm/arm-gnu-toolchain/bin/../lib/gcc/arm-none-eabi/6.3.1/thumb/v7e-m\libgcc.a(_arm_cmpdf2.o)
__aeabi_cdrcmple                                  c:/program files (x86)/atmel/studio/7.0/toolchain/arm/arm-gnu-toolchain/bin/../lib/gcc/arm-none-eabi/6.3.1/thumb/v7e-m\libgcc.a(_arm_cmpdf2.o)
__aeabi_d2iz                                      c:/program files (x86)/atmel/studio/7.0/toolchain/arm/arm-gnu-toolchain/bin/../lib/gcc/arm-none-eabi/6.3.1/thumb/v7e-m\libgcc.a(_arm_fixdfsi.o)
                                                  c:/program files (x86)/atmel/studio/7.0/toolchain/arm/arm-gnu-toolchain/bin/../lib/gcc/arm-none-eabi/6.3.1/../../../../arm-none-eabi/lib/thumb/v7e-m\libc.a(lib_a-dtoa.o)
__aeabi_dadd                                      c:/program files (x86)/atmel/studio/7.0/toolchain/arm/arm-gnu-toolchain/bin/../lib/gcc/arm-none-eabi/6.3.1/thumb/v7e-m\libgcc.a(_arm_addsubdf3.o)
                                                  c:/program files (x86)/atmel/studio/7.0/toolchain/arm/arm-gnu-toolchain/bin/../lib/gcc/arm-none-eabi/6.3.1/../../../../arm-none-eabi/lib/thumb/v7e-m\libc.a(lib_a-dtoa.o)
__aeabi_dcmpeq                                    c:/program files (x86)/atmel/studio/7.0/toolchain/arm/arm-gnu-toolchain/bin/../lib/gcc/arm-none-eabi/6.3.1/thumb/v7e-m\libgcc.a(_arm_cmpdf2.o)
                                                  c:/program files (x86)/atmel/studio/7.0/toolchain/arm/arm-gnu-toolchain/bin/../lib/gcc/arm-none-eabi/6.3.1/../../../../arm-none-eabi/lib/thumb/v7e-m\libc.a(lib_a-dtoa.o)
                                                  c:/program files (x86)/atmel/studio/7.0/toolchain/arm/arm-gnu-toolchain/bin/../lib/gcc/arm-none-eabi/6.3.1/../../../../arm-none-eabi/lib/thumb/v7e-m\libc.a(lib_a-svfprintf.o)
__aeabi_dcmpge                                    c:/program files (x86)/atmel/studio/7.0/toolchain/arm/arm-gnu-toolchain/bin/../lib/gcc/arm-none-eabi/6.3.1/thumb/v7e-m\libgcc.a(_arm_cmpdf2.o)
                                                  c:/program files (x86)/atmel/studio/7.0/toolchain/arm/arm-gnu-toolchain/bin/../lib/gcc/arm-none-eabi/6.3.1/../../../../arm-none-eabi/lib/thumb/v7e-m\libc.a(lib_a-dtoa.o)
__aeabi_dcmpgt                                    c:/program files (x86)/atmel/studio/7.0/toolchain/arm/arm-gnu-toolchain/bin/../lib/gcc/arm-none-eabi/6.3.1/thumb/v7e-m\libgcc.a(_arm_cmpdf2.o)
                                                  c:/program files (x86)/atmel/studio/7.0/toolchain/arm/arm-gnu-toolchain/bin/../lib/gcc/arm-none-eabi/6.3.1/../../../../arm-none-eabi/lib/thumb/v7e-m\libc.a(lib_a-dtoa.o)
__aeabi_dcmple                                    c:/program files (x86)/atmel/studio/7.0/toolchain/arm/arm-gnu-toolchain/bin/../lib/gcc/arm-none-eabi/6.3.1/thumb/v7e-m\libgcc.a(_arm_cmpdf2.o)
                                                  c:/program files (x86)/atmel/studio/7.0/toolchain/arm/arm-gnu-toolchain/bin/../lib/gcc/arm-none-eabi/6.3.1/../../../../arm-none-eabi/lib/thumb/v7e-m\libc.a(lib_a-svfprintf.o)
__aeabi_dcmplt                                    c:/program files (x86)/atmel/studio/7.0/toolchain/arm/arm-gnu-toolchain/bin/../lib/gcc/arm-none-eabi/6.3.1/thumb/v7e-m\libgcc.a(_arm_cmpdf2.o)
                                                  c:/program files (x86)/atmel/studio/7.0/toolchain/arm/arm-gnu-toolchain/bin/../lib/gcc/arm-none-eabi/6.3.1/../../../../arm-none-eabi/lib/thumb/v7e-m\libc.a(lib_a-dtoa.o)
                                                  c:/program files (x86)/atmel/studio/7.0/toolchain/arm/arm-gnu-toolchain/bin/../lib/gcc/arm-none-eabi/6.3.1/../../../../arm-none-eabi/lib/thumb/v7e-m\libc.a(lib_a-svfprintf.o)
__aeabi_dcmpun                                    c:/program files (x86)/atmel/studio/7.0/toolchain/arm/arm-gnu-toolchain/bin/../lib/gcc/arm-none-eabi/6.3.1/thumb/v7e-m\libgcc.a(_arm_unorddf2.o)
                                                  c:/program files (x86)/atmel/studio/7.0/toolchain/arm/arm-gnu-toolchain/bin/../lib/gcc/arm-none-eabi/6.3.1/../../../../arm-none-eabi/lib/thumb/v7e-m\libc.a(lib_a-svfprintf.o)
__aeabi_ddiv                                      c:/program files (x86)/atmel/studio/7.0/toolchain/arm/arm-gnu-toolchain/bin/../lib/gcc/arm-none-eabi/6.3.1/thumb/v7e-m\libgcc.a(_arm_muldivdf3.o)
                                                  c:/program files (x86)/atmel/studio/7.0/toolchain/arm/arm-gnu-toolchain/bin/../lib/gcc/arm-none-eabi/6.3.1/../../../../arm-none-eabi/lib/thumb/v7e-m\libc.a(lib_a-mprec.o)
                                                  c:/program files (x86)/atmel/studio/7.0/toolchain/arm/arm-gnu-toolchain/bin/../lib/gcc/arm-none-eabi/6.3.1/../../../../arm-none-eabi/lib/thumb/v7e-m\libc.a(lib_a-dtoa.o)
__aeabi_dmul                                      c:/program files (x86)/atmel/studio/7.0/toolchain/arm/arm-gnu-toolchain/bin/../lib/gcc/arm-none-eabi/6.3.1/thumb/v7e-m\libgcc.a(_arm_muldivdf3.o)
                                                  c:/program files (x86)/atmel/studio/7.0/toolchain/arm/arm-gnu-toolchain/bin/../lib/gcc/arm-none-eabi/6.3.1/../../../../arm-none-eabi/lib/thumb/v7e-m\libc.a(lib_a-mprec.o)
                                                  c:/program files (x86)/atmel/studio/7.0/toolchain/arm/arm-gnu-toolchain/bin/../lib/gcc/arm-none-eabi/6.3.1/../../../../arm-none-eabi/lib/thumb/v7e-m\libc.a(lib_a-dtoa.o)
__aeabi_drsub                                     c:/program files (x86)/atmel/studio/7.0/toolchain/arm/arm-gnu-toolchain/bin/../lib/gcc/arm-none-eabi/6.3.1/thumb/v7e-m\libgcc.a(_arm_addsubdf3.o)
__aeabi_dsub                                      c:/program files (x86)/atmel/studio/7.0/toolchain/arm/arm-gnu-toolchain/bin/../lib/gcc/arm-none-eabi/6.3.1/thumb/v7e-m\libgcc.a(_arm_addsubdf3.o)
                                                  c:/program files (x86)/atmel/studio/7.0/toolchain/arm/arm-gnu-toolchain/bin/../lib/gcc/arm-none-eabi/6.3.1/../../../../arm-none-eabi/lib/thumb/v7e-m\libc.a(lib_a-dtoa.o)
__aeabi_f2d                                       c:/program files (x86)/atmel/studio/7.0/toolchain/arm/arm-gnu-toolchain/bin/../lib/gcc/arm-none-eabi/6.3.1/thumb/v7e-m\libgcc.a(_arm_addsubdf3.o)
__aeabi_i2d                                       c:/program files (x86)/atmel/studio/7.0/toolchain/arm/arm-gnu-toolchain/bin/../lib/gcc/arm-none-eabi/6.3.1/thumb/v7e-m\libgcc.a(_arm_addsubdf3.o)
                                                  c:/program files (x86)/atmel/studio/7.0/toolchain/arm/arm-gnu-toolchain/bin/../lib/gcc/arm-none-eabi/6.3.1/../../../../arm-none-eabi/lib/thumb/v7e-m\libc.a(lib_a-dtoa.o)
__aeabi_idiv0                                     c:/program files (x86)/atmel/studio/7.0/toolchain/arm/arm-gnu-toolchain/bin/../lib/gcc/arm-none-eabi/6.3.1/thumb/v7e-m\libgcc.a(_dvmd_tls.o)
__aeabi_l2d                                       c:/program files (x86)/atmel/studio/7.0/toolchain/arm/arm-gnu-toolchain/bin/../lib/gcc/arm-none-eabi/6.3.1/thumb/v7e-m\libgcc.a(_arm_addsubdf3.o)
__aeabi_ldiv0                                     c:/program files (x86)/atmel/studio/7.0/toolchain/arm/arm-gnu-toolchain/bin/../lib/gcc/arm-none-eabi/6.3.1/thumb/v7e-m\libgcc.a(_dvmd_tls.o)
                                                  c:/program files (x86)/atmel/studio/7.0/toolchain/arm/arm-gnu-toolchain/bin/../lib/gcc/arm-none-eabi/6.3.1/thumb/v7e-m\libgcc.a(_aeabi_uldivmod.o)
__aeabi_ui2d                                      c:/program files (x86)/atmel/studio/7.0/toolchain/arm/arm-gnu-toolchain/bin/../lib/gcc/arm-none-eabi/6.3.1/thumb/v7e-m\libgcc.a(_arm_addsubdf3.o)
                                                  c:/program files (x86)/atmel/studio/7.0/toolchain/arm/arm-gnu-toolchain/bin/../lib/gcc/arm-none-eabi/6.3.1/../../../../arm-none-eabi/lib/thumb/v7e-m\libc.a(lib_a-dtoa.o)
__aeabi_ul2d                                      c:/program files (x86)/atmel/studio/7.0/toolchain/arm/arm-gnu-toolchain/bin/../lib/gcc/arm-none-eabi/6.3.1/thumb/v7e-m\libgcc.a(_arm_addsubdf3.o)
__aeabi_uldivmod                                  c:/program files (x86)/atmel/studio/7.0/toolchain/arm/arm-gnu-toolchain/bin/../lib/gcc/arm-none-eabi/6.3.1/thumb/v7e-m\libgcc.a(_aeabi_uldivmod.o)
                                                  c:/program files (x86)/atmel/studio/7.0/toolchain/arm/arm-gnu-toolchain/bin/../lib/gcc/arm-none-eabi/6.3.1/../../../../arm-none-eabi/lib/thumb/v7e-m\libc.a(lib_a-svfiprintf.o)
                                                  c:/program files (x86)/atmel/studio/7.0/toolchain/arm/arm-gnu-toolchain/bin/../lib/gcc/arm-none-eabi/6.3.1/../../../../arm-none-eabi/lib/thumb/v7e-m\libc.a(lib_a-vfiprintf.o)
                                                  c:/program files (x86)/atmel/studio/7.0/toolchain/arm/arm-gnu-toolchain/bin/../lib/gcc/arm-none-eabi/6.3.1/../../../../arm-none-eabi/lib/thumb/v7e-m\libc.a(lib_a-svfprintf.o)
__any_on                                          c:/program files (x86)/atmel/studio/7.0/toolchain/arm/arm-gnu-toolchain/bin/../lib/gcc/arm-none-eabi/6.3.1/../../../../arm-none-eabi/lib/thumb/v7e-m\libc.a(lib_a-mprec.o)
__ascii_mbtowc                                    c:/program files (x86)/atmel/studio/7.0/toolchain/arm/arm-gnu-toolchain/bin/../lib/gcc/arm-none-eabi/6.3.1/../../../../arm-none-eabi/lib/thumb/v7e-m\libc.a(lib_a-mbtowc_r.o)
                                                  c:/program files (x86)/atmel/studio/7.0/toolchain/arm/arm-gnu-toolchain/bin/../lib/gcc/arm-none-eabi/6.3.1/../../../../arm-none-eabi/lib/thumb/v7e-m\libc.a(lib_a-locale.o)
__ascii_wctomb                                    c:/program files (x86)/atmel/studio/7.0/toolchain/arm/arm-gnu-toolchain/bin/../lib/gcc/arm-none-eabi/6.3.1/../../../../arm-none-eabi/lib/thumb/v7e-m\libc.a(lib_a-wctomb_r.o)
                                                  c:/program files (x86)/atmel/studio/7.0/toolchain/arm/arm-gnu-toolchain/bin/../lib/gcc/arm-none-eabi/6.3.1/../../../../arm-none-eabi/lib/thumb/v7e-m\libc.a(lib_a-locale.o)
__atexit_recursive_mutex                          c:/program files (x86)/atmel/studio/7.0/toolchain/arm/arm-gnu-toolchain/bin/../lib/gcc/arm-none-eabi/6.3.1/../../../../arm-none-eabi/lib/thumb/v7e-m\libc.a(lib_a-__call_atexit.o)
                                                  c:/program files (x86)/atmel/studio/7.0/toolchain/arm/arm-gnu-toolchain/bin/../lib/gcc/arm-none-eabi/6.3.1/../../../../arm-none-eabi/lib/thumb/v7e-m\libc.a(lib_a-__atexit.o)
__b2d                                             c:/program files (x86)/atmel/studio/7.0/toolchain/arm/arm-gnu-toolchain/bin/../lib/gcc/arm-none-eabi/6.3.1/../../../../arm-none-eabi/lib/thumb/v7e-m\libc.a(lib_a-mprec.o)
__bss_end__                                       c:/program files (x86)/atmel/studio/7.0/toolchain/arm/arm-gnu-toolchain/bin/../lib/gcc/arm-none-eabi/6.3.1/../../../../arm-none-eabi/lib/thumb/v7e-m/crt0.o
__bss_start__                                     c:/program files (x86)/atmel/studio/7.0/toolchain/arm/arm-gnu-toolchain/bin/../lib/gcc/arm-none-eabi/6.3.1/../../../../arm-none-eabi/lib/thumb/v7e-m/crt0.o
__call_exitprocs                                  c:/program files (x86)/atmel/studio/7.0/toolchain/arm/arm-gnu-toolchain/bin/../lib/gcc/arm-none-eabi/6.3.1/../../../../arm-none-eabi/lib/thumb/v7e-m\libc.a(lib_a-__call_atexit.o)
                                                  c:/program files (x86)/atmel/studio/7.0/toolchain/arm/arm-gnu-toolchain/bin/../lib/gcc/arm-none-eabi/6.3.1/../../../../arm-none-eabi/lib/thumb/v7e-m\libc.a(lib_a-exit.o)
__cmpdf2                                          c:/program files (x86)/atmel/studio/7.0/toolchain/arm/arm-gnu-toolchain/bin/../lib/gcc/arm-none-eabi/6.3.1/thumb/v7e-m\libgcc.a(_arm_cmpdf2.o)
__copybits                                        c:/program files (x86)/atmel/studio/7.0/toolchain/arm/arm-gnu-toolchain/bin/../lib/gcc/arm-none-eabi/6.3.1/../../../../arm-none-eabi/lib/thumb/v7e-m\libc.a(lib_a-mprec.o)
__d2b                                             c:/program files (x86)/atmel/studio/7.0/toolchain/arm/arm-gnu-toolchain/bin/../lib/gcc/arm-none-eabi/6.3.1/../../../../arm-none-eabi/lib/thumb/v7e-m\libc.a(lib_a-mprec.o)
                                                  c:/program files (x86)/atmel/studio/7.0/toolchain/arm/arm-gnu-toolchain/bin/../lib/gcc/arm-none-eabi/6.3.1/../../../../arm-none-eabi/lib/thumb/v7e-m\libc.a(lib_a-dtoa.o)
__deregister_frame_info                           c:/program files (x86)/atmel/studio/7.0/toolchain/arm/arm-gnu-toolchain/bin/../lib/gcc/arm-none-eabi/6.3.1/thumb/v7e-m/crtbegin.o
__divdf3                                          c:/program files (x86)/atmel/studio/7.0/toolchain/arm/arm-gnu-toolchain/bin/../lib/gcc/arm-none-eabi/6.3.1/thumb/v7e-m\libgcc.a(_arm_muldivdf3.o)
__dso_handle                                      c:/program files (x86)/atmel/studio/7.0/toolchain/arm/arm-gnu-toolchain/bin/../lib/gcc/arm-none-eabi/6.3.1/thumb/v7e-m/crtbegin.o
__eqdf2                                           c:/program files (x86)/atmel/studio/7.0/toolchain/arm/arm-gnu-toolchain/bin/../lib/gcc/arm-none-eabi/6.3.1/thumb/v7e-m\libgcc.a(_arm_cmpdf2.o)
__extendsfdf2                                     c:/program files (x86)/atmel/studio/7.0/toolchain/arm/arm-gnu-toolchain/bin/../lib/gcc/arm-none-eabi/6.3.1/thumb/v7e-m\libgcc.a(_arm_addsubdf3.o)
__fini_array_end                                  c:/program files (x86)/atmel/studio/7.0/toolchain/arm/arm-gnu-toolchain/bin/../lib/gcc/arm-none-eabi/6.3.1/../../../../arm-none-eabi/lib/thumb/v7e-m\libc.a(lib_a-fini.o)
__fini_array_start                                c:/program files (x86)/atmel/studio/7.0/toolchain/arm/arm-gnu-toolchain/bin/../lib/gcc/arm-none-eabi/6.3.1/../../../../arm-none-eabi/lib/thumb/v7e-m\libc.a(lib_a-fini.o)
__fixdfsi                                         c:/program files (x86)/atmel/studio/7.0/toolchain/arm/arm-gnu-toolchain/bin/../lib/gcc/arm-none-eabi/6.3.1/thumb/v7e-m\libgcc.a(_arm_fixdfsi.o)
__floatdidf                                       c:/program files (x86)/atmel/studio/7.0/toolchain/arm/arm-gnu-toolchain/bin/../lib/gcc/arm-none-eabi/6.3.1/thumb/v7e-m\libgcc.a(_arm_addsubdf3.o)
__floatsidf                                       c:/program files (x86)/atmel/studio/7.0/toolchain/arm/arm-gnu-toolchain/bin/../lib/gcc/arm-none-eabi/6.3.1/thumb/v7e-m\libgcc.a(_arm_addsubdf3.o)
__floatundidf                                     c:/program files (x86)/atmel/studio/7.0/toolchain/arm/arm-gnu-toolchain/bin/../lib/gcc/arm-none-eabi/6.3.1/thumb/v7e-m\libgcc.a(_arm_addsubdf3.o)
__floatunsidf                                     c:/program files (x86)/atmel/studio/7.0/toolchain/arm/arm-gnu-toolchain/bin/../lib/gcc/arm-none-eabi/6.3.1/thumb/v7e-m\libgcc.a(_arm_addsubdf3.o)
__fp_lock_all                                     c:/program files (x86)/atmel/studio/7.0/toolchain/arm/arm-gnu-toolchain/bin/../lib/gcc/arm-none-eabi/6.3.1/../../../../arm-none-eabi/lib/thumb/v7e-m\libc.a(lib_a-findfp.o)
__fp_unlock_all                                   c:/program files (x86)/atmel/studio/7.0/toolchain/arm/arm-gnu-toolchain/bin/../lib/gcc/arm-none-eabi/6.3.1/../../../../arm-none-eabi/lib/thumb/v7e-m\libc.a(lib_a-findfp.o)
__fputwc                                          c:/program files (x86)/atmel/studio/7.0/toolchain/arm/arm-gnu-toolchain/bin/../lib/gcc/arm-none-eabi/6.3.1/../../../../arm-none-eabi/lib/thumb/v7e-m\libc.a(lib_a-fputwc.o)
__gedf2                                           c:/program files (x86)/atmel/studio/7.0/toolchain/arm/arm-gnu-toolchain/bin/../lib/gcc/arm-none-eabi/6.3.1/thumb/v7e-m\libgcc.a(_arm_cmpdf2.o)
__global_locale                                   c:/program files (x86)/atmel/studio/7.0/toolchain/arm/arm-gnu-toolchain/bin/../lib/gcc/arm-none-eabi/6.3.1/../../../../arm-none-eabi/lib/thumb/v7e-m\libc.a(lib_a-locale.o)
                                                  c:/program files (x86)/atmel/studio/7.0/toolchain/arm/arm-gnu-toolchain/bin/../lib/gcc/arm-none-eabi/6.3.1/../../../../arm-none-eabi/lib/thumb/v7e-m\libc.a(lib_a-wctomb_r.o)
                                                  c:/program files (x86)/atmel/studio/7.0/toolchain/arm/arm-gnu-toolchain/bin/../lib/gcc/arm-none-eabi/6.3.1/../../../../arm-none-eabi/lib/thumb/v7e-m\libc.a(lib_a-wcrtomb.o)
                                                  c:/program files (x86)/atmel/studio/7.0/toolchain/arm/arm-gnu-toolchain/bin/../lib/gcc/arm-none-eabi/6.3.1/../../../../arm-none-eabi/lib/thumb/v7e-m\libc.a(lib_a-mbtowc_r.o)
                                                  c:/program files (x86)/atmel/studio/7.0/toolchain/arm/arm-gnu-toolchain/bin/../lib/gcc/arm-none-eabi/6.3.1/../../../../arm-none-eabi/lib/thumb/v7e-m\libc.a(lib_a-localeconv.o)
__gtdf2                                           c:/program files (x86)/atmel/studio/7.0/toolchain/arm/arm-gnu-toolchain/bin/../lib/gcc/arm-none-eabi/6.3.1/thumb/v7e-m\libgcc.a(_arm_cmpdf2.o)
__hi0bits                                         c:/program files (x86)/atmel/studio/7.0/toolchain/arm/arm-gnu-toolchain/bin/../lib/gcc/arm-none-eabi/6.3.1/../../../../arm-none-eabi/lib/thumb/v7e-m\libc.a(lib_a-mprec.o)
                                                  c:/program files (x86)/atmel/studio/7.0/toolchain/arm/arm-gnu-toolchain/bin/../lib/gcc/arm-none-eabi/6.3.1/../../../../arm-none-eabi/lib/thumb/v7e-m\libc.a(lib_a-dtoa.o)
__i2b                                             c:/program files (x86)/atmel/studio/7.0/toolchain/arm/arm-gnu-toolchain/bin/../lib/gcc/arm-none-eabi/6.3.1/../../../../arm-none-eabi/lib/thumb/v7e-m\libc.a(lib_a-mprec.o)
                                                  c:/program files (x86)/atmel/studio/7.0/toolchain/arm/arm-gnu-toolchain/bin/../lib/gcc/arm-none-eabi/6.3.1/../../../../arm-none-eabi/lib/thumb/v7e-m\libc.a(lib_a-dtoa.o)
__init_array_end                                  c:/program files (x86)/atmel/studio/7.0/toolchain/arm/arm-gnu-toolchain/bin/../lib/gcc/arm-none-eabi/6.3.1/../../../../arm-none-eabi/lib/thumb/v7e-m\libc.a(lib_a-init.o)
__init_array_start                                c:/program files (x86)/atmel/studio/7.0/toolchain/arm/arm-gnu-toolchain/bin/../lib/gcc/arm-none-eabi/6.3.1/../../../../arm-none-eabi/lib/thumb/v7e-m\libc.a(lib_a-init.o)
__ledf2                                           c:/program files (x86)/atmel/studio/7.0/toolchain/arm/arm-gnu-toolchain/bin/../lib/gcc/arm-none-eabi/6.3.1/thumb/v7e-m\libgcc.a(_arm_cmpdf2.o)
__libc_fini                                       c:/program files (x86)/atmel/studio/7.0/toolchain/arm/arm-gnu-toolchain/bin/../lib/gcc/arm-none-eabi/6.3.1/../../../../arm-none-eabi/lib/thumb/v7e-m\libc.a(lib_a-__call_atexit.o)
__libc_fini_array                                 c:/program files (x86)/atmel/studio/7.0/toolchain/arm/arm-gnu-toolchain/bin/../lib/gcc/arm-none-eabi/6.3.1/../../../../arm-none-eabi/lib/thumb/v7e-m\libc.a(lib_a-fini.o)
                                                  c:/program files (x86)/atmel/studio/7.0/toolchain/arm/arm-gnu-toolchain/bin/../lib/gcc/arm-none-eabi/6.3.1/../../../../arm-none-eabi/lib/thumb/v7e-m\libc.a(lib_a-__call_atexit.o)
                                                  c:/program files (x86)/atmel/studio/7.0/toolchain/arm/arm-gnu-toolchain/bin/../lib/gcc/arm-none-eabi/6.3.1/../../../../arm-none-eabi/lib/thumb/v7e-m/crt0.o
__libc_init_array                                 c:/program files (x86)/atmel/studio/7.0/toolchain/arm/arm-gnu-toolchain/bin/../lib/gcc/arm-none-eabi/6.3.1/../../../../arm-none-eabi/lib/thumb/v7e-m\libc.a(lib_a-init.o)
                                                  src/ASF/sam/utils/cmsis/same70/source/templates/gcc/startup_same70.o
                                                  c:/program files (x86)/atmel/studio/7.0/toolchain/arm/arm-gnu-toolchain/bin/../lib/gcc/arm-none-eabi/6.3.1/../../../../arm-none-eabi/lib/thumb/v7e-m/crt0.o
__lo0bits                                         c:/program files (x86)/atmel/studio/7.0/toolchain/arm/arm-gnu-toolchain/bin/../lib/gcc/arm-none-eabi/6.3.1/../../../../arm-none-eabi/lib/thumb/v7e-m\libc.a(lib_a-mprec.o)
__locale_ctype_ptr                                c:/program files (x86)/atmel/studio/7.0/toolchain/arm/arm-gnu-toolchain/bin/../lib/gcc/arm-none-eabi/6.3.1/../../../../arm-none-eabi/lib/thumb/v7e-m\libc.a(lib_a-locale.o)
__locale_ctype_ptr_l                              c:/program files (x86)/atmel/studio/7.0/toolchain/arm/arm-gnu-toolchain/bin/../lib/gcc/arm-none-eabi/6.3.1/../../../../arm-none-eabi/lib/thumb/v7e-m\libc.a(lib_a-locale.o)
__locale_mb_cur_max                               c:/program files (x86)/atmel/studio/7.0/toolchain/arm/arm-gnu-toolchain/bin/../lib/gcc/arm-none-eabi/6.3.1/../../../../arm-none-eabi/lib/thumb/v7e-m\libc.a(lib_a-locale.o)
                                                  c:/program files (x86)/atmel/studio/7.0/toolchain/arm/arm-gnu-toolchain/bin/../lib/gcc/arm-none-eabi/6.3.1/../../../../arm-none-eabi/lib/thumb/v7e-m\libc.a(lib_a-fputwc.o)
__localeconv_l                                    c:/program files (x86)/atmel/studio/7.0/toolchain/arm/arm-gnu-toolchain/bin/../lib/gcc/arm-none-eabi/6.3.1/../../../../arm-none-eabi/lib/thumb/v7e-m\libc.a(lib_a-localeconv.o)
__lock___arc4random_mutex                         c:/program files (x86)/atmel/studio/7.0/toolchain/arm/arm-gnu-toolchain/bin/../lib/gcc/arm-none-eabi/6.3.1/../../../../arm-none-eabi/lib/thumb/v7e-m\libc.a(lib_a-lock.o)
__lock___at_quick_exit_mutex                      c:/program files (x86)/atmel/studio/7.0/toolchain/arm/arm-gnu-toolchain/bin/../lib/gcc/arm-none-eabi/6.3.1/../../../../arm-none-eabi/lib/thumb/v7e-m\libc.a(lib_a-lock.o)
__lock___atexit_recursive_mutex                   c:/program files (x86)/atmel/studio/7.0/toolchain/arm/arm-gnu-toolchain/bin/../lib/gcc/arm-none-eabi/6.3.1/../../../../arm-none-eabi/lib/thumb/v7e-m\libc.a(lib_a-lock.o)
                                                  c:/program files (x86)/atmel/studio/7.0/toolchain/arm/arm-gnu-toolchain/bin/../lib/gcc/arm-none-eabi/6.3.1/../../../../arm-none-eabi/lib/thumb/v7e-m\libc.a(lib_a-__call_atexit.o)
__lock___dd_hash_mutex                            c:/program files (x86)/atmel/studio/7.0/toolchain/arm/arm-gnu-toolchain/bin/../lib/gcc/arm-none-eabi/6.3.1/../../../../arm-none-eabi/lib/thumb/v7e-m\libc.a(lib_a-lock.o)
__lock___env_recursive_mutex                      c:/program files (x86)/atmel/studio/7.0/toolchain/arm/arm-gnu-toolchain/bin/../lib/gcc/arm-none-eabi/6.3.1/../../../../arm-none-eabi/lib/thumb/v7e-m\libc.a(lib_a-lock.o)
__lock___malloc_recursive_mutex                   c:/program files (x86)/atmel/studio/7.0/toolchain/arm/arm-gnu-toolchain/bin/../lib/gcc/arm-none-eabi/6.3.1/../../../../arm-none-eabi/lib/thumb/v7e-m\libc.a(lib_a-lock.o)
                                                  c:/program files (x86)/atmel/studio/7.0/toolchain/arm/arm-gnu-toolchain/bin/../lib/gcc/arm-none-eabi/6.3.1/../../../../arm-none-eabi/lib/thumb/v7e-m\libc.a(lib_a-mlock.o)
__lock___sfp_recursive_mutex                      c:/program files (x86)/atmel/studio/7.0/toolchain/arm/arm-gnu-toolchain/bin/../lib/gcc/arm-none-eabi/6.3.1/../../../../arm-none-eabi/lib/thumb/v7e-m\libc.a(lib_a-lock.o)
                                                  c:/program files (x86)/atmel/studio/7.0/toolchain/arm/arm-gnu-toolchain/bin/../lib/gcc/arm-none-eabi/6.3.1/../../../../arm-none-eabi/lib/thumb/v7e-m\libc.a(lib_a-findfp.o)
__lock___sinit_recursive_mutex                    c:/program files (x86)/atmel/studio/7.0/toolchain/arm/arm-gnu-toolchain/bin/../lib/gcc/arm-none-eabi/6.3.1/../../../../arm-none-eabi/lib/thumb/v7e-m\libc.a(lib_a-lock.o)
                                                  c:/program files (x86)/atmel/studio/7.0/toolchain/arm/arm-gnu-toolchain/bin/../lib/gcc/arm-none-eabi/6.3.1/../../../../arm-none-eabi/lib/thumb/v7e-m\libc.a(lib_a-findfp.o)
__lock___tz_mutex                                 c:/program files (x86)/atmel/studio/7.0/toolchain/arm/arm-gnu-toolchain/bin/../lib/gcc/arm-none-eabi/6.3.1/../../../../arm-none-eabi/lib/thumb/v7e-m\libc.a(lib_a-lock.o)
__lshift                                          c:/program files (x86)/atmel/studio/7.0/toolchain/arm/arm-gnu-toolchain/bin/../lib/gcc/arm-none-eabi/6.3.1/../../../../arm-none-eabi/lib/thumb/v7e-m\libc.a(lib_a-mprec.o)
                                                  c:/program files (x86)/atmel/studio/7.0/toolchain/arm/arm-gnu-toolchain/bin/../lib/gcc/arm-none-eabi/6.3.1/../../../../arm-none-eabi/lib/thumb/v7e-m\libc.a(lib_a-dtoa.o)
__ltdf2                                           c:/program files (x86)/atmel/studio/7.0/toolchain/arm/arm-gnu-toolchain/bin/../lib/gcc/arm-none-eabi/6.3.1/thumb/v7e-m\libgcc.a(_arm_cmpdf2.o)
__malloc_av_                                      c:/program files (x86)/atmel/studio/7.0/toolchain/arm/arm-gnu-toolchain/bin/../lib/gcc/arm-none-eabi/6.3.1/../../../../arm-none-eabi/lib/thumb/v7e-m\libc.a(lib_a-mallocr.o)
                                                  c:/program files (x86)/atmel/studio/7.0/toolchain/arm/arm-gnu-toolchain/bin/../lib/gcc/arm-none-eabi/6.3.1/../../../../arm-none-eabi/lib/thumb/v7e-m\libc.a(lib_a-reallocr.o)
                                                  c:/program files (x86)/atmel/studio/7.0/toolchain/arm/arm-gnu-toolchain/bin/../lib/gcc/arm-none-eabi/6.3.1/../../../../arm-none-eabi/lib/thumb/v7e-m\libc.a(lib_a-freer.o)
__malloc_current_mallinfo                         c:/program files (x86)/atmel/studio/7.0/toolchain/arm/arm-gnu-toolchain/bin/../lib/gcc/arm-none-eabi/6.3.1/../../../../arm-none-eabi/lib/thumb/v7e-m\libc.a(lib_a-mallocr.o)
                                                  c:/program files (x86)/atmel/studio/7.0/toolchain/arm/arm-gnu-toolchain/bin/../lib/gcc/arm-none-eabi/6.3.1/../../../../arm-none-eabi/lib/thumb/v7e-m\libc.a(lib_a-freer.o)
__malloc_lock                                     c:/program files (x86)/atmel/studio/7.0/toolchain/arm/arm-gnu-toolchain/bin/../lib/gcc/arm-none-eabi/6.3.1/../../../../arm-none-eabi/lib/thumb/v7e-m\libc.a(lib_a-mlock.o)
                                                  c:/program files (x86)/atmel/studio/7.0/toolchain/arm/arm-gnu-toolchain/bin/../lib/gcc/arm-none-eabi/6.3.1/../../../../arm-none-eabi/lib/thumb/v7e-m\libc.a(lib_a-reallocr.o)
                                                  c:/program files (x86)/atmel/studio/7.0/toolchain/arm/arm-gnu-toolchain/bin/../lib/gcc/arm-none-eabi/6.3.1/../../../../arm-none-eabi/lib/thumb/v7e-m\libc.a(lib_a-freer.o)
                                                  c:/program files (x86)/atmel/studio/7.0/toolchain/arm/arm-gnu-toolchain/bin/../lib/gcc/arm-none-eabi/6.3.1/../../../../arm-none-eabi/lib/thumb/v7e-m\libc.a(lib_a-mallocr.o)
__malloc_max_sbrked_mem                           c:/program files (x86)/atmel/studio/7.0/toolchain/arm/arm-gnu-toolchain/bin/../lib/gcc/arm-none-eabi/6.3.1/../../../../arm-none-eabi/lib/thumb/v7e-m\libc.a(lib_a-mallocr.o)
__malloc_max_total_mem                            c:/program files (x86)/atmel/studio/7.0/toolchain/arm/arm-gnu-toolchain/bin/../lib/gcc/arm-none-eabi/6.3.1/../../../../arm-none-eabi/lib/thumb/v7e-m\libc.a(lib_a-mallocr.o)
__malloc_sbrk_base                                c:/program files (x86)/atmel/studio/7.0/toolchain/arm/arm-gnu-toolchain/bin/../lib/gcc/arm-none-eabi/6.3.1/../../../../arm-none-eabi/lib/thumb/v7e-m\libc.a(lib_a-mallocr.o)
