
SAME70-OLED1-EXT1.elf:     file format elf32-littlearm

Sections:
Idx Name          Size      VMA       LMA       File off  Algn
  0 .text         000074d4  00400000  00400000  00010000  2**6
                  CONTENTS, ALLOC, LOAD, READONLY, CODE
  1 .ARM.exidx    00000008  004074d4  004074d4  000174d4  2**2
                  CONTENTS, ALLOC, LOAD, READONLY, DATA
  2 .relocate     000009d0  20400000  004074dc  00020000  2**3
                  CONTENTS, ALLOC, LOAD, CODE
  3 .bss          00000310  204009d0  00407eac  000209d0  2**2
                  ALLOC
  4 .stack        00002000  20400ce0  004081bc  000209d0  2**0
                  ALLOC
  5 .heap         00000200  20402ce0  0040a1bc  000209d0  2**0
                  ALLOC
  6 .ARM.attributes 0000002e  00000000  00000000  000209d0  2**0
                  CONTENTS, READONLY
  7 .comment      00000059  00000000  00000000  000209fe  2**0
                  CONTENTS, READONLY
  8 .debug_info   000177bd  00000000  00000000  00020a57  2**0
                  CONTENTS, READONLY, DEBUGGING
  9 .debug_abbrev 000035f8  00000000  00000000  00038214  2**0
                  CONTENTS, READONLY, DEBUGGING
 10 .debug_loc    00005b7d  00000000  00000000  0003b80c  2**0
                  CONTENTS, READONLY, DEBUGGING
 11 .debug_aranges 000008e8  00000000  00000000  00041389  2**0
                  CONTENTS, READONLY, DEBUGGING
 12 .debug_ranges 00000918  00000000  00000000  00041c71  2**0
                  CONTENTS, READONLY, DEBUGGING
 13 .debug_macro  00021123  00000000  00000000  00042589  2**0
                  CONTENTS, READONLY, DEBUGGING
 14 .debug_line   0000e4ef  00000000  00000000  000636ac  2**0
                  CONTENTS, READONLY, DEBUGGING
 15 .debug_str    0009280c  00000000  00000000  00071b9b  2**0
                  CONTENTS, READONLY, DEBUGGING
 16 .debug_frame  00001fb4  00000000  00000000  001043a8  2**2
                  CONTENTS, READONLY, DEBUGGING

Disassembly of section .text:

00400000 <exception_table>:
  400000:	e0 2c 40 20 fd 12 40 00 f9 12 40 00 f9 12 40 00     .,@ ..@...@...@.
  400010:	f9 12 40 00 f9 12 40 00 f9 12 40 00 00 00 00 00     ..@...@...@.....
	...
  40002c:	f9 12 40 00 f9 12 40 00 00 00 00 00 f9 12 40 00     ..@...@.......@.
  40003c:	f9 12 40 00 f9 12 40 00 f9 12 40 00 b1 16 40 00     ..@...@...@...@.
  40004c:	f9 12 40 00 f9 12 40 00 f9 12 40 00 f9 12 40 00     ..@...@...@...@.
  40005c:	f9 12 40 00 f9 12 40 00 00 00 00 00 21 11 40 00     ..@...@.....!.@.
  40006c:	35 11 40 00 49 11 40 00 f9 12 40 00 f9 12 40 00     5.@.I.@...@...@.
  40007c:	f9 12 40 00 5d 11 40 00 71 11 40 00 f9 12 40 00     ..@.].@.q.@...@.
  40008c:	f9 12 40 00 f9 12 40 00 f9 12 40 00 f9 12 40 00     ..@...@...@...@.
  40009c:	f9 12 40 00 f9 12 40 00 f9 12 40 00 f9 12 40 00     ..@...@...@...@.
  4000ac:	f9 12 40 00 f9 12 40 00 f9 12 40 00 f9 12 40 00     ..@...@...@...@.
  4000bc:	f9 12 40 00 f9 12 40 00 f9 12 40 00 f9 12 40 00     ..@...@...@...@.
  4000cc:	f9 12 40 00 00 00 00 00 f9 12 40 00 00 00 00 00     ..@.......@.....
  4000dc:	f9 12 40 00 f9 12 40 00 f9 12 40 00 f9 12 40 00     ..@...@...@...@.
  4000ec:	f9 12 40 00 f9 12 40 00 f9 12 40 00 f9 12 40 00     ..@...@...@...@.
  4000fc:	f9 12 40 00 f9 12 40 00 f9 12 40 00 f9 12 40 00     ..@...@...@...@.
  40010c:	f9 12 40 00 f9 12 40 00 00 00 00 00 00 00 00 00     ..@...@.........
  40011c:	00 00 00 00 f9 12 40 00 f9 12 40 00 f9 12 40 00     ......@...@...@.
  40012c:	f9 12 40 00 f9 12 40 00 00 00 00 00 f9 12 40 00     ..@...@.......@.
  40013c:	f9 12 40 00                                         ..@.

00400140 <__do_global_dtors_aux>:
  400140:	b510      	push	{r4, lr}
  400142:	4c05      	ldr	r4, [pc, #20]	; (400158 <__do_global_dtors_aux+0x18>)
  400144:	7823      	ldrb	r3, [r4, #0]
  400146:	b933      	cbnz	r3, 400156 <__do_global_dtors_aux+0x16>
  400148:	4b04      	ldr	r3, [pc, #16]	; (40015c <__do_global_dtors_aux+0x1c>)
  40014a:	b113      	cbz	r3, 400152 <__do_global_dtors_aux+0x12>
  40014c:	4804      	ldr	r0, [pc, #16]	; (400160 <__do_global_dtors_aux+0x20>)
  40014e:	f3af 8000 	nop.w
  400152:	2301      	movs	r3, #1
  400154:	7023      	strb	r3, [r4, #0]
  400156:	bd10      	pop	{r4, pc}
  400158:	204009d0 	.word	0x204009d0
  40015c:	00000000 	.word	0x00000000
  400160:	004074dc 	.word	0x004074dc

00400164 <frame_dummy>:
  400164:	4b0c      	ldr	r3, [pc, #48]	; (400198 <frame_dummy+0x34>)
  400166:	b143      	cbz	r3, 40017a <frame_dummy+0x16>
  400168:	480c      	ldr	r0, [pc, #48]	; (40019c <frame_dummy+0x38>)
  40016a:	490d      	ldr	r1, [pc, #52]	; (4001a0 <frame_dummy+0x3c>)
  40016c:	b510      	push	{r4, lr}
  40016e:	f3af 8000 	nop.w
  400172:	480c      	ldr	r0, [pc, #48]	; (4001a4 <frame_dummy+0x40>)
  400174:	6803      	ldr	r3, [r0, #0]
  400176:	b923      	cbnz	r3, 400182 <frame_dummy+0x1e>
  400178:	bd10      	pop	{r4, pc}
  40017a:	480a      	ldr	r0, [pc, #40]	; (4001a4 <frame_dummy+0x40>)
  40017c:	6803      	ldr	r3, [r0, #0]
  40017e:	b933      	cbnz	r3, 40018e <frame_dummy+0x2a>
  400180:	4770      	bx	lr
  400182:	4b09      	ldr	r3, [pc, #36]	; (4001a8 <frame_dummy+0x44>)
  400184:	2b00      	cmp	r3, #0
  400186:	d0f7      	beq.n	400178 <frame_dummy+0x14>
  400188:	e8bd 4010 	ldmia.w	sp!, {r4, lr}
  40018c:	4718      	bx	r3
  40018e:	4b06      	ldr	r3, [pc, #24]	; (4001a8 <frame_dummy+0x44>)
  400190:	2b00      	cmp	r3, #0
  400192:	d0f5      	beq.n	400180 <frame_dummy+0x1c>
  400194:	4718      	bx	r3
  400196:	bf00      	nop
  400198:	00000000 	.word	0x00000000
  40019c:	004074dc 	.word	0x004074dc
  4001a0:	204009d4 	.word	0x204009d4
  4001a4:	004074dc 	.word	0x004074dc
  4001a8:	00000000 	.word	0x00000000

004001ac <rtc_enable_interrupt>:
  4001ac:	6201      	str	r1, [r0, #32]
  4001ae:	4770      	bx	lr

004001b0 <rtc_get_time>:
  4001b0:	b430      	push	{r4, r5}
  4001b2:	6885      	ldr	r5, [r0, #8]
  4001b4:	6884      	ldr	r4, [r0, #8]
  4001b6:	42a5      	cmp	r5, r4
  4001b8:	d003      	beq.n	4001c2 <rtc_get_time+0x12>
  4001ba:	6885      	ldr	r5, [r0, #8]
  4001bc:	6884      	ldr	r4, [r0, #8]
  4001be:	42ac      	cmp	r4, r5
  4001c0:	d1fb      	bne.n	4001ba <rtc_get_time+0xa>
  4001c2:	b161      	cbz	r1, 4001de <rtc_get_time+0x2e>
  4001c4:	f3c4 5001 	ubfx	r0, r4, #20, #2
  4001c8:	eb00 0580 	add.w	r5, r0, r0, lsl #2
  4001cc:	f3c4 4003 	ubfx	r0, r4, #16, #4
  4001d0:	eb00 0045 	add.w	r0, r0, r5, lsl #1
  4001d4:	f414 0f80 	tst.w	r4, #4194304	; 0x400000
  4001d8:	bf18      	it	ne
  4001da:	300c      	addne	r0, #12
  4001dc:	6008      	str	r0, [r1, #0]
  4001de:	b142      	cbz	r2, 4001f2 <rtc_get_time+0x42>
  4001e0:	f3c4 3102 	ubfx	r1, r4, #12, #3
  4001e4:	eb01 0181 	add.w	r1, r1, r1, lsl #2
  4001e8:	f3c4 2003 	ubfx	r0, r4, #8, #4
  4001ec:	eb00 0141 	add.w	r1, r0, r1, lsl #1
  4001f0:	6011      	str	r1, [r2, #0]
  4001f2:	b143      	cbz	r3, 400206 <rtc_get_time+0x56>
  4001f4:	f3c4 1202 	ubfx	r2, r4, #4, #3
  4001f8:	eb02 0282 	add.w	r2, r2, r2, lsl #2
  4001fc:	f004 040f 	and.w	r4, r4, #15
  400200:	eb04 0442 	add.w	r4, r4, r2, lsl #1
  400204:	601c      	str	r4, [r3, #0]
  400206:	bc30      	pop	{r4, r5}
  400208:	4770      	bx	lr
	...

0040020c <rtc_set_time>:
  40020c:	b4f0      	push	{r4, r5, r6, r7}
  40020e:	6844      	ldr	r4, [r0, #4]
  400210:	f014 0f01 	tst.w	r4, #1
  400214:	d005      	beq.n	400222 <rtc_set_time+0x16>
  400216:	290c      	cmp	r1, #12
  400218:	d903      	bls.n	400222 <rtc_set_time+0x16>
  40021a:	390c      	subs	r1, #12
  40021c:	f44f 0780 	mov.w	r7, #4194304	; 0x400000
  400220:	e000      	b.n	400224 <rtc_set_time+0x18>
  400222:	2700      	movs	r7, #0
  400224:	4c1c      	ldr	r4, [pc, #112]	; (400298 <rtc_set_time+0x8c>)
  400226:	fba4 5603 	umull	r5, r6, r4, r3
  40022a:	08f6      	lsrs	r6, r6, #3
  40022c:	eb06 0586 	add.w	r5, r6, r6, lsl #2
  400230:	eba3 0345 	sub.w	r3, r3, r5, lsl #1
  400234:	ea43 1306 	orr.w	r3, r3, r6, lsl #4
  400238:	fba4 6502 	umull	r6, r5, r4, r2
  40023c:	08ed      	lsrs	r5, r5, #3
  40023e:	ea43 3305 	orr.w	r3, r3, r5, lsl #12
  400242:	eb05 0585 	add.w	r5, r5, r5, lsl #2
  400246:	eba2 0545 	sub.w	r5, r2, r5, lsl #1
  40024a:	ea43 2305 	orr.w	r3, r3, r5, lsl #8
  40024e:	433b      	orrs	r3, r7
  400250:	fba4 4201 	umull	r4, r2, r4, r1
  400254:	08d2      	lsrs	r2, r2, #3
  400256:	ea43 5302 	orr.w	r3, r3, r2, lsl #20
  40025a:	eb02 0282 	add.w	r2, r2, r2, lsl #2
  40025e:	eba1 0142 	sub.w	r1, r1, r2, lsl #1
  400262:	ea43 4101 	orr.w	r1, r3, r1, lsl #16
  400266:	6983      	ldr	r3, [r0, #24]
  400268:	f013 0f04 	tst.w	r3, #4
  40026c:	d0fb      	beq.n	400266 <rtc_set_time+0x5a>
  40026e:	6803      	ldr	r3, [r0, #0]
  400270:	f043 0301 	orr.w	r3, r3, #1
  400274:	6003      	str	r3, [r0, #0]
  400276:	6983      	ldr	r3, [r0, #24]
  400278:	f013 0f01 	tst.w	r3, #1
  40027c:	d0fb      	beq.n	400276 <rtc_set_time+0x6a>
  40027e:	2301      	movs	r3, #1
  400280:	61c3      	str	r3, [r0, #28]
  400282:	6081      	str	r1, [r0, #8]
  400284:	6803      	ldr	r3, [r0, #0]
  400286:	f023 0301 	bic.w	r3, r3, #1
  40028a:	6003      	str	r3, [r0, #0]
  40028c:	6ac0      	ldr	r0, [r0, #44]	; 0x2c
  40028e:	f000 0001 	and.w	r0, r0, #1
  400292:	bcf0      	pop	{r4, r5, r6, r7}
  400294:	4770      	bx	lr
  400296:	bf00      	nop
  400298:	cccccccd 	.word	0xcccccccd

0040029c <rtc_set_time_alarm>:
  40029c:	b5f0      	push	{r4, r5, r6, r7, lr}
  40029e:	9c05      	ldr	r4, [sp, #20]
  4002a0:	9d06      	ldr	r5, [sp, #24]
  4002a2:	9f07      	ldr	r7, [sp, #28]
  4002a4:	460e      	mov	r6, r1
  4002a6:	b1b1      	cbz	r1, 4002d6 <rtc_set_time_alarm+0x3a>
  4002a8:	6841      	ldr	r1, [r0, #4]
  4002aa:	f011 0f01 	tst.w	r1, #1
  4002ae:	d005      	beq.n	4002bc <rtc_set_time_alarm+0x20>
  4002b0:	2a0c      	cmp	r2, #12
  4002b2:	d903      	bls.n	4002bc <rtc_set_time_alarm+0x20>
  4002b4:	3a0c      	subs	r2, #12
  4002b6:	f44f 0680 	mov.w	r6, #4194304	; 0x400000
  4002ba:	e000      	b.n	4002be <rtc_set_time_alarm+0x22>
  4002bc:	2600      	movs	r6, #0
  4002be:	4919      	ldr	r1, [pc, #100]	; (400324 <rtc_set_time_alarm+0x88>)
  4002c0:	fba1 e102 	umull	lr, r1, r1, r2
  4002c4:	08c9      	lsrs	r1, r1, #3
  4002c6:	eb01 0e81 	add.w	lr, r1, r1, lsl #2
  4002ca:	eba2 024e 	sub.w	r2, r2, lr, lsl #1
  4002ce:	0412      	lsls	r2, r2, #16
  4002d0:	ea42 5201 	orr.w	r2, r2, r1, lsl #20
  4002d4:	4316      	orrs	r6, r2
  4002d6:	b15b      	cbz	r3, 4002f0 <rtc_set_time_alarm+0x54>
  4002d8:	4b12      	ldr	r3, [pc, #72]	; (400324 <rtc_set_time_alarm+0x88>)
  4002da:	fba3 2304 	umull	r2, r3, r3, r4
  4002de:	08db      	lsrs	r3, r3, #3
  4002e0:	eb03 0283 	add.w	r2, r3, r3, lsl #2
  4002e4:	eba4 0442 	sub.w	r4, r4, r2, lsl #1
  4002e8:	0224      	lsls	r4, r4, #8
  4002ea:	ea44 3403 	orr.w	r4, r4, r3, lsl #12
  4002ee:	4326      	orrs	r6, r4
  4002f0:	b155      	cbz	r5, 400308 <rtc_set_time_alarm+0x6c>
  4002f2:	4b0c      	ldr	r3, [pc, #48]	; (400324 <rtc_set_time_alarm+0x88>)
  4002f4:	fba3 2307 	umull	r2, r3, r3, r7
  4002f8:	08db      	lsrs	r3, r3, #3
  4002fa:	eb03 0283 	add.w	r2, r3, r3, lsl #2
  4002fe:	eba7 0742 	sub.w	r7, r7, r2, lsl #1
  400302:	ea47 1303 	orr.w	r3, r7, r3, lsl #4
  400306:	431e      	orrs	r6, r3
  400308:	6902      	ldr	r2, [r0, #16]
  40030a:	4b07      	ldr	r3, [pc, #28]	; (400328 <rtc_set_time_alarm+0x8c>)
  40030c:	4013      	ands	r3, r2
  40030e:	6103      	str	r3, [r0, #16]
  400310:	6106      	str	r6, [r0, #16]
  400312:	6902      	ldr	r2, [r0, #16]
  400314:	4b05      	ldr	r3, [pc, #20]	; (40032c <rtc_set_time_alarm+0x90>)
  400316:	4313      	orrs	r3, r2
  400318:	6103      	str	r3, [r0, #16]
  40031a:	6ac0      	ldr	r0, [r0, #44]	; 0x2c
  40031c:	f000 0004 	and.w	r0, r0, #4
  400320:	bdf0      	pop	{r4, r5, r6, r7, pc}
  400322:	bf00      	nop
  400324:	cccccccd 	.word	0xcccccccd
  400328:	ff7f7f7f 	.word	0xff7f7f7f
  40032c:	00808080 	.word	0x00808080

00400330 <rtc_set_date>:
  400330:	b470      	push	{r4, r5, r6}
  400332:	4d2a      	ldr	r5, [pc, #168]	; (4003dc <rtc_set_date+0xac>)
  400334:	fba5 4603 	umull	r4, r6, r5, r3
  400338:	08f6      	lsrs	r6, r6, #3
  40033a:	9c03      	ldr	r4, [sp, #12]
  40033c:	0564      	lsls	r4, r4, #21
  40033e:	ea44 7406 	orr.w	r4, r4, r6, lsl #28
  400342:	eb06 0686 	add.w	r6, r6, r6, lsl #2
  400346:	eba3 0346 	sub.w	r3, r3, r6, lsl #1
  40034a:	ea44 6303 	orr.w	r3, r4, r3, lsl #24
  40034e:	fba5 6402 	umull	r6, r4, r5, r2
  400352:	08e4      	lsrs	r4, r4, #3
  400354:	ea43 5304 	orr.w	r3, r3, r4, lsl #20
  400358:	eb04 0484 	add.w	r4, r4, r4, lsl #2
  40035c:	eba2 0244 	sub.w	r2, r2, r4, lsl #1
  400360:	ea43 4202 	orr.w	r2, r3, r2, lsl #16
  400364:	4b1e      	ldr	r3, [pc, #120]	; (4003e0 <rtc_set_date+0xb0>)
  400366:	fba3 4301 	umull	r4, r3, r3, r1
  40036a:	099b      	lsrs	r3, r3, #6
  40036c:	ea42 1203 	orr.w	r2, r2, r3, lsl #4
  400370:	4b1c      	ldr	r3, [pc, #112]	; (4003e4 <rtc_set_date+0xb4>)
  400372:	fba3 4301 	umull	r4, r3, r3, r1
  400376:	095b      	lsrs	r3, r3, #5
  400378:	fba5 6403 	umull	r6, r4, r5, r3
  40037c:	08e4      	lsrs	r4, r4, #3
  40037e:	eb04 0484 	add.w	r4, r4, r4, lsl #2
  400382:	eba3 0344 	sub.w	r3, r3, r4, lsl #1
  400386:	431a      	orrs	r2, r3
  400388:	fba5 4301 	umull	r4, r3, r5, r1
  40038c:	08db      	lsrs	r3, r3, #3
  40038e:	eb03 0483 	add.w	r4, r3, r3, lsl #2
  400392:	eba1 0144 	sub.w	r1, r1, r4, lsl #1
  400396:	ea42 2201 	orr.w	r2, r2, r1, lsl #8
  40039a:	fba5 1503 	umull	r1, r5, r5, r3
  40039e:	08ed      	lsrs	r5, r5, #3
  4003a0:	eb05 0585 	add.w	r5, r5, r5, lsl #2
  4003a4:	eba3 0545 	sub.w	r5, r3, r5, lsl #1
  4003a8:	ea42 3205 	orr.w	r2, r2, r5, lsl #12
  4003ac:	6983      	ldr	r3, [r0, #24]
  4003ae:	f013 0f04 	tst.w	r3, #4
  4003b2:	d0fb      	beq.n	4003ac <rtc_set_date+0x7c>
  4003b4:	6803      	ldr	r3, [r0, #0]
  4003b6:	f043 0302 	orr.w	r3, r3, #2
  4003ba:	6003      	str	r3, [r0, #0]
  4003bc:	6983      	ldr	r3, [r0, #24]
  4003be:	f013 0f01 	tst.w	r3, #1
  4003c2:	d0fb      	beq.n	4003bc <rtc_set_date+0x8c>
  4003c4:	2301      	movs	r3, #1
  4003c6:	61c3      	str	r3, [r0, #28]
  4003c8:	60c2      	str	r2, [r0, #12]
  4003ca:	6803      	ldr	r3, [r0, #0]
  4003cc:	f023 0302 	bic.w	r3, r3, #2
  4003d0:	6003      	str	r3, [r0, #0]
  4003d2:	6ac0      	ldr	r0, [r0, #44]	; 0x2c
  4003d4:	f000 0002 	and.w	r0, r0, #2
  4003d8:	bc70      	pop	{r4, r5, r6}
  4003da:	4770      	bx	lr
  4003dc:	cccccccd 	.word	0xcccccccd
  4003e0:	10624dd3 	.word	0x10624dd3
  4003e4:	51eb851f 	.word	0x51eb851f

004003e8 <rtc_get_status>:
  4003e8:	6980      	ldr	r0, [r0, #24]
  4003ea:	4770      	bx	lr

004003ec <rtc_clear_status>:
  4003ec:	61c1      	str	r1, [r0, #28]
  4003ee:	4770      	bx	lr

004003f0 <spi_enable_clock>:
  4003f0:	b508      	push	{r3, lr}
  4003f2:	4b07      	ldr	r3, [pc, #28]	; (400410 <spi_enable_clock+0x20>)
  4003f4:	4298      	cmp	r0, r3
  4003f6:	d003      	beq.n	400400 <spi_enable_clock+0x10>
  4003f8:	4b06      	ldr	r3, [pc, #24]	; (400414 <spi_enable_clock+0x24>)
  4003fa:	4298      	cmp	r0, r3
  4003fc:	d004      	beq.n	400408 <spi_enable_clock+0x18>
  4003fe:	bd08      	pop	{r3, pc}
  400400:	2015      	movs	r0, #21
  400402:	4b05      	ldr	r3, [pc, #20]	; (400418 <spi_enable_clock+0x28>)
  400404:	4798      	blx	r3
  400406:	bd08      	pop	{r3, pc}
  400408:	202a      	movs	r0, #42	; 0x2a
  40040a:	4b03      	ldr	r3, [pc, #12]	; (400418 <spi_enable_clock+0x28>)
  40040c:	4798      	blx	r3
  40040e:	e7f6      	b.n	4003fe <spi_enable_clock+0xe>
  400410:	40008000 	.word	0x40008000
  400414:	40058000 	.word	0x40058000
  400418:	004012a5 	.word	0x004012a5

0040041c <spi_set_peripheral_chip_select_value>:
  40041c:	6843      	ldr	r3, [r0, #4]
  40041e:	f423 2370 	bic.w	r3, r3, #983040	; 0xf0000
  400422:	6043      	str	r3, [r0, #4]
  400424:	6843      	ldr	r3, [r0, #4]
  400426:	0409      	lsls	r1, r1, #16
  400428:	f401 2170 	and.w	r1, r1, #983040	; 0xf0000
  40042c:	4319      	orrs	r1, r3
  40042e:	6041      	str	r1, [r0, #4]
  400430:	4770      	bx	lr

00400432 <spi_write>:
  400432:	b430      	push	{r4, r5}
  400434:	f643 2499 	movw	r4, #15001	; 0x3a99
  400438:	6905      	ldr	r5, [r0, #16]
  40043a:	f015 0f02 	tst.w	r5, #2
  40043e:	d103      	bne.n	400448 <spi_write+0x16>
  400440:	3c01      	subs	r4, #1
  400442:	d1f9      	bne.n	400438 <spi_write+0x6>
  400444:	2001      	movs	r0, #1
  400446:	e00c      	b.n	400462 <spi_write+0x30>
  400448:	6844      	ldr	r4, [r0, #4]
  40044a:	f014 0f02 	tst.w	r4, #2
  40044e:	d006      	beq.n	40045e <spi_write+0x2c>
  400450:	0412      	lsls	r2, r2, #16
  400452:	f402 2270 	and.w	r2, r2, #983040	; 0xf0000
  400456:	4311      	orrs	r1, r2
  400458:	b10b      	cbz	r3, 40045e <spi_write+0x2c>
  40045a:	f041 7180 	orr.w	r1, r1, #16777216	; 0x1000000
  40045e:	60c1      	str	r1, [r0, #12]
  400460:	2000      	movs	r0, #0
  400462:	bc30      	pop	{r4, r5}
  400464:	4770      	bx	lr

00400466 <spi_set_clock_polarity>:
  400466:	b932      	cbnz	r2, 400476 <spi_set_clock_polarity+0x10>
  400468:	eb00 0081 	add.w	r0, r0, r1, lsl #2
  40046c:	6b03      	ldr	r3, [r0, #48]	; 0x30
  40046e:	f023 0301 	bic.w	r3, r3, #1
  400472:	6303      	str	r3, [r0, #48]	; 0x30
  400474:	4770      	bx	lr
  400476:	eb00 0081 	add.w	r0, r0, r1, lsl #2
  40047a:	6b03      	ldr	r3, [r0, #48]	; 0x30
  40047c:	f043 0301 	orr.w	r3, r3, #1
  400480:	6303      	str	r3, [r0, #48]	; 0x30
  400482:	4770      	bx	lr

00400484 <spi_set_clock_phase>:
  400484:	b932      	cbnz	r2, 400494 <spi_set_clock_phase+0x10>
  400486:	eb00 0081 	add.w	r0, r0, r1, lsl #2
  40048a:	6b03      	ldr	r3, [r0, #48]	; 0x30
  40048c:	f023 0302 	bic.w	r3, r3, #2
  400490:	6303      	str	r3, [r0, #48]	; 0x30
  400492:	4770      	bx	lr
  400494:	eb00 0081 	add.w	r0, r0, r1, lsl #2
  400498:	6b03      	ldr	r3, [r0, #48]	; 0x30
  40049a:	f043 0302 	orr.w	r3, r3, #2
  40049e:	6303      	str	r3, [r0, #48]	; 0x30
  4004a0:	4770      	bx	lr

004004a2 <spi_configure_cs_behavior>:
  4004a2:	2a04      	cmp	r2, #4
  4004a4:	d003      	beq.n	4004ae <spi_configure_cs_behavior+0xc>
  4004a6:	b16a      	cbz	r2, 4004c4 <spi_configure_cs_behavior+0x22>
  4004a8:	2a08      	cmp	r2, #8
  4004aa:	d016      	beq.n	4004da <spi_configure_cs_behavior+0x38>
  4004ac:	4770      	bx	lr
  4004ae:	eb00 0081 	add.w	r0, r0, r1, lsl #2
  4004b2:	6b03      	ldr	r3, [r0, #48]	; 0x30
  4004b4:	f023 0308 	bic.w	r3, r3, #8
  4004b8:	6303      	str	r3, [r0, #48]	; 0x30
  4004ba:	6b03      	ldr	r3, [r0, #48]	; 0x30
  4004bc:	f043 0304 	orr.w	r3, r3, #4
  4004c0:	6303      	str	r3, [r0, #48]	; 0x30
  4004c2:	4770      	bx	lr
  4004c4:	eb00 0081 	add.w	r0, r0, r1, lsl #2
  4004c8:	6b03      	ldr	r3, [r0, #48]	; 0x30
  4004ca:	f023 0308 	bic.w	r3, r3, #8
  4004ce:	6303      	str	r3, [r0, #48]	; 0x30
  4004d0:	6b03      	ldr	r3, [r0, #48]	; 0x30
  4004d2:	f023 0304 	bic.w	r3, r3, #4
  4004d6:	6303      	str	r3, [r0, #48]	; 0x30
  4004d8:	4770      	bx	lr
  4004da:	eb00 0081 	add.w	r0, r0, r1, lsl #2
  4004de:	6b03      	ldr	r3, [r0, #48]	; 0x30
  4004e0:	f043 0308 	orr.w	r3, r3, #8
  4004e4:	6303      	str	r3, [r0, #48]	; 0x30
  4004e6:	e7e1      	b.n	4004ac <spi_configure_cs_behavior+0xa>

004004e8 <spi_set_bits_per_transfer>:
  4004e8:	eb00 0181 	add.w	r1, r0, r1, lsl #2
  4004ec:	6b0b      	ldr	r3, [r1, #48]	; 0x30
  4004ee:	f023 03f0 	bic.w	r3, r3, #240	; 0xf0
  4004f2:	630b      	str	r3, [r1, #48]	; 0x30
  4004f4:	6b0b      	ldr	r3, [r1, #48]	; 0x30
  4004f6:	431a      	orrs	r2, r3
  4004f8:	630a      	str	r2, [r1, #48]	; 0x30
  4004fa:	4770      	bx	lr

004004fc <spi_calc_baudrate_div>:
  4004fc:	1e43      	subs	r3, r0, #1
  4004fe:	4419      	add	r1, r3
  400500:	fbb1 f0f0 	udiv	r0, r1, r0
  400504:	1e43      	subs	r3, r0, #1
  400506:	2bfe      	cmp	r3, #254	; 0xfe
  400508:	bf94      	ite	ls
  40050a:	b200      	sxthls	r0, r0
  40050c:	f04f 30ff 	movhi.w	r0, #4294967295
  400510:	4770      	bx	lr

00400512 <spi_set_baudrate_div>:
  400512:	b17a      	cbz	r2, 400534 <spi_set_baudrate_div+0x22>
  400514:	b410      	push	{r4}
  400516:	4614      	mov	r4, r2
  400518:	eb00 0181 	add.w	r1, r0, r1, lsl #2
  40051c:	6b0b      	ldr	r3, [r1, #48]	; 0x30
  40051e:	f423 437f 	bic.w	r3, r3, #65280	; 0xff00
  400522:	630b      	str	r3, [r1, #48]	; 0x30
  400524:	6b0a      	ldr	r2, [r1, #48]	; 0x30
  400526:	ea42 2204 	orr.w	r2, r2, r4, lsl #8
  40052a:	630a      	str	r2, [r1, #48]	; 0x30
  40052c:	2000      	movs	r0, #0
  40052e:	f85d 4b04 	ldr.w	r4, [sp], #4
  400532:	4770      	bx	lr
  400534:	f04f 30ff 	mov.w	r0, #4294967295
  400538:	4770      	bx	lr
	...

0040053c <gfx_mono_set_framebuffer>:
  40053c:	4b01      	ldr	r3, [pc, #4]	; (400544 <gfx_mono_set_framebuffer+0x8>)
  40053e:	6018      	str	r0, [r3, #0]
  400540:	4770      	bx	lr
  400542:	bf00      	nop
  400544:	204009ec 	.word	0x204009ec

00400548 <gfx_mono_framebuffer_put_byte>:
  400548:	4b02      	ldr	r3, [pc, #8]	; (400554 <gfx_mono_framebuffer_put_byte+0xc>)
  40054a:	681b      	ldr	r3, [r3, #0]
  40054c:	eb03 10c0 	add.w	r0, r3, r0, lsl #7
  400550:	5442      	strb	r2, [r0, r1]
  400552:	4770      	bx	lr
  400554:	204009ec 	.word	0x204009ec

00400558 <gfx_mono_framebuffer_get_byte>:
  400558:	4b02      	ldr	r3, [pc, #8]	; (400564 <gfx_mono_framebuffer_get_byte+0xc>)
  40055a:	681b      	ldr	r3, [r3, #0]
  40055c:	eb03 10c0 	add.w	r0, r3, r0, lsl #7
  400560:	5c40      	ldrb	r0, [r0, r1]
  400562:	4770      	bx	lr
  400564:	204009ec 	.word	0x204009ec

00400568 <gfx_mono_generic_draw_horizontal_line>:
  400568:	e92d 47f0 	stmdb	sp!, {r4, r5, r6, r7, r8, r9, sl, lr}
  40056c:	1884      	adds	r4, r0, r2
  40056e:	2c80      	cmp	r4, #128	; 0x80
  400570:	dd02      	ble.n	400578 <gfx_mono_generic_draw_horizontal_line+0x10>
  400572:	f1c0 0480 	rsb	r4, r0, #128	; 0x80
  400576:	b2e2      	uxtb	r2, r4
  400578:	b322      	cbz	r2, 4005c4 <gfx_mono_generic_draw_horizontal_line+0x5c>
  40057a:	08cd      	lsrs	r5, r1, #3
  40057c:	eba1 01c5 	sub.w	r1, r1, r5, lsl #3
  400580:	2601      	movs	r6, #1
  400582:	fa06 f101 	lsl.w	r1, r6, r1
  400586:	b2ce      	uxtb	r6, r1
  400588:	2b01      	cmp	r3, #1
  40058a:	d01d      	beq.n	4005c8 <gfx_mono_generic_draw_horizontal_line+0x60>
  40058c:	2b00      	cmp	r3, #0
  40058e:	d035      	beq.n	4005fc <gfx_mono_generic_draw_horizontal_line+0x94>
  400590:	2b02      	cmp	r3, #2
  400592:	d117      	bne.n	4005c4 <gfx_mono_generic_draw_horizontal_line+0x5c>
  400594:	3801      	subs	r0, #1
  400596:	b2c7      	uxtb	r7, r0
  400598:	19d4      	adds	r4, r2, r7
  40059a:	b2e4      	uxtb	r4, r4
  40059c:	f8df a090 	ldr.w	sl, [pc, #144]	; 400630 <gfx_mono_generic_draw_horizontal_line+0xc8>
  4005a0:	f04f 0900 	mov.w	r9, #0
  4005a4:	f8df 808c 	ldr.w	r8, [pc, #140]	; 400634 <gfx_mono_generic_draw_horizontal_line+0xcc>
  4005a8:	4621      	mov	r1, r4
  4005aa:	4628      	mov	r0, r5
  4005ac:	47d0      	blx	sl
  4005ae:	ea86 0200 	eor.w	r2, r6, r0
  4005b2:	464b      	mov	r3, r9
  4005b4:	b2d2      	uxtb	r2, r2
  4005b6:	4621      	mov	r1, r4
  4005b8:	4628      	mov	r0, r5
  4005ba:	47c0      	blx	r8
  4005bc:	3c01      	subs	r4, #1
  4005be:	b2e4      	uxtb	r4, r4
  4005c0:	42bc      	cmp	r4, r7
  4005c2:	d1f1      	bne.n	4005a8 <gfx_mono_generic_draw_horizontal_line+0x40>
  4005c4:	e8bd 87f0 	ldmia.w	sp!, {r4, r5, r6, r7, r8, r9, sl, pc}
  4005c8:	3801      	subs	r0, #1
  4005ca:	b2c7      	uxtb	r7, r0
  4005cc:	19d4      	adds	r4, r2, r7
  4005ce:	b2e4      	uxtb	r4, r4
  4005d0:	f8df a05c 	ldr.w	sl, [pc, #92]	; 400630 <gfx_mono_generic_draw_horizontal_line+0xc8>
  4005d4:	f04f 0900 	mov.w	r9, #0
  4005d8:	f8df 8058 	ldr.w	r8, [pc, #88]	; 400634 <gfx_mono_generic_draw_horizontal_line+0xcc>
  4005dc:	4621      	mov	r1, r4
  4005de:	4628      	mov	r0, r5
  4005e0:	47d0      	blx	sl
  4005e2:	ea46 0200 	orr.w	r2, r6, r0
  4005e6:	464b      	mov	r3, r9
  4005e8:	b2d2      	uxtb	r2, r2
  4005ea:	4621      	mov	r1, r4
  4005ec:	4628      	mov	r0, r5
  4005ee:	47c0      	blx	r8
  4005f0:	3c01      	subs	r4, #1
  4005f2:	b2e4      	uxtb	r4, r4
  4005f4:	42bc      	cmp	r4, r7
  4005f6:	d1f1      	bne.n	4005dc <gfx_mono_generic_draw_horizontal_line+0x74>
  4005f8:	e8bd 87f0 	ldmia.w	sp!, {r4, r5, r6, r7, r8, r9, sl, pc}
  4005fc:	3801      	subs	r0, #1
  4005fe:	b2c7      	uxtb	r7, r0
  400600:	19d4      	adds	r4, r2, r7
  400602:	b2e4      	uxtb	r4, r4
  400604:	f8df 8028 	ldr.w	r8, [pc, #40]	; 400630 <gfx_mono_generic_draw_horizontal_line+0xc8>
  400608:	43ce      	mvns	r6, r1
  40060a:	f8df 9028 	ldr.w	r9, [pc, #40]	; 400634 <gfx_mono_generic_draw_horizontal_line+0xcc>
  40060e:	4621      	mov	r1, r4
  400610:	4628      	mov	r0, r5
  400612:	47c0      	blx	r8
  400614:	ea06 0200 	and.w	r2, r6, r0
  400618:	2300      	movs	r3, #0
  40061a:	b2d2      	uxtb	r2, r2
  40061c:	4621      	mov	r1, r4
  40061e:	4628      	mov	r0, r5
  400620:	47c8      	blx	r9
  400622:	3c01      	subs	r4, #1
  400624:	b2e4      	uxtb	r4, r4
  400626:	42bc      	cmp	r4, r7
  400628:	d1f1      	bne.n	40060e <gfx_mono_generic_draw_horizontal_line+0xa6>
  40062a:	e8bd 87f0 	ldmia.w	sp!, {r4, r5, r6, r7, r8, r9, sl, pc}
  40062e:	bf00      	nop
  400630:	00400a39 	.word	0x00400a39
  400634:	00400921 	.word	0x00400921

00400638 <gfx_mono_generic_draw_vertical_line>:
  400638:	2a00      	cmp	r2, #0
  40063a:	d048      	beq.n	4006ce <gfx_mono_generic_draw_vertical_line+0x96>
  40063c:	e92d 47f0 	stmdb	sp!, {r4, r5, r6, r7, r8, r9, sl, lr}
  400640:	4614      	mov	r4, r2
  400642:	461f      	mov	r7, r3
  400644:	4606      	mov	r6, r0
  400646:	1e4a      	subs	r2, r1, #1
  400648:	4422      	add	r2, r4
  40064a:	b2d2      	uxtb	r2, r2
  40064c:	4291      	cmp	r1, r2
  40064e:	d031      	beq.n	4006b4 <gfx_mono_generic_draw_vertical_line+0x7c>
  400650:	2a1f      	cmp	r2, #31
  400652:	bf28      	it	cs
  400654:	221f      	movcs	r2, #31
  400656:	4615      	mov	r5, r2
  400658:	08cc      	lsrs	r4, r1, #3
  40065a:	ea4f 08d2 	mov.w	r8, r2, lsr #3
  40065e:	f001 0207 	and.w	r2, r1, #7
  400662:	23ff      	movs	r3, #255	; 0xff
  400664:	fa03 f202 	lsl.w	r2, r3, r2
  400668:	b2d2      	uxtb	r2, r2
  40066a:	f005 0507 	and.w	r5, r5, #7
  40066e:	f1c5 0507 	rsb	r5, r5, #7
  400672:	fa43 f505 	asr.w	r5, r3, r5
  400676:	b2ed      	uxtb	r5, r5
  400678:	4544      	cmp	r4, r8
  40067a:	d020      	beq.n	4006be <gfx_mono_generic_draw_vertical_line+0x86>
  40067c:	463b      	mov	r3, r7
  40067e:	4601      	mov	r1, r0
  400680:	4620      	mov	r0, r4
  400682:	f8df 904c 	ldr.w	r9, [pc, #76]	; 4006d0 <gfx_mono_generic_draw_vertical_line+0x98>
  400686:	47c8      	blx	r9
  400688:	3401      	adds	r4, #1
  40068a:	45a0      	cmp	r8, r4
  40068c:	d90a      	bls.n	4006a4 <gfx_mono_generic_draw_vertical_line+0x6c>
  40068e:	f04f 0aff 	mov.w	sl, #255	; 0xff
  400692:	463b      	mov	r3, r7
  400694:	4652      	mov	r2, sl
  400696:	4631      	mov	r1, r6
  400698:	4620      	mov	r0, r4
  40069a:	47c8      	blx	r9
  40069c:	3401      	adds	r4, #1
  40069e:	b2e4      	uxtb	r4, r4
  4006a0:	45a0      	cmp	r8, r4
  4006a2:	d8f6      	bhi.n	400692 <gfx_mono_generic_draw_vertical_line+0x5a>
  4006a4:	463b      	mov	r3, r7
  4006a6:	462a      	mov	r2, r5
  4006a8:	4631      	mov	r1, r6
  4006aa:	4640      	mov	r0, r8
  4006ac:	4c08      	ldr	r4, [pc, #32]	; (4006d0 <gfx_mono_generic_draw_vertical_line+0x98>)
  4006ae:	47a0      	blx	r4
  4006b0:	e8bd 87f0 	ldmia.w	sp!, {r4, r5, r6, r7, r8, r9, sl, pc}
  4006b4:	461a      	mov	r2, r3
  4006b6:	4b07      	ldr	r3, [pc, #28]	; (4006d4 <gfx_mono_generic_draw_vertical_line+0x9c>)
  4006b8:	4798      	blx	r3
  4006ba:	e8bd 87f0 	ldmia.w	sp!, {r4, r5, r6, r7, r8, r9, sl, pc}
  4006be:	463b      	mov	r3, r7
  4006c0:	402a      	ands	r2, r5
  4006c2:	4601      	mov	r1, r0
  4006c4:	4620      	mov	r0, r4
  4006c6:	4c02      	ldr	r4, [pc, #8]	; (4006d0 <gfx_mono_generic_draw_vertical_line+0x98>)
  4006c8:	47a0      	blx	r4
  4006ca:	e8bd 87f0 	ldmia.w	sp!, {r4, r5, r6, r7, r8, r9, sl, pc}
  4006ce:	4770      	bx	lr
  4006d0:	00400a45 	.word	0x00400a45
  4006d4:	004009c1 	.word	0x004009c1

004006d8 <gfx_mono_generic_draw_filled_rect>:
  4006d8:	e92d 43f8 	stmdb	sp!, {r3, r4, r5, r6, r7, r8, r9, lr}
  4006dc:	f89d 7020 	ldrb.w	r7, [sp, #32]
  4006e0:	b18b      	cbz	r3, 400706 <gfx_mono_generic_draw_filled_rect+0x2e>
  4006e2:	461c      	mov	r4, r3
  4006e4:	4690      	mov	r8, r2
  4006e6:	4606      	mov	r6, r0
  4006e8:	1e4d      	subs	r5, r1, #1
  4006ea:	b2ed      	uxtb	r5, r5
  4006ec:	442c      	add	r4, r5
  4006ee:	b2e4      	uxtb	r4, r4
  4006f0:	f8df 9018 	ldr.w	r9, [pc, #24]	; 40070c <gfx_mono_generic_draw_filled_rect+0x34>
  4006f4:	463b      	mov	r3, r7
  4006f6:	4642      	mov	r2, r8
  4006f8:	4621      	mov	r1, r4
  4006fa:	4630      	mov	r0, r6
  4006fc:	47c8      	blx	r9
  4006fe:	3c01      	subs	r4, #1
  400700:	b2e4      	uxtb	r4, r4
  400702:	42ac      	cmp	r4, r5
  400704:	d1f6      	bne.n	4006f4 <gfx_mono_generic_draw_filled_rect+0x1c>
  400706:	e8bd 83f8 	ldmia.w	sp!, {r3, r4, r5, r6, r7, r8, r9, pc}
  40070a:	bf00      	nop
  40070c:	00400569 	.word	0x00400569

00400710 <gfx_mono_generic_draw_filled_circle>:
  400710:	e92d 4ff0 	stmdb	sp!, {r4, r5, r6, r7, r8, r9, sl, fp, lr}
  400714:	b085      	sub	sp, #20
  400716:	4681      	mov	r9, r0
  400718:	9100      	str	r1, [sp, #0]
  40071a:	9301      	str	r3, [sp, #4]
  40071c:	f89d b038 	ldrb.w	fp, [sp, #56]	; 0x38
  400720:	b17a      	cbz	r2, 400742 <gfx_mono_generic_draw_filled_circle+0x32>
  400722:	4616      	mov	r6, r2
  400724:	0055      	lsls	r5, r2, #1
  400726:	f1c5 0503 	rsb	r5, r5, #3
  40072a:	2701      	movs	r7, #1
  40072c:	f04f 0800 	mov.w	r8, #0
  400730:	f00b 0303 	and.w	r3, fp, #3
  400734:	9302      	str	r3, [sp, #8]
  400736:	f8df a0f0 	ldr.w	sl, [pc, #240]	; 400828 <gfx_mono_generic_draw_filled_circle+0x118>
  40073a:	f00b 030c 	and.w	r3, fp, #12
  40073e:	9303      	str	r3, [sp, #12]
  400740:	e04d      	b.n	4007de <gfx_mono_generic_draw_filled_circle+0xce>
  400742:	461a      	mov	r2, r3
  400744:	4b37      	ldr	r3, [pc, #220]	; (400824 <gfx_mono_generic_draw_filled_circle+0x114>)
  400746:	4798      	blx	r3
  400748:	b005      	add	sp, #20
  40074a:	e8bd 8ff0 	ldmia.w	sp!, {r4, r5, r6, r7, r8, r9, sl, fp, pc}
  40074e:	9b00      	ldr	r3, [sp, #0]
  400750:	1b19      	subs	r1, r3, r4
  400752:	eb09 0006 	add.w	r0, r9, r6
  400756:	9b01      	ldr	r3, [sp, #4]
  400758:	463a      	mov	r2, r7
  40075a:	b2c9      	uxtb	r1, r1
  40075c:	b2c0      	uxtb	r0, r0
  40075e:	47d0      	blx	sl
  400760:	1c72      	adds	r2, r6, #1
  400762:	9900      	ldr	r1, [sp, #0]
  400764:	1b89      	subs	r1, r1, r6
  400766:	eb09 0004 	add.w	r0, r9, r4
  40076a:	9b01      	ldr	r3, [sp, #4]
  40076c:	b2d2      	uxtb	r2, r2
  40076e:	b2c9      	uxtb	r1, r1
  400770:	b2c0      	uxtb	r0, r0
  400772:	47d0      	blx	sl
  400774:	e038      	b.n	4007e8 <gfx_mono_generic_draw_filled_circle+0xd8>
  400776:	9b00      	ldr	r3, [sp, #0]
  400778:	1b19      	subs	r1, r3, r4
  40077a:	eba9 0006 	sub.w	r0, r9, r6
  40077e:	9b01      	ldr	r3, [sp, #4]
  400780:	463a      	mov	r2, r7
  400782:	b2c9      	uxtb	r1, r1
  400784:	b2c0      	uxtb	r0, r0
  400786:	47d0      	blx	sl
  400788:	1c72      	adds	r2, r6, #1
  40078a:	9900      	ldr	r1, [sp, #0]
  40078c:	1b89      	subs	r1, r1, r6
  40078e:	eba9 0004 	sub.w	r0, r9, r4
  400792:	9b01      	ldr	r3, [sp, #4]
  400794:	b2d2      	uxtb	r2, r2
  400796:	b2c9      	uxtb	r1, r1
  400798:	b2c0      	uxtb	r0, r0
  40079a:	47d0      	blx	sl
  40079c:	e027      	b.n	4007ee <gfx_mono_generic_draw_filled_circle+0xde>
  40079e:	eba9 0006 	sub.w	r0, r9, r6
  4007a2:	9b01      	ldr	r3, [sp, #4]
  4007a4:	463a      	mov	r2, r7
  4007a6:	9900      	ldr	r1, [sp, #0]
  4007a8:	b2c0      	uxtb	r0, r0
  4007aa:	47d0      	blx	sl
  4007ac:	1c72      	adds	r2, r6, #1
  4007ae:	eba9 0004 	sub.w	r0, r9, r4
  4007b2:	9b01      	ldr	r3, [sp, #4]
  4007b4:	b2d2      	uxtb	r2, r2
  4007b6:	9900      	ldr	r1, [sp, #0]
  4007b8:	b2c0      	uxtb	r0, r0
  4007ba:	47d0      	blx	sl
  4007bc:	e01a      	b.n	4007f4 <gfx_mono_generic_draw_filled_circle+0xe4>
  4007be:	2d00      	cmp	r5, #0
  4007c0:	db2b      	blt.n	40081a <gfx_mono_generic_draw_filled_circle+0x10a>
  4007c2:	1ba4      	subs	r4, r4, r6
  4007c4:	350a      	adds	r5, #10
  4007c6:	eb05 0484 	add.w	r4, r5, r4, lsl #2
  4007ca:	b225      	sxth	r5, r4
  4007cc:	3e01      	subs	r6, #1
  4007ce:	b2f6      	uxtb	r6, r6
  4007d0:	f108 0801 	add.w	r8, r8, #1
  4007d4:	1c7b      	adds	r3, r7, #1
  4007d6:	b2db      	uxtb	r3, r3
  4007d8:	42be      	cmp	r6, r7
  4007da:	d3b5      	bcc.n	400748 <gfx_mono_generic_draw_filled_circle+0x38>
  4007dc:	461f      	mov	r7, r3
  4007de:	fa5f f488 	uxtb.w	r4, r8
  4007e2:	9b02      	ldr	r3, [sp, #8]
  4007e4:	2b00      	cmp	r3, #0
  4007e6:	d1b2      	bne.n	40074e <gfx_mono_generic_draw_filled_circle+0x3e>
  4007e8:	9b03      	ldr	r3, [sp, #12]
  4007ea:	2b00      	cmp	r3, #0
  4007ec:	d1c3      	bne.n	400776 <gfx_mono_generic_draw_filled_circle+0x66>
  4007ee:	f01b 0f30 	tst.w	fp, #48	; 0x30
  4007f2:	d1d4      	bne.n	40079e <gfx_mono_generic_draw_filled_circle+0x8e>
  4007f4:	f01b 0fc0 	tst.w	fp, #192	; 0xc0
  4007f8:	d0e1      	beq.n	4007be <gfx_mono_generic_draw_filled_circle+0xae>
  4007fa:	eb09 0006 	add.w	r0, r9, r6
  4007fe:	9b01      	ldr	r3, [sp, #4]
  400800:	463a      	mov	r2, r7
  400802:	9900      	ldr	r1, [sp, #0]
  400804:	b2c0      	uxtb	r0, r0
  400806:	47d0      	blx	sl
  400808:	1c72      	adds	r2, r6, #1
  40080a:	eb09 0004 	add.w	r0, r9, r4
  40080e:	9b01      	ldr	r3, [sp, #4]
  400810:	b2d2      	uxtb	r2, r2
  400812:	9900      	ldr	r1, [sp, #0]
  400814:	b2c0      	uxtb	r0, r0
  400816:	47d0      	blx	sl
  400818:	e7d1      	b.n	4007be <gfx_mono_generic_draw_filled_circle+0xae>
  40081a:	3506      	adds	r5, #6
  40081c:	eb05 0584 	add.w	r5, r5, r4, lsl #2
  400820:	b22d      	sxth	r5, r5
  400822:	e7d5      	b.n	4007d0 <gfx_mono_generic_draw_filled_circle+0xc0>
  400824:	004009c1 	.word	0x004009c1
  400828:	00400639 	.word	0x00400639

0040082c <gfx_mono_draw_char>:
  40082c:	e92d 4ff0 	stmdb	sp!, {r4, r5, r6, r7, r8, r9, sl, fp, lr}
  400830:	b083      	sub	sp, #12
  400832:	4604      	mov	r4, r0
  400834:	4688      	mov	r8, r1
  400836:	4691      	mov	r9, r2
  400838:	469b      	mov	fp, r3
  40083a:	7a5b      	ldrb	r3, [r3, #9]
  40083c:	f89b 2008 	ldrb.w	r2, [fp, #8]
  400840:	2100      	movs	r1, #0
  400842:	9100      	str	r1, [sp, #0]
  400844:	4649      	mov	r1, r9
  400846:	4640      	mov	r0, r8
  400848:	4d21      	ldr	r5, [pc, #132]	; (4008d0 <gfx_mono_draw_char+0xa4>)
  40084a:	47a8      	blx	r5
  40084c:	f89b 3000 	ldrb.w	r3, [fp]
  400850:	b113      	cbz	r3, 400858 <gfx_mono_draw_char+0x2c>
  400852:	b003      	add	sp, #12
  400854:	e8bd 8ff0 	ldmia.w	sp!, {r4, r5, r6, r7, r8, r9, sl, fp, pc}
  400858:	f89b 2008 	ldrb.w	r2, [fp, #8]
  40085c:	08d3      	lsrs	r3, r2, #3
  40085e:	f012 0f07 	tst.w	r2, #7
  400862:	bf18      	it	ne
  400864:	3301      	addne	r3, #1
  400866:	f89b a009 	ldrb.w	sl, [fp, #9]
  40086a:	f89b 700a 	ldrb.w	r7, [fp, #10]
  40086e:	1be7      	subs	r7, r4, r7
  400870:	fb17 f70a 	smulbb	r7, r7, sl
  400874:	fb17 f703 	smulbb	r7, r7, r3
  400878:	f8db 3004 	ldr.w	r3, [fp, #4]
  40087c:	fa13 f787 	uxtah	r7, r3, r7
  400880:	e01f      	b.n	4008c2 <gfx_mono_draw_char+0x96>
  400882:	0064      	lsls	r4, r4, #1
  400884:	b2e4      	uxtb	r4, r4
  400886:	3501      	adds	r5, #1
  400888:	b2eb      	uxtb	r3, r5
  40088a:	429e      	cmp	r6, r3
  40088c:	d910      	bls.n	4008b0 <gfx_mono_draw_char+0x84>
  40088e:	b2eb      	uxtb	r3, r5
  400890:	eb08 0003 	add.w	r0, r8, r3
  400894:	b2c0      	uxtb	r0, r0
  400896:	f013 0f07 	tst.w	r3, #7
  40089a:	bf08      	it	eq
  40089c:	f817 4b01 	ldrbeq.w	r4, [r7], #1
  4008a0:	f014 0f80 	tst.w	r4, #128	; 0x80
  4008a4:	d0ed      	beq.n	400882 <gfx_mono_draw_char+0x56>
  4008a6:	2201      	movs	r2, #1
  4008a8:	4649      	mov	r1, r9
  4008aa:	4b0a      	ldr	r3, [pc, #40]	; (4008d4 <gfx_mono_draw_char+0xa8>)
  4008ac:	4798      	blx	r3
  4008ae:	e7e8      	b.n	400882 <gfx_mono_draw_char+0x56>
  4008b0:	f109 0901 	add.w	r9, r9, #1
  4008b4:	fa5f f989 	uxtb.w	r9, r9
  4008b8:	f10a 3aff 	add.w	sl, sl, #4294967295
  4008bc:	f01a 0aff 	ands.w	sl, sl, #255	; 0xff
  4008c0:	d0c7      	beq.n	400852 <gfx_mono_draw_char+0x26>
  4008c2:	f89b 6008 	ldrb.w	r6, [fp, #8]
  4008c6:	2e00      	cmp	r6, #0
  4008c8:	d0f2      	beq.n	4008b0 <gfx_mono_draw_char+0x84>
  4008ca:	2500      	movs	r5, #0
  4008cc:	462c      	mov	r4, r5
  4008ce:	e7de      	b.n	40088e <gfx_mono_draw_char+0x62>
  4008d0:	004006d9 	.word	0x004006d9
  4008d4:	004009c1 	.word	0x004009c1

004008d8 <gfx_mono_draw_string>:
  4008d8:	e92d 43f8 	stmdb	sp!, {r3, r4, r5, r6, r7, r8, r9, lr}
  4008dc:	4604      	mov	r4, r0
  4008de:	4690      	mov	r8, r2
  4008e0:	461d      	mov	r5, r3
  4008e2:	4689      	mov	r9, r1
  4008e4:	4f0d      	ldr	r7, [pc, #52]	; (40091c <gfx_mono_draw_string+0x44>)
  4008e6:	460e      	mov	r6, r1
  4008e8:	e008      	b.n	4008fc <gfx_mono_draw_string+0x24>
  4008ea:	7a6a      	ldrb	r2, [r5, #9]
  4008ec:	3201      	adds	r2, #1
  4008ee:	4442      	add	r2, r8
  4008f0:	fa5f f882 	uxtb.w	r8, r2
  4008f4:	46b1      	mov	r9, r6
  4008f6:	f814 3f01 	ldrb.w	r3, [r4, #1]!
  4008fa:	b16b      	cbz	r3, 400918 <gfx_mono_draw_string+0x40>
  4008fc:	7820      	ldrb	r0, [r4, #0]
  4008fe:	280a      	cmp	r0, #10
  400900:	d0f3      	beq.n	4008ea <gfx_mono_draw_string+0x12>
  400902:	280d      	cmp	r0, #13
  400904:	d0f7      	beq.n	4008f6 <gfx_mono_draw_string+0x1e>
  400906:	462b      	mov	r3, r5
  400908:	4642      	mov	r2, r8
  40090a:	4649      	mov	r1, r9
  40090c:	47b8      	blx	r7
  40090e:	7a2b      	ldrb	r3, [r5, #8]
  400910:	4499      	add	r9, r3
  400912:	fa5f f989 	uxtb.w	r9, r9
  400916:	e7ee      	b.n	4008f6 <gfx_mono_draw_string+0x1e>
  400918:	e8bd 83f8 	ldmia.w	sp!, {r3, r4, r5, r6, r7, r8, r9, pc}
  40091c:	0040082d 	.word	0x0040082d

00400920 <gfx_mono_ssd1306_put_byte>:
  400920:	b570      	push	{r4, r5, r6, lr}
  400922:	4604      	mov	r4, r0
  400924:	460d      	mov	r5, r1
  400926:	4616      	mov	r6, r2
  400928:	b91b      	cbnz	r3, 400932 <gfx_mono_ssd1306_put_byte+0x12>
  40092a:	4b0d      	ldr	r3, [pc, #52]	; (400960 <gfx_mono_ssd1306_put_byte+0x40>)
  40092c:	4798      	blx	r3
  40092e:	42b0      	cmp	r0, r6
  400930:	d015      	beq.n	40095e <gfx_mono_ssd1306_put_byte+0x3e>
  400932:	4632      	mov	r2, r6
  400934:	4629      	mov	r1, r5
  400936:	4620      	mov	r0, r4
  400938:	4b0a      	ldr	r3, [pc, #40]	; (400964 <gfx_mono_ssd1306_put_byte+0x44>)
  40093a:	4798      	blx	r3
  40093c:	f004 000f 	and.w	r0, r4, #15
  400940:	f040 00b0 	orr.w	r0, r0, #176	; 0xb0
  400944:	4c08      	ldr	r4, [pc, #32]	; (400968 <gfx_mono_ssd1306_put_byte+0x48>)
  400946:	47a0      	blx	r4
  400948:	f3c5 1002 	ubfx	r0, r5, #4, #3
  40094c:	f040 0010 	orr.w	r0, r0, #16
  400950:	47a0      	blx	r4
  400952:	f005 000f 	and.w	r0, r5, #15
  400956:	47a0      	blx	r4
  400958:	4630      	mov	r0, r6
  40095a:	4b04      	ldr	r3, [pc, #16]	; (40096c <gfx_mono_ssd1306_put_byte+0x4c>)
  40095c:	4798      	blx	r3
  40095e:	bd70      	pop	{r4, r5, r6, pc}
  400960:	00400559 	.word	0x00400559
  400964:	00400549 	.word	0x00400549
  400968:	00400a89 	.word	0x00400a89
  40096c:	00400ca9 	.word	0x00400ca9

00400970 <gfx_mono_ssd1306_init>:
  400970:	e92d 41f0 	stmdb	sp!, {r4, r5, r6, r7, r8, lr}
  400974:	480d      	ldr	r0, [pc, #52]	; (4009ac <gfx_mono_ssd1306_init+0x3c>)
  400976:	4b0e      	ldr	r3, [pc, #56]	; (4009b0 <gfx_mono_ssd1306_init+0x40>)
  400978:	4798      	blx	r3
  40097a:	4b0e      	ldr	r3, [pc, #56]	; (4009b4 <gfx_mono_ssd1306_init+0x44>)
  40097c:	4798      	blx	r3
  40097e:	2040      	movs	r0, #64	; 0x40
  400980:	4b0d      	ldr	r3, [pc, #52]	; (4009b8 <gfx_mono_ssd1306_init+0x48>)
  400982:	4798      	blx	r3
  400984:	2500      	movs	r5, #0
  400986:	f04f 0801 	mov.w	r8, #1
  40098a:	462f      	mov	r7, r5
  40098c:	4e0b      	ldr	r6, [pc, #44]	; (4009bc <gfx_mono_ssd1306_init+0x4c>)
  40098e:	2400      	movs	r4, #0
  400990:	4643      	mov	r3, r8
  400992:	463a      	mov	r2, r7
  400994:	b2e1      	uxtb	r1, r4
  400996:	4628      	mov	r0, r5
  400998:	47b0      	blx	r6
  40099a:	3401      	adds	r4, #1
  40099c:	2c80      	cmp	r4, #128	; 0x80
  40099e:	d1f7      	bne.n	400990 <gfx_mono_ssd1306_init+0x20>
  4009a0:	3501      	adds	r5, #1
  4009a2:	b2ed      	uxtb	r5, r5
  4009a4:	2d04      	cmp	r5, #4
  4009a6:	d1f2      	bne.n	40098e <gfx_mono_ssd1306_init+0x1e>
  4009a8:	e8bd 81f0 	ldmia.w	sp!, {r4, r5, r6, r7, r8, pc}
  4009ac:	204009f0 	.word	0x204009f0
  4009b0:	0040053d 	.word	0x0040053d
  4009b4:	00400ac9 	.word	0x00400ac9
  4009b8:	00400a89 	.word	0x00400a89
  4009bc:	00400921 	.word	0x00400921

004009c0 <gfx_mono_ssd1306_draw_pixel>:
  4009c0:	e92d 43f8 	stmdb	sp!, {r3, r4, r5, r6, r7, r8, r9, lr}
  4009c4:	09c3      	lsrs	r3, r0, #7
  4009c6:	d123      	bne.n	400a10 <gfx_mono_ssd1306_draw_pixel+0x50>
  4009c8:	291f      	cmp	r1, #31
  4009ca:	d821      	bhi.n	400a10 <gfx_mono_ssd1306_draw_pixel+0x50>
  4009cc:	4614      	mov	r4, r2
  4009ce:	4605      	mov	r5, r0
  4009d0:	08cf      	lsrs	r7, r1, #3
  4009d2:	eba1 01c7 	sub.w	r1, r1, r7, lsl #3
  4009d6:	2601      	movs	r6, #1
  4009d8:	fa06 f801 	lsl.w	r8, r6, r1
  4009dc:	fa5f f988 	uxtb.w	r9, r8
  4009e0:	4601      	mov	r1, r0
  4009e2:	4638      	mov	r0, r7
  4009e4:	4b11      	ldr	r3, [pc, #68]	; (400a2c <gfx_mono_ssd1306_draw_pixel+0x6c>)
  4009e6:	4798      	blx	r3
  4009e8:	4606      	mov	r6, r0
  4009ea:	f246 20c7 	movw	r0, #25287	; 0x62c7
  4009ee:	4b10      	ldr	r3, [pc, #64]	; (400a30 <gfx_mono_ssd1306_draw_pixel+0x70>)
  4009f0:	4798      	blx	r3
  4009f2:	2c01      	cmp	r4, #1
  4009f4:	d00e      	beq.n	400a14 <gfx_mono_ssd1306_draw_pixel+0x54>
  4009f6:	b18c      	cbz	r4, 400a1c <gfx_mono_ssd1306_draw_pixel+0x5c>
  4009f8:	2c02      	cmp	r4, #2
  4009fa:	d013      	beq.n	400a24 <gfx_mono_ssd1306_draw_pixel+0x64>
  4009fc:	2300      	movs	r3, #0
  4009fe:	4632      	mov	r2, r6
  400a00:	4629      	mov	r1, r5
  400a02:	4638      	mov	r0, r7
  400a04:	4c0b      	ldr	r4, [pc, #44]	; (400a34 <gfx_mono_ssd1306_draw_pixel+0x74>)
  400a06:	47a0      	blx	r4
  400a08:	f246 20c7 	movw	r0, #25287	; 0x62c7
  400a0c:	4b08      	ldr	r3, [pc, #32]	; (400a30 <gfx_mono_ssd1306_draw_pixel+0x70>)
  400a0e:	4798      	blx	r3
  400a10:	e8bd 83f8 	ldmia.w	sp!, {r3, r4, r5, r6, r7, r8, r9, pc}
  400a14:	ea49 0606 	orr.w	r6, r9, r6
  400a18:	b2f6      	uxtb	r6, r6
  400a1a:	e7ef      	b.n	4009fc <gfx_mono_ssd1306_draw_pixel+0x3c>
  400a1c:	ea26 0608 	bic.w	r6, r6, r8
  400a20:	b2f6      	uxtb	r6, r6
  400a22:	e7eb      	b.n	4009fc <gfx_mono_ssd1306_draw_pixel+0x3c>
  400a24:	ea89 0606 	eor.w	r6, r9, r6
  400a28:	b2f6      	uxtb	r6, r6
  400a2a:	e7e7      	b.n	4009fc <gfx_mono_ssd1306_draw_pixel+0x3c>
  400a2c:	00400559 	.word	0x00400559
  400a30:	20400001 	.word	0x20400001
  400a34:	00400921 	.word	0x00400921

00400a38 <gfx_mono_ssd1306_get_byte>:
  400a38:	b508      	push	{r3, lr}
  400a3a:	4b01      	ldr	r3, [pc, #4]	; (400a40 <gfx_mono_ssd1306_get_byte+0x8>)
  400a3c:	4798      	blx	r3
  400a3e:	bd08      	pop	{r3, pc}
  400a40:	00400559 	.word	0x00400559

00400a44 <gfx_mono_ssd1306_mask_byte>:
  400a44:	b5f8      	push	{r3, r4, r5, r6, r7, lr}
  400a46:	4605      	mov	r5, r0
  400a48:	460e      	mov	r6, r1
  400a4a:	4617      	mov	r7, r2
  400a4c:	461c      	mov	r4, r3
  400a4e:	4b0c      	ldr	r3, [pc, #48]	; (400a80 <gfx_mono_ssd1306_mask_byte+0x3c>)
  400a50:	4798      	blx	r3
  400a52:	4602      	mov	r2, r0
  400a54:	2c01      	cmp	r4, #1
  400a56:	d008      	beq.n	400a6a <gfx_mono_ssd1306_mask_byte+0x26>
  400a58:	b154      	cbz	r4, 400a70 <gfx_mono_ssd1306_mask_byte+0x2c>
  400a5a:	2c02      	cmp	r4, #2
  400a5c:	d00c      	beq.n	400a78 <gfx_mono_ssd1306_mask_byte+0x34>
  400a5e:	2300      	movs	r3, #0
  400a60:	4631      	mov	r1, r6
  400a62:	4628      	mov	r0, r5
  400a64:	4c07      	ldr	r4, [pc, #28]	; (400a84 <gfx_mono_ssd1306_mask_byte+0x40>)
  400a66:	47a0      	blx	r4
  400a68:	bdf8      	pop	{r3, r4, r5, r6, r7, pc}
  400a6a:	433a      	orrs	r2, r7
  400a6c:	b2d2      	uxtb	r2, r2
  400a6e:	e7f6      	b.n	400a5e <gfx_mono_ssd1306_mask_byte+0x1a>
  400a70:	ea20 0207 	bic.w	r2, r0, r7
  400a74:	b2d2      	uxtb	r2, r2
  400a76:	e7f2      	b.n	400a5e <gfx_mono_ssd1306_mask_byte+0x1a>
  400a78:	407a      	eors	r2, r7
  400a7a:	b2d2      	uxtb	r2, r2
  400a7c:	e7ef      	b.n	400a5e <gfx_mono_ssd1306_mask_byte+0x1a>
  400a7e:	bf00      	nop
  400a80:	00400559 	.word	0x00400559
  400a84:	00400921 	.word	0x00400921

00400a88 <ssd1306_write_command>:
  400a88:	b538      	push	{r3, r4, r5, lr}
  400a8a:	4605      	mov	r5, r0
  400a8c:	2208      	movs	r2, #8
  400a8e:	4b09      	ldr	r3, [pc, #36]	; (400ab4 <ssd1306_write_command+0x2c>)
  400a90:	635a      	str	r2, [r3, #52]	; 0x34
  400a92:	4c09      	ldr	r4, [pc, #36]	; (400ab8 <ssd1306_write_command+0x30>)
  400a94:	2101      	movs	r1, #1
  400a96:	4620      	mov	r0, r4
  400a98:	4b08      	ldr	r3, [pc, #32]	; (400abc <ssd1306_write_command+0x34>)
  400a9a:	4798      	blx	r3
  400a9c:	2301      	movs	r3, #1
  400a9e:	461a      	mov	r2, r3
  400aa0:	4629      	mov	r1, r5
  400aa2:	4620      	mov	r0, r4
  400aa4:	4c06      	ldr	r4, [pc, #24]	; (400ac0 <ssd1306_write_command+0x38>)
  400aa6:	47a0      	blx	r4
  400aa8:	f44f 70fd 	mov.w	r0, #506	; 0x1fa
  400aac:	4b05      	ldr	r3, [pc, #20]	; (400ac4 <ssd1306_write_command+0x3c>)
  400aae:	4798      	blx	r3
  400ab0:	bd38      	pop	{r3, r4, r5, pc}
  400ab2:	bf00      	nop
  400ab4:	400e1000 	.word	0x400e1000
  400ab8:	40008000 	.word	0x40008000
  400abc:	0040041d 	.word	0x0040041d
  400ac0:	00400433 	.word	0x00400433
  400ac4:	20400001 	.word	0x20400001

00400ac8 <ssd1306_init>:
  400ac8:	e92d 43f8 	stmdb	sp!, {r3, r4, r5, r6, r7, r8, r9, lr}
  400acc:	4d66      	ldr	r5, [pc, #408]	; (400c68 <ssd1306_init+0x1a0>)
  400ace:	f44f 3600 	mov.w	r6, #131072	; 0x20000
  400ad2:	612e      	str	r6, [r5, #16]
  400ad4:	f8c5 60a0 	str.w	r6, [r5, #160]	; 0xa0
  400ad8:	4b64      	ldr	r3, [pc, #400]	; (400c6c <ssd1306_init+0x1a4>)
  400ada:	2708      	movs	r7, #8
  400adc:	611f      	str	r7, [r3, #16]
  400ade:	f8c3 70a0 	str.w	r7, [r3, #160]	; 0xa0
  400ae2:	666e      	str	r6, [r5, #100]	; 0x64
  400ae4:	f8c5 6090 	str.w	r6, [r5, #144]	; 0x90
  400ae8:	656e      	str	r6, [r5, #84]	; 0x54
  400aea:	626e      	str	r6, [r5, #36]	; 0x24
  400aec:	f8c5 6080 	str.w	r6, [r5, #128]	; 0x80
  400af0:	6f2a      	ldr	r2, [r5, #112]	; 0x70
  400af2:	f422 3200 	bic.w	r2, r2, #131072	; 0x20000
  400af6:	672a      	str	r2, [r5, #112]	; 0x70
  400af8:	6f6a      	ldr	r2, [r5, #116]	; 0x74
  400afa:	f422 3200 	bic.w	r2, r2, #131072	; 0x20000
  400afe:	676a      	str	r2, [r5, #116]	; 0x74
  400b00:	665f      	str	r7, [r3, #100]	; 0x64
  400b02:	f8c3 7090 	str.w	r7, [r3, #144]	; 0x90
  400b06:	655f      	str	r7, [r3, #84]	; 0x54
  400b08:	625f      	str	r7, [r3, #36]	; 0x24
  400b0a:	f8c3 7080 	str.w	r7, [r3, #128]	; 0x80
  400b0e:	6f1a      	ldr	r2, [r3, #112]	; 0x70
  400b10:	f022 0208 	bic.w	r2, r2, #8
  400b14:	671a      	str	r2, [r3, #112]	; 0x70
  400b16:	6f5a      	ldr	r2, [r3, #116]	; 0x74
  400b18:	f022 0208 	bic.w	r2, r2, #8
  400b1c:	675a      	str	r2, [r3, #116]	; 0x74
  400b1e:	601f      	str	r7, [r3, #0]
  400b20:	602e      	str	r6, [r5, #0]
  400b22:	631f      	str	r7, [r3, #48]	; 0x30
  400b24:	632e      	str	r6, [r5, #48]	; 0x30
  400b26:	f8df 817c 	ldr.w	r8, [pc, #380]	; 400ca4 <ssd1306_init+0x1dc>
  400b2a:	2300      	movs	r3, #0
  400b2c:	f44f 0280 	mov.w	r2, #4194304	; 0x400000
  400b30:	f04f 5180 	mov.w	r1, #268435456	; 0x10000000
  400b34:	4640      	mov	r0, r8
  400b36:	4c4e      	ldr	r4, [pc, #312]	; (400c70 <ssd1306_init+0x1a8>)
  400b38:	47a0      	blx	r4
  400b3a:	2300      	movs	r3, #0
  400b3c:	f44f 1200 	mov.w	r2, #2097152	; 0x200000
  400b40:	f04f 5180 	mov.w	r1, #268435456	; 0x10000000
  400b44:	4640      	mov	r0, r8
  400b46:	47a0      	blx	r4
  400b48:	2300      	movs	r3, #0
  400b4a:	f04f 7200 	mov.w	r2, #33554432	; 0x2000000
  400b4e:	f04f 5180 	mov.w	r1, #268435456	; 0x10000000
  400b52:	4640      	mov	r0, r8
  400b54:	47a0      	blx	r4
  400b56:	2300      	movs	r3, #0
  400b58:	f44f 0280 	mov.w	r2, #4194304	; 0x400000
  400b5c:	f04f 5180 	mov.w	r1, #268435456	; 0x10000000
  400b60:	4640      	mov	r0, r8
  400b62:	47a0      	blx	r4
  400b64:	2300      	movs	r3, #0
  400b66:	f44f 1200 	mov.w	r2, #2097152	; 0x200000
  400b6a:	f04f 5180 	mov.w	r1, #268435456	; 0x10000000
  400b6e:	4640      	mov	r0, r8
  400b70:	47a0      	blx	r4
  400b72:	2300      	movs	r3, #0
  400b74:	f04f 7200 	mov.w	r2, #33554432	; 0x2000000
  400b78:	f04f 5180 	mov.w	r1, #268435456	; 0x10000000
  400b7c:	4640      	mov	r0, r8
  400b7e:	47a0      	blx	r4
  400b80:	4c3c      	ldr	r4, [pc, #240]	; (400c74 <ssd1306_init+0x1ac>)
  400b82:	f04f 0902 	mov.w	r9, #2
  400b86:	f8c4 9000 	str.w	r9, [r4]
  400b8a:	f04f 0880 	mov.w	r8, #128	; 0x80
  400b8e:	f8c4 8000 	str.w	r8, [r4]
  400b92:	6863      	ldr	r3, [r4, #4]
  400b94:	f043 0301 	orr.w	r3, r3, #1
  400b98:	6063      	str	r3, [r4, #4]
  400b9a:	463a      	mov	r2, r7
  400b9c:	2101      	movs	r1, #1
  400b9e:	4620      	mov	r0, r4
  400ba0:	4b35      	ldr	r3, [pc, #212]	; (400c78 <ssd1306_init+0x1b0>)
  400ba2:	4798      	blx	r3
  400ba4:	2200      	movs	r2, #0
  400ba6:	2101      	movs	r1, #1
  400ba8:	4620      	mov	r0, r4
  400baa:	4b34      	ldr	r3, [pc, #208]	; (400c7c <ssd1306_init+0x1b4>)
  400bac:	4798      	blx	r3
  400bae:	2200      	movs	r2, #0
  400bb0:	2101      	movs	r1, #1
  400bb2:	4620      	mov	r0, r4
  400bb4:	4b32      	ldr	r3, [pc, #200]	; (400c80 <ssd1306_init+0x1b8>)
  400bb6:	4798      	blx	r3
  400bb8:	6863      	ldr	r3, [r4, #4]
  400bba:	f023 0302 	bic.w	r3, r3, #2
  400bbe:	6063      	str	r3, [r4, #4]
  400bc0:	2200      	movs	r2, #0
  400bc2:	2101      	movs	r1, #1
  400bc4:	4620      	mov	r0, r4
  400bc6:	4b2f      	ldr	r3, [pc, #188]	; (400c84 <ssd1306_init+0x1bc>)
  400bc8:	4798      	blx	r3
  400bca:	6863      	ldr	r3, [r4, #4]
  400bcc:	f023 0380 	bic.w	r3, r3, #128	; 0x80
  400bd0:	6063      	str	r3, [r4, #4]
  400bd2:	6863      	ldr	r3, [r4, #4]
  400bd4:	f043 0310 	orr.w	r3, r3, #16
  400bd8:	6063      	str	r3, [r4, #4]
  400bda:	492b      	ldr	r1, [pc, #172]	; (400c88 <ssd1306_init+0x1c0>)
  400bdc:	482b      	ldr	r0, [pc, #172]	; (400c8c <ssd1306_init+0x1c4>)
  400bde:	4b2c      	ldr	r3, [pc, #176]	; (400c90 <ssd1306_init+0x1c8>)
  400be0:	4798      	blx	r3
  400be2:	b2c2      	uxtb	r2, r0
  400be4:	2101      	movs	r1, #1
  400be6:	4620      	mov	r0, r4
  400be8:	4b2a      	ldr	r3, [pc, #168]	; (400c94 <ssd1306_init+0x1cc>)
  400bea:	4798      	blx	r3
  400bec:	4620      	mov	r0, r4
  400bee:	4b2a      	ldr	r3, [pc, #168]	; (400c98 <ssd1306_init+0x1d0>)
  400bf0:	4798      	blx	r3
  400bf2:	2301      	movs	r3, #1
  400bf4:	6023      	str	r3, [r4, #0]
  400bf6:	636e      	str	r6, [r5, #52]	; 0x34
  400bf8:	f640 30b8 	movw	r0, #3000	; 0xbb8
  400bfc:	4c27      	ldr	r4, [pc, #156]	; (400c9c <ssd1306_init+0x1d4>)
  400bfe:	47a0      	blx	r4
  400c00:	632e      	str	r6, [r5, #48]	; 0x30
  400c02:	f640 30b8 	movw	r0, #3000	; 0xbb8
  400c06:	47a0      	blx	r4
  400c08:	632e      	str	r6, [r5, #48]	; 0x30
  400c0a:	20a8      	movs	r0, #168	; 0xa8
  400c0c:	4c24      	ldr	r4, [pc, #144]	; (400ca0 <ssd1306_init+0x1d8>)
  400c0e:	47a0      	blx	r4
  400c10:	201f      	movs	r0, #31
  400c12:	47a0      	blx	r4
  400c14:	20d3      	movs	r0, #211	; 0xd3
  400c16:	47a0      	blx	r4
  400c18:	2000      	movs	r0, #0
  400c1a:	47a0      	blx	r4
  400c1c:	2040      	movs	r0, #64	; 0x40
  400c1e:	47a0      	blx	r4
  400c20:	20a1      	movs	r0, #161	; 0xa1
  400c22:	47a0      	blx	r4
  400c24:	20c8      	movs	r0, #200	; 0xc8
  400c26:	47a0      	blx	r4
  400c28:	20da      	movs	r0, #218	; 0xda
  400c2a:	47a0      	blx	r4
  400c2c:	4648      	mov	r0, r9
  400c2e:	47a0      	blx	r4
  400c30:	2081      	movs	r0, #129	; 0x81
  400c32:	47a0      	blx	r4
  400c34:	208f      	movs	r0, #143	; 0x8f
  400c36:	47a0      	blx	r4
  400c38:	20a4      	movs	r0, #164	; 0xa4
  400c3a:	47a0      	blx	r4
  400c3c:	20a6      	movs	r0, #166	; 0xa6
  400c3e:	47a0      	blx	r4
  400c40:	20d5      	movs	r0, #213	; 0xd5
  400c42:	47a0      	blx	r4
  400c44:	4640      	mov	r0, r8
  400c46:	47a0      	blx	r4
  400c48:	208d      	movs	r0, #141	; 0x8d
  400c4a:	47a0      	blx	r4
  400c4c:	2014      	movs	r0, #20
  400c4e:	47a0      	blx	r4
  400c50:	20db      	movs	r0, #219	; 0xdb
  400c52:	47a0      	blx	r4
  400c54:	2040      	movs	r0, #64	; 0x40
  400c56:	47a0      	blx	r4
  400c58:	20d9      	movs	r0, #217	; 0xd9
  400c5a:	47a0      	blx	r4
  400c5c:	20f1      	movs	r0, #241	; 0xf1
  400c5e:	47a0      	blx	r4
  400c60:	20af      	movs	r0, #175	; 0xaf
  400c62:	47a0      	blx	r4
  400c64:	e8bd 83f8 	ldmia.w	sp!, {r3, r4, r5, r6, r7, r8, r9, pc}
  400c68:	400e1200 	.word	0x400e1200
  400c6c:	400e1000 	.word	0x400e1000
  400c70:	00400f91 	.word	0x00400f91
  400c74:	40008000 	.word	0x40008000
  400c78:	004004a3 	.word	0x004004a3
  400c7c:	00400467 	.word	0x00400467
  400c80:	00400485 	.word	0x00400485
  400c84:	004004e9 	.word	0x004004e9
  400c88:	08f0d180 	.word	0x08f0d180
  400c8c:	000f4240 	.word	0x000f4240
  400c90:	004004fd 	.word	0x004004fd
  400c94:	00400513 	.word	0x00400513
  400c98:	004003f1 	.word	0x004003f1
  400c9c:	20400001 	.word	0x20400001
  400ca0:	00400a89 	.word	0x00400a89
  400ca4:	400e1400 	.word	0x400e1400

00400ca8 <ssd1306_write_data>:
  400ca8:	b538      	push	{r3, r4, r5, lr}
  400caa:	4605      	mov	r5, r0
  400cac:	2208      	movs	r2, #8
  400cae:	4b09      	ldr	r3, [pc, #36]	; (400cd4 <ssd1306_write_data+0x2c>)
  400cb0:	631a      	str	r2, [r3, #48]	; 0x30
  400cb2:	4c09      	ldr	r4, [pc, #36]	; (400cd8 <ssd1306_write_data+0x30>)
  400cb4:	2101      	movs	r1, #1
  400cb6:	4620      	mov	r0, r4
  400cb8:	4b08      	ldr	r3, [pc, #32]	; (400cdc <ssd1306_write_data+0x34>)
  400cba:	4798      	blx	r3
  400cbc:	2301      	movs	r3, #1
  400cbe:	461a      	mov	r2, r3
  400cc0:	4629      	mov	r1, r5
  400cc2:	4620      	mov	r0, r4
  400cc4:	4c06      	ldr	r4, [pc, #24]	; (400ce0 <ssd1306_write_data+0x38>)
  400cc6:	47a0      	blx	r4
  400cc8:	f44f 70fd 	mov.w	r0, #506	; 0x1fa
  400ccc:	4b05      	ldr	r3, [pc, #20]	; (400ce4 <ssd1306_write_data+0x3c>)
  400cce:	4798      	blx	r3
  400cd0:	bd38      	pop	{r3, r4, r5, pc}
  400cd2:	bf00      	nop
  400cd4:	400e1000 	.word	0x400e1000
  400cd8:	40008000 	.word	0x40008000
  400cdc:	0040041d 	.word	0x0040041d
  400ce0:	00400433 	.word	0x00400433
  400ce4:	20400001 	.word	0x20400001

00400ce8 <sysclk_init>:
  400ce8:	b510      	push	{r4, lr}
  400cea:	4810      	ldr	r0, [pc, #64]	; (400d2c <sysclk_init+0x44>)
  400cec:	4b10      	ldr	r3, [pc, #64]	; (400d30 <sysclk_init+0x48>)
  400cee:	4798      	blx	r3
  400cf0:	213e      	movs	r1, #62	; 0x3e
  400cf2:	2000      	movs	r0, #0
  400cf4:	4b0f      	ldr	r3, [pc, #60]	; (400d34 <sysclk_init+0x4c>)
  400cf6:	4798      	blx	r3
  400cf8:	4c0f      	ldr	r4, [pc, #60]	; (400d38 <sysclk_init+0x50>)
  400cfa:	47a0      	blx	r4
  400cfc:	2800      	cmp	r0, #0
  400cfe:	d0fc      	beq.n	400cfa <sysclk_init+0x12>
  400d00:	4b0e      	ldr	r3, [pc, #56]	; (400d3c <sysclk_init+0x54>)
  400d02:	4798      	blx	r3
  400d04:	4a0e      	ldr	r2, [pc, #56]	; (400d40 <sysclk_init+0x58>)
  400d06:	4b0f      	ldr	r3, [pc, #60]	; (400d44 <sysclk_init+0x5c>)
  400d08:	629a      	str	r2, [r3, #40]	; 0x28
  400d0a:	4c0f      	ldr	r4, [pc, #60]	; (400d48 <sysclk_init+0x60>)
  400d0c:	47a0      	blx	r4
  400d0e:	2800      	cmp	r0, #0
  400d10:	d0fc      	beq.n	400d0c <sysclk_init+0x24>
  400d12:	2002      	movs	r0, #2
  400d14:	4b0d      	ldr	r3, [pc, #52]	; (400d4c <sysclk_init+0x64>)
  400d16:	4798      	blx	r3
  400d18:	2000      	movs	r0, #0
  400d1a:	4b0d      	ldr	r3, [pc, #52]	; (400d50 <sysclk_init+0x68>)
  400d1c:	4798      	blx	r3
  400d1e:	4b0d      	ldr	r3, [pc, #52]	; (400d54 <sysclk_init+0x6c>)
  400d20:	4798      	blx	r3
  400d22:	4802      	ldr	r0, [pc, #8]	; (400d2c <sysclk_init+0x44>)
  400d24:	4b02      	ldr	r3, [pc, #8]	; (400d30 <sysclk_init+0x48>)
  400d26:	4798      	blx	r3
  400d28:	bd10      	pop	{r4, pc}
  400d2a:	bf00      	nop
  400d2c:	11e1a300 	.word	0x11e1a300
  400d30:	004014d1 	.word	0x004014d1
  400d34:	00401221 	.word	0x00401221
  400d38:	00401275 	.word	0x00401275
  400d3c:	00401285 	.word	0x00401285
  400d40:	20183f01 	.word	0x20183f01
  400d44:	400e0600 	.word	0x400e0600
  400d48:	00401295 	.word	0x00401295
  400d4c:	00401185 	.word	0x00401185
  400d50:	004011bd 	.word	0x004011bd
  400d54:	004013c5 	.word	0x004013c5

00400d58 <board_init>:
  400d58:	b5f8      	push	{r3, r4, r5, r6, r7, lr}
  400d5a:	f44f 4200 	mov.w	r2, #32768	; 0x8000
  400d5e:	4b48      	ldr	r3, [pc, #288]	; (400e80 <board_init+0x128>)
  400d60:	605a      	str	r2, [r3, #4]
  400d62:	f3bf 8f4f 	dsb	sy
  400d66:	f3bf 8f6f 	isb	sy
  400d6a:	4b46      	ldr	r3, [pc, #280]	; (400e84 <board_init+0x12c>)
  400d6c:	2200      	movs	r2, #0
  400d6e:	f8c3 2250 	str.w	r2, [r3, #592]	; 0x250
  400d72:	695a      	ldr	r2, [r3, #20]
  400d74:	f442 3200 	orr.w	r2, r2, #131072	; 0x20000
  400d78:	615a      	str	r2, [r3, #20]
  400d7a:	f3bf 8f4f 	dsb	sy
  400d7e:	f3bf 8f6f 	isb	sy
  400d82:	f8d3 7080 	ldr.w	r7, [r3, #128]	; 0x80
  400d86:	f3c7 364e 	ubfx	r6, r7, #13, #15
  400d8a:	f007 0007 	and.w	r0, r7, #7
  400d8e:	3004      	adds	r0, #4
  400d90:	f3c7 07c9 	ubfx	r7, r7, #3, #10
  400d94:	fab7 fe87 	clz	lr, r7
  400d98:	f00e 0e1f 	and.w	lr, lr, #31
  400d9c:	f3bf 8f4f 	dsb	sy
  400da0:	f04f 34ff 	mov.w	r4, #4294967295
  400da4:	fa04 fc00 	lsl.w	ip, r4, r0
  400da8:	fa06 f000 	lsl.w	r0, r6, r0
  400dac:	fa04 f40e 	lsl.w	r4, r4, lr
  400db0:	fa07 fe0e 	lsl.w	lr, r7, lr
  400db4:	461d      	mov	r5, r3
  400db6:	463a      	mov	r2, r7
  400db8:	4673      	mov	r3, lr
  400dba:	ea40 0103 	orr.w	r1, r0, r3
  400dbe:	f8c5 1260 	str.w	r1, [r5, #608]	; 0x260
  400dc2:	3a01      	subs	r2, #1
  400dc4:	4423      	add	r3, r4
  400dc6:	f1b2 3fff 	cmp.w	r2, #4294967295
  400dca:	d1f6      	bne.n	400dba <board_init+0x62>
  400dcc:	3e01      	subs	r6, #1
  400dce:	4460      	add	r0, ip
  400dd0:	f1b6 3fff 	cmp.w	r6, #4294967295
  400dd4:	d1ef      	bne.n	400db6 <board_init+0x5e>
  400dd6:	f3bf 8f4f 	dsb	sy
  400dda:	4b2a      	ldr	r3, [pc, #168]	; (400e84 <board_init+0x12c>)
  400ddc:	695a      	ldr	r2, [r3, #20]
  400dde:	f442 3280 	orr.w	r2, r2, #65536	; 0x10000
  400de2:	615a      	str	r2, [r3, #20]
  400de4:	f3bf 8f4f 	dsb	sy
  400de8:	f3bf 8f6f 	isb	sy
  400dec:	4a26      	ldr	r2, [pc, #152]	; (400e88 <board_init+0x130>)
  400dee:	4927      	ldr	r1, [pc, #156]	; (400e8c <board_init+0x134>)
  400df0:	6051      	str	r1, [r2, #4]
  400df2:	f5a1 7180 	sub.w	r1, r1, #256	; 0x100
  400df6:	6051      	str	r1, [r2, #4]
  400df8:	f3bf 8f4f 	dsb	sy
  400dfc:	f3bf 8f6f 	isb	sy
  400e00:	f8d3 2290 	ldr.w	r2, [r3, #656]	; 0x290
  400e04:	f022 0201 	bic.w	r2, r2, #1
  400e08:	f8c3 2290 	str.w	r2, [r3, #656]	; 0x290
  400e0c:	f8d3 2294 	ldr.w	r2, [r3, #660]	; 0x294
  400e10:	f022 0201 	bic.w	r2, r2, #1
  400e14:	f8c3 2294 	str.w	r2, [r3, #660]	; 0x294
  400e18:	f3bf 8f4f 	dsb	sy
  400e1c:	f3bf 8f6f 	isb	sy
  400e20:	200a      	movs	r0, #10
  400e22:	4c1b      	ldr	r4, [pc, #108]	; (400e90 <board_init+0x138>)
  400e24:	47a0      	blx	r4
  400e26:	200b      	movs	r0, #11
  400e28:	47a0      	blx	r4
  400e2a:	200c      	movs	r0, #12
  400e2c:	47a0      	blx	r4
  400e2e:	2010      	movs	r0, #16
  400e30:	47a0      	blx	r4
  400e32:	2011      	movs	r0, #17
  400e34:	47a0      	blx	r4
  400e36:	4b17      	ldr	r3, [pc, #92]	; (400e94 <board_init+0x13c>)
  400e38:	f44f 7280 	mov.w	r2, #256	; 0x100
  400e3c:	611a      	str	r2, [r3, #16]
  400e3e:	f8c3 20a0 	str.w	r2, [r3, #160]	; 0xa0
  400e42:	631a      	str	r2, [r3, #48]	; 0x30
  400e44:	f5a3 6380 	sub.w	r3, r3, #1024	; 0x400
  400e48:	f44f 6200 	mov.w	r2, #2048	; 0x800
  400e4c:	615a      	str	r2, [r3, #20]
  400e4e:	f8c3 20a0 	str.w	r2, [r3, #160]	; 0xa0
  400e52:	665a      	str	r2, [r3, #100]	; 0x64
  400e54:	f8c3 2090 	str.w	r2, [r3, #144]	; 0x90
  400e58:	655a      	str	r2, [r3, #84]	; 0x54
  400e5a:	621a      	str	r2, [r3, #32]
  400e5c:	f8c3 2084 	str.w	r2, [r3, #132]	; 0x84
  400e60:	6f19      	ldr	r1, [r3, #112]	; 0x70
  400e62:	f421 6100 	bic.w	r1, r1, #2048	; 0x800
  400e66:	6719      	str	r1, [r3, #112]	; 0x70
  400e68:	6f59      	ldr	r1, [r3, #116]	; 0x74
  400e6a:	f421 6100 	bic.w	r1, r1, #2048	; 0x800
  400e6e:	6759      	str	r1, [r3, #116]	; 0x74
  400e70:	f8c3 20c0 	str.w	r2, [r3, #192]	; 0xc0
  400e74:	f8c3 20d4 	str.w	r2, [r3, #212]	; 0xd4
  400e78:	f8c3 20b0 	str.w	r2, [r3, #176]	; 0xb0
  400e7c:	bdf8      	pop	{r3, r4, r5, r6, r7, pc}
  400e7e:	bf00      	nop
  400e80:	400e1850 	.word	0x400e1850
  400e84:	e000ed00 	.word	0xe000ed00
  400e88:	400e0c00 	.word	0x400e0c00
  400e8c:	5a00080c 	.word	0x5a00080c
  400e90:	004012a5 	.word	0x004012a5
  400e94:	400e1200 	.word	0x400e1200

00400e98 <pio_set>:
  400e98:	6301      	str	r1, [r0, #48]	; 0x30
  400e9a:	4770      	bx	lr

00400e9c <pio_clear>:
  400e9c:	6341      	str	r1, [r0, #52]	; 0x34
  400e9e:	4770      	bx	lr

00400ea0 <pio_set_peripheral>:
  400ea0:	6442      	str	r2, [r0, #68]	; 0x44
  400ea2:	f1b1 5fc0 	cmp.w	r1, #402653184	; 0x18000000
  400ea6:	d03a      	beq.n	400f1e <pio_set_peripheral+0x7e>
  400ea8:	d813      	bhi.n	400ed2 <pio_set_peripheral+0x32>
  400eaa:	f1b1 6f00 	cmp.w	r1, #134217728	; 0x8000000
  400eae:	d025      	beq.n	400efc <pio_set_peripheral+0x5c>
  400eb0:	f1b1 5f80 	cmp.w	r1, #268435456	; 0x10000000
  400eb4:	d10a      	bne.n	400ecc <pio_set_peripheral+0x2c>
  400eb6:	6f03      	ldr	r3, [r0, #112]	; 0x70
  400eb8:	4313      	orrs	r3, r2
  400eba:	6703      	str	r3, [r0, #112]	; 0x70
  400ebc:	6f43      	ldr	r3, [r0, #116]	; 0x74
  400ebe:	6f41      	ldr	r1, [r0, #116]	; 0x74
  400ec0:	400b      	ands	r3, r1
  400ec2:	ea23 0302 	bic.w	r3, r3, r2
  400ec6:	6743      	str	r3, [r0, #116]	; 0x74
  400ec8:	6042      	str	r2, [r0, #4]
  400eca:	4770      	bx	lr
  400ecc:	2900      	cmp	r1, #0
  400ece:	d1fb      	bne.n	400ec8 <pio_set_peripheral+0x28>
  400ed0:	4770      	bx	lr
  400ed2:	f1b1 5f20 	cmp.w	r1, #671088640	; 0x28000000
  400ed6:	d021      	beq.n	400f1c <pio_set_peripheral+0x7c>
  400ed8:	d809      	bhi.n	400eee <pio_set_peripheral+0x4e>
  400eda:	f1b1 5f00 	cmp.w	r1, #536870912	; 0x20000000
  400ede:	d1f3      	bne.n	400ec8 <pio_set_peripheral+0x28>
  400ee0:	6f03      	ldr	r3, [r0, #112]	; 0x70
  400ee2:	4313      	orrs	r3, r2
  400ee4:	6703      	str	r3, [r0, #112]	; 0x70
  400ee6:	6f43      	ldr	r3, [r0, #116]	; 0x74
  400ee8:	4313      	orrs	r3, r2
  400eea:	6743      	str	r3, [r0, #116]	; 0x74
  400eec:	e7ec      	b.n	400ec8 <pio_set_peripheral+0x28>
  400eee:	f1b1 5f40 	cmp.w	r1, #805306368	; 0x30000000
  400ef2:	d013      	beq.n	400f1c <pio_set_peripheral+0x7c>
  400ef4:	f1b1 5f60 	cmp.w	r1, #939524096	; 0x38000000
  400ef8:	d010      	beq.n	400f1c <pio_set_peripheral+0x7c>
  400efa:	e7e5      	b.n	400ec8 <pio_set_peripheral+0x28>
  400efc:	b410      	push	{r4}
  400efe:	6f01      	ldr	r1, [r0, #112]	; 0x70
  400f00:	6f04      	ldr	r4, [r0, #112]	; 0x70
  400f02:	43d3      	mvns	r3, r2
  400f04:	4021      	ands	r1, r4
  400f06:	461c      	mov	r4, r3
  400f08:	4019      	ands	r1, r3
  400f0a:	6701      	str	r1, [r0, #112]	; 0x70
  400f0c:	6f43      	ldr	r3, [r0, #116]	; 0x74
  400f0e:	6f41      	ldr	r1, [r0, #116]	; 0x74
  400f10:	400b      	ands	r3, r1
  400f12:	4023      	ands	r3, r4
  400f14:	6743      	str	r3, [r0, #116]	; 0x74
  400f16:	6042      	str	r2, [r0, #4]
  400f18:	f85d 4b04 	ldr.w	r4, [sp], #4
  400f1c:	4770      	bx	lr
  400f1e:	6f03      	ldr	r3, [r0, #112]	; 0x70
  400f20:	6f01      	ldr	r1, [r0, #112]	; 0x70
  400f22:	400b      	ands	r3, r1
  400f24:	ea23 0302 	bic.w	r3, r3, r2
  400f28:	6703      	str	r3, [r0, #112]	; 0x70
  400f2a:	6f43      	ldr	r3, [r0, #116]	; 0x74
  400f2c:	4313      	orrs	r3, r2
  400f2e:	6743      	str	r3, [r0, #116]	; 0x74
  400f30:	e7ca      	b.n	400ec8 <pio_set_peripheral+0x28>

00400f32 <pio_set_input>:
  400f32:	6441      	str	r1, [r0, #68]	; 0x44
  400f34:	f012 0f01 	tst.w	r2, #1
  400f38:	d10d      	bne.n	400f56 <pio_set_input+0x24>
  400f3a:	6601      	str	r1, [r0, #96]	; 0x60
  400f3c:	f012 0f0a 	tst.w	r2, #10
  400f40:	d00b      	beq.n	400f5a <pio_set_input+0x28>
  400f42:	6201      	str	r1, [r0, #32]
  400f44:	f012 0f02 	tst.w	r2, #2
  400f48:	d109      	bne.n	400f5e <pio_set_input+0x2c>
  400f4a:	f012 0f08 	tst.w	r2, #8
  400f4e:	d008      	beq.n	400f62 <pio_set_input+0x30>
  400f50:	f8c0 1084 	str.w	r1, [r0, #132]	; 0x84
  400f54:	e005      	b.n	400f62 <pio_set_input+0x30>
  400f56:	6641      	str	r1, [r0, #100]	; 0x64
  400f58:	e7f0      	b.n	400f3c <pio_set_input+0xa>
  400f5a:	6241      	str	r1, [r0, #36]	; 0x24
  400f5c:	e7f2      	b.n	400f44 <pio_set_input+0x12>
  400f5e:	f8c0 1080 	str.w	r1, [r0, #128]	; 0x80
  400f62:	6141      	str	r1, [r0, #20]
  400f64:	6001      	str	r1, [r0, #0]
  400f66:	4770      	bx	lr

00400f68 <pio_set_output>:
  400f68:	b410      	push	{r4}
  400f6a:	9c01      	ldr	r4, [sp, #4]
  400f6c:	6441      	str	r1, [r0, #68]	; 0x44
  400f6e:	b94c      	cbnz	r4, 400f84 <pio_set_output+0x1c>
  400f70:	6601      	str	r1, [r0, #96]	; 0x60
  400f72:	b14b      	cbz	r3, 400f88 <pio_set_output+0x20>
  400f74:	6501      	str	r1, [r0, #80]	; 0x50
  400f76:	b94a      	cbnz	r2, 400f8c <pio_set_output+0x24>
  400f78:	6341      	str	r1, [r0, #52]	; 0x34
  400f7a:	6101      	str	r1, [r0, #16]
  400f7c:	6001      	str	r1, [r0, #0]
  400f7e:	f85d 4b04 	ldr.w	r4, [sp], #4
  400f82:	4770      	bx	lr
  400f84:	6641      	str	r1, [r0, #100]	; 0x64
  400f86:	e7f4      	b.n	400f72 <pio_set_output+0xa>
  400f88:	6541      	str	r1, [r0, #84]	; 0x54
  400f8a:	e7f4      	b.n	400f76 <pio_set_output+0xe>
  400f8c:	6301      	str	r1, [r0, #48]	; 0x30
  400f8e:	e7f4      	b.n	400f7a <pio_set_output+0x12>

00400f90 <pio_configure>:
  400f90:	b570      	push	{r4, r5, r6, lr}
  400f92:	b082      	sub	sp, #8
  400f94:	4605      	mov	r5, r0
  400f96:	4616      	mov	r6, r2
  400f98:	461c      	mov	r4, r3
  400f9a:	f1b1 5f00 	cmp.w	r1, #536870912	; 0x20000000
  400f9e:	d014      	beq.n	400fca <pio_configure+0x3a>
  400fa0:	d90a      	bls.n	400fb8 <pio_configure+0x28>
  400fa2:	f1b1 5f40 	cmp.w	r1, #805306368	; 0x30000000
  400fa6:	d024      	beq.n	400ff2 <pio_configure+0x62>
  400fa8:	f1b1 5f60 	cmp.w	r1, #939524096	; 0x38000000
  400fac:	d021      	beq.n	400ff2 <pio_configure+0x62>
  400fae:	f1b1 5f20 	cmp.w	r1, #671088640	; 0x28000000
  400fb2:	d017      	beq.n	400fe4 <pio_configure+0x54>
  400fb4:	2000      	movs	r0, #0
  400fb6:	e01a      	b.n	400fee <pio_configure+0x5e>
  400fb8:	f1b1 5f80 	cmp.w	r1, #268435456	; 0x10000000
  400fbc:	d005      	beq.n	400fca <pio_configure+0x3a>
  400fbe:	f1b1 5fc0 	cmp.w	r1, #402653184	; 0x18000000
  400fc2:	d002      	beq.n	400fca <pio_configure+0x3a>
  400fc4:	f1b1 6f00 	cmp.w	r1, #134217728	; 0x8000000
  400fc8:	d1f4      	bne.n	400fb4 <pio_configure+0x24>
  400fca:	4632      	mov	r2, r6
  400fcc:	4628      	mov	r0, r5
  400fce:	4b11      	ldr	r3, [pc, #68]	; (401014 <pio_configure+0x84>)
  400fd0:	4798      	blx	r3
  400fd2:	f014 0f01 	tst.w	r4, #1
  400fd6:	d102      	bne.n	400fde <pio_configure+0x4e>
  400fd8:	662e      	str	r6, [r5, #96]	; 0x60
  400fda:	2001      	movs	r0, #1
  400fdc:	e007      	b.n	400fee <pio_configure+0x5e>
  400fde:	666e      	str	r6, [r5, #100]	; 0x64
  400fe0:	2001      	movs	r0, #1
  400fe2:	e004      	b.n	400fee <pio_configure+0x5e>
  400fe4:	461a      	mov	r2, r3
  400fe6:	4631      	mov	r1, r6
  400fe8:	4b0b      	ldr	r3, [pc, #44]	; (401018 <pio_configure+0x88>)
  400fea:	4798      	blx	r3
  400fec:	2001      	movs	r0, #1
  400fee:	b002      	add	sp, #8
  400ff0:	bd70      	pop	{r4, r5, r6, pc}
  400ff2:	f004 0301 	and.w	r3, r4, #1
  400ff6:	9300      	str	r3, [sp, #0]
  400ff8:	f3c4 0380 	ubfx	r3, r4, #2, #1
  400ffc:	f1b1 5f60 	cmp.w	r1, #939524096	; 0x38000000
  401000:	bf14      	ite	ne
  401002:	2200      	movne	r2, #0
  401004:	2201      	moveq	r2, #1
  401006:	4631      	mov	r1, r6
  401008:	4628      	mov	r0, r5
  40100a:	4c04      	ldr	r4, [pc, #16]	; (40101c <pio_configure+0x8c>)
  40100c:	47a0      	blx	r4
  40100e:	2001      	movs	r0, #1
  401010:	e7ed      	b.n	400fee <pio_configure+0x5e>
  401012:	bf00      	nop
  401014:	00400ea1 	.word	0x00400ea1
  401018:	00400f33 	.word	0x00400f33
  40101c:	00400f69 	.word	0x00400f69

00401020 <pio_configure_interrupt>:
  401020:	f012 0f10 	tst.w	r2, #16
  401024:	d012      	beq.n	40104c <pio_configure_interrupt+0x2c>
  401026:	f8c0 10b0 	str.w	r1, [r0, #176]	; 0xb0
  40102a:	f012 0f20 	tst.w	r2, #32
  40102e:	d007      	beq.n	401040 <pio_configure_interrupt+0x20>
  401030:	f8c0 10d4 	str.w	r1, [r0, #212]	; 0xd4
  401034:	f012 0f40 	tst.w	r2, #64	; 0x40
  401038:	d005      	beq.n	401046 <pio_configure_interrupt+0x26>
  40103a:	f8c0 10c0 	str.w	r1, [r0, #192]	; 0xc0
  40103e:	4770      	bx	lr
  401040:	f8c0 10d0 	str.w	r1, [r0, #208]	; 0xd0
  401044:	e7f6      	b.n	401034 <pio_configure_interrupt+0x14>
  401046:	f8c0 10c4 	str.w	r1, [r0, #196]	; 0xc4
  40104a:	4770      	bx	lr
  40104c:	f8c0 10b4 	str.w	r1, [r0, #180]	; 0xb4
  401050:	4770      	bx	lr

00401052 <pio_enable_interrupt>:
  401052:	6401      	str	r1, [r0, #64]	; 0x40
  401054:	4770      	bx	lr

00401056 <pio_get_interrupt_status>:
  401056:	6cc0      	ldr	r0, [r0, #76]	; 0x4c
  401058:	4770      	bx	lr

0040105a <pio_get_interrupt_mask>:
  40105a:	6c80      	ldr	r0, [r0, #72]	; 0x48
  40105c:	4770      	bx	lr
	...

00401060 <pio_handler_process>:
  401060:	e92d 41f0 	stmdb	sp!, {r4, r5, r6, r7, r8, lr}
  401064:	4604      	mov	r4, r0
  401066:	4688      	mov	r8, r1
  401068:	4b0e      	ldr	r3, [pc, #56]	; (4010a4 <pio_handler_process+0x44>)
  40106a:	4798      	blx	r3
  40106c:	4605      	mov	r5, r0
  40106e:	4620      	mov	r0, r4
  401070:	4b0d      	ldr	r3, [pc, #52]	; (4010a8 <pio_handler_process+0x48>)
  401072:	4798      	blx	r3
  401074:	4005      	ands	r5, r0
  401076:	d013      	beq.n	4010a0 <pio_handler_process+0x40>
  401078:	4c0c      	ldr	r4, [pc, #48]	; (4010ac <pio_handler_process+0x4c>)
  40107a:	f104 0660 	add.w	r6, r4, #96	; 0x60
  40107e:	e003      	b.n	401088 <pio_handler_process+0x28>
  401080:	42b4      	cmp	r4, r6
  401082:	d00d      	beq.n	4010a0 <pio_handler_process+0x40>
  401084:	3410      	adds	r4, #16
  401086:	b15d      	cbz	r5, 4010a0 <pio_handler_process+0x40>
  401088:	6820      	ldr	r0, [r4, #0]
  40108a:	4540      	cmp	r0, r8
  40108c:	d1f8      	bne.n	401080 <pio_handler_process+0x20>
  40108e:	6861      	ldr	r1, [r4, #4]
  401090:	4229      	tst	r1, r5
  401092:	d0f5      	beq.n	401080 <pio_handler_process+0x20>
  401094:	68e3      	ldr	r3, [r4, #12]
  401096:	4798      	blx	r3
  401098:	6863      	ldr	r3, [r4, #4]
  40109a:	ea25 0503 	bic.w	r5, r5, r3
  40109e:	e7ef      	b.n	401080 <pio_handler_process+0x20>
  4010a0:	e8bd 81f0 	ldmia.w	sp!, {r4, r5, r6, r7, r8, pc}
  4010a4:	00401057 	.word	0x00401057
  4010a8:	0040105b 	.word	0x0040105b
  4010ac:	20400bf0 	.word	0x20400bf0

004010b0 <pio_handler_set>:
  4010b0:	b5f8      	push	{r3, r4, r5, r6, r7, lr}
  4010b2:	4c18      	ldr	r4, [pc, #96]	; (401114 <pio_handler_set+0x64>)
  4010b4:	6826      	ldr	r6, [r4, #0]
  4010b6:	2e06      	cmp	r6, #6
  4010b8:	d82a      	bhi.n	401110 <pio_handler_set+0x60>
  4010ba:	f04f 0c00 	mov.w	ip, #0
  4010be:	4664      	mov	r4, ip
  4010c0:	4f15      	ldr	r7, [pc, #84]	; (401118 <pio_handler_set+0x68>)
  4010c2:	e004      	b.n	4010ce <pio_handler_set+0x1e>
  4010c4:	3401      	adds	r4, #1
  4010c6:	b2e4      	uxtb	r4, r4
  4010c8:	46a4      	mov	ip, r4
  4010ca:	42a6      	cmp	r6, r4
  4010cc:	d309      	bcc.n	4010e2 <pio_handler_set+0x32>
  4010ce:	46a6      	mov	lr, r4
  4010d0:	0125      	lsls	r5, r4, #4
  4010d2:	597d      	ldr	r5, [r7, r5]
  4010d4:	428d      	cmp	r5, r1
  4010d6:	d1f5      	bne.n	4010c4 <pio_handler_set+0x14>
  4010d8:	eb07 1504 	add.w	r5, r7, r4, lsl #4
  4010dc:	686d      	ldr	r5, [r5, #4]
  4010de:	4295      	cmp	r5, r2
  4010e0:	d1f0      	bne.n	4010c4 <pio_handler_set+0x14>
  4010e2:	4d0d      	ldr	r5, [pc, #52]	; (401118 <pio_handler_set+0x68>)
  4010e4:	ea4f 1e0e 	mov.w	lr, lr, lsl #4
  4010e8:	eb05 040e 	add.w	r4, r5, lr
  4010ec:	f845 100e 	str.w	r1, [r5, lr]
  4010f0:	6062      	str	r2, [r4, #4]
  4010f2:	60a3      	str	r3, [r4, #8]
  4010f4:	9906      	ldr	r1, [sp, #24]
  4010f6:	60e1      	str	r1, [r4, #12]
  4010f8:	3601      	adds	r6, #1
  4010fa:	4566      	cmp	r6, ip
  4010fc:	d005      	beq.n	40110a <pio_handler_set+0x5a>
  4010fe:	4611      	mov	r1, r2
  401100:	461a      	mov	r2, r3
  401102:	4b06      	ldr	r3, [pc, #24]	; (40111c <pio_handler_set+0x6c>)
  401104:	4798      	blx	r3
  401106:	2000      	movs	r0, #0
  401108:	bdf8      	pop	{r3, r4, r5, r6, r7, pc}
  40110a:	4902      	ldr	r1, [pc, #8]	; (401114 <pio_handler_set+0x64>)
  40110c:	600e      	str	r6, [r1, #0]
  40110e:	e7f6      	b.n	4010fe <pio_handler_set+0x4e>
  401110:	2001      	movs	r0, #1
  401112:	bdf8      	pop	{r3, r4, r5, r6, r7, pc}
  401114:	20400c60 	.word	0x20400c60
  401118:	20400bf0 	.word	0x20400bf0
  40111c:	00401021 	.word	0x00401021

00401120 <PIOA_Handler>:
  401120:	b508      	push	{r3, lr}
  401122:	210a      	movs	r1, #10
  401124:	4801      	ldr	r0, [pc, #4]	; (40112c <PIOA_Handler+0xc>)
  401126:	4b02      	ldr	r3, [pc, #8]	; (401130 <PIOA_Handler+0x10>)
  401128:	4798      	blx	r3
  40112a:	bd08      	pop	{r3, pc}
  40112c:	400e0e00 	.word	0x400e0e00
  401130:	00401061 	.word	0x00401061

00401134 <PIOB_Handler>:
  401134:	b508      	push	{r3, lr}
  401136:	210b      	movs	r1, #11
  401138:	4801      	ldr	r0, [pc, #4]	; (401140 <PIOB_Handler+0xc>)
  40113a:	4b02      	ldr	r3, [pc, #8]	; (401144 <PIOB_Handler+0x10>)
  40113c:	4798      	blx	r3
  40113e:	bd08      	pop	{r3, pc}
  401140:	400e1000 	.word	0x400e1000
  401144:	00401061 	.word	0x00401061

00401148 <PIOC_Handler>:
  401148:	b508      	push	{r3, lr}
  40114a:	210c      	movs	r1, #12
  40114c:	4801      	ldr	r0, [pc, #4]	; (401154 <PIOC_Handler+0xc>)
  40114e:	4b02      	ldr	r3, [pc, #8]	; (401158 <PIOC_Handler+0x10>)
  401150:	4798      	blx	r3
  401152:	bd08      	pop	{r3, pc}
  401154:	400e1200 	.word	0x400e1200
  401158:	00401061 	.word	0x00401061

0040115c <PIOD_Handler>:
  40115c:	b508      	push	{r3, lr}
  40115e:	2110      	movs	r1, #16
  401160:	4801      	ldr	r0, [pc, #4]	; (401168 <PIOD_Handler+0xc>)
  401162:	4b02      	ldr	r3, [pc, #8]	; (40116c <PIOD_Handler+0x10>)
  401164:	4798      	blx	r3
  401166:	bd08      	pop	{r3, pc}
  401168:	400e1400 	.word	0x400e1400
  40116c:	00401061 	.word	0x00401061

00401170 <PIOE_Handler>:
  401170:	b508      	push	{r3, lr}
  401172:	2111      	movs	r1, #17
  401174:	4801      	ldr	r0, [pc, #4]	; (40117c <PIOE_Handler+0xc>)
  401176:	4b02      	ldr	r3, [pc, #8]	; (401180 <PIOE_Handler+0x10>)
  401178:	4798      	blx	r3
  40117a:	bd08      	pop	{r3, pc}
  40117c:	400e1600 	.word	0x400e1600
  401180:	00401061 	.word	0x00401061

00401184 <pmc_mck_set_division>:
  401184:	2803      	cmp	r0, #3
  401186:	d011      	beq.n	4011ac <pmc_mck_set_division+0x28>
  401188:	2804      	cmp	r0, #4
  40118a:	d012      	beq.n	4011b2 <pmc_mck_set_division+0x2e>
  40118c:	2802      	cmp	r0, #2
  40118e:	bf0c      	ite	eq
  401190:	f44f 7180 	moveq.w	r1, #256	; 0x100
  401194:	2100      	movne	r1, #0
  401196:	4a08      	ldr	r2, [pc, #32]	; (4011b8 <pmc_mck_set_division+0x34>)
  401198:	6b13      	ldr	r3, [r2, #48]	; 0x30
  40119a:	f423 7340 	bic.w	r3, r3, #768	; 0x300
  40119e:	430b      	orrs	r3, r1
  4011a0:	6313      	str	r3, [r2, #48]	; 0x30
  4011a2:	6e93      	ldr	r3, [r2, #104]	; 0x68
  4011a4:	f013 0f08 	tst.w	r3, #8
  4011a8:	d0fb      	beq.n	4011a2 <pmc_mck_set_division+0x1e>
  4011aa:	4770      	bx	lr
  4011ac:	f44f 7140 	mov.w	r1, #768	; 0x300
  4011b0:	e7f1      	b.n	401196 <pmc_mck_set_division+0x12>
  4011b2:	f44f 7100 	mov.w	r1, #512	; 0x200
  4011b6:	e7ee      	b.n	401196 <pmc_mck_set_division+0x12>
  4011b8:	400e0600 	.word	0x400e0600

004011bc <pmc_switch_mck_to_pllack>:
  4011bc:	4a17      	ldr	r2, [pc, #92]	; (40121c <pmc_switch_mck_to_pllack+0x60>)
  4011be:	6b13      	ldr	r3, [r2, #48]	; 0x30
  4011c0:	f023 0370 	bic.w	r3, r3, #112	; 0x70
  4011c4:	4318      	orrs	r0, r3
  4011c6:	6310      	str	r0, [r2, #48]	; 0x30
  4011c8:	6e93      	ldr	r3, [r2, #104]	; 0x68
  4011ca:	f013 0f08 	tst.w	r3, #8
  4011ce:	d10a      	bne.n	4011e6 <pmc_switch_mck_to_pllack+0x2a>
  4011d0:	f44f 5380 	mov.w	r3, #4096	; 0x1000
  4011d4:	4911      	ldr	r1, [pc, #68]	; (40121c <pmc_switch_mck_to_pllack+0x60>)
  4011d6:	6e8a      	ldr	r2, [r1, #104]	; 0x68
  4011d8:	f012 0f08 	tst.w	r2, #8
  4011dc:	d103      	bne.n	4011e6 <pmc_switch_mck_to_pllack+0x2a>
  4011de:	3b01      	subs	r3, #1
  4011e0:	d1f9      	bne.n	4011d6 <pmc_switch_mck_to_pllack+0x1a>
  4011e2:	2001      	movs	r0, #1
  4011e4:	4770      	bx	lr
  4011e6:	4a0d      	ldr	r2, [pc, #52]	; (40121c <pmc_switch_mck_to_pllack+0x60>)
  4011e8:	6b13      	ldr	r3, [r2, #48]	; 0x30
  4011ea:	f023 0303 	bic.w	r3, r3, #3
  4011ee:	f043 0302 	orr.w	r3, r3, #2
  4011f2:	6313      	str	r3, [r2, #48]	; 0x30
  4011f4:	6e93      	ldr	r3, [r2, #104]	; 0x68
  4011f6:	f013 0f08 	tst.w	r3, #8
  4011fa:	d10a      	bne.n	401212 <pmc_switch_mck_to_pllack+0x56>
  4011fc:	f44f 5380 	mov.w	r3, #4096	; 0x1000
  401200:	4906      	ldr	r1, [pc, #24]	; (40121c <pmc_switch_mck_to_pllack+0x60>)
  401202:	6e8a      	ldr	r2, [r1, #104]	; 0x68
  401204:	f012 0f08 	tst.w	r2, #8
  401208:	d105      	bne.n	401216 <pmc_switch_mck_to_pllack+0x5a>
  40120a:	3b01      	subs	r3, #1
  40120c:	d1f9      	bne.n	401202 <pmc_switch_mck_to_pllack+0x46>
  40120e:	2001      	movs	r0, #1
  401210:	4770      	bx	lr
  401212:	2000      	movs	r0, #0
  401214:	4770      	bx	lr
  401216:	2000      	movs	r0, #0
  401218:	4770      	bx	lr
  40121a:	bf00      	nop
  40121c:	400e0600 	.word	0x400e0600

00401220 <pmc_switch_mainck_to_xtal>:
  401220:	b9a0      	cbnz	r0, 40124c <pmc_switch_mainck_to_xtal+0x2c>
  401222:	480e      	ldr	r0, [pc, #56]	; (40125c <pmc_switch_mainck_to_xtal+0x3c>)
  401224:	6a03      	ldr	r3, [r0, #32]
  401226:	0209      	lsls	r1, r1, #8
  401228:	b289      	uxth	r1, r1
  40122a:	4a0d      	ldr	r2, [pc, #52]	; (401260 <pmc_switch_mainck_to_xtal+0x40>)
  40122c:	401a      	ands	r2, r3
  40122e:	4b0d      	ldr	r3, [pc, #52]	; (401264 <pmc_switch_mainck_to_xtal+0x44>)
  401230:	4313      	orrs	r3, r2
  401232:	4319      	orrs	r1, r3
  401234:	6201      	str	r1, [r0, #32]
  401236:	4602      	mov	r2, r0
  401238:	6e93      	ldr	r3, [r2, #104]	; 0x68
  40123a:	f013 0f01 	tst.w	r3, #1
  40123e:	d0fb      	beq.n	401238 <pmc_switch_mainck_to_xtal+0x18>
  401240:	4a06      	ldr	r2, [pc, #24]	; (40125c <pmc_switch_mainck_to_xtal+0x3c>)
  401242:	6a11      	ldr	r1, [r2, #32]
  401244:	4b08      	ldr	r3, [pc, #32]	; (401268 <pmc_switch_mainck_to_xtal+0x48>)
  401246:	430b      	orrs	r3, r1
  401248:	6213      	str	r3, [r2, #32]
  40124a:	4770      	bx	lr
  40124c:	4903      	ldr	r1, [pc, #12]	; (40125c <pmc_switch_mainck_to_xtal+0x3c>)
  40124e:	6a0b      	ldr	r3, [r1, #32]
  401250:	4a06      	ldr	r2, [pc, #24]	; (40126c <pmc_switch_mainck_to_xtal+0x4c>)
  401252:	401a      	ands	r2, r3
  401254:	4b06      	ldr	r3, [pc, #24]	; (401270 <pmc_switch_mainck_to_xtal+0x50>)
  401256:	4313      	orrs	r3, r2
  401258:	620b      	str	r3, [r1, #32]
  40125a:	4770      	bx	lr
  40125c:	400e0600 	.word	0x400e0600
  401260:	ffc8fffc 	.word	0xffc8fffc
  401264:	00370001 	.word	0x00370001
  401268:	01370000 	.word	0x01370000
  40126c:	fec8fffc 	.word	0xfec8fffc
  401270:	01370002 	.word	0x01370002

00401274 <pmc_osc_is_ready_mainck>:
  401274:	4b02      	ldr	r3, [pc, #8]	; (401280 <pmc_osc_is_ready_mainck+0xc>)
  401276:	6e98      	ldr	r0, [r3, #104]	; 0x68
  401278:	f400 3080 	and.w	r0, r0, #65536	; 0x10000
  40127c:	4770      	bx	lr
  40127e:	bf00      	nop
  401280:	400e0600 	.word	0x400e0600

00401284 <pmc_disable_pllack>:
  401284:	f04f 5200 	mov.w	r2, #536870912	; 0x20000000
  401288:	4b01      	ldr	r3, [pc, #4]	; (401290 <pmc_disable_pllack+0xc>)
  40128a:	629a      	str	r2, [r3, #40]	; 0x28
  40128c:	4770      	bx	lr
  40128e:	bf00      	nop
  401290:	400e0600 	.word	0x400e0600

00401294 <pmc_is_locked_pllack>:
  401294:	4b02      	ldr	r3, [pc, #8]	; (4012a0 <pmc_is_locked_pllack+0xc>)
  401296:	6e98      	ldr	r0, [r3, #104]	; 0x68
  401298:	f000 0002 	and.w	r0, r0, #2
  40129c:	4770      	bx	lr
  40129e:	bf00      	nop
  4012a0:	400e0600 	.word	0x400e0600

004012a4 <pmc_enable_periph_clk>:
  4012a4:	283f      	cmp	r0, #63	; 0x3f
  4012a6:	d81e      	bhi.n	4012e6 <pmc_enable_periph_clk+0x42>
  4012a8:	281f      	cmp	r0, #31
  4012aa:	d80c      	bhi.n	4012c6 <pmc_enable_periph_clk+0x22>
  4012ac:	4b11      	ldr	r3, [pc, #68]	; (4012f4 <pmc_enable_periph_clk+0x50>)
  4012ae:	699a      	ldr	r2, [r3, #24]
  4012b0:	2301      	movs	r3, #1
  4012b2:	4083      	lsls	r3, r0
  4012b4:	4393      	bics	r3, r2
  4012b6:	d018      	beq.n	4012ea <pmc_enable_periph_clk+0x46>
  4012b8:	2301      	movs	r3, #1
  4012ba:	fa03 f000 	lsl.w	r0, r3, r0
  4012be:	4b0d      	ldr	r3, [pc, #52]	; (4012f4 <pmc_enable_periph_clk+0x50>)
  4012c0:	6118      	str	r0, [r3, #16]
  4012c2:	2000      	movs	r0, #0
  4012c4:	4770      	bx	lr
  4012c6:	3820      	subs	r0, #32
  4012c8:	4b0a      	ldr	r3, [pc, #40]	; (4012f4 <pmc_enable_periph_clk+0x50>)
  4012ca:	f8d3 2108 	ldr.w	r2, [r3, #264]	; 0x108
  4012ce:	2301      	movs	r3, #1
  4012d0:	4083      	lsls	r3, r0
  4012d2:	4393      	bics	r3, r2
  4012d4:	d00b      	beq.n	4012ee <pmc_enable_periph_clk+0x4a>
  4012d6:	2301      	movs	r3, #1
  4012d8:	fa03 f000 	lsl.w	r0, r3, r0
  4012dc:	4b05      	ldr	r3, [pc, #20]	; (4012f4 <pmc_enable_periph_clk+0x50>)
  4012de:	f8c3 0100 	str.w	r0, [r3, #256]	; 0x100
  4012e2:	2000      	movs	r0, #0
  4012e4:	4770      	bx	lr
  4012e6:	2001      	movs	r0, #1
  4012e8:	4770      	bx	lr
  4012ea:	2000      	movs	r0, #0
  4012ec:	4770      	bx	lr
  4012ee:	2000      	movs	r0, #0
  4012f0:	4770      	bx	lr
  4012f2:	bf00      	nop
  4012f4:	400e0600 	.word	0x400e0600

004012f8 <Dummy_Handler>:
  4012f8:	e7fe      	b.n	4012f8 <Dummy_Handler>
	...

004012fc <Reset_Handler>:
  4012fc:	b500      	push	{lr}
  4012fe:	b083      	sub	sp, #12
  401300:	4b25      	ldr	r3, [pc, #148]	; (401398 <Reset_Handler+0x9c>)
  401302:	4a26      	ldr	r2, [pc, #152]	; (40139c <Reset_Handler+0xa0>)
  401304:	429a      	cmp	r2, r3
  401306:	d010      	beq.n	40132a <Reset_Handler+0x2e>
  401308:	4b25      	ldr	r3, [pc, #148]	; (4013a0 <Reset_Handler+0xa4>)
  40130a:	4a23      	ldr	r2, [pc, #140]	; (401398 <Reset_Handler+0x9c>)
  40130c:	429a      	cmp	r2, r3
  40130e:	d20c      	bcs.n	40132a <Reset_Handler+0x2e>
  401310:	3b01      	subs	r3, #1
  401312:	1a9b      	subs	r3, r3, r2
  401314:	f023 0303 	bic.w	r3, r3, #3
  401318:	3304      	adds	r3, #4
  40131a:	4413      	add	r3, r2
  40131c:	491f      	ldr	r1, [pc, #124]	; (40139c <Reset_Handler+0xa0>)
  40131e:	f851 0b04 	ldr.w	r0, [r1], #4
  401322:	f842 0b04 	str.w	r0, [r2], #4
  401326:	429a      	cmp	r2, r3
  401328:	d1f9      	bne.n	40131e <Reset_Handler+0x22>
  40132a:	4b1e      	ldr	r3, [pc, #120]	; (4013a4 <Reset_Handler+0xa8>)
  40132c:	4a1e      	ldr	r2, [pc, #120]	; (4013a8 <Reset_Handler+0xac>)
  40132e:	429a      	cmp	r2, r3
  401330:	d20a      	bcs.n	401348 <Reset_Handler+0x4c>
  401332:	3b01      	subs	r3, #1
  401334:	1a9b      	subs	r3, r3, r2
  401336:	f023 0303 	bic.w	r3, r3, #3
  40133a:	3304      	adds	r3, #4
  40133c:	4413      	add	r3, r2
  40133e:	2100      	movs	r1, #0
  401340:	f842 1b04 	str.w	r1, [r2], #4
  401344:	4293      	cmp	r3, r2
  401346:	d1fb      	bne.n	401340 <Reset_Handler+0x44>
  401348:	4a18      	ldr	r2, [pc, #96]	; (4013ac <Reset_Handler+0xb0>)
  40134a:	4b19      	ldr	r3, [pc, #100]	; (4013b0 <Reset_Handler+0xb4>)
  40134c:	f023 037f 	bic.w	r3, r3, #127	; 0x7f
  401350:	6093      	str	r3, [r2, #8]
  401352:	f3ef 8310 	mrs	r3, PRIMASK
  401356:	fab3 f383 	clz	r3, r3
  40135a:	095b      	lsrs	r3, r3, #5
  40135c:	9301      	str	r3, [sp, #4]
  40135e:	b672      	cpsid	i
  401360:	f3bf 8f5f 	dmb	sy
  401364:	2200      	movs	r2, #0
  401366:	4b13      	ldr	r3, [pc, #76]	; (4013b4 <Reset_Handler+0xb8>)
  401368:	701a      	strb	r2, [r3, #0]
  40136a:	9901      	ldr	r1, [sp, #4]
  40136c:	4a12      	ldr	r2, [pc, #72]	; (4013b8 <Reset_Handler+0xbc>)
  40136e:	6813      	ldr	r3, [r2, #0]
  401370:	f443 0370 	orr.w	r3, r3, #15728640	; 0xf00000
  401374:	6013      	str	r3, [r2, #0]
  401376:	f3bf 8f4f 	dsb	sy
  40137a:	f3bf 8f6f 	isb	sy
  40137e:	b129      	cbz	r1, 40138c <Reset_Handler+0x90>
  401380:	2201      	movs	r2, #1
  401382:	4b0c      	ldr	r3, [pc, #48]	; (4013b4 <Reset_Handler+0xb8>)
  401384:	701a      	strb	r2, [r3, #0]
  401386:	f3bf 8f5f 	dmb	sy
  40138a:	b662      	cpsie	i
  40138c:	4b0b      	ldr	r3, [pc, #44]	; (4013bc <Reset_Handler+0xc0>)
  40138e:	4798      	blx	r3
  401390:	4b0b      	ldr	r3, [pc, #44]	; (4013c0 <Reset_Handler+0xc4>)
  401392:	4798      	blx	r3
  401394:	e7fe      	b.n	401394 <Reset_Handler+0x98>
  401396:	bf00      	nop
  401398:	20400000 	.word	0x20400000
  40139c:	004074dc 	.word	0x004074dc
  4013a0:	204009d0 	.word	0x204009d0
  4013a4:	20400ce0 	.word	0x20400ce0
  4013a8:	204009d0 	.word	0x204009d0
  4013ac:	e000ed00 	.word	0xe000ed00
  4013b0:	00400000 	.word	0x00400000
  4013b4:	20400018 	.word	0x20400018
  4013b8:	e000ed88 	.word	0xe000ed88
  4013bc:	00401865 	.word	0x00401865
  4013c0:	00401819 	.word	0x00401819

004013c4 <SystemCoreClockUpdate>:
  4013c4:	4b3b      	ldr	r3, [pc, #236]	; (4014b4 <SystemCoreClockUpdate+0xf0>)
  4013c6:	6b1b      	ldr	r3, [r3, #48]	; 0x30
  4013c8:	f003 0303 	and.w	r3, r3, #3
  4013cc:	2b01      	cmp	r3, #1
  4013ce:	d01d      	beq.n	40140c <SystemCoreClockUpdate+0x48>
  4013d0:	b183      	cbz	r3, 4013f4 <SystemCoreClockUpdate+0x30>
  4013d2:	2b02      	cmp	r3, #2
  4013d4:	d036      	beq.n	401444 <SystemCoreClockUpdate+0x80>
  4013d6:	4b37      	ldr	r3, [pc, #220]	; (4014b4 <SystemCoreClockUpdate+0xf0>)
  4013d8:	6b1b      	ldr	r3, [r3, #48]	; 0x30
  4013da:	f003 0370 	and.w	r3, r3, #112	; 0x70
  4013de:	2b70      	cmp	r3, #112	; 0x70
  4013e0:	d05f      	beq.n	4014a2 <SystemCoreClockUpdate+0xde>
  4013e2:	4b34      	ldr	r3, [pc, #208]	; (4014b4 <SystemCoreClockUpdate+0xf0>)
  4013e4:	6b1a      	ldr	r2, [r3, #48]	; 0x30
  4013e6:	4934      	ldr	r1, [pc, #208]	; (4014b8 <SystemCoreClockUpdate+0xf4>)
  4013e8:	f3c2 1202 	ubfx	r2, r2, #4, #3
  4013ec:	680b      	ldr	r3, [r1, #0]
  4013ee:	40d3      	lsrs	r3, r2
  4013f0:	600b      	str	r3, [r1, #0]
  4013f2:	4770      	bx	lr
  4013f4:	4b31      	ldr	r3, [pc, #196]	; (4014bc <SystemCoreClockUpdate+0xf8>)
  4013f6:	695b      	ldr	r3, [r3, #20]
  4013f8:	f013 0f80 	tst.w	r3, #128	; 0x80
  4013fc:	bf14      	ite	ne
  4013fe:	f44f 4200 	movne.w	r2, #32768	; 0x8000
  401402:	f44f 42fa 	moveq.w	r2, #32000	; 0x7d00
  401406:	4b2c      	ldr	r3, [pc, #176]	; (4014b8 <SystemCoreClockUpdate+0xf4>)
  401408:	601a      	str	r2, [r3, #0]
  40140a:	e7e4      	b.n	4013d6 <SystemCoreClockUpdate+0x12>
  40140c:	4b29      	ldr	r3, [pc, #164]	; (4014b4 <SystemCoreClockUpdate+0xf0>)
  40140e:	6a1b      	ldr	r3, [r3, #32]
  401410:	f013 7f80 	tst.w	r3, #16777216	; 0x1000000
  401414:	d003      	beq.n	40141e <SystemCoreClockUpdate+0x5a>
  401416:	4a2a      	ldr	r2, [pc, #168]	; (4014c0 <SystemCoreClockUpdate+0xfc>)
  401418:	4b27      	ldr	r3, [pc, #156]	; (4014b8 <SystemCoreClockUpdate+0xf4>)
  40141a:	601a      	str	r2, [r3, #0]
  40141c:	e7db      	b.n	4013d6 <SystemCoreClockUpdate+0x12>
  40141e:	4a29      	ldr	r2, [pc, #164]	; (4014c4 <SystemCoreClockUpdate+0x100>)
  401420:	4b25      	ldr	r3, [pc, #148]	; (4014b8 <SystemCoreClockUpdate+0xf4>)
  401422:	601a      	str	r2, [r3, #0]
  401424:	4b23      	ldr	r3, [pc, #140]	; (4014b4 <SystemCoreClockUpdate+0xf0>)
  401426:	6a1b      	ldr	r3, [r3, #32]
  401428:	f003 0370 	and.w	r3, r3, #112	; 0x70
  40142c:	2b10      	cmp	r3, #16
  40142e:	d005      	beq.n	40143c <SystemCoreClockUpdate+0x78>
  401430:	2b20      	cmp	r3, #32
  401432:	d1d0      	bne.n	4013d6 <SystemCoreClockUpdate+0x12>
  401434:	4a22      	ldr	r2, [pc, #136]	; (4014c0 <SystemCoreClockUpdate+0xfc>)
  401436:	4b20      	ldr	r3, [pc, #128]	; (4014b8 <SystemCoreClockUpdate+0xf4>)
  401438:	601a      	str	r2, [r3, #0]
  40143a:	e7cc      	b.n	4013d6 <SystemCoreClockUpdate+0x12>
  40143c:	4a22      	ldr	r2, [pc, #136]	; (4014c8 <SystemCoreClockUpdate+0x104>)
  40143e:	4b1e      	ldr	r3, [pc, #120]	; (4014b8 <SystemCoreClockUpdate+0xf4>)
  401440:	601a      	str	r2, [r3, #0]
  401442:	e7c8      	b.n	4013d6 <SystemCoreClockUpdate+0x12>
  401444:	4b1b      	ldr	r3, [pc, #108]	; (4014b4 <SystemCoreClockUpdate+0xf0>)
  401446:	6a1b      	ldr	r3, [r3, #32]
  401448:	f013 7f80 	tst.w	r3, #16777216	; 0x1000000
  40144c:	d016      	beq.n	40147c <SystemCoreClockUpdate+0xb8>
  40144e:	4a1c      	ldr	r2, [pc, #112]	; (4014c0 <SystemCoreClockUpdate+0xfc>)
  401450:	4b19      	ldr	r3, [pc, #100]	; (4014b8 <SystemCoreClockUpdate+0xf4>)
  401452:	601a      	str	r2, [r3, #0]
  401454:	4b17      	ldr	r3, [pc, #92]	; (4014b4 <SystemCoreClockUpdate+0xf0>)
  401456:	6b1b      	ldr	r3, [r3, #48]	; 0x30
  401458:	f003 0303 	and.w	r3, r3, #3
  40145c:	2b02      	cmp	r3, #2
  40145e:	d1ba      	bne.n	4013d6 <SystemCoreClockUpdate+0x12>
  401460:	4a14      	ldr	r2, [pc, #80]	; (4014b4 <SystemCoreClockUpdate+0xf0>)
  401462:	6a91      	ldr	r1, [r2, #40]	; 0x28
  401464:	6a92      	ldr	r2, [r2, #40]	; 0x28
  401466:	4814      	ldr	r0, [pc, #80]	; (4014b8 <SystemCoreClockUpdate+0xf4>)
  401468:	f3c1 410a 	ubfx	r1, r1, #16, #11
  40146c:	6803      	ldr	r3, [r0, #0]
  40146e:	fb01 3303 	mla	r3, r1, r3, r3
  401472:	b2d2      	uxtb	r2, r2
  401474:	fbb3 f3f2 	udiv	r3, r3, r2
  401478:	6003      	str	r3, [r0, #0]
  40147a:	e7ac      	b.n	4013d6 <SystemCoreClockUpdate+0x12>
  40147c:	4a11      	ldr	r2, [pc, #68]	; (4014c4 <SystemCoreClockUpdate+0x100>)
  40147e:	4b0e      	ldr	r3, [pc, #56]	; (4014b8 <SystemCoreClockUpdate+0xf4>)
  401480:	601a      	str	r2, [r3, #0]
  401482:	4b0c      	ldr	r3, [pc, #48]	; (4014b4 <SystemCoreClockUpdate+0xf0>)
  401484:	6a1b      	ldr	r3, [r3, #32]
  401486:	f003 0370 	and.w	r3, r3, #112	; 0x70
  40148a:	2b10      	cmp	r3, #16
  40148c:	d005      	beq.n	40149a <SystemCoreClockUpdate+0xd6>
  40148e:	2b20      	cmp	r3, #32
  401490:	d1e0      	bne.n	401454 <SystemCoreClockUpdate+0x90>
  401492:	4a0b      	ldr	r2, [pc, #44]	; (4014c0 <SystemCoreClockUpdate+0xfc>)
  401494:	4b08      	ldr	r3, [pc, #32]	; (4014b8 <SystemCoreClockUpdate+0xf4>)
  401496:	601a      	str	r2, [r3, #0]
  401498:	e7dc      	b.n	401454 <SystemCoreClockUpdate+0x90>
  40149a:	4a0b      	ldr	r2, [pc, #44]	; (4014c8 <SystemCoreClockUpdate+0x104>)
  40149c:	4b06      	ldr	r3, [pc, #24]	; (4014b8 <SystemCoreClockUpdate+0xf4>)
  40149e:	601a      	str	r2, [r3, #0]
  4014a0:	e7d8      	b.n	401454 <SystemCoreClockUpdate+0x90>
  4014a2:	4a05      	ldr	r2, [pc, #20]	; (4014b8 <SystemCoreClockUpdate+0xf4>)
  4014a4:	6813      	ldr	r3, [r2, #0]
  4014a6:	4909      	ldr	r1, [pc, #36]	; (4014cc <SystemCoreClockUpdate+0x108>)
  4014a8:	fba1 1303 	umull	r1, r3, r1, r3
  4014ac:	085b      	lsrs	r3, r3, #1
  4014ae:	6013      	str	r3, [r2, #0]
  4014b0:	4770      	bx	lr
  4014b2:	bf00      	nop
  4014b4:	400e0600 	.word	0x400e0600
  4014b8:	2040001c 	.word	0x2040001c
  4014bc:	400e1810 	.word	0x400e1810
  4014c0:	00b71b00 	.word	0x00b71b00
  4014c4:	003d0900 	.word	0x003d0900
  4014c8:	007a1200 	.word	0x007a1200
  4014cc:	aaaaaaab 	.word	0xaaaaaaab

004014d0 <system_init_flash>:
  4014d0:	4b16      	ldr	r3, [pc, #88]	; (40152c <system_init_flash+0x5c>)
  4014d2:	4298      	cmp	r0, r3
  4014d4:	d913      	bls.n	4014fe <system_init_flash+0x2e>
  4014d6:	4b16      	ldr	r3, [pc, #88]	; (401530 <system_init_flash+0x60>)
  4014d8:	4298      	cmp	r0, r3
  4014da:	d915      	bls.n	401508 <system_init_flash+0x38>
  4014dc:	4b15      	ldr	r3, [pc, #84]	; (401534 <system_init_flash+0x64>)
  4014de:	4298      	cmp	r0, r3
  4014e0:	d916      	bls.n	401510 <system_init_flash+0x40>
  4014e2:	4b15      	ldr	r3, [pc, #84]	; (401538 <system_init_flash+0x68>)
  4014e4:	4298      	cmp	r0, r3
  4014e6:	d917      	bls.n	401518 <system_init_flash+0x48>
  4014e8:	4b14      	ldr	r3, [pc, #80]	; (40153c <system_init_flash+0x6c>)
  4014ea:	4298      	cmp	r0, r3
  4014ec:	d918      	bls.n	401520 <system_init_flash+0x50>
  4014ee:	4b14      	ldr	r3, [pc, #80]	; (401540 <system_init_flash+0x70>)
  4014f0:	4298      	cmp	r0, r3
  4014f2:	bf94      	ite	ls
  4014f4:	4a13      	ldrls	r2, [pc, #76]	; (401544 <system_init_flash+0x74>)
  4014f6:	4a14      	ldrhi	r2, [pc, #80]	; (401548 <system_init_flash+0x78>)
  4014f8:	4b14      	ldr	r3, [pc, #80]	; (40154c <system_init_flash+0x7c>)
  4014fa:	601a      	str	r2, [r3, #0]
  4014fc:	4770      	bx	lr
  4014fe:	f04f 6280 	mov.w	r2, #67108864	; 0x4000000
  401502:	4b12      	ldr	r3, [pc, #72]	; (40154c <system_init_flash+0x7c>)
  401504:	601a      	str	r2, [r3, #0]
  401506:	4770      	bx	lr
  401508:	4a11      	ldr	r2, [pc, #68]	; (401550 <system_init_flash+0x80>)
  40150a:	4b10      	ldr	r3, [pc, #64]	; (40154c <system_init_flash+0x7c>)
  40150c:	601a      	str	r2, [r3, #0]
  40150e:	4770      	bx	lr
  401510:	4a10      	ldr	r2, [pc, #64]	; (401554 <system_init_flash+0x84>)
  401512:	4b0e      	ldr	r3, [pc, #56]	; (40154c <system_init_flash+0x7c>)
  401514:	601a      	str	r2, [r3, #0]
  401516:	4770      	bx	lr
  401518:	4a0f      	ldr	r2, [pc, #60]	; (401558 <system_init_flash+0x88>)
  40151a:	4b0c      	ldr	r3, [pc, #48]	; (40154c <system_init_flash+0x7c>)
  40151c:	601a      	str	r2, [r3, #0]
  40151e:	4770      	bx	lr
  401520:	f04f 2204 	mov.w	r2, #67109888	; 0x4000400
  401524:	4b09      	ldr	r3, [pc, #36]	; (40154c <system_init_flash+0x7c>)
  401526:	601a      	str	r2, [r3, #0]
  401528:	4770      	bx	lr
  40152a:	bf00      	nop
  40152c:	015ef3bf 	.word	0x015ef3bf
  401530:	02bde77f 	.word	0x02bde77f
  401534:	041cdb3f 	.word	0x041cdb3f
  401538:	057bceff 	.word	0x057bceff
  40153c:	06dac2bf 	.word	0x06dac2bf
  401540:	0839b67f 	.word	0x0839b67f
  401544:	04000500 	.word	0x04000500
  401548:	04000600 	.word	0x04000600
  40154c:	400e0c00 	.word	0x400e0c00
  401550:	04000100 	.word	0x04000100
  401554:	04000200 	.word	0x04000200
  401558:	04000300 	.word	0x04000300

0040155c <_sbrk>:
  40155c:	4b0a      	ldr	r3, [pc, #40]	; (401588 <_sbrk+0x2c>)
  40155e:	681b      	ldr	r3, [r3, #0]
  401560:	b153      	cbz	r3, 401578 <_sbrk+0x1c>
  401562:	4b09      	ldr	r3, [pc, #36]	; (401588 <_sbrk+0x2c>)
  401564:	681b      	ldr	r3, [r3, #0]
  401566:	181a      	adds	r2, r3, r0
  401568:	4908      	ldr	r1, [pc, #32]	; (40158c <_sbrk+0x30>)
  40156a:	4291      	cmp	r1, r2
  40156c:	db08      	blt.n	401580 <_sbrk+0x24>
  40156e:	4610      	mov	r0, r2
  401570:	4a05      	ldr	r2, [pc, #20]	; (401588 <_sbrk+0x2c>)
  401572:	6010      	str	r0, [r2, #0]
  401574:	4618      	mov	r0, r3
  401576:	4770      	bx	lr
  401578:	4a05      	ldr	r2, [pc, #20]	; (401590 <_sbrk+0x34>)
  40157a:	4b03      	ldr	r3, [pc, #12]	; (401588 <_sbrk+0x2c>)
  40157c:	601a      	str	r2, [r3, #0]
  40157e:	e7f0      	b.n	401562 <_sbrk+0x6>
  401580:	f04f 30ff 	mov.w	r0, #4294967295
  401584:	4770      	bx	lr
  401586:	bf00      	nop
  401588:	20400c64 	.word	0x20400c64
  40158c:	2045fffc 	.word	0x2045fffc
  401590:	20402ee0 	.word	0x20402ee0

00401594 <BUT_Handler>:
	pmc_enable_periph_clk(LED1_PIO_ID);
	pio_set_output(LED1_PIO, LED1_PIN_MASK, state, 0, 0 );
};

static void BUT_Handler(uint32_t id, uint32_t mask)
{
  401594:	b510      	push	{r4, lr}
  401596:	b084      	sub	sp, #16
	pio_clear(LED1_PIO, LED1_PIN_MASK);
  401598:	2101      	movs	r1, #1
  40159a:	4811      	ldr	r0, [pc, #68]	; (4015e0 <BUT_Handler+0x4c>)
  40159c:	4b11      	ldr	r3, [pc, #68]	; (4015e4 <BUT_Handler+0x50>)
  40159e:	4798      	blx	r3
	if(flag_alarme){
  4015a0:	4b11      	ldr	r3, [pc, #68]	; (4015e8 <BUT_Handler+0x54>)
  4015a2:	781b      	ldrb	r3, [r3, #0]
  4015a4:	b9bb      	cbnz	r3, 4015d6 <BUT_Handler+0x42>
		second_Alarm += 2;
	}
	
	else{
		second_Alarm = second + 2;
  4015a6:	4b11      	ldr	r3, [pc, #68]	; (4015ec <BUT_Handler+0x58>)
  4015a8:	681b      	ldr	r3, [r3, #0]
  4015aa:	3302      	adds	r3, #2
  4015ac:	4a10      	ldr	r2, [pc, #64]	; (4015f0 <BUT_Handler+0x5c>)
  4015ae:	6013      	str	r3, [r2, #0]
		flag_alarme = 1;
  4015b0:	2201      	movs	r2, #1
  4015b2:	4b0d      	ldr	r3, [pc, #52]	; (4015e8 <BUT_Handler+0x54>)
  4015b4:	701a      	strb	r2, [r3, #0]
	}
	rtc_set_time_alarm(RTC, 1, hour, 1, minute, 1, second_Alarm);
  4015b6:	4b0f      	ldr	r3, [pc, #60]	; (4015f4 <BUT_Handler+0x60>)
  4015b8:	681a      	ldr	r2, [r3, #0]
  4015ba:	4b0d      	ldr	r3, [pc, #52]	; (4015f0 <BUT_Handler+0x5c>)
  4015bc:	681b      	ldr	r3, [r3, #0]
  4015be:	9302      	str	r3, [sp, #8]
  4015c0:	2101      	movs	r1, #1
  4015c2:	9101      	str	r1, [sp, #4]
  4015c4:	4b0c      	ldr	r3, [pc, #48]	; (4015f8 <BUT_Handler+0x64>)
  4015c6:	681b      	ldr	r3, [r3, #0]
  4015c8:	9300      	str	r3, [sp, #0]
  4015ca:	460b      	mov	r3, r1
  4015cc:	480b      	ldr	r0, [pc, #44]	; (4015fc <BUT_Handler+0x68>)
  4015ce:	4c0c      	ldr	r4, [pc, #48]	; (401600 <BUT_Handler+0x6c>)
  4015d0:	47a0      	blx	r4
}
  4015d2:	b004      	add	sp, #16
  4015d4:	bd10      	pop	{r4, pc}
		second_Alarm += 2;
  4015d6:	4a06      	ldr	r2, [pc, #24]	; (4015f0 <BUT_Handler+0x5c>)
  4015d8:	6813      	ldr	r3, [r2, #0]
  4015da:	3302      	adds	r3, #2
  4015dc:	6013      	str	r3, [r2, #0]
  4015de:	e7ea      	b.n	4015b6 <BUT_Handler+0x22>
  4015e0:	400e0e00 	.word	0x400e0e00
  4015e4:	00400e9d 	.word	0x00400e9d
  4015e8:	20400c68 	.word	0x20400c68
  4015ec:	20400ca4 	.word	0x20400ca4
  4015f0:	20400ca0 	.word	0x20400ca0
  4015f4:	20400cac 	.word	0x20400cac
  4015f8:	20400ca8 	.word	0x20400ca8
  4015fc:	400e1860 	.word	0x400e1860
  401600:	0040029d 	.word	0x0040029d

00401604 <led_toggle>:
void led_toggle(Pio *pio, uint32_t mask){
  401604:	e92d 43f8 	stmdb	sp!, {r3, r4, r5, r6, r7, r8, r9, lr}
  401608:	4606      	mov	r6, r0
  40160a:	460d      	mov	r5, r1
  40160c:	2405      	movs	r4, #5
		pio_set(pio,mask);
  40160e:	f8df 9034 	ldr.w	r9, [pc, #52]	; 401644 <led_toggle+0x40>
		delay_ms(40);
  401612:	f8df 8034 	ldr.w	r8, [pc, #52]	; 401648 <led_toggle+0x44>
  401616:	4f09      	ldr	r7, [pc, #36]	; (40163c <led_toggle+0x38>)
		pio_set(pio,mask);
  401618:	4629      	mov	r1, r5
  40161a:	4630      	mov	r0, r6
  40161c:	47c8      	blx	r9
		delay_ms(40);
  40161e:	4640      	mov	r0, r8
  401620:	47b8      	blx	r7
		pio_clear(pio, mask);
  401622:	4629      	mov	r1, r5
  401624:	4630      	mov	r0, r6
  401626:	4b06      	ldr	r3, [pc, #24]	; (401640 <led_toggle+0x3c>)
  401628:	4798      	blx	r3
		delay_ms(40);
  40162a:	4640      	mov	r0, r8
  40162c:	47b8      	blx	r7
		pio_set(pio,mask);
  40162e:	4629      	mov	r1, r5
  401630:	4630      	mov	r0, r6
  401632:	47c8      	blx	r9
	for(int i = 0; i < 5; i++){
  401634:	3c01      	subs	r4, #1
  401636:	d1ef      	bne.n	401618 <led_toggle+0x14>
}
  401638:	e8bd 83f8 	ldmia.w	sp!, {r3, r4, r5, r6, r7, r8, r9, pc}
  40163c:	20400001 	.word	0x20400001
  401640:	00400e9d 	.word	0x00400e9d
  401644:	00400e99 	.word	0x00400e99
  401648:	001ede0f 	.word	0x001ede0f

0040164c <RTC_init>:
void RTC_init(){
  40164c:	b530      	push	{r4, r5, lr}
  40164e:	b083      	sub	sp, #12
	pmc_enable_periph_clk(ID_RTC);
  401650:	2002      	movs	r0, #2
  401652:	4b11      	ldr	r3, [pc, #68]	; (401698 <RTC_init+0x4c>)
  401654:	4798      	blx	r3
	rtc_set_date(RTC, YEAR, MONTH, DAY, WEEK);
  401656:	4c11      	ldr	r4, [pc, #68]	; (40169c <RTC_init+0x50>)
  401658:	230c      	movs	r3, #12
  40165a:	9300      	str	r3, [sp, #0]
  40165c:	2313      	movs	r3, #19
  40165e:	2203      	movs	r2, #3
  401660:	f240 71e2 	movw	r1, #2018	; 0x7e2
  401664:	4620      	mov	r0, r4
  401666:	4d0e      	ldr	r5, [pc, #56]	; (4016a0 <RTC_init+0x54>)
  401668:	47a8      	blx	r5
	rtc_set_time(RTC, HOUR, MINUTE, SECOND);
  40166a:	2300      	movs	r3, #0
  40166c:	222d      	movs	r2, #45	; 0x2d
  40166e:	210f      	movs	r1, #15
  401670:	4620      	mov	r0, r4
  401672:	4d0c      	ldr	r5, [pc, #48]	; (4016a4 <RTC_init+0x58>)
  401674:	47a8      	blx	r5

    \param [in]      IRQn  External interrupt number. Value cannot be negative.
 */
__STATIC_INLINE void NVIC_DisableIRQ(IRQn_Type IRQn)
{
  NVIC->ICER[((uint32_t)(IRQn) >> 5)] = (1 << ((uint32_t)(IRQn) & 0x1F)); /* disable interrupt */
  401676:	4b0c      	ldr	r3, [pc, #48]	; (4016a8 <RTC_init+0x5c>)
  401678:	2204      	movs	r2, #4
  40167a:	f8c3 2080 	str.w	r2, [r3, #128]	; 0x80

    \param [in]      IRQn  External interrupt number. Value cannot be negative.
 */
__STATIC_INLINE void NVIC_ClearPendingIRQ(IRQn_Type IRQn)
{
  NVIC->ICPR[((uint32_t)(IRQn) >> 5)] = (1 << ((uint32_t)(IRQn) & 0x1F)); /* Clear pending interrupt */
  40167e:	f8c3 2180 	str.w	r2, [r3, #384]	; 0x180
__STATIC_INLINE void NVIC_SetPriority(IRQn_Type IRQn, uint32_t priority)
{
  if(IRQn < 0) {
    SCB->SHPR[((uint32_t)(IRQn) & 0xF)-4] = ((priority << (8 - __NVIC_PRIO_BITS)) & 0xff); } /* set Priority for Cortex-M  System Interrupts */
  else {
    NVIC->IP[(uint32_t)(IRQn)]            = ((priority << (8 - __NVIC_PRIO_BITS)) & 0xff); } /* set Priority for device specific Interrupts  */
  401682:	2100      	movs	r1, #0
  401684:	f883 1302 	strb.w	r1, [r3, #770]	; 0x302
  NVIC->ISER[(uint32_t)((int32_t)IRQn) >> 5] = (uint32_t)(1 << ((uint32_t)((int32_t)IRQn) & (uint32_t)0x1F)); /* enable interrupt */
  401688:	601a      	str	r2, [r3, #0]
	rtc_enable_interrupt(RTC, RTC_IER_ALREN | RTC_IER_SECEN);
  40168a:	2106      	movs	r1, #6
  40168c:	4620      	mov	r0, r4
  40168e:	4b07      	ldr	r3, [pc, #28]	; (4016ac <RTC_init+0x60>)
  401690:	4798      	blx	r3
}
  401692:	b003      	add	sp, #12
  401694:	bd30      	pop	{r4, r5, pc}
  401696:	bf00      	nop
  401698:	004012a5 	.word	0x004012a5
  40169c:	400e1860 	.word	0x400e1860
  4016a0:	00400331 	.word	0x00400331
  4016a4:	0040020d 	.word	0x0040020d
  4016a8:	e000e100 	.word	0xe000e100
  4016ac:	004001ad 	.word	0x004001ad

004016b0 <RTC_Handler>:
{
  4016b0:	b5f8      	push	{r3, r4, r5, r6, r7, lr}
	uint32_t ul_status = rtc_get_status(RTC);
  4016b2:	4825      	ldr	r0, [pc, #148]	; (401748 <RTC_Handler+0x98>)
  4016b4:	4b25      	ldr	r3, [pc, #148]	; (40174c <RTC_Handler+0x9c>)
  4016b6:	4798      	blx	r3
  4016b8:	4604      	mov	r4, r0
	if((ul_status & RTC_SR_SEC) == RTC_SR_SEC){
  4016ba:	f010 0f04 	tst.w	r0, #4
  4016be:	d111      	bne.n	4016e4 <RTC_Handler+0x34>
	if ((ul_status & RTC_SR_ALARM) == RTC_SR_ALARM) {
  4016c0:	f014 0f02 	tst.w	r4, #2
  4016c4:	d12c      	bne.n	401720 <RTC_Handler+0x70>
	rtc_clear_status(RTC, RTC_SCCR_ACKCLR);
  4016c6:	4d20      	ldr	r5, [pc, #128]	; (401748 <RTC_Handler+0x98>)
  4016c8:	2101      	movs	r1, #1
  4016ca:	4628      	mov	r0, r5
  4016cc:	4c20      	ldr	r4, [pc, #128]	; (401750 <RTC_Handler+0xa0>)
  4016ce:	47a0      	blx	r4
	rtc_clear_status(RTC, RTC_SCCR_TIMCLR);
  4016d0:	2108      	movs	r1, #8
  4016d2:	4628      	mov	r0, r5
  4016d4:	47a0      	blx	r4
	rtc_clear_status(RTC, RTC_SCCR_CALCLR);
  4016d6:	2110      	movs	r1, #16
  4016d8:	4628      	mov	r0, r5
  4016da:	47a0      	blx	r4
	rtc_clear_status(RTC, RTC_SCCR_TDERRCLR);
  4016dc:	2120      	movs	r1, #32
  4016de:	4628      	mov	r0, r5
  4016e0:	47a0      	blx	r4
  4016e2:	bdf8      	pop	{r3, r4, r5, r6, r7, pc}
		rtc_clear_status(RTC, RTC_SCCR_SECCLR);
  4016e4:	4e18      	ldr	r6, [pc, #96]	; (401748 <RTC_Handler+0x98>)
  4016e6:	2104      	movs	r1, #4
  4016e8:	4630      	mov	r0, r6
  4016ea:	4b19      	ldr	r3, [pc, #100]	; (401750 <RTC_Handler+0xa0>)
  4016ec:	4798      	blx	r3
		uint32_t minuteAt = minute;	
  4016ee:	4d19      	ldr	r5, [pc, #100]	; (401754 <RTC_Handler+0xa4>)
  4016f0:	682f      	ldr	r7, [r5, #0]
		rtc_get_time(RTC, &hour, &minute, &second);
  4016f2:	4b19      	ldr	r3, [pc, #100]	; (401758 <RTC_Handler+0xa8>)
  4016f4:	462a      	mov	r2, r5
  4016f6:	4919      	ldr	r1, [pc, #100]	; (40175c <RTC_Handler+0xac>)
  4016f8:	4630      	mov	r0, r6
  4016fa:	4e19      	ldr	r6, [pc, #100]	; (401760 <RTC_Handler+0xb0>)
  4016fc:	47b0      	blx	r6
		if(minute != minuteAt){
  4016fe:	682b      	ldr	r3, [r5, #0]
  401700:	429f      	cmp	r7, r3
  401702:	d0dd      	beq.n	4016c0 <RTC_Handler+0x10>
			sprintf(s,"%d:%d", hour, minute);
  401704:	4d17      	ldr	r5, [pc, #92]	; (401764 <RTC_Handler+0xb4>)
  401706:	4a15      	ldr	r2, [pc, #84]	; (40175c <RTC_Handler+0xac>)
  401708:	6812      	ldr	r2, [r2, #0]
  40170a:	4917      	ldr	r1, [pc, #92]	; (401768 <RTC_Handler+0xb8>)
  40170c:	4628      	mov	r0, r5
  40170e:	4e17      	ldr	r6, [pc, #92]	; (40176c <RTC_Handler+0xbc>)
  401710:	47b0      	blx	r6
			gfx_mono_draw_string(s, 0, 0, &sysfont);
  401712:	4b17      	ldr	r3, [pc, #92]	; (401770 <RTC_Handler+0xc0>)
  401714:	2200      	movs	r2, #0
  401716:	4611      	mov	r1, r2
  401718:	4628      	mov	r0, r5
  40171a:	4d16      	ldr	r5, [pc, #88]	; (401774 <RTC_Handler+0xc4>)
  40171c:	47a8      	blx	r5
  40171e:	e7cf      	b.n	4016c0 <RTC_Handler+0x10>
		rtc_clear_status(RTC, RTC_SCCR_ALRCLR);
  401720:	2102      	movs	r1, #2
  401722:	4809      	ldr	r0, [pc, #36]	; (401748 <RTC_Handler+0x98>)
  401724:	4b0a      	ldr	r3, [pc, #40]	; (401750 <RTC_Handler+0xa0>)
  401726:	4798      	blx	r3
		if(second_Alarm == second){
  401728:	4b13      	ldr	r3, [pc, #76]	; (401778 <RTC_Handler+0xc8>)
  40172a:	681a      	ldr	r2, [r3, #0]
  40172c:	4b0a      	ldr	r3, [pc, #40]	; (401758 <RTC_Handler+0xa8>)
  40172e:	681b      	ldr	r3, [r3, #0]
  401730:	429a      	cmp	r2, r3
  401732:	d1c8      	bne.n	4016c6 <RTC_Handler+0x16>
			led_toggle(LED1_PIO, LED1_PIN_MASK);
  401734:	2101      	movs	r1, #1
  401736:	4811      	ldr	r0, [pc, #68]	; (40177c <RTC_Handler+0xcc>)
  401738:	4b11      	ldr	r3, [pc, #68]	; (401780 <RTC_Handler+0xd0>)
  40173a:	4798      	blx	r3
			flag_alarme = 0;
  40173c:	2300      	movs	r3, #0
  40173e:	4a11      	ldr	r2, [pc, #68]	; (401784 <RTC_Handler+0xd4>)
  401740:	7013      	strb	r3, [r2, #0]
			second_Alarm = 0;
  401742:	4a0d      	ldr	r2, [pc, #52]	; (401778 <RTC_Handler+0xc8>)
  401744:	6013      	str	r3, [r2, #0]
  401746:	e7be      	b.n	4016c6 <RTC_Handler+0x16>
  401748:	400e1860 	.word	0x400e1860
  40174c:	004003e9 	.word	0x004003e9
  401750:	004003ed 	.word	0x004003ed
  401754:	20400ca8 	.word	0x20400ca8
  401758:	20400ca4 	.word	0x20400ca4
  40175c:	20400cac 	.word	0x20400cac
  401760:	004001b1 	.word	0x004001b1
  401764:	20400cb0 	.word	0x20400cb0
  401768:	00407220 	.word	0x00407220
  40176c:	00401951 	.word	0x00401951
  401770:	2040000c 	.word	0x2040000c
  401774:	004008d9 	.word	0x004008d9
  401778:	20400ca0 	.word	0x20400ca0
  40177c:	400e0e00 	.word	0x400e0e00
  401780:	00401605 	.word	0x00401605
  401784:	20400c68 	.word	0x20400c68

00401788 <LED_init>:
void LED_init(int state){
  401788:	b510      	push	{r4, lr}
  40178a:	b082      	sub	sp, #8
  40178c:	4604      	mov	r4, r0
	pmc_enable_periph_clk(LED1_PIO_ID);
  40178e:	200a      	movs	r0, #10
  401790:	4b05      	ldr	r3, [pc, #20]	; (4017a8 <LED_init+0x20>)
  401792:	4798      	blx	r3
	pio_set_output(LED1_PIO, LED1_PIN_MASK, state, 0, 0 );
  401794:	2300      	movs	r3, #0
  401796:	9300      	str	r3, [sp, #0]
  401798:	4622      	mov	r2, r4
  40179a:	2101      	movs	r1, #1
  40179c:	4803      	ldr	r0, [pc, #12]	; (4017ac <LED_init+0x24>)
  40179e:	4c04      	ldr	r4, [pc, #16]	; (4017b0 <LED_init+0x28>)
  4017a0:	47a0      	blx	r4
};
  4017a2:	b002      	add	sp, #8
  4017a4:	bd10      	pop	{r4, pc}
  4017a6:	bf00      	nop
  4017a8:	004012a5 	.word	0x004012a5
  4017ac:	400e0e00 	.word	0x400e0e00
  4017b0:	00400f69 	.word	0x00400f69

004017b4 <BUT_init>:


void BUT_init(void){
  4017b4:	b510      	push	{r4, lr}
  4017b6:	b082      	sub	sp, #8
	pmc_enable_periph_clk(BUT_PIO_ID);
  4017b8:	2010      	movs	r0, #16
  4017ba:	4b10      	ldr	r3, [pc, #64]	; (4017fc <BUT_init+0x48>)
  4017bc:	4798      	blx	r3
	pio_set_input(BUT_PIO, BUT_PIN_MASK, PIO_PULLUP | PIO_DEBOUNCE);
  4017be:	4c10      	ldr	r4, [pc, #64]	; (401800 <BUT_init+0x4c>)
  4017c0:	2209      	movs	r2, #9
  4017c2:	f04f 5180 	mov.w	r1, #268435456	; 0x10000000
  4017c6:	4620      	mov	r0, r4
  4017c8:	4b0e      	ldr	r3, [pc, #56]	; (401804 <BUT_init+0x50>)
  4017ca:	4798      	blx	r3
	
	pio_enable_interrupt(BUT_PIO, BUT_PIN_MASK);
  4017cc:	f04f 5180 	mov.w	r1, #268435456	; 0x10000000
  4017d0:	4620      	mov	r0, r4
  4017d2:	4b0d      	ldr	r3, [pc, #52]	; (401808 <BUT_init+0x54>)
  4017d4:	4798      	blx	r3
	pio_handler_set(BUT_PIO, BUT_PIO_ID, BUT_PIN_MASK, PIO_IT_FALL_EDGE, BUT_Handler);
  4017d6:	4b0d      	ldr	r3, [pc, #52]	; (40180c <BUT_init+0x58>)
  4017d8:	9300      	str	r3, [sp, #0]
  4017da:	2350      	movs	r3, #80	; 0x50
  4017dc:	f04f 5280 	mov.w	r2, #268435456	; 0x10000000
  4017e0:	2110      	movs	r1, #16
  4017e2:	4620      	mov	r0, r4
  4017e4:	4c0a      	ldr	r4, [pc, #40]	; (401810 <BUT_init+0x5c>)
  4017e6:	47a0      	blx	r4
  4017e8:	4b0a      	ldr	r3, [pc, #40]	; (401814 <BUT_init+0x60>)
  4017ea:	f44f 3280 	mov.w	r2, #65536	; 0x10000
  4017ee:	601a      	str	r2, [r3, #0]
    NVIC->IP[(uint32_t)(IRQn)]            = ((priority << (8 - __NVIC_PRIO_BITS)) & 0xff); } /* set Priority for device specific Interrupts  */
  4017f0:	2220      	movs	r2, #32
  4017f2:	f883 2310 	strb.w	r2, [r3, #784]	; 0x310
	
	NVIC_EnableIRQ(BUT_PIO_ID);
	NVIC_SetPriority(BUT_PIO_ID, 1);
}
  4017f6:	b002      	add	sp, #8
  4017f8:	bd10      	pop	{r4, pc}
  4017fa:	bf00      	nop
  4017fc:	004012a5 	.word	0x004012a5
  401800:	400e1400 	.word	0x400e1400
  401804:	00400f33 	.word	0x00400f33
  401808:	00401053 	.word	0x00401053
  40180c:	00401595 	.word	0x00401595
  401810:	004010b1 	.word	0x004010b1
  401814:	e000e100 	.word	0xe000e100

00401818 <main>:

int main (void)
{
  401818:	b500      	push	{lr}
  40181a:	b083      	sub	sp, #12
	board_init();
  40181c:	4b0a      	ldr	r3, [pc, #40]	; (401848 <main+0x30>)
  40181e:	4798      	blx	r3
	sysclk_init();
  401820:	4b0a      	ldr	r3, [pc, #40]	; (40184c <main+0x34>)
  401822:	4798      	blx	r3
	delay_init();

	gfx_mono_ssd1306_init();
  401824:	4b0a      	ldr	r3, [pc, #40]	; (401850 <main+0x38>)
  401826:	4798      	blx	r3
	gfx_mono_draw_filled_circle(115, 5, 5, GFX_PIXEL_SET, GFX_WHOLE);	
  401828:	23ff      	movs	r3, #255	; 0xff
  40182a:	9300      	str	r3, [sp, #0]
  40182c:	2301      	movs	r3, #1
  40182e:	2205      	movs	r2, #5
  401830:	4611      	mov	r1, r2
  401832:	2073      	movs	r0, #115	; 0x73
  401834:	4c07      	ldr	r4, [pc, #28]	; (401854 <main+0x3c>)
  401836:	47a0      	blx	r4

	BUT_init();
  401838:	4b07      	ldr	r3, [pc, #28]	; (401858 <main+0x40>)
  40183a:	4798      	blx	r3
	LED_init(1);
  40183c:	2001      	movs	r0, #1
  40183e:	4b07      	ldr	r3, [pc, #28]	; (40185c <main+0x44>)
  401840:	4798      	blx	r3
	RTC_init();
  401842:	4b07      	ldr	r3, [pc, #28]	; (401860 <main+0x48>)
  401844:	4798      	blx	r3
  401846:	e7fe      	b.n	401846 <main+0x2e>
  401848:	00400d59 	.word	0x00400d59
  40184c:	00400ce9 	.word	0x00400ce9
  401850:	00400971 	.word	0x00400971
  401854:	00400711 	.word	0x00400711
  401858:	004017b5 	.word	0x004017b5
  40185c:	00401789 	.word	0x00401789
  401860:	0040164d 	.word	0x0040164d

00401864 <__libc_init_array>:
  401864:	b570      	push	{r4, r5, r6, lr}
  401866:	4e0f      	ldr	r6, [pc, #60]	; (4018a4 <__libc_init_array+0x40>)
  401868:	4d0f      	ldr	r5, [pc, #60]	; (4018a8 <__libc_init_array+0x44>)
  40186a:	1b76      	subs	r6, r6, r5
  40186c:	10b6      	asrs	r6, r6, #2
  40186e:	bf18      	it	ne
  401870:	2400      	movne	r4, #0
  401872:	d005      	beq.n	401880 <__libc_init_array+0x1c>
  401874:	3401      	adds	r4, #1
  401876:	f855 3b04 	ldr.w	r3, [r5], #4
  40187a:	4798      	blx	r3
  40187c:	42a6      	cmp	r6, r4
  40187e:	d1f9      	bne.n	401874 <__libc_init_array+0x10>
  401880:	4e0a      	ldr	r6, [pc, #40]	; (4018ac <__libc_init_array+0x48>)
  401882:	4d0b      	ldr	r5, [pc, #44]	; (4018b0 <__libc_init_array+0x4c>)
  401884:	1b76      	subs	r6, r6, r5
  401886:	f005 fe13 	bl	4074b0 <_init>
  40188a:	10b6      	asrs	r6, r6, #2
  40188c:	bf18      	it	ne
  40188e:	2400      	movne	r4, #0
  401890:	d006      	beq.n	4018a0 <__libc_init_array+0x3c>
  401892:	3401      	adds	r4, #1
  401894:	f855 3b04 	ldr.w	r3, [r5], #4
  401898:	4798      	blx	r3
  40189a:	42a6      	cmp	r6, r4
  40189c:	d1f9      	bne.n	401892 <__libc_init_array+0x2e>
  40189e:	bd70      	pop	{r4, r5, r6, pc}
  4018a0:	bd70      	pop	{r4, r5, r6, pc}
  4018a2:	bf00      	nop
  4018a4:	004074bc 	.word	0x004074bc
  4018a8:	004074bc 	.word	0x004074bc
  4018ac:	004074c4 	.word	0x004074c4
  4018b0:	004074bc 	.word	0x004074bc

004018b4 <memset>:
  4018b4:	b470      	push	{r4, r5, r6}
  4018b6:	0786      	lsls	r6, r0, #30
  4018b8:	d046      	beq.n	401948 <memset+0x94>
  4018ba:	1e54      	subs	r4, r2, #1
  4018bc:	2a00      	cmp	r2, #0
  4018be:	d041      	beq.n	401944 <memset+0x90>
  4018c0:	b2ca      	uxtb	r2, r1
  4018c2:	4603      	mov	r3, r0
  4018c4:	e002      	b.n	4018cc <memset+0x18>
  4018c6:	f114 34ff 	adds.w	r4, r4, #4294967295
  4018ca:	d33b      	bcc.n	401944 <memset+0x90>
  4018cc:	f803 2b01 	strb.w	r2, [r3], #1
  4018d0:	079d      	lsls	r5, r3, #30
  4018d2:	d1f8      	bne.n	4018c6 <memset+0x12>
  4018d4:	2c03      	cmp	r4, #3
  4018d6:	d92e      	bls.n	401936 <memset+0x82>
  4018d8:	b2cd      	uxtb	r5, r1
  4018da:	ea45 2505 	orr.w	r5, r5, r5, lsl #8
  4018de:	2c0f      	cmp	r4, #15
  4018e0:	ea45 4505 	orr.w	r5, r5, r5, lsl #16
  4018e4:	d919      	bls.n	40191a <memset+0x66>
  4018e6:	f103 0210 	add.w	r2, r3, #16
  4018ea:	4626      	mov	r6, r4
  4018ec:	3e10      	subs	r6, #16
  4018ee:	2e0f      	cmp	r6, #15
  4018f0:	f842 5c10 	str.w	r5, [r2, #-16]
  4018f4:	f842 5c0c 	str.w	r5, [r2, #-12]
  4018f8:	f842 5c08 	str.w	r5, [r2, #-8]
  4018fc:	f842 5c04 	str.w	r5, [r2, #-4]
  401900:	f102 0210 	add.w	r2, r2, #16
  401904:	d8f2      	bhi.n	4018ec <memset+0x38>
  401906:	f1a4 0210 	sub.w	r2, r4, #16
  40190a:	f022 020f 	bic.w	r2, r2, #15
  40190e:	f004 040f 	and.w	r4, r4, #15
  401912:	3210      	adds	r2, #16
  401914:	2c03      	cmp	r4, #3
  401916:	4413      	add	r3, r2
  401918:	d90d      	bls.n	401936 <memset+0x82>
  40191a:	461e      	mov	r6, r3
  40191c:	4622      	mov	r2, r4
  40191e:	3a04      	subs	r2, #4
  401920:	2a03      	cmp	r2, #3
  401922:	f846 5b04 	str.w	r5, [r6], #4
  401926:	d8fa      	bhi.n	40191e <memset+0x6a>
  401928:	1f22      	subs	r2, r4, #4
  40192a:	f022 0203 	bic.w	r2, r2, #3
  40192e:	3204      	adds	r2, #4
  401930:	4413      	add	r3, r2
  401932:	f004 0403 	and.w	r4, r4, #3
  401936:	b12c      	cbz	r4, 401944 <memset+0x90>
  401938:	b2c9      	uxtb	r1, r1
  40193a:	441c      	add	r4, r3
  40193c:	f803 1b01 	strb.w	r1, [r3], #1
  401940:	429c      	cmp	r4, r3
  401942:	d1fb      	bne.n	40193c <memset+0x88>
  401944:	bc70      	pop	{r4, r5, r6}
  401946:	4770      	bx	lr
  401948:	4614      	mov	r4, r2
  40194a:	4603      	mov	r3, r0
  40194c:	e7c2      	b.n	4018d4 <memset+0x20>
  40194e:	bf00      	nop

00401950 <sprintf>:
  401950:	b40e      	push	{r1, r2, r3}
  401952:	b5f0      	push	{r4, r5, r6, r7, lr}
  401954:	b09c      	sub	sp, #112	; 0x70
  401956:	ab21      	add	r3, sp, #132	; 0x84
  401958:	490f      	ldr	r1, [pc, #60]	; (401998 <sprintf+0x48>)
  40195a:	f853 2b04 	ldr.w	r2, [r3], #4
  40195e:	9301      	str	r3, [sp, #4]
  401960:	4605      	mov	r5, r0
  401962:	f06f 4400 	mvn.w	r4, #2147483648	; 0x80000000
  401966:	6808      	ldr	r0, [r1, #0]
  401968:	9502      	str	r5, [sp, #8]
  40196a:	f44f 7702 	mov.w	r7, #520	; 0x208
  40196e:	f64f 76ff 	movw	r6, #65535	; 0xffff
  401972:	a902      	add	r1, sp, #8
  401974:	9506      	str	r5, [sp, #24]
  401976:	f8ad 7014 	strh.w	r7, [sp, #20]
  40197a:	9404      	str	r4, [sp, #16]
  40197c:	9407      	str	r4, [sp, #28]
  40197e:	f8ad 6016 	strh.w	r6, [sp, #22]
  401982:	f000 f80b 	bl	40199c <_svfprintf_r>
  401986:	9b02      	ldr	r3, [sp, #8]
  401988:	2200      	movs	r2, #0
  40198a:	701a      	strb	r2, [r3, #0]
  40198c:	b01c      	add	sp, #112	; 0x70
  40198e:	e8bd 40f0 	ldmia.w	sp!, {r4, r5, r6, r7, lr}
  401992:	b003      	add	sp, #12
  401994:	4770      	bx	lr
  401996:	bf00      	nop
  401998:	20400020 	.word	0x20400020

0040199c <_svfprintf_r>:
  40199c:	e92d 4ff0 	stmdb	sp!, {r4, r5, r6, r7, r8, r9, sl, fp, lr}
  4019a0:	b0c3      	sub	sp, #268	; 0x10c
  4019a2:	460c      	mov	r4, r1
  4019a4:	910b      	str	r1, [sp, #44]	; 0x2c
  4019a6:	4692      	mov	sl, r2
  4019a8:	930f      	str	r3, [sp, #60]	; 0x3c
  4019aa:	900c      	str	r0, [sp, #48]	; 0x30
  4019ac:	f002 fa0c 	bl	403dc8 <_localeconv_r>
  4019b0:	6803      	ldr	r3, [r0, #0]
  4019b2:	931a      	str	r3, [sp, #104]	; 0x68
  4019b4:	4618      	mov	r0, r3
  4019b6:	f003 f8e3 	bl	404b80 <strlen>
  4019ba:	89a3      	ldrh	r3, [r4, #12]
  4019bc:	9019      	str	r0, [sp, #100]	; 0x64
  4019be:	0619      	lsls	r1, r3, #24
  4019c0:	d503      	bpl.n	4019ca <_svfprintf_r+0x2e>
  4019c2:	6923      	ldr	r3, [r4, #16]
  4019c4:	2b00      	cmp	r3, #0
  4019c6:	f001 8003 	beq.w	4029d0 <_svfprintf_r+0x1034>
  4019ca:	2300      	movs	r3, #0
  4019cc:	f10d 09c8 	add.w	r9, sp, #200	; 0xc8
  4019d0:	9313      	str	r3, [sp, #76]	; 0x4c
  4019d2:	9315      	str	r3, [sp, #84]	; 0x54
  4019d4:	9314      	str	r3, [sp, #80]	; 0x50
  4019d6:	9327      	str	r3, [sp, #156]	; 0x9c
  4019d8:	9326      	str	r3, [sp, #152]	; 0x98
  4019da:	9318      	str	r3, [sp, #96]	; 0x60
  4019dc:	931b      	str	r3, [sp, #108]	; 0x6c
  4019de:	9309      	str	r3, [sp, #36]	; 0x24
  4019e0:	f8cd 9094 	str.w	r9, [sp, #148]	; 0x94
  4019e4:	46c8      	mov	r8, r9
  4019e6:	9316      	str	r3, [sp, #88]	; 0x58
  4019e8:	9317      	str	r3, [sp, #92]	; 0x5c
  4019ea:	f89a 3000 	ldrb.w	r3, [sl]
  4019ee:	4654      	mov	r4, sl
  4019f0:	b1e3      	cbz	r3, 401a2c <_svfprintf_r+0x90>
  4019f2:	2b25      	cmp	r3, #37	; 0x25
  4019f4:	d102      	bne.n	4019fc <_svfprintf_r+0x60>
  4019f6:	e019      	b.n	401a2c <_svfprintf_r+0x90>
  4019f8:	2b25      	cmp	r3, #37	; 0x25
  4019fa:	d003      	beq.n	401a04 <_svfprintf_r+0x68>
  4019fc:	f814 3f01 	ldrb.w	r3, [r4, #1]!
  401a00:	2b00      	cmp	r3, #0
  401a02:	d1f9      	bne.n	4019f8 <_svfprintf_r+0x5c>
  401a04:	eba4 050a 	sub.w	r5, r4, sl
  401a08:	b185      	cbz	r5, 401a2c <_svfprintf_r+0x90>
  401a0a:	9b26      	ldr	r3, [sp, #152]	; 0x98
  401a0c:	9a27      	ldr	r2, [sp, #156]	; 0x9c
  401a0e:	f8c8 a000 	str.w	sl, [r8]
  401a12:	3301      	adds	r3, #1
  401a14:	442a      	add	r2, r5
  401a16:	2b07      	cmp	r3, #7
  401a18:	f8c8 5004 	str.w	r5, [r8, #4]
  401a1c:	9227      	str	r2, [sp, #156]	; 0x9c
  401a1e:	9326      	str	r3, [sp, #152]	; 0x98
  401a20:	dc7f      	bgt.n	401b22 <_svfprintf_r+0x186>
  401a22:	f108 0808 	add.w	r8, r8, #8
  401a26:	9b09      	ldr	r3, [sp, #36]	; 0x24
  401a28:	442b      	add	r3, r5
  401a2a:	9309      	str	r3, [sp, #36]	; 0x24
  401a2c:	7823      	ldrb	r3, [r4, #0]
  401a2e:	2b00      	cmp	r3, #0
  401a30:	d07f      	beq.n	401b32 <_svfprintf_r+0x196>
  401a32:	2300      	movs	r3, #0
  401a34:	461a      	mov	r2, r3
  401a36:	f88d 3077 	strb.w	r3, [sp, #119]	; 0x77
  401a3a:	4619      	mov	r1, r3
  401a3c:	930d      	str	r3, [sp, #52]	; 0x34
  401a3e:	469b      	mov	fp, r3
  401a40:	f04f 30ff 	mov.w	r0, #4294967295
  401a44:	7863      	ldrb	r3, [r4, #1]
  401a46:	900a      	str	r0, [sp, #40]	; 0x28
  401a48:	f104 0a01 	add.w	sl, r4, #1
  401a4c:	f10a 0a01 	add.w	sl, sl, #1
  401a50:	f1a3 0020 	sub.w	r0, r3, #32
  401a54:	2858      	cmp	r0, #88	; 0x58
  401a56:	f200 83c1 	bhi.w	4021dc <_svfprintf_r+0x840>
  401a5a:	e8df f010 	tbh	[pc, r0, lsl #1]
  401a5e:	0238      	.short	0x0238
  401a60:	03bf03bf 	.word	0x03bf03bf
  401a64:	03bf0240 	.word	0x03bf0240
  401a68:	03bf03bf 	.word	0x03bf03bf
  401a6c:	03bf03bf 	.word	0x03bf03bf
  401a70:	024503bf 	.word	0x024503bf
  401a74:	03bf0203 	.word	0x03bf0203
  401a78:	026b005d 	.word	0x026b005d
  401a7c:	028603bf 	.word	0x028603bf
  401a80:	039d039d 	.word	0x039d039d
  401a84:	039d039d 	.word	0x039d039d
  401a88:	039d039d 	.word	0x039d039d
  401a8c:	039d039d 	.word	0x039d039d
  401a90:	03bf039d 	.word	0x03bf039d
  401a94:	03bf03bf 	.word	0x03bf03bf
  401a98:	03bf03bf 	.word	0x03bf03bf
  401a9c:	03bf03bf 	.word	0x03bf03bf
  401aa0:	03bf03bf 	.word	0x03bf03bf
  401aa4:	033703bf 	.word	0x033703bf
  401aa8:	03bf0357 	.word	0x03bf0357
  401aac:	03bf0357 	.word	0x03bf0357
  401ab0:	03bf03bf 	.word	0x03bf03bf
  401ab4:	039803bf 	.word	0x039803bf
  401ab8:	03bf03bf 	.word	0x03bf03bf
  401abc:	03bf03ad 	.word	0x03bf03ad
  401ac0:	03bf03bf 	.word	0x03bf03bf
  401ac4:	03bf03bf 	.word	0x03bf03bf
  401ac8:	03bf0259 	.word	0x03bf0259
  401acc:	031e03bf 	.word	0x031e03bf
  401ad0:	03bf03bf 	.word	0x03bf03bf
  401ad4:	03bf03bf 	.word	0x03bf03bf
  401ad8:	03bf03bf 	.word	0x03bf03bf
  401adc:	03bf03bf 	.word	0x03bf03bf
  401ae0:	03bf03bf 	.word	0x03bf03bf
  401ae4:	02db02c6 	.word	0x02db02c6
  401ae8:	03570357 	.word	0x03570357
  401aec:	028b0357 	.word	0x028b0357
  401af0:	03bf02db 	.word	0x03bf02db
  401af4:	029003bf 	.word	0x029003bf
  401af8:	029d03bf 	.word	0x029d03bf
  401afc:	02b401cc 	.word	0x02b401cc
  401b00:	03bf0208 	.word	0x03bf0208
  401b04:	03bf01e1 	.word	0x03bf01e1
  401b08:	03bf007e 	.word	0x03bf007e
  401b0c:	020d03bf 	.word	0x020d03bf
  401b10:	980d      	ldr	r0, [sp, #52]	; 0x34
  401b12:	930f      	str	r3, [sp, #60]	; 0x3c
  401b14:	4240      	negs	r0, r0
  401b16:	900d      	str	r0, [sp, #52]	; 0x34
  401b18:	f04b 0b04 	orr.w	fp, fp, #4
  401b1c:	f89a 3000 	ldrb.w	r3, [sl]
  401b20:	e794      	b.n	401a4c <_svfprintf_r+0xb0>
  401b22:	aa25      	add	r2, sp, #148	; 0x94
  401b24:	990b      	ldr	r1, [sp, #44]	; 0x2c
  401b26:	980c      	ldr	r0, [sp, #48]	; 0x30
  401b28:	f003 f898 	bl	404c5c <__ssprint_r>
  401b2c:	b940      	cbnz	r0, 401b40 <_svfprintf_r+0x1a4>
  401b2e:	46c8      	mov	r8, r9
  401b30:	e779      	b.n	401a26 <_svfprintf_r+0x8a>
  401b32:	9b27      	ldr	r3, [sp, #156]	; 0x9c
  401b34:	b123      	cbz	r3, 401b40 <_svfprintf_r+0x1a4>
  401b36:	980c      	ldr	r0, [sp, #48]	; 0x30
  401b38:	990b      	ldr	r1, [sp, #44]	; 0x2c
  401b3a:	aa25      	add	r2, sp, #148	; 0x94
  401b3c:	f003 f88e 	bl	404c5c <__ssprint_r>
  401b40:	9b0b      	ldr	r3, [sp, #44]	; 0x2c
  401b42:	899b      	ldrh	r3, [r3, #12]
  401b44:	f013 0f40 	tst.w	r3, #64	; 0x40
  401b48:	9b09      	ldr	r3, [sp, #36]	; 0x24
  401b4a:	bf18      	it	ne
  401b4c:	f04f 33ff 	movne.w	r3, #4294967295
  401b50:	9309      	str	r3, [sp, #36]	; 0x24
  401b52:	9809      	ldr	r0, [sp, #36]	; 0x24
  401b54:	b043      	add	sp, #268	; 0x10c
  401b56:	e8bd 8ff0 	ldmia.w	sp!, {r4, r5, r6, r7, r8, r9, sl, fp, pc}
  401b5a:	f01b 0f20 	tst.w	fp, #32
  401b5e:	9311      	str	r3, [sp, #68]	; 0x44
  401b60:	f040 81dd 	bne.w	401f1e <_svfprintf_r+0x582>
  401b64:	9a0f      	ldr	r2, [sp, #60]	; 0x3c
  401b66:	f01b 0f10 	tst.w	fp, #16
  401b6a:	4613      	mov	r3, r2
  401b6c:	f040 856e 	bne.w	40264c <_svfprintf_r+0xcb0>
  401b70:	f01b 0f40 	tst.w	fp, #64	; 0x40
  401b74:	f000 856a 	beq.w	40264c <_svfprintf_r+0xcb0>
  401b78:	8814      	ldrh	r4, [r2, #0]
  401b7a:	3204      	adds	r2, #4
  401b7c:	2500      	movs	r5, #0
  401b7e:	2301      	movs	r3, #1
  401b80:	920f      	str	r2, [sp, #60]	; 0x3c
  401b82:	2700      	movs	r7, #0
  401b84:	f88d 7077 	strb.w	r7, [sp, #119]	; 0x77
  401b88:	990a      	ldr	r1, [sp, #40]	; 0x28
  401b8a:	1c4a      	adds	r2, r1, #1
  401b8c:	f000 8265 	beq.w	40205a <_svfprintf_r+0x6be>
  401b90:	f02b 0280 	bic.w	r2, fp, #128	; 0x80
  401b94:	9207      	str	r2, [sp, #28]
  401b96:	ea54 0205 	orrs.w	r2, r4, r5
  401b9a:	f040 8264 	bne.w	402066 <_svfprintf_r+0x6ca>
  401b9e:	2900      	cmp	r1, #0
  401ba0:	f040 843c 	bne.w	40241c <_svfprintf_r+0xa80>
  401ba4:	2b00      	cmp	r3, #0
  401ba6:	f040 84d7 	bne.w	402558 <_svfprintf_r+0xbbc>
  401baa:	f01b 0301 	ands.w	r3, fp, #1
  401bae:	930e      	str	r3, [sp, #56]	; 0x38
  401bb0:	f000 8604 	beq.w	4027bc <_svfprintf_r+0xe20>
  401bb4:	ae42      	add	r6, sp, #264	; 0x108
  401bb6:	2330      	movs	r3, #48	; 0x30
  401bb8:	f806 3d41 	strb.w	r3, [r6, #-65]!
  401bbc:	9b0a      	ldr	r3, [sp, #40]	; 0x28
  401bbe:	9a0e      	ldr	r2, [sp, #56]	; 0x38
  401bc0:	4293      	cmp	r3, r2
  401bc2:	bfb8      	it	lt
  401bc4:	4613      	movlt	r3, r2
  401bc6:	9308      	str	r3, [sp, #32]
  401bc8:	2300      	movs	r3, #0
  401bca:	9312      	str	r3, [sp, #72]	; 0x48
  401bcc:	b117      	cbz	r7, 401bd4 <_svfprintf_r+0x238>
  401bce:	9b08      	ldr	r3, [sp, #32]
  401bd0:	3301      	adds	r3, #1
  401bd2:	9308      	str	r3, [sp, #32]
  401bd4:	9b07      	ldr	r3, [sp, #28]
  401bd6:	f013 0302 	ands.w	r3, r3, #2
  401bda:	9310      	str	r3, [sp, #64]	; 0x40
  401bdc:	d002      	beq.n	401be4 <_svfprintf_r+0x248>
  401bde:	9b08      	ldr	r3, [sp, #32]
  401be0:	3302      	adds	r3, #2
  401be2:	9308      	str	r3, [sp, #32]
  401be4:	9b07      	ldr	r3, [sp, #28]
  401be6:	f013 0584 	ands.w	r5, r3, #132	; 0x84
  401bea:	f040 830e 	bne.w	40220a <_svfprintf_r+0x86e>
  401bee:	9b0d      	ldr	r3, [sp, #52]	; 0x34
  401bf0:	9a08      	ldr	r2, [sp, #32]
  401bf2:	eba3 0b02 	sub.w	fp, r3, r2
  401bf6:	f1bb 0f00 	cmp.w	fp, #0
  401bfa:	f340 8306 	ble.w	40220a <_svfprintf_r+0x86e>
  401bfe:	f1bb 0f10 	cmp.w	fp, #16
  401c02:	9c27      	ldr	r4, [sp, #156]	; 0x9c
  401c04:	9a26      	ldr	r2, [sp, #152]	; 0x98
  401c06:	dd29      	ble.n	401c5c <_svfprintf_r+0x2c0>
  401c08:	4643      	mov	r3, r8
  401c0a:	4621      	mov	r1, r4
  401c0c:	46a8      	mov	r8, r5
  401c0e:	2710      	movs	r7, #16
  401c10:	9c0c      	ldr	r4, [sp, #48]	; 0x30
  401c12:	9d0b      	ldr	r5, [sp, #44]	; 0x2c
  401c14:	e006      	b.n	401c24 <_svfprintf_r+0x288>
  401c16:	f1ab 0b10 	sub.w	fp, fp, #16
  401c1a:	f1bb 0f10 	cmp.w	fp, #16
  401c1e:	f103 0308 	add.w	r3, r3, #8
  401c22:	dd18      	ble.n	401c56 <_svfprintf_r+0x2ba>
  401c24:	3201      	adds	r2, #1
  401c26:	48b7      	ldr	r0, [pc, #732]	; (401f04 <_svfprintf_r+0x568>)
  401c28:	9226      	str	r2, [sp, #152]	; 0x98
  401c2a:	3110      	adds	r1, #16
  401c2c:	2a07      	cmp	r2, #7
  401c2e:	9127      	str	r1, [sp, #156]	; 0x9c
  401c30:	e883 0081 	stmia.w	r3, {r0, r7}
  401c34:	ddef      	ble.n	401c16 <_svfprintf_r+0x27a>
  401c36:	aa25      	add	r2, sp, #148	; 0x94
  401c38:	4629      	mov	r1, r5
  401c3a:	4620      	mov	r0, r4
  401c3c:	f003 f80e 	bl	404c5c <__ssprint_r>
  401c40:	2800      	cmp	r0, #0
  401c42:	f47f af7d 	bne.w	401b40 <_svfprintf_r+0x1a4>
  401c46:	f1ab 0b10 	sub.w	fp, fp, #16
  401c4a:	f1bb 0f10 	cmp.w	fp, #16
  401c4e:	9927      	ldr	r1, [sp, #156]	; 0x9c
  401c50:	9a26      	ldr	r2, [sp, #152]	; 0x98
  401c52:	464b      	mov	r3, r9
  401c54:	dce6      	bgt.n	401c24 <_svfprintf_r+0x288>
  401c56:	4645      	mov	r5, r8
  401c58:	460c      	mov	r4, r1
  401c5a:	4698      	mov	r8, r3
  401c5c:	3201      	adds	r2, #1
  401c5e:	4ba9      	ldr	r3, [pc, #676]	; (401f04 <_svfprintf_r+0x568>)
  401c60:	9226      	str	r2, [sp, #152]	; 0x98
  401c62:	445c      	add	r4, fp
  401c64:	2a07      	cmp	r2, #7
  401c66:	9427      	str	r4, [sp, #156]	; 0x9c
  401c68:	e888 0808 	stmia.w	r8, {r3, fp}
  401c6c:	f300 8498 	bgt.w	4025a0 <_svfprintf_r+0xc04>
  401c70:	f89d 7077 	ldrb.w	r7, [sp, #119]	; 0x77
  401c74:	f108 0808 	add.w	r8, r8, #8
  401c78:	b177      	cbz	r7, 401c98 <_svfprintf_r+0x2fc>
  401c7a:	9b26      	ldr	r3, [sp, #152]	; 0x98
  401c7c:	3301      	adds	r3, #1
  401c7e:	3401      	adds	r4, #1
  401c80:	f10d 0177 	add.w	r1, sp, #119	; 0x77
  401c84:	2201      	movs	r2, #1
  401c86:	2b07      	cmp	r3, #7
  401c88:	9427      	str	r4, [sp, #156]	; 0x9c
  401c8a:	9326      	str	r3, [sp, #152]	; 0x98
  401c8c:	e888 0006 	stmia.w	r8, {r1, r2}
  401c90:	f300 83db 	bgt.w	40244a <_svfprintf_r+0xaae>
  401c94:	f108 0808 	add.w	r8, r8, #8
  401c98:	9b10      	ldr	r3, [sp, #64]	; 0x40
  401c9a:	b16b      	cbz	r3, 401cb8 <_svfprintf_r+0x31c>
  401c9c:	9b26      	ldr	r3, [sp, #152]	; 0x98
  401c9e:	3301      	adds	r3, #1
  401ca0:	3402      	adds	r4, #2
  401ca2:	a91e      	add	r1, sp, #120	; 0x78
  401ca4:	2202      	movs	r2, #2
  401ca6:	2b07      	cmp	r3, #7
  401ca8:	9427      	str	r4, [sp, #156]	; 0x9c
  401caa:	9326      	str	r3, [sp, #152]	; 0x98
  401cac:	e888 0006 	stmia.w	r8, {r1, r2}
  401cb0:	f300 83d6 	bgt.w	402460 <_svfprintf_r+0xac4>
  401cb4:	f108 0808 	add.w	r8, r8, #8
  401cb8:	2d80      	cmp	r5, #128	; 0x80
  401cba:	f000 8315 	beq.w	4022e8 <_svfprintf_r+0x94c>
  401cbe:	9b0a      	ldr	r3, [sp, #40]	; 0x28
  401cc0:	9a0e      	ldr	r2, [sp, #56]	; 0x38
  401cc2:	1a9f      	subs	r7, r3, r2
  401cc4:	2f00      	cmp	r7, #0
  401cc6:	dd36      	ble.n	401d36 <_svfprintf_r+0x39a>
  401cc8:	2f10      	cmp	r7, #16
  401cca:	9b26      	ldr	r3, [sp, #152]	; 0x98
  401ccc:	4d8e      	ldr	r5, [pc, #568]	; (401f08 <_svfprintf_r+0x56c>)
  401cce:	dd27      	ble.n	401d20 <_svfprintf_r+0x384>
  401cd0:	4642      	mov	r2, r8
  401cd2:	4621      	mov	r1, r4
  401cd4:	46b0      	mov	r8, r6
  401cd6:	f04f 0b10 	mov.w	fp, #16
  401cda:	462e      	mov	r6, r5
  401cdc:	9c0c      	ldr	r4, [sp, #48]	; 0x30
  401cde:	9d0b      	ldr	r5, [sp, #44]	; 0x2c
  401ce0:	e004      	b.n	401cec <_svfprintf_r+0x350>
  401ce2:	3f10      	subs	r7, #16
  401ce4:	2f10      	cmp	r7, #16
  401ce6:	f102 0208 	add.w	r2, r2, #8
  401cea:	dd15      	ble.n	401d18 <_svfprintf_r+0x37c>
  401cec:	3301      	adds	r3, #1
  401cee:	3110      	adds	r1, #16
  401cf0:	2b07      	cmp	r3, #7
  401cf2:	9127      	str	r1, [sp, #156]	; 0x9c
  401cf4:	9326      	str	r3, [sp, #152]	; 0x98
  401cf6:	e882 0840 	stmia.w	r2, {r6, fp}
  401cfa:	ddf2      	ble.n	401ce2 <_svfprintf_r+0x346>
  401cfc:	aa25      	add	r2, sp, #148	; 0x94
  401cfe:	4629      	mov	r1, r5
  401d00:	4620      	mov	r0, r4
  401d02:	f002 ffab 	bl	404c5c <__ssprint_r>
  401d06:	2800      	cmp	r0, #0
  401d08:	f47f af1a 	bne.w	401b40 <_svfprintf_r+0x1a4>
  401d0c:	3f10      	subs	r7, #16
  401d0e:	2f10      	cmp	r7, #16
  401d10:	9927      	ldr	r1, [sp, #156]	; 0x9c
  401d12:	9b26      	ldr	r3, [sp, #152]	; 0x98
  401d14:	464a      	mov	r2, r9
  401d16:	dce9      	bgt.n	401cec <_svfprintf_r+0x350>
  401d18:	4635      	mov	r5, r6
  401d1a:	460c      	mov	r4, r1
  401d1c:	4646      	mov	r6, r8
  401d1e:	4690      	mov	r8, r2
  401d20:	3301      	adds	r3, #1
  401d22:	443c      	add	r4, r7
  401d24:	2b07      	cmp	r3, #7
  401d26:	9427      	str	r4, [sp, #156]	; 0x9c
  401d28:	9326      	str	r3, [sp, #152]	; 0x98
  401d2a:	e888 00a0 	stmia.w	r8, {r5, r7}
  401d2e:	f300 8381 	bgt.w	402434 <_svfprintf_r+0xa98>
  401d32:	f108 0808 	add.w	r8, r8, #8
  401d36:	9b07      	ldr	r3, [sp, #28]
  401d38:	05df      	lsls	r7, r3, #23
  401d3a:	f100 8268 	bmi.w	40220e <_svfprintf_r+0x872>
  401d3e:	9b26      	ldr	r3, [sp, #152]	; 0x98
  401d40:	990e      	ldr	r1, [sp, #56]	; 0x38
  401d42:	f8c8 6000 	str.w	r6, [r8]
  401d46:	3301      	adds	r3, #1
  401d48:	440c      	add	r4, r1
  401d4a:	2b07      	cmp	r3, #7
  401d4c:	9427      	str	r4, [sp, #156]	; 0x9c
  401d4e:	f8c8 1004 	str.w	r1, [r8, #4]
  401d52:	9326      	str	r3, [sp, #152]	; 0x98
  401d54:	f300 834d 	bgt.w	4023f2 <_svfprintf_r+0xa56>
  401d58:	f108 0808 	add.w	r8, r8, #8
  401d5c:	9b07      	ldr	r3, [sp, #28]
  401d5e:	075b      	lsls	r3, r3, #29
  401d60:	d53a      	bpl.n	401dd8 <_svfprintf_r+0x43c>
  401d62:	9b0d      	ldr	r3, [sp, #52]	; 0x34
  401d64:	9a08      	ldr	r2, [sp, #32]
  401d66:	1a9d      	subs	r5, r3, r2
  401d68:	2d00      	cmp	r5, #0
  401d6a:	dd35      	ble.n	401dd8 <_svfprintf_r+0x43c>
  401d6c:	2d10      	cmp	r5, #16
  401d6e:	9b26      	ldr	r3, [sp, #152]	; 0x98
  401d70:	dd20      	ble.n	401db4 <_svfprintf_r+0x418>
  401d72:	2610      	movs	r6, #16
  401d74:	9f0c      	ldr	r7, [sp, #48]	; 0x30
  401d76:	f8dd b02c 	ldr.w	fp, [sp, #44]	; 0x2c
  401d7a:	e004      	b.n	401d86 <_svfprintf_r+0x3ea>
  401d7c:	3d10      	subs	r5, #16
  401d7e:	2d10      	cmp	r5, #16
  401d80:	f108 0808 	add.w	r8, r8, #8
  401d84:	dd16      	ble.n	401db4 <_svfprintf_r+0x418>
  401d86:	3301      	adds	r3, #1
  401d88:	4a5e      	ldr	r2, [pc, #376]	; (401f04 <_svfprintf_r+0x568>)
  401d8a:	9326      	str	r3, [sp, #152]	; 0x98
  401d8c:	3410      	adds	r4, #16
  401d8e:	2b07      	cmp	r3, #7
  401d90:	9427      	str	r4, [sp, #156]	; 0x9c
  401d92:	e888 0044 	stmia.w	r8, {r2, r6}
  401d96:	ddf1      	ble.n	401d7c <_svfprintf_r+0x3e0>
  401d98:	aa25      	add	r2, sp, #148	; 0x94
  401d9a:	4659      	mov	r1, fp
  401d9c:	4638      	mov	r0, r7
  401d9e:	f002 ff5d 	bl	404c5c <__ssprint_r>
  401da2:	2800      	cmp	r0, #0
  401da4:	f47f aecc 	bne.w	401b40 <_svfprintf_r+0x1a4>
  401da8:	3d10      	subs	r5, #16
  401daa:	2d10      	cmp	r5, #16
  401dac:	9c27      	ldr	r4, [sp, #156]	; 0x9c
  401dae:	9b26      	ldr	r3, [sp, #152]	; 0x98
  401db0:	46c8      	mov	r8, r9
  401db2:	dce8      	bgt.n	401d86 <_svfprintf_r+0x3ea>
  401db4:	3301      	adds	r3, #1
  401db6:	4a53      	ldr	r2, [pc, #332]	; (401f04 <_svfprintf_r+0x568>)
  401db8:	9326      	str	r3, [sp, #152]	; 0x98
  401dba:	442c      	add	r4, r5
  401dbc:	2b07      	cmp	r3, #7
  401dbe:	9427      	str	r4, [sp, #156]	; 0x9c
  401dc0:	e888 0024 	stmia.w	r8, {r2, r5}
  401dc4:	dd08      	ble.n	401dd8 <_svfprintf_r+0x43c>
  401dc6:	aa25      	add	r2, sp, #148	; 0x94
  401dc8:	990b      	ldr	r1, [sp, #44]	; 0x2c
  401dca:	980c      	ldr	r0, [sp, #48]	; 0x30
  401dcc:	f002 ff46 	bl	404c5c <__ssprint_r>
  401dd0:	2800      	cmp	r0, #0
  401dd2:	f47f aeb5 	bne.w	401b40 <_svfprintf_r+0x1a4>
  401dd6:	9c27      	ldr	r4, [sp, #156]	; 0x9c
  401dd8:	9b09      	ldr	r3, [sp, #36]	; 0x24
  401dda:	9a0d      	ldr	r2, [sp, #52]	; 0x34
  401ddc:	9908      	ldr	r1, [sp, #32]
  401dde:	428a      	cmp	r2, r1
  401de0:	bfac      	ite	ge
  401de2:	189b      	addge	r3, r3, r2
  401de4:	185b      	addlt	r3, r3, r1
  401de6:	9309      	str	r3, [sp, #36]	; 0x24
  401de8:	2c00      	cmp	r4, #0
  401dea:	f040 830d 	bne.w	402408 <_svfprintf_r+0xa6c>
  401dee:	2300      	movs	r3, #0
  401df0:	9326      	str	r3, [sp, #152]	; 0x98
  401df2:	46c8      	mov	r8, r9
  401df4:	e5f9      	b.n	4019ea <_svfprintf_r+0x4e>
  401df6:	9311      	str	r3, [sp, #68]	; 0x44
  401df8:	f01b 0320 	ands.w	r3, fp, #32
  401dfc:	f040 81e3 	bne.w	4021c6 <_svfprintf_r+0x82a>
  401e00:	f01b 0210 	ands.w	r2, fp, #16
  401e04:	f040 842e 	bne.w	402664 <_svfprintf_r+0xcc8>
  401e08:	f01b 0340 	ands.w	r3, fp, #64	; 0x40
  401e0c:	f000 842a 	beq.w	402664 <_svfprintf_r+0xcc8>
  401e10:	990f      	ldr	r1, [sp, #60]	; 0x3c
  401e12:	4613      	mov	r3, r2
  401e14:	460a      	mov	r2, r1
  401e16:	3204      	adds	r2, #4
  401e18:	880c      	ldrh	r4, [r1, #0]
  401e1a:	920f      	str	r2, [sp, #60]	; 0x3c
  401e1c:	2500      	movs	r5, #0
  401e1e:	e6b0      	b.n	401b82 <_svfprintf_r+0x1e6>
  401e20:	9a0f      	ldr	r2, [sp, #60]	; 0x3c
  401e22:	9311      	str	r3, [sp, #68]	; 0x44
  401e24:	6816      	ldr	r6, [r2, #0]
  401e26:	2400      	movs	r4, #0
  401e28:	f88d 4077 	strb.w	r4, [sp, #119]	; 0x77
  401e2c:	1d15      	adds	r5, r2, #4
  401e2e:	2e00      	cmp	r6, #0
  401e30:	f000 86a7 	beq.w	402b82 <_svfprintf_r+0x11e6>
  401e34:	9a0a      	ldr	r2, [sp, #40]	; 0x28
  401e36:	1c53      	adds	r3, r2, #1
  401e38:	f000 8609 	beq.w	402a4e <_svfprintf_r+0x10b2>
  401e3c:	4621      	mov	r1, r4
  401e3e:	4630      	mov	r0, r6
  401e40:	f002 fa86 	bl	404350 <memchr>
  401e44:	2800      	cmp	r0, #0
  401e46:	f000 86e1 	beq.w	402c0c <_svfprintf_r+0x1270>
  401e4a:	1b83      	subs	r3, r0, r6
  401e4c:	930e      	str	r3, [sp, #56]	; 0x38
  401e4e:	940a      	str	r4, [sp, #40]	; 0x28
  401e50:	950f      	str	r5, [sp, #60]	; 0x3c
  401e52:	f8cd b01c 	str.w	fp, [sp, #28]
  401e56:	ea23 73e3 	bic.w	r3, r3, r3, asr #31
  401e5a:	9308      	str	r3, [sp, #32]
  401e5c:	9412      	str	r4, [sp, #72]	; 0x48
  401e5e:	f89d 7077 	ldrb.w	r7, [sp, #119]	; 0x77
  401e62:	e6b3      	b.n	401bcc <_svfprintf_r+0x230>
  401e64:	f89a 3000 	ldrb.w	r3, [sl]
  401e68:	2201      	movs	r2, #1
  401e6a:	212b      	movs	r1, #43	; 0x2b
  401e6c:	e5ee      	b.n	401a4c <_svfprintf_r+0xb0>
  401e6e:	f04b 0b20 	orr.w	fp, fp, #32
  401e72:	f89a 3000 	ldrb.w	r3, [sl]
  401e76:	e5e9      	b.n	401a4c <_svfprintf_r+0xb0>
  401e78:	9311      	str	r3, [sp, #68]	; 0x44
  401e7a:	2a00      	cmp	r2, #0
  401e7c:	f040 8795 	bne.w	402daa <_svfprintf_r+0x140e>
  401e80:	4b22      	ldr	r3, [pc, #136]	; (401f0c <_svfprintf_r+0x570>)
  401e82:	9318      	str	r3, [sp, #96]	; 0x60
  401e84:	f01b 0f20 	tst.w	fp, #32
  401e88:	f040 8111 	bne.w	4020ae <_svfprintf_r+0x712>
  401e8c:	9a0f      	ldr	r2, [sp, #60]	; 0x3c
  401e8e:	f01b 0f10 	tst.w	fp, #16
  401e92:	4613      	mov	r3, r2
  401e94:	f040 83e1 	bne.w	40265a <_svfprintf_r+0xcbe>
  401e98:	f01b 0f40 	tst.w	fp, #64	; 0x40
  401e9c:	f000 83dd 	beq.w	40265a <_svfprintf_r+0xcbe>
  401ea0:	3304      	adds	r3, #4
  401ea2:	8814      	ldrh	r4, [r2, #0]
  401ea4:	930f      	str	r3, [sp, #60]	; 0x3c
  401ea6:	2500      	movs	r5, #0
  401ea8:	f01b 0f01 	tst.w	fp, #1
  401eac:	f000 810c 	beq.w	4020c8 <_svfprintf_r+0x72c>
  401eb0:	ea54 0305 	orrs.w	r3, r4, r5
  401eb4:	f000 8108 	beq.w	4020c8 <_svfprintf_r+0x72c>
  401eb8:	2330      	movs	r3, #48	; 0x30
  401eba:	f89d 2044 	ldrb.w	r2, [sp, #68]	; 0x44
  401ebe:	f88d 3078 	strb.w	r3, [sp, #120]	; 0x78
  401ec2:	f88d 2079 	strb.w	r2, [sp, #121]	; 0x79
  401ec6:	f04b 0b02 	orr.w	fp, fp, #2
  401eca:	2302      	movs	r3, #2
  401ecc:	e659      	b.n	401b82 <_svfprintf_r+0x1e6>
  401ece:	f89a 3000 	ldrb.w	r3, [sl]
  401ed2:	2900      	cmp	r1, #0
  401ed4:	f47f adba 	bne.w	401a4c <_svfprintf_r+0xb0>
  401ed8:	2201      	movs	r2, #1
  401eda:	2120      	movs	r1, #32
  401edc:	e5b6      	b.n	401a4c <_svfprintf_r+0xb0>
  401ede:	f04b 0b01 	orr.w	fp, fp, #1
  401ee2:	f89a 3000 	ldrb.w	r3, [sl]
  401ee6:	e5b1      	b.n	401a4c <_svfprintf_r+0xb0>
  401ee8:	9c0f      	ldr	r4, [sp, #60]	; 0x3c
  401eea:	6823      	ldr	r3, [r4, #0]
  401eec:	930d      	str	r3, [sp, #52]	; 0x34
  401eee:	4618      	mov	r0, r3
  401ef0:	2800      	cmp	r0, #0
  401ef2:	4623      	mov	r3, r4
  401ef4:	f103 0304 	add.w	r3, r3, #4
  401ef8:	f6ff ae0a 	blt.w	401b10 <_svfprintf_r+0x174>
  401efc:	930f      	str	r3, [sp, #60]	; 0x3c
  401efe:	f89a 3000 	ldrb.w	r3, [sl]
  401f02:	e5a3      	b.n	401a4c <_svfprintf_r+0xb0>
  401f04:	00407270 	.word	0x00407270
  401f08:	00407280 	.word	0x00407280
  401f0c:	00407250 	.word	0x00407250
  401f10:	f04b 0b10 	orr.w	fp, fp, #16
  401f14:	f01b 0f20 	tst.w	fp, #32
  401f18:	9311      	str	r3, [sp, #68]	; 0x44
  401f1a:	f43f ae23 	beq.w	401b64 <_svfprintf_r+0x1c8>
  401f1e:	9d0f      	ldr	r5, [sp, #60]	; 0x3c
  401f20:	3507      	adds	r5, #7
  401f22:	f025 0307 	bic.w	r3, r5, #7
  401f26:	f103 0208 	add.w	r2, r3, #8
  401f2a:	e9d3 4500 	ldrd	r4, r5, [r3]
  401f2e:	920f      	str	r2, [sp, #60]	; 0x3c
  401f30:	2301      	movs	r3, #1
  401f32:	e626      	b.n	401b82 <_svfprintf_r+0x1e6>
  401f34:	f89a 3000 	ldrb.w	r3, [sl]
  401f38:	2b2a      	cmp	r3, #42	; 0x2a
  401f3a:	f10a 0401 	add.w	r4, sl, #1
  401f3e:	f000 8727 	beq.w	402d90 <_svfprintf_r+0x13f4>
  401f42:	f1a3 0030 	sub.w	r0, r3, #48	; 0x30
  401f46:	2809      	cmp	r0, #9
  401f48:	46a2      	mov	sl, r4
  401f4a:	f200 86ad 	bhi.w	402ca8 <_svfprintf_r+0x130c>
  401f4e:	2300      	movs	r3, #0
  401f50:	461c      	mov	r4, r3
  401f52:	f81a 3b01 	ldrb.w	r3, [sl], #1
  401f56:	eb04 0484 	add.w	r4, r4, r4, lsl #2
  401f5a:	eb00 0444 	add.w	r4, r0, r4, lsl #1
  401f5e:	f1a3 0030 	sub.w	r0, r3, #48	; 0x30
  401f62:	2809      	cmp	r0, #9
  401f64:	d9f5      	bls.n	401f52 <_svfprintf_r+0x5b6>
  401f66:	940a      	str	r4, [sp, #40]	; 0x28
  401f68:	e572      	b.n	401a50 <_svfprintf_r+0xb4>
  401f6a:	f04b 0b80 	orr.w	fp, fp, #128	; 0x80
  401f6e:	f89a 3000 	ldrb.w	r3, [sl]
  401f72:	e56b      	b.n	401a4c <_svfprintf_r+0xb0>
  401f74:	f04b 0b40 	orr.w	fp, fp, #64	; 0x40
  401f78:	f89a 3000 	ldrb.w	r3, [sl]
  401f7c:	e566      	b.n	401a4c <_svfprintf_r+0xb0>
  401f7e:	f89a 3000 	ldrb.w	r3, [sl]
  401f82:	2b6c      	cmp	r3, #108	; 0x6c
  401f84:	bf03      	ittte	eq
  401f86:	f89a 3001 	ldrbeq.w	r3, [sl, #1]
  401f8a:	f04b 0b20 	orreq.w	fp, fp, #32
  401f8e:	f10a 0a01 	addeq.w	sl, sl, #1
  401f92:	f04b 0b10 	orrne.w	fp, fp, #16
  401f96:	e559      	b.n	401a4c <_svfprintf_r+0xb0>
  401f98:	2a00      	cmp	r2, #0
  401f9a:	f040 8711 	bne.w	402dc0 <_svfprintf_r+0x1424>
  401f9e:	f01b 0f20 	tst.w	fp, #32
  401fa2:	f040 84f9 	bne.w	402998 <_svfprintf_r+0xffc>
  401fa6:	f01b 0f10 	tst.w	fp, #16
  401faa:	f040 84ac 	bne.w	402906 <_svfprintf_r+0xf6a>
  401fae:	f01b 0f40 	tst.w	fp, #64	; 0x40
  401fb2:	f000 84a8 	beq.w	402906 <_svfprintf_r+0xf6a>
  401fb6:	9a0f      	ldr	r2, [sp, #60]	; 0x3c
  401fb8:	6813      	ldr	r3, [r2, #0]
  401fba:	3204      	adds	r2, #4
  401fbc:	920f      	str	r2, [sp, #60]	; 0x3c
  401fbe:	f8bd 2024 	ldrh.w	r2, [sp, #36]	; 0x24
  401fc2:	801a      	strh	r2, [r3, #0]
  401fc4:	e511      	b.n	4019ea <_svfprintf_r+0x4e>
  401fc6:	990f      	ldr	r1, [sp, #60]	; 0x3c
  401fc8:	4bb3      	ldr	r3, [pc, #716]	; (402298 <_svfprintf_r+0x8fc>)
  401fca:	680c      	ldr	r4, [r1, #0]
  401fcc:	9318      	str	r3, [sp, #96]	; 0x60
  401fce:	2230      	movs	r2, #48	; 0x30
  401fd0:	2378      	movs	r3, #120	; 0x78
  401fd2:	3104      	adds	r1, #4
  401fd4:	f88d 3079 	strb.w	r3, [sp, #121]	; 0x79
  401fd8:	9311      	str	r3, [sp, #68]	; 0x44
  401fda:	f04b 0b02 	orr.w	fp, fp, #2
  401fde:	910f      	str	r1, [sp, #60]	; 0x3c
  401fe0:	2500      	movs	r5, #0
  401fe2:	f88d 2078 	strb.w	r2, [sp, #120]	; 0x78
  401fe6:	2302      	movs	r3, #2
  401fe8:	e5cb      	b.n	401b82 <_svfprintf_r+0x1e6>
  401fea:	990f      	ldr	r1, [sp, #60]	; 0x3c
  401fec:	9311      	str	r3, [sp, #68]	; 0x44
  401fee:	680a      	ldr	r2, [r1, #0]
  401ff0:	f88d 20a0 	strb.w	r2, [sp, #160]	; 0xa0
  401ff4:	2300      	movs	r3, #0
  401ff6:	460a      	mov	r2, r1
  401ff8:	461f      	mov	r7, r3
  401ffa:	f88d 3077 	strb.w	r3, [sp, #119]	; 0x77
  401ffe:	3204      	adds	r2, #4
  402000:	2301      	movs	r3, #1
  402002:	9308      	str	r3, [sp, #32]
  402004:	f8cd b01c 	str.w	fp, [sp, #28]
  402008:	970a      	str	r7, [sp, #40]	; 0x28
  40200a:	9712      	str	r7, [sp, #72]	; 0x48
  40200c:	920f      	str	r2, [sp, #60]	; 0x3c
  40200e:	930e      	str	r3, [sp, #56]	; 0x38
  402010:	ae28      	add	r6, sp, #160	; 0xa0
  402012:	e5df      	b.n	401bd4 <_svfprintf_r+0x238>
  402014:	9311      	str	r3, [sp, #68]	; 0x44
  402016:	2a00      	cmp	r2, #0
  402018:	f040 86ea 	bne.w	402df0 <_svfprintf_r+0x1454>
  40201c:	f01b 0f20 	tst.w	fp, #32
  402020:	d15d      	bne.n	4020de <_svfprintf_r+0x742>
  402022:	f01b 0f10 	tst.w	fp, #16
  402026:	f040 8308 	bne.w	40263a <_svfprintf_r+0xc9e>
  40202a:	f01b 0f40 	tst.w	fp, #64	; 0x40
  40202e:	f000 8304 	beq.w	40263a <_svfprintf_r+0xc9e>
  402032:	990f      	ldr	r1, [sp, #60]	; 0x3c
  402034:	f9b1 4000 	ldrsh.w	r4, [r1]
  402038:	3104      	adds	r1, #4
  40203a:	17e5      	asrs	r5, r4, #31
  40203c:	4622      	mov	r2, r4
  40203e:	462b      	mov	r3, r5
  402040:	910f      	str	r1, [sp, #60]	; 0x3c
  402042:	2a00      	cmp	r2, #0
  402044:	f173 0300 	sbcs.w	r3, r3, #0
  402048:	db58      	blt.n	4020fc <_svfprintf_r+0x760>
  40204a:	990a      	ldr	r1, [sp, #40]	; 0x28
  40204c:	f89d 7077 	ldrb.w	r7, [sp, #119]	; 0x77
  402050:	1c4a      	adds	r2, r1, #1
  402052:	f04f 0301 	mov.w	r3, #1
  402056:	f47f ad9b 	bne.w	401b90 <_svfprintf_r+0x1f4>
  40205a:	ea54 0205 	orrs.w	r2, r4, r5
  40205e:	f000 81df 	beq.w	402420 <_svfprintf_r+0xa84>
  402062:	f8cd b01c 	str.w	fp, [sp, #28]
  402066:	2b01      	cmp	r3, #1
  402068:	f000 827b 	beq.w	402562 <_svfprintf_r+0xbc6>
  40206c:	2b02      	cmp	r3, #2
  40206e:	f040 8206 	bne.w	40247e <_svfprintf_r+0xae2>
  402072:	9818      	ldr	r0, [sp, #96]	; 0x60
  402074:	464e      	mov	r6, r9
  402076:	0923      	lsrs	r3, r4, #4
  402078:	f004 010f 	and.w	r1, r4, #15
  40207c:	ea43 7305 	orr.w	r3, r3, r5, lsl #28
  402080:	092a      	lsrs	r2, r5, #4
  402082:	461c      	mov	r4, r3
  402084:	4615      	mov	r5, r2
  402086:	5c43      	ldrb	r3, [r0, r1]
  402088:	f806 3d01 	strb.w	r3, [r6, #-1]!
  40208c:	ea54 0305 	orrs.w	r3, r4, r5
  402090:	d1f1      	bne.n	402076 <_svfprintf_r+0x6da>
  402092:	eba9 0306 	sub.w	r3, r9, r6
  402096:	930e      	str	r3, [sp, #56]	; 0x38
  402098:	e590      	b.n	401bbc <_svfprintf_r+0x220>
  40209a:	9311      	str	r3, [sp, #68]	; 0x44
  40209c:	2a00      	cmp	r2, #0
  40209e:	f040 86a3 	bne.w	402de8 <_svfprintf_r+0x144c>
  4020a2:	4b7e      	ldr	r3, [pc, #504]	; (40229c <_svfprintf_r+0x900>)
  4020a4:	9318      	str	r3, [sp, #96]	; 0x60
  4020a6:	f01b 0f20 	tst.w	fp, #32
  4020aa:	f43f aeef 	beq.w	401e8c <_svfprintf_r+0x4f0>
  4020ae:	9d0f      	ldr	r5, [sp, #60]	; 0x3c
  4020b0:	3507      	adds	r5, #7
  4020b2:	f025 0307 	bic.w	r3, r5, #7
  4020b6:	f103 0208 	add.w	r2, r3, #8
  4020ba:	f01b 0f01 	tst.w	fp, #1
  4020be:	920f      	str	r2, [sp, #60]	; 0x3c
  4020c0:	e9d3 4500 	ldrd	r4, r5, [r3]
  4020c4:	f47f aef4 	bne.w	401eb0 <_svfprintf_r+0x514>
  4020c8:	2302      	movs	r3, #2
  4020ca:	e55a      	b.n	401b82 <_svfprintf_r+0x1e6>
  4020cc:	9311      	str	r3, [sp, #68]	; 0x44
  4020ce:	2a00      	cmp	r2, #0
  4020d0:	f040 8686 	bne.w	402de0 <_svfprintf_r+0x1444>
  4020d4:	f04b 0b10 	orr.w	fp, fp, #16
  4020d8:	f01b 0f20 	tst.w	fp, #32
  4020dc:	d0a1      	beq.n	402022 <_svfprintf_r+0x686>
  4020de:	9d0f      	ldr	r5, [sp, #60]	; 0x3c
  4020e0:	3507      	adds	r5, #7
  4020e2:	f025 0507 	bic.w	r5, r5, #7
  4020e6:	e9d5 2300 	ldrd	r2, r3, [r5]
  4020ea:	2a00      	cmp	r2, #0
  4020ec:	f105 0108 	add.w	r1, r5, #8
  4020f0:	461d      	mov	r5, r3
  4020f2:	f173 0300 	sbcs.w	r3, r3, #0
  4020f6:	910f      	str	r1, [sp, #60]	; 0x3c
  4020f8:	4614      	mov	r4, r2
  4020fa:	daa6      	bge.n	40204a <_svfprintf_r+0x6ae>
  4020fc:	272d      	movs	r7, #45	; 0x2d
  4020fe:	4264      	negs	r4, r4
  402100:	eb65 0545 	sbc.w	r5, r5, r5, lsl #1
  402104:	f88d 7077 	strb.w	r7, [sp, #119]	; 0x77
  402108:	2301      	movs	r3, #1
  40210a:	e53d      	b.n	401b88 <_svfprintf_r+0x1ec>
  40210c:	9311      	str	r3, [sp, #68]	; 0x44
  40210e:	2a00      	cmp	r2, #0
  402110:	f040 8662 	bne.w	402dd8 <_svfprintf_r+0x143c>
  402114:	9d0f      	ldr	r5, [sp, #60]	; 0x3c
  402116:	3507      	adds	r5, #7
  402118:	f025 0307 	bic.w	r3, r5, #7
  40211c:	f103 0208 	add.w	r2, r3, #8
  402120:	920f      	str	r2, [sp, #60]	; 0x3c
  402122:	681a      	ldr	r2, [r3, #0]
  402124:	9215      	str	r2, [sp, #84]	; 0x54
  402126:	685b      	ldr	r3, [r3, #4]
  402128:	9314      	str	r3, [sp, #80]	; 0x50
  40212a:	9b14      	ldr	r3, [sp, #80]	; 0x50
  40212c:	9d15      	ldr	r5, [sp, #84]	; 0x54
  40212e:	f023 4400 	bic.w	r4, r3, #2147483648	; 0x80000000
  402132:	4628      	mov	r0, r5
  402134:	4621      	mov	r1, r4
  402136:	f04f 32ff 	mov.w	r2, #4294967295
  40213a:	4b59      	ldr	r3, [pc, #356]	; (4022a0 <_svfprintf_r+0x904>)
  40213c:	f003 fe54 	bl	405de8 <__aeabi_dcmpun>
  402140:	2800      	cmp	r0, #0
  402142:	f040 834a 	bne.w	4027da <_svfprintf_r+0xe3e>
  402146:	4628      	mov	r0, r5
  402148:	4621      	mov	r1, r4
  40214a:	f04f 32ff 	mov.w	r2, #4294967295
  40214e:	4b54      	ldr	r3, [pc, #336]	; (4022a0 <_svfprintf_r+0x904>)
  402150:	f003 fe2c 	bl	405dac <__aeabi_dcmple>
  402154:	2800      	cmp	r0, #0
  402156:	f040 8340 	bne.w	4027da <_svfprintf_r+0xe3e>
  40215a:	a815      	add	r0, sp, #84	; 0x54
  40215c:	c80d      	ldmia	r0, {r0, r2, r3}
  40215e:	9914      	ldr	r1, [sp, #80]	; 0x50
  402160:	f003 fe1a 	bl	405d98 <__aeabi_dcmplt>
  402164:	2800      	cmp	r0, #0
  402166:	f040 8530 	bne.w	402bca <_svfprintf_r+0x122e>
  40216a:	f89d 7077 	ldrb.w	r7, [sp, #119]	; 0x77
  40216e:	4e4d      	ldr	r6, [pc, #308]	; (4022a4 <_svfprintf_r+0x908>)
  402170:	4b4d      	ldr	r3, [pc, #308]	; (4022a8 <_svfprintf_r+0x90c>)
  402172:	f02b 0080 	bic.w	r0, fp, #128	; 0x80
  402176:	9007      	str	r0, [sp, #28]
  402178:	9811      	ldr	r0, [sp, #68]	; 0x44
  40217a:	2203      	movs	r2, #3
  40217c:	2100      	movs	r1, #0
  40217e:	9208      	str	r2, [sp, #32]
  402180:	910a      	str	r1, [sp, #40]	; 0x28
  402182:	2847      	cmp	r0, #71	; 0x47
  402184:	bfd8      	it	le
  402186:	461e      	movle	r6, r3
  402188:	920e      	str	r2, [sp, #56]	; 0x38
  40218a:	9112      	str	r1, [sp, #72]	; 0x48
  40218c:	e51e      	b.n	401bcc <_svfprintf_r+0x230>
  40218e:	f04b 0b08 	orr.w	fp, fp, #8
  402192:	f89a 3000 	ldrb.w	r3, [sl]
  402196:	e459      	b.n	401a4c <_svfprintf_r+0xb0>
  402198:	f1a3 0030 	sub.w	r0, r3, #48	; 0x30
  40219c:	2300      	movs	r3, #0
  40219e:	461c      	mov	r4, r3
  4021a0:	f81a 3b01 	ldrb.w	r3, [sl], #1
  4021a4:	eb04 0484 	add.w	r4, r4, r4, lsl #2
  4021a8:	eb00 0444 	add.w	r4, r0, r4, lsl #1
  4021ac:	f1a3 0030 	sub.w	r0, r3, #48	; 0x30
  4021b0:	2809      	cmp	r0, #9
  4021b2:	d9f5      	bls.n	4021a0 <_svfprintf_r+0x804>
  4021b4:	940d      	str	r4, [sp, #52]	; 0x34
  4021b6:	e44b      	b.n	401a50 <_svfprintf_r+0xb4>
  4021b8:	f04b 0b10 	orr.w	fp, fp, #16
  4021bc:	9311      	str	r3, [sp, #68]	; 0x44
  4021be:	f01b 0320 	ands.w	r3, fp, #32
  4021c2:	f43f ae1d 	beq.w	401e00 <_svfprintf_r+0x464>
  4021c6:	9d0f      	ldr	r5, [sp, #60]	; 0x3c
  4021c8:	3507      	adds	r5, #7
  4021ca:	f025 0307 	bic.w	r3, r5, #7
  4021ce:	f103 0208 	add.w	r2, r3, #8
  4021d2:	e9d3 4500 	ldrd	r4, r5, [r3]
  4021d6:	920f      	str	r2, [sp, #60]	; 0x3c
  4021d8:	2300      	movs	r3, #0
  4021da:	e4d2      	b.n	401b82 <_svfprintf_r+0x1e6>
  4021dc:	9311      	str	r3, [sp, #68]	; 0x44
  4021de:	2a00      	cmp	r2, #0
  4021e0:	f040 85e7 	bne.w	402db2 <_svfprintf_r+0x1416>
  4021e4:	9a11      	ldr	r2, [sp, #68]	; 0x44
  4021e6:	2a00      	cmp	r2, #0
  4021e8:	f43f aca3 	beq.w	401b32 <_svfprintf_r+0x196>
  4021ec:	2300      	movs	r3, #0
  4021ee:	2101      	movs	r1, #1
  4021f0:	461f      	mov	r7, r3
  4021f2:	9108      	str	r1, [sp, #32]
  4021f4:	f88d 20a0 	strb.w	r2, [sp, #160]	; 0xa0
  4021f8:	f8cd b01c 	str.w	fp, [sp, #28]
  4021fc:	f88d 3077 	strb.w	r3, [sp, #119]	; 0x77
  402200:	930a      	str	r3, [sp, #40]	; 0x28
  402202:	9312      	str	r3, [sp, #72]	; 0x48
  402204:	910e      	str	r1, [sp, #56]	; 0x38
  402206:	ae28      	add	r6, sp, #160	; 0xa0
  402208:	e4e4      	b.n	401bd4 <_svfprintf_r+0x238>
  40220a:	9c27      	ldr	r4, [sp, #156]	; 0x9c
  40220c:	e534      	b.n	401c78 <_svfprintf_r+0x2dc>
  40220e:	9b11      	ldr	r3, [sp, #68]	; 0x44
  402210:	2b65      	cmp	r3, #101	; 0x65
  402212:	f340 80a7 	ble.w	402364 <_svfprintf_r+0x9c8>
  402216:	a815      	add	r0, sp, #84	; 0x54
  402218:	c80d      	ldmia	r0, {r0, r2, r3}
  40221a:	9914      	ldr	r1, [sp, #80]	; 0x50
  40221c:	f003 fdb2 	bl	405d84 <__aeabi_dcmpeq>
  402220:	2800      	cmp	r0, #0
  402222:	f000 8150 	beq.w	4024c6 <_svfprintf_r+0xb2a>
  402226:	9b26      	ldr	r3, [sp, #152]	; 0x98
  402228:	4a20      	ldr	r2, [pc, #128]	; (4022ac <_svfprintf_r+0x910>)
  40222a:	f8c8 2000 	str.w	r2, [r8]
  40222e:	3301      	adds	r3, #1
  402230:	3401      	adds	r4, #1
  402232:	2201      	movs	r2, #1
  402234:	2b07      	cmp	r3, #7
  402236:	9427      	str	r4, [sp, #156]	; 0x9c
  402238:	9326      	str	r3, [sp, #152]	; 0x98
  40223a:	f8c8 2004 	str.w	r2, [r8, #4]
  40223e:	f300 836a 	bgt.w	402916 <_svfprintf_r+0xf7a>
  402242:	f108 0808 	add.w	r8, r8, #8
  402246:	9b1f      	ldr	r3, [sp, #124]	; 0x7c
  402248:	9a13      	ldr	r2, [sp, #76]	; 0x4c
  40224a:	9c27      	ldr	r4, [sp, #156]	; 0x9c
  40224c:	4293      	cmp	r3, r2
  40224e:	db03      	blt.n	402258 <_svfprintf_r+0x8bc>
  402250:	9b07      	ldr	r3, [sp, #28]
  402252:	07dd      	lsls	r5, r3, #31
  402254:	f57f ad82 	bpl.w	401d5c <_svfprintf_r+0x3c0>
  402258:	9b26      	ldr	r3, [sp, #152]	; 0x98
  40225a:	9919      	ldr	r1, [sp, #100]	; 0x64
  40225c:	9a1a      	ldr	r2, [sp, #104]	; 0x68
  40225e:	f8c8 2000 	str.w	r2, [r8]
  402262:	3301      	adds	r3, #1
  402264:	440c      	add	r4, r1
  402266:	2b07      	cmp	r3, #7
  402268:	f8c8 1004 	str.w	r1, [r8, #4]
  40226c:	9427      	str	r4, [sp, #156]	; 0x9c
  40226e:	9326      	str	r3, [sp, #152]	; 0x98
  402270:	f300 839e 	bgt.w	4029b0 <_svfprintf_r+0x1014>
  402274:	f108 0808 	add.w	r8, r8, #8
  402278:	9b13      	ldr	r3, [sp, #76]	; 0x4c
  40227a:	1e5e      	subs	r6, r3, #1
  40227c:	2e00      	cmp	r6, #0
  40227e:	f77f ad6d 	ble.w	401d5c <_svfprintf_r+0x3c0>
  402282:	2e10      	cmp	r6, #16
  402284:	9b26      	ldr	r3, [sp, #152]	; 0x98
  402286:	4d0a      	ldr	r5, [pc, #40]	; (4022b0 <_svfprintf_r+0x914>)
  402288:	f340 81f5 	ble.w	402676 <_svfprintf_r+0xcda>
  40228c:	4622      	mov	r2, r4
  40228e:	2710      	movs	r7, #16
  402290:	f8dd b030 	ldr.w	fp, [sp, #48]	; 0x30
  402294:	9c0b      	ldr	r4, [sp, #44]	; 0x2c
  402296:	e013      	b.n	4022c0 <_svfprintf_r+0x924>
  402298:	00407250 	.word	0x00407250
  40229c:	0040723c 	.word	0x0040723c
  4022a0:	7fefffff 	.word	0x7fefffff
  4022a4:	00407230 	.word	0x00407230
  4022a8:	0040722c 	.word	0x0040722c
  4022ac:	0040726c 	.word	0x0040726c
  4022b0:	00407280 	.word	0x00407280
  4022b4:	f108 0808 	add.w	r8, r8, #8
  4022b8:	3e10      	subs	r6, #16
  4022ba:	2e10      	cmp	r6, #16
  4022bc:	f340 81da 	ble.w	402674 <_svfprintf_r+0xcd8>
  4022c0:	3301      	adds	r3, #1
  4022c2:	3210      	adds	r2, #16
  4022c4:	2b07      	cmp	r3, #7
  4022c6:	9227      	str	r2, [sp, #156]	; 0x9c
  4022c8:	9326      	str	r3, [sp, #152]	; 0x98
  4022ca:	e888 00a0 	stmia.w	r8, {r5, r7}
  4022ce:	ddf1      	ble.n	4022b4 <_svfprintf_r+0x918>
  4022d0:	aa25      	add	r2, sp, #148	; 0x94
  4022d2:	4621      	mov	r1, r4
  4022d4:	4658      	mov	r0, fp
  4022d6:	f002 fcc1 	bl	404c5c <__ssprint_r>
  4022da:	2800      	cmp	r0, #0
  4022dc:	f47f ac30 	bne.w	401b40 <_svfprintf_r+0x1a4>
  4022e0:	9a27      	ldr	r2, [sp, #156]	; 0x9c
  4022e2:	9b26      	ldr	r3, [sp, #152]	; 0x98
  4022e4:	46c8      	mov	r8, r9
  4022e6:	e7e7      	b.n	4022b8 <_svfprintf_r+0x91c>
  4022e8:	9b0d      	ldr	r3, [sp, #52]	; 0x34
  4022ea:	9a08      	ldr	r2, [sp, #32]
  4022ec:	1a9f      	subs	r7, r3, r2
  4022ee:	2f00      	cmp	r7, #0
  4022f0:	f77f ace5 	ble.w	401cbe <_svfprintf_r+0x322>
  4022f4:	2f10      	cmp	r7, #16
  4022f6:	9b26      	ldr	r3, [sp, #152]	; 0x98
  4022f8:	4db6      	ldr	r5, [pc, #728]	; (4025d4 <_svfprintf_r+0xc38>)
  4022fa:	dd27      	ble.n	40234c <_svfprintf_r+0x9b0>
  4022fc:	4642      	mov	r2, r8
  4022fe:	4621      	mov	r1, r4
  402300:	46b0      	mov	r8, r6
  402302:	f04f 0b10 	mov.w	fp, #16
  402306:	462e      	mov	r6, r5
  402308:	9c0c      	ldr	r4, [sp, #48]	; 0x30
  40230a:	9d0b      	ldr	r5, [sp, #44]	; 0x2c
  40230c:	e004      	b.n	402318 <_svfprintf_r+0x97c>
  40230e:	3f10      	subs	r7, #16
  402310:	2f10      	cmp	r7, #16
  402312:	f102 0208 	add.w	r2, r2, #8
  402316:	dd15      	ble.n	402344 <_svfprintf_r+0x9a8>
  402318:	3301      	adds	r3, #1
  40231a:	3110      	adds	r1, #16
  40231c:	2b07      	cmp	r3, #7
  40231e:	9127      	str	r1, [sp, #156]	; 0x9c
  402320:	9326      	str	r3, [sp, #152]	; 0x98
  402322:	e882 0840 	stmia.w	r2, {r6, fp}
  402326:	ddf2      	ble.n	40230e <_svfprintf_r+0x972>
  402328:	aa25      	add	r2, sp, #148	; 0x94
  40232a:	4629      	mov	r1, r5
  40232c:	4620      	mov	r0, r4
  40232e:	f002 fc95 	bl	404c5c <__ssprint_r>
  402332:	2800      	cmp	r0, #0
  402334:	f47f ac04 	bne.w	401b40 <_svfprintf_r+0x1a4>
  402338:	3f10      	subs	r7, #16
  40233a:	2f10      	cmp	r7, #16
  40233c:	9927      	ldr	r1, [sp, #156]	; 0x9c
  40233e:	9b26      	ldr	r3, [sp, #152]	; 0x98
  402340:	464a      	mov	r2, r9
  402342:	dce9      	bgt.n	402318 <_svfprintf_r+0x97c>
  402344:	4635      	mov	r5, r6
  402346:	460c      	mov	r4, r1
  402348:	4646      	mov	r6, r8
  40234a:	4690      	mov	r8, r2
  40234c:	3301      	adds	r3, #1
  40234e:	443c      	add	r4, r7
  402350:	2b07      	cmp	r3, #7
  402352:	9427      	str	r4, [sp, #156]	; 0x9c
  402354:	9326      	str	r3, [sp, #152]	; 0x98
  402356:	e888 00a0 	stmia.w	r8, {r5, r7}
  40235a:	f300 8232 	bgt.w	4027c2 <_svfprintf_r+0xe26>
  40235e:	f108 0808 	add.w	r8, r8, #8
  402362:	e4ac      	b.n	401cbe <_svfprintf_r+0x322>
  402364:	9b13      	ldr	r3, [sp, #76]	; 0x4c
  402366:	9f26      	ldr	r7, [sp, #152]	; 0x98
  402368:	2b01      	cmp	r3, #1
  40236a:	f340 81fe 	ble.w	40276a <_svfprintf_r+0xdce>
  40236e:	3701      	adds	r7, #1
  402370:	3401      	adds	r4, #1
  402372:	2301      	movs	r3, #1
  402374:	2f07      	cmp	r7, #7
  402376:	9427      	str	r4, [sp, #156]	; 0x9c
  402378:	9726      	str	r7, [sp, #152]	; 0x98
  40237a:	f8c8 6000 	str.w	r6, [r8]
  40237e:	f8c8 3004 	str.w	r3, [r8, #4]
  402382:	f300 8203 	bgt.w	40278c <_svfprintf_r+0xdf0>
  402386:	f108 0808 	add.w	r8, r8, #8
  40238a:	9a19      	ldr	r2, [sp, #100]	; 0x64
  40238c:	9b1a      	ldr	r3, [sp, #104]	; 0x68
  40238e:	f8c8 3000 	str.w	r3, [r8]
  402392:	3701      	adds	r7, #1
  402394:	4414      	add	r4, r2
  402396:	2f07      	cmp	r7, #7
  402398:	9427      	str	r4, [sp, #156]	; 0x9c
  40239a:	9726      	str	r7, [sp, #152]	; 0x98
  40239c:	f8c8 2004 	str.w	r2, [r8, #4]
  4023a0:	f300 8200 	bgt.w	4027a4 <_svfprintf_r+0xe08>
  4023a4:	f108 0808 	add.w	r8, r8, #8
  4023a8:	a815      	add	r0, sp, #84	; 0x54
  4023aa:	c80d      	ldmia	r0, {r0, r2, r3}
  4023ac:	9914      	ldr	r1, [sp, #80]	; 0x50
  4023ae:	f003 fce9 	bl	405d84 <__aeabi_dcmpeq>
  4023b2:	9b13      	ldr	r3, [sp, #76]	; 0x4c
  4023b4:	2800      	cmp	r0, #0
  4023b6:	f040 8101 	bne.w	4025bc <_svfprintf_r+0xc20>
  4023ba:	3b01      	subs	r3, #1
  4023bc:	3701      	adds	r7, #1
  4023be:	3601      	adds	r6, #1
  4023c0:	441c      	add	r4, r3
  4023c2:	2f07      	cmp	r7, #7
  4023c4:	9726      	str	r7, [sp, #152]	; 0x98
  4023c6:	9427      	str	r4, [sp, #156]	; 0x9c
  4023c8:	f8c8 6000 	str.w	r6, [r8]
  4023cc:	f8c8 3004 	str.w	r3, [r8, #4]
  4023d0:	f300 8127 	bgt.w	402622 <_svfprintf_r+0xc86>
  4023d4:	f108 0808 	add.w	r8, r8, #8
  4023d8:	9a1b      	ldr	r2, [sp, #108]	; 0x6c
  4023da:	f8c8 2004 	str.w	r2, [r8, #4]
  4023de:	3701      	adds	r7, #1
  4023e0:	4414      	add	r4, r2
  4023e2:	ab21      	add	r3, sp, #132	; 0x84
  4023e4:	2f07      	cmp	r7, #7
  4023e6:	9427      	str	r4, [sp, #156]	; 0x9c
  4023e8:	9726      	str	r7, [sp, #152]	; 0x98
  4023ea:	f8c8 3000 	str.w	r3, [r8]
  4023ee:	f77f acb3 	ble.w	401d58 <_svfprintf_r+0x3bc>
  4023f2:	aa25      	add	r2, sp, #148	; 0x94
  4023f4:	990b      	ldr	r1, [sp, #44]	; 0x2c
  4023f6:	980c      	ldr	r0, [sp, #48]	; 0x30
  4023f8:	f002 fc30 	bl	404c5c <__ssprint_r>
  4023fc:	2800      	cmp	r0, #0
  4023fe:	f47f ab9f 	bne.w	401b40 <_svfprintf_r+0x1a4>
  402402:	9c27      	ldr	r4, [sp, #156]	; 0x9c
  402404:	46c8      	mov	r8, r9
  402406:	e4a9      	b.n	401d5c <_svfprintf_r+0x3c0>
  402408:	aa25      	add	r2, sp, #148	; 0x94
  40240a:	990b      	ldr	r1, [sp, #44]	; 0x2c
  40240c:	980c      	ldr	r0, [sp, #48]	; 0x30
  40240e:	f002 fc25 	bl	404c5c <__ssprint_r>
  402412:	2800      	cmp	r0, #0
  402414:	f43f aceb 	beq.w	401dee <_svfprintf_r+0x452>
  402418:	f7ff bb92 	b.w	401b40 <_svfprintf_r+0x1a4>
  40241c:	f8dd b01c 	ldr.w	fp, [sp, #28]
  402420:	2b01      	cmp	r3, #1
  402422:	f000 8134 	beq.w	40268e <_svfprintf_r+0xcf2>
  402426:	2b02      	cmp	r3, #2
  402428:	d125      	bne.n	402476 <_svfprintf_r+0xada>
  40242a:	f8cd b01c 	str.w	fp, [sp, #28]
  40242e:	2400      	movs	r4, #0
  402430:	2500      	movs	r5, #0
  402432:	e61e      	b.n	402072 <_svfprintf_r+0x6d6>
  402434:	aa25      	add	r2, sp, #148	; 0x94
  402436:	990b      	ldr	r1, [sp, #44]	; 0x2c
  402438:	980c      	ldr	r0, [sp, #48]	; 0x30
  40243a:	f002 fc0f 	bl	404c5c <__ssprint_r>
  40243e:	2800      	cmp	r0, #0
  402440:	f47f ab7e 	bne.w	401b40 <_svfprintf_r+0x1a4>
  402444:	9c27      	ldr	r4, [sp, #156]	; 0x9c
  402446:	46c8      	mov	r8, r9
  402448:	e475      	b.n	401d36 <_svfprintf_r+0x39a>
  40244a:	aa25      	add	r2, sp, #148	; 0x94
  40244c:	990b      	ldr	r1, [sp, #44]	; 0x2c
  40244e:	980c      	ldr	r0, [sp, #48]	; 0x30
  402450:	f002 fc04 	bl	404c5c <__ssprint_r>
  402454:	2800      	cmp	r0, #0
  402456:	f47f ab73 	bne.w	401b40 <_svfprintf_r+0x1a4>
  40245a:	9c27      	ldr	r4, [sp, #156]	; 0x9c
  40245c:	46c8      	mov	r8, r9
  40245e:	e41b      	b.n	401c98 <_svfprintf_r+0x2fc>
  402460:	aa25      	add	r2, sp, #148	; 0x94
  402462:	990b      	ldr	r1, [sp, #44]	; 0x2c
  402464:	980c      	ldr	r0, [sp, #48]	; 0x30
  402466:	f002 fbf9 	bl	404c5c <__ssprint_r>
  40246a:	2800      	cmp	r0, #0
  40246c:	f47f ab68 	bne.w	401b40 <_svfprintf_r+0x1a4>
  402470:	9c27      	ldr	r4, [sp, #156]	; 0x9c
  402472:	46c8      	mov	r8, r9
  402474:	e420      	b.n	401cb8 <_svfprintf_r+0x31c>
  402476:	f8cd b01c 	str.w	fp, [sp, #28]
  40247a:	2400      	movs	r4, #0
  40247c:	2500      	movs	r5, #0
  40247e:	4649      	mov	r1, r9
  402480:	e000      	b.n	402484 <_svfprintf_r+0xae8>
  402482:	4631      	mov	r1, r6
  402484:	08e2      	lsrs	r2, r4, #3
  402486:	ea42 7245 	orr.w	r2, r2, r5, lsl #29
  40248a:	08e8      	lsrs	r0, r5, #3
  40248c:	f004 0307 	and.w	r3, r4, #7
  402490:	4605      	mov	r5, r0
  402492:	4614      	mov	r4, r2
  402494:	3330      	adds	r3, #48	; 0x30
  402496:	ea54 0205 	orrs.w	r2, r4, r5
  40249a:	f801 3c01 	strb.w	r3, [r1, #-1]
  40249e:	f101 36ff 	add.w	r6, r1, #4294967295
  4024a2:	d1ee      	bne.n	402482 <_svfprintf_r+0xae6>
  4024a4:	9a07      	ldr	r2, [sp, #28]
  4024a6:	07d2      	lsls	r2, r2, #31
  4024a8:	f57f adf3 	bpl.w	402092 <_svfprintf_r+0x6f6>
  4024ac:	2b30      	cmp	r3, #48	; 0x30
  4024ae:	f43f adf0 	beq.w	402092 <_svfprintf_r+0x6f6>
  4024b2:	3902      	subs	r1, #2
  4024b4:	2330      	movs	r3, #48	; 0x30
  4024b6:	f806 3c01 	strb.w	r3, [r6, #-1]
  4024ba:	eba9 0301 	sub.w	r3, r9, r1
  4024be:	930e      	str	r3, [sp, #56]	; 0x38
  4024c0:	460e      	mov	r6, r1
  4024c2:	f7ff bb7b 	b.w	401bbc <_svfprintf_r+0x220>
  4024c6:	991f      	ldr	r1, [sp, #124]	; 0x7c
  4024c8:	2900      	cmp	r1, #0
  4024ca:	f340 822e 	ble.w	40292a <_svfprintf_r+0xf8e>
  4024ce:	9b12      	ldr	r3, [sp, #72]	; 0x48
  4024d0:	9a13      	ldr	r2, [sp, #76]	; 0x4c
  4024d2:	4293      	cmp	r3, r2
  4024d4:	bfa8      	it	ge
  4024d6:	4613      	movge	r3, r2
  4024d8:	2b00      	cmp	r3, #0
  4024da:	461f      	mov	r7, r3
  4024dc:	dd0d      	ble.n	4024fa <_svfprintf_r+0xb5e>
  4024de:	9b26      	ldr	r3, [sp, #152]	; 0x98
  4024e0:	f8c8 6000 	str.w	r6, [r8]
  4024e4:	3301      	adds	r3, #1
  4024e6:	443c      	add	r4, r7
  4024e8:	2b07      	cmp	r3, #7
  4024ea:	9427      	str	r4, [sp, #156]	; 0x9c
  4024ec:	f8c8 7004 	str.w	r7, [r8, #4]
  4024f0:	9326      	str	r3, [sp, #152]	; 0x98
  4024f2:	f300 831f 	bgt.w	402b34 <_svfprintf_r+0x1198>
  4024f6:	f108 0808 	add.w	r8, r8, #8
  4024fa:	9b12      	ldr	r3, [sp, #72]	; 0x48
  4024fc:	2f00      	cmp	r7, #0
  4024fe:	bfa8      	it	ge
  402500:	1bdb      	subge	r3, r3, r7
  402502:	2b00      	cmp	r3, #0
  402504:	461f      	mov	r7, r3
  402506:	f340 80d6 	ble.w	4026b6 <_svfprintf_r+0xd1a>
  40250a:	2f10      	cmp	r7, #16
  40250c:	9b26      	ldr	r3, [sp, #152]	; 0x98
  40250e:	4d31      	ldr	r5, [pc, #196]	; (4025d4 <_svfprintf_r+0xc38>)
  402510:	f340 81ed 	ble.w	4028ee <_svfprintf_r+0xf52>
  402514:	4642      	mov	r2, r8
  402516:	4621      	mov	r1, r4
  402518:	46b0      	mov	r8, r6
  40251a:	f04f 0b10 	mov.w	fp, #16
  40251e:	462e      	mov	r6, r5
  402520:	9c0c      	ldr	r4, [sp, #48]	; 0x30
  402522:	9d0b      	ldr	r5, [sp, #44]	; 0x2c
  402524:	e004      	b.n	402530 <_svfprintf_r+0xb94>
  402526:	3208      	adds	r2, #8
  402528:	3f10      	subs	r7, #16
  40252a:	2f10      	cmp	r7, #16
  40252c:	f340 81db 	ble.w	4028e6 <_svfprintf_r+0xf4a>
  402530:	3301      	adds	r3, #1
  402532:	3110      	adds	r1, #16
  402534:	2b07      	cmp	r3, #7
  402536:	9127      	str	r1, [sp, #156]	; 0x9c
  402538:	9326      	str	r3, [sp, #152]	; 0x98
  40253a:	e882 0840 	stmia.w	r2, {r6, fp}
  40253e:	ddf2      	ble.n	402526 <_svfprintf_r+0xb8a>
  402540:	aa25      	add	r2, sp, #148	; 0x94
  402542:	4629      	mov	r1, r5
  402544:	4620      	mov	r0, r4
  402546:	f002 fb89 	bl	404c5c <__ssprint_r>
  40254a:	2800      	cmp	r0, #0
  40254c:	f47f aaf8 	bne.w	401b40 <_svfprintf_r+0x1a4>
  402550:	9927      	ldr	r1, [sp, #156]	; 0x9c
  402552:	9b26      	ldr	r3, [sp, #152]	; 0x98
  402554:	464a      	mov	r2, r9
  402556:	e7e7      	b.n	402528 <_svfprintf_r+0xb8c>
  402558:	9b0a      	ldr	r3, [sp, #40]	; 0x28
  40255a:	930e      	str	r3, [sp, #56]	; 0x38
  40255c:	464e      	mov	r6, r9
  40255e:	f7ff bb2d 	b.w	401bbc <_svfprintf_r+0x220>
  402562:	2d00      	cmp	r5, #0
  402564:	bf08      	it	eq
  402566:	2c0a      	cmpeq	r4, #10
  402568:	f0c0 808f 	bcc.w	40268a <_svfprintf_r+0xcee>
  40256c:	464e      	mov	r6, r9
  40256e:	4620      	mov	r0, r4
  402570:	4629      	mov	r1, r5
  402572:	220a      	movs	r2, #10
  402574:	2300      	movs	r3, #0
  402576:	f003 fc75 	bl	405e64 <__aeabi_uldivmod>
  40257a:	3230      	adds	r2, #48	; 0x30
  40257c:	f806 2d01 	strb.w	r2, [r6, #-1]!
  402580:	4620      	mov	r0, r4
  402582:	4629      	mov	r1, r5
  402584:	2300      	movs	r3, #0
  402586:	220a      	movs	r2, #10
  402588:	f003 fc6c 	bl	405e64 <__aeabi_uldivmod>
  40258c:	4604      	mov	r4, r0
  40258e:	460d      	mov	r5, r1
  402590:	ea54 0305 	orrs.w	r3, r4, r5
  402594:	d1eb      	bne.n	40256e <_svfprintf_r+0xbd2>
  402596:	eba9 0306 	sub.w	r3, r9, r6
  40259a:	930e      	str	r3, [sp, #56]	; 0x38
  40259c:	f7ff bb0e 	b.w	401bbc <_svfprintf_r+0x220>
  4025a0:	aa25      	add	r2, sp, #148	; 0x94
  4025a2:	990b      	ldr	r1, [sp, #44]	; 0x2c
  4025a4:	980c      	ldr	r0, [sp, #48]	; 0x30
  4025a6:	f002 fb59 	bl	404c5c <__ssprint_r>
  4025aa:	2800      	cmp	r0, #0
  4025ac:	f47f aac8 	bne.w	401b40 <_svfprintf_r+0x1a4>
  4025b0:	f89d 7077 	ldrb.w	r7, [sp, #119]	; 0x77
  4025b4:	9c27      	ldr	r4, [sp, #156]	; 0x9c
  4025b6:	46c8      	mov	r8, r9
  4025b8:	f7ff bb5e 	b.w	401c78 <_svfprintf_r+0x2dc>
  4025bc:	1e5e      	subs	r6, r3, #1
  4025be:	2e00      	cmp	r6, #0
  4025c0:	f77f af0a 	ble.w	4023d8 <_svfprintf_r+0xa3c>
  4025c4:	2e10      	cmp	r6, #16
  4025c6:	4d03      	ldr	r5, [pc, #12]	; (4025d4 <_svfprintf_r+0xc38>)
  4025c8:	dd22      	ble.n	402610 <_svfprintf_r+0xc74>
  4025ca:	4622      	mov	r2, r4
  4025cc:	f04f 0b10 	mov.w	fp, #16
  4025d0:	9c0c      	ldr	r4, [sp, #48]	; 0x30
  4025d2:	e006      	b.n	4025e2 <_svfprintf_r+0xc46>
  4025d4:	00407280 	.word	0x00407280
  4025d8:	3e10      	subs	r6, #16
  4025da:	2e10      	cmp	r6, #16
  4025dc:	f108 0808 	add.w	r8, r8, #8
  4025e0:	dd15      	ble.n	40260e <_svfprintf_r+0xc72>
  4025e2:	3701      	adds	r7, #1
  4025e4:	3210      	adds	r2, #16
  4025e6:	2f07      	cmp	r7, #7
  4025e8:	9227      	str	r2, [sp, #156]	; 0x9c
  4025ea:	9726      	str	r7, [sp, #152]	; 0x98
  4025ec:	e888 0820 	stmia.w	r8, {r5, fp}
  4025f0:	ddf2      	ble.n	4025d8 <_svfprintf_r+0xc3c>
  4025f2:	aa25      	add	r2, sp, #148	; 0x94
  4025f4:	990b      	ldr	r1, [sp, #44]	; 0x2c
  4025f6:	4620      	mov	r0, r4
  4025f8:	f002 fb30 	bl	404c5c <__ssprint_r>
  4025fc:	2800      	cmp	r0, #0
  4025fe:	f47f aa9f 	bne.w	401b40 <_svfprintf_r+0x1a4>
  402602:	3e10      	subs	r6, #16
  402604:	2e10      	cmp	r6, #16
  402606:	9a27      	ldr	r2, [sp, #156]	; 0x9c
  402608:	9f26      	ldr	r7, [sp, #152]	; 0x98
  40260a:	46c8      	mov	r8, r9
  40260c:	dce9      	bgt.n	4025e2 <_svfprintf_r+0xc46>
  40260e:	4614      	mov	r4, r2
  402610:	3701      	adds	r7, #1
  402612:	4434      	add	r4, r6
  402614:	2f07      	cmp	r7, #7
  402616:	9427      	str	r4, [sp, #156]	; 0x9c
  402618:	9726      	str	r7, [sp, #152]	; 0x98
  40261a:	e888 0060 	stmia.w	r8, {r5, r6}
  40261e:	f77f aed9 	ble.w	4023d4 <_svfprintf_r+0xa38>
  402622:	aa25      	add	r2, sp, #148	; 0x94
  402624:	990b      	ldr	r1, [sp, #44]	; 0x2c
  402626:	980c      	ldr	r0, [sp, #48]	; 0x30
  402628:	f002 fb18 	bl	404c5c <__ssprint_r>
  40262c:	2800      	cmp	r0, #0
  40262e:	f47f aa87 	bne.w	401b40 <_svfprintf_r+0x1a4>
  402632:	9c27      	ldr	r4, [sp, #156]	; 0x9c
  402634:	9f26      	ldr	r7, [sp, #152]	; 0x98
  402636:	46c8      	mov	r8, r9
  402638:	e6ce      	b.n	4023d8 <_svfprintf_r+0xa3c>
  40263a:	9a0f      	ldr	r2, [sp, #60]	; 0x3c
  40263c:	6814      	ldr	r4, [r2, #0]
  40263e:	4613      	mov	r3, r2
  402640:	3304      	adds	r3, #4
  402642:	17e5      	asrs	r5, r4, #31
  402644:	930f      	str	r3, [sp, #60]	; 0x3c
  402646:	4622      	mov	r2, r4
  402648:	462b      	mov	r3, r5
  40264a:	e4fa      	b.n	402042 <_svfprintf_r+0x6a6>
  40264c:	3204      	adds	r2, #4
  40264e:	681c      	ldr	r4, [r3, #0]
  402650:	920f      	str	r2, [sp, #60]	; 0x3c
  402652:	2301      	movs	r3, #1
  402654:	2500      	movs	r5, #0
  402656:	f7ff ba94 	b.w	401b82 <_svfprintf_r+0x1e6>
  40265a:	681c      	ldr	r4, [r3, #0]
  40265c:	3304      	adds	r3, #4
  40265e:	930f      	str	r3, [sp, #60]	; 0x3c
  402660:	2500      	movs	r5, #0
  402662:	e421      	b.n	401ea8 <_svfprintf_r+0x50c>
  402664:	990f      	ldr	r1, [sp, #60]	; 0x3c
  402666:	460a      	mov	r2, r1
  402668:	3204      	adds	r2, #4
  40266a:	680c      	ldr	r4, [r1, #0]
  40266c:	920f      	str	r2, [sp, #60]	; 0x3c
  40266e:	2500      	movs	r5, #0
  402670:	f7ff ba87 	b.w	401b82 <_svfprintf_r+0x1e6>
  402674:	4614      	mov	r4, r2
  402676:	3301      	adds	r3, #1
  402678:	4434      	add	r4, r6
  40267a:	2b07      	cmp	r3, #7
  40267c:	9427      	str	r4, [sp, #156]	; 0x9c
  40267e:	9326      	str	r3, [sp, #152]	; 0x98
  402680:	e888 0060 	stmia.w	r8, {r5, r6}
  402684:	f77f ab68 	ble.w	401d58 <_svfprintf_r+0x3bc>
  402688:	e6b3      	b.n	4023f2 <_svfprintf_r+0xa56>
  40268a:	f8dd b01c 	ldr.w	fp, [sp, #28]
  40268e:	f8cd b01c 	str.w	fp, [sp, #28]
  402692:	ae42      	add	r6, sp, #264	; 0x108
  402694:	3430      	adds	r4, #48	; 0x30
  402696:	2301      	movs	r3, #1
  402698:	f806 4d41 	strb.w	r4, [r6, #-65]!
  40269c:	930e      	str	r3, [sp, #56]	; 0x38
  40269e:	f7ff ba8d 	b.w	401bbc <_svfprintf_r+0x220>
  4026a2:	aa25      	add	r2, sp, #148	; 0x94
  4026a4:	990b      	ldr	r1, [sp, #44]	; 0x2c
  4026a6:	980c      	ldr	r0, [sp, #48]	; 0x30
  4026a8:	f002 fad8 	bl	404c5c <__ssprint_r>
  4026ac:	2800      	cmp	r0, #0
  4026ae:	f47f aa47 	bne.w	401b40 <_svfprintf_r+0x1a4>
  4026b2:	9c27      	ldr	r4, [sp, #156]	; 0x9c
  4026b4:	46c8      	mov	r8, r9
  4026b6:	9a1f      	ldr	r2, [sp, #124]	; 0x7c
  4026b8:	9b13      	ldr	r3, [sp, #76]	; 0x4c
  4026ba:	429a      	cmp	r2, r3
  4026bc:	db44      	blt.n	402748 <_svfprintf_r+0xdac>
  4026be:	9b07      	ldr	r3, [sp, #28]
  4026c0:	07d9      	lsls	r1, r3, #31
  4026c2:	d441      	bmi.n	402748 <_svfprintf_r+0xdac>
  4026c4:	9b13      	ldr	r3, [sp, #76]	; 0x4c
  4026c6:	9812      	ldr	r0, [sp, #72]	; 0x48
  4026c8:	1a9a      	subs	r2, r3, r2
  4026ca:	1a1d      	subs	r5, r3, r0
  4026cc:	4295      	cmp	r5, r2
  4026ce:	bfa8      	it	ge
  4026d0:	4615      	movge	r5, r2
  4026d2:	2d00      	cmp	r5, #0
  4026d4:	dd0e      	ble.n	4026f4 <_svfprintf_r+0xd58>
  4026d6:	9926      	ldr	r1, [sp, #152]	; 0x98
  4026d8:	f8c8 5004 	str.w	r5, [r8, #4]
  4026dc:	3101      	adds	r1, #1
  4026de:	4406      	add	r6, r0
  4026e0:	442c      	add	r4, r5
  4026e2:	2907      	cmp	r1, #7
  4026e4:	f8c8 6000 	str.w	r6, [r8]
  4026e8:	9427      	str	r4, [sp, #156]	; 0x9c
  4026ea:	9126      	str	r1, [sp, #152]	; 0x98
  4026ec:	f300 823b 	bgt.w	402b66 <_svfprintf_r+0x11ca>
  4026f0:	f108 0808 	add.w	r8, r8, #8
  4026f4:	2d00      	cmp	r5, #0
  4026f6:	bfac      	ite	ge
  4026f8:	1b56      	subge	r6, r2, r5
  4026fa:	4616      	movlt	r6, r2
  4026fc:	2e00      	cmp	r6, #0
  4026fe:	f77f ab2d 	ble.w	401d5c <_svfprintf_r+0x3c0>
  402702:	2e10      	cmp	r6, #16
  402704:	9b26      	ldr	r3, [sp, #152]	; 0x98
  402706:	4db0      	ldr	r5, [pc, #704]	; (4029c8 <_svfprintf_r+0x102c>)
  402708:	ddb5      	ble.n	402676 <_svfprintf_r+0xcda>
  40270a:	4622      	mov	r2, r4
  40270c:	2710      	movs	r7, #16
  40270e:	f8dd b030 	ldr.w	fp, [sp, #48]	; 0x30
  402712:	9c0b      	ldr	r4, [sp, #44]	; 0x2c
  402714:	e004      	b.n	402720 <_svfprintf_r+0xd84>
  402716:	f108 0808 	add.w	r8, r8, #8
  40271a:	3e10      	subs	r6, #16
  40271c:	2e10      	cmp	r6, #16
  40271e:	dda9      	ble.n	402674 <_svfprintf_r+0xcd8>
  402720:	3301      	adds	r3, #1
  402722:	3210      	adds	r2, #16
  402724:	2b07      	cmp	r3, #7
  402726:	9227      	str	r2, [sp, #156]	; 0x9c
  402728:	9326      	str	r3, [sp, #152]	; 0x98
  40272a:	e888 00a0 	stmia.w	r8, {r5, r7}
  40272e:	ddf2      	ble.n	402716 <_svfprintf_r+0xd7a>
  402730:	aa25      	add	r2, sp, #148	; 0x94
  402732:	4621      	mov	r1, r4
  402734:	4658      	mov	r0, fp
  402736:	f002 fa91 	bl	404c5c <__ssprint_r>
  40273a:	2800      	cmp	r0, #0
  40273c:	f47f aa00 	bne.w	401b40 <_svfprintf_r+0x1a4>
  402740:	9a27      	ldr	r2, [sp, #156]	; 0x9c
  402742:	9b26      	ldr	r3, [sp, #152]	; 0x98
  402744:	46c8      	mov	r8, r9
  402746:	e7e8      	b.n	40271a <_svfprintf_r+0xd7e>
  402748:	9b26      	ldr	r3, [sp, #152]	; 0x98
  40274a:	9819      	ldr	r0, [sp, #100]	; 0x64
  40274c:	991a      	ldr	r1, [sp, #104]	; 0x68
  40274e:	f8c8 1000 	str.w	r1, [r8]
  402752:	3301      	adds	r3, #1
  402754:	4404      	add	r4, r0
  402756:	2b07      	cmp	r3, #7
  402758:	9427      	str	r4, [sp, #156]	; 0x9c
  40275a:	f8c8 0004 	str.w	r0, [r8, #4]
  40275e:	9326      	str	r3, [sp, #152]	; 0x98
  402760:	f300 81f5 	bgt.w	402b4e <_svfprintf_r+0x11b2>
  402764:	f108 0808 	add.w	r8, r8, #8
  402768:	e7ac      	b.n	4026c4 <_svfprintf_r+0xd28>
  40276a:	9b07      	ldr	r3, [sp, #28]
  40276c:	07da      	lsls	r2, r3, #31
  40276e:	f53f adfe 	bmi.w	40236e <_svfprintf_r+0x9d2>
  402772:	3701      	adds	r7, #1
  402774:	3401      	adds	r4, #1
  402776:	2301      	movs	r3, #1
  402778:	2f07      	cmp	r7, #7
  40277a:	9427      	str	r4, [sp, #156]	; 0x9c
  40277c:	9726      	str	r7, [sp, #152]	; 0x98
  40277e:	f8c8 6000 	str.w	r6, [r8]
  402782:	f8c8 3004 	str.w	r3, [r8, #4]
  402786:	f77f ae25 	ble.w	4023d4 <_svfprintf_r+0xa38>
  40278a:	e74a      	b.n	402622 <_svfprintf_r+0xc86>
  40278c:	aa25      	add	r2, sp, #148	; 0x94
  40278e:	990b      	ldr	r1, [sp, #44]	; 0x2c
  402790:	980c      	ldr	r0, [sp, #48]	; 0x30
  402792:	f002 fa63 	bl	404c5c <__ssprint_r>
  402796:	2800      	cmp	r0, #0
  402798:	f47f a9d2 	bne.w	401b40 <_svfprintf_r+0x1a4>
  40279c:	9c27      	ldr	r4, [sp, #156]	; 0x9c
  40279e:	9f26      	ldr	r7, [sp, #152]	; 0x98
  4027a0:	46c8      	mov	r8, r9
  4027a2:	e5f2      	b.n	40238a <_svfprintf_r+0x9ee>
  4027a4:	aa25      	add	r2, sp, #148	; 0x94
  4027a6:	990b      	ldr	r1, [sp, #44]	; 0x2c
  4027a8:	980c      	ldr	r0, [sp, #48]	; 0x30
  4027aa:	f002 fa57 	bl	404c5c <__ssprint_r>
  4027ae:	2800      	cmp	r0, #0
  4027b0:	f47f a9c6 	bne.w	401b40 <_svfprintf_r+0x1a4>
  4027b4:	9c27      	ldr	r4, [sp, #156]	; 0x9c
  4027b6:	9f26      	ldr	r7, [sp, #152]	; 0x98
  4027b8:	46c8      	mov	r8, r9
  4027ba:	e5f5      	b.n	4023a8 <_svfprintf_r+0xa0c>
  4027bc:	464e      	mov	r6, r9
  4027be:	f7ff b9fd 	b.w	401bbc <_svfprintf_r+0x220>
  4027c2:	aa25      	add	r2, sp, #148	; 0x94
  4027c4:	990b      	ldr	r1, [sp, #44]	; 0x2c
  4027c6:	980c      	ldr	r0, [sp, #48]	; 0x30
  4027c8:	f002 fa48 	bl	404c5c <__ssprint_r>
  4027cc:	2800      	cmp	r0, #0
  4027ce:	f47f a9b7 	bne.w	401b40 <_svfprintf_r+0x1a4>
  4027d2:	9c27      	ldr	r4, [sp, #156]	; 0x9c
  4027d4:	46c8      	mov	r8, r9
  4027d6:	f7ff ba72 	b.w	401cbe <_svfprintf_r+0x322>
  4027da:	9c15      	ldr	r4, [sp, #84]	; 0x54
  4027dc:	4622      	mov	r2, r4
  4027de:	4620      	mov	r0, r4
  4027e0:	9c14      	ldr	r4, [sp, #80]	; 0x50
  4027e2:	4623      	mov	r3, r4
  4027e4:	4621      	mov	r1, r4
  4027e6:	f003 faff 	bl	405de8 <__aeabi_dcmpun>
  4027ea:	2800      	cmp	r0, #0
  4027ec:	f040 8286 	bne.w	402cfc <_svfprintf_r+0x1360>
  4027f0:	9b0a      	ldr	r3, [sp, #40]	; 0x28
  4027f2:	3301      	adds	r3, #1
  4027f4:	9b11      	ldr	r3, [sp, #68]	; 0x44
  4027f6:	f023 0320 	bic.w	r3, r3, #32
  4027fa:	930e      	str	r3, [sp, #56]	; 0x38
  4027fc:	f000 81e2 	beq.w	402bc4 <_svfprintf_r+0x1228>
  402800:	2b47      	cmp	r3, #71	; 0x47
  402802:	f000 811e 	beq.w	402a42 <_svfprintf_r+0x10a6>
  402806:	f44b 7380 	orr.w	r3, fp, #256	; 0x100
  40280a:	9307      	str	r3, [sp, #28]
  40280c:	9b14      	ldr	r3, [sp, #80]	; 0x50
  40280e:	1e1f      	subs	r7, r3, #0
  402810:	9b15      	ldr	r3, [sp, #84]	; 0x54
  402812:	9308      	str	r3, [sp, #32]
  402814:	bfbb      	ittet	lt
  402816:	463b      	movlt	r3, r7
  402818:	f103 4700 	addlt.w	r7, r3, #2147483648	; 0x80000000
  40281c:	2300      	movge	r3, #0
  40281e:	232d      	movlt	r3, #45	; 0x2d
  402820:	9310      	str	r3, [sp, #64]	; 0x40
  402822:	9b11      	ldr	r3, [sp, #68]	; 0x44
  402824:	2b66      	cmp	r3, #102	; 0x66
  402826:	f000 81bb 	beq.w	402ba0 <_svfprintf_r+0x1204>
  40282a:	2b46      	cmp	r3, #70	; 0x46
  40282c:	f000 80df 	beq.w	4029ee <_svfprintf_r+0x1052>
  402830:	9b0e      	ldr	r3, [sp, #56]	; 0x38
  402832:	9a08      	ldr	r2, [sp, #32]
  402834:	2b45      	cmp	r3, #69	; 0x45
  402836:	bf0c      	ite	eq
  402838:	9b0a      	ldreq	r3, [sp, #40]	; 0x28
  40283a:	9d0a      	ldrne	r5, [sp, #40]	; 0x28
  40283c:	a823      	add	r0, sp, #140	; 0x8c
  40283e:	a920      	add	r1, sp, #128	; 0x80
  402840:	bf08      	it	eq
  402842:	1c5d      	addeq	r5, r3, #1
  402844:	9004      	str	r0, [sp, #16]
  402846:	9103      	str	r1, [sp, #12]
  402848:	a81f      	add	r0, sp, #124	; 0x7c
  40284a:	2102      	movs	r1, #2
  40284c:	463b      	mov	r3, r7
  40284e:	9002      	str	r0, [sp, #8]
  402850:	9501      	str	r5, [sp, #4]
  402852:	9100      	str	r1, [sp, #0]
  402854:	980c      	ldr	r0, [sp, #48]	; 0x30
  402856:	f000 fb73 	bl	402f40 <_dtoa_r>
  40285a:	9b11      	ldr	r3, [sp, #68]	; 0x44
  40285c:	2b67      	cmp	r3, #103	; 0x67
  40285e:	4606      	mov	r6, r0
  402860:	f040 81e0 	bne.w	402c24 <_svfprintf_r+0x1288>
  402864:	f01b 0f01 	tst.w	fp, #1
  402868:	f000 8246 	beq.w	402cf8 <_svfprintf_r+0x135c>
  40286c:	1974      	adds	r4, r6, r5
  40286e:	9a16      	ldr	r2, [sp, #88]	; 0x58
  402870:	9808      	ldr	r0, [sp, #32]
  402872:	9b17      	ldr	r3, [sp, #92]	; 0x5c
  402874:	4639      	mov	r1, r7
  402876:	f003 fa85 	bl	405d84 <__aeabi_dcmpeq>
  40287a:	2800      	cmp	r0, #0
  40287c:	f040 8165 	bne.w	402b4a <_svfprintf_r+0x11ae>
  402880:	9b23      	ldr	r3, [sp, #140]	; 0x8c
  402882:	42a3      	cmp	r3, r4
  402884:	d206      	bcs.n	402894 <_svfprintf_r+0xef8>
  402886:	2130      	movs	r1, #48	; 0x30
  402888:	1c5a      	adds	r2, r3, #1
  40288a:	9223      	str	r2, [sp, #140]	; 0x8c
  40288c:	7019      	strb	r1, [r3, #0]
  40288e:	9b23      	ldr	r3, [sp, #140]	; 0x8c
  402890:	429c      	cmp	r4, r3
  402892:	d8f9      	bhi.n	402888 <_svfprintf_r+0xeec>
  402894:	1b9b      	subs	r3, r3, r6
  402896:	9313      	str	r3, [sp, #76]	; 0x4c
  402898:	9b0e      	ldr	r3, [sp, #56]	; 0x38
  40289a:	2b47      	cmp	r3, #71	; 0x47
  40289c:	f000 80e9 	beq.w	402a72 <_svfprintf_r+0x10d6>
  4028a0:	9b11      	ldr	r3, [sp, #68]	; 0x44
  4028a2:	2b65      	cmp	r3, #101	; 0x65
  4028a4:	f340 81cd 	ble.w	402c42 <_svfprintf_r+0x12a6>
  4028a8:	9b11      	ldr	r3, [sp, #68]	; 0x44
  4028aa:	2b66      	cmp	r3, #102	; 0x66
  4028ac:	9b1f      	ldr	r3, [sp, #124]	; 0x7c
  4028ae:	9312      	str	r3, [sp, #72]	; 0x48
  4028b0:	f000 819e 	beq.w	402bf0 <_svfprintf_r+0x1254>
  4028b4:	9b13      	ldr	r3, [sp, #76]	; 0x4c
  4028b6:	9a12      	ldr	r2, [sp, #72]	; 0x48
  4028b8:	4619      	mov	r1, r3
  4028ba:	4291      	cmp	r1, r2
  4028bc:	f300 818a 	bgt.w	402bd4 <_svfprintf_r+0x1238>
  4028c0:	f01b 0f01 	tst.w	fp, #1
  4028c4:	f040 8213 	bne.w	402cee <_svfprintf_r+0x1352>
  4028c8:	ea22 73e2 	bic.w	r3, r2, r2, asr #31
  4028cc:	9308      	str	r3, [sp, #32]
  4028ce:	2367      	movs	r3, #103	; 0x67
  4028d0:	920e      	str	r2, [sp, #56]	; 0x38
  4028d2:	9311      	str	r3, [sp, #68]	; 0x44
  4028d4:	9b10      	ldr	r3, [sp, #64]	; 0x40
  4028d6:	2b00      	cmp	r3, #0
  4028d8:	f040 80c4 	bne.w	402a64 <_svfprintf_r+0x10c8>
  4028dc:	930a      	str	r3, [sp, #40]	; 0x28
  4028de:	f89d 7077 	ldrb.w	r7, [sp, #119]	; 0x77
  4028e2:	f7ff b973 	b.w	401bcc <_svfprintf_r+0x230>
  4028e6:	4635      	mov	r5, r6
  4028e8:	460c      	mov	r4, r1
  4028ea:	4646      	mov	r6, r8
  4028ec:	4690      	mov	r8, r2
  4028ee:	3301      	adds	r3, #1
  4028f0:	443c      	add	r4, r7
  4028f2:	2b07      	cmp	r3, #7
  4028f4:	9427      	str	r4, [sp, #156]	; 0x9c
  4028f6:	9326      	str	r3, [sp, #152]	; 0x98
  4028f8:	e888 00a0 	stmia.w	r8, {r5, r7}
  4028fc:	f73f aed1 	bgt.w	4026a2 <_svfprintf_r+0xd06>
  402900:	f108 0808 	add.w	r8, r8, #8
  402904:	e6d7      	b.n	4026b6 <_svfprintf_r+0xd1a>
  402906:	9a0f      	ldr	r2, [sp, #60]	; 0x3c
  402908:	6813      	ldr	r3, [r2, #0]
  40290a:	3204      	adds	r2, #4
  40290c:	920f      	str	r2, [sp, #60]	; 0x3c
  40290e:	9a09      	ldr	r2, [sp, #36]	; 0x24
  402910:	601a      	str	r2, [r3, #0]
  402912:	f7ff b86a 	b.w	4019ea <_svfprintf_r+0x4e>
  402916:	aa25      	add	r2, sp, #148	; 0x94
  402918:	990b      	ldr	r1, [sp, #44]	; 0x2c
  40291a:	980c      	ldr	r0, [sp, #48]	; 0x30
  40291c:	f002 f99e 	bl	404c5c <__ssprint_r>
  402920:	2800      	cmp	r0, #0
  402922:	f47f a90d 	bne.w	401b40 <_svfprintf_r+0x1a4>
  402926:	46c8      	mov	r8, r9
  402928:	e48d      	b.n	402246 <_svfprintf_r+0x8aa>
  40292a:	9b26      	ldr	r3, [sp, #152]	; 0x98
  40292c:	4a27      	ldr	r2, [pc, #156]	; (4029cc <_svfprintf_r+0x1030>)
  40292e:	f8c8 2000 	str.w	r2, [r8]
  402932:	3301      	adds	r3, #1
  402934:	3401      	adds	r4, #1
  402936:	2201      	movs	r2, #1
  402938:	2b07      	cmp	r3, #7
  40293a:	9427      	str	r4, [sp, #156]	; 0x9c
  40293c:	9326      	str	r3, [sp, #152]	; 0x98
  40293e:	f8c8 2004 	str.w	r2, [r8, #4]
  402942:	dc72      	bgt.n	402a2a <_svfprintf_r+0x108e>
  402944:	f108 0808 	add.w	r8, r8, #8
  402948:	b929      	cbnz	r1, 402956 <_svfprintf_r+0xfba>
  40294a:	9b13      	ldr	r3, [sp, #76]	; 0x4c
  40294c:	b91b      	cbnz	r3, 402956 <_svfprintf_r+0xfba>
  40294e:	9b07      	ldr	r3, [sp, #28]
  402950:	07d8      	lsls	r0, r3, #31
  402952:	f57f aa03 	bpl.w	401d5c <_svfprintf_r+0x3c0>
  402956:	9b26      	ldr	r3, [sp, #152]	; 0x98
  402958:	9819      	ldr	r0, [sp, #100]	; 0x64
  40295a:	9a1a      	ldr	r2, [sp, #104]	; 0x68
  40295c:	f8c8 2000 	str.w	r2, [r8]
  402960:	3301      	adds	r3, #1
  402962:	4602      	mov	r2, r0
  402964:	4422      	add	r2, r4
  402966:	2b07      	cmp	r3, #7
  402968:	9227      	str	r2, [sp, #156]	; 0x9c
  40296a:	f8c8 0004 	str.w	r0, [r8, #4]
  40296e:	9326      	str	r3, [sp, #152]	; 0x98
  402970:	f300 818d 	bgt.w	402c8e <_svfprintf_r+0x12f2>
  402974:	f108 0808 	add.w	r8, r8, #8
  402978:	2900      	cmp	r1, #0
  40297a:	f2c0 8165 	blt.w	402c48 <_svfprintf_r+0x12ac>
  40297e:	9913      	ldr	r1, [sp, #76]	; 0x4c
  402980:	f8c8 6000 	str.w	r6, [r8]
  402984:	3301      	adds	r3, #1
  402986:	188c      	adds	r4, r1, r2
  402988:	2b07      	cmp	r3, #7
  40298a:	9427      	str	r4, [sp, #156]	; 0x9c
  40298c:	9326      	str	r3, [sp, #152]	; 0x98
  40298e:	f8c8 1004 	str.w	r1, [r8, #4]
  402992:	f77f a9e1 	ble.w	401d58 <_svfprintf_r+0x3bc>
  402996:	e52c      	b.n	4023f2 <_svfprintf_r+0xa56>
  402998:	9a0f      	ldr	r2, [sp, #60]	; 0x3c
  40299a:	9909      	ldr	r1, [sp, #36]	; 0x24
  40299c:	6813      	ldr	r3, [r2, #0]
  40299e:	17cd      	asrs	r5, r1, #31
  4029a0:	4608      	mov	r0, r1
  4029a2:	3204      	adds	r2, #4
  4029a4:	4629      	mov	r1, r5
  4029a6:	920f      	str	r2, [sp, #60]	; 0x3c
  4029a8:	e9c3 0100 	strd	r0, r1, [r3]
  4029ac:	f7ff b81d 	b.w	4019ea <_svfprintf_r+0x4e>
  4029b0:	aa25      	add	r2, sp, #148	; 0x94
  4029b2:	990b      	ldr	r1, [sp, #44]	; 0x2c
  4029b4:	980c      	ldr	r0, [sp, #48]	; 0x30
  4029b6:	f002 f951 	bl	404c5c <__ssprint_r>
  4029ba:	2800      	cmp	r0, #0
  4029bc:	f47f a8c0 	bne.w	401b40 <_svfprintf_r+0x1a4>
  4029c0:	9c27      	ldr	r4, [sp, #156]	; 0x9c
  4029c2:	46c8      	mov	r8, r9
  4029c4:	e458      	b.n	402278 <_svfprintf_r+0x8dc>
  4029c6:	bf00      	nop
  4029c8:	00407280 	.word	0x00407280
  4029cc:	0040726c 	.word	0x0040726c
  4029d0:	2140      	movs	r1, #64	; 0x40
  4029d2:	980c      	ldr	r0, [sp, #48]	; 0x30
  4029d4:	f001 fa0a 	bl	403dec <_malloc_r>
  4029d8:	9a0b      	ldr	r2, [sp, #44]	; 0x2c
  4029da:	6010      	str	r0, [r2, #0]
  4029dc:	6110      	str	r0, [r2, #16]
  4029de:	2800      	cmp	r0, #0
  4029e0:	f000 81f2 	beq.w	402dc8 <_svfprintf_r+0x142c>
  4029e4:	9a0b      	ldr	r2, [sp, #44]	; 0x2c
  4029e6:	2340      	movs	r3, #64	; 0x40
  4029e8:	6153      	str	r3, [r2, #20]
  4029ea:	f7fe bfee 	b.w	4019ca <_svfprintf_r+0x2e>
  4029ee:	a823      	add	r0, sp, #140	; 0x8c
  4029f0:	a920      	add	r1, sp, #128	; 0x80
  4029f2:	9c0a      	ldr	r4, [sp, #40]	; 0x28
  4029f4:	9004      	str	r0, [sp, #16]
  4029f6:	9103      	str	r1, [sp, #12]
  4029f8:	a81f      	add	r0, sp, #124	; 0x7c
  4029fa:	2103      	movs	r1, #3
  4029fc:	9002      	str	r0, [sp, #8]
  4029fe:	9a08      	ldr	r2, [sp, #32]
  402a00:	9401      	str	r4, [sp, #4]
  402a02:	463b      	mov	r3, r7
  402a04:	9100      	str	r1, [sp, #0]
  402a06:	980c      	ldr	r0, [sp, #48]	; 0x30
  402a08:	f000 fa9a 	bl	402f40 <_dtoa_r>
  402a0c:	4625      	mov	r5, r4
  402a0e:	4606      	mov	r6, r0
  402a10:	9b11      	ldr	r3, [sp, #68]	; 0x44
  402a12:	2b46      	cmp	r3, #70	; 0x46
  402a14:	eb06 0405 	add.w	r4, r6, r5
  402a18:	f47f af29 	bne.w	40286e <_svfprintf_r+0xed2>
  402a1c:	7833      	ldrb	r3, [r6, #0]
  402a1e:	2b30      	cmp	r3, #48	; 0x30
  402a20:	f000 8178 	beq.w	402d14 <_svfprintf_r+0x1378>
  402a24:	9d1f      	ldr	r5, [sp, #124]	; 0x7c
  402a26:	442c      	add	r4, r5
  402a28:	e721      	b.n	40286e <_svfprintf_r+0xed2>
  402a2a:	aa25      	add	r2, sp, #148	; 0x94
  402a2c:	990b      	ldr	r1, [sp, #44]	; 0x2c
  402a2e:	980c      	ldr	r0, [sp, #48]	; 0x30
  402a30:	f002 f914 	bl	404c5c <__ssprint_r>
  402a34:	2800      	cmp	r0, #0
  402a36:	f47f a883 	bne.w	401b40 <_svfprintf_r+0x1a4>
  402a3a:	991f      	ldr	r1, [sp, #124]	; 0x7c
  402a3c:	9c27      	ldr	r4, [sp, #156]	; 0x9c
  402a3e:	46c8      	mov	r8, r9
  402a40:	e782      	b.n	402948 <_svfprintf_r+0xfac>
  402a42:	9b0a      	ldr	r3, [sp, #40]	; 0x28
  402a44:	2b00      	cmp	r3, #0
  402a46:	bf08      	it	eq
  402a48:	2301      	moveq	r3, #1
  402a4a:	930a      	str	r3, [sp, #40]	; 0x28
  402a4c:	e6db      	b.n	402806 <_svfprintf_r+0xe6a>
  402a4e:	4630      	mov	r0, r6
  402a50:	940a      	str	r4, [sp, #40]	; 0x28
  402a52:	f002 f895 	bl	404b80 <strlen>
  402a56:	950f      	str	r5, [sp, #60]	; 0x3c
  402a58:	900e      	str	r0, [sp, #56]	; 0x38
  402a5a:	f8cd b01c 	str.w	fp, [sp, #28]
  402a5e:	4603      	mov	r3, r0
  402a60:	f7ff b9f9 	b.w	401e56 <_svfprintf_r+0x4ba>
  402a64:	272d      	movs	r7, #45	; 0x2d
  402a66:	2300      	movs	r3, #0
  402a68:	f88d 7077 	strb.w	r7, [sp, #119]	; 0x77
  402a6c:	930a      	str	r3, [sp, #40]	; 0x28
  402a6e:	f7ff b8ae 	b.w	401bce <_svfprintf_r+0x232>
  402a72:	9b1f      	ldr	r3, [sp, #124]	; 0x7c
  402a74:	9312      	str	r3, [sp, #72]	; 0x48
  402a76:	461a      	mov	r2, r3
  402a78:	3303      	adds	r3, #3
  402a7a:	db04      	blt.n	402a86 <_svfprintf_r+0x10ea>
  402a7c:	9b0a      	ldr	r3, [sp, #40]	; 0x28
  402a7e:	4619      	mov	r1, r3
  402a80:	4291      	cmp	r1, r2
  402a82:	f6bf af17 	bge.w	4028b4 <_svfprintf_r+0xf18>
  402a86:	9b11      	ldr	r3, [sp, #68]	; 0x44
  402a88:	3b02      	subs	r3, #2
  402a8a:	9311      	str	r3, [sp, #68]	; 0x44
  402a8c:	f89d 3044 	ldrb.w	r3, [sp, #68]	; 0x44
  402a90:	f88d 3084 	strb.w	r3, [sp, #132]	; 0x84
  402a94:	9b12      	ldr	r3, [sp, #72]	; 0x48
  402a96:	3b01      	subs	r3, #1
  402a98:	2b00      	cmp	r3, #0
  402a9a:	931f      	str	r3, [sp, #124]	; 0x7c
  402a9c:	bfbd      	ittte	lt
  402a9e:	9b12      	ldrlt	r3, [sp, #72]	; 0x48
  402aa0:	f1c3 0301 	rsblt	r3, r3, #1
  402aa4:	222d      	movlt	r2, #45	; 0x2d
  402aa6:	222b      	movge	r2, #43	; 0x2b
  402aa8:	2b09      	cmp	r3, #9
  402aaa:	f88d 2085 	strb.w	r2, [sp, #133]	; 0x85
  402aae:	f340 8116 	ble.w	402cde <_svfprintf_r+0x1342>
  402ab2:	f10d 0493 	add.w	r4, sp, #147	; 0x93
  402ab6:	4620      	mov	r0, r4
  402ab8:	4dab      	ldr	r5, [pc, #684]	; (402d68 <_svfprintf_r+0x13cc>)
  402aba:	e000      	b.n	402abe <_svfprintf_r+0x1122>
  402abc:	4610      	mov	r0, r2
  402abe:	fb85 1203 	smull	r1, r2, r5, r3
  402ac2:	17d9      	asrs	r1, r3, #31
  402ac4:	ebc1 01a2 	rsb	r1, r1, r2, asr #2
  402ac8:	eb01 0281 	add.w	r2, r1, r1, lsl #2
  402acc:	eba3 0242 	sub.w	r2, r3, r2, lsl #1
  402ad0:	3230      	adds	r2, #48	; 0x30
  402ad2:	2909      	cmp	r1, #9
  402ad4:	f800 2c01 	strb.w	r2, [r0, #-1]
  402ad8:	460b      	mov	r3, r1
  402ada:	f100 32ff 	add.w	r2, r0, #4294967295
  402ade:	dced      	bgt.n	402abc <_svfprintf_r+0x1120>
  402ae0:	3330      	adds	r3, #48	; 0x30
  402ae2:	3802      	subs	r0, #2
  402ae4:	b2d9      	uxtb	r1, r3
  402ae6:	4284      	cmp	r4, r0
  402ae8:	f802 1c01 	strb.w	r1, [r2, #-1]
  402aec:	f240 8165 	bls.w	402dba <_svfprintf_r+0x141e>
  402af0:	f10d 0086 	add.w	r0, sp, #134	; 0x86
  402af4:	4613      	mov	r3, r2
  402af6:	e001      	b.n	402afc <_svfprintf_r+0x1160>
  402af8:	f813 1b01 	ldrb.w	r1, [r3], #1
  402afc:	f800 1b01 	strb.w	r1, [r0], #1
  402b00:	42a3      	cmp	r3, r4
  402b02:	d1f9      	bne.n	402af8 <_svfprintf_r+0x115c>
  402b04:	3301      	adds	r3, #1
  402b06:	1a9b      	subs	r3, r3, r2
  402b08:	f10d 0286 	add.w	r2, sp, #134	; 0x86
  402b0c:	4413      	add	r3, r2
  402b0e:	aa21      	add	r2, sp, #132	; 0x84
  402b10:	1a9b      	subs	r3, r3, r2
  402b12:	9a13      	ldr	r2, [sp, #76]	; 0x4c
  402b14:	931b      	str	r3, [sp, #108]	; 0x6c
  402b16:	2a01      	cmp	r2, #1
  402b18:	4413      	add	r3, r2
  402b1a:	930e      	str	r3, [sp, #56]	; 0x38
  402b1c:	f340 8119 	ble.w	402d52 <_svfprintf_r+0x13b6>
  402b20:	9b0e      	ldr	r3, [sp, #56]	; 0x38
  402b22:	9a19      	ldr	r2, [sp, #100]	; 0x64
  402b24:	4413      	add	r3, r2
  402b26:	930e      	str	r3, [sp, #56]	; 0x38
  402b28:	ea23 73e3 	bic.w	r3, r3, r3, asr #31
  402b2c:	9308      	str	r3, [sp, #32]
  402b2e:	2300      	movs	r3, #0
  402b30:	9312      	str	r3, [sp, #72]	; 0x48
  402b32:	e6cf      	b.n	4028d4 <_svfprintf_r+0xf38>
  402b34:	aa25      	add	r2, sp, #148	; 0x94
  402b36:	990b      	ldr	r1, [sp, #44]	; 0x2c
  402b38:	980c      	ldr	r0, [sp, #48]	; 0x30
  402b3a:	f002 f88f 	bl	404c5c <__ssprint_r>
  402b3e:	2800      	cmp	r0, #0
  402b40:	f47e affe 	bne.w	401b40 <_svfprintf_r+0x1a4>
  402b44:	9c27      	ldr	r4, [sp, #156]	; 0x9c
  402b46:	46c8      	mov	r8, r9
  402b48:	e4d7      	b.n	4024fa <_svfprintf_r+0xb5e>
  402b4a:	4623      	mov	r3, r4
  402b4c:	e6a2      	b.n	402894 <_svfprintf_r+0xef8>
  402b4e:	aa25      	add	r2, sp, #148	; 0x94
  402b50:	990b      	ldr	r1, [sp, #44]	; 0x2c
  402b52:	980c      	ldr	r0, [sp, #48]	; 0x30
  402b54:	f002 f882 	bl	404c5c <__ssprint_r>
  402b58:	2800      	cmp	r0, #0
  402b5a:	f47e aff1 	bne.w	401b40 <_svfprintf_r+0x1a4>
  402b5e:	9a1f      	ldr	r2, [sp, #124]	; 0x7c
  402b60:	9c27      	ldr	r4, [sp, #156]	; 0x9c
  402b62:	46c8      	mov	r8, r9
  402b64:	e5ae      	b.n	4026c4 <_svfprintf_r+0xd28>
  402b66:	aa25      	add	r2, sp, #148	; 0x94
  402b68:	990b      	ldr	r1, [sp, #44]	; 0x2c
  402b6a:	980c      	ldr	r0, [sp, #48]	; 0x30
  402b6c:	f002 f876 	bl	404c5c <__ssprint_r>
  402b70:	2800      	cmp	r0, #0
  402b72:	f47e afe5 	bne.w	401b40 <_svfprintf_r+0x1a4>
  402b76:	9a1f      	ldr	r2, [sp, #124]	; 0x7c
  402b78:	9b13      	ldr	r3, [sp, #76]	; 0x4c
  402b7a:	9c27      	ldr	r4, [sp, #156]	; 0x9c
  402b7c:	1a9a      	subs	r2, r3, r2
  402b7e:	46c8      	mov	r8, r9
  402b80:	e5b8      	b.n	4026f4 <_svfprintf_r+0xd58>
  402b82:	9b0a      	ldr	r3, [sp, #40]	; 0x28
  402b84:	9612      	str	r6, [sp, #72]	; 0x48
  402b86:	2b06      	cmp	r3, #6
  402b88:	bf28      	it	cs
  402b8a:	2306      	movcs	r3, #6
  402b8c:	960a      	str	r6, [sp, #40]	; 0x28
  402b8e:	4637      	mov	r7, r6
  402b90:	9308      	str	r3, [sp, #32]
  402b92:	950f      	str	r5, [sp, #60]	; 0x3c
  402b94:	f8cd b01c 	str.w	fp, [sp, #28]
  402b98:	930e      	str	r3, [sp, #56]	; 0x38
  402b9a:	4e74      	ldr	r6, [pc, #464]	; (402d6c <_svfprintf_r+0x13d0>)
  402b9c:	f7ff b816 	b.w	401bcc <_svfprintf_r+0x230>
  402ba0:	a823      	add	r0, sp, #140	; 0x8c
  402ba2:	a920      	add	r1, sp, #128	; 0x80
  402ba4:	9d0a      	ldr	r5, [sp, #40]	; 0x28
  402ba6:	9004      	str	r0, [sp, #16]
  402ba8:	9103      	str	r1, [sp, #12]
  402baa:	a81f      	add	r0, sp, #124	; 0x7c
  402bac:	2103      	movs	r1, #3
  402bae:	9002      	str	r0, [sp, #8]
  402bb0:	9a08      	ldr	r2, [sp, #32]
  402bb2:	9501      	str	r5, [sp, #4]
  402bb4:	463b      	mov	r3, r7
  402bb6:	9100      	str	r1, [sp, #0]
  402bb8:	980c      	ldr	r0, [sp, #48]	; 0x30
  402bba:	f000 f9c1 	bl	402f40 <_dtoa_r>
  402bbe:	4606      	mov	r6, r0
  402bc0:	1944      	adds	r4, r0, r5
  402bc2:	e72b      	b.n	402a1c <_svfprintf_r+0x1080>
  402bc4:	2306      	movs	r3, #6
  402bc6:	930a      	str	r3, [sp, #40]	; 0x28
  402bc8:	e61d      	b.n	402806 <_svfprintf_r+0xe6a>
  402bca:	272d      	movs	r7, #45	; 0x2d
  402bcc:	f88d 7077 	strb.w	r7, [sp, #119]	; 0x77
  402bd0:	f7ff bacd 	b.w	40216e <_svfprintf_r+0x7d2>
  402bd4:	9a19      	ldr	r2, [sp, #100]	; 0x64
  402bd6:	9b13      	ldr	r3, [sp, #76]	; 0x4c
  402bd8:	4413      	add	r3, r2
  402bda:	9a12      	ldr	r2, [sp, #72]	; 0x48
  402bdc:	930e      	str	r3, [sp, #56]	; 0x38
  402bde:	2a00      	cmp	r2, #0
  402be0:	f340 80b0 	ble.w	402d44 <_svfprintf_r+0x13a8>
  402be4:	ea23 73e3 	bic.w	r3, r3, r3, asr #31
  402be8:	9308      	str	r3, [sp, #32]
  402bea:	2367      	movs	r3, #103	; 0x67
  402bec:	9311      	str	r3, [sp, #68]	; 0x44
  402bee:	e671      	b.n	4028d4 <_svfprintf_r+0xf38>
  402bf0:	2b00      	cmp	r3, #0
  402bf2:	f340 80c3 	ble.w	402d7c <_svfprintf_r+0x13e0>
  402bf6:	9a0a      	ldr	r2, [sp, #40]	; 0x28
  402bf8:	2a00      	cmp	r2, #0
  402bfa:	f040 8099 	bne.w	402d30 <_svfprintf_r+0x1394>
  402bfe:	f01b 0f01 	tst.w	fp, #1
  402c02:	f040 8095 	bne.w	402d30 <_svfprintf_r+0x1394>
  402c06:	9308      	str	r3, [sp, #32]
  402c08:	930e      	str	r3, [sp, #56]	; 0x38
  402c0a:	e663      	b.n	4028d4 <_svfprintf_r+0xf38>
  402c0c:	9b0a      	ldr	r3, [sp, #40]	; 0x28
  402c0e:	9308      	str	r3, [sp, #32]
  402c10:	930e      	str	r3, [sp, #56]	; 0x38
  402c12:	900a      	str	r0, [sp, #40]	; 0x28
  402c14:	950f      	str	r5, [sp, #60]	; 0x3c
  402c16:	f8cd b01c 	str.w	fp, [sp, #28]
  402c1a:	9012      	str	r0, [sp, #72]	; 0x48
  402c1c:	f89d 7077 	ldrb.w	r7, [sp, #119]	; 0x77
  402c20:	f7fe bfd4 	b.w	401bcc <_svfprintf_r+0x230>
  402c24:	9b11      	ldr	r3, [sp, #68]	; 0x44
  402c26:	2b47      	cmp	r3, #71	; 0x47
  402c28:	f47f ae20 	bne.w	40286c <_svfprintf_r+0xed0>
  402c2c:	f01b 0f01 	tst.w	fp, #1
  402c30:	f47f aeee 	bne.w	402a10 <_svfprintf_r+0x1074>
  402c34:	9b23      	ldr	r3, [sp, #140]	; 0x8c
  402c36:	1b9b      	subs	r3, r3, r6
  402c38:	9313      	str	r3, [sp, #76]	; 0x4c
  402c3a:	9b0e      	ldr	r3, [sp, #56]	; 0x38
  402c3c:	2b47      	cmp	r3, #71	; 0x47
  402c3e:	f43f af18 	beq.w	402a72 <_svfprintf_r+0x10d6>
  402c42:	9b1f      	ldr	r3, [sp, #124]	; 0x7c
  402c44:	9312      	str	r3, [sp, #72]	; 0x48
  402c46:	e721      	b.n	402a8c <_svfprintf_r+0x10f0>
  402c48:	424f      	negs	r7, r1
  402c4a:	3110      	adds	r1, #16
  402c4c:	4d48      	ldr	r5, [pc, #288]	; (402d70 <_svfprintf_r+0x13d4>)
  402c4e:	da2f      	bge.n	402cb0 <_svfprintf_r+0x1314>
  402c50:	2410      	movs	r4, #16
  402c52:	f8dd b030 	ldr.w	fp, [sp, #48]	; 0x30
  402c56:	e004      	b.n	402c62 <_svfprintf_r+0x12c6>
  402c58:	f108 0808 	add.w	r8, r8, #8
  402c5c:	3f10      	subs	r7, #16
  402c5e:	2f10      	cmp	r7, #16
  402c60:	dd26      	ble.n	402cb0 <_svfprintf_r+0x1314>
  402c62:	3301      	adds	r3, #1
  402c64:	3210      	adds	r2, #16
  402c66:	2b07      	cmp	r3, #7
  402c68:	9227      	str	r2, [sp, #156]	; 0x9c
  402c6a:	9326      	str	r3, [sp, #152]	; 0x98
  402c6c:	f8c8 5000 	str.w	r5, [r8]
  402c70:	f8c8 4004 	str.w	r4, [r8, #4]
  402c74:	ddf0      	ble.n	402c58 <_svfprintf_r+0x12bc>
  402c76:	aa25      	add	r2, sp, #148	; 0x94
  402c78:	990b      	ldr	r1, [sp, #44]	; 0x2c
  402c7a:	4658      	mov	r0, fp
  402c7c:	f001 ffee 	bl	404c5c <__ssprint_r>
  402c80:	2800      	cmp	r0, #0
  402c82:	f47e af5d 	bne.w	401b40 <_svfprintf_r+0x1a4>
  402c86:	9a27      	ldr	r2, [sp, #156]	; 0x9c
  402c88:	9b26      	ldr	r3, [sp, #152]	; 0x98
  402c8a:	46c8      	mov	r8, r9
  402c8c:	e7e6      	b.n	402c5c <_svfprintf_r+0x12c0>
  402c8e:	aa25      	add	r2, sp, #148	; 0x94
  402c90:	990b      	ldr	r1, [sp, #44]	; 0x2c
  402c92:	980c      	ldr	r0, [sp, #48]	; 0x30
  402c94:	f001 ffe2 	bl	404c5c <__ssprint_r>
  402c98:	2800      	cmp	r0, #0
  402c9a:	f47e af51 	bne.w	401b40 <_svfprintf_r+0x1a4>
  402c9e:	991f      	ldr	r1, [sp, #124]	; 0x7c
  402ca0:	9a27      	ldr	r2, [sp, #156]	; 0x9c
  402ca2:	9b26      	ldr	r3, [sp, #152]	; 0x98
  402ca4:	46c8      	mov	r8, r9
  402ca6:	e667      	b.n	402978 <_svfprintf_r+0xfdc>
  402ca8:	2000      	movs	r0, #0
  402caa:	900a      	str	r0, [sp, #40]	; 0x28
  402cac:	f7fe bed0 	b.w	401a50 <_svfprintf_r+0xb4>
  402cb0:	3301      	adds	r3, #1
  402cb2:	443a      	add	r2, r7
  402cb4:	2b07      	cmp	r3, #7
  402cb6:	e888 00a0 	stmia.w	r8, {r5, r7}
  402cba:	9227      	str	r2, [sp, #156]	; 0x9c
  402cbc:	9326      	str	r3, [sp, #152]	; 0x98
  402cbe:	f108 0808 	add.w	r8, r8, #8
  402cc2:	f77f ae5c 	ble.w	40297e <_svfprintf_r+0xfe2>
  402cc6:	aa25      	add	r2, sp, #148	; 0x94
  402cc8:	990b      	ldr	r1, [sp, #44]	; 0x2c
  402cca:	980c      	ldr	r0, [sp, #48]	; 0x30
  402ccc:	f001 ffc6 	bl	404c5c <__ssprint_r>
  402cd0:	2800      	cmp	r0, #0
  402cd2:	f47e af35 	bne.w	401b40 <_svfprintf_r+0x1a4>
  402cd6:	9a27      	ldr	r2, [sp, #156]	; 0x9c
  402cd8:	9b26      	ldr	r3, [sp, #152]	; 0x98
  402cda:	46c8      	mov	r8, r9
  402cdc:	e64f      	b.n	40297e <_svfprintf_r+0xfe2>
  402cde:	3330      	adds	r3, #48	; 0x30
  402ce0:	2230      	movs	r2, #48	; 0x30
  402ce2:	f88d 3087 	strb.w	r3, [sp, #135]	; 0x87
  402ce6:	f88d 2086 	strb.w	r2, [sp, #134]	; 0x86
  402cea:	ab22      	add	r3, sp, #136	; 0x88
  402cec:	e70f      	b.n	402b0e <_svfprintf_r+0x1172>
  402cee:	9b12      	ldr	r3, [sp, #72]	; 0x48
  402cf0:	9a19      	ldr	r2, [sp, #100]	; 0x64
  402cf2:	4413      	add	r3, r2
  402cf4:	930e      	str	r3, [sp, #56]	; 0x38
  402cf6:	e775      	b.n	402be4 <_svfprintf_r+0x1248>
  402cf8:	9b23      	ldr	r3, [sp, #140]	; 0x8c
  402cfa:	e5cb      	b.n	402894 <_svfprintf_r+0xef8>
  402cfc:	9b14      	ldr	r3, [sp, #80]	; 0x50
  402cfe:	4e1d      	ldr	r6, [pc, #116]	; (402d74 <_svfprintf_r+0x13d8>)
  402d00:	2b00      	cmp	r3, #0
  402d02:	bfb6      	itet	lt
  402d04:	272d      	movlt	r7, #45	; 0x2d
  402d06:	f89d 7077 	ldrbge.w	r7, [sp, #119]	; 0x77
  402d0a:	f88d 7077 	strblt.w	r7, [sp, #119]	; 0x77
  402d0e:	4b1a      	ldr	r3, [pc, #104]	; (402d78 <_svfprintf_r+0x13dc>)
  402d10:	f7ff ba2f 	b.w	402172 <_svfprintf_r+0x7d6>
  402d14:	9a16      	ldr	r2, [sp, #88]	; 0x58
  402d16:	9808      	ldr	r0, [sp, #32]
  402d18:	9b17      	ldr	r3, [sp, #92]	; 0x5c
  402d1a:	4639      	mov	r1, r7
  402d1c:	f003 f832 	bl	405d84 <__aeabi_dcmpeq>
  402d20:	2800      	cmp	r0, #0
  402d22:	f47f ae7f 	bne.w	402a24 <_svfprintf_r+0x1088>
  402d26:	f1c5 0501 	rsb	r5, r5, #1
  402d2a:	951f      	str	r5, [sp, #124]	; 0x7c
  402d2c:	442c      	add	r4, r5
  402d2e:	e59e      	b.n	40286e <_svfprintf_r+0xed2>
  402d30:	9b12      	ldr	r3, [sp, #72]	; 0x48
  402d32:	9a19      	ldr	r2, [sp, #100]	; 0x64
  402d34:	4413      	add	r3, r2
  402d36:	9a0a      	ldr	r2, [sp, #40]	; 0x28
  402d38:	441a      	add	r2, r3
  402d3a:	ea22 73e2 	bic.w	r3, r2, r2, asr #31
  402d3e:	920e      	str	r2, [sp, #56]	; 0x38
  402d40:	9308      	str	r3, [sp, #32]
  402d42:	e5c7      	b.n	4028d4 <_svfprintf_r+0xf38>
  402d44:	9b12      	ldr	r3, [sp, #72]	; 0x48
  402d46:	9a0e      	ldr	r2, [sp, #56]	; 0x38
  402d48:	f1c3 0301 	rsb	r3, r3, #1
  402d4c:	441a      	add	r2, r3
  402d4e:	4613      	mov	r3, r2
  402d50:	e7d0      	b.n	402cf4 <_svfprintf_r+0x1358>
  402d52:	f01b 0301 	ands.w	r3, fp, #1
  402d56:	9312      	str	r3, [sp, #72]	; 0x48
  402d58:	f47f aee2 	bne.w	402b20 <_svfprintf_r+0x1184>
  402d5c:	9b0e      	ldr	r3, [sp, #56]	; 0x38
  402d5e:	ea23 73e3 	bic.w	r3, r3, r3, asr #31
  402d62:	9308      	str	r3, [sp, #32]
  402d64:	e5b6      	b.n	4028d4 <_svfprintf_r+0xf38>
  402d66:	bf00      	nop
  402d68:	66666667 	.word	0x66666667
  402d6c:	00407264 	.word	0x00407264
  402d70:	00407280 	.word	0x00407280
  402d74:	00407238 	.word	0x00407238
  402d78:	00407234 	.word	0x00407234
  402d7c:	9b0a      	ldr	r3, [sp, #40]	; 0x28
