
HC-10 BlueTooth.elf:     file format elf32-littlearm

Sections:
Idx Name          Size      VMA       LMA       File off  Algn
  0 .text         00008764  00400000  00400000  00010000  2**6
                  CONTENTS, ALLOC, LOAD, READONLY, CODE
  1 .ARM.exidx    00000008  00408764  00408764  00018764  2**2
                  CONTENTS, ALLOC, LOAD, READONLY, DATA
  2 .relocate     000009c0  20400000  0040876c  00020000  2**3
                  CONTENTS, ALLOC, LOAD, CODE
  3 .bss          000000fc  204009c0  0040912c  000209c0  2**2
                  ALLOC
  4 .stack        00002004  20400abc  00409228  000209c0  2**0
                  ALLOC
  5 .heap         00000200  20402ac0  0040b22c  000209c0  2**0
                  ALLOC
  6 .ARM.attributes 0000002e  00000000  00000000  000209c0  2**0
                  CONTENTS, READONLY
  7 .comment      00000059  00000000  00000000  000209ee  2**0
                  CONTENTS, READONLY
  8 .debug_info   00010adf  00000000  00000000  00020a47  2**0
                  CONTENTS, READONLY, DEBUGGING
  9 .debug_abbrev 0000200d  00000000  00000000  00031526  2**0
                  CONTENTS, READONLY, DEBUGGING
 10 .debug_loc    00006332  00000000  00000000  00033533  2**0
                  CONTENTS, READONLY, DEBUGGING
 11 .debug_aranges 00000aa8  00000000  00000000  00039865  2**0
                  CONTENTS, READONLY, DEBUGGING
 12 .debug_ranges 000009c8  00000000  00000000  0003a30d  2**0
                  CONTENTS, READONLY, DEBUGGING
 13 .debug_macro  0001e037  00000000  00000000  0003acd5  2**0
                  CONTENTS, READONLY, DEBUGGING
 14 .debug_line   0000a2d1  00000000  00000000  00058d0c  2**0
                  CONTENTS, READONLY, DEBUGGING
 15 .debug_str    0008b034  00000000  00000000  00062fdd  2**0
                  CONTENTS, READONLY, DEBUGGING
 16 .debug_frame  00004108  00000000  00000000  000ee014  2**2
                  CONTENTS, READONLY, DEBUGGING

Disassembly of section .text:

00400000 <exception_table>:
  400000:	c0 2a 40 20 91 0f 40 00 41 10 40 00 41 10 40 00     .*@ ..@.A.@.A.@.
  400010:	41 10 40 00 41 10 40 00 41 10 40 00 00 00 00 00     A.@.A.@.A.@.....
	...
  40002c:	41 10 40 00 41 10 40 00 00 00 00 00 41 10 40 00     A.@.A.@.....A.@.
  40003c:	41 10 40 00 41 10 40 00 41 10 40 00 41 10 40 00     A.@.A.@.A.@.A.@.
  40004c:	41 10 40 00 41 10 40 00 41 10 40 00 41 10 40 00     A.@.A.@.A.@.A.@.
  40005c:	41 10 40 00 41 10 40 00 00 00 00 00 dd 07 40 00     A.@.A.@.......@.
  40006c:	f5 07 40 00 0d 08 40 00 41 10 40 00 41 10 40 00     ..@...@.A.@.A.@.
  40007c:	41 10 40 00 25 08 40 00 3d 08 40 00 41 10 40 00     A.@.%.@.=.@.A.@.
  40008c:	41 10 40 00 41 10 40 00 41 10 40 00 41 10 40 00     A.@.A.@.A.@.A.@.
  40009c:	41 10 40 00 41 10 40 00 41 10 40 00 41 10 40 00     A.@.A.@.A.@.A.@.
  4000ac:	41 10 40 00 41 10 40 00 41 10 40 00 41 10 40 00     A.@.A.@.A.@.A.@.
  4000bc:	41 10 40 00 41 10 40 00 41 10 40 00 41 10 40 00     A.@.A.@.A.@.A.@.
  4000cc:	41 10 40 00 00 00 00 00 41 10 40 00 00 00 00 00     A.@.....A.@.....
  4000dc:	41 10 40 00 41 10 40 00 41 10 40 00 41 10 40 00     A.@.A.@.A.@.A.@.
  4000ec:	41 10 40 00 41 10 40 00 41 10 40 00 41 10 40 00     A.@.A.@.A.@.A.@.
  4000fc:	41 10 40 00 41 10 40 00 41 10 40 00 41 10 40 00     A.@.A.@.A.@.A.@.
  40010c:	41 10 40 00 41 10 40 00 00 00 00 00 00 00 00 00     A.@.A.@.........
  40011c:	00 00 00 00 41 10 40 00 41 10 40 00 41 10 40 00     ....A.@.A.@.A.@.
  40012c:	41 10 40 00 41 10 40 00 00 00 00 00 41 10 40 00     A.@.A.@.....A.@.
  40013c:	41 10 40 00                                         A.@.

00400140 <__do_global_dtors_aux>:
  400140:	b510      	push	{r4, lr}
  400142:	4c05      	ldr	r4, [pc, #20]	; (400158 <__do_global_dtors_aux+0x18>)
  400144:	7823      	ldrb	r3, [r4, #0]
  400146:	b933      	cbnz	r3, 400156 <__do_global_dtors_aux+0x16>
  400148:	4b04      	ldr	r3, [pc, #16]	; (40015c <__do_global_dtors_aux+0x1c>)
  40014a:	b113      	cbz	r3, 400152 <__do_global_dtors_aux+0x12>
  40014c:	4804      	ldr	r0, [pc, #16]	; (400160 <__do_global_dtors_aux+0x20>)
  40014e:	f3af 8000 	nop.w
  400152:	2301      	movs	r3, #1
  400154:	7023      	strb	r3, [r4, #0]
  400156:	bd10      	pop	{r4, pc}
  400158:	204009c0 	.word	0x204009c0
  40015c:	00000000 	.word	0x00000000
  400160:	0040876c 	.word	0x0040876c

00400164 <frame_dummy>:
  400164:	4b0c      	ldr	r3, [pc, #48]	; (400198 <frame_dummy+0x34>)
  400166:	b143      	cbz	r3, 40017a <frame_dummy+0x16>
  400168:	480c      	ldr	r0, [pc, #48]	; (40019c <frame_dummy+0x38>)
  40016a:	490d      	ldr	r1, [pc, #52]	; (4001a0 <frame_dummy+0x3c>)
  40016c:	b510      	push	{r4, lr}
  40016e:	f3af 8000 	nop.w
  400172:	480c      	ldr	r0, [pc, #48]	; (4001a4 <frame_dummy+0x40>)
  400174:	6803      	ldr	r3, [r0, #0]
  400176:	b923      	cbnz	r3, 400182 <frame_dummy+0x1e>
  400178:	bd10      	pop	{r4, pc}
  40017a:	480a      	ldr	r0, [pc, #40]	; (4001a4 <frame_dummy+0x40>)
  40017c:	6803      	ldr	r3, [r0, #0]
  40017e:	b933      	cbnz	r3, 40018e <frame_dummy+0x2a>
  400180:	4770      	bx	lr
  400182:	4b09      	ldr	r3, [pc, #36]	; (4001a8 <frame_dummy+0x44>)
  400184:	2b00      	cmp	r3, #0
  400186:	d0f7      	beq.n	400178 <frame_dummy+0x14>
  400188:	e8bd 4010 	ldmia.w	sp!, {r4, lr}
  40018c:	4718      	bx	r3
  40018e:	4b06      	ldr	r3, [pc, #24]	; (4001a8 <frame_dummy+0x44>)
  400190:	2b00      	cmp	r3, #0
  400192:	d0f5      	beq.n	400180 <frame_dummy+0x1c>
  400194:	4718      	bx	r3
  400196:	bf00      	nop
  400198:	00000000 	.word	0x00000000
  40019c:	0040876c 	.word	0x0040876c
  4001a0:	204009c4 	.word	0x204009c4
  4001a4:	0040876c 	.word	0x0040876c
  4001a8:	00000000 	.word	0x00000000

004001ac <osc_enable>:
#define OSC_MAINCK_XTAL_HZ      BOARD_FREQ_MAINCK_XTAL    //!< External crystal oscillator.
#define OSC_MAINCK_BYPASS_HZ    BOARD_FREQ_MAINCK_BYPASS  //!< External bypass oscillator.
//@}

static inline void osc_enable(uint32_t ul_id)
{
  4001ac:	b580      	push	{r7, lr}
  4001ae:	b082      	sub	sp, #8
  4001b0:	af00      	add	r7, sp, #0
  4001b2:	6078      	str	r0, [r7, #4]
	switch (ul_id) {
  4001b4:	687b      	ldr	r3, [r7, #4]
  4001b6:	2b07      	cmp	r3, #7
  4001b8:	d831      	bhi.n	40021e <osc_enable+0x72>
  4001ba:	a201      	add	r2, pc, #4	; (adr r2, 4001c0 <osc_enable+0x14>)
  4001bc:	f852 f023 	ldr.w	pc, [r2, r3, lsl #2]
  4001c0:	0040021d 	.word	0x0040021d
  4001c4:	004001e1 	.word	0x004001e1
  4001c8:	004001e9 	.word	0x004001e9
  4001cc:	004001f1 	.word	0x004001f1
  4001d0:	004001f9 	.word	0x004001f9
  4001d4:	00400201 	.word	0x00400201
  4001d8:	00400209 	.word	0x00400209
  4001dc:	00400213 	.word	0x00400213
	case OSC_SLCK_32K_RC:
		break;

	case OSC_SLCK_32K_XTAL:
		pmc_switch_sclk_to_32kxtal(PMC_OSC_XTAL);
  4001e0:	2000      	movs	r0, #0
  4001e2:	4b11      	ldr	r3, [pc, #68]	; (400228 <osc_enable+0x7c>)
  4001e4:	4798      	blx	r3
		break;
  4001e6:	e01a      	b.n	40021e <osc_enable+0x72>

	case OSC_SLCK_32K_BYPASS:
		pmc_switch_sclk_to_32kxtal(PMC_OSC_BYPASS);
  4001e8:	2001      	movs	r0, #1
  4001ea:	4b0f      	ldr	r3, [pc, #60]	; (400228 <osc_enable+0x7c>)
  4001ec:	4798      	blx	r3
		break;
  4001ee:	e016      	b.n	40021e <osc_enable+0x72>


	case OSC_MAINCK_4M_RC:
		pmc_switch_mainck_to_fastrc(CKGR_MOR_MOSCRCF_4_MHz);
  4001f0:	2000      	movs	r0, #0
  4001f2:	4b0e      	ldr	r3, [pc, #56]	; (40022c <osc_enable+0x80>)
  4001f4:	4798      	blx	r3
		break;
  4001f6:	e012      	b.n	40021e <osc_enable+0x72>

	case OSC_MAINCK_8M_RC:
		pmc_switch_mainck_to_fastrc(CKGR_MOR_MOSCRCF_8_MHz);
  4001f8:	2010      	movs	r0, #16
  4001fa:	4b0c      	ldr	r3, [pc, #48]	; (40022c <osc_enable+0x80>)
  4001fc:	4798      	blx	r3
		break;
  4001fe:	e00e      	b.n	40021e <osc_enable+0x72>

	case OSC_MAINCK_12M_RC:
		pmc_switch_mainck_to_fastrc(CKGR_MOR_MOSCRCF_12_MHz);
  400200:	2020      	movs	r0, #32
  400202:	4b0a      	ldr	r3, [pc, #40]	; (40022c <osc_enable+0x80>)
  400204:	4798      	blx	r3
		break;
  400206:	e00a      	b.n	40021e <osc_enable+0x72>


	case OSC_MAINCK_XTAL:
		pmc_switch_mainck_to_xtal(PMC_OSC_XTAL,
  400208:	213e      	movs	r1, #62	; 0x3e
  40020a:	2000      	movs	r0, #0
  40020c:	4b08      	ldr	r3, [pc, #32]	; (400230 <osc_enable+0x84>)
  40020e:	4798      	blx	r3
			pmc_us_to_moscxtst(BOARD_OSC_STARTUP_US,
				OSC_SLCK_32K_RC_HZ));
		break;
  400210:	e005      	b.n	40021e <osc_enable+0x72>

	case OSC_MAINCK_BYPASS:
		pmc_switch_mainck_to_xtal(PMC_OSC_BYPASS,
  400212:	213e      	movs	r1, #62	; 0x3e
  400214:	2001      	movs	r0, #1
  400216:	4b06      	ldr	r3, [pc, #24]	; (400230 <osc_enable+0x84>)
  400218:	4798      	blx	r3
			pmc_us_to_moscxtst(BOARD_OSC_STARTUP_US,
				OSC_SLCK_32K_RC_HZ));
		break;
  40021a:	e000      	b.n	40021e <osc_enable+0x72>
		break;
  40021c:	bf00      	nop
	}
}
  40021e:	bf00      	nop
  400220:	3708      	adds	r7, #8
  400222:	46bd      	mov	sp, r7
  400224:	bd80      	pop	{r7, pc}
  400226:	bf00      	nop
  400228:	00400955 	.word	0x00400955
  40022c:	004009c1 	.word	0x004009c1
  400230:	00400a31 	.word	0x00400a31

00400234 <osc_is_ready>:
		break;
	}
}

static inline bool osc_is_ready(uint32_t ul_id)
{
  400234:	b580      	push	{r7, lr}
  400236:	b082      	sub	sp, #8
  400238:	af00      	add	r7, sp, #0
  40023a:	6078      	str	r0, [r7, #4]
	switch (ul_id) {
  40023c:	687b      	ldr	r3, [r7, #4]
  40023e:	2b07      	cmp	r3, #7
  400240:	d826      	bhi.n	400290 <osc_is_ready+0x5c>
  400242:	a201      	add	r2, pc, #4	; (adr r2, 400248 <osc_is_ready+0x14>)
  400244:	f852 f023 	ldr.w	pc, [r2, r3, lsl #2]
  400248:	00400269 	.word	0x00400269
  40024c:	0040026d 	.word	0x0040026d
  400250:	0040026d 	.word	0x0040026d
  400254:	0040027f 	.word	0x0040027f
  400258:	0040027f 	.word	0x0040027f
  40025c:	0040027f 	.word	0x0040027f
  400260:	0040027f 	.word	0x0040027f
  400264:	0040027f 	.word	0x0040027f
	case OSC_SLCK_32K_RC:
		return 1;
  400268:	2301      	movs	r3, #1
  40026a:	e012      	b.n	400292 <osc_is_ready+0x5e>

	case OSC_SLCK_32K_XTAL:
	case OSC_SLCK_32K_BYPASS:
		return pmc_osc_is_ready_32kxtal();
  40026c:	4b0b      	ldr	r3, [pc, #44]	; (40029c <osc_is_ready+0x68>)
  40026e:	4798      	blx	r3
  400270:	4603      	mov	r3, r0
  400272:	2b00      	cmp	r3, #0
  400274:	bf14      	ite	ne
  400276:	2301      	movne	r3, #1
  400278:	2300      	moveq	r3, #0
  40027a:	b2db      	uxtb	r3, r3
  40027c:	e009      	b.n	400292 <osc_is_ready+0x5e>
	case OSC_MAINCK_4M_RC:
	case OSC_MAINCK_8M_RC:
	case OSC_MAINCK_12M_RC:
	case OSC_MAINCK_XTAL:
	case OSC_MAINCK_BYPASS:
		return pmc_osc_is_ready_mainck();
  40027e:	4b08      	ldr	r3, [pc, #32]	; (4002a0 <osc_is_ready+0x6c>)
  400280:	4798      	blx	r3
  400282:	4603      	mov	r3, r0
  400284:	2b00      	cmp	r3, #0
  400286:	bf14      	ite	ne
  400288:	2301      	movne	r3, #1
  40028a:	2300      	moveq	r3, #0
  40028c:	b2db      	uxtb	r3, r3
  40028e:	e000      	b.n	400292 <osc_is_ready+0x5e>
	}

	return 0;
  400290:	2300      	movs	r3, #0
}
  400292:	4618      	mov	r0, r3
  400294:	3708      	adds	r7, #8
  400296:	46bd      	mov	sp, r7
  400298:	bd80      	pop	{r7, pc}
  40029a:	bf00      	nop
  40029c:	0040098d 	.word	0x0040098d
  4002a0:	00400aa9 	.word	0x00400aa9

004002a4 <osc_get_rate>:

static inline uint32_t osc_get_rate(uint32_t ul_id)
{
  4002a4:	b480      	push	{r7}
  4002a6:	b083      	sub	sp, #12
  4002a8:	af00      	add	r7, sp, #0
  4002aa:	6078      	str	r0, [r7, #4]
	switch (ul_id) {
  4002ac:	687b      	ldr	r3, [r7, #4]
  4002ae:	2b07      	cmp	r3, #7
  4002b0:	d825      	bhi.n	4002fe <osc_get_rate+0x5a>
  4002b2:	a201      	add	r2, pc, #4	; (adr r2, 4002b8 <osc_get_rate+0x14>)
  4002b4:	f852 f023 	ldr.w	pc, [r2, r3, lsl #2]
  4002b8:	004002d9 	.word	0x004002d9
  4002bc:	004002df 	.word	0x004002df
  4002c0:	004002e5 	.word	0x004002e5
  4002c4:	004002eb 	.word	0x004002eb
  4002c8:	004002ef 	.word	0x004002ef
  4002cc:	004002f3 	.word	0x004002f3
  4002d0:	004002f7 	.word	0x004002f7
  4002d4:	004002fb 	.word	0x004002fb
	case OSC_SLCK_32K_RC:
		return OSC_SLCK_32K_RC_HZ;
  4002d8:	f44f 43fa 	mov.w	r3, #32000	; 0x7d00
  4002dc:	e010      	b.n	400300 <osc_get_rate+0x5c>

	case OSC_SLCK_32K_XTAL:
		return BOARD_FREQ_SLCK_XTAL;
  4002de:	f44f 4300 	mov.w	r3, #32768	; 0x8000
  4002e2:	e00d      	b.n	400300 <osc_get_rate+0x5c>

	case OSC_SLCK_32K_BYPASS:
		return BOARD_FREQ_SLCK_BYPASS;
  4002e4:	f44f 4300 	mov.w	r3, #32768	; 0x8000
  4002e8:	e00a      	b.n	400300 <osc_get_rate+0x5c>

	case OSC_MAINCK_4M_RC:
		return OSC_MAINCK_4M_RC_HZ;
  4002ea:	4b08      	ldr	r3, [pc, #32]	; (40030c <osc_get_rate+0x68>)
  4002ec:	e008      	b.n	400300 <osc_get_rate+0x5c>

	case OSC_MAINCK_8M_RC:
		return OSC_MAINCK_8M_RC_HZ;
  4002ee:	4b08      	ldr	r3, [pc, #32]	; (400310 <osc_get_rate+0x6c>)
  4002f0:	e006      	b.n	400300 <osc_get_rate+0x5c>

	case OSC_MAINCK_12M_RC:
		return OSC_MAINCK_12M_RC_HZ;
  4002f2:	4b08      	ldr	r3, [pc, #32]	; (400314 <osc_get_rate+0x70>)
  4002f4:	e004      	b.n	400300 <osc_get_rate+0x5c>

	case OSC_MAINCK_XTAL:
		return BOARD_FREQ_MAINCK_XTAL;
  4002f6:	4b07      	ldr	r3, [pc, #28]	; (400314 <osc_get_rate+0x70>)
  4002f8:	e002      	b.n	400300 <osc_get_rate+0x5c>

	case OSC_MAINCK_BYPASS:
		return BOARD_FREQ_MAINCK_BYPASS;
  4002fa:	4b06      	ldr	r3, [pc, #24]	; (400314 <osc_get_rate+0x70>)
  4002fc:	e000      	b.n	400300 <osc_get_rate+0x5c>
	}

	return 0;
  4002fe:	2300      	movs	r3, #0
}
  400300:	4618      	mov	r0, r3
  400302:	370c      	adds	r7, #12
  400304:	46bd      	mov	sp, r7
  400306:	f85d 7b04 	ldr.w	r7, [sp], #4
  40030a:	4770      	bx	lr
  40030c:	003d0900 	.word	0x003d0900
  400310:	007a1200 	.word	0x007a1200
  400314:	00b71b00 	.word	0x00b71b00

00400318 <osc_wait_ready>:
 * to become stable and ready to use as a clock source.
 *
 * \param id A number identifying the oscillator to wait for.
 */
static inline void osc_wait_ready(uint8_t id)
{
  400318:	b580      	push	{r7, lr}
  40031a:	b082      	sub	sp, #8
  40031c:	af00      	add	r7, sp, #0
  40031e:	4603      	mov	r3, r0
  400320:	71fb      	strb	r3, [r7, #7]
	while (!osc_is_ready(id)) {
  400322:	bf00      	nop
  400324:	79fb      	ldrb	r3, [r7, #7]
  400326:	4618      	mov	r0, r3
  400328:	4b05      	ldr	r3, [pc, #20]	; (400340 <osc_wait_ready+0x28>)
  40032a:	4798      	blx	r3
  40032c:	4603      	mov	r3, r0
  40032e:	f083 0301 	eor.w	r3, r3, #1
  400332:	b2db      	uxtb	r3, r3
  400334:	2b00      	cmp	r3, #0
  400336:	d1f5      	bne.n	400324 <osc_wait_ready+0xc>
		/* Do nothing */
	}
}
  400338:	bf00      	nop
  40033a:	3708      	adds	r7, #8
  40033c:	46bd      	mov	sp, r7
  40033e:	bd80      	pop	{r7, pc}
  400340:	00400235 	.word	0x00400235

00400344 <pll_config_init>:
 * hardware mul+1 is hidden in this implementation. Use mul as mul effective
 * value.
 */
static inline void pll_config_init(struct pll_config *p_cfg,
		enum pll_source e_src, uint32_t ul_div, uint32_t ul_mul)
{
  400344:	b580      	push	{r7, lr}
  400346:	b086      	sub	sp, #24
  400348:	af00      	add	r7, sp, #0
  40034a:	60f8      	str	r0, [r7, #12]
  40034c:	607a      	str	r2, [r7, #4]
  40034e:	603b      	str	r3, [r7, #0]
  400350:	460b      	mov	r3, r1
  400352:	72fb      	strb	r3, [r7, #11]
	uint32_t vco_hz;

	Assert(e_src < PLL_NR_SOURCES);

	if (ul_div == 0 && ul_mul == 0) { /* Must only be true for UTMI PLL */
  400354:	687b      	ldr	r3, [r7, #4]
  400356:	2b00      	cmp	r3, #0
  400358:	d107      	bne.n	40036a <pll_config_init+0x26>
  40035a:	683b      	ldr	r3, [r7, #0]
  40035c:	2b00      	cmp	r3, #0
  40035e:	d104      	bne.n	40036a <pll_config_init+0x26>
		p_cfg->ctrl = CKGR_UCKR_UPLLCOUNT(PLL_COUNT);
  400360:	68fb      	ldr	r3, [r7, #12]
  400362:	f44f 0270 	mov.w	r2, #15728640	; 0xf00000
  400366:	601a      	str	r2, [r3, #0]
  400368:	e019      	b.n	40039e <pll_config_init+0x5a>
	} else { /* PLLA */
	/* Calculate internal VCO frequency */
	vco_hz = osc_get_rate(e_src) / ul_div;
  40036a:	7afb      	ldrb	r3, [r7, #11]
  40036c:	4618      	mov	r0, r3
  40036e:	4b0e      	ldr	r3, [pc, #56]	; (4003a8 <pll_config_init+0x64>)
  400370:	4798      	blx	r3
  400372:	4602      	mov	r2, r0
  400374:	687b      	ldr	r3, [r7, #4]
  400376:	fbb2 f3f3 	udiv	r3, r2, r3
  40037a:	617b      	str	r3, [r7, #20]
	Assert(vco_hz >= PLL_INPUT_MIN_HZ);
	Assert(vco_hz <= PLL_INPUT_MAX_HZ);

	vco_hz *= ul_mul;
  40037c:	697b      	ldr	r3, [r7, #20]
  40037e:	683a      	ldr	r2, [r7, #0]
  400380:	fb02 f303 	mul.w	r3, r2, r3
  400384:	617b      	str	r3, [r7, #20]
	Assert(vco_hz >= PLL_OUTPUT_MIN_HZ);
	Assert(vco_hz <= PLL_OUTPUT_MAX_HZ);

	/* PMC hardware will automatically make it mul+1 */
		p_cfg->ctrl = CKGR_PLLAR_MULA(ul_mul - 1) | CKGR_PLLAR_DIVA(ul_div)  \
  400386:	683b      	ldr	r3, [r7, #0]
  400388:	3b01      	subs	r3, #1
  40038a:	041a      	lsls	r2, r3, #16
  40038c:	4b07      	ldr	r3, [pc, #28]	; (4003ac <pll_config_init+0x68>)
  40038e:	4013      	ands	r3, r2
  400390:	687a      	ldr	r2, [r7, #4]
  400392:	b2d2      	uxtb	r2, r2
  400394:	4313      	orrs	r3, r2
		| CKGR_PLLAR_PLLACOUNT(PLL_COUNT);
  400396:	f443 527c 	orr.w	r2, r3, #16128	; 0x3f00
		p_cfg->ctrl = CKGR_PLLAR_MULA(ul_mul - 1) | CKGR_PLLAR_DIVA(ul_div)  \
  40039a:	68fb      	ldr	r3, [r7, #12]
  40039c:	601a      	str	r2, [r3, #0]
	}
}
  40039e:	bf00      	nop
  4003a0:	3718      	adds	r7, #24
  4003a2:	46bd      	mov	sp, r7
  4003a4:	bd80      	pop	{r7, pc}
  4003a6:	bf00      	nop
  4003a8:	004002a5 	.word	0x004002a5
  4003ac:	07ff0000 	.word	0x07ff0000

004003b0 <pll_enable>:
		PMC->CKGR_UCKR = p_cfg->ctrl;
	}
}

static inline void pll_enable(const struct pll_config *p_cfg, uint32_t ul_pll_id)
{
  4003b0:	b580      	push	{r7, lr}
  4003b2:	b082      	sub	sp, #8
  4003b4:	af00      	add	r7, sp, #0
  4003b6:	6078      	str	r0, [r7, #4]
  4003b8:	6039      	str	r1, [r7, #0]
	Assert(ul_pll_id < NR_PLLS);

	if (ul_pll_id == PLLA_ID) {
  4003ba:	683b      	ldr	r3, [r7, #0]
  4003bc:	2b00      	cmp	r3, #0
  4003be:	d108      	bne.n	4003d2 <pll_enable+0x22>
		pmc_disable_pllack(); // Always stop PLL first!
  4003c0:	4b09      	ldr	r3, [pc, #36]	; (4003e8 <pll_enable+0x38>)
  4003c2:	4798      	blx	r3
		PMC->CKGR_PLLAR = CKGR_PLLAR_ONE | p_cfg->ctrl;
  4003c4:	4a09      	ldr	r2, [pc, #36]	; (4003ec <pll_enable+0x3c>)
  4003c6:	687b      	ldr	r3, [r7, #4]
  4003c8:	681b      	ldr	r3, [r3, #0]
  4003ca:	f043 5300 	orr.w	r3, r3, #536870912	; 0x20000000
  4003ce:	6293      	str	r3, [r2, #40]	; 0x28
	} else {
		PMC->CKGR_UCKR = p_cfg->ctrl | CKGR_UCKR_UPLLEN;
	}
}
  4003d0:	e005      	b.n	4003de <pll_enable+0x2e>
		PMC->CKGR_UCKR = p_cfg->ctrl | CKGR_UCKR_UPLLEN;
  4003d2:	4a06      	ldr	r2, [pc, #24]	; (4003ec <pll_enable+0x3c>)
  4003d4:	687b      	ldr	r3, [r7, #4]
  4003d6:	681b      	ldr	r3, [r3, #0]
  4003d8:	f443 3380 	orr.w	r3, r3, #65536	; 0x10000
  4003dc:	61d3      	str	r3, [r2, #28]
}
  4003de:	bf00      	nop
  4003e0:	3708      	adds	r7, #8
  4003e2:	46bd      	mov	sp, r7
  4003e4:	bd80      	pop	{r7, pc}
  4003e6:	bf00      	nop
  4003e8:	00400ac5 	.word	0x00400ac5
  4003ec:	400e0600 	.word	0x400e0600

004003f0 <pll_is_locked>:
		PMC->CKGR_UCKR &= ~CKGR_UCKR_UPLLEN;
	}
}

static inline uint32_t pll_is_locked(uint32_t ul_pll_id)
{
  4003f0:	b580      	push	{r7, lr}
  4003f2:	b082      	sub	sp, #8
  4003f4:	af00      	add	r7, sp, #0
  4003f6:	6078      	str	r0, [r7, #4]
	Assert(ul_pll_id < NR_PLLS);

	if (ul_pll_id == PLLA_ID) {
  4003f8:	687b      	ldr	r3, [r7, #4]
  4003fa:	2b00      	cmp	r3, #0
  4003fc:	d103      	bne.n	400406 <pll_is_locked+0x16>
	return pmc_is_locked_pllack();
  4003fe:	4b05      	ldr	r3, [pc, #20]	; (400414 <pll_is_locked+0x24>)
  400400:	4798      	blx	r3
  400402:	4603      	mov	r3, r0
  400404:	e002      	b.n	40040c <pll_is_locked+0x1c>
	} else {
		return pmc_is_locked_upll();
  400406:	4b04      	ldr	r3, [pc, #16]	; (400418 <pll_is_locked+0x28>)
  400408:	4798      	blx	r3
  40040a:	4603      	mov	r3, r0
	}
}
  40040c:	4618      	mov	r0, r3
  40040e:	3708      	adds	r7, #8
  400410:	46bd      	mov	sp, r7
  400412:	bd80      	pop	{r7, pc}
  400414:	00400ae1 	.word	0x00400ae1
  400418:	00400afd 	.word	0x00400afd

0040041c <pll_enable_source>:

static inline void pll_enable_source(enum pll_source e_src)
{
  40041c:	b580      	push	{r7, lr}
  40041e:	b082      	sub	sp, #8
  400420:	af00      	add	r7, sp, #0
  400422:	4603      	mov	r3, r0
  400424:	71fb      	strb	r3, [r7, #7]
	switch (e_src) {
  400426:	79fb      	ldrb	r3, [r7, #7]
  400428:	3b03      	subs	r3, #3
  40042a:	2b04      	cmp	r3, #4
  40042c:	d808      	bhi.n	400440 <pll_enable_source+0x24>
	case PLL_SRC_MAINCK_4M_RC:
	case PLL_SRC_MAINCK_8M_RC:
	case PLL_SRC_MAINCK_12M_RC:
	case PLL_SRC_MAINCK_XTAL:
	case PLL_SRC_MAINCK_BYPASS:
		osc_enable(e_src);
  40042e:	79fb      	ldrb	r3, [r7, #7]
  400430:	4618      	mov	r0, r3
  400432:	4b06      	ldr	r3, [pc, #24]	; (40044c <pll_enable_source+0x30>)
  400434:	4798      	blx	r3
		osc_wait_ready(e_src);
  400436:	79fb      	ldrb	r3, [r7, #7]
  400438:	4618      	mov	r0, r3
  40043a:	4b05      	ldr	r3, [pc, #20]	; (400450 <pll_enable_source+0x34>)
  40043c:	4798      	blx	r3
		break;
  40043e:	e000      	b.n	400442 <pll_enable_source+0x26>

	default:
		Assert(false);
		break;
  400440:	bf00      	nop
	}
}
  400442:	bf00      	nop
  400444:	3708      	adds	r7, #8
  400446:	46bd      	mov	sp, r7
  400448:	bd80      	pop	{r7, pc}
  40044a:	bf00      	nop
  40044c:	004001ad 	.word	0x004001ad
  400450:	00400319 	.word	0x00400319

00400454 <pll_wait_for_lock>:
 *
 * \retval STATUS_OK The PLL is now locked.
 * \retval ERR_TIMEOUT Timed out waiting for PLL to become locked.
 */
static inline int pll_wait_for_lock(unsigned int pll_id)
{
  400454:	b580      	push	{r7, lr}
  400456:	b082      	sub	sp, #8
  400458:	af00      	add	r7, sp, #0
  40045a:	6078      	str	r0, [r7, #4]
	Assert(pll_id < NR_PLLS);

	while (!pll_is_locked(pll_id)) {
  40045c:	bf00      	nop
  40045e:	6878      	ldr	r0, [r7, #4]
  400460:	4b04      	ldr	r3, [pc, #16]	; (400474 <pll_wait_for_lock+0x20>)
  400462:	4798      	blx	r3
  400464:	4603      	mov	r3, r0
  400466:	2b00      	cmp	r3, #0
  400468:	d0f9      	beq.n	40045e <pll_wait_for_lock+0xa>
		/* Do nothing */
	}

	return 0;
  40046a:	2300      	movs	r3, #0
}
  40046c:	4618      	mov	r0, r3
  40046e:	3708      	adds	r7, #8
  400470:	46bd      	mov	sp, r7
  400472:	bd80      	pop	{r7, pc}
  400474:	004003f1 	.word	0x004003f1

00400478 <sysclk_get_main_hz>:
 */
#if (defined CONFIG_SYSCLK_DEFAULT_RETURNS_SLOW_OSC)
extern uint32_t sysclk_initialized;
#endif
static inline uint32_t sysclk_get_main_hz(void)
{
  400478:	b580      	push	{r7, lr}
  40047a:	af00      	add	r7, sp, #0
	} else if (CONFIG_SYSCLK_SOURCE == SYSCLK_SRC_MAINCK_BYPASS) {
		return OSC_MAINCK_BYPASS_HZ;
	}
#ifdef CONFIG_PLL0_SOURCE
	else if (CONFIG_SYSCLK_SOURCE == SYSCLK_SRC_PLLACK) {
		return pll_get_default_rate(0);
  40047c:	2006      	movs	r0, #6
  40047e:	4b05      	ldr	r3, [pc, #20]	; (400494 <sysclk_get_main_hz+0x1c>)
  400480:	4798      	blx	r3
  400482:	4602      	mov	r2, r0
  400484:	4613      	mov	r3, r2
  400486:	009b      	lsls	r3, r3, #2
  400488:	4413      	add	r3, r2
  40048a:	009a      	lsls	r2, r3, #2
  40048c:	4413      	add	r3, r2
#endif
	else {
		/* unhandled_case(CONFIG_SYSCLK_SOURCE); */
		return 0;
	}
}
  40048e:	4618      	mov	r0, r3
  400490:	bd80      	pop	{r7, pc}
  400492:	bf00      	nop
  400494:	004002a5 	.word	0x004002a5

00400498 <sysclk_get_cpu_hz>:
 * clocks.
 *
 * \return Frequency of the CPU clock, in Hz.
 */
static inline uint32_t sysclk_get_cpu_hz(void)
{
  400498:	b580      	push	{r7, lr}
  40049a:	af00      	add	r7, sp, #0
	/* CONFIG_SYSCLK_PRES is the register value for setting the expected */
	/* prescaler, not an immediate value. */
	return sysclk_get_main_hz() /
  40049c:	4b02      	ldr	r3, [pc, #8]	; (4004a8 <sysclk_get_cpu_hz+0x10>)
  40049e:	4798      	blx	r3
  4004a0:	4603      	mov	r3, r0
		((CONFIG_SYSCLK_PRES == SYSCLK_PRES_3) ? 3 :
			(1 << (CONFIG_SYSCLK_PRES >> PMC_MCKR_PRES_Pos)));
}
  4004a2:	4618      	mov	r0, r3
  4004a4:	bd80      	pop	{r7, pc}
  4004a6:	bf00      	nop
  4004a8:	00400479 	.word	0x00400479

004004ac <sysclk_init>:
	pmc_disable_udpck();
}
#endif // CONFIG_USBCLK_SOURCE

void sysclk_init(void)
{
  4004ac:	b590      	push	{r4, r7, lr}
  4004ae:	b083      	sub	sp, #12
  4004b0:	af00      	add	r7, sp, #0
	struct pll_config pllcfg;

	/* Set flash wait state to max in case the below clock switching. */
	system_init_flash(CHIP_FREQ_CPU_MAX);
  4004b2:	4813      	ldr	r0, [pc, #76]	; (400500 <sysclk_init+0x54>)
  4004b4:	4b13      	ldr	r3, [pc, #76]	; (400504 <sysclk_init+0x58>)
  4004b6:	4798      	blx	r3
		pmc_switch_mck_to_mainck(CONFIG_SYSCLK_PRES);
	}

#ifdef CONFIG_PLL0_SOURCE
	else if (CONFIG_SYSCLK_SOURCE == SYSCLK_SRC_PLLACK) {
		pll_enable_source(CONFIG_PLL0_SOURCE);
  4004b8:	2006      	movs	r0, #6
  4004ba:	4b13      	ldr	r3, [pc, #76]	; (400508 <sysclk_init+0x5c>)
  4004bc:	4798      	blx	r3
		pll_config_defaults(&pllcfg, 0);
  4004be:	1d38      	adds	r0, r7, #4
  4004c0:	2319      	movs	r3, #25
  4004c2:	2201      	movs	r2, #1
  4004c4:	2106      	movs	r1, #6
  4004c6:	4c11      	ldr	r4, [pc, #68]	; (40050c <sysclk_init+0x60>)
  4004c8:	47a0      	blx	r4
		pll_enable(&pllcfg, 0);
  4004ca:	1d3b      	adds	r3, r7, #4
  4004cc:	2100      	movs	r1, #0
  4004ce:	4618      	mov	r0, r3
  4004d0:	4b0f      	ldr	r3, [pc, #60]	; (400510 <sysclk_init+0x64>)
  4004d2:	4798      	blx	r3
		pll_wait_for_lock(0);
  4004d4:	2000      	movs	r0, #0
  4004d6:	4b0f      	ldr	r3, [pc, #60]	; (400514 <sysclk_init+0x68>)
  4004d8:	4798      	blx	r3
		pmc_mck_set_division(CONFIG_SYSCLK_DIV);
  4004da:	2002      	movs	r0, #2
  4004dc:	4b0e      	ldr	r3, [pc, #56]	; (400518 <sysclk_init+0x6c>)
  4004de:	4798      	blx	r3
		pmc_switch_mck_to_pllack(CONFIG_SYSCLK_PRES);
  4004e0:	2000      	movs	r0, #0
  4004e2:	4b0e      	ldr	r3, [pc, #56]	; (40051c <sysclk_init+0x70>)
  4004e4:	4798      	blx	r3
		pll_wait_for_lock(1);
		pmc_mck_set_division(CONFIG_SYSCLK_DIV);
		pmc_switch_mck_to_upllck(CONFIG_SYSCLK_PRES);
	}
	/* Update the SystemFrequency variable */
	SystemCoreClockUpdate();
  4004e6:	4b0e      	ldr	r3, [pc, #56]	; (400520 <sysclk_init+0x74>)
  4004e8:	4798      	blx	r3

	/* Set a flash wait state depending on the new cpu frequency */
	system_init_flash(sysclk_get_cpu_hz());
  4004ea:	4b0e      	ldr	r3, [pc, #56]	; (400524 <sysclk_init+0x78>)
  4004ec:	4798      	blx	r3
  4004ee:	4603      	mov	r3, r0
  4004f0:	4618      	mov	r0, r3
  4004f2:	4b04      	ldr	r3, [pc, #16]	; (400504 <sysclk_init+0x58>)
  4004f4:	4798      	blx	r3

#if (defined CONFIG_SYSCLK_DEFAULT_RETURNS_SLOW_OSC)
	/* Signal that the internal frequencies are setup */
	sysclk_initialized = 1;
#endif
}
  4004f6:	bf00      	nop
  4004f8:	370c      	adds	r7, #12
  4004fa:	46bd      	mov	sp, r7
  4004fc:	bd90      	pop	{r4, r7, pc}
  4004fe:	bf00      	nop
  400500:	11e1a300 	.word	0x11e1a300
  400504:	004011b1 	.word	0x004011b1
  400508:	0040041d 	.word	0x0040041d
  40050c:	00400345 	.word	0x00400345
  400510:	004003b1 	.word	0x004003b1
  400514:	00400455 	.word	0x00400455
  400518:	00400855 	.word	0x00400855
  40051c:	004008d1 	.word	0x004008d1
  400520:	00401049 	.word	0x00401049
  400524:	00400499 	.word	0x00400499

00400528 <_read>:
int __attribute__((weak))
_read (int file, char * ptr, int len); // Remove GCC compiler warning

int __attribute__((weak))
_read (int file, char * ptr, int len)
{
  400528:	b580      	push	{r7, lr}
  40052a:	b086      	sub	sp, #24
  40052c:	af00      	add	r7, sp, #0
  40052e:	60f8      	str	r0, [r7, #12]
  400530:	60b9      	str	r1, [r7, #8]
  400532:	607a      	str	r2, [r7, #4]
	int nChars = 0;
  400534:	2300      	movs	r3, #0
  400536:	617b      	str	r3, [r7, #20]

	if (file != 0) {
  400538:	68fb      	ldr	r3, [r7, #12]
  40053a:	2b00      	cmp	r3, #0
  40053c:	d012      	beq.n	400564 <_read+0x3c>
		return -1;
  40053e:	f04f 33ff 	mov.w	r3, #4294967295
  400542:	e013      	b.n	40056c <_read+0x44>
	}

	for (; len > 0; --len) {
		ptr_get(stdio_base, ptr);
  400544:	4b0b      	ldr	r3, [pc, #44]	; (400574 <_read+0x4c>)
  400546:	681b      	ldr	r3, [r3, #0]
  400548:	4a0b      	ldr	r2, [pc, #44]	; (400578 <_read+0x50>)
  40054a:	6812      	ldr	r2, [r2, #0]
  40054c:	68b9      	ldr	r1, [r7, #8]
  40054e:	4610      	mov	r0, r2
  400550:	4798      	blx	r3
		ptr++;
  400552:	68bb      	ldr	r3, [r7, #8]
  400554:	3301      	adds	r3, #1
  400556:	60bb      	str	r3, [r7, #8]
		nChars++;
  400558:	697b      	ldr	r3, [r7, #20]
  40055a:	3301      	adds	r3, #1
  40055c:	617b      	str	r3, [r7, #20]
	for (; len > 0; --len) {
  40055e:	687b      	ldr	r3, [r7, #4]
  400560:	3b01      	subs	r3, #1
  400562:	607b      	str	r3, [r7, #4]
  400564:	687b      	ldr	r3, [r7, #4]
  400566:	2b00      	cmp	r3, #0
  400568:	dcec      	bgt.n	400544 <_read+0x1c>
	}
	return nChars;
  40056a:	697b      	ldr	r3, [r7, #20]
}
  40056c:	4618      	mov	r0, r3
  40056e:	3718      	adds	r7, #24
  400570:	46bd      	mov	sp, r7
  400572:	bd80      	pop	{r7, pc}
  400574:	20400a88 	.word	0x20400a88
  400578:	20400a90 	.word	0x20400a90

0040057c <_write>:
int __attribute__((weak))
_write (int file, const char *ptr, int len);

int __attribute__((weak))
_write (int file, const char *ptr, int len)
{
  40057c:	b580      	push	{r7, lr}
  40057e:	b086      	sub	sp, #24
  400580:	af00      	add	r7, sp, #0
  400582:	60f8      	str	r0, [r7, #12]
  400584:	60b9      	str	r1, [r7, #8]
  400586:	607a      	str	r2, [r7, #4]
	int nChars = 0;
  400588:	2300      	movs	r3, #0
  40058a:	617b      	str	r3, [r7, #20]

	if ((file != 1) && (file != 2) && (file!=3)) {
  40058c:	68fb      	ldr	r3, [r7, #12]
  40058e:	2b01      	cmp	r3, #1
  400590:	d01e      	beq.n	4005d0 <_write+0x54>
  400592:	68fb      	ldr	r3, [r7, #12]
  400594:	2b02      	cmp	r3, #2
  400596:	d01b      	beq.n	4005d0 <_write+0x54>
  400598:	68fb      	ldr	r3, [r7, #12]
  40059a:	2b03      	cmp	r3, #3
  40059c:	d018      	beq.n	4005d0 <_write+0x54>
		return -1;
  40059e:	f04f 33ff 	mov.w	r3, #4294967295
  4005a2:	e019      	b.n	4005d8 <_write+0x5c>
	}

	for (; len != 0; --len) {
		if (ptr_put(stdio_base, *ptr++) < 0) {
  4005a4:	4b0e      	ldr	r3, [pc, #56]	; (4005e0 <_write+0x64>)
  4005a6:	681a      	ldr	r2, [r3, #0]
  4005a8:	4b0e      	ldr	r3, [pc, #56]	; (4005e4 <_write+0x68>)
  4005aa:	6818      	ldr	r0, [r3, #0]
  4005ac:	68bb      	ldr	r3, [r7, #8]
  4005ae:	1c59      	adds	r1, r3, #1
  4005b0:	60b9      	str	r1, [r7, #8]
  4005b2:	781b      	ldrb	r3, [r3, #0]
  4005b4:	4619      	mov	r1, r3
  4005b6:	4790      	blx	r2
  4005b8:	4603      	mov	r3, r0
  4005ba:	2b00      	cmp	r3, #0
  4005bc:	da02      	bge.n	4005c4 <_write+0x48>
			return -1;
  4005be:	f04f 33ff 	mov.w	r3, #4294967295
  4005c2:	e009      	b.n	4005d8 <_write+0x5c>
		}
		++nChars;
  4005c4:	697b      	ldr	r3, [r7, #20]
  4005c6:	3301      	adds	r3, #1
  4005c8:	617b      	str	r3, [r7, #20]
	for (; len != 0; --len) {
  4005ca:	687b      	ldr	r3, [r7, #4]
  4005cc:	3b01      	subs	r3, #1
  4005ce:	607b      	str	r3, [r7, #4]
  4005d0:	687b      	ldr	r3, [r7, #4]
  4005d2:	2b00      	cmp	r3, #0
  4005d4:	d1e6      	bne.n	4005a4 <_write+0x28>
	}
	return nChars;
  4005d6:	697b      	ldr	r3, [r7, #20]
}
  4005d8:	4618      	mov	r0, r3
  4005da:	3718      	adds	r7, #24
  4005dc:	46bd      	mov	sp, r7
  4005de:	bd80      	pop	{r7, pc}
  4005e0:	20400a8c 	.word	0x20400a8c
  4005e4:	20400a90 	.word	0x20400a90

004005e8 <pio_set_peripheral>:
 * \param ul_type PIO type.
 * \param ul_mask Bitmask of one or more pin(s) to configure.
 */
void pio_set_peripheral(Pio *p_pio, const pio_type_t ul_type,
		const uint32_t ul_mask)
{
  4005e8:	b480      	push	{r7}
  4005ea:	b087      	sub	sp, #28
  4005ec:	af00      	add	r7, sp, #0
  4005ee:	60f8      	str	r0, [r7, #12]
  4005f0:	60b9      	str	r1, [r7, #8]
  4005f2:	607a      	str	r2, [r7, #4]
	uint32_t ul_sr;

	/* Disable interrupts on the pin(s) */
	p_pio->PIO_IDR = ul_mask;
  4005f4:	68fb      	ldr	r3, [r7, #12]
  4005f6:	687a      	ldr	r2, [r7, #4]
  4005f8:	645a      	str	r2, [r3, #68]	; 0x44

#if (SAM3S || SAM3N || SAM4S || SAM4E || SAM4N || SAM4C || SAMG || SAM4CP || SAM4CM || SAMV71 || SAMV70 || SAME70 || SAMS70)
	switch (ul_type) {
  4005fa:	68bb      	ldr	r3, [r7, #8]
  4005fc:	f1b3 5fc0 	cmp.w	r3, #402653184	; 0x18000000
  400600:	d04a      	beq.n	400698 <pio_set_peripheral+0xb0>
  400602:	f1b3 5fc0 	cmp.w	r3, #402653184	; 0x18000000
  400606:	d808      	bhi.n	40061a <pio_set_peripheral+0x32>
  400608:	f1b3 6f00 	cmp.w	r3, #134217728	; 0x8000000
  40060c:	d016      	beq.n	40063c <pio_set_peripheral+0x54>
  40060e:	f1b3 5f80 	cmp.w	r3, #268435456	; 0x10000000
  400612:	d02c      	beq.n	40066e <pio_set_peripheral+0x86>
  400614:	2b00      	cmp	r3, #0
  400616:	d069      	beq.n	4006ec <pio_set_peripheral+0x104>
  400618:	e064      	b.n	4006e4 <pio_set_peripheral+0xfc>
  40061a:	f1b3 5f20 	cmp.w	r3, #671088640	; 0x28000000
  40061e:	d065      	beq.n	4006ec <pio_set_peripheral+0x104>
  400620:	f1b3 5f20 	cmp.w	r3, #671088640	; 0x28000000
  400624:	d803      	bhi.n	40062e <pio_set_peripheral+0x46>
  400626:	f1b3 5f00 	cmp.w	r3, #536870912	; 0x20000000
  40062a:	d04a      	beq.n	4006c2 <pio_set_peripheral+0xda>
  40062c:	e05a      	b.n	4006e4 <pio_set_peripheral+0xfc>
  40062e:	f1b3 5f40 	cmp.w	r3, #805306368	; 0x30000000
  400632:	d05b      	beq.n	4006ec <pio_set_peripheral+0x104>
  400634:	f1b3 5f60 	cmp.w	r3, #939524096	; 0x38000000
  400638:	d058      	beq.n	4006ec <pio_set_peripheral+0x104>
  40063a:	e053      	b.n	4006e4 <pio_set_peripheral+0xfc>
	case PIO_PERIPH_A:
		ul_sr = p_pio->PIO_ABCDSR[0];
  40063c:	68fb      	ldr	r3, [r7, #12]
  40063e:	6f1b      	ldr	r3, [r3, #112]	; 0x70
  400640:	617b      	str	r3, [r7, #20]
		p_pio->PIO_ABCDSR[0] &= (~ul_mask & ul_sr);
  400642:	68fb      	ldr	r3, [r7, #12]
  400644:	6f1a      	ldr	r2, [r3, #112]	; 0x70
  400646:	687b      	ldr	r3, [r7, #4]
  400648:	43d9      	mvns	r1, r3
  40064a:	697b      	ldr	r3, [r7, #20]
  40064c:	400b      	ands	r3, r1
  40064e:	401a      	ands	r2, r3
  400650:	68fb      	ldr	r3, [r7, #12]
  400652:	671a      	str	r2, [r3, #112]	; 0x70

		ul_sr = p_pio->PIO_ABCDSR[1];
  400654:	68fb      	ldr	r3, [r7, #12]
  400656:	6f5b      	ldr	r3, [r3, #116]	; 0x74
  400658:	617b      	str	r3, [r7, #20]
		p_pio->PIO_ABCDSR[1] &= (~ul_mask & ul_sr);
  40065a:	68fb      	ldr	r3, [r7, #12]
  40065c:	6f5a      	ldr	r2, [r3, #116]	; 0x74
  40065e:	687b      	ldr	r3, [r7, #4]
  400660:	43d9      	mvns	r1, r3
  400662:	697b      	ldr	r3, [r7, #20]
  400664:	400b      	ands	r3, r1
  400666:	401a      	ands	r2, r3
  400668:	68fb      	ldr	r3, [r7, #12]
  40066a:	675a      	str	r2, [r3, #116]	; 0x74
		break;
  40066c:	e03a      	b.n	4006e4 <pio_set_peripheral+0xfc>
	case PIO_PERIPH_B:
		ul_sr = p_pio->PIO_ABCDSR[0];
  40066e:	68fb      	ldr	r3, [r7, #12]
  400670:	6f1b      	ldr	r3, [r3, #112]	; 0x70
  400672:	617b      	str	r3, [r7, #20]
		p_pio->PIO_ABCDSR[0] = (ul_mask | ul_sr);
  400674:	687a      	ldr	r2, [r7, #4]
  400676:	697b      	ldr	r3, [r7, #20]
  400678:	431a      	orrs	r2, r3
  40067a:	68fb      	ldr	r3, [r7, #12]
  40067c:	671a      	str	r2, [r3, #112]	; 0x70

		ul_sr = p_pio->PIO_ABCDSR[1];
  40067e:	68fb      	ldr	r3, [r7, #12]
  400680:	6f5b      	ldr	r3, [r3, #116]	; 0x74
  400682:	617b      	str	r3, [r7, #20]
		p_pio->PIO_ABCDSR[1] &= (~ul_mask & ul_sr);
  400684:	68fb      	ldr	r3, [r7, #12]
  400686:	6f5a      	ldr	r2, [r3, #116]	; 0x74
  400688:	687b      	ldr	r3, [r7, #4]
  40068a:	43d9      	mvns	r1, r3
  40068c:	697b      	ldr	r3, [r7, #20]
  40068e:	400b      	ands	r3, r1
  400690:	401a      	ands	r2, r3
  400692:	68fb      	ldr	r3, [r7, #12]
  400694:	675a      	str	r2, [r3, #116]	; 0x74
		break;
  400696:	e025      	b.n	4006e4 <pio_set_peripheral+0xfc>
#if (!SAMG)
	case PIO_PERIPH_C:
		ul_sr = p_pio->PIO_ABCDSR[0];
  400698:	68fb      	ldr	r3, [r7, #12]
  40069a:	6f1b      	ldr	r3, [r3, #112]	; 0x70
  40069c:	617b      	str	r3, [r7, #20]
		p_pio->PIO_ABCDSR[0] &= (~ul_mask & ul_sr);
  40069e:	68fb      	ldr	r3, [r7, #12]
  4006a0:	6f1a      	ldr	r2, [r3, #112]	; 0x70
  4006a2:	687b      	ldr	r3, [r7, #4]
  4006a4:	43d9      	mvns	r1, r3
  4006a6:	697b      	ldr	r3, [r7, #20]
  4006a8:	400b      	ands	r3, r1
  4006aa:	401a      	ands	r2, r3
  4006ac:	68fb      	ldr	r3, [r7, #12]
  4006ae:	671a      	str	r2, [r3, #112]	; 0x70

		ul_sr = p_pio->PIO_ABCDSR[1];
  4006b0:	68fb      	ldr	r3, [r7, #12]
  4006b2:	6f5b      	ldr	r3, [r3, #116]	; 0x74
  4006b4:	617b      	str	r3, [r7, #20]
		p_pio->PIO_ABCDSR[1] = (ul_mask | ul_sr);
  4006b6:	687a      	ldr	r2, [r7, #4]
  4006b8:	697b      	ldr	r3, [r7, #20]
  4006ba:	431a      	orrs	r2, r3
  4006bc:	68fb      	ldr	r3, [r7, #12]
  4006be:	675a      	str	r2, [r3, #116]	; 0x74
		break;
  4006c0:	e010      	b.n	4006e4 <pio_set_peripheral+0xfc>
	case PIO_PERIPH_D:
		ul_sr = p_pio->PIO_ABCDSR[0];
  4006c2:	68fb      	ldr	r3, [r7, #12]
  4006c4:	6f1b      	ldr	r3, [r3, #112]	; 0x70
  4006c6:	617b      	str	r3, [r7, #20]
		p_pio->PIO_ABCDSR[0] = (ul_mask | ul_sr);
  4006c8:	687a      	ldr	r2, [r7, #4]
  4006ca:	697b      	ldr	r3, [r7, #20]
  4006cc:	431a      	orrs	r2, r3
  4006ce:	68fb      	ldr	r3, [r7, #12]
  4006d0:	671a      	str	r2, [r3, #112]	; 0x70

		ul_sr = p_pio->PIO_ABCDSR[1];
  4006d2:	68fb      	ldr	r3, [r7, #12]
  4006d4:	6f5b      	ldr	r3, [r3, #116]	; 0x74
  4006d6:	617b      	str	r3, [r7, #20]
		p_pio->PIO_ABCDSR[1] = (ul_mask | ul_sr);
  4006d8:	687a      	ldr	r2, [r7, #4]
  4006da:	697b      	ldr	r3, [r7, #20]
  4006dc:	431a      	orrs	r2, r3
  4006de:	68fb      	ldr	r3, [r7, #12]
  4006e0:	675a      	str	r2, [r3, #116]	; 0x74
		break;
  4006e2:	bf00      	nop
#else
#error "Unsupported device"
#endif

	/* Remove the pins from under the control of PIO */
	p_pio->PIO_PDR = ul_mask;
  4006e4:	68fb      	ldr	r3, [r7, #12]
  4006e6:	687a      	ldr	r2, [r7, #4]
  4006e8:	605a      	str	r2, [r3, #4]
  4006ea:	e000      	b.n	4006ee <pio_set_peripheral+0x106>
		return;
  4006ec:	bf00      	nop
}
  4006ee:	371c      	adds	r7, #28
  4006f0:	46bd      	mov	sp, r7
  4006f2:	f85d 7b04 	ldr.w	r7, [sp], #4
  4006f6:	4770      	bx	lr

004006f8 <pio_get_interrupt_status>:
 * \param p_pio Pointer to a PIO instance.
 *
 * \return The interrupt status value.
 */
uint32_t pio_get_interrupt_status(const Pio *p_pio)
{
  4006f8:	b480      	push	{r7}
  4006fa:	b083      	sub	sp, #12
  4006fc:	af00      	add	r7, sp, #0
  4006fe:	6078      	str	r0, [r7, #4]
	return p_pio->PIO_ISR;
  400700:	687b      	ldr	r3, [r7, #4]
  400702:	6cdb      	ldr	r3, [r3, #76]	; 0x4c
}
  400704:	4618      	mov	r0, r3
  400706:	370c      	adds	r7, #12
  400708:	46bd      	mov	sp, r7
  40070a:	f85d 7b04 	ldr.w	r7, [sp], #4
  40070e:	4770      	bx	lr

00400710 <pio_get_interrupt_mask>:
 * \param p_pio Pointer to a PIO instance.
 *
 * \return The interrupt mask value.
 */
uint32_t pio_get_interrupt_mask(const Pio *p_pio)
{
  400710:	b480      	push	{r7}
  400712:	b083      	sub	sp, #12
  400714:	af00      	add	r7, sp, #0
  400716:	6078      	str	r0, [r7, #4]
	return p_pio->PIO_IMR;
  400718:	687b      	ldr	r3, [r7, #4]
  40071a:	6c9b      	ldr	r3, [r3, #72]	; 0x48
}
  40071c:	4618      	mov	r0, r3
  40071e:	370c      	adds	r7, #12
  400720:	46bd      	mov	sp, r7
  400722:	f85d 7b04 	ldr.w	r7, [sp], #4
  400726:	4770      	bx	lr

00400728 <pio_handler_process>:
 *
 * \param p_pio PIO controller base address.
 * \param ul_id PIO controller ID.
 */
void pio_handler_process(Pio *p_pio, uint32_t ul_id)
{
  400728:	b580      	push	{r7, lr}
  40072a:	b084      	sub	sp, #16
  40072c:	af00      	add	r7, sp, #0
  40072e:	6078      	str	r0, [r7, #4]
  400730:	6039      	str	r1, [r7, #0]
	uint32_t status;
	uint32_t i;

	/* Read PIO controller status */
	status = pio_get_interrupt_status(p_pio);
  400732:	6878      	ldr	r0, [r7, #4]
  400734:	4b26      	ldr	r3, [pc, #152]	; (4007d0 <pio_handler_process+0xa8>)
  400736:	4798      	blx	r3
  400738:	60f8      	str	r0, [r7, #12]
	status &= pio_get_interrupt_mask(p_pio);
  40073a:	6878      	ldr	r0, [r7, #4]
  40073c:	4b25      	ldr	r3, [pc, #148]	; (4007d4 <pio_handler_process+0xac>)
  40073e:	4798      	blx	r3
  400740:	4602      	mov	r2, r0
  400742:	68fb      	ldr	r3, [r7, #12]
  400744:	4013      	ands	r3, r2
  400746:	60fb      	str	r3, [r7, #12]

	/* Check pending events */
	if (status != 0) {
  400748:	68fb      	ldr	r3, [r7, #12]
  40074a:	2b00      	cmp	r3, #0
  40074c:	d03c      	beq.n	4007c8 <pio_handler_process+0xa0>
		/* Find triggering source */
		i = 0;
  40074e:	2300      	movs	r3, #0
  400750:	60bb      	str	r3, [r7, #8]
		while (status != 0) {
  400752:	e034      	b.n	4007be <pio_handler_process+0x96>
			/* Source is configured on the same controller */
			if (gs_interrupt_sources[i].id == ul_id) {
  400754:	4a20      	ldr	r2, [pc, #128]	; (4007d8 <pio_handler_process+0xb0>)
  400756:	68bb      	ldr	r3, [r7, #8]
  400758:	011b      	lsls	r3, r3, #4
  40075a:	4413      	add	r3, r2
  40075c:	681a      	ldr	r2, [r3, #0]
  40075e:	683b      	ldr	r3, [r7, #0]
  400760:	429a      	cmp	r2, r3
  400762:	d126      	bne.n	4007b2 <pio_handler_process+0x8a>
				/* Source has PIOs whose statuses have changed */
				if ((status & gs_interrupt_sources[i].mask) != 0) {
  400764:	4a1c      	ldr	r2, [pc, #112]	; (4007d8 <pio_handler_process+0xb0>)
  400766:	68bb      	ldr	r3, [r7, #8]
  400768:	011b      	lsls	r3, r3, #4
  40076a:	4413      	add	r3, r2
  40076c:	3304      	adds	r3, #4
  40076e:	681a      	ldr	r2, [r3, #0]
  400770:	68fb      	ldr	r3, [r7, #12]
  400772:	4013      	ands	r3, r2
  400774:	2b00      	cmp	r3, #0
  400776:	d01c      	beq.n	4007b2 <pio_handler_process+0x8a>
					gs_interrupt_sources[i].handler(gs_interrupt_sources[i].id,
  400778:	4a17      	ldr	r2, [pc, #92]	; (4007d8 <pio_handler_process+0xb0>)
  40077a:	68bb      	ldr	r3, [r7, #8]
  40077c:	011b      	lsls	r3, r3, #4
  40077e:	4413      	add	r3, r2
  400780:	330c      	adds	r3, #12
  400782:	681b      	ldr	r3, [r3, #0]
  400784:	4914      	ldr	r1, [pc, #80]	; (4007d8 <pio_handler_process+0xb0>)
  400786:	68ba      	ldr	r2, [r7, #8]
  400788:	0112      	lsls	r2, r2, #4
  40078a:	440a      	add	r2, r1
  40078c:	6810      	ldr	r0, [r2, #0]
  40078e:	4912      	ldr	r1, [pc, #72]	; (4007d8 <pio_handler_process+0xb0>)
  400790:	68ba      	ldr	r2, [r7, #8]
  400792:	0112      	lsls	r2, r2, #4
  400794:	440a      	add	r2, r1
  400796:	3204      	adds	r2, #4
  400798:	6812      	ldr	r2, [r2, #0]
  40079a:	4611      	mov	r1, r2
  40079c:	4798      	blx	r3
							gs_interrupt_sources[i].mask);
					status &= ~(gs_interrupt_sources[i].mask);
  40079e:	4a0e      	ldr	r2, [pc, #56]	; (4007d8 <pio_handler_process+0xb0>)
  4007a0:	68bb      	ldr	r3, [r7, #8]
  4007a2:	011b      	lsls	r3, r3, #4
  4007a4:	4413      	add	r3, r2
  4007a6:	3304      	adds	r3, #4
  4007a8:	681b      	ldr	r3, [r3, #0]
  4007aa:	43db      	mvns	r3, r3
  4007ac:	68fa      	ldr	r2, [r7, #12]
  4007ae:	4013      	ands	r3, r2
  4007b0:	60fb      	str	r3, [r7, #12]
				}
			}
			i++;
  4007b2:	68bb      	ldr	r3, [r7, #8]
  4007b4:	3301      	adds	r3, #1
  4007b6:	60bb      	str	r3, [r7, #8]
			if (i >= MAX_INTERRUPT_SOURCES) {
  4007b8:	68bb      	ldr	r3, [r7, #8]
  4007ba:	2b06      	cmp	r3, #6
  4007bc:	d803      	bhi.n	4007c6 <pio_handler_process+0x9e>
		while (status != 0) {
  4007be:	68fb      	ldr	r3, [r7, #12]
  4007c0:	2b00      	cmp	r3, #0
  4007c2:	d1c7      	bne.n	400754 <pio_handler_process+0x2c>
		if (pio_capture_handler) {
			pio_capture_handler(p_pio);
		}
	}
#endif
}
  4007c4:	e000      	b.n	4007c8 <pio_handler_process+0xa0>
				break;
  4007c6:	bf00      	nop
}
  4007c8:	bf00      	nop
  4007ca:	3710      	adds	r7, #16
  4007cc:	46bd      	mov	sp, r7
  4007ce:	bd80      	pop	{r7, pc}
  4007d0:	004006f9 	.word	0x004006f9
  4007d4:	00400711 	.word	0x00400711
  4007d8:	204009dc 	.word	0x204009dc

004007dc <PIOA_Handler>:
/**
 * \brief Parallel IO Controller A interrupt handler.
 * Redefined PIOA interrupt handler for NVIC interrupt table.
 */
void PIOA_Handler(void)
{
  4007dc:	b580      	push	{r7, lr}
  4007de:	af00      	add	r7, sp, #0
	pio_handler_process(PIOA, ID_PIOA);
  4007e0:	210a      	movs	r1, #10
  4007e2:	4802      	ldr	r0, [pc, #8]	; (4007ec <PIOA_Handler+0x10>)
  4007e4:	4b02      	ldr	r3, [pc, #8]	; (4007f0 <PIOA_Handler+0x14>)
  4007e6:	4798      	blx	r3
}
  4007e8:	bf00      	nop
  4007ea:	bd80      	pop	{r7, pc}
  4007ec:	400e0e00 	.word	0x400e0e00
  4007f0:	00400729 	.word	0x00400729

004007f4 <PIOB_Handler>:
/**
 * \brief Parallel IO Controller B interrupt handler
 * Redefined PIOB interrupt handler for NVIC interrupt table.
 */
void PIOB_Handler(void)
{
  4007f4:	b580      	push	{r7, lr}
  4007f6:	af00      	add	r7, sp, #0
    pio_handler_process(PIOB, ID_PIOB);
  4007f8:	210b      	movs	r1, #11
  4007fa:	4802      	ldr	r0, [pc, #8]	; (400804 <PIOB_Handler+0x10>)
  4007fc:	4b02      	ldr	r3, [pc, #8]	; (400808 <PIOB_Handler+0x14>)
  4007fe:	4798      	blx	r3
}
  400800:	bf00      	nop
  400802:	bd80      	pop	{r7, pc}
  400804:	400e1000 	.word	0x400e1000
  400808:	00400729 	.word	0x00400729

0040080c <PIOC_Handler>:
/**
 * \brief Parallel IO Controller C interrupt handler.
 * Redefined PIOC interrupt handler for NVIC interrupt table.
 */
void PIOC_Handler(void)
{
  40080c:	b580      	push	{r7, lr}
  40080e:	af00      	add	r7, sp, #0
	pio_handler_process(PIOC, ID_PIOC);
  400810:	210c      	movs	r1, #12
  400812:	4802      	ldr	r0, [pc, #8]	; (40081c <PIOC_Handler+0x10>)
  400814:	4b02      	ldr	r3, [pc, #8]	; (400820 <PIOC_Handler+0x14>)
  400816:	4798      	blx	r3
}
  400818:	bf00      	nop
  40081a:	bd80      	pop	{r7, pc}
  40081c:	400e1200 	.word	0x400e1200
  400820:	00400729 	.word	0x00400729

00400824 <PIOD_Handler>:
/**
 * \brief Parallel IO Controller D interrupt handler.
 * Redefined PIOD interrupt handler for NVIC interrupt table.
 */
void PIOD_Handler(void)
{
  400824:	b580      	push	{r7, lr}
  400826:	af00      	add	r7, sp, #0
	pio_handler_process(PIOD, ID_PIOD);
  400828:	2110      	movs	r1, #16
  40082a:	4802      	ldr	r0, [pc, #8]	; (400834 <PIOD_Handler+0x10>)
  40082c:	4b02      	ldr	r3, [pc, #8]	; (400838 <PIOD_Handler+0x14>)
  40082e:	4798      	blx	r3
}
  400830:	bf00      	nop
  400832:	bd80      	pop	{r7, pc}
  400834:	400e1400 	.word	0x400e1400
  400838:	00400729 	.word	0x00400729

0040083c <PIOE_Handler>:
/**
 * \brief Parallel IO Controller E interrupt handler.
 * Redefined PIOE interrupt handler for NVIC interrupt table.
 */
void PIOE_Handler(void)
{
  40083c:	b580      	push	{r7, lr}
  40083e:	af00      	add	r7, sp, #0
	pio_handler_process(PIOE, ID_PIOE);
  400840:	2111      	movs	r1, #17
  400842:	4802      	ldr	r0, [pc, #8]	; (40084c <PIOE_Handler+0x10>)
  400844:	4b02      	ldr	r3, [pc, #8]	; (400850 <PIOE_Handler+0x14>)
  400846:	4798      	blx	r3
}
  400848:	bf00      	nop
  40084a:	bd80      	pop	{r7, pc}
  40084c:	400e1600 	.word	0x400e1600
  400850:	00400729 	.word	0x00400729

00400854 <pmc_mck_set_division>:
 * \brief Set the division of the MCK.
 *
 * \param ul_div Division value.
 */
void pmc_mck_set_division(uint32_t ul_div)
{
  400854:	b480      	push	{r7}
  400856:	b083      	sub	sp, #12
  400858:	af00      	add	r7, sp, #0
  40085a:	6078      	str	r0, [r7, #4]
	switch (ul_div) {
  40085c:	687b      	ldr	r3, [r7, #4]
  40085e:	3b01      	subs	r3, #1
  400860:	2b03      	cmp	r3, #3
  400862:	d81a      	bhi.n	40089a <pmc_mck_set_division+0x46>
  400864:	a201      	add	r2, pc, #4	; (adr r2, 40086c <pmc_mck_set_division+0x18>)
  400866:	f852 f023 	ldr.w	pc, [r2, r3, lsl #2]
  40086a:	bf00      	nop
  40086c:	0040087d 	.word	0x0040087d
  400870:	00400883 	.word	0x00400883
  400874:	0040088b 	.word	0x0040088b
  400878:	00400893 	.word	0x00400893
		case 1:
			ul_div = PMC_MCKR_MDIV_EQ_PCK;
  40087c:	2300      	movs	r3, #0
  40087e:	607b      	str	r3, [r7, #4]
			break;
  400880:	e00e      	b.n	4008a0 <pmc_mck_set_division+0x4c>
		case 2:
			ul_div = PMC_MCKR_MDIV_PCK_DIV2;
  400882:	f44f 7380 	mov.w	r3, #256	; 0x100
  400886:	607b      	str	r3, [r7, #4]
			break;
  400888:	e00a      	b.n	4008a0 <pmc_mck_set_division+0x4c>
		case 3:
			ul_div = PMC_MCKR_MDIV_PCK_DIV3;
  40088a:	f44f 7340 	mov.w	r3, #768	; 0x300
  40088e:	607b      	str	r3, [r7, #4]
			break;
  400890:	e006      	b.n	4008a0 <pmc_mck_set_division+0x4c>
		case 4:
			ul_div = PMC_MCKR_MDIV_PCK_DIV4;
  400892:	f44f 7300 	mov.w	r3, #512	; 0x200
  400896:	607b      	str	r3, [r7, #4]
			break;
  400898:	e002      	b.n	4008a0 <pmc_mck_set_division+0x4c>
		default:
			ul_div = PMC_MCKR_MDIV_EQ_PCK;
  40089a:	2300      	movs	r3, #0
  40089c:	607b      	str	r3, [r7, #4]
			break;
  40089e:	bf00      	nop
	}
	PMC->PMC_MCKR =
  4008a0:	490a      	ldr	r1, [pc, #40]	; (4008cc <pmc_mck_set_division+0x78>)
			(PMC->PMC_MCKR & (~PMC_MCKR_MDIV_Msk)) | ul_div;
  4008a2:	4b0a      	ldr	r3, [pc, #40]	; (4008cc <pmc_mck_set_division+0x78>)
  4008a4:	6b1b      	ldr	r3, [r3, #48]	; 0x30
  4008a6:	f423 7240 	bic.w	r2, r3, #768	; 0x300
  4008aa:	687b      	ldr	r3, [r7, #4]
  4008ac:	4313      	orrs	r3, r2
	PMC->PMC_MCKR =
  4008ae:	630b      	str	r3, [r1, #48]	; 0x30
	while (!(PMC->PMC_SR & PMC_SR_MCKRDY));
  4008b0:	bf00      	nop
  4008b2:	4b06      	ldr	r3, [pc, #24]	; (4008cc <pmc_mck_set_division+0x78>)
  4008b4:	6e9b      	ldr	r3, [r3, #104]	; 0x68
  4008b6:	f003 0308 	and.w	r3, r3, #8
  4008ba:	2b00      	cmp	r3, #0
  4008bc:	d0f9      	beq.n	4008b2 <pmc_mck_set_division+0x5e>
}
  4008be:	bf00      	nop
  4008c0:	370c      	adds	r7, #12
  4008c2:	46bd      	mov	sp, r7
  4008c4:	f85d 7b04 	ldr.w	r7, [sp], #4
  4008c8:	4770      	bx	lr
  4008ca:	bf00      	nop
  4008cc:	400e0600 	.word	0x400e0600

004008d0 <pmc_switch_mck_to_pllack>:
 *
 * \retval 0 Success.
 * \retval 1 Timeout error.
 */
uint32_t pmc_switch_mck_to_pllack(uint32_t ul_pres)
{
  4008d0:	b480      	push	{r7}
  4008d2:	b085      	sub	sp, #20
  4008d4:	af00      	add	r7, sp, #0
  4008d6:	6078      	str	r0, [r7, #4]
	uint32_t ul_timeout;

	PMC->PMC_MCKR = (PMC->PMC_MCKR & (~PMC_MCKR_PRES_Msk)) | ul_pres;
  4008d8:	491d      	ldr	r1, [pc, #116]	; (400950 <pmc_switch_mck_to_pllack+0x80>)
  4008da:	4b1d      	ldr	r3, [pc, #116]	; (400950 <pmc_switch_mck_to_pllack+0x80>)
  4008dc:	6b1b      	ldr	r3, [r3, #48]	; 0x30
  4008de:	f023 0270 	bic.w	r2, r3, #112	; 0x70
  4008e2:	687b      	ldr	r3, [r7, #4]
  4008e4:	4313      	orrs	r3, r2
  4008e6:	630b      	str	r3, [r1, #48]	; 0x30
	for (ul_timeout = PMC_TIMEOUT; !(PMC->PMC_SR & PMC_SR_MCKRDY);
  4008e8:	f44f 5380 	mov.w	r3, #4096	; 0x1000
  4008ec:	60fb      	str	r3, [r7, #12]
  4008ee:	e007      	b.n	400900 <pmc_switch_mck_to_pllack+0x30>
			--ul_timeout) {
		if (ul_timeout == 0) {
  4008f0:	68fb      	ldr	r3, [r7, #12]
  4008f2:	2b00      	cmp	r3, #0
  4008f4:	d101      	bne.n	4008fa <pmc_switch_mck_to_pllack+0x2a>
			return 1;
  4008f6:	2301      	movs	r3, #1
  4008f8:	e023      	b.n	400942 <pmc_switch_mck_to_pllack+0x72>
			--ul_timeout) {
  4008fa:	68fb      	ldr	r3, [r7, #12]
  4008fc:	3b01      	subs	r3, #1
  4008fe:	60fb      	str	r3, [r7, #12]
	for (ul_timeout = PMC_TIMEOUT; !(PMC->PMC_SR & PMC_SR_MCKRDY);
  400900:	4b13      	ldr	r3, [pc, #76]	; (400950 <pmc_switch_mck_to_pllack+0x80>)
  400902:	6e9b      	ldr	r3, [r3, #104]	; 0x68
  400904:	f003 0308 	and.w	r3, r3, #8
  400908:	2b00      	cmp	r3, #0
  40090a:	d0f1      	beq.n	4008f0 <pmc_switch_mck_to_pllack+0x20>
		}
	}

	PMC->PMC_MCKR = (PMC->PMC_MCKR & (~PMC_MCKR_CSS_Msk)) |
  40090c:	4a10      	ldr	r2, [pc, #64]	; (400950 <pmc_switch_mck_to_pllack+0x80>)
  40090e:	4b10      	ldr	r3, [pc, #64]	; (400950 <pmc_switch_mck_to_pllack+0x80>)
  400910:	6b1b      	ldr	r3, [r3, #48]	; 0x30
  400912:	f023 0303 	bic.w	r3, r3, #3
  400916:	f043 0302 	orr.w	r3, r3, #2
  40091a:	6313      	str	r3, [r2, #48]	; 0x30
			PMC_MCKR_CSS_PLLA_CLK;

	for (ul_timeout = PMC_TIMEOUT; !(PMC->PMC_SR & PMC_SR_MCKRDY);
  40091c:	f44f 5380 	mov.w	r3, #4096	; 0x1000
  400920:	60fb      	str	r3, [r7, #12]
  400922:	e007      	b.n	400934 <pmc_switch_mck_to_pllack+0x64>
			--ul_timeout) {
		if (ul_timeout == 0) {
  400924:	68fb      	ldr	r3, [r7, #12]
  400926:	2b00      	cmp	r3, #0
  400928:	d101      	bne.n	40092e <pmc_switch_mck_to_pllack+0x5e>
			return 1;
  40092a:	2301      	movs	r3, #1
  40092c:	e009      	b.n	400942 <pmc_switch_mck_to_pllack+0x72>
			--ul_timeout) {
  40092e:	68fb      	ldr	r3, [r7, #12]
  400930:	3b01      	subs	r3, #1
  400932:	60fb      	str	r3, [r7, #12]
	for (ul_timeout = PMC_TIMEOUT; !(PMC->PMC_SR & PMC_SR_MCKRDY);
  400934:	4b06      	ldr	r3, [pc, #24]	; (400950 <pmc_switch_mck_to_pllack+0x80>)
  400936:	6e9b      	ldr	r3, [r3, #104]	; 0x68
  400938:	f003 0308 	and.w	r3, r3, #8
  40093c:	2b00      	cmp	r3, #0
  40093e:	d0f1      	beq.n	400924 <pmc_switch_mck_to_pllack+0x54>
		}
	}

	return 0;
  400940:	2300      	movs	r3, #0
}
  400942:	4618      	mov	r0, r3
  400944:	3714      	adds	r7, #20
  400946:	46bd      	mov	sp, r7
  400948:	f85d 7b04 	ldr.w	r7, [sp], #4
  40094c:	4770      	bx	lr
  40094e:	bf00      	nop
  400950:	400e0600 	.word	0x400e0600

00400954 <pmc_switch_sclk_to_32kxtal>:
 *       VDDIO power supply.
 *
 * \param ul_bypass 0 for Xtal, 1 for bypass.
 */
void pmc_switch_sclk_to_32kxtal(uint32_t ul_bypass)
{
  400954:	b480      	push	{r7}
  400956:	b083      	sub	sp, #12
  400958:	af00      	add	r7, sp, #0
  40095a:	6078      	str	r0, [r7, #4]
	/* Set Bypass mode if required */
	if (ul_bypass == 1) {
  40095c:	687b      	ldr	r3, [r7, #4]
  40095e:	2b01      	cmp	r3, #1
  400960:	d105      	bne.n	40096e <pmc_switch_sclk_to_32kxtal+0x1a>
		SUPC->SUPC_MR |= SUPC_MR_KEY_PASSWD |
  400962:	4907      	ldr	r1, [pc, #28]	; (400980 <pmc_switch_sclk_to_32kxtal+0x2c>)
  400964:	4b06      	ldr	r3, [pc, #24]	; (400980 <pmc_switch_sclk_to_32kxtal+0x2c>)
  400966:	689a      	ldr	r2, [r3, #8]
  400968:	4b06      	ldr	r3, [pc, #24]	; (400984 <pmc_switch_sclk_to_32kxtal+0x30>)
  40096a:	4313      	orrs	r3, r2
  40096c:	608b      	str	r3, [r1, #8]
			SUPC_MR_OSCBYPASS;
	}

	SUPC->SUPC_CR = SUPC_CR_KEY_PASSWD | SUPC_CR_XTALSEL;
  40096e:	4b04      	ldr	r3, [pc, #16]	; (400980 <pmc_switch_sclk_to_32kxtal+0x2c>)
  400970:	4a05      	ldr	r2, [pc, #20]	; (400988 <pmc_switch_sclk_to_32kxtal+0x34>)
  400972:	601a      	str	r2, [r3, #0]
}
  400974:	bf00      	nop
  400976:	370c      	adds	r7, #12
  400978:	46bd      	mov	sp, r7
  40097a:	f85d 7b04 	ldr.w	r7, [sp], #4
  40097e:	4770      	bx	lr
  400980:	400e1810 	.word	0x400e1810
  400984:	a5100000 	.word	0xa5100000
  400988:	a5000008 	.word	0xa5000008

0040098c <pmc_osc_is_ready_32kxtal>:
 *
 * \retval 1 External 32k Xtal is ready.
 * \retval 0 External 32k Xtal is not ready.
 */
uint32_t pmc_osc_is_ready_32kxtal(void)
{
  40098c:	b480      	push	{r7}
  40098e:	af00      	add	r7, sp, #0
	return ((SUPC->SUPC_SR & SUPC_SR_OSCSEL)
  400990:	4b09      	ldr	r3, [pc, #36]	; (4009b8 <pmc_osc_is_ready_32kxtal+0x2c>)
  400992:	695b      	ldr	r3, [r3, #20]
  400994:	f003 0380 	and.w	r3, r3, #128	; 0x80
			&& (PMC->PMC_SR & PMC_SR_OSCSELS));
  400998:	2b00      	cmp	r3, #0
  40099a:	d007      	beq.n	4009ac <pmc_osc_is_ready_32kxtal+0x20>
  40099c:	4b07      	ldr	r3, [pc, #28]	; (4009bc <pmc_osc_is_ready_32kxtal+0x30>)
  40099e:	6e9b      	ldr	r3, [r3, #104]	; 0x68
  4009a0:	f003 0380 	and.w	r3, r3, #128	; 0x80
  4009a4:	2b00      	cmp	r3, #0
  4009a6:	d001      	beq.n	4009ac <pmc_osc_is_ready_32kxtal+0x20>
  4009a8:	2301      	movs	r3, #1
  4009aa:	e000      	b.n	4009ae <pmc_osc_is_ready_32kxtal+0x22>
  4009ac:	2300      	movs	r3, #0
}
  4009ae:	4618      	mov	r0, r3
  4009b0:	46bd      	mov	sp, r7
  4009b2:	f85d 7b04 	ldr.w	r7, [sp], #4
  4009b6:	4770      	bx	lr
  4009b8:	400e1810 	.word	0x400e1810
  4009bc:	400e0600 	.word	0x400e0600

004009c0 <pmc_switch_mainck_to_fastrc>:
 * \retval 0 Success.
 * \retval 1 Timeout error.
 * \retval 2 Invalid frequency.
 */
void pmc_switch_mainck_to_fastrc(uint32_t ul_moscrcf)
{
  4009c0:	b480      	push	{r7}
  4009c2:	b083      	sub	sp, #12
  4009c4:	af00      	add	r7, sp, #0
  4009c6:	6078      	str	r0, [r7, #4]
	/* Enable Fast RC oscillator but DO NOT switch to RC now */
	PMC->CKGR_MOR |= (CKGR_MOR_KEY_PASSWD | CKGR_MOR_MOSCRCEN);
  4009c8:	4915      	ldr	r1, [pc, #84]	; (400a20 <pmc_switch_mainck_to_fastrc+0x60>)
  4009ca:	4b15      	ldr	r3, [pc, #84]	; (400a20 <pmc_switch_mainck_to_fastrc+0x60>)
  4009cc:	6a1a      	ldr	r2, [r3, #32]
  4009ce:	4b15      	ldr	r3, [pc, #84]	; (400a24 <pmc_switch_mainck_to_fastrc+0x64>)
  4009d0:	4313      	orrs	r3, r2
  4009d2:	620b      	str	r3, [r1, #32]

	/* Wait the Fast RC to stabilize */
	while (!(PMC->PMC_SR & PMC_SR_MOSCRCS));
  4009d4:	bf00      	nop
  4009d6:	4b12      	ldr	r3, [pc, #72]	; (400a20 <pmc_switch_mainck_to_fastrc+0x60>)
  4009d8:	6e9b      	ldr	r3, [r3, #104]	; 0x68
  4009da:	f403 3300 	and.w	r3, r3, #131072	; 0x20000
  4009de:	2b00      	cmp	r3, #0
  4009e0:	d0f9      	beq.n	4009d6 <pmc_switch_mainck_to_fastrc+0x16>

	/* Change Fast RC oscillator frequency */
	PMC->CKGR_MOR = (PMC->CKGR_MOR & ~CKGR_MOR_MOSCRCF_Msk) |
  4009e2:	490f      	ldr	r1, [pc, #60]	; (400a20 <pmc_switch_mainck_to_fastrc+0x60>)
  4009e4:	4b0e      	ldr	r3, [pc, #56]	; (400a20 <pmc_switch_mainck_to_fastrc+0x60>)
  4009e6:	6a1a      	ldr	r2, [r3, #32]
  4009e8:	4b0f      	ldr	r3, [pc, #60]	; (400a28 <pmc_switch_mainck_to_fastrc+0x68>)
  4009ea:	4013      	ands	r3, r2
			CKGR_MOR_KEY_PASSWD | ul_moscrcf;
  4009ec:	687a      	ldr	r2, [r7, #4]
  4009ee:	4313      	orrs	r3, r2
  4009f0:	f443 135c 	orr.w	r3, r3, #3604480	; 0x370000
	PMC->CKGR_MOR = (PMC->CKGR_MOR & ~CKGR_MOR_MOSCRCF_Msk) |
  4009f4:	620b      	str	r3, [r1, #32]

	/* Wait the Fast RC to stabilize */
	while (!(PMC->PMC_SR & PMC_SR_MOSCRCS));
  4009f6:	bf00      	nop
  4009f8:	4b09      	ldr	r3, [pc, #36]	; (400a20 <pmc_switch_mainck_to_fastrc+0x60>)
  4009fa:	6e9b      	ldr	r3, [r3, #104]	; 0x68
  4009fc:	f403 3300 	and.w	r3, r3, #131072	; 0x20000
  400a00:	2b00      	cmp	r3, #0
  400a02:	d0f9      	beq.n	4009f8 <pmc_switch_mainck_to_fastrc+0x38>

	/* Switch to Fast RC */
	PMC->CKGR_MOR = (PMC->CKGR_MOR & ~CKGR_MOR_MOSCSEL) |
  400a04:	4906      	ldr	r1, [pc, #24]	; (400a20 <pmc_switch_mainck_to_fastrc+0x60>)
  400a06:	4b06      	ldr	r3, [pc, #24]	; (400a20 <pmc_switch_mainck_to_fastrc+0x60>)
  400a08:	6a1a      	ldr	r2, [r3, #32]
  400a0a:	4b08      	ldr	r3, [pc, #32]	; (400a2c <pmc_switch_mainck_to_fastrc+0x6c>)
  400a0c:	4013      	ands	r3, r2
  400a0e:	f443 135c 	orr.w	r3, r3, #3604480	; 0x370000
  400a12:	620b      	str	r3, [r1, #32]
			CKGR_MOR_KEY_PASSWD;
}
  400a14:	bf00      	nop
  400a16:	370c      	adds	r7, #12
  400a18:	46bd      	mov	sp, r7
  400a1a:	f85d 7b04 	ldr.w	r7, [sp], #4
  400a1e:	4770      	bx	lr
  400a20:	400e0600 	.word	0x400e0600
  400a24:	00370008 	.word	0x00370008
  400a28:	ffc8ff8f 	.word	0xffc8ff8f
  400a2c:	fec8ffff 	.word	0xfec8ffff

00400a30 <pmc_switch_mainck_to_xtal>:
 * \retval 0 Success.
 * \retval 1 Timeout error.
 */
void pmc_switch_mainck_to_xtal(uint32_t ul_bypass,
		uint32_t ul_xtal_startup_time)
{
  400a30:	b480      	push	{r7}
  400a32:	b083      	sub	sp, #12
  400a34:	af00      	add	r7, sp, #0
  400a36:	6078      	str	r0, [r7, #4]
  400a38:	6039      	str	r1, [r7, #0]
	/* Enable Main Xtal oscillator */
	if (ul_bypass) {
  400a3a:	687b      	ldr	r3, [r7, #4]
  400a3c:	2b00      	cmp	r3, #0
  400a3e:	d008      	beq.n	400a52 <pmc_switch_mainck_to_xtal+0x22>
		PMC->CKGR_MOR = (PMC->CKGR_MOR & ~CKGR_MOR_MOSCXTEN) |
  400a40:	4913      	ldr	r1, [pc, #76]	; (400a90 <pmc_switch_mainck_to_xtal+0x60>)
  400a42:	4b13      	ldr	r3, [pc, #76]	; (400a90 <pmc_switch_mainck_to_xtal+0x60>)
  400a44:	6a1b      	ldr	r3, [r3, #32]
				CKGR_MOR_KEY_PASSWD | CKGR_MOR_MOSCXTBY |
  400a46:	4a13      	ldr	r2, [pc, #76]	; (400a94 <pmc_switch_mainck_to_xtal+0x64>)
  400a48:	401a      	ands	r2, r3
  400a4a:	4b13      	ldr	r3, [pc, #76]	; (400a98 <pmc_switch_mainck_to_xtal+0x68>)
  400a4c:	4313      	orrs	r3, r2
		PMC->CKGR_MOR = (PMC->CKGR_MOR & ~CKGR_MOR_MOSCXTEN) |
  400a4e:	620b      	str	r3, [r1, #32]
		/* Wait the Xtal to stabilize */
		while (!(PMC->PMC_SR & PMC_SR_MOSCXTS));

		PMC->CKGR_MOR |= CKGR_MOR_KEY_PASSWD | CKGR_MOR_MOSCSEL;
	}
}
  400a50:	e018      	b.n	400a84 <pmc_switch_mainck_to_xtal+0x54>
		PMC->CKGR_MOR = (PMC->CKGR_MOR & ~CKGR_MOR_MOSCXTBY) |
  400a52:	490f      	ldr	r1, [pc, #60]	; (400a90 <pmc_switch_mainck_to_xtal+0x60>)
  400a54:	4b0e      	ldr	r3, [pc, #56]	; (400a90 <pmc_switch_mainck_to_xtal+0x60>)
  400a56:	6a1a      	ldr	r2, [r3, #32]
				CKGR_MOR_KEY_PASSWD | CKGR_MOR_MOSCXTEN |
  400a58:	4b10      	ldr	r3, [pc, #64]	; (400a9c <pmc_switch_mainck_to_xtal+0x6c>)
  400a5a:	4013      	ands	r3, r2
				CKGR_MOR_MOSCXTST(ul_xtal_startup_time);
  400a5c:	683a      	ldr	r2, [r7, #0]
  400a5e:	0212      	lsls	r2, r2, #8
  400a60:	b292      	uxth	r2, r2
				CKGR_MOR_KEY_PASSWD | CKGR_MOR_MOSCXTEN |
  400a62:	431a      	orrs	r2, r3
  400a64:	4b0e      	ldr	r3, [pc, #56]	; (400aa0 <pmc_switch_mainck_to_xtal+0x70>)
  400a66:	4313      	orrs	r3, r2
		PMC->CKGR_MOR = (PMC->CKGR_MOR & ~CKGR_MOR_MOSCXTBY) |
  400a68:	620b      	str	r3, [r1, #32]
		while (!(PMC->PMC_SR & PMC_SR_MOSCXTS));
  400a6a:	bf00      	nop
  400a6c:	4b08      	ldr	r3, [pc, #32]	; (400a90 <pmc_switch_mainck_to_xtal+0x60>)
  400a6e:	6e9b      	ldr	r3, [r3, #104]	; 0x68
  400a70:	f003 0301 	and.w	r3, r3, #1
  400a74:	2b00      	cmp	r3, #0
  400a76:	d0f9      	beq.n	400a6c <pmc_switch_mainck_to_xtal+0x3c>
		PMC->CKGR_MOR |= CKGR_MOR_KEY_PASSWD | CKGR_MOR_MOSCSEL;
  400a78:	4905      	ldr	r1, [pc, #20]	; (400a90 <pmc_switch_mainck_to_xtal+0x60>)
  400a7a:	4b05      	ldr	r3, [pc, #20]	; (400a90 <pmc_switch_mainck_to_xtal+0x60>)
  400a7c:	6a1a      	ldr	r2, [r3, #32]
  400a7e:	4b09      	ldr	r3, [pc, #36]	; (400aa4 <pmc_switch_mainck_to_xtal+0x74>)
  400a80:	4313      	orrs	r3, r2
  400a82:	620b      	str	r3, [r1, #32]
}
  400a84:	bf00      	nop
  400a86:	370c      	adds	r7, #12
  400a88:	46bd      	mov	sp, r7
  400a8a:	f85d 7b04 	ldr.w	r7, [sp], #4
  400a8e:	4770      	bx	lr
  400a90:	400e0600 	.word	0x400e0600
  400a94:	fec8fffc 	.word	0xfec8fffc
  400a98:	01370002 	.word	0x01370002
  400a9c:	ffc8fffc 	.word	0xffc8fffc
  400aa0:	00370001 	.word	0x00370001
  400aa4:	01370000 	.word	0x01370000

00400aa8 <pmc_osc_is_ready_mainck>:
 *
 * \retval 1 Xtal is ready.
 * \retval 0 Xtal is not ready.
 */
uint32_t pmc_osc_is_ready_mainck(void)
{
  400aa8:	b480      	push	{r7}
  400aaa:	af00      	add	r7, sp, #0
	return PMC->PMC_SR & PMC_SR_MOSCSELS;
  400aac:	4b04      	ldr	r3, [pc, #16]	; (400ac0 <pmc_osc_is_ready_mainck+0x18>)
  400aae:	6e9b      	ldr	r3, [r3, #104]	; 0x68
  400ab0:	f403 3380 	and.w	r3, r3, #65536	; 0x10000
}
  400ab4:	4618      	mov	r0, r3
  400ab6:	46bd      	mov	sp, r7
  400ab8:	f85d 7b04 	ldr.w	r7, [sp], #4
  400abc:	4770      	bx	lr
  400abe:	bf00      	nop
  400ac0:	400e0600 	.word	0x400e0600

00400ac4 <pmc_disable_pllack>:

/**
 * \brief Disable PLLA clock.
 */
void pmc_disable_pllack(void)
{
  400ac4:	b480      	push	{r7}
  400ac6:	af00      	add	r7, sp, #0
#if (SAM4C || SAM4CM || SAM4CP || SAMG)
	PMC->CKGR_PLLAR = CKGR_PLLAR_MULA(0);
#else
	PMC->CKGR_PLLAR = CKGR_PLLAR_ONE | CKGR_PLLAR_MULA(0);
  400ac8:	4b04      	ldr	r3, [pc, #16]	; (400adc <pmc_disable_pllack+0x18>)
  400aca:	f04f 5200 	mov.w	r2, #536870912	; 0x20000000
  400ace:	629a      	str	r2, [r3, #40]	; 0x28
#endif
}
  400ad0:	bf00      	nop
  400ad2:	46bd      	mov	sp, r7
  400ad4:	f85d 7b04 	ldr.w	r7, [sp], #4
  400ad8:	4770      	bx	lr
  400ada:	bf00      	nop
  400adc:	400e0600 	.word	0x400e0600

00400ae0 <pmc_is_locked_pllack>:
 *
 * \retval 0 Not locked.
 * \retval 1 Locked.
 */
uint32_t pmc_is_locked_pllack(void)
{
  400ae0:	b480      	push	{r7}
  400ae2:	af00      	add	r7, sp, #0
	return (PMC->PMC_SR & PMC_SR_LOCKA);
  400ae4:	4b04      	ldr	r3, [pc, #16]	; (400af8 <pmc_is_locked_pllack+0x18>)
  400ae6:	6e9b      	ldr	r3, [r3, #104]	; 0x68
  400ae8:	f003 0302 	and.w	r3, r3, #2
}
  400aec:	4618      	mov	r0, r3
  400aee:	46bd      	mov	sp, r7
  400af0:	f85d 7b04 	ldr.w	r7, [sp], #4
  400af4:	4770      	bx	lr
  400af6:	bf00      	nop
  400af8:	400e0600 	.word	0x400e0600

00400afc <pmc_is_locked_upll>:
 *
 * \retval 0 Not locked.
 * \retval 1 Locked.
 */
uint32_t pmc_is_locked_upll(void)
{
  400afc:	b480      	push	{r7}
  400afe:	af00      	add	r7, sp, #0
	return (PMC->PMC_SR & PMC_SR_LOCKU);
  400b00:	4b04      	ldr	r3, [pc, #16]	; (400b14 <pmc_is_locked_upll+0x18>)
  400b02:	6e9b      	ldr	r3, [r3, #104]	; 0x68
  400b04:	f003 0340 	and.w	r3, r3, #64	; 0x40
}
  400b08:	4618      	mov	r0, r3
  400b0a:	46bd      	mov	sp, r7
  400b0c:	f85d 7b04 	ldr.w	r7, [sp], #4
  400b10:	4770      	bx	lr
  400b12:	bf00      	nop
  400b14:	400e0600 	.word	0x400e0600

00400b18 <pmc_enable_periph_clk>:
 *
 * \retval 0 Success.
 * \retval 1 Invalid parameter.
 */
uint32_t pmc_enable_periph_clk(uint32_t ul_id)
{
  400b18:	b480      	push	{r7}
  400b1a:	b083      	sub	sp, #12
  400b1c:	af00      	add	r7, sp, #0
  400b1e:	6078      	str	r0, [r7, #4]
	if (ul_id > MAX_PERIPH_ID) {
  400b20:	687b      	ldr	r3, [r7, #4]
  400b22:	2b3f      	cmp	r3, #63	; 0x3f
  400b24:	d901      	bls.n	400b2a <pmc_enable_periph_clk+0x12>
		return 1;
  400b26:	2301      	movs	r3, #1
  400b28:	e02f      	b.n	400b8a <pmc_enable_periph_clk+0x72>
	}

	if (ul_id < 32) {
  400b2a:	687b      	ldr	r3, [r7, #4]
  400b2c:	2b1f      	cmp	r3, #31
  400b2e:	d813      	bhi.n	400b58 <pmc_enable_periph_clk+0x40>
		if ((PMC->PMC_PCSR0 & (1u << ul_id)) != (1u << ul_id)) {
  400b30:	4b19      	ldr	r3, [pc, #100]	; (400b98 <pmc_enable_periph_clk+0x80>)
  400b32:	699a      	ldr	r2, [r3, #24]
  400b34:	2101      	movs	r1, #1
  400b36:	687b      	ldr	r3, [r7, #4]
  400b38:	fa01 f303 	lsl.w	r3, r1, r3
  400b3c:	401a      	ands	r2, r3
  400b3e:	2101      	movs	r1, #1
  400b40:	687b      	ldr	r3, [r7, #4]
  400b42:	fa01 f303 	lsl.w	r3, r1, r3
  400b46:	429a      	cmp	r2, r3
  400b48:	d01e      	beq.n	400b88 <pmc_enable_periph_clk+0x70>
			PMC->PMC_PCER0 = 1 << ul_id;
  400b4a:	4a13      	ldr	r2, [pc, #76]	; (400b98 <pmc_enable_periph_clk+0x80>)
  400b4c:	2101      	movs	r1, #1
  400b4e:	687b      	ldr	r3, [r7, #4]
  400b50:	fa01 f303 	lsl.w	r3, r1, r3
  400b54:	6113      	str	r3, [r2, #16]
  400b56:	e017      	b.n	400b88 <pmc_enable_periph_clk+0x70>
		}
#if (SAM3S || SAM3XA || SAM4S || SAM4E || SAM4C || SAM4CM || SAM4CP || SAMG55 || SAMV71 || SAMV70 || SAME70 || SAMS70)
	} else {
		ul_id -= 32;
  400b58:	687b      	ldr	r3, [r7, #4]
  400b5a:	3b20      	subs	r3, #32
  400b5c:	607b      	str	r3, [r7, #4]
		if ((PMC->PMC_PCSR1 & (1u << ul_id)) != (1u << ul_id)) {
  400b5e:	4b0e      	ldr	r3, [pc, #56]	; (400b98 <pmc_enable_periph_clk+0x80>)
  400b60:	f8d3 2108 	ldr.w	r2, [r3, #264]	; 0x108
  400b64:	2101      	movs	r1, #1
  400b66:	687b      	ldr	r3, [r7, #4]
  400b68:	fa01 f303 	lsl.w	r3, r1, r3
  400b6c:	401a      	ands	r2, r3
  400b6e:	2101      	movs	r1, #1
  400b70:	687b      	ldr	r3, [r7, #4]
  400b72:	fa01 f303 	lsl.w	r3, r1, r3
  400b76:	429a      	cmp	r2, r3
  400b78:	d006      	beq.n	400b88 <pmc_enable_periph_clk+0x70>
			PMC->PMC_PCER1 = 1 << ul_id;
  400b7a:	4a07      	ldr	r2, [pc, #28]	; (400b98 <pmc_enable_periph_clk+0x80>)
  400b7c:	2101      	movs	r1, #1
  400b7e:	687b      	ldr	r3, [r7, #4]
  400b80:	fa01 f303 	lsl.w	r3, r1, r3
  400b84:	f8c2 3100 	str.w	r3, [r2, #256]	; 0x100
		}
#endif
	}

	return 0;
  400b88:	2300      	movs	r3, #0
}
  400b8a:	4618      	mov	r0, r3
  400b8c:	370c      	adds	r7, #12
  400b8e:	46bd      	mov	sp, r7
  400b90:	f85d 7b04 	ldr.w	r7, [sp], #4
  400b94:	4770      	bx	lr
  400b96:	bf00      	nop
  400b98:	400e0600 	.word	0x400e0600

00400b9c <uart_init>:
 *
 * \retval 0 Success.
 * \retval 1 Bad baud rate generator value.
 */
uint32_t uart_init(Uart *p_uart, const sam_uart_opt_t *p_uart_opt)
{
  400b9c:	b480      	push	{r7}
  400b9e:	b085      	sub	sp, #20
  400ba0:	af00      	add	r7, sp, #0
  400ba2:	6078      	str	r0, [r7, #4]
  400ba4:	6039      	str	r1, [r7, #0]
	uint32_t cd = 0;
  400ba6:	2300      	movs	r3, #0
  400ba8:	60fb      	str	r3, [r7, #12]

	/* Reset and disable receiver & transmitter */
	p_uart->UART_CR = UART_CR_RSTRX | UART_CR_RSTTX
  400baa:	687b      	ldr	r3, [r7, #4]
  400bac:	22ac      	movs	r2, #172	; 0xac
  400bae:	601a      	str	r2, [r3, #0]
			| UART_CR_RXDIS | UART_CR_TXDIS;

	/* Check and configure baudrate */
	/* Asynchronous, no oversampling */
	cd = (p_uart_opt->ul_mck / p_uart_opt->ul_baudrate) / UART_MCK_DIV;
  400bb0:	683b      	ldr	r3, [r7, #0]
  400bb2:	681a      	ldr	r2, [r3, #0]
  400bb4:	683b      	ldr	r3, [r7, #0]
  400bb6:	685b      	ldr	r3, [r3, #4]
  400bb8:	fbb2 f3f3 	udiv	r3, r2, r3
  400bbc:	091b      	lsrs	r3, r3, #4
  400bbe:	60fb      	str	r3, [r7, #12]
	if (cd < UART_MCK_DIV_MIN_FACTOR || cd > UART_MCK_DIV_MAX_FACTOR)
  400bc0:	68fb      	ldr	r3, [r7, #12]
  400bc2:	2b00      	cmp	r3, #0
  400bc4:	d003      	beq.n	400bce <uart_init+0x32>
  400bc6:	68fb      	ldr	r3, [r7, #12]
  400bc8:	f5b3 3f80 	cmp.w	r3, #65536	; 0x10000
  400bcc:	d301      	bcc.n	400bd2 <uart_init+0x36>
		return 1;
  400bce:	2301      	movs	r3, #1
  400bd0:	e00a      	b.n	400be8 <uart_init+0x4c>

	p_uart->UART_BRGR = cd;
  400bd2:	687b      	ldr	r3, [r7, #4]
  400bd4:	68fa      	ldr	r2, [r7, #12]
  400bd6:	621a      	str	r2, [r3, #32]
	/* Configure mode */
	p_uart->UART_MR = p_uart_opt->ul_mode;
  400bd8:	683b      	ldr	r3, [r7, #0]
  400bda:	689a      	ldr	r2, [r3, #8]
  400bdc:	687b      	ldr	r3, [r7, #4]
  400bde:	605a      	str	r2, [r3, #4]
	/* Disable PDC channel */
	p_uart->UART_PTCR = UART_PTCR_RXTDIS | UART_PTCR_TXTDIS;
#endif

	/* Enable receiver and transmitter */
	p_uart->UART_CR = UART_CR_RXEN | UART_CR_TXEN;
  400be0:	687b      	ldr	r3, [r7, #4]
  400be2:	2250      	movs	r2, #80	; 0x50
  400be4:	601a      	str	r2, [r3, #0]

	return 0;
  400be6:	2300      	movs	r3, #0
}
  400be8:	4618      	mov	r0, r3
  400bea:	3714      	adds	r7, #20
  400bec:	46bd      	mov	sp, r7
  400bee:	f85d 7b04 	ldr.w	r7, [sp], #4
  400bf2:	4770      	bx	lr

00400bf4 <uart_is_tx_empty>:
 *
 * \retval 1 Transmitter is empty.
 * \retval 0 Transmitter is not empty.
 */
uint32_t uart_is_tx_empty(Uart *p_uart)
{
  400bf4:	b480      	push	{r7}
  400bf6:	b083      	sub	sp, #12
  400bf8:	af00      	add	r7, sp, #0
  400bfa:	6078      	str	r0, [r7, #4]
	return (p_uart->UART_SR & UART_SR_TXEMPTY) > 0;
  400bfc:	687b      	ldr	r3, [r7, #4]
  400bfe:	695b      	ldr	r3, [r3, #20]
  400c00:	f403 7300 	and.w	r3, r3, #512	; 0x200
  400c04:	2b00      	cmp	r3, #0
  400c06:	bf14      	ite	ne
  400c08:	2301      	movne	r3, #1
  400c0a:	2300      	moveq	r3, #0
  400c0c:	b2db      	uxtb	r3, r3
}
  400c0e:	4618      	mov	r0, r3
  400c10:	370c      	adds	r7, #12
  400c12:	46bd      	mov	sp, r7
  400c14:	f85d 7b04 	ldr.w	r7, [sp], #4
  400c18:	4770      	bx	lr

00400c1a <uart_write>:
 *
 * \retval 0 Success.
 * \retval 1 I/O Failure, UART is not ready.
 */
uint32_t uart_write(Uart *p_uart, const uint8_t uc_data)
{
  400c1a:	b480      	push	{r7}
  400c1c:	b083      	sub	sp, #12
  400c1e:	af00      	add	r7, sp, #0
  400c20:	6078      	str	r0, [r7, #4]
  400c22:	460b      	mov	r3, r1
  400c24:	70fb      	strb	r3, [r7, #3]
	/* Check if the transmitter is ready */
	if (!(p_uart->UART_SR & UART_SR_TXRDY))
  400c26:	687b      	ldr	r3, [r7, #4]
  400c28:	695b      	ldr	r3, [r3, #20]
  400c2a:	f003 0302 	and.w	r3, r3, #2
  400c2e:	2b00      	cmp	r3, #0
  400c30:	d101      	bne.n	400c36 <uart_write+0x1c>
		return 1;
  400c32:	2301      	movs	r3, #1
  400c34:	e003      	b.n	400c3e <uart_write+0x24>

	/* Send character */
	p_uart->UART_THR = uc_data;
  400c36:	78fa      	ldrb	r2, [r7, #3]
  400c38:	687b      	ldr	r3, [r7, #4]
  400c3a:	61da      	str	r2, [r3, #28]
	return 0;
  400c3c:	2300      	movs	r3, #0
}
  400c3e:	4618      	mov	r0, r3
  400c40:	370c      	adds	r7, #12
  400c42:	46bd      	mov	sp, r7
  400c44:	f85d 7b04 	ldr.w	r7, [sp], #4
  400c48:	4770      	bx	lr

00400c4a <uart_read>:
 *
 * \retval 0 Success.
 * \retval 1 I/O Failure, UART is not ready.
 */
uint32_t uart_read(Uart *p_uart, uint8_t *puc_data)
{
  400c4a:	b480      	push	{r7}
  400c4c:	b083      	sub	sp, #12
  400c4e:	af00      	add	r7, sp, #0
  400c50:	6078      	str	r0, [r7, #4]
  400c52:	6039      	str	r1, [r7, #0]
	/* Check if the receiver is ready */
	if ((p_uart->UART_SR & UART_SR_RXRDY) == 0)
  400c54:	687b      	ldr	r3, [r7, #4]
  400c56:	695b      	ldr	r3, [r3, #20]
  400c58:	f003 0301 	and.w	r3, r3, #1
  400c5c:	2b00      	cmp	r3, #0
  400c5e:	d101      	bne.n	400c64 <uart_read+0x1a>
		return 1;
  400c60:	2301      	movs	r3, #1
  400c62:	e005      	b.n	400c70 <uart_read+0x26>

	/* Read character */
	*puc_data = (uint8_t) p_uart->UART_RHR;
  400c64:	687b      	ldr	r3, [r7, #4]
  400c66:	699b      	ldr	r3, [r3, #24]
  400c68:	b2da      	uxtb	r2, r3
  400c6a:	683b      	ldr	r3, [r7, #0]
  400c6c:	701a      	strb	r2, [r3, #0]
	return 0;
  400c6e:	2300      	movs	r3, #0
}
  400c70:	4618      	mov	r0, r3
  400c72:	370c      	adds	r7, #12
  400c74:	46bd      	mov	sp, r7
  400c76:	f85d 7b04 	ldr.w	r7, [sp], #4
  400c7a:	4770      	bx	lr

00400c7c <usart_set_async_baudrate>:
 * \retval 1 Baud rate set point is out of range for the given input clock
 * frequency.
 */
uint32_t usart_set_async_baudrate(Usart *p_usart,
		uint32_t baudrate, uint32_t ul_mck)
{
  400c7c:	b480      	push	{r7}
  400c7e:	b089      	sub	sp, #36	; 0x24
  400c80:	af00      	add	r7, sp, #0
  400c82:	60f8      	str	r0, [r7, #12]
  400c84:	60b9      	str	r1, [r7, #8]
  400c86:	607a      	str	r2, [r7, #4]
	uint32_t cd_fp;
	uint32_t cd;
	uint32_t fp;

	/* Calculate the receiver sampling divide of baudrate clock. */
	if (ul_mck >= HIGH_FRQ_SAMPLE_DIV * baudrate) {
  400c88:	68bb      	ldr	r3, [r7, #8]
  400c8a:	011a      	lsls	r2, r3, #4
  400c8c:	687b      	ldr	r3, [r7, #4]
  400c8e:	429a      	cmp	r2, r3
  400c90:	d802      	bhi.n	400c98 <usart_set_async_baudrate+0x1c>
		over = HIGH_FRQ_SAMPLE_DIV;
  400c92:	2310      	movs	r3, #16
  400c94:	61fb      	str	r3, [r7, #28]
  400c96:	e001      	b.n	400c9c <usart_set_async_baudrate+0x20>
	} else {
		over = LOW_FRQ_SAMPLE_DIV;
  400c98:	2308      	movs	r3, #8
  400c9a:	61fb      	str	r3, [r7, #28]
	}

	/* Calculate clock divider according to the fraction calculated formula. */
	cd_fp = (8 * ul_mck + (over * baudrate) / 2) / (over * baudrate);
  400c9c:	687b      	ldr	r3, [r7, #4]
  400c9e:	00da      	lsls	r2, r3, #3
  400ca0:	69fb      	ldr	r3, [r7, #28]
  400ca2:	68b9      	ldr	r1, [r7, #8]
  400ca4:	fb01 f303 	mul.w	r3, r1, r3
  400ca8:	085b      	lsrs	r3, r3, #1
  400caa:	441a      	add	r2, r3
  400cac:	69fb      	ldr	r3, [r7, #28]
  400cae:	68b9      	ldr	r1, [r7, #8]
  400cb0:	fb01 f303 	mul.w	r3, r1, r3
  400cb4:	fbb2 f3f3 	udiv	r3, r2, r3
  400cb8:	61bb      	str	r3, [r7, #24]
	cd = cd_fp >> 3;
  400cba:	69bb      	ldr	r3, [r7, #24]
  400cbc:	08db      	lsrs	r3, r3, #3
  400cbe:	617b      	str	r3, [r7, #20]
	fp = cd_fp & 0x07;
  400cc0:	69bb      	ldr	r3, [r7, #24]
  400cc2:	f003 0307 	and.w	r3, r3, #7
  400cc6:	613b      	str	r3, [r7, #16]
	if (cd < MIN_CD_VALUE || cd > MAX_CD_VALUE) {
  400cc8:	697b      	ldr	r3, [r7, #20]
  400cca:	2b00      	cmp	r3, #0
  400ccc:	d003      	beq.n	400cd6 <usart_set_async_baudrate+0x5a>
  400cce:	697b      	ldr	r3, [r7, #20]
  400cd0:	f5b3 3f80 	cmp.w	r3, #65536	; 0x10000
  400cd4:	d301      	bcc.n	400cda <usart_set_async_baudrate+0x5e>
		return 1;
  400cd6:	2301      	movs	r3, #1
  400cd8:	e00f      	b.n	400cfa <usart_set_async_baudrate+0x7e>
	}

	/* Configure the OVER bit in MR register. */
	if (over == 8) {
  400cda:	69fb      	ldr	r3, [r7, #28]
  400cdc:	2b08      	cmp	r3, #8
  400cde:	d105      	bne.n	400cec <usart_set_async_baudrate+0x70>
		p_usart->US_MR |= US_MR_OVER;
  400ce0:	68fb      	ldr	r3, [r7, #12]
  400ce2:	685b      	ldr	r3, [r3, #4]
  400ce4:	f443 2200 	orr.w	r2, r3, #524288	; 0x80000
  400ce8:	68fb      	ldr	r3, [r7, #12]
  400cea:	605a      	str	r2, [r3, #4]
	}

	/* Configure the baudrate generate register. */
	p_usart->US_BRGR = (cd << US_BRGR_CD_Pos) | (fp << US_BRGR_FP_Pos);
  400cec:	693b      	ldr	r3, [r7, #16]
  400cee:	041a      	lsls	r2, r3, #16
  400cf0:	697b      	ldr	r3, [r7, #20]
  400cf2:	431a      	orrs	r2, r3
  400cf4:	68fb      	ldr	r3, [r7, #12]
  400cf6:	621a      	str	r2, [r3, #32]

	return 0;
  400cf8:	2300      	movs	r3, #0
}
  400cfa:	4618      	mov	r0, r3
  400cfc:	3724      	adds	r7, #36	; 0x24
  400cfe:	46bd      	mov	sp, r7
  400d00:	f85d 7b04 	ldr.w	r7, [sp], #4
  400d04:	4770      	bx	lr
	...

00400d08 <usart_reset>:
 * \brief Reset the USART and disable TX and RX.
 *
 * \param p_usart Pointer to a USART instance.
 */
void usart_reset(Usart *p_usart)
{
  400d08:	b580      	push	{r7, lr}
  400d0a:	b082      	sub	sp, #8
  400d0c:	af00      	add	r7, sp, #0
  400d0e:	6078      	str	r0, [r7, #4]
	/* Disable the Write Protect. */
	usart_disable_writeprotect(p_usart);
  400d10:	6878      	ldr	r0, [r7, #4]
  400d12:	4b0d      	ldr	r3, [pc, #52]	; (400d48 <usart_reset+0x40>)
  400d14:	4798      	blx	r3

	/* Reset registers that could cause unpredictable behavior after reset. */
	p_usart->US_MR = 0;
  400d16:	687b      	ldr	r3, [r7, #4]
  400d18:	2200      	movs	r2, #0
  400d1a:	605a      	str	r2, [r3, #4]
	p_usart->US_RTOR = 0;
  400d1c:	687b      	ldr	r3, [r7, #4]
  400d1e:	2200      	movs	r2, #0
  400d20:	625a      	str	r2, [r3, #36]	; 0x24
	p_usart->US_TTGR = 0;
  400d22:	687b      	ldr	r3, [r7, #4]
  400d24:	2200      	movs	r2, #0
  400d26:	629a      	str	r2, [r3, #40]	; 0x28

	/* Disable TX and RX. */
	usart_reset_tx(p_usart);
  400d28:	6878      	ldr	r0, [r7, #4]
  400d2a:	4b08      	ldr	r3, [pc, #32]	; (400d4c <usart_reset+0x44>)
  400d2c:	4798      	blx	r3
	usart_reset_rx(p_usart);
  400d2e:	6878      	ldr	r0, [r7, #4]
  400d30:	4b07      	ldr	r3, [pc, #28]	; (400d50 <usart_reset+0x48>)
  400d32:	4798      	blx	r3
	/* Reset status bits. */
	usart_reset_status(p_usart);
  400d34:	6878      	ldr	r0, [r7, #4]
  400d36:	4b07      	ldr	r3, [pc, #28]	; (400d54 <usart_reset+0x4c>)
  400d38:	4798      	blx	r3
	/* Turn off RTS and DTR if exist. */
	usart_drive_RTS_pin_high(p_usart);
  400d3a:	6878      	ldr	r0, [r7, #4]
  400d3c:	4b06      	ldr	r3, [pc, #24]	; (400d58 <usart_reset+0x50>)
  400d3e:	4798      	blx	r3
#if (SAM3S || SAM4S || SAM3U || SAM4L || SAM4E)
	usart_drive_DTR_pin_high(p_usart);
#endif
}
  400d40:	bf00      	nop
  400d42:	3708      	adds	r7, #8
  400d44:	46bd      	mov	sp, r7
  400d46:	bd80      	pop	{r7, pc}
  400d48:	00400ee9 	.word	0x00400ee9
  400d4c:	00400dfb 	.word	0x00400dfb
  400d50:	00400e2f 	.word	0x00400e2f
  400d54:	00400e49 	.word	0x00400e49
  400d58:	00400e65 	.word	0x00400e65

00400d5c <usart_init_rs232>:
 * \retval 0 on success.
 * \retval 1 on failure.
 */
uint32_t usart_init_rs232(Usart *p_usart,
		const sam_usart_opt_t *p_usart_opt, uint32_t ul_mck)
{
  400d5c:	b580      	push	{r7, lr}
  400d5e:	b084      	sub	sp, #16
  400d60:	af00      	add	r7, sp, #0
  400d62:	60f8      	str	r0, [r7, #12]
  400d64:	60b9      	str	r1, [r7, #8]
  400d66:	607a      	str	r2, [r7, #4]
	static uint32_t ul_reg_val;

	/* Reset the USART and shut down TX and RX. */
	usart_reset(p_usart);
  400d68:	68f8      	ldr	r0, [r7, #12]
  400d6a:	4b1a      	ldr	r3, [pc, #104]	; (400dd4 <usart_init_rs232+0x78>)
  400d6c:	4798      	blx	r3

	ul_reg_val = 0;
  400d6e:	4b1a      	ldr	r3, [pc, #104]	; (400dd8 <usart_init_rs232+0x7c>)
  400d70:	2200      	movs	r2, #0
  400d72:	601a      	str	r2, [r3, #0]
	/* Check whether the input values are legal. */
	if (!p_usart_opt || usart_set_async_baudrate(p_usart,
  400d74:	68bb      	ldr	r3, [r7, #8]
  400d76:	2b00      	cmp	r3, #0
  400d78:	d009      	beq.n	400d8e <usart_init_rs232+0x32>
  400d7a:	68bb      	ldr	r3, [r7, #8]
  400d7c:	681b      	ldr	r3, [r3, #0]
  400d7e:	687a      	ldr	r2, [r7, #4]
  400d80:	4619      	mov	r1, r3
  400d82:	68f8      	ldr	r0, [r7, #12]
  400d84:	4b15      	ldr	r3, [pc, #84]	; (400ddc <usart_init_rs232+0x80>)
  400d86:	4798      	blx	r3
  400d88:	4603      	mov	r3, r0
  400d8a:	2b00      	cmp	r3, #0
  400d8c:	d001      	beq.n	400d92 <usart_init_rs232+0x36>
			p_usart_opt->baudrate, ul_mck)) {
		return 1;
  400d8e:	2301      	movs	r3, #1
  400d90:	e01b      	b.n	400dca <usart_init_rs232+0x6e>
	}

	/* Configure the USART option. */
	ul_reg_val |= p_usart_opt->char_length | p_usart_opt->parity_type |
  400d92:	68bb      	ldr	r3, [r7, #8]
  400d94:	685a      	ldr	r2, [r3, #4]
  400d96:	68bb      	ldr	r3, [r7, #8]
  400d98:	689b      	ldr	r3, [r3, #8]
  400d9a:	431a      	orrs	r2, r3
			p_usart_opt->channel_mode | p_usart_opt->stop_bits;
  400d9c:	68bb      	ldr	r3, [r7, #8]
  400d9e:	691b      	ldr	r3, [r3, #16]
	ul_reg_val |= p_usart_opt->char_length | p_usart_opt->parity_type |
  400da0:	431a      	orrs	r2, r3
			p_usart_opt->channel_mode | p_usart_opt->stop_bits;
  400da2:	68bb      	ldr	r3, [r7, #8]
  400da4:	68db      	ldr	r3, [r3, #12]
  400da6:	431a      	orrs	r2, r3
	ul_reg_val |= p_usart_opt->char_length | p_usart_opt->parity_type |
  400da8:	4b0b      	ldr	r3, [pc, #44]	; (400dd8 <usart_init_rs232+0x7c>)
  400daa:	681b      	ldr	r3, [r3, #0]
  400dac:	4313      	orrs	r3, r2
  400dae:	4a0a      	ldr	r2, [pc, #40]	; (400dd8 <usart_init_rs232+0x7c>)
  400db0:	6013      	str	r3, [r2, #0]

	/* Configure the USART mode as normal mode. */
	ul_reg_val |= US_MR_USART_MODE_NORMAL;
  400db2:	4b09      	ldr	r3, [pc, #36]	; (400dd8 <usart_init_rs232+0x7c>)
  400db4:	681b      	ldr	r3, [r3, #0]
  400db6:	4a08      	ldr	r2, [pc, #32]	; (400dd8 <usart_init_rs232+0x7c>)
  400db8:	6013      	str	r3, [r2, #0]

	p_usart->US_MR |= ul_reg_val;
  400dba:	68fb      	ldr	r3, [r7, #12]
  400dbc:	685a      	ldr	r2, [r3, #4]
  400dbe:	4b06      	ldr	r3, [pc, #24]	; (400dd8 <usart_init_rs232+0x7c>)
  400dc0:	681b      	ldr	r3, [r3, #0]
  400dc2:	431a      	orrs	r2, r3
  400dc4:	68fb      	ldr	r3, [r7, #12]
  400dc6:	605a      	str	r2, [r3, #4]

	return 0;
  400dc8:	2300      	movs	r3, #0
}
  400dca:	4618      	mov	r0, r3
  400dcc:	3710      	adds	r7, #16
  400dce:	46bd      	mov	sp, r7
  400dd0:	bd80      	pop	{r7, pc}
  400dd2:	bf00      	nop
  400dd4:	00400d09 	.word	0x00400d09
  400dd8:	20400a4c 	.word	0x20400a4c
  400ddc:	00400c7d 	.word	0x00400c7d

00400de0 <usart_enable_tx>:
 * \brief Enable USART transmitter.
 *
 * \param p_usart Pointer to a USART instance.
 */
void usart_enable_tx(Usart *p_usart)
{
  400de0:	b480      	push	{r7}
  400de2:	b083      	sub	sp, #12
  400de4:	af00      	add	r7, sp, #0
  400de6:	6078      	str	r0, [r7, #4]
	p_usart->US_CR = US_CR_TXEN;
  400de8:	687b      	ldr	r3, [r7, #4]
  400dea:	2240      	movs	r2, #64	; 0x40
  400dec:	601a      	str	r2, [r3, #0]
}
  400dee:	bf00      	nop
  400df0:	370c      	adds	r7, #12
  400df2:	46bd      	mov	sp, r7
  400df4:	f85d 7b04 	ldr.w	r7, [sp], #4
  400df8:	4770      	bx	lr

00400dfa <usart_reset_tx>:
 * \brief Immediately stop and disable USART transmitter.
 *
 * \param p_usart Pointer to a USART instance.
 */
void usart_reset_tx(Usart *p_usart)
{
  400dfa:	b480      	push	{r7}
  400dfc:	b083      	sub	sp, #12
  400dfe:	af00      	add	r7, sp, #0
  400e00:	6078      	str	r0, [r7, #4]
	/* Reset transmitter */
	p_usart->US_CR = US_CR_RSTTX | US_CR_TXDIS;
  400e02:	687b      	ldr	r3, [r7, #4]
  400e04:	2288      	movs	r2, #136	; 0x88
  400e06:	601a      	str	r2, [r3, #0]
}
  400e08:	bf00      	nop
  400e0a:	370c      	adds	r7, #12
  400e0c:	46bd      	mov	sp, r7
  400e0e:	f85d 7b04 	ldr.w	r7, [sp], #4
  400e12:	4770      	bx	lr

00400e14 <usart_enable_rx>:
 * \brief Enable USART receiver.
 *
 * \param p_usart Pointer to a USART instance.
 */
void usart_enable_rx(Usart *p_usart)
{
  400e14:	b480      	push	{r7}
  400e16:	b083      	sub	sp, #12
  400e18:	af00      	add	r7, sp, #0
  400e1a:	6078      	str	r0, [r7, #4]
	p_usart->US_CR = US_CR_RXEN;
  400e1c:	687b      	ldr	r3, [r7, #4]
  400e1e:	2210      	movs	r2, #16
  400e20:	601a      	str	r2, [r3, #0]
}
  400e22:	bf00      	nop
  400e24:	370c      	adds	r7, #12
  400e26:	46bd      	mov	sp, r7
  400e28:	f85d 7b04 	ldr.w	r7, [sp], #4
  400e2c:	4770      	bx	lr

00400e2e <usart_reset_rx>:
 * \brief Immediately stop and disable USART receiver.
 *
 * \param p_usart Pointer to a USART instance.
 */
void usart_reset_rx(Usart *p_usart)
{
  400e2e:	b480      	push	{r7}
  400e30:	b083      	sub	sp, #12
  400e32:	af00      	add	r7, sp, #0
  400e34:	6078      	str	r0, [r7, #4]
	/* Reset Receiver */
	p_usart->US_CR = US_CR_RSTRX | US_CR_RXDIS;
  400e36:	687b      	ldr	r3, [r7, #4]
  400e38:	2224      	movs	r2, #36	; 0x24
  400e3a:	601a      	str	r2, [r3, #0]
}
  400e3c:	bf00      	nop
  400e3e:	370c      	adds	r7, #12
  400e40:	46bd      	mov	sp, r7
  400e42:	f85d 7b04 	ldr.w	r7, [sp], #4
  400e46:	4770      	bx	lr

00400e48 <usart_reset_status>:
 * \brief Reset status bits (PARE, OVER, MANERR, UNRE and PXBRK in US_CSR).
 *
 * \param p_usart Pointer to a USART instance.
 */
void usart_reset_status(Usart *p_usart)
{
  400e48:	b480      	push	{r7}
  400e4a:	b083      	sub	sp, #12
  400e4c:	af00      	add	r7, sp, #0
  400e4e:	6078      	str	r0, [r7, #4]
	p_usart->US_CR = US_CR_RSTSTA;
  400e50:	687b      	ldr	r3, [r7, #4]
  400e52:	f44f 7280 	mov.w	r2, #256	; 0x100
  400e56:	601a      	str	r2, [r3, #0]
}
  400e58:	bf00      	nop
  400e5a:	370c      	adds	r7, #12
  400e5c:	46bd      	mov	sp, r7
  400e5e:	f85d 7b04 	ldr.w	r7, [sp], #4
  400e62:	4770      	bx	lr

00400e64 <usart_drive_RTS_pin_high>:
 * \brief Drive the pin RTS to 1.
 *
 * \param p_usart Pointer to a USART instance.
 */
void usart_drive_RTS_pin_high(Usart *p_usart)
{
  400e64:	b480      	push	{r7}
  400e66:	b083      	sub	sp, #12
  400e68:	af00      	add	r7, sp, #0
  400e6a:	6078      	str	r0, [r7, #4]
	p_usart->US_CR = US_CR_RTSDIS;
  400e6c:	687b      	ldr	r3, [r7, #4]
  400e6e:	f44f 2200 	mov.w	r2, #524288	; 0x80000
  400e72:	601a      	str	r2, [r3, #0]
}
  400e74:	bf00      	nop
  400e76:	370c      	adds	r7, #12
  400e78:	46bd      	mov	sp, r7
  400e7a:	f85d 7b04 	ldr.w	r7, [sp], #4
  400e7e:	4770      	bx	lr

00400e80 <usart_write>:
 *
 * \retval 0 on success.
 * \retval 1 on failure.
 */
uint32_t usart_write(Usart *p_usart, uint32_t c)
{
  400e80:	b480      	push	{r7}
  400e82:	b083      	sub	sp, #12
  400e84:	af00      	add	r7, sp, #0
  400e86:	6078      	str	r0, [r7, #4]
  400e88:	6039      	str	r1, [r7, #0]
	if (!(p_usart->US_CSR & US_CSR_TXRDY)) {
  400e8a:	687b      	ldr	r3, [r7, #4]
  400e8c:	695b      	ldr	r3, [r3, #20]
  400e8e:	f003 0302 	and.w	r3, r3, #2
  400e92:	2b00      	cmp	r3, #0
  400e94:	d101      	bne.n	400e9a <usart_write+0x1a>
		return 1;
  400e96:	2301      	movs	r3, #1
  400e98:	e005      	b.n	400ea6 <usart_write+0x26>
	}

	p_usart->US_THR = US_THR_TXCHR(c);
  400e9a:	683b      	ldr	r3, [r7, #0]
  400e9c:	f3c3 0208 	ubfx	r2, r3, #0, #9
  400ea0:	687b      	ldr	r3, [r7, #4]
  400ea2:	61da      	str	r2, [r3, #28]
	return 0;
  400ea4:	2300      	movs	r3, #0
}
  400ea6:	4618      	mov	r0, r3
  400ea8:	370c      	adds	r7, #12
  400eaa:	46bd      	mov	sp, r7
  400eac:	f85d 7b04 	ldr.w	r7, [sp], #4
  400eb0:	4770      	bx	lr

00400eb2 <usart_read>:
 *
 * \retval 0 on success.
 * \retval 1 if no data is available or errors.
 */
uint32_t usart_read(Usart *p_usart, uint32_t *c)
{
  400eb2:	b480      	push	{r7}
  400eb4:	b083      	sub	sp, #12
  400eb6:	af00      	add	r7, sp, #0
  400eb8:	6078      	str	r0, [r7, #4]
  400eba:	6039      	str	r1, [r7, #0]
	if (!(p_usart->US_CSR & US_CSR_RXRDY)) {
  400ebc:	687b      	ldr	r3, [r7, #4]
  400ebe:	695b      	ldr	r3, [r3, #20]
  400ec0:	f003 0301 	and.w	r3, r3, #1
  400ec4:	2b00      	cmp	r3, #0
  400ec6:	d101      	bne.n	400ecc <usart_read+0x1a>
		return 1;
  400ec8:	2301      	movs	r3, #1
  400eca:	e006      	b.n	400eda <usart_read+0x28>
	}

	/* Read character */
	*c = p_usart->US_RHR & US_RHR_RXCHR_Msk;
  400ecc:	687b      	ldr	r3, [r7, #4]
  400ece:	699b      	ldr	r3, [r3, #24]
  400ed0:	f3c3 0208 	ubfx	r2, r3, #0, #9
  400ed4:	683b      	ldr	r3, [r7, #0]
  400ed6:	601a      	str	r2, [r3, #0]

	return 0;
  400ed8:	2300      	movs	r3, #0
}
  400eda:	4618      	mov	r0, r3
  400edc:	370c      	adds	r7, #12
  400ede:	46bd      	mov	sp, r7
  400ee0:	f85d 7b04 	ldr.w	r7, [sp], #4
  400ee4:	4770      	bx	lr
	...

00400ee8 <usart_disable_writeprotect>:
 * \brief Disable write protect of USART registers.
 *
 * \param p_usart Pointer to a USART instance.
 */
void usart_disable_writeprotect(Usart *p_usart)
{
  400ee8:	b480      	push	{r7}
  400eea:	b083      	sub	sp, #12
  400eec:	af00      	add	r7, sp, #0
  400eee:	6078      	str	r0, [r7, #4]
	p_usart->US_WPMR = US_WPMR_WPKEY_PASSWD;
  400ef0:	687b      	ldr	r3, [r7, #4]
  400ef2:	4a04      	ldr	r2, [pc, #16]	; (400f04 <usart_disable_writeprotect+0x1c>)
  400ef4:	f8c3 20e4 	str.w	r2, [r3, #228]	; 0xe4
}
  400ef8:	bf00      	nop
  400efa:	370c      	adds	r7, #12
  400efc:	46bd      	mov	sp, r7
  400efe:	f85d 7b04 	ldr.w	r7, [sp], #4
  400f02:	4770      	bx	lr
  400f04:	55534100 	.word	0x55534100

00400f08 <cpu_irq_save>:

static volatile uint32_t cpu_irq_critical_section_counter;
static volatile bool     cpu_irq_prev_interrupt_state;

static inline irqflags_t cpu_irq_save(void)
{
  400f08:	b480      	push	{r7}
  400f0a:	b083      	sub	sp, #12
  400f0c:	af00      	add	r7, sp, #0
 */
__attribute__( ( always_inline ) ) __STATIC_INLINE uint32_t __get_PRIMASK(void)
{
  uint32_t result;

  __ASM volatile ("MRS %0, primask" : "=r" (result) );
  400f0e:	f3ef 8310 	mrs	r3, PRIMASK
  400f12:	607b      	str	r3, [r7, #4]
  return(result);
  400f14:	687b      	ldr	r3, [r7, #4]
	volatile irqflags_t flags = cpu_irq_is_enabled();
  400f16:	2b00      	cmp	r3, #0
  400f18:	bf0c      	ite	eq
  400f1a:	2301      	moveq	r3, #1
  400f1c:	2300      	movne	r3, #0
  400f1e:	b2db      	uxtb	r3, r3
  400f20:	603b      	str	r3, [r7, #0]
  __ASM volatile ("cpsid i" : : : "memory");
  400f22:	b672      	cpsid	i
    This function ensures the apparent order of the explicit memory operations before
    and after the instruction, without ensuring their completion.
 */
__attribute__( ( always_inline ) ) __STATIC_INLINE void __DMB(void)
{
  __ASM volatile ("dmb");
  400f24:	f3bf 8f5f 	dmb	sy
	cpu_irq_disable();
  400f28:	4b04      	ldr	r3, [pc, #16]	; (400f3c <cpu_irq_save+0x34>)
  400f2a:	2200      	movs	r2, #0
  400f2c:	701a      	strb	r2, [r3, #0]
	return flags;
  400f2e:	683b      	ldr	r3, [r7, #0]
}
  400f30:	4618      	mov	r0, r3
  400f32:	370c      	adds	r7, #12
  400f34:	46bd      	mov	sp, r7
  400f36:	f85d 7b04 	ldr.w	r7, [sp], #4
  400f3a:	4770      	bx	lr
  400f3c:	2040000a 	.word	0x2040000a

00400f40 <cpu_irq_is_enabled_flags>:

static inline bool cpu_irq_is_enabled_flags(irqflags_t flags)
{
  400f40:	b480      	push	{r7}
  400f42:	b083      	sub	sp, #12
  400f44:	af00      	add	r7, sp, #0
  400f46:	6078      	str	r0, [r7, #4]
	return (flags);
  400f48:	687b      	ldr	r3, [r7, #4]
  400f4a:	2b00      	cmp	r3, #0
  400f4c:	bf14      	ite	ne
  400f4e:	2301      	movne	r3, #1
  400f50:	2300      	moveq	r3, #0
  400f52:	b2db      	uxtb	r3, r3
}
  400f54:	4618      	mov	r0, r3
  400f56:	370c      	adds	r7, #12
  400f58:	46bd      	mov	sp, r7
  400f5a:	f85d 7b04 	ldr.w	r7, [sp], #4
  400f5e:	4770      	bx	lr

00400f60 <cpu_irq_restore>:

static inline void cpu_irq_restore(irqflags_t flags)
{
  400f60:	b580      	push	{r7, lr}
  400f62:	b082      	sub	sp, #8
  400f64:	af00      	add	r7, sp, #0
  400f66:	6078      	str	r0, [r7, #4]
	if (cpu_irq_is_enabled_flags(flags))
  400f68:	6878      	ldr	r0, [r7, #4]
  400f6a:	4b07      	ldr	r3, [pc, #28]	; (400f88 <cpu_irq_restore+0x28>)
  400f6c:	4798      	blx	r3
  400f6e:	4603      	mov	r3, r0
  400f70:	2b00      	cmp	r3, #0
  400f72:	d005      	beq.n	400f80 <cpu_irq_restore+0x20>
		cpu_irq_enable();
  400f74:	4b05      	ldr	r3, [pc, #20]	; (400f8c <cpu_irq_restore+0x2c>)
  400f76:	2201      	movs	r2, #1
  400f78:	701a      	strb	r2, [r3, #0]
  400f7a:	f3bf 8f5f 	dmb	sy
  __ASM volatile ("cpsie i" : : : "memory");
  400f7e:	b662      	cpsie	i
}
  400f80:	bf00      	nop
  400f82:	3708      	adds	r7, #8
  400f84:	46bd      	mov	sp, r7
  400f86:	bd80      	pop	{r7, pc}
  400f88:	00400f41 	.word	0x00400f41
  400f8c:	2040000a 	.word	0x2040000a

00400f90 <Reset_Handler>:
/**
 * \brief This is the code that gets called on processor reset.
 * To initialize the device, and call the main() routine.
 */
void Reset_Handler(void)
{
  400f90:	b580      	push	{r7, lr}
  400f92:	b084      	sub	sp, #16
  400f94:	af00      	add	r7, sp, #0
        uint32_t *pSrc, *pDest;

        /* Initialize the relocate segment */
        pSrc = &_etext;
  400f96:	4b1e      	ldr	r3, [pc, #120]	; (401010 <Reset_Handler+0x80>)
  400f98:	60fb      	str	r3, [r7, #12]
        pDest = &_srelocate;
  400f9a:	4b1e      	ldr	r3, [pc, #120]	; (401014 <Reset_Handler+0x84>)
  400f9c:	60bb      	str	r3, [r7, #8]

        if (pSrc != pDest) {
  400f9e:	68fa      	ldr	r2, [r7, #12]
  400fa0:	68bb      	ldr	r3, [r7, #8]
  400fa2:	429a      	cmp	r2, r3
  400fa4:	d00c      	beq.n	400fc0 <Reset_Handler+0x30>
                for (; pDest < &_erelocate;) {
  400fa6:	e007      	b.n	400fb8 <Reset_Handler+0x28>
                        *pDest++ = *pSrc++;
  400fa8:	68bb      	ldr	r3, [r7, #8]
  400faa:	1d1a      	adds	r2, r3, #4
  400fac:	60ba      	str	r2, [r7, #8]
  400fae:	68fa      	ldr	r2, [r7, #12]
  400fb0:	1d11      	adds	r1, r2, #4
  400fb2:	60f9      	str	r1, [r7, #12]
  400fb4:	6812      	ldr	r2, [r2, #0]
  400fb6:	601a      	str	r2, [r3, #0]
                for (; pDest < &_erelocate;) {
  400fb8:	68bb      	ldr	r3, [r7, #8]
  400fba:	4a17      	ldr	r2, [pc, #92]	; (401018 <Reset_Handler+0x88>)
  400fbc:	4293      	cmp	r3, r2
  400fbe:	d3f3      	bcc.n	400fa8 <Reset_Handler+0x18>
                }
        }

        /* Clear the zero segment */
        for (pDest = &_szero; pDest < &_ezero;) {
  400fc0:	4b16      	ldr	r3, [pc, #88]	; (40101c <Reset_Handler+0x8c>)
  400fc2:	60bb      	str	r3, [r7, #8]
  400fc4:	e004      	b.n	400fd0 <Reset_Handler+0x40>
                *pDest++ = 0;
  400fc6:	68bb      	ldr	r3, [r7, #8]
  400fc8:	1d1a      	adds	r2, r3, #4
  400fca:	60ba      	str	r2, [r7, #8]
  400fcc:	2200      	movs	r2, #0
  400fce:	601a      	str	r2, [r3, #0]
        for (pDest = &_szero; pDest < &_ezero;) {
  400fd0:	68bb      	ldr	r3, [r7, #8]
  400fd2:	4a13      	ldr	r2, [pc, #76]	; (401020 <Reset_Handler+0x90>)
  400fd4:	4293      	cmp	r3, r2
  400fd6:	d3f6      	bcc.n	400fc6 <Reset_Handler+0x36>
        }

        /* Set the vector table base address */
        pSrc = (uint32_t *) & _sfixed;
  400fd8:	4b12      	ldr	r3, [pc, #72]	; (401024 <Reset_Handler+0x94>)
  400fda:	60fb      	str	r3, [r7, #12]
        SCB->VTOR = ((uint32_t) pSrc & SCB_VTOR_TBLOFF_Msk);
  400fdc:	4a12      	ldr	r2, [pc, #72]	; (401028 <Reset_Handler+0x98>)
  400fde:	68fb      	ldr	r3, [r7, #12]
  400fe0:	f023 037f 	bic.w	r3, r3, #127	; 0x7f
  400fe4:	6093      	str	r3, [r2, #8]
 * \brief Enable FPU
 */
__always_inline static void fpu_enable(void)
{
	irqflags_t flags;
	flags = cpu_irq_save();
  400fe6:	4b11      	ldr	r3, [pc, #68]	; (40102c <Reset_Handler+0x9c>)
  400fe8:	4798      	blx	r3
  400fea:	6078      	str	r0, [r7, #4]
	REG_CPACR |=  (0xFu << 20);
  400fec:	4a10      	ldr	r2, [pc, #64]	; (401030 <Reset_Handler+0xa0>)
  400fee:	4b10      	ldr	r3, [pc, #64]	; (401030 <Reset_Handler+0xa0>)
  400ff0:	681b      	ldr	r3, [r3, #0]
  400ff2:	f443 0370 	orr.w	r3, r3, #15728640	; 0xf00000
  400ff6:	6013      	str	r3, [r2, #0]
  __ASM volatile ("dsb");
  400ff8:	f3bf 8f4f 	dsb	sy
  __ASM volatile ("isb");
  400ffc:	f3bf 8f6f 	isb	sy
	__DSB();
	__ISB();
	cpu_irq_restore(flags);
  401000:	6878      	ldr	r0, [r7, #4]
  401002:	4b0c      	ldr	r3, [pc, #48]	; (401034 <Reset_Handler+0xa4>)
  401004:	4798      	blx	r3
#if __FPU_USED
	fpu_enable();
#endif

        /* Initialize the C library */
        __libc_init_array();
  401006:	4b0c      	ldr	r3, [pc, #48]	; (401038 <Reset_Handler+0xa8>)
  401008:	4798      	blx	r3

        /* Branch to main function */
        main();
  40100a:	4b0c      	ldr	r3, [pc, #48]	; (40103c <Reset_Handler+0xac>)
  40100c:	4798      	blx	r3

        /* Infinite loop */
        while (1);
  40100e:	e7fe      	b.n	40100e <Reset_Handler+0x7e>
  401010:	0040876c 	.word	0x0040876c
  401014:	20400000 	.word	0x20400000
  401018:	204009c0 	.word	0x204009c0
  40101c:	204009c0 	.word	0x204009c0
  401020:	20400abc 	.word	0x20400abc
  401024:	00400000 	.word	0x00400000
  401028:	e000ed00 	.word	0xe000ed00
  40102c:	00400f09 	.word	0x00400f09
  401030:	e000ed88 	.word	0xe000ed88
  401034:	00400f61 	.word	0x00400f61
  401038:	004022e1 	.word	0x004022e1
  40103c:	00401f09 	.word	0x00401f09

00401040 <Dummy_Handler>:

/**
 * \brief Default interrupt handler for unused IRQs.
 */
void Dummy_Handler(void)
{
  401040:	b480      	push	{r7}
  401042:	af00      	add	r7, sp, #0
        while (1) {
  401044:	e7fe      	b.n	401044 <Dummy_Handler+0x4>
	...

00401048 <SystemCoreClockUpdate>:

  SystemCoreClock = CHIP_FREQ_CPU_MAX;
}

void SystemCoreClockUpdate( void )
{
  401048:	b480      	push	{r7}
  40104a:	af00      	add	r7, sp, #0
  /* Determine clock frequency according to clock register values */
  switch (PMC->PMC_MCKR & (uint32_t) PMC_MCKR_CSS_Msk)
  40104c:	4b52      	ldr	r3, [pc, #328]	; (401198 <SystemCoreClockUpdate+0x150>)
  40104e:	6b1b      	ldr	r3, [r3, #48]	; 0x30
  401050:	f003 0303 	and.w	r3, r3, #3
  401054:	2b01      	cmp	r3, #1
  401056:	d014      	beq.n	401082 <SystemCoreClockUpdate+0x3a>
  401058:	2b01      	cmp	r3, #1
  40105a:	d302      	bcc.n	401062 <SystemCoreClockUpdate+0x1a>
  40105c:	2b02      	cmp	r3, #2
  40105e:	d038      	beq.n	4010d2 <SystemCoreClockUpdate+0x8a>
        SystemCoreClock /= ((((PMC->CKGR_PLLAR) & CKGR_PLLAR_DIVA_Msk) >> CKGR_PLLAR_DIVA_Pos));
      }
    break;

    default:
    break;
  401060:	e07a      	b.n	401158 <SystemCoreClockUpdate+0x110>
      if ( SUPC->SUPC_SR & SUPC_SR_OSCSEL )
  401062:	4b4e      	ldr	r3, [pc, #312]	; (40119c <SystemCoreClockUpdate+0x154>)
  401064:	695b      	ldr	r3, [r3, #20]
  401066:	f003 0380 	and.w	r3, r3, #128	; 0x80
  40106a:	2b00      	cmp	r3, #0
  40106c:	d004      	beq.n	401078 <SystemCoreClockUpdate+0x30>
        SystemCoreClock = CHIP_FREQ_XTAL_32K;
  40106e:	4b4c      	ldr	r3, [pc, #304]	; (4011a0 <SystemCoreClockUpdate+0x158>)
  401070:	f44f 4200 	mov.w	r2, #32768	; 0x8000
  401074:	601a      	str	r2, [r3, #0]
    break;
  401076:	e06f      	b.n	401158 <SystemCoreClockUpdate+0x110>
        SystemCoreClock = CHIP_FREQ_SLCK_RC;
  401078:	4b49      	ldr	r3, [pc, #292]	; (4011a0 <SystemCoreClockUpdate+0x158>)
  40107a:	f44f 42fa 	mov.w	r2, #32000	; 0x7d00
  40107e:	601a      	str	r2, [r3, #0]
    break;
  401080:	e06a      	b.n	401158 <SystemCoreClockUpdate+0x110>
      if ( PMC->CKGR_MOR & CKGR_MOR_MOSCSEL )
  401082:	4b45      	ldr	r3, [pc, #276]	; (401198 <SystemCoreClockUpdate+0x150>)
  401084:	6a1b      	ldr	r3, [r3, #32]
  401086:	f003 7380 	and.w	r3, r3, #16777216	; 0x1000000
  40108a:	2b00      	cmp	r3, #0
  40108c:	d003      	beq.n	401096 <SystemCoreClockUpdate+0x4e>
        SystemCoreClock = CHIP_FREQ_XTAL_12M;
  40108e:	4b44      	ldr	r3, [pc, #272]	; (4011a0 <SystemCoreClockUpdate+0x158>)
  401090:	4a44      	ldr	r2, [pc, #272]	; (4011a4 <SystemCoreClockUpdate+0x15c>)
  401092:	601a      	str	r2, [r3, #0]
    break;
  401094:	e060      	b.n	401158 <SystemCoreClockUpdate+0x110>
        SystemCoreClock = CHIP_FREQ_MAINCK_RC_4MHZ;
  401096:	4b42      	ldr	r3, [pc, #264]	; (4011a0 <SystemCoreClockUpdate+0x158>)
  401098:	4a43      	ldr	r2, [pc, #268]	; (4011a8 <SystemCoreClockUpdate+0x160>)
  40109a:	601a      	str	r2, [r3, #0]
        switch ( PMC->CKGR_MOR & CKGR_MOR_MOSCRCF_Msk )
  40109c:	4b3e      	ldr	r3, [pc, #248]	; (401198 <SystemCoreClockUpdate+0x150>)
  40109e:	6a1b      	ldr	r3, [r3, #32]
  4010a0:	f003 0370 	and.w	r3, r3, #112	; 0x70
  4010a4:	2b10      	cmp	r3, #16
  4010a6:	d004      	beq.n	4010b2 <SystemCoreClockUpdate+0x6a>
  4010a8:	2b20      	cmp	r3, #32
  4010aa:	d008      	beq.n	4010be <SystemCoreClockUpdate+0x76>
  4010ac:	2b00      	cmp	r3, #0
  4010ae:	d00e      	beq.n	4010ce <SystemCoreClockUpdate+0x86>
          break;
  4010b0:	e00e      	b.n	4010d0 <SystemCoreClockUpdate+0x88>
            SystemCoreClock *= 2U;
  4010b2:	4b3b      	ldr	r3, [pc, #236]	; (4011a0 <SystemCoreClockUpdate+0x158>)
  4010b4:	681b      	ldr	r3, [r3, #0]
  4010b6:	005b      	lsls	r3, r3, #1
  4010b8:	4a39      	ldr	r2, [pc, #228]	; (4011a0 <SystemCoreClockUpdate+0x158>)
  4010ba:	6013      	str	r3, [r2, #0]
          break;
  4010bc:	e008      	b.n	4010d0 <SystemCoreClockUpdate+0x88>
            SystemCoreClock *= 3U;
  4010be:	4b38      	ldr	r3, [pc, #224]	; (4011a0 <SystemCoreClockUpdate+0x158>)
  4010c0:	681a      	ldr	r2, [r3, #0]
  4010c2:	4613      	mov	r3, r2
  4010c4:	005b      	lsls	r3, r3, #1
  4010c6:	4413      	add	r3, r2
  4010c8:	4a35      	ldr	r2, [pc, #212]	; (4011a0 <SystemCoreClockUpdate+0x158>)
  4010ca:	6013      	str	r3, [r2, #0]
          break;
  4010cc:	e000      	b.n	4010d0 <SystemCoreClockUpdate+0x88>
          break;
  4010ce:	bf00      	nop
    break;
  4010d0:	e042      	b.n	401158 <SystemCoreClockUpdate+0x110>
      if ( PMC->CKGR_MOR & CKGR_MOR_MOSCSEL )
  4010d2:	4b31      	ldr	r3, [pc, #196]	; (401198 <SystemCoreClockUpdate+0x150>)
  4010d4:	6a1b      	ldr	r3, [r3, #32]
  4010d6:	f003 7380 	and.w	r3, r3, #16777216	; 0x1000000
  4010da:	2b00      	cmp	r3, #0
  4010dc:	d003      	beq.n	4010e6 <SystemCoreClockUpdate+0x9e>
        SystemCoreClock = CHIP_FREQ_XTAL_12M ;
  4010de:	4b30      	ldr	r3, [pc, #192]	; (4011a0 <SystemCoreClockUpdate+0x158>)
  4010e0:	4a30      	ldr	r2, [pc, #192]	; (4011a4 <SystemCoreClockUpdate+0x15c>)
  4010e2:	601a      	str	r2, [r3, #0]
  4010e4:	e01c      	b.n	401120 <SystemCoreClockUpdate+0xd8>
        SystemCoreClock = CHIP_FREQ_MAINCK_RC_4MHZ;
  4010e6:	4b2e      	ldr	r3, [pc, #184]	; (4011a0 <SystemCoreClockUpdate+0x158>)
  4010e8:	4a2f      	ldr	r2, [pc, #188]	; (4011a8 <SystemCoreClockUpdate+0x160>)
  4010ea:	601a      	str	r2, [r3, #0]
        switch ( PMC->CKGR_MOR & CKGR_MOR_MOSCRCF_Msk )
  4010ec:	4b2a      	ldr	r3, [pc, #168]	; (401198 <SystemCoreClockUpdate+0x150>)
  4010ee:	6a1b      	ldr	r3, [r3, #32]
  4010f0:	f003 0370 	and.w	r3, r3, #112	; 0x70
  4010f4:	2b10      	cmp	r3, #16
  4010f6:	d004      	beq.n	401102 <SystemCoreClockUpdate+0xba>
  4010f8:	2b20      	cmp	r3, #32
  4010fa:	d008      	beq.n	40110e <SystemCoreClockUpdate+0xc6>
  4010fc:	2b00      	cmp	r3, #0
  4010fe:	d00e      	beq.n	40111e <SystemCoreClockUpdate+0xd6>
          break;
  401100:	e00e      	b.n	401120 <SystemCoreClockUpdate+0xd8>
            SystemCoreClock *= 2U;
  401102:	4b27      	ldr	r3, [pc, #156]	; (4011a0 <SystemCoreClockUpdate+0x158>)
  401104:	681b      	ldr	r3, [r3, #0]
  401106:	005b      	lsls	r3, r3, #1
  401108:	4a25      	ldr	r2, [pc, #148]	; (4011a0 <SystemCoreClockUpdate+0x158>)
  40110a:	6013      	str	r3, [r2, #0]
          break;
  40110c:	e008      	b.n	401120 <SystemCoreClockUpdate+0xd8>
            SystemCoreClock *= 3U;
  40110e:	4b24      	ldr	r3, [pc, #144]	; (4011a0 <SystemCoreClockUpdate+0x158>)
  401110:	681a      	ldr	r2, [r3, #0]
  401112:	4613      	mov	r3, r2
  401114:	005b      	lsls	r3, r3, #1
  401116:	4413      	add	r3, r2
  401118:	4a21      	ldr	r2, [pc, #132]	; (4011a0 <SystemCoreClockUpdate+0x158>)
  40111a:	6013      	str	r3, [r2, #0]
          break;
  40111c:	e000      	b.n	401120 <SystemCoreClockUpdate+0xd8>
          break;
  40111e:	bf00      	nop
      if ( (uint32_t) (PMC->PMC_MCKR & (uint32_t) PMC_MCKR_CSS_Msk) == PMC_MCKR_CSS_PLLA_CLK )
  401120:	4b1d      	ldr	r3, [pc, #116]	; (401198 <SystemCoreClockUpdate+0x150>)
  401122:	6b1b      	ldr	r3, [r3, #48]	; 0x30
  401124:	f003 0303 	and.w	r3, r3, #3
  401128:	2b02      	cmp	r3, #2
  40112a:	d114      	bne.n	401156 <SystemCoreClockUpdate+0x10e>
        SystemCoreClock *= ((((PMC->CKGR_PLLAR) & CKGR_PLLAR_MULA_Msk) >> CKGR_PLLAR_MULA_Pos) + 1U);
  40112c:	4b1a      	ldr	r3, [pc, #104]	; (401198 <SystemCoreClockUpdate+0x150>)
  40112e:	6a9b      	ldr	r3, [r3, #40]	; 0x28
  401130:	0c1b      	lsrs	r3, r3, #16
  401132:	f3c3 030a 	ubfx	r3, r3, #0, #11
  401136:	3301      	adds	r3, #1
  401138:	4a19      	ldr	r2, [pc, #100]	; (4011a0 <SystemCoreClockUpdate+0x158>)
  40113a:	6812      	ldr	r2, [r2, #0]
  40113c:	fb02 f303 	mul.w	r3, r2, r3
  401140:	4a17      	ldr	r2, [pc, #92]	; (4011a0 <SystemCoreClockUpdate+0x158>)
  401142:	6013      	str	r3, [r2, #0]
        SystemCoreClock /= ((((PMC->CKGR_PLLAR) & CKGR_PLLAR_DIVA_Msk) >> CKGR_PLLAR_DIVA_Pos));
  401144:	4b14      	ldr	r3, [pc, #80]	; (401198 <SystemCoreClockUpdate+0x150>)
  401146:	6a9b      	ldr	r3, [r3, #40]	; 0x28
  401148:	b2db      	uxtb	r3, r3
  40114a:	4a15      	ldr	r2, [pc, #84]	; (4011a0 <SystemCoreClockUpdate+0x158>)
  40114c:	6812      	ldr	r2, [r2, #0]
  40114e:	fbb2 f3f3 	udiv	r3, r2, r3
  401152:	4a13      	ldr	r2, [pc, #76]	; (4011a0 <SystemCoreClockUpdate+0x158>)
  401154:	6013      	str	r3, [r2, #0]
    break;
  401156:	bf00      	nop
  }

  if ( (PMC->PMC_MCKR & PMC_MCKR_PRES_Msk) == PMC_MCKR_PRES_CLK_3 )
  401158:	4b0f      	ldr	r3, [pc, #60]	; (401198 <SystemCoreClockUpdate+0x150>)
  40115a:	6b1b      	ldr	r3, [r3, #48]	; 0x30
  40115c:	f003 0370 	and.w	r3, r3, #112	; 0x70
  401160:	2b70      	cmp	r3, #112	; 0x70
  401162:	d108      	bne.n	401176 <SystemCoreClockUpdate+0x12e>
  {
    SystemCoreClock /= 3U;
  401164:	4b0e      	ldr	r3, [pc, #56]	; (4011a0 <SystemCoreClockUpdate+0x158>)
  401166:	681b      	ldr	r3, [r3, #0]
  401168:	4a10      	ldr	r2, [pc, #64]	; (4011ac <SystemCoreClockUpdate+0x164>)
  40116a:	fba2 2303 	umull	r2, r3, r2, r3
  40116e:	085b      	lsrs	r3, r3, #1
  401170:	4a0b      	ldr	r2, [pc, #44]	; (4011a0 <SystemCoreClockUpdate+0x158>)
  401172:	6013      	str	r3, [r2, #0]
  }
  else
  {
    SystemCoreClock >>= ((PMC->PMC_MCKR & PMC_MCKR_PRES_Msk) >> PMC_MCKR_PRES_Pos);
  }
}
  401174:	e00a      	b.n	40118c <SystemCoreClockUpdate+0x144>
    SystemCoreClock >>= ((PMC->PMC_MCKR & PMC_MCKR_PRES_Msk) >> PMC_MCKR_PRES_Pos);
  401176:	4b08      	ldr	r3, [pc, #32]	; (401198 <SystemCoreClockUpdate+0x150>)
  401178:	6b1b      	ldr	r3, [r3, #48]	; 0x30
  40117a:	091b      	lsrs	r3, r3, #4
  40117c:	f003 0307 	and.w	r3, r3, #7
  401180:	4a07      	ldr	r2, [pc, #28]	; (4011a0 <SystemCoreClockUpdate+0x158>)
  401182:	6812      	ldr	r2, [r2, #0]
  401184:	fa22 f303 	lsr.w	r3, r2, r3
  401188:	4a05      	ldr	r2, [pc, #20]	; (4011a0 <SystemCoreClockUpdate+0x158>)
  40118a:	6013      	str	r3, [r2, #0]
}
  40118c:	bf00      	nop
  40118e:	46bd      	mov	sp, r7
  401190:	f85d 7b04 	ldr.w	r7, [sp], #4
  401194:	4770      	bx	lr
  401196:	bf00      	nop
  401198:	400e0600 	.word	0x400e0600
  40119c:	400e1810 	.word	0x400e1810
  4011a0:	2040000c 	.word	0x2040000c
  4011a4:	00b71b00 	.word	0x00b71b00
  4011a8:	003d0900 	.word	0x003d0900
  4011ac:	aaaaaaab 	.word	0xaaaaaaab

004011b0 <system_init_flash>:
/**
 * Initialize flash.
 */
void system_init_flash( uint32_t ul_clk )
{
  4011b0:	b480      	push	{r7}
  4011b2:	b083      	sub	sp, #12
  4011b4:	af00      	add	r7, sp, #0
  4011b6:	6078      	str	r0, [r7, #4]
  /* Set FWS for embedded Flash access according to operating frequency */
  if ( ul_clk < CHIP_FREQ_FWS_0 )
  4011b8:	687b      	ldr	r3, [r7, #4]
  4011ba:	4a19      	ldr	r2, [pc, #100]	; (401220 <system_init_flash+0x70>)
  4011bc:	4293      	cmp	r3, r2
  4011be:	d804      	bhi.n	4011ca <system_init_flash+0x1a>
  {
    EFC->EEFC_FMR = EEFC_FMR_FWS(0)|EEFC_FMR_CLOE;
  4011c0:	4b18      	ldr	r3, [pc, #96]	; (401224 <system_init_flash+0x74>)
  4011c2:	f04f 6280 	mov.w	r2, #67108864	; 0x4000000
  4011c6:	601a      	str	r2, [r3, #0]
          }
        }
      }
    }
  }
}
  4011c8:	e023      	b.n	401212 <system_init_flash+0x62>
    if (ul_clk < CHIP_FREQ_FWS_1)
  4011ca:	687b      	ldr	r3, [r7, #4]
  4011cc:	4a16      	ldr	r2, [pc, #88]	; (401228 <system_init_flash+0x78>)
  4011ce:	4293      	cmp	r3, r2
  4011d0:	d803      	bhi.n	4011da <system_init_flash+0x2a>
      EFC->EEFC_FMR = EEFC_FMR_FWS(1)|EEFC_FMR_CLOE;
  4011d2:	4b14      	ldr	r3, [pc, #80]	; (401224 <system_init_flash+0x74>)
  4011d4:	4a15      	ldr	r2, [pc, #84]	; (40122c <system_init_flash+0x7c>)
  4011d6:	601a      	str	r2, [r3, #0]
}
  4011d8:	e01b      	b.n	401212 <system_init_flash+0x62>
      if (ul_clk < CHIP_FREQ_FWS_2)
  4011da:	687b      	ldr	r3, [r7, #4]
  4011dc:	4a14      	ldr	r2, [pc, #80]	; (401230 <system_init_flash+0x80>)
  4011de:	4293      	cmp	r3, r2
  4011e0:	d803      	bhi.n	4011ea <system_init_flash+0x3a>
        EFC->EEFC_FMR = EEFC_FMR_FWS(2)|EEFC_FMR_CLOE;
  4011e2:	4b10      	ldr	r3, [pc, #64]	; (401224 <system_init_flash+0x74>)
  4011e4:	4a13      	ldr	r2, [pc, #76]	; (401234 <system_init_flash+0x84>)
  4011e6:	601a      	str	r2, [r3, #0]
}
  4011e8:	e013      	b.n	401212 <system_init_flash+0x62>
        if ( ul_clk < CHIP_FREQ_FWS_3 )
  4011ea:	687b      	ldr	r3, [r7, #4]
  4011ec:	4a12      	ldr	r2, [pc, #72]	; (401238 <system_init_flash+0x88>)
  4011ee:	4293      	cmp	r3, r2
  4011f0:	d803      	bhi.n	4011fa <system_init_flash+0x4a>
          EFC->EEFC_FMR = EEFC_FMR_FWS(3)|EEFC_FMR_CLOE;
  4011f2:	4b0c      	ldr	r3, [pc, #48]	; (401224 <system_init_flash+0x74>)
  4011f4:	4a11      	ldr	r2, [pc, #68]	; (40123c <system_init_flash+0x8c>)
  4011f6:	601a      	str	r2, [r3, #0]
}
  4011f8:	e00b      	b.n	401212 <system_init_flash+0x62>
          if ( ul_clk < CHIP_FREQ_FWS_4 )
  4011fa:	687b      	ldr	r3, [r7, #4]
  4011fc:	4a10      	ldr	r2, [pc, #64]	; (401240 <system_init_flash+0x90>)
  4011fe:	4293      	cmp	r3, r2
  401200:	d804      	bhi.n	40120c <system_init_flash+0x5c>
            EFC->EEFC_FMR = EEFC_FMR_FWS(4)|EEFC_FMR_CLOE;
  401202:	4b08      	ldr	r3, [pc, #32]	; (401224 <system_init_flash+0x74>)
  401204:	f04f 2204 	mov.w	r2, #67109888	; 0x4000400
  401208:	601a      	str	r2, [r3, #0]
}
  40120a:	e002      	b.n	401212 <system_init_flash+0x62>
            EFC->EEFC_FMR = EEFC_FMR_FWS(5)|EEFC_FMR_CLOE;
  40120c:	4b05      	ldr	r3, [pc, #20]	; (401224 <system_init_flash+0x74>)
  40120e:	4a0d      	ldr	r2, [pc, #52]	; (401244 <system_init_flash+0x94>)
  401210:	601a      	str	r2, [r3, #0]
}
  401212:	bf00      	nop
  401214:	370c      	adds	r7, #12
  401216:	46bd      	mov	sp, r7
  401218:	f85d 7b04 	ldr.w	r7, [sp], #4
  40121c:	4770      	bx	lr
  40121e:	bf00      	nop
  401220:	01312cff 	.word	0x01312cff
  401224:	400e0c00 	.word	0x400e0c00
  401228:	026259ff 	.word	0x026259ff
  40122c:	04000100 	.word	0x04000100
  401230:	039386ff 	.word	0x039386ff
  401234:	04000200 	.word	0x04000200
  401238:	04c4b3ff 	.word	0x04c4b3ff
  40123c:	04000300 	.word	0x04000300
  401240:	05f5e0ff 	.word	0x05f5e0ff
  401244:	04000500 	.word	0x04000500

00401248 <_sbrk>:
extern void _exit(int status);
extern void _kill(int pid, int sig);
extern int _getpid(void);

extern caddr_t _sbrk(int incr)
{
  401248:	b480      	push	{r7}
  40124a:	b085      	sub	sp, #20
  40124c:	af00      	add	r7, sp, #0
  40124e:	6078      	str	r0, [r7, #4]
	static unsigned char *heap = NULL;
	unsigned char *prev_heap;
	int ramend = (int)&__ram_end__;
  401250:	4b10      	ldr	r3, [pc, #64]	; (401294 <_sbrk+0x4c>)
  401252:	60fb      	str	r3, [r7, #12]

	if (heap == NULL) {
  401254:	4b10      	ldr	r3, [pc, #64]	; (401298 <_sbrk+0x50>)
  401256:	681b      	ldr	r3, [r3, #0]
  401258:	2b00      	cmp	r3, #0
  40125a:	d102      	bne.n	401262 <_sbrk+0x1a>
		heap = (unsigned char *)&_end;
  40125c:	4b0e      	ldr	r3, [pc, #56]	; (401298 <_sbrk+0x50>)
  40125e:	4a0f      	ldr	r2, [pc, #60]	; (40129c <_sbrk+0x54>)
  401260:	601a      	str	r2, [r3, #0]
	}
	prev_heap = heap;
  401262:	4b0d      	ldr	r3, [pc, #52]	; (401298 <_sbrk+0x50>)
  401264:	681b      	ldr	r3, [r3, #0]
  401266:	60bb      	str	r3, [r7, #8]

	if (((int)prev_heap + incr) > ramend) {
  401268:	68ba      	ldr	r2, [r7, #8]
  40126a:	687b      	ldr	r3, [r7, #4]
  40126c:	441a      	add	r2, r3
  40126e:	68fb      	ldr	r3, [r7, #12]
  401270:	429a      	cmp	r2, r3
  401272:	dd02      	ble.n	40127a <_sbrk+0x32>
		return (caddr_t) -1;	
  401274:	f04f 33ff 	mov.w	r3, #4294967295
  401278:	e006      	b.n	401288 <_sbrk+0x40>
	}

	heap += incr;
  40127a:	4b07      	ldr	r3, [pc, #28]	; (401298 <_sbrk+0x50>)
  40127c:	681a      	ldr	r2, [r3, #0]
  40127e:	687b      	ldr	r3, [r7, #4]
  401280:	4413      	add	r3, r2
  401282:	4a05      	ldr	r2, [pc, #20]	; (401298 <_sbrk+0x50>)
  401284:	6013      	str	r3, [r2, #0]

	return (caddr_t) prev_heap;
  401286:	68bb      	ldr	r3, [r7, #8]
}
  401288:	4618      	mov	r0, r3
  40128a:	3714      	adds	r7, #20
  40128c:	46bd      	mov	sp, r7
  40128e:	f85d 7b04 	ldr.w	r7, [sp], #4
  401292:	4770      	bx	lr
  401294:	2045fffc 	.word	0x2045fffc
  401298:	20400a50 	.word	0x20400a50
  40129c:	20402cc0 	.word	0x20402cc0

004012a0 <_close>:
{
	return -1;
}

extern int _close(int file)
{
  4012a0:	b480      	push	{r7}
  4012a2:	b083      	sub	sp, #12
  4012a4:	af00      	add	r7, sp, #0
  4012a6:	6078      	str	r0, [r7, #4]
	return -1;
  4012a8:	f04f 33ff 	mov.w	r3, #4294967295
}
  4012ac:	4618      	mov	r0, r3
  4012ae:	370c      	adds	r7, #12
  4012b0:	46bd      	mov	sp, r7
  4012b2:	f85d 7b04 	ldr.w	r7, [sp], #4
  4012b6:	4770      	bx	lr

004012b8 <_fstat>:

extern int _fstat(int file, struct stat *st)
{
  4012b8:	b480      	push	{r7}
  4012ba:	b083      	sub	sp, #12
  4012bc:	af00      	add	r7, sp, #0
  4012be:	6078      	str	r0, [r7, #4]
  4012c0:	6039      	str	r1, [r7, #0]
	st->st_mode = S_IFCHR;
  4012c2:	683b      	ldr	r3, [r7, #0]
  4012c4:	f44f 5200 	mov.w	r2, #8192	; 0x2000
  4012c8:	605a      	str	r2, [r3, #4]

	return 0;
  4012ca:	2300      	movs	r3, #0
}
  4012cc:	4618      	mov	r0, r3
  4012ce:	370c      	adds	r7, #12
  4012d0:	46bd      	mov	sp, r7
  4012d2:	f85d 7b04 	ldr.w	r7, [sp], #4
  4012d6:	4770      	bx	lr

004012d8 <_isatty>:

extern int _isatty(int file)
{
  4012d8:	b480      	push	{r7}
  4012da:	b083      	sub	sp, #12
  4012dc:	af00      	add	r7, sp, #0
  4012de:	6078      	str	r0, [r7, #4]
	return 1;
  4012e0:	2301      	movs	r3, #1
}
  4012e2:	4618      	mov	r0, r3
  4012e4:	370c      	adds	r7, #12
  4012e6:	46bd      	mov	sp, r7
  4012e8:	f85d 7b04 	ldr.w	r7, [sp], #4
  4012ec:	4770      	bx	lr

004012ee <_lseek>:

extern int _lseek(int file, int ptr, int dir)
{
  4012ee:	b480      	push	{r7}
  4012f0:	b085      	sub	sp, #20
  4012f2:	af00      	add	r7, sp, #0
  4012f4:	60f8      	str	r0, [r7, #12]
  4012f6:	60b9      	str	r1, [r7, #8]
  4012f8:	607a      	str	r2, [r7, #4]
	return 0;
  4012fa:	2300      	movs	r3, #0
}
  4012fc:	4618      	mov	r0, r3
  4012fe:	3714      	adds	r7, #20
  401300:	46bd      	mov	sp, r7
  401302:	f85d 7b04 	ldr.w	r7, [sp], #4
  401306:	4770      	bx	lr

00401308 <osc_get_rate>:
{
  401308:	b480      	push	{r7}
  40130a:	b083      	sub	sp, #12
  40130c:	af00      	add	r7, sp, #0
  40130e:	6078      	str	r0, [r7, #4]
	switch (ul_id) {
  401310:	687b      	ldr	r3, [r7, #4]
  401312:	2b07      	cmp	r3, #7
  401314:	d825      	bhi.n	401362 <osc_get_rate+0x5a>
  401316:	a201      	add	r2, pc, #4	; (adr r2, 40131c <osc_get_rate+0x14>)
  401318:	f852 f023 	ldr.w	pc, [r2, r3, lsl #2]
  40131c:	0040133d 	.word	0x0040133d
  401320:	00401343 	.word	0x00401343
  401324:	00401349 	.word	0x00401349
  401328:	0040134f 	.word	0x0040134f
  40132c:	00401353 	.word	0x00401353
  401330:	00401357 	.word	0x00401357
  401334:	0040135b 	.word	0x0040135b
  401338:	0040135f 	.word	0x0040135f
		return OSC_SLCK_32K_RC_HZ;
  40133c:	f44f 43fa 	mov.w	r3, #32000	; 0x7d00
  401340:	e010      	b.n	401364 <osc_get_rate+0x5c>
		return BOARD_FREQ_SLCK_XTAL;
  401342:	f44f 4300 	mov.w	r3, #32768	; 0x8000
  401346:	e00d      	b.n	401364 <osc_get_rate+0x5c>
		return BOARD_FREQ_SLCK_BYPASS;
  401348:	f44f 4300 	mov.w	r3, #32768	; 0x8000
  40134c:	e00a      	b.n	401364 <osc_get_rate+0x5c>
		return OSC_MAINCK_4M_RC_HZ;
  40134e:	4b08      	ldr	r3, [pc, #32]	; (401370 <osc_get_rate+0x68>)
  401350:	e008      	b.n	401364 <osc_get_rate+0x5c>
		return OSC_MAINCK_8M_RC_HZ;
  401352:	4b08      	ldr	r3, [pc, #32]	; (401374 <osc_get_rate+0x6c>)
  401354:	e006      	b.n	401364 <osc_get_rate+0x5c>
		return OSC_MAINCK_12M_RC_HZ;
  401356:	4b08      	ldr	r3, [pc, #32]	; (401378 <osc_get_rate+0x70>)
  401358:	e004      	b.n	401364 <osc_get_rate+0x5c>
		return BOARD_FREQ_MAINCK_XTAL;
  40135a:	4b07      	ldr	r3, [pc, #28]	; (401378 <osc_get_rate+0x70>)
  40135c:	e002      	b.n	401364 <osc_get_rate+0x5c>
		return BOARD_FREQ_MAINCK_BYPASS;
  40135e:	4b06      	ldr	r3, [pc, #24]	; (401378 <osc_get_rate+0x70>)
  401360:	e000      	b.n	401364 <osc_get_rate+0x5c>
	return 0;
  401362:	2300      	movs	r3, #0
}
  401364:	4618      	mov	r0, r3
  401366:	370c      	adds	r7, #12
  401368:	46bd      	mov	sp, r7
  40136a:	f85d 7b04 	ldr.w	r7, [sp], #4
  40136e:	4770      	bx	lr
  401370:	003d0900 	.word	0x003d0900
  401374:	007a1200 	.word	0x007a1200
  401378:	00b71b00 	.word	0x00b71b00

0040137c <sysclk_get_main_hz>:
{
  40137c:	b580      	push	{r7, lr}
  40137e:	af00      	add	r7, sp, #0
		return pll_get_default_rate(0);
  401380:	2006      	movs	r0, #6
  401382:	4b05      	ldr	r3, [pc, #20]	; (401398 <sysclk_get_main_hz+0x1c>)
  401384:	4798      	blx	r3
  401386:	4602      	mov	r2, r0
  401388:	4613      	mov	r3, r2
  40138a:	009b      	lsls	r3, r3, #2
  40138c:	4413      	add	r3, r2
  40138e:	009a      	lsls	r2, r3, #2
  401390:	4413      	add	r3, r2
}
  401392:	4618      	mov	r0, r3
  401394:	bd80      	pop	{r7, pc}
  401396:	bf00      	nop
  401398:	00401309 	.word	0x00401309

0040139c <sysclk_get_cpu_hz>:
{
  40139c:	b580      	push	{r7, lr}
  40139e:	af00      	add	r7, sp, #0
	return sysclk_get_main_hz() /
  4013a0:	4b02      	ldr	r3, [pc, #8]	; (4013ac <sysclk_get_cpu_hz+0x10>)
  4013a2:	4798      	blx	r3
  4013a4:	4603      	mov	r3, r0
}
  4013a6:	4618      	mov	r0, r3
  4013a8:	bd80      	pop	{r7, pc}
  4013aa:	bf00      	nop
  4013ac:	0040137d 	.word	0x0040137d

004013b0 <sysclk_get_peripheral_hz>:
 * \brief Retrieves the current rate in Hz of the peripheral clocks.
 *
 * \return Frequency of the peripheral clocks, in Hz.
 */
static inline uint32_t sysclk_get_peripheral_hz(void)
{
  4013b0:	b580      	push	{r7, lr}
  4013b2:	af00      	add	r7, sp, #0
	/* CONFIG_SYSCLK_PRES is the register value for setting the expected */
	/* prescaler, not an immediate value. */
	return sysclk_get_main_hz() /
  4013b4:	4b02      	ldr	r3, [pc, #8]	; (4013c0 <sysclk_get_peripheral_hz+0x10>)
  4013b6:	4798      	blx	r3
  4013b8:	4603      	mov	r3, r0
  4013ba:	085b      	lsrs	r3, r3, #1
		(((CONFIG_SYSCLK_PRES == SYSCLK_PRES_3) ? 3 : (1 << (CONFIG_SYSCLK_PRES >> PMC_MCKR_PRES_Pos))) * CONFIG_SYSCLK_DIV);
}
  4013bc:	4618      	mov	r0, r3
  4013be:	bd80      	pop	{r7, pc}
  4013c0:	0040137d 	.word	0x0040137d

004013c4 <sysclk_enable_peripheral_clock>:
 * \brief Enable a peripheral's clock.
 *
 * \param ul_id Id (number) of the peripheral clock.
 */
static inline void sysclk_enable_peripheral_clock(uint32_t ul_id)
{
  4013c4:	b580      	push	{r7, lr}
  4013c6:	b082      	sub	sp, #8
  4013c8:	af00      	add	r7, sp, #0
  4013ca:	6078      	str	r0, [r7, #4]
	pmc_enable_periph_clk(ul_id);
  4013cc:	6878      	ldr	r0, [r7, #4]
  4013ce:	4b03      	ldr	r3, [pc, #12]	; (4013dc <sysclk_enable_peripheral_clock+0x18>)
  4013d0:	4798      	blx	r3
}
  4013d2:	bf00      	nop
  4013d4:	3708      	adds	r7, #8
  4013d6:	46bd      	mov	sp, r7
  4013d8:	bd80      	pop	{r7, pc}
  4013da:	bf00      	nop
  4013dc:	00400b19 	.word	0x00400b19

004013e0 <usart_serial_init>:
 * \param opt      Options needed to set up RS232 communication (see
 * \ref usart_options_t).
 */
static inline void usart_serial_init(usart_if p_usart,
		usart_serial_options_t *opt)
{
  4013e0:	b580      	push	{r7, lr}
  4013e2:	b08c      	sub	sp, #48	; 0x30
  4013e4:	af00      	add	r7, sp, #0
  4013e6:	6078      	str	r0, [r7, #4]
  4013e8:	6039      	str	r1, [r7, #0]
#if ((!SAM4L) && (!SAMG55))
	sam_uart_opt_t uart_settings;
	uart_settings.ul_mck = sysclk_get_peripheral_hz();
  4013ea:	4b49      	ldr	r3, [pc, #292]	; (401510 <usart_serial_init+0x130>)
  4013ec:	4798      	blx	r3
  4013ee:	4603      	mov	r3, r0
  4013f0:	627b      	str	r3, [r7, #36]	; 0x24
	uart_settings.ul_baudrate = opt->baudrate;
  4013f2:	683b      	ldr	r3, [r7, #0]
  4013f4:	681b      	ldr	r3, [r3, #0]
  4013f6:	62bb      	str	r3, [r7, #40]	; 0x28
	uart_settings.ul_mode = opt->paritytype;
  4013f8:	683b      	ldr	r3, [r7, #0]
  4013fa:	689b      	ldr	r3, [r3, #8]
  4013fc:	62fb      	str	r3, [r7, #44]	; 0x2c
#endif

	sam_usart_opt_t usart_settings;
	usart_settings.baudrate = opt->baudrate;
  4013fe:	683b      	ldr	r3, [r7, #0]
  401400:	681b      	ldr	r3, [r3, #0]
  401402:	60fb      	str	r3, [r7, #12]
	usart_settings.char_length = opt->charlength;
  401404:	683b      	ldr	r3, [r7, #0]
  401406:	685b      	ldr	r3, [r3, #4]
  401408:	613b      	str	r3, [r7, #16]
	usart_settings.parity_type = opt->paritytype;
  40140a:	683b      	ldr	r3, [r7, #0]
  40140c:	689b      	ldr	r3, [r3, #8]
  40140e:	617b      	str	r3, [r7, #20]
	usart_settings.stop_bits= opt->stopbits;
  401410:	683b      	ldr	r3, [r7, #0]
  401412:	68db      	ldr	r3, [r3, #12]
  401414:	61bb      	str	r3, [r7, #24]
	usart_settings.channel_mode= US_MR_CHMODE_NORMAL;
  401416:	2300      	movs	r3, #0
  401418:	61fb      	str	r3, [r7, #28]
		/* Configure UART */
		uart_init((Uart*)p_usart, &uart_settings);
	}
#else
# ifdef UART0
	if (UART0 == (Uart*)p_usart) {
  40141a:	687b      	ldr	r3, [r7, #4]
  40141c:	4a3d      	ldr	r2, [pc, #244]	; (401514 <usart_serial_init+0x134>)
  40141e:	4293      	cmp	r3, r2
  401420:	d108      	bne.n	401434 <usart_serial_init+0x54>
		sysclk_enable_peripheral_clock(ID_UART0);
  401422:	2007      	movs	r0, #7
  401424:	4b3c      	ldr	r3, [pc, #240]	; (401518 <usart_serial_init+0x138>)
  401426:	4798      	blx	r3
		/* Configure UART */
		uart_init((Uart*)p_usart, &uart_settings);
  401428:	f107 0324 	add.w	r3, r7, #36	; 0x24
  40142c:	4619      	mov	r1, r3
  40142e:	6878      	ldr	r0, [r7, #4]
  401430:	4b3a      	ldr	r3, [pc, #232]	; (40151c <usart_serial_init+0x13c>)
  401432:	4798      	blx	r3
	}
# endif
# ifdef UART1
	if (UART1 == (Uart*)p_usart) {
  401434:	687b      	ldr	r3, [r7, #4]
  401436:	4a3a      	ldr	r2, [pc, #232]	; (401520 <usart_serial_init+0x140>)
  401438:	4293      	cmp	r3, r2
  40143a:	d108      	bne.n	40144e <usart_serial_init+0x6e>
		sysclk_enable_peripheral_clock(ID_UART1);
  40143c:	2008      	movs	r0, #8
  40143e:	4b36      	ldr	r3, [pc, #216]	; (401518 <usart_serial_init+0x138>)
  401440:	4798      	blx	r3
		/* Configure UART */
		uart_init((Uart*)p_usart, &uart_settings);
  401442:	f107 0324 	add.w	r3, r7, #36	; 0x24
  401446:	4619      	mov	r1, r3
  401448:	6878      	ldr	r0, [r7, #4]
  40144a:	4b34      	ldr	r3, [pc, #208]	; (40151c <usart_serial_init+0x13c>)
  40144c:	4798      	blx	r3
	}
# endif
# ifdef UART2
	if (UART2 == (Uart*)p_usart) {
  40144e:	687b      	ldr	r3, [r7, #4]
  401450:	4a34      	ldr	r2, [pc, #208]	; (401524 <usart_serial_init+0x144>)
  401452:	4293      	cmp	r3, r2
  401454:	d108      	bne.n	401468 <usart_serial_init+0x88>
		sysclk_enable_peripheral_clock(ID_UART2);
  401456:	202c      	movs	r0, #44	; 0x2c
  401458:	4b2f      	ldr	r3, [pc, #188]	; (401518 <usart_serial_init+0x138>)
  40145a:	4798      	blx	r3
		/* Configure UART */
		uart_init((Uart*)p_usart, &uart_settings);
  40145c:	f107 0324 	add.w	r3, r7, #36	; 0x24
  401460:	4619      	mov	r1, r3
  401462:	6878      	ldr	r0, [r7, #4]
  401464:	4b2d      	ldr	r3, [pc, #180]	; (40151c <usart_serial_init+0x13c>)
  401466:	4798      	blx	r3
	}
# endif
# ifdef UART3
	if (UART3 == (Uart*)p_usart) {
  401468:	687b      	ldr	r3, [r7, #4]
  40146a:	4a2f      	ldr	r2, [pc, #188]	; (401528 <usart_serial_init+0x148>)
  40146c:	4293      	cmp	r3, r2
  40146e:	d108      	bne.n	401482 <usart_serial_init+0xa2>
		sysclk_enable_peripheral_clock(ID_UART3);
  401470:	202d      	movs	r0, #45	; 0x2d
  401472:	4b29      	ldr	r3, [pc, #164]	; (401518 <usart_serial_init+0x138>)
  401474:	4798      	blx	r3
		/* Configure UART */
		uart_init((Uart*)p_usart, &uart_settings);
  401476:	f107 0324 	add.w	r3, r7, #36	; 0x24
  40147a:	4619      	mov	r1, r3
  40147c:	6878      	ldr	r0, [r7, #4]
  40147e:	4b27      	ldr	r3, [pc, #156]	; (40151c <usart_serial_init+0x13c>)
  401480:	4798      	blx	r3
		usart_enable_tx(p_usart);
		usart_enable_rx(p_usart);
	}
#else
# ifdef USART0
	if (USART0 == p_usart) {
  401482:	687b      	ldr	r3, [r7, #4]
  401484:	4a29      	ldr	r2, [pc, #164]	; (40152c <usart_serial_init+0x14c>)
  401486:	4293      	cmp	r3, r2
  401488:	d111      	bne.n	4014ae <usart_serial_init+0xce>
#if (!SAM4L)
#if (SAMG55)
		flexcom_enable(FLEXCOM0);
		flexcom_set_opmode(FLEXCOM0, FLEXCOM_USART);
#else
		sysclk_enable_peripheral_clock(ID_USART0);
  40148a:	200d      	movs	r0, #13
  40148c:	4b22      	ldr	r3, [pc, #136]	; (401518 <usart_serial_init+0x138>)
  40148e:	4798      	blx	r3
#endif
		/* Configure USART */
		usart_init_rs232(p_usart, &usart_settings,
  401490:	4b1f      	ldr	r3, [pc, #124]	; (401510 <usart_serial_init+0x130>)
  401492:	4798      	blx	r3
  401494:	4602      	mov	r2, r0
  401496:	f107 030c 	add.w	r3, r7, #12
  40149a:	4619      	mov	r1, r3
  40149c:	6878      	ldr	r0, [r7, #4]
  40149e:	4b24      	ldr	r3, [pc, #144]	; (401530 <usart_serial_init+0x150>)
  4014a0:	4798      	blx	r3
		/* Configure USART */
		usart_init_rs232(p_usart, &usart_settings,
				sysclk_get_peripheral_bus_hz(p_usart));
#endif
		/* Enable the receiver and transmitter. */
		usart_enable_tx(p_usart);
  4014a2:	6878      	ldr	r0, [r7, #4]
  4014a4:	4b23      	ldr	r3, [pc, #140]	; (401534 <usart_serial_init+0x154>)
  4014a6:	4798      	blx	r3
		usart_enable_rx(p_usart);
  4014a8:	6878      	ldr	r0, [r7, #4]
  4014aa:	4b23      	ldr	r3, [pc, #140]	; (401538 <usart_serial_init+0x158>)
  4014ac:	4798      	blx	r3
	}
# endif
# ifdef USART1
	if (USART1 == p_usart) {
  4014ae:	687b      	ldr	r3, [r7, #4]
  4014b0:	4a22      	ldr	r2, [pc, #136]	; (40153c <usart_serial_init+0x15c>)
  4014b2:	4293      	cmp	r3, r2
  4014b4:	d111      	bne.n	4014da <usart_serial_init+0xfa>
#if (!SAM4L)
#if (SAMG55)
		flexcom_enable(FLEXCOM1);
		flexcom_set_opmode(FLEXCOM1, FLEXCOM_USART);
#else
		sysclk_enable_peripheral_clock(ID_USART1);
  4014b6:	200e      	movs	r0, #14
  4014b8:	4b17      	ldr	r3, [pc, #92]	; (401518 <usart_serial_init+0x138>)
  4014ba:	4798      	blx	r3
#endif
		/* Configure USART */
		usart_init_rs232(p_usart, &usart_settings,
  4014bc:	4b14      	ldr	r3, [pc, #80]	; (401510 <usart_serial_init+0x130>)
  4014be:	4798      	blx	r3
  4014c0:	4602      	mov	r2, r0
  4014c2:	f107 030c 	add.w	r3, r7, #12
  4014c6:	4619      	mov	r1, r3
  4014c8:	6878      	ldr	r0, [r7, #4]
  4014ca:	4b19      	ldr	r3, [pc, #100]	; (401530 <usart_serial_init+0x150>)
  4014cc:	4798      	blx	r3
		/* Configure USART */
		usart_init_rs232(p_usart, &usart_settings,
				sysclk_get_peripheral_bus_hz(p_usart));
#endif
		/* Enable the receiver and transmitter. */
		usart_enable_tx(p_usart);
  4014ce:	6878      	ldr	r0, [r7, #4]
  4014d0:	4b18      	ldr	r3, [pc, #96]	; (401534 <usart_serial_init+0x154>)
  4014d2:	4798      	blx	r3
		usart_enable_rx(p_usart);
  4014d4:	6878      	ldr	r0, [r7, #4]
  4014d6:	4b18      	ldr	r3, [pc, #96]	; (401538 <usart_serial_init+0x158>)
  4014d8:	4798      	blx	r3
	}
# endif
# ifdef USART2
	if (USART2 == p_usart) {
  4014da:	687b      	ldr	r3, [r7, #4]
  4014dc:	4a18      	ldr	r2, [pc, #96]	; (401540 <usart_serial_init+0x160>)
  4014de:	4293      	cmp	r3, r2
  4014e0:	d111      	bne.n	401506 <usart_serial_init+0x126>
#if (!SAM4L)
#if (SAMG55)
		flexcom_enable(FLEXCOM2);
		flexcom_set_opmode(FLEXCOM2, FLEXCOM_USART);
#else
		sysclk_enable_peripheral_clock(ID_USART2);
  4014e2:	200f      	movs	r0, #15
  4014e4:	4b0c      	ldr	r3, [pc, #48]	; (401518 <usart_serial_init+0x138>)
  4014e6:	4798      	blx	r3
#endif
		/* Configure USART */
		usart_init_rs232(p_usart, &usart_settings,
  4014e8:	4b09      	ldr	r3, [pc, #36]	; (401510 <usart_serial_init+0x130>)
  4014ea:	4798      	blx	r3
  4014ec:	4602      	mov	r2, r0
  4014ee:	f107 030c 	add.w	r3, r7, #12
  4014f2:	4619      	mov	r1, r3
  4014f4:	6878      	ldr	r0, [r7, #4]
  4014f6:	4b0e      	ldr	r3, [pc, #56]	; (401530 <usart_serial_init+0x150>)
  4014f8:	4798      	blx	r3
		/* Configure USART */
		usart_init_rs232(p_usart, &usart_settings,
				sysclk_get_peripheral_bus_hz(p_usart));
#endif
		/* Enable the receiver and transmitter. */
		usart_enable_tx(p_usart);
  4014fa:	6878      	ldr	r0, [r7, #4]
  4014fc:	4b0d      	ldr	r3, [pc, #52]	; (401534 <usart_serial_init+0x154>)
  4014fe:	4798      	blx	r3
		usart_enable_rx(p_usart);
  401500:	6878      	ldr	r0, [r7, #4]
  401502:	4b0d      	ldr	r3, [pc, #52]	; (401538 <usart_serial_init+0x158>)
  401504:	4798      	blx	r3
	}
# endif

#endif /* ifdef USART */

}
  401506:	bf00      	nop
  401508:	3730      	adds	r7, #48	; 0x30
  40150a:	46bd      	mov	sp, r7
  40150c:	bd80      	pop	{r7, pc}
  40150e:	bf00      	nop
  401510:	004013b1 	.word	0x004013b1
  401514:	400e0800 	.word	0x400e0800
  401518:	004013c5 	.word	0x004013c5
  40151c:	00400b9d 	.word	0x00400b9d
  401520:	400e0a00 	.word	0x400e0a00
  401524:	400e1a00 	.word	0x400e1a00
  401528:	400e1c00 	.word	0x400e1c00
  40152c:	40024000 	.word	0x40024000
  401530:	00400d5d 	.word	0x00400d5d
  401534:	00400de1 	.word	0x00400de1
  401538:	00400e15 	.word	0x00400e15
  40153c:	40028000 	.word	0x40028000
  401540:	4002c000 	.word	0x4002c000

00401544 <usart_serial_putchar>:
 *   \retval 1  The character was written.
 *   \retval 0  The function timed out before the USART transmitter became
 * ready to send.
 */
static inline int usart_serial_putchar(usart_if p_usart, const uint8_t c)
{
  401544:	b580      	push	{r7, lr}
  401546:	b082      	sub	sp, #8
  401548:	af00      	add	r7, sp, #0
  40154a:	6078      	str	r0, [r7, #4]
  40154c:	460b      	mov	r3, r1
  40154e:	70fb      	strb	r3, [r7, #3]
		while (uart_write((Uart*)p_usart, c)!=0);
		return 1;
	}
#else
# ifdef UART0
	if (UART0 == (Uart*)p_usart) {
  401550:	687b      	ldr	r3, [r7, #4]
  401552:	4a36      	ldr	r2, [pc, #216]	; (40162c <usart_serial_putchar+0xe8>)
  401554:	4293      	cmp	r3, r2
  401556:	d10a      	bne.n	40156e <usart_serial_putchar+0x2a>
		while (uart_write((Uart*)p_usart, c)!=0);
  401558:	bf00      	nop
  40155a:	78fb      	ldrb	r3, [r7, #3]
  40155c:	4619      	mov	r1, r3
  40155e:	6878      	ldr	r0, [r7, #4]
  401560:	4b33      	ldr	r3, [pc, #204]	; (401630 <usart_serial_putchar+0xec>)
  401562:	4798      	blx	r3
  401564:	4603      	mov	r3, r0
  401566:	2b00      	cmp	r3, #0
  401568:	d1f7      	bne.n	40155a <usart_serial_putchar+0x16>
		return 1;
  40156a:	2301      	movs	r3, #1
  40156c:	e05a      	b.n	401624 <usart_serial_putchar+0xe0>
	}
# endif
# ifdef UART1
	if (UART1 == (Uart*)p_usart) {
  40156e:	687b      	ldr	r3, [r7, #4]
  401570:	4a30      	ldr	r2, [pc, #192]	; (401634 <usart_serial_putchar+0xf0>)
  401572:	4293      	cmp	r3, r2
  401574:	d10a      	bne.n	40158c <usart_serial_putchar+0x48>
		while (uart_write((Uart*)p_usart, c)!=0);
  401576:	bf00      	nop
  401578:	78fb      	ldrb	r3, [r7, #3]
  40157a:	4619      	mov	r1, r3
  40157c:	6878      	ldr	r0, [r7, #4]
  40157e:	4b2c      	ldr	r3, [pc, #176]	; (401630 <usart_serial_putchar+0xec>)
  401580:	4798      	blx	r3
  401582:	4603      	mov	r3, r0
  401584:	2b00      	cmp	r3, #0
  401586:	d1f7      	bne.n	401578 <usart_serial_putchar+0x34>
		return 1;
  401588:	2301      	movs	r3, #1
  40158a:	e04b      	b.n	401624 <usart_serial_putchar+0xe0>
	}
# endif
# ifdef UART2
	if (UART2 == (Uart*)p_usart) {
  40158c:	687b      	ldr	r3, [r7, #4]
  40158e:	4a2a      	ldr	r2, [pc, #168]	; (401638 <usart_serial_putchar+0xf4>)
  401590:	4293      	cmp	r3, r2
  401592:	d10a      	bne.n	4015aa <usart_serial_putchar+0x66>
		while (uart_write((Uart*)p_usart, c)!=0);
  401594:	bf00      	nop
  401596:	78fb      	ldrb	r3, [r7, #3]
  401598:	4619      	mov	r1, r3
  40159a:	6878      	ldr	r0, [r7, #4]
  40159c:	4b24      	ldr	r3, [pc, #144]	; (401630 <usart_serial_putchar+0xec>)
  40159e:	4798      	blx	r3
  4015a0:	4603      	mov	r3, r0
  4015a2:	2b00      	cmp	r3, #0
  4015a4:	d1f7      	bne.n	401596 <usart_serial_putchar+0x52>
		return 1;
  4015a6:	2301      	movs	r3, #1
  4015a8:	e03c      	b.n	401624 <usart_serial_putchar+0xe0>
	}
# endif
# ifdef UART3
	if (UART3 == (Uart*)p_usart) {
  4015aa:	687b      	ldr	r3, [r7, #4]
  4015ac:	4a23      	ldr	r2, [pc, #140]	; (40163c <usart_serial_putchar+0xf8>)
  4015ae:	4293      	cmp	r3, r2
  4015b0:	d10a      	bne.n	4015c8 <usart_serial_putchar+0x84>
		while (uart_write((Uart*)p_usart, c)!=0);
  4015b2:	bf00      	nop
  4015b4:	78fb      	ldrb	r3, [r7, #3]
  4015b6:	4619      	mov	r1, r3
  4015b8:	6878      	ldr	r0, [r7, #4]
  4015ba:	4b1d      	ldr	r3, [pc, #116]	; (401630 <usart_serial_putchar+0xec>)
  4015bc:	4798      	blx	r3
  4015be:	4603      	mov	r3, r0
  4015c0:	2b00      	cmp	r3, #0
  4015c2:	d1f7      	bne.n	4015b4 <usart_serial_putchar+0x70>
		return 1;
  4015c4:	2301      	movs	r3, #1
  4015c6:	e02d      	b.n	401624 <usart_serial_putchar+0xe0>
		while (usart_write(p_usart, c)!=0);
		return 1;
	}
#else
# ifdef USART0
	if (USART0 == p_usart) {
  4015c8:	687b      	ldr	r3, [r7, #4]
  4015ca:	4a1d      	ldr	r2, [pc, #116]	; (401640 <usart_serial_putchar+0xfc>)
  4015cc:	4293      	cmp	r3, r2
  4015ce:	d10a      	bne.n	4015e6 <usart_serial_putchar+0xa2>
		while (usart_write(p_usart, c)!=0);
  4015d0:	bf00      	nop
  4015d2:	78fb      	ldrb	r3, [r7, #3]
  4015d4:	4619      	mov	r1, r3
  4015d6:	6878      	ldr	r0, [r7, #4]
  4015d8:	4b1a      	ldr	r3, [pc, #104]	; (401644 <usart_serial_putchar+0x100>)
  4015da:	4798      	blx	r3
  4015dc:	4603      	mov	r3, r0
  4015de:	2b00      	cmp	r3, #0
  4015e0:	d1f7      	bne.n	4015d2 <usart_serial_putchar+0x8e>
		return 1;
  4015e2:	2301      	movs	r3, #1
  4015e4:	e01e      	b.n	401624 <usart_serial_putchar+0xe0>
	}
# endif
# ifdef USART1
	if (USART1 == p_usart) {
  4015e6:	687b      	ldr	r3, [r7, #4]
  4015e8:	4a17      	ldr	r2, [pc, #92]	; (401648 <usart_serial_putchar+0x104>)
  4015ea:	4293      	cmp	r3, r2
  4015ec:	d10a      	bne.n	401604 <usart_serial_putchar+0xc0>
		while (usart_write(p_usart, c)!=0);
  4015ee:	bf00      	nop
  4015f0:	78fb      	ldrb	r3, [r7, #3]
  4015f2:	4619      	mov	r1, r3
  4015f4:	6878      	ldr	r0, [r7, #4]
  4015f6:	4b13      	ldr	r3, [pc, #76]	; (401644 <usart_serial_putchar+0x100>)
  4015f8:	4798      	blx	r3
  4015fa:	4603      	mov	r3, r0
  4015fc:	2b00      	cmp	r3, #0
  4015fe:	d1f7      	bne.n	4015f0 <usart_serial_putchar+0xac>
		return 1;
  401600:	2301      	movs	r3, #1
  401602:	e00f      	b.n	401624 <usart_serial_putchar+0xe0>
	}
# endif
# ifdef USART2
	if (USART2 == p_usart) {
  401604:	687b      	ldr	r3, [r7, #4]
  401606:	4a11      	ldr	r2, [pc, #68]	; (40164c <usart_serial_putchar+0x108>)
  401608:	4293      	cmp	r3, r2
  40160a:	d10a      	bne.n	401622 <usart_serial_putchar+0xde>
		while (usart_write(p_usart, c)!=0);
  40160c:	bf00      	nop
  40160e:	78fb      	ldrb	r3, [r7, #3]
  401610:	4619      	mov	r1, r3
  401612:	6878      	ldr	r0, [r7, #4]
  401614:	4b0b      	ldr	r3, [pc, #44]	; (401644 <usart_serial_putchar+0x100>)
  401616:	4798      	blx	r3
  401618:	4603      	mov	r3, r0
  40161a:	2b00      	cmp	r3, #0
  40161c:	d1f7      	bne.n	40160e <usart_serial_putchar+0xca>
		return 1;
  40161e:	2301      	movs	r3, #1
  401620:	e000      	b.n	401624 <usart_serial_putchar+0xe0>
		return 1;
	}
# endif
#endif /* ifdef USART */

	return 0;
  401622:	2300      	movs	r3, #0
}
  401624:	4618      	mov	r0, r3
  401626:	3708      	adds	r7, #8
  401628:	46bd      	mov	sp, r7
  40162a:	bd80      	pop	{r7, pc}
  40162c:	400e0800 	.word	0x400e0800
  401630:	00400c1b 	.word	0x00400c1b
  401634:	400e0a00 	.word	0x400e0a00
  401638:	400e1a00 	.word	0x400e1a00
  40163c:	400e1c00 	.word	0x400e1c00
  401640:	40024000 	.word	0x40024000
  401644:	00400e81 	.word	0x00400e81
  401648:	40028000 	.word	0x40028000
  40164c:	4002c000 	.word	0x4002c000

00401650 <usart_serial_getchar>:
 * \param p_usart   Base address of the USART instance.
 * \param data   Data to read
 *
 */
static inline void usart_serial_getchar(usart_if p_usart, uint8_t *data)
{
  401650:	b580      	push	{r7, lr}
  401652:	b084      	sub	sp, #16
  401654:	af00      	add	r7, sp, #0
  401656:	6078      	str	r0, [r7, #4]
  401658:	6039      	str	r1, [r7, #0]
	uint32_t val = 0;
  40165a:	2300      	movs	r3, #0
  40165c:	60fb      	str	r3, [r7, #12]
	if (UART == (Uart*)p_usart) {
		while (uart_read((Uart*)p_usart, data));
	}
#else
# ifdef UART0
	if (UART0 == (Uart*)p_usart) {
  40165e:	687b      	ldr	r3, [r7, #4]
  401660:	4a34      	ldr	r2, [pc, #208]	; (401734 <usart_serial_getchar+0xe4>)
  401662:	4293      	cmp	r3, r2
  401664:	d107      	bne.n	401676 <usart_serial_getchar+0x26>
		while (uart_read((Uart*)p_usart, data));
  401666:	bf00      	nop
  401668:	6839      	ldr	r1, [r7, #0]
  40166a:	6878      	ldr	r0, [r7, #4]
  40166c:	4b32      	ldr	r3, [pc, #200]	; (401738 <usart_serial_getchar+0xe8>)
  40166e:	4798      	blx	r3
  401670:	4603      	mov	r3, r0
  401672:	2b00      	cmp	r3, #0
  401674:	d1f8      	bne.n	401668 <usart_serial_getchar+0x18>
	}
# endif
# ifdef UART1
	if (UART1 == (Uart*)p_usart) {
  401676:	687b      	ldr	r3, [r7, #4]
  401678:	4a30      	ldr	r2, [pc, #192]	; (40173c <usart_serial_getchar+0xec>)
  40167a:	4293      	cmp	r3, r2
  40167c:	d107      	bne.n	40168e <usart_serial_getchar+0x3e>
		while (uart_read((Uart*)p_usart, data));
  40167e:	bf00      	nop
  401680:	6839      	ldr	r1, [r7, #0]
  401682:	6878      	ldr	r0, [r7, #4]
  401684:	4b2c      	ldr	r3, [pc, #176]	; (401738 <usart_serial_getchar+0xe8>)
  401686:	4798      	blx	r3
  401688:	4603      	mov	r3, r0
  40168a:	2b00      	cmp	r3, #0
  40168c:	d1f8      	bne.n	401680 <usart_serial_getchar+0x30>
	}
# endif
# ifdef UART2
	if (UART2 == (Uart*)p_usart) {
  40168e:	687b      	ldr	r3, [r7, #4]
  401690:	4a2b      	ldr	r2, [pc, #172]	; (401740 <usart_serial_getchar+0xf0>)
  401692:	4293      	cmp	r3, r2
  401694:	d107      	bne.n	4016a6 <usart_serial_getchar+0x56>
		while (uart_read((Uart*)p_usart, data));
  401696:	bf00      	nop
  401698:	6839      	ldr	r1, [r7, #0]
  40169a:	6878      	ldr	r0, [r7, #4]
  40169c:	4b26      	ldr	r3, [pc, #152]	; (401738 <usart_serial_getchar+0xe8>)
  40169e:	4798      	blx	r3
  4016a0:	4603      	mov	r3, r0
  4016a2:	2b00      	cmp	r3, #0
  4016a4:	d1f8      	bne.n	401698 <usart_serial_getchar+0x48>
	}
# endif
# ifdef UART3
	if (UART3 == (Uart*)p_usart) {
  4016a6:	687b      	ldr	r3, [r7, #4]
  4016a8:	4a26      	ldr	r2, [pc, #152]	; (401744 <usart_serial_getchar+0xf4>)
  4016aa:	4293      	cmp	r3, r2
  4016ac:	d107      	bne.n	4016be <usart_serial_getchar+0x6e>
		while (uart_read((Uart*)p_usart, data));
  4016ae:	bf00      	nop
  4016b0:	6839      	ldr	r1, [r7, #0]
  4016b2:	6878      	ldr	r0, [r7, #4]
  4016b4:	4b20      	ldr	r3, [pc, #128]	; (401738 <usart_serial_getchar+0xe8>)
  4016b6:	4798      	blx	r3
  4016b8:	4603      	mov	r3, r0
  4016ba:	2b00      	cmp	r3, #0
  4016bc:	d1f8      	bne.n	4016b0 <usart_serial_getchar+0x60>
		while (usart_read(p_usart, &val));
		*data = (uint8_t)(val & 0xFF);
	}
#else
# ifdef USART0
	if (USART0 == p_usart) {
  4016be:	687b      	ldr	r3, [r7, #4]
  4016c0:	4a21      	ldr	r2, [pc, #132]	; (401748 <usart_serial_getchar+0xf8>)
  4016c2:	4293      	cmp	r3, r2
  4016c4:	d10d      	bne.n	4016e2 <usart_serial_getchar+0x92>
		while (usart_read(p_usart, &val));
  4016c6:	bf00      	nop
  4016c8:	f107 030c 	add.w	r3, r7, #12
  4016cc:	4619      	mov	r1, r3
  4016ce:	6878      	ldr	r0, [r7, #4]
  4016d0:	4b1e      	ldr	r3, [pc, #120]	; (40174c <usart_serial_getchar+0xfc>)
  4016d2:	4798      	blx	r3
  4016d4:	4603      	mov	r3, r0
  4016d6:	2b00      	cmp	r3, #0
  4016d8:	d1f6      	bne.n	4016c8 <usart_serial_getchar+0x78>
		*data = (uint8_t)(val & 0xFF);
  4016da:	68fb      	ldr	r3, [r7, #12]
  4016dc:	b2da      	uxtb	r2, r3
  4016de:	683b      	ldr	r3, [r7, #0]
  4016e0:	701a      	strb	r2, [r3, #0]
	}
# endif
# ifdef USART1
	if (USART1 == p_usart) {
  4016e2:	687b      	ldr	r3, [r7, #4]
  4016e4:	4a1a      	ldr	r2, [pc, #104]	; (401750 <usart_serial_getchar+0x100>)
  4016e6:	4293      	cmp	r3, r2
  4016e8:	d10d      	bne.n	401706 <usart_serial_getchar+0xb6>
		while (usart_read(p_usart, &val));
  4016ea:	bf00      	nop
  4016ec:	f107 030c 	add.w	r3, r7, #12
  4016f0:	4619      	mov	r1, r3
  4016f2:	6878      	ldr	r0, [r7, #4]
  4016f4:	4b15      	ldr	r3, [pc, #84]	; (40174c <usart_serial_getchar+0xfc>)
  4016f6:	4798      	blx	r3
  4016f8:	4603      	mov	r3, r0
  4016fa:	2b00      	cmp	r3, #0
  4016fc:	d1f6      	bne.n	4016ec <usart_serial_getchar+0x9c>
		*data = (uint8_t)(val & 0xFF);
  4016fe:	68fb      	ldr	r3, [r7, #12]
  401700:	b2da      	uxtb	r2, r3
  401702:	683b      	ldr	r3, [r7, #0]
  401704:	701a      	strb	r2, [r3, #0]
	}
# endif
# ifdef USART2
	if (USART2 == p_usart) {
  401706:	687b      	ldr	r3, [r7, #4]
  401708:	4a12      	ldr	r2, [pc, #72]	; (401754 <usart_serial_getchar+0x104>)
  40170a:	4293      	cmp	r3, r2
  40170c:	d10d      	bne.n	40172a <usart_serial_getchar+0xda>
		while (usart_read(p_usart, &val));
  40170e:	bf00      	nop
  401710:	f107 030c 	add.w	r3, r7, #12
  401714:	4619      	mov	r1, r3
  401716:	6878      	ldr	r0, [r7, #4]
  401718:	4b0c      	ldr	r3, [pc, #48]	; (40174c <usart_serial_getchar+0xfc>)
  40171a:	4798      	blx	r3
  40171c:	4603      	mov	r3, r0
  40171e:	2b00      	cmp	r3, #0
  401720:	d1f6      	bne.n	401710 <usart_serial_getchar+0xc0>
		*data = (uint8_t)(val & 0xFF);
  401722:	68fb      	ldr	r3, [r7, #12]
  401724:	b2da      	uxtb	r2, r3
  401726:	683b      	ldr	r3, [r7, #0]
  401728:	701a      	strb	r2, [r3, #0]
		*data = (uint8_t)(val & 0xFF);
	}
# endif
#endif /* ifdef USART */

}
  40172a:	bf00      	nop
  40172c:	3710      	adds	r7, #16
  40172e:	46bd      	mov	sp, r7
  401730:	bd80      	pop	{r7, pc}
  401732:	bf00      	nop
  401734:	400e0800 	.word	0x400e0800
  401738:	00400c4b 	.word	0x00400c4b
  40173c:	400e0a00 	.word	0x400e0a00
  401740:	400e1a00 	.word	0x400e1a00
  401744:	400e1c00 	.word	0x400e1c00
  401748:	40024000 	.word	0x40024000
  40174c:	00400eb3 	.word	0x00400eb3
  401750:	40028000 	.word	0x40028000
  401754:	4002c000 	.word	0x4002c000

00401758 <stdio_serial_init>:
 * \param usart       Base address of the USART instance.
 * \param opt         Options needed to set up RS232 communication (see \ref usart_options_t).
 *
 */
static inline void stdio_serial_init(volatile void *usart, const usart_serial_options_t *opt)
{
  401758:	b580      	push	{r7, lr}
  40175a:	b082      	sub	sp, #8
  40175c:	af00      	add	r7, sp, #0
  40175e:	6078      	str	r0, [r7, #4]
  401760:	6039      	str	r1, [r7, #0]
	stdio_base = (void *)usart;
  401762:	4a0f      	ldr	r2, [pc, #60]	; (4017a0 <stdio_serial_init+0x48>)
  401764:	687b      	ldr	r3, [r7, #4]
  401766:	6013      	str	r3, [r2, #0]
	ptr_put = (int (*)(void volatile*,char))&usart_serial_putchar;
  401768:	4b0e      	ldr	r3, [pc, #56]	; (4017a4 <stdio_serial_init+0x4c>)
  40176a:	4a0f      	ldr	r2, [pc, #60]	; (4017a8 <stdio_serial_init+0x50>)
  40176c:	601a      	str	r2, [r3, #0]
	ptr_get = (void (*)(void volatile*,char*))&usart_serial_getchar;
  40176e:	4b0f      	ldr	r3, [pc, #60]	; (4017ac <stdio_serial_init+0x54>)
  401770:	4a0f      	ldr	r2, [pc, #60]	; (4017b0 <stdio_serial_init+0x58>)
  401772:	601a      	str	r2, [r3, #0]
# if (XMEGA || MEGA_RF)
	usart_serial_init((USART_t *)usart,opt);
# elif UC3
	usart_serial_init(usart,(usart_serial_options_t *)opt);
# elif SAM
	usart_serial_init((Usart *)usart,(usart_serial_options_t *)opt);
  401774:	6839      	ldr	r1, [r7, #0]
  401776:	6878      	ldr	r0, [r7, #4]
  401778:	4b0e      	ldr	r3, [pc, #56]	; (4017b4 <stdio_serial_init+0x5c>)
  40177a:	4798      	blx	r3
	fdevopen((int (*)(char, FILE*))(_write),(int (*)(FILE*))(_read));
#  endif
#  if UC3 || SAM
	// For AVR32 and SAM GCC
	// Specify that stdout and stdin should not be buffered.
	setbuf(stdout, NULL);
  40177c:	4b0e      	ldr	r3, [pc, #56]	; (4017b8 <stdio_serial_init+0x60>)
  40177e:	681b      	ldr	r3, [r3, #0]
  401780:	689b      	ldr	r3, [r3, #8]
  401782:	2100      	movs	r1, #0
  401784:	4618      	mov	r0, r3
  401786:	4b0d      	ldr	r3, [pc, #52]	; (4017bc <stdio_serial_init+0x64>)
  401788:	4798      	blx	r3
	setbuf(stdin, NULL);
  40178a:	4b0b      	ldr	r3, [pc, #44]	; (4017b8 <stdio_serial_init+0x60>)
  40178c:	681b      	ldr	r3, [r3, #0]
  40178e:	685b      	ldr	r3, [r3, #4]
  401790:	2100      	movs	r1, #0
  401792:	4618      	mov	r0, r3
  401794:	4b09      	ldr	r3, [pc, #36]	; (4017bc <stdio_serial_init+0x64>)
  401796:	4798      	blx	r3
	// and AVR GCC library:
	// - printf() emits one character at a time.
	// - getchar() requests only 1 byte to exit.
#  endif
# endif
}
  401798:	bf00      	nop
  40179a:	3708      	adds	r7, #8
  40179c:	46bd      	mov	sp, r7
  40179e:	bd80      	pop	{r7, pc}
  4017a0:	20400a90 	.word	0x20400a90
  4017a4:	20400a8c 	.word	0x20400a8c
  4017a8:	00401545 	.word	0x00401545
  4017ac:	20400a88 	.word	0x20400a88
  4017b0:	00401651 	.word	0x00401651
  4017b4:	004013e1 	.word	0x004013e1
  4017b8:	20400010 	.word	0x20400010
  4017bc:	004023f5 	.word	0x004023f5

004017c0 <configure_console>:
 * 1 stop bit
 * sem paridade
 */

static void configure_console(void)
{
  4017c0:	b590      	push	{r4, r7, lr}
  4017c2:	b085      	sub	sp, #20
  4017c4:	af00      	add	r7, sp, #0

  /* Configura USART1 Pinos */
  sysclk_enable_peripheral_clock(ID_PIOB);
  4017c6:	200b      	movs	r0, #11
  4017c8:	4b15      	ldr	r3, [pc, #84]	; (401820 <configure_console+0x60>)
  4017ca:	4798      	blx	r3
  sysclk_enable_peripheral_clock(ID_PIOA);
  4017cc:	200a      	movs	r0, #10
  4017ce:	4b14      	ldr	r3, [pc, #80]	; (401820 <configure_console+0x60>)
  4017d0:	4798      	blx	r3
  pio_set_peripheral(PIOB, PIO_PERIPH_D, PIO_PB4);  // RX
  4017d2:	2210      	movs	r2, #16
  4017d4:	f04f 5100 	mov.w	r1, #536870912	; 0x20000000
  4017d8:	4812      	ldr	r0, [pc, #72]	; (401824 <configure_console+0x64>)
  4017da:	4b13      	ldr	r3, [pc, #76]	; (401828 <configure_console+0x68>)
  4017dc:	4798      	blx	r3
  pio_set_peripheral(PIOA, PIO_PERIPH_A, PIO_PA21); // TX
  4017de:	f44f 1200 	mov.w	r2, #2097152	; 0x200000
  4017e2:	f04f 6100 	mov.w	r1, #134217728	; 0x8000000
  4017e6:	4811      	ldr	r0, [pc, #68]	; (40182c <configure_console+0x6c>)
  4017e8:	4b0f      	ldr	r3, [pc, #60]	; (401828 <configure_console+0x68>)
  4017ea:	4798      	blx	r3
 	MATRIX->CCFG_SYSIO |= CCFG_SYSIO_SYSIO4;
  4017ec:	4a10      	ldr	r2, [pc, #64]	; (401830 <configure_console+0x70>)
  4017ee:	4b10      	ldr	r3, [pc, #64]	; (401830 <configure_console+0x70>)
  4017f0:	f8d3 3114 	ldr.w	r3, [r3, #276]	; 0x114
  4017f4:	f043 0310 	orr.w	r3, r3, #16
  4017f8:	f8c2 3114 	str.w	r3, [r2, #276]	; 0x114
 
	const usart_serial_options_t uart_serial_options = {
  4017fc:	4b0d      	ldr	r3, [pc, #52]	; (401834 <configure_console+0x74>)
  4017fe:	463c      	mov	r4, r7
  401800:	cb0f      	ldmia	r3, {r0, r1, r2, r3}
  401802:	e884 000f 	stmia.w	r4, {r0, r1, r2, r3}
		.paritytype = CONF_UART_PARITY,
		.stopbits   = CONF_UART_STOP_BITS,
	};

	/* Configure console UART. */
	sysclk_enable_peripheral_clock(CONSOLE_UART_ID);
  401806:	200e      	movs	r0, #14
  401808:	4b05      	ldr	r3, [pc, #20]	; (401820 <configure_console+0x60>)
  40180a:	4798      	blx	r3
	stdio_serial_init(CONF_UART, &uart_serial_options);
  40180c:	463b      	mov	r3, r7
  40180e:	4619      	mov	r1, r3
  401810:	4809      	ldr	r0, [pc, #36]	; (401838 <configure_console+0x78>)
  401812:	4b0a      	ldr	r3, [pc, #40]	; (40183c <configure_console+0x7c>)
  401814:	4798      	blx	r3
}
  401816:	bf00      	nop
  401818:	3714      	adds	r7, #20
  40181a:	46bd      	mov	sp, r7
  40181c:	bd90      	pop	{r4, r7, pc}
  40181e:	bf00      	nop
  401820:	004013c5 	.word	0x004013c5
  401824:	400e1000 	.word	0x400e1000
  401828:	004005e9 	.word	0x004005e9
  40182c:	400e0e00 	.word	0x400e0e00
  401830:	40088000 	.word	0x40088000
  401834:	004083f4 	.word	0x004083f4
  401838:	40028000 	.word	0x40028000
  40183c:	00401759 	.word	0x00401759

00401840 <USART0_init>:

/**
 * \brief Configure UART console.
 */
static void USART0_init(void){
  401840:	b580      	push	{r7, lr}
  401842:	b086      	sub	sp, #24
  401844:	af00      	add	r7, sp, #0
  
  /* Configura USART0 Pinos */
  sysclk_enable_peripheral_clock(ID_PIOB);
  401846:	200b      	movs	r0, #11
  401848:	4b19      	ldr	r3, [pc, #100]	; (4018b0 <USART0_init+0x70>)
  40184a:	4798      	blx	r3
  pio_set_peripheral(PIOB, PIO_PERIPH_C, PIO_PB0); //Tx	Modulo - Rx Atmel
  40184c:	2201      	movs	r2, #1
  40184e:	f04f 51c0 	mov.w	r1, #402653184	; 0x18000000
  401852:	4818      	ldr	r0, [pc, #96]	; (4018b4 <USART0_init+0x74>)
  401854:	4b18      	ldr	r3, [pc, #96]	; (4018b8 <USART0_init+0x78>)
  401856:	4798      	blx	r3
  pio_set_peripheral(PIOB, PIO_PERIPH_C, PIO_PB1); //Rx Modulo - Tx Atmel
  401858:	2202      	movs	r2, #2
  40185a:	f04f 51c0 	mov.w	r1, #402653184	; 0x18000000
  40185e:	4815      	ldr	r0, [pc, #84]	; (4018b4 <USART0_init+0x74>)
  401860:	4b15      	ldr	r3, [pc, #84]	; (4018b8 <USART0_init+0x78>)
  401862:	4798      	blx	r3
  
  /* Configura opcoes USART */
  const sam_usart_opt_t usart_settings = {
  401864:	463b      	mov	r3, r7
  401866:	2200      	movs	r2, #0
  401868:	601a      	str	r2, [r3, #0]
  40186a:	605a      	str	r2, [r3, #4]
  40186c:	609a      	str	r2, [r3, #8]
  40186e:	60da      	str	r2, [r3, #12]
  401870:	611a      	str	r2, [r3, #16]
  401872:	615a      	str	r2, [r3, #20]
  401874:	f44f 5316 	mov.w	r3, #9600	; 0x2580
  401878:	603b      	str	r3, [r7, #0]
  40187a:	23c0      	movs	r3, #192	; 0xc0
  40187c:	607b      	str	r3, [r7, #4]
  40187e:	f44f 6300 	mov.w	r3, #2048	; 0x800
  401882:	60bb      	str	r3, [r7, #8]
    .stop_bits    = US_MR_NBSTOP_1_BIT,
    .channel_mode = US_MR_CHMODE_NORMAL
  };

  /* Ativa Clock periferico USART0 */
  sysclk_enable_peripheral_clock(ID_USART0);
  401884:	200d      	movs	r0, #13
  401886:	4b0a      	ldr	r3, [pc, #40]	; (4018b0 <USART0_init+0x70>)
  401888:	4798      	blx	r3
  
  /* Configura USART para operar em modo RS232 */
  usart_init_rs232(USART0, &usart_settings, sysclk_get_peripheral_hz());
  40188a:	4b0c      	ldr	r3, [pc, #48]	; (4018bc <USART0_init+0x7c>)
  40188c:	4798      	blx	r3
  40188e:	4602      	mov	r2, r0
  401890:	463b      	mov	r3, r7
  401892:	4619      	mov	r1, r3
  401894:	480a      	ldr	r0, [pc, #40]	; (4018c0 <USART0_init+0x80>)
  401896:	4b0b      	ldr	r3, [pc, #44]	; (4018c4 <USART0_init+0x84>)
  401898:	4798      	blx	r3
  
  /* Enable the receiver and transmitter. */
	usart_enable_tx(USART0);
  40189a:	4809      	ldr	r0, [pc, #36]	; (4018c0 <USART0_init+0x80>)
  40189c:	4b0a      	ldr	r3, [pc, #40]	; (4018c8 <USART0_init+0x88>)
  40189e:	4798      	blx	r3
	usart_enable_rx(USART0);
  4018a0:	4807      	ldr	r0, [pc, #28]	; (4018c0 <USART0_init+0x80>)
  4018a2:	4b0a      	ldr	r3, [pc, #40]	; (4018cc <USART0_init+0x8c>)
  4018a4:	4798      	blx	r3
 }
  4018a6:	bf00      	nop
  4018a8:	3718      	adds	r7, #24
  4018aa:	46bd      	mov	sp, r7
  4018ac:	bd80      	pop	{r7, pc}
  4018ae:	bf00      	nop
  4018b0:	004013c5 	.word	0x004013c5
  4018b4:	400e1000 	.word	0x400e1000
  4018b8:	004005e9 	.word	0x004005e9
  4018bc:	004013b1 	.word	0x004013b1
  4018c0:	40024000 	.word	0x40024000
  4018c4:	00400d5d 	.word	0x00400d5d
  4018c8:	00400de1 	.word	0x00400de1
  4018cc:	00400e15 	.word	0x00400e15

004018d0 <USART2_init>:



static void USART2_init(void){
  4018d0:	b580      	push	{r7, lr}
  4018d2:	b086      	sub	sp, #24
  4018d4:	af00      	add	r7, sp, #0
	
	/* Configura USART0 Pinos */
	sysclk_enable_peripheral_clock(ID_PIOD);
  4018d6:	2010      	movs	r0, #16
  4018d8:	4b1a      	ldr	r3, [pc, #104]	; (401944 <USART2_init+0x74>)
  4018da:	4798      	blx	r3
	pio_set_peripheral(PIOD, PIO_PERIPH_B, PIO_PD15); //RX - TXModulo
  4018dc:	f44f 4200 	mov.w	r2, #32768	; 0x8000
  4018e0:	f04f 5180 	mov.w	r1, #268435456	; 0x10000000
  4018e4:	4818      	ldr	r0, [pc, #96]	; (401948 <USART2_init+0x78>)
  4018e6:	4b19      	ldr	r3, [pc, #100]	; (40194c <USART2_init+0x7c>)
  4018e8:	4798      	blx	r3
	pio_set_peripheral(PIOD, PIO_PERIPH_B, PIO_PD16); //TX - RXModulo	
  4018ea:	f44f 3280 	mov.w	r2, #65536	; 0x10000
  4018ee:	f04f 5180 	mov.w	r1, #268435456	; 0x10000000
  4018f2:	4815      	ldr	r0, [pc, #84]	; (401948 <USART2_init+0x78>)
  4018f4:	4b15      	ldr	r3, [pc, #84]	; (40194c <USART2_init+0x7c>)
  4018f6:	4798      	blx	r3
	
	/* Configura opcoes USART */
	const sam_usart_opt_t usart_settings = {
  4018f8:	463b      	mov	r3, r7
  4018fa:	2200      	movs	r2, #0
  4018fc:	601a      	str	r2, [r3, #0]
  4018fe:	605a      	str	r2, [r3, #4]
  401900:	609a      	str	r2, [r3, #8]
  401902:	60da      	str	r2, [r3, #12]
  401904:	611a      	str	r2, [r3, #16]
  401906:	615a      	str	r2, [r3, #20]
  401908:	f44f 5316 	mov.w	r3, #9600	; 0x2580
  40190c:	603b      	str	r3, [r7, #0]
  40190e:	23c0      	movs	r3, #192	; 0xc0
  401910:	607b      	str	r3, [r7, #4]
  401912:	f44f 6300 	mov.w	r3, #2048	; 0x800
  401916:	60bb      	str	r3, [r7, #8]
		.stop_bits    = US_MR_NBSTOP_1_BIT,
		.channel_mode = US_MR_CHMODE_NORMAL
	};

	/* Ativa Clock periferico USART2 */
	sysclk_enable_peripheral_clock(ID_USART2);
  401918:	200f      	movs	r0, #15
  40191a:	4b0a      	ldr	r3, [pc, #40]	; (401944 <USART2_init+0x74>)
  40191c:	4798      	blx	r3
	
	/* Configura USART para operar em modo RS232 */
	usart_init_rs232(USART2, &usart_settings, sysclk_get_peripheral_hz());
  40191e:	4b0c      	ldr	r3, [pc, #48]	; (401950 <USART2_init+0x80>)
  401920:	4798      	blx	r3
  401922:	4602      	mov	r2, r0
  401924:	463b      	mov	r3, r7
  401926:	4619      	mov	r1, r3
  401928:	480a      	ldr	r0, [pc, #40]	; (401954 <USART2_init+0x84>)
  40192a:	4b0b      	ldr	r3, [pc, #44]	; (401958 <USART2_init+0x88>)
  40192c:	4798      	blx	r3
	
	/* Enable the receiver and transmitter. */
	usart_enable_tx(USART2);
  40192e:	4809      	ldr	r0, [pc, #36]	; (401954 <USART2_init+0x84>)
  401930:	4b0a      	ldr	r3, [pc, #40]	; (40195c <USART2_init+0x8c>)
  401932:	4798      	blx	r3
	usart_enable_rx(USART2);
  401934:	4807      	ldr	r0, [pc, #28]	; (401954 <USART2_init+0x84>)
  401936:	4b0a      	ldr	r3, [pc, #40]	; (401960 <USART2_init+0x90>)
  401938:	4798      	blx	r3
}
  40193a:	bf00      	nop
  40193c:	3718      	adds	r7, #24
  40193e:	46bd      	mov	sp, r7
  401940:	bd80      	pop	{r7, pc}
  401942:	bf00      	nop
  401944:	004013c5 	.word	0x004013c5
  401948:	400e1400 	.word	0x400e1400
  40194c:	004005e9 	.word	0x004005e9
  401950:	004013b1 	.word	0x004013b1
  401954:	4002c000 	.word	0x4002c000
  401958:	00400d5d 	.word	0x00400d5d
  40195c:	00400de1 	.word	0x00400de1
  401960:	00400e15 	.word	0x00400e15

00401964 <usart_putString>:

/**
 *  Envia para o UART uma string
 */
uint32_t usart_putString(Usart* usart, uint8_t *pstring){
  401964:	b580      	push	{r7, lr}
  401966:	b084      	sub	sp, #16
  401968:	af00      	add	r7, sp, #0
  40196a:	6078      	str	r0, [r7, #4]
  40196c:	6039      	str	r1, [r7, #0]
  uint32_t i = 0 ;
  40196e:	2300      	movs	r3, #0
  401970:	60fb      	str	r3, [r7, #12]

  while(*(pstring + i)){
  401972:	e010      	b.n	401996 <usart_putString+0x32>
    usart_serial_putchar(usart, *(pstring+i++));
  401974:	68fb      	ldr	r3, [r7, #12]
  401976:	1c5a      	adds	r2, r3, #1
  401978:	60fa      	str	r2, [r7, #12]
  40197a:	683a      	ldr	r2, [r7, #0]
  40197c:	4413      	add	r3, r2
  40197e:	781b      	ldrb	r3, [r3, #0]
  401980:	4619      	mov	r1, r3
  401982:	6878      	ldr	r0, [r7, #4]
  401984:	4b09      	ldr	r3, [pc, #36]	; (4019ac <usart_putString+0x48>)
  401986:	4798      	blx	r3
    while(!uart_is_tx_empty(usart)){};
  401988:	bf00      	nop
  40198a:	6878      	ldr	r0, [r7, #4]
  40198c:	4b08      	ldr	r3, [pc, #32]	; (4019b0 <usart_putString+0x4c>)
  40198e:	4798      	blx	r3
  401990:	4603      	mov	r3, r0
  401992:	2b00      	cmp	r3, #0
  401994:	d0f9      	beq.n	40198a <usart_putString+0x26>
  while(*(pstring + i)){
  401996:	683a      	ldr	r2, [r7, #0]
  401998:	68fb      	ldr	r3, [r7, #12]
  40199a:	4413      	add	r3, r2
  40199c:	781b      	ldrb	r3, [r3, #0]
  40199e:	2b00      	cmp	r3, #0
  4019a0:	d1e8      	bne.n	401974 <usart_putString+0x10>
  }    
     
  return(i);
  4019a2:	68fb      	ldr	r3, [r7, #12]
}
  4019a4:	4618      	mov	r0, r3
  4019a6:	3710      	adds	r7, #16
  4019a8:	46bd      	mov	sp, r7
  4019aa:	bd80      	pop	{r7, pc}
  4019ac:	00401545 	.word	0x00401545
  4019b0:	00400bf5 	.word	0x00400bf5

004019b4 <usart_getString>:

/*
 * Busca no UART uma string
 */
uint32_t usart_getString(Usart*  usart, uint8_t *pstring){
  4019b4:	b580      	push	{r7, lr}
  4019b6:	b084      	sub	sp, #16
  4019b8:	af00      	add	r7, sp, #0
  4019ba:	6078      	str	r0, [r7, #4]
  4019bc:	6039      	str	r1, [r7, #0]
  uint32_t i = 0 ;
  4019be:	2300      	movs	r3, #0
  4019c0:	60fb      	str	r3, [r7, #12]
  
  usart_serial_getchar(usart, (pstring+i));
  4019c2:	683a      	ldr	r2, [r7, #0]
  4019c4:	68fb      	ldr	r3, [r7, #12]
  4019c6:	4413      	add	r3, r2
  4019c8:	4619      	mov	r1, r3
  4019ca:	6878      	ldr	r0, [r7, #4]
  4019cc:	4b12      	ldr	r3, [pc, #72]	; (401a18 <usart_getString+0x64>)
  4019ce:	4798      	blx	r3
  while(*(pstring+i) != '\n'){
  4019d0:	e011      	b.n	4019f6 <usart_getString+0x42>
	printf("%c",*(pstring+i));
  4019d2:	683a      	ldr	r2, [r7, #0]
  4019d4:	68fb      	ldr	r3, [r7, #12]
  4019d6:	4413      	add	r3, r2
  4019d8:	781b      	ldrb	r3, [r3, #0]
  4019da:	4619      	mov	r1, r3
  4019dc:	480f      	ldr	r0, [pc, #60]	; (401a1c <usart_getString+0x68>)
  4019de:	4b10      	ldr	r3, [pc, #64]	; (401a20 <usart_getString+0x6c>)
  4019e0:	4798      	blx	r3
	usart_serial_getchar(usart, (pstring+(++i)));
  4019e2:	68fb      	ldr	r3, [r7, #12]
  4019e4:	3301      	adds	r3, #1
  4019e6:	60fb      	str	r3, [r7, #12]
  4019e8:	683a      	ldr	r2, [r7, #0]
  4019ea:	68fb      	ldr	r3, [r7, #12]
  4019ec:	4413      	add	r3, r2
  4019ee:	4619      	mov	r1, r3
  4019f0:	6878      	ldr	r0, [r7, #4]
  4019f2:	4b09      	ldr	r3, [pc, #36]	; (401a18 <usart_getString+0x64>)
  4019f4:	4798      	blx	r3
  while(*(pstring+i) != '\n'){
  4019f6:	683a      	ldr	r2, [r7, #0]
  4019f8:	68fb      	ldr	r3, [r7, #12]
  4019fa:	4413      	add	r3, r2
  4019fc:	781b      	ldrb	r3, [r3, #0]
  4019fe:	2b0a      	cmp	r3, #10
  401a00:	d1e7      	bne.n	4019d2 <usart_getString+0x1e>
  }
  *(pstring+i)= 0x00;
  401a02:	683a      	ldr	r2, [r7, #0]
  401a04:	68fb      	ldr	r3, [r7, #12]
  401a06:	4413      	add	r3, r2
  401a08:	2200      	movs	r2, #0
  401a0a:	701a      	strb	r2, [r3, #0]
  return(i);
  401a0c:	68fb      	ldr	r3, [r7, #12]
}
  401a0e:	4618      	mov	r0, r3
  401a10:	3710      	adds	r7, #16
  401a12:	46bd      	mov	sp, r7
  401a14:	bd80      	pop	{r7, pc}
  401a16:	bf00      	nop
  401a18:	00401651 	.word	0x00401651
  401a1c:	00408404 	.word	0x00408404
  401a20:	00402331 	.word	0x00402331

00401a24 <confg_Blt1>:

void confg_Blt1()
{
  401a24:	e92d 4ff0 	stmdb	sp!, {r4, r5, r6, r7, r8, r9, sl, fp, lr}
  401a28:	b08b      	sub	sp, #44	; 0x2c
  401a2a:	af00      	add	r7, sp, #0
	//Configure Uart
	usart_putString(USART0, "AT");
  401a2c:	4980      	ldr	r1, [pc, #512]	; (401c30 <confg_Blt1+0x20c>)
  401a2e:	4881      	ldr	r0, [pc, #516]	; (401c34 <confg_Blt1+0x210>)
  401a30:	4b81      	ldr	r3, [pc, #516]	; (401c38 <confg_Blt1+0x214>)
  401a32:	4798      	blx	r3
	usart_putString(USART0, "AT");
  401a34:	497e      	ldr	r1, [pc, #504]	; (401c30 <confg_Blt1+0x20c>)
  401a36:	487f      	ldr	r0, [pc, #508]	; (401c34 <confg_Blt1+0x210>)
  401a38:	4b7f      	ldr	r3, [pc, #508]	; (401c38 <confg_Blt1+0x214>)
  401a3a:	4798      	blx	r3
	usart_putString(USART0, "AT");
  401a3c:	497c      	ldr	r1, [pc, #496]	; (401c30 <confg_Blt1+0x20c>)
  401a3e:	487d      	ldr	r0, [pc, #500]	; (401c34 <confg_Blt1+0x210>)
  401a40:	4b7d      	ldr	r3, [pc, #500]	; (401c38 <confg_Blt1+0x214>)
  401a42:	4798      	blx	r3
	delay_ms(800);
  401a44:	4b7d      	ldr	r3, [pc, #500]	; (401c3c <confg_Blt1+0x218>)
  401a46:	4798      	blx	r3
  401a48:	4603      	mov	r3, r0
  401a4a:	4619      	mov	r1, r3
  401a4c:	f04f 0200 	mov.w	r2, #0
  401a50:	460b      	mov	r3, r1
  401a52:	4614      	mov	r4, r2
  401a54:	18db      	adds	r3, r3, r3
  401a56:	eb44 0404 	adc.w	r4, r4, r4
  401a5a:	185b      	adds	r3, r3, r1
  401a5c:	eb44 0402 	adc.w	r4, r4, r2
  401a60:	00e6      	lsls	r6, r4, #3
  401a62:	ea46 7653 	orr.w	r6, r6, r3, lsr #29
  401a66:	00dd      	lsls	r5, r3, #3
  401a68:	462b      	mov	r3, r5
  401a6a:	4634      	mov	r4, r6
  401a6c:	185b      	adds	r3, r3, r1
  401a6e:	eb44 0402 	adc.w	r4, r4, r2
  401a72:	ea4f 1944 	mov.w	r9, r4, lsl #5
  401a76:	ea49 69d3 	orr.w	r9, r9, r3, lsr #27
  401a7a:	ea4f 1843 	mov.w	r8, r3, lsl #5
  401a7e:	4643      	mov	r3, r8
  401a80:	464c      	mov	r4, r9
  401a82:	4619      	mov	r1, r3
  401a84:	4622      	mov	r2, r4
  401a86:	f241 732b 	movw	r3, #5931	; 0x172b
  401a8a:	f04f 0400 	mov.w	r4, #0
  401a8e:	18cd      	adds	r5, r1, r3
  401a90:	eb42 0604 	adc.w	r6, r2, r4
  401a94:	4628      	mov	r0, r5
  401a96:	4631      	mov	r1, r6
  401a98:	4c69      	ldr	r4, [pc, #420]	; (401c40 <confg_Blt1+0x21c>)
  401a9a:	f241 722c 	movw	r2, #5932	; 0x172c
  401a9e:	f04f 0300 	mov.w	r3, #0
  401aa2:	47a0      	blx	r4
  401aa4:	4603      	mov	r3, r0
  401aa6:	460c      	mov	r4, r1
  401aa8:	4618      	mov	r0, r3
  401aaa:	4b66      	ldr	r3, [pc, #408]	; (401c44 <confg_Blt1+0x220>)
  401aac:	4798      	blx	r3
  
	usart_putString(USART0, "AT+RESET");
  401aae:	4966      	ldr	r1, [pc, #408]	; (401c48 <confg_Blt1+0x224>)
  401ab0:	4860      	ldr	r0, [pc, #384]	; (401c34 <confg_Blt1+0x210>)
  401ab2:	4b61      	ldr	r3, [pc, #388]	; (401c38 <confg_Blt1+0x214>)
  401ab4:	4798      	blx	r3
	delay_ms(800);
  401ab6:	4b61      	ldr	r3, [pc, #388]	; (401c3c <confg_Blt1+0x218>)
  401ab8:	4798      	blx	r3
  401aba:	4603      	mov	r3, r0
  401abc:	4619      	mov	r1, r3
  401abe:	f04f 0200 	mov.w	r2, #0
  401ac2:	460b      	mov	r3, r1
  401ac4:	4614      	mov	r4, r2
  401ac6:	18db      	adds	r3, r3, r3
  401ac8:	eb44 0404 	adc.w	r4, r4, r4
  401acc:	185b      	adds	r3, r3, r1
  401ace:	eb44 0402 	adc.w	r4, r4, r2
  401ad2:	ea4f 0bc4 	mov.w	fp, r4, lsl #3
  401ad6:	ea4b 7b53 	orr.w	fp, fp, r3, lsr #29
  401ada:	ea4f 0ac3 	mov.w	sl, r3, lsl #3
  401ade:	4653      	mov	r3, sl
  401ae0:	465c      	mov	r4, fp
  401ae2:	185b      	adds	r3, r3, r1
  401ae4:	eb44 0402 	adc.w	r4, r4, r2
  401ae8:	0162      	lsls	r2, r4, #5
  401aea:	627a      	str	r2, [r7, #36]	; 0x24
  401aec:	6a7a      	ldr	r2, [r7, #36]	; 0x24
  401aee:	ea42 62d3 	orr.w	r2, r2, r3, lsr #27
  401af2:	627a      	str	r2, [r7, #36]	; 0x24
  401af4:	015b      	lsls	r3, r3, #5
  401af6:	623b      	str	r3, [r7, #32]
  401af8:	e9d7 3408 	ldrd	r3, r4, [r7, #32]
  401afc:	4619      	mov	r1, r3
  401afe:	4622      	mov	r2, r4
  401b00:	f241 732b 	movw	r3, #5931	; 0x172b
  401b04:	f04f 0400 	mov.w	r4, #0
  401b08:	18cd      	adds	r5, r1, r3
  401b0a:	eb42 0604 	adc.w	r6, r2, r4
  401b0e:	4628      	mov	r0, r5
  401b10:	4631      	mov	r1, r6
  401b12:	4c4b      	ldr	r4, [pc, #300]	; (401c40 <confg_Blt1+0x21c>)
  401b14:	f241 722c 	movw	r2, #5932	; 0x172c
  401b18:	f04f 0300 	mov.w	r3, #0
  401b1c:	47a0      	blx	r4
  401b1e:	4603      	mov	r3, r0
  401b20:	460c      	mov	r4, r1
  401b22:	4618      	mov	r0, r3
  401b24:	4b47      	ldr	r3, [pc, #284]	; (401c44 <confg_Blt1+0x220>)
  401b26:	4798      	blx	r3
	
	usart_putString(USART0, "AT+NAMEMesaTest1");
  401b28:	4948      	ldr	r1, [pc, #288]	; (401c4c <confg_Blt1+0x228>)
  401b2a:	4842      	ldr	r0, [pc, #264]	; (401c34 <confg_Blt1+0x210>)
  401b2c:	4b42      	ldr	r3, [pc, #264]	; (401c38 <confg_Blt1+0x214>)
  401b2e:	4798      	blx	r3
	delay_ms(800);
  401b30:	4b42      	ldr	r3, [pc, #264]	; (401c3c <confg_Blt1+0x218>)
  401b32:	4798      	blx	r3
  401b34:	4603      	mov	r3, r0
  401b36:	4619      	mov	r1, r3
  401b38:	f04f 0200 	mov.w	r2, #0
  401b3c:	460b      	mov	r3, r1
  401b3e:	4614      	mov	r4, r2
  401b40:	18db      	adds	r3, r3, r3
  401b42:	eb44 0404 	adc.w	r4, r4, r4
  401b46:	185b      	adds	r3, r3, r1
  401b48:	eb44 0402 	adc.w	r4, r4, r2
  401b4c:	00e0      	lsls	r0, r4, #3
  401b4e:	61f8      	str	r0, [r7, #28]
  401b50:	69f8      	ldr	r0, [r7, #28]
  401b52:	ea40 7053 	orr.w	r0, r0, r3, lsr #29
  401b56:	61f8      	str	r0, [r7, #28]
  401b58:	00db      	lsls	r3, r3, #3
  401b5a:	61bb      	str	r3, [r7, #24]
  401b5c:	e9d7 3406 	ldrd	r3, r4, [r7, #24]
  401b60:	185b      	adds	r3, r3, r1
  401b62:	eb44 0402 	adc.w	r4, r4, r2
  401b66:	0162      	lsls	r2, r4, #5
  401b68:	617a      	str	r2, [r7, #20]
  401b6a:	697a      	ldr	r2, [r7, #20]
  401b6c:	ea42 62d3 	orr.w	r2, r2, r3, lsr #27
  401b70:	617a      	str	r2, [r7, #20]
  401b72:	015b      	lsls	r3, r3, #5
  401b74:	613b      	str	r3, [r7, #16]
  401b76:	e9d7 3404 	ldrd	r3, r4, [r7, #16]
  401b7a:	4619      	mov	r1, r3
  401b7c:	4622      	mov	r2, r4
  401b7e:	f241 732b 	movw	r3, #5931	; 0x172b
  401b82:	f04f 0400 	mov.w	r4, #0
  401b86:	18cd      	adds	r5, r1, r3
  401b88:	eb42 0604 	adc.w	r6, r2, r4
  401b8c:	4628      	mov	r0, r5
  401b8e:	4631      	mov	r1, r6
  401b90:	4c2b      	ldr	r4, [pc, #172]	; (401c40 <confg_Blt1+0x21c>)
  401b92:	f241 722c 	movw	r2, #5932	; 0x172c
  401b96:	f04f 0300 	mov.w	r3, #0
  401b9a:	47a0      	blx	r4
  401b9c:	4603      	mov	r3, r0
  401b9e:	460c      	mov	r4, r1
  401ba0:	4618      	mov	r0, r3
  401ba2:	4b28      	ldr	r3, [pc, #160]	; (401c44 <confg_Blt1+0x220>)
  401ba4:	4798      	blx	r3
  
    usart_putString(USART0, "AT+ROLEM");
	delay_ms(800);
	*/
	
	usart_putString(USART0, "AT+PIN101010");
  401ba6:	492a      	ldr	r1, [pc, #168]	; (401c50 <confg_Blt1+0x22c>)
  401ba8:	4822      	ldr	r0, [pc, #136]	; (401c34 <confg_Blt1+0x210>)
  401baa:	4b23      	ldr	r3, [pc, #140]	; (401c38 <confg_Blt1+0x214>)
  401bac:	4798      	blx	r3
	delay_ms(800);
  401bae:	4b23      	ldr	r3, [pc, #140]	; (401c3c <confg_Blt1+0x218>)
  401bb0:	4798      	blx	r3
  401bb2:	4603      	mov	r3, r0
  401bb4:	4619      	mov	r1, r3
  401bb6:	f04f 0200 	mov.w	r2, #0
  401bba:	460b      	mov	r3, r1
  401bbc:	4614      	mov	r4, r2
  401bbe:	18db      	adds	r3, r3, r3
  401bc0:	eb44 0404 	adc.w	r4, r4, r4
  401bc4:	185b      	adds	r3, r3, r1
  401bc6:	eb44 0402 	adc.w	r4, r4, r2
  401bca:	00e0      	lsls	r0, r4, #3
  401bcc:	60f8      	str	r0, [r7, #12]
  401bce:	68f8      	ldr	r0, [r7, #12]
  401bd0:	ea40 7053 	orr.w	r0, r0, r3, lsr #29
  401bd4:	60f8      	str	r0, [r7, #12]
  401bd6:	00db      	lsls	r3, r3, #3
  401bd8:	60bb      	str	r3, [r7, #8]
  401bda:	e9d7 3402 	ldrd	r3, r4, [r7, #8]
  401bde:	185b      	adds	r3, r3, r1
  401be0:	eb44 0402 	adc.w	r4, r4, r2
  401be4:	0162      	lsls	r2, r4, #5
  401be6:	607a      	str	r2, [r7, #4]
  401be8:	687a      	ldr	r2, [r7, #4]
  401bea:	ea42 62d3 	orr.w	r2, r2, r3, lsr #27
  401bee:	607a      	str	r2, [r7, #4]
  401bf0:	015b      	lsls	r3, r3, #5
  401bf2:	603b      	str	r3, [r7, #0]
  401bf4:	e9d7 3400 	ldrd	r3, r4, [r7]
  401bf8:	4619      	mov	r1, r3
  401bfa:	4622      	mov	r2, r4
  401bfc:	f241 732b 	movw	r3, #5931	; 0x172b
  401c00:	f04f 0400 	mov.w	r4, #0
  401c04:	18cd      	adds	r5, r1, r3
  401c06:	eb42 0604 	adc.w	r6, r2, r4
  401c0a:	4628      	mov	r0, r5
  401c0c:	4631      	mov	r1, r6
  401c0e:	4c0c      	ldr	r4, [pc, #48]	; (401c40 <confg_Blt1+0x21c>)
  401c10:	f241 722c 	movw	r2, #5932	; 0x172c
  401c14:	f04f 0300 	mov.w	r3, #0
  401c18:	47a0      	blx	r4
  401c1a:	4603      	mov	r3, r0
  401c1c:	460c      	mov	r4, r1
  401c1e:	4618      	mov	r0, r3
  401c20:	4b08      	ldr	r3, [pc, #32]	; (401c44 <confg_Blt1+0x220>)
  401c22:	4798      	blx	r3
  
	};
  401c24:	bf00      	nop
  401c26:	372c      	adds	r7, #44	; 0x2c
  401c28:	46bd      	mov	sp, r7
  401c2a:	e8bd 8ff0 	ldmia.w	sp!, {r4, r5, r6, r7, r8, r9, sl, fp, pc}
  401c2e:	bf00      	nop
  401c30:	00408408 	.word	0x00408408
  401c34:	40024000 	.word	0x40024000
  401c38:	00401965 	.word	0x00401965
  401c3c:	0040139d 	.word	0x0040139d
  401c40:	00401fd1 	.word	0x00401fd1
  401c44:	20400001 	.word	0x20400001
  401c48:	0040840c 	.word	0x0040840c
  401c4c:	00408418 	.word	0x00408418
  401c50:	0040842c 	.word	0x0040842c

00401c54 <confg_Blt2>:


void confg_Blt2()
{
  401c54:	e92d 4ff0 	stmdb	sp!, {r4, r5, r6, r7, r8, r9, sl, fp, lr}
  401c58:	b08f      	sub	sp, #60	; 0x3c
  401c5a:	af00      	add	r7, sp, #0
	//Configure Uart
	usart_putString(USART0, "AT");
  401c5c:	499f      	ldr	r1, [pc, #636]	; (401edc <confg_Blt2+0x288>)
  401c5e:	48a0      	ldr	r0, [pc, #640]	; (401ee0 <confg_Blt2+0x28c>)
  401c60:	4ba0      	ldr	r3, [pc, #640]	; (401ee4 <confg_Blt2+0x290>)
  401c62:	4798      	blx	r3
	usart_putString(USART0, "AT");
  401c64:	499d      	ldr	r1, [pc, #628]	; (401edc <confg_Blt2+0x288>)
  401c66:	489e      	ldr	r0, [pc, #632]	; (401ee0 <confg_Blt2+0x28c>)
  401c68:	4b9e      	ldr	r3, [pc, #632]	; (401ee4 <confg_Blt2+0x290>)
  401c6a:	4798      	blx	r3
	usart_putString(USART2, "AT");
  401c6c:	499b      	ldr	r1, [pc, #620]	; (401edc <confg_Blt2+0x288>)
  401c6e:	489e      	ldr	r0, [pc, #632]	; (401ee8 <confg_Blt2+0x294>)
  401c70:	4b9c      	ldr	r3, [pc, #624]	; (401ee4 <confg_Blt2+0x290>)
  401c72:	4798      	blx	r3
	delay_ms(800);
  401c74:	4b9d      	ldr	r3, [pc, #628]	; (401eec <confg_Blt2+0x298>)
  401c76:	4798      	blx	r3
  401c78:	4603      	mov	r3, r0
  401c7a:	4619      	mov	r1, r3
  401c7c:	f04f 0200 	mov.w	r2, #0
  401c80:	460b      	mov	r3, r1
  401c82:	4614      	mov	r4, r2
  401c84:	18db      	adds	r3, r3, r3
  401c86:	eb44 0404 	adc.w	r4, r4, r4
  401c8a:	185b      	adds	r3, r3, r1
  401c8c:	eb44 0402 	adc.w	r4, r4, r2
  401c90:	00e6      	lsls	r6, r4, #3
  401c92:	ea46 7653 	orr.w	r6, r6, r3, lsr #29
  401c96:	00dd      	lsls	r5, r3, #3
  401c98:	462b      	mov	r3, r5
  401c9a:	4634      	mov	r4, r6
  401c9c:	185b      	adds	r3, r3, r1
  401c9e:	eb44 0402 	adc.w	r4, r4, r2
  401ca2:	ea4f 1944 	mov.w	r9, r4, lsl #5
  401ca6:	ea49 69d3 	orr.w	r9, r9, r3, lsr #27
  401caa:	ea4f 1843 	mov.w	r8, r3, lsl #5
  401cae:	4643      	mov	r3, r8
  401cb0:	464c      	mov	r4, r9
  401cb2:	4619      	mov	r1, r3
  401cb4:	4622      	mov	r2, r4
  401cb6:	f241 732b 	movw	r3, #5931	; 0x172b
  401cba:	f04f 0400 	mov.w	r4, #0
  401cbe:	18cd      	adds	r5, r1, r3
  401cc0:	eb42 0604 	adc.w	r6, r2, r4
  401cc4:	4628      	mov	r0, r5
  401cc6:	4631      	mov	r1, r6
  401cc8:	4c89      	ldr	r4, [pc, #548]	; (401ef0 <confg_Blt2+0x29c>)
  401cca:	f241 722c 	movw	r2, #5932	; 0x172c
  401cce:	f04f 0300 	mov.w	r3, #0
  401cd2:	47a0      	blx	r4
  401cd4:	4603      	mov	r3, r0
  401cd6:	460c      	mov	r4, r1
  401cd8:	4618      	mov	r0, r3
  401cda:	4b86      	ldr	r3, [pc, #536]	; (401ef4 <confg_Blt2+0x2a0>)
  401cdc:	4798      	blx	r3
  
	usart_putString(USART2, "AT+RESET");
  401cde:	4986      	ldr	r1, [pc, #536]	; (401ef8 <confg_Blt2+0x2a4>)
  401ce0:	4881      	ldr	r0, [pc, #516]	; (401ee8 <confg_Blt2+0x294>)
  401ce2:	4b80      	ldr	r3, [pc, #512]	; (401ee4 <confg_Blt2+0x290>)
  401ce4:	4798      	blx	r3
	delay_ms(800);
  401ce6:	4b81      	ldr	r3, [pc, #516]	; (401eec <confg_Blt2+0x298>)
  401ce8:	4798      	blx	r3
  401cea:	4603      	mov	r3, r0
  401cec:	4619      	mov	r1, r3
  401cee:	f04f 0200 	mov.w	r2, #0
  401cf2:	460b      	mov	r3, r1
  401cf4:	4614      	mov	r4, r2
  401cf6:	18db      	adds	r3, r3, r3
  401cf8:	eb44 0404 	adc.w	r4, r4, r4
  401cfc:	185b      	adds	r3, r3, r1
  401cfe:	eb44 0402 	adc.w	r4, r4, r2
  401d02:	ea4f 0bc4 	mov.w	fp, r4, lsl #3
  401d06:	ea4b 7b53 	orr.w	fp, fp, r3, lsr #29
  401d0a:	ea4f 0ac3 	mov.w	sl, r3, lsl #3
  401d0e:	4653      	mov	r3, sl
  401d10:	465c      	mov	r4, fp
  401d12:	185b      	adds	r3, r3, r1
  401d14:	eb44 0402 	adc.w	r4, r4, r2
  401d18:	0162      	lsls	r2, r4, #5
  401d1a:	637a      	str	r2, [r7, #52]	; 0x34
  401d1c:	6b7a      	ldr	r2, [r7, #52]	; 0x34
  401d1e:	ea42 62d3 	orr.w	r2, r2, r3, lsr #27
  401d22:	637a      	str	r2, [r7, #52]	; 0x34
  401d24:	015b      	lsls	r3, r3, #5
  401d26:	633b      	str	r3, [r7, #48]	; 0x30
  401d28:	e9d7 340c 	ldrd	r3, r4, [r7, #48]	; 0x30
  401d2c:	4619      	mov	r1, r3
  401d2e:	4622      	mov	r2, r4
  401d30:	f241 732b 	movw	r3, #5931	; 0x172b
  401d34:	f04f 0400 	mov.w	r4, #0
  401d38:	18cd      	adds	r5, r1, r3
  401d3a:	eb42 0604 	adc.w	r6, r2, r4
  401d3e:	4628      	mov	r0, r5
  401d40:	4631      	mov	r1, r6
  401d42:	4c6b      	ldr	r4, [pc, #428]	; (401ef0 <confg_Blt2+0x29c>)
  401d44:	f241 722c 	movw	r2, #5932	; 0x172c
  401d48:	f04f 0300 	mov.w	r3, #0
  401d4c:	47a0      	blx	r4
  401d4e:	4603      	mov	r3, r0
  401d50:	460c      	mov	r4, r1
  401d52:	4618      	mov	r0, r3
  401d54:	4b67      	ldr	r3, [pc, #412]	; (401ef4 <confg_Blt2+0x2a0>)
  401d56:	4798      	blx	r3
	
	usart_putString(USART2, "AT+NAMEMesaTest2");
  401d58:	4968      	ldr	r1, [pc, #416]	; (401efc <confg_Blt2+0x2a8>)
  401d5a:	4863      	ldr	r0, [pc, #396]	; (401ee8 <confg_Blt2+0x294>)
  401d5c:	4b61      	ldr	r3, [pc, #388]	; (401ee4 <confg_Blt2+0x290>)
  401d5e:	4798      	blx	r3
	delay_ms(800);
  401d60:	4b62      	ldr	r3, [pc, #392]	; (401eec <confg_Blt2+0x298>)
  401d62:	4798      	blx	r3
  401d64:	4603      	mov	r3, r0
  401d66:	4619      	mov	r1, r3
  401d68:	f04f 0200 	mov.w	r2, #0
  401d6c:	460b      	mov	r3, r1
  401d6e:	4614      	mov	r4, r2
  401d70:	18db      	adds	r3, r3, r3
  401d72:	eb44 0404 	adc.w	r4, r4, r4
  401d76:	185b      	adds	r3, r3, r1
  401d78:	eb44 0402 	adc.w	r4, r4, r2
  401d7c:	00e0      	lsls	r0, r4, #3
  401d7e:	62f8      	str	r0, [r7, #44]	; 0x2c
  401d80:	6af8      	ldr	r0, [r7, #44]	; 0x2c
  401d82:	ea40 7053 	orr.w	r0, r0, r3, lsr #29
  401d86:	62f8      	str	r0, [r7, #44]	; 0x2c
  401d88:	00db      	lsls	r3, r3, #3
  401d8a:	62bb      	str	r3, [r7, #40]	; 0x28
  401d8c:	e9d7 340a 	ldrd	r3, r4, [r7, #40]	; 0x28
  401d90:	185b      	adds	r3, r3, r1
  401d92:	eb44 0402 	adc.w	r4, r4, r2
  401d96:	0162      	lsls	r2, r4, #5
  401d98:	627a      	str	r2, [r7, #36]	; 0x24
  401d9a:	6a7a      	ldr	r2, [r7, #36]	; 0x24
  401d9c:	ea42 62d3 	orr.w	r2, r2, r3, lsr #27
  401da0:	627a      	str	r2, [r7, #36]	; 0x24
  401da2:	015b      	lsls	r3, r3, #5
  401da4:	623b      	str	r3, [r7, #32]
  401da6:	e9d7 3408 	ldrd	r3, r4, [r7, #32]
  401daa:	4619      	mov	r1, r3
  401dac:	4622      	mov	r2, r4
  401dae:	f241 732b 	movw	r3, #5931	; 0x172b
  401db2:	f04f 0400 	mov.w	r4, #0
  401db6:	18cd      	adds	r5, r1, r3
  401db8:	eb42 0604 	adc.w	r6, r2, r4
  401dbc:	4628      	mov	r0, r5
  401dbe:	4631      	mov	r1, r6
  401dc0:	4c4b      	ldr	r4, [pc, #300]	; (401ef0 <confg_Blt2+0x29c>)
  401dc2:	f241 722c 	movw	r2, #5932	; 0x172c
  401dc6:	f04f 0300 	mov.w	r3, #0
  401dca:	47a0      	blx	r4
  401dcc:	4603      	mov	r3, r0
  401dce:	460c      	mov	r4, r1
  401dd0:	4618      	mov	r0, r3
  401dd2:	4b48      	ldr	r3, [pc, #288]	; (401ef4 <confg_Blt2+0x2a0>)
  401dd4:	4798      	blx	r3
  
    usart_putString(USART2, "AT+ROLEM");
	delay_ms(800);
	*/
	
	usart_putString(USART2, "AT+PIN202020");
  401dd6:	494a      	ldr	r1, [pc, #296]	; (401f00 <confg_Blt2+0x2ac>)
  401dd8:	4843      	ldr	r0, [pc, #268]	; (401ee8 <confg_Blt2+0x294>)
  401dda:	4b42      	ldr	r3, [pc, #264]	; (401ee4 <confg_Blt2+0x290>)
  401ddc:	4798      	blx	r3
	delay_ms(800);
  401dde:	4b43      	ldr	r3, [pc, #268]	; (401eec <confg_Blt2+0x298>)
  401de0:	4798      	blx	r3
  401de2:	4603      	mov	r3, r0
  401de4:	4619      	mov	r1, r3
  401de6:	f04f 0200 	mov.w	r2, #0
  401dea:	460b      	mov	r3, r1
  401dec:	4614      	mov	r4, r2
  401dee:	18db      	adds	r3, r3, r3
  401df0:	eb44 0404 	adc.w	r4, r4, r4
  401df4:	185b      	adds	r3, r3, r1
  401df6:	eb44 0402 	adc.w	r4, r4, r2
  401dfa:	00e0      	lsls	r0, r4, #3
  401dfc:	61f8      	str	r0, [r7, #28]
  401dfe:	69f8      	ldr	r0, [r7, #28]
  401e00:	ea40 7053 	orr.w	r0, r0, r3, lsr #29
  401e04:	61f8      	str	r0, [r7, #28]
  401e06:	00db      	lsls	r3, r3, #3
  401e08:	61bb      	str	r3, [r7, #24]
  401e0a:	e9d7 3406 	ldrd	r3, r4, [r7, #24]
  401e0e:	185b      	adds	r3, r3, r1
  401e10:	eb44 0402 	adc.w	r4, r4, r2
  401e14:	0162      	lsls	r2, r4, #5
  401e16:	617a      	str	r2, [r7, #20]
  401e18:	697a      	ldr	r2, [r7, #20]
  401e1a:	ea42 62d3 	orr.w	r2, r2, r3, lsr #27
  401e1e:	617a      	str	r2, [r7, #20]
  401e20:	015b      	lsls	r3, r3, #5
  401e22:	613b      	str	r3, [r7, #16]
  401e24:	e9d7 3404 	ldrd	r3, r4, [r7, #16]
  401e28:	4619      	mov	r1, r3
  401e2a:	4622      	mov	r2, r4
  401e2c:	f241 732b 	movw	r3, #5931	; 0x172b
  401e30:	f04f 0400 	mov.w	r4, #0
  401e34:	18cd      	adds	r5, r1, r3
  401e36:	eb42 0604 	adc.w	r6, r2, r4
  401e3a:	4628      	mov	r0, r5
  401e3c:	4631      	mov	r1, r6
  401e3e:	4c2c      	ldr	r4, [pc, #176]	; (401ef0 <confg_Blt2+0x29c>)
  401e40:	f241 722c 	movw	r2, #5932	; 0x172c
  401e44:	f04f 0300 	mov.w	r3, #0
  401e48:	47a0      	blx	r4
  401e4a:	4603      	mov	r3, r0
  401e4c:	460c      	mov	r4, r1
  401e4e:	4618      	mov	r0, r3
  401e50:	4b28      	ldr	r3, [pc, #160]	; (401ef4 <confg_Blt2+0x2a0>)
  401e52:	4798      	blx	r3
  
	usart_putString(USART2, "AT+PASS3030");
  401e54:	492b      	ldr	r1, [pc, #172]	; (401f04 <confg_Blt2+0x2b0>)
  401e56:	4824      	ldr	r0, [pc, #144]	; (401ee8 <confg_Blt2+0x294>)
  401e58:	4b22      	ldr	r3, [pc, #136]	; (401ee4 <confg_Blt2+0x290>)
  401e5a:	4798      	blx	r3
	delay_ms(800);
  401e5c:	4b23      	ldr	r3, [pc, #140]	; (401eec <confg_Blt2+0x298>)
  401e5e:	4798      	blx	r3
  401e60:	4603      	mov	r3, r0
  401e62:	4619      	mov	r1, r3
  401e64:	f04f 0200 	mov.w	r2, #0
  401e68:	460b      	mov	r3, r1
  401e6a:	4614      	mov	r4, r2
  401e6c:	18db      	adds	r3, r3, r3
  401e6e:	eb44 0404 	adc.w	r4, r4, r4
  401e72:	185b      	adds	r3, r3, r1
  401e74:	eb44 0402 	adc.w	r4, r4, r2
  401e78:	00e0      	lsls	r0, r4, #3
  401e7a:	60f8      	str	r0, [r7, #12]
  401e7c:	68f8      	ldr	r0, [r7, #12]
  401e7e:	ea40 7053 	orr.w	r0, r0, r3, lsr #29
  401e82:	60f8      	str	r0, [r7, #12]
  401e84:	00db      	lsls	r3, r3, #3
  401e86:	60bb      	str	r3, [r7, #8]
  401e88:	e9d7 3402 	ldrd	r3, r4, [r7, #8]
  401e8c:	185b      	adds	r3, r3, r1
  401e8e:	eb44 0402 	adc.w	r4, r4, r2
  401e92:	0162      	lsls	r2, r4, #5
  401e94:	607a      	str	r2, [r7, #4]
  401e96:	687a      	ldr	r2, [r7, #4]
  401e98:	ea42 62d3 	orr.w	r2, r2, r3, lsr #27
  401e9c:	607a      	str	r2, [r7, #4]
  401e9e:	015b      	lsls	r3, r3, #5
  401ea0:	603b      	str	r3, [r7, #0]
  401ea2:	e9d7 3400 	ldrd	r3, r4, [r7]
  401ea6:	4619      	mov	r1, r3
  401ea8:	4622      	mov	r2, r4
  401eaa:	f241 732b 	movw	r3, #5931	; 0x172b
  401eae:	f04f 0400 	mov.w	r4, #0
  401eb2:	18cd      	adds	r5, r1, r3
  401eb4:	eb42 0604 	adc.w	r6, r2, r4
  401eb8:	4628      	mov	r0, r5
  401eba:	4631      	mov	r1, r6
  401ebc:	4c0c      	ldr	r4, [pc, #48]	; (401ef0 <confg_Blt2+0x29c>)
  401ebe:	f241 722c 	movw	r2, #5932	; 0x172c
  401ec2:	f04f 0300 	mov.w	r3, #0
  401ec6:	47a0      	blx	r4
  401ec8:	4603      	mov	r3, r0
  401eca:	460c      	mov	r4, r1
  401ecc:	4618      	mov	r0, r3
  401ece:	4b09      	ldr	r3, [pc, #36]	; (401ef4 <confg_Blt2+0x2a0>)
  401ed0:	4798      	blx	r3
  
	};
  401ed2:	bf00      	nop
  401ed4:	373c      	adds	r7, #60	; 0x3c
  401ed6:	46bd      	mov	sp, r7
  401ed8:	e8bd 8ff0 	ldmia.w	sp!, {r4, r5, r6, r7, r8, r9, sl, fp, pc}
  401edc:	00408408 	.word	0x00408408
  401ee0:	40024000 	.word	0x40024000
  401ee4:	00401965 	.word	0x00401965
  401ee8:	4002c000 	.word	0x4002c000
  401eec:	0040139d 	.word	0x0040139d
  401ef0:	00401fd1 	.word	0x00401fd1
  401ef4:	20400001 	.word	0x20400001
  401ef8:	0040840c 	.word	0x0040840c
  401efc:	0040843c 	.word	0x0040843c
  401f00:	00408450 	.word	0x00408450
  401f04:	00408460 	.word	0x00408460

00401f08 <main>:


/************************************************************************/
/* Main Code	                                                        */
/************************************************************************/
int main(void){
  401f08:	b580      	push	{r7, lr}
  401f0a:	b0b2      	sub	sp, #200	; 0xc8
  401f0c:	af00      	add	r7, sp, #0
	/* buffer para recebimento de dados */
	uint8_t bufferRX[100];
	uint8_t bufferTX[100];

	/* Initialize the SAM system */
	sysclk_init();
  401f0e:	4b21      	ldr	r3, [pc, #132]	; (401f94 <main+0x8c>)
  401f10:	4798      	blx	r3
   
	/* Disable the watchdog */
	WDT->WDT_MR = WDT_MR_WDDIS;
  401f12:	4b21      	ldr	r3, [pc, #132]	; (401f98 <main+0x90>)
  401f14:	f44f 4200 	mov.w	r2, #32768	; 0x8000
  401f18:	605a      	str	r2, [r3, #4]
  
	/* Inicializa com serial com PC*/
	configure_console();
  401f1a:	4b20      	ldr	r3, [pc, #128]	; (401f9c <main+0x94>)
  401f1c:	4798      	blx	r3
  
	/* Configura USART0 para comunicacao com o HM-10 */
	USART0_init();
  401f1e:	4b20      	ldr	r3, [pc, #128]	; (401fa0 <main+0x98>)
  401f20:	4798      	blx	r3
	USART2_init();
  401f22:	4b20      	ldr	r3, [pc, #128]	; (401fa4 <main+0x9c>)
  401f24:	4798      	blx	r3
 
	/* Inicializa funcao de delay */
	delay_init( sysclk_get_cpu_hz());
  
	confg_Blt1();
  401f26:	4b20      	ldr	r3, [pc, #128]	; (401fa8 <main+0xa0>)
  401f28:	4798      	blx	r3
	confg_Blt2();
  401f2a:	4b20      	ldr	r3, [pc, #128]	; (401fac <main+0xa4>)
  401f2c:	4798      	blx	r3
    
    
	while (1) {
		usart_getString(USART2, bufferRX);
  401f2e:	f107 0364 	add.w	r3, r7, #100	; 0x64
  401f32:	4619      	mov	r1, r3
  401f34:	481e      	ldr	r0, [pc, #120]	; (401fb0 <main+0xa8>)
  401f36:	4b1f      	ldr	r3, [pc, #124]	; (401fb4 <main+0xac>)
  401f38:	4798      	blx	r3
		
		if(bufferRX[0] == '1'){
  401f3a:	f897 3064 	ldrb.w	r3, [r7, #100]	; 0x64
  401f3e:	2b31      	cmp	r3, #49	; 0x31
  401f40:	d10b      	bne.n	401f5a <main+0x52>
			sprintf(bufferTX, "%s \n", "Player 1");
  401f42:	463b      	mov	r3, r7
  401f44:	4a1c      	ldr	r2, [pc, #112]	; (401fb8 <main+0xb0>)
  401f46:	491d      	ldr	r1, [pc, #116]	; (401fbc <main+0xb4>)
  401f48:	4618      	mov	r0, r3
  401f4a:	4b1d      	ldr	r3, [pc, #116]	; (401fc0 <main+0xb8>)
  401f4c:	4798      	blx	r3
			usart_putString(USART2, bufferTX);
  401f4e:	463b      	mov	r3, r7
  401f50:	4619      	mov	r1, r3
  401f52:	4817      	ldr	r0, [pc, #92]	; (401fb0 <main+0xa8>)
  401f54:	4b1b      	ldr	r3, [pc, #108]	; (401fc4 <main+0xbc>)
  401f56:	4798      	blx	r3
  401f58:	e7e9      	b.n	401f2e <main+0x26>
		}
		else if(bufferRX[0] == '2'){
  401f5a:	f897 3064 	ldrb.w	r3, [r7, #100]	; 0x64
  401f5e:	2b32      	cmp	r3, #50	; 0x32
  401f60:	d10b      	bne.n	401f7a <main+0x72>
			sprintf(bufferTX, "%s \n", "Player 2");
  401f62:	463b      	mov	r3, r7
  401f64:	4a18      	ldr	r2, [pc, #96]	; (401fc8 <main+0xc0>)
  401f66:	4915      	ldr	r1, [pc, #84]	; (401fbc <main+0xb4>)
  401f68:	4618      	mov	r0, r3
  401f6a:	4b15      	ldr	r3, [pc, #84]	; (401fc0 <main+0xb8>)
  401f6c:	4798      	blx	r3
			usart_putString(USART2, bufferTX);
  401f6e:	463b      	mov	r3, r7
  401f70:	4619      	mov	r1, r3
  401f72:	480f      	ldr	r0, [pc, #60]	; (401fb0 <main+0xa8>)
  401f74:	4b13      	ldr	r3, [pc, #76]	; (401fc4 <main+0xbc>)
  401f76:	4798      	blx	r3
  401f78:	e7d9      	b.n	401f2e <main+0x26>
		}
		else{
			sprintf(bufferTX, "%s \n", "Invalido");
  401f7a:	463b      	mov	r3, r7
  401f7c:	4a13      	ldr	r2, [pc, #76]	; (401fcc <main+0xc4>)
  401f7e:	490f      	ldr	r1, [pc, #60]	; (401fbc <main+0xb4>)
  401f80:	4618      	mov	r0, r3
  401f82:	4b0f      	ldr	r3, [pc, #60]	; (401fc0 <main+0xb8>)
  401f84:	4798      	blx	r3
			usart_putString(USART2, bufferTX);
  401f86:	463b      	mov	r3, r7
  401f88:	4619      	mov	r1, r3
  401f8a:	4809      	ldr	r0, [pc, #36]	; (401fb0 <main+0xa8>)
  401f8c:	4b0d      	ldr	r3, [pc, #52]	; (401fc4 <main+0xbc>)
  401f8e:	4798      	blx	r3
		usart_getString(USART2, bufferRX);
  401f90:	e7cd      	b.n	401f2e <main+0x26>
  401f92:	bf00      	nop
  401f94:	004004ad 	.word	0x004004ad
  401f98:	400e1850 	.word	0x400e1850
  401f9c:	004017c1 	.word	0x004017c1
  401fa0:	00401841 	.word	0x00401841
  401fa4:	004018d1 	.word	0x004018d1
  401fa8:	00401a25 	.word	0x00401a25
  401fac:	00401c55 	.word	0x00401c55
  401fb0:	4002c000 	.word	0x4002c000
  401fb4:	004019b5 	.word	0x004019b5
  401fb8:	0040846c 	.word	0x0040846c
  401fbc:	00408478 	.word	0x00408478
  401fc0:	00402595 	.word	0x00402595
  401fc4:	00401965 	.word	0x00401965
  401fc8:	00408480 	.word	0x00408480
  401fcc:	0040848c 	.word	0x0040848c

00401fd0 <__aeabi_uldivmod>:
  401fd0:	b953      	cbnz	r3, 401fe8 <__aeabi_uldivmod+0x18>
  401fd2:	b94a      	cbnz	r2, 401fe8 <__aeabi_uldivmod+0x18>
  401fd4:	2900      	cmp	r1, #0
  401fd6:	bf08      	it	eq
  401fd8:	2800      	cmpeq	r0, #0
  401fda:	bf1c      	itt	ne
  401fdc:	f04f 31ff 	movne.w	r1, #4294967295
  401fe0:	f04f 30ff 	movne.w	r0, #4294967295
  401fe4:	f000 b97a 	b.w	4022dc <__aeabi_idiv0>
  401fe8:	f1ad 0c08 	sub.w	ip, sp, #8
  401fec:	e96d ce04 	strd	ip, lr, [sp, #-16]!
  401ff0:	f000 f806 	bl	402000 <__udivmoddi4>
  401ff4:	f8dd e004 	ldr.w	lr, [sp, #4]
  401ff8:	e9dd 2302 	ldrd	r2, r3, [sp, #8]
  401ffc:	b004      	add	sp, #16
  401ffe:	4770      	bx	lr

00402000 <__udivmoddi4>:
  402000:	e92d 47f0 	stmdb	sp!, {r4, r5, r6, r7, r8, r9, sl, lr}
  402004:	468c      	mov	ip, r1
  402006:	460d      	mov	r5, r1
  402008:	4604      	mov	r4, r0
  40200a:	9e08      	ldr	r6, [sp, #32]
  40200c:	2b00      	cmp	r3, #0
  40200e:	d151      	bne.n	4020b4 <__udivmoddi4+0xb4>
  402010:	428a      	cmp	r2, r1
  402012:	4617      	mov	r7, r2
  402014:	d96d      	bls.n	4020f2 <__udivmoddi4+0xf2>
  402016:	fab2 fe82 	clz	lr, r2
  40201a:	f1be 0f00 	cmp.w	lr, #0
  40201e:	d00b      	beq.n	402038 <__udivmoddi4+0x38>
  402020:	f1ce 0c20 	rsb	ip, lr, #32
  402024:	fa01 f50e 	lsl.w	r5, r1, lr
  402028:	fa20 fc0c 	lsr.w	ip, r0, ip
  40202c:	fa02 f70e 	lsl.w	r7, r2, lr
  402030:	ea4c 0c05 	orr.w	ip, ip, r5
  402034:	fa00 f40e 	lsl.w	r4, r0, lr
  402038:	ea4f 4a17 	mov.w	sl, r7, lsr #16
  40203c:	0c25      	lsrs	r5, r4, #16
  40203e:	fbbc f8fa 	udiv	r8, ip, sl
  402042:	fa1f f987 	uxth.w	r9, r7
  402046:	fb0a cc18 	mls	ip, sl, r8, ip
  40204a:	ea45 450c 	orr.w	r5, r5, ip, lsl #16
  40204e:	fb08 f309 	mul.w	r3, r8, r9
  402052:	42ab      	cmp	r3, r5
  402054:	d90a      	bls.n	40206c <__udivmoddi4+0x6c>
  402056:	19ed      	adds	r5, r5, r7
  402058:	f108 32ff 	add.w	r2, r8, #4294967295
  40205c:	f080 8123 	bcs.w	4022a6 <__udivmoddi4+0x2a6>
  402060:	42ab      	cmp	r3, r5
  402062:	f240 8120 	bls.w	4022a6 <__udivmoddi4+0x2a6>
  402066:	f1a8 0802 	sub.w	r8, r8, #2
  40206a:	443d      	add	r5, r7
  40206c:	1aed      	subs	r5, r5, r3
  40206e:	b2a4      	uxth	r4, r4
  402070:	fbb5 f0fa 	udiv	r0, r5, sl
  402074:	fb0a 5510 	mls	r5, sl, r0, r5
  402078:	ea44 4405 	orr.w	r4, r4, r5, lsl #16
  40207c:	fb00 f909 	mul.w	r9, r0, r9
  402080:	45a1      	cmp	r9, r4
  402082:	d909      	bls.n	402098 <__udivmoddi4+0x98>
  402084:	19e4      	adds	r4, r4, r7
  402086:	f100 33ff 	add.w	r3, r0, #4294967295
  40208a:	f080 810a 	bcs.w	4022a2 <__udivmoddi4+0x2a2>
  40208e:	45a1      	cmp	r9, r4
  402090:	f240 8107 	bls.w	4022a2 <__udivmoddi4+0x2a2>
  402094:	3802      	subs	r0, #2
  402096:	443c      	add	r4, r7
  402098:	eba4 0409 	sub.w	r4, r4, r9
  40209c:	ea40 4008 	orr.w	r0, r0, r8, lsl #16
  4020a0:	2100      	movs	r1, #0
  4020a2:	2e00      	cmp	r6, #0
  4020a4:	d061      	beq.n	40216a <__udivmoddi4+0x16a>
  4020a6:	fa24 f40e 	lsr.w	r4, r4, lr
  4020aa:	2300      	movs	r3, #0
  4020ac:	6034      	str	r4, [r6, #0]
  4020ae:	6073      	str	r3, [r6, #4]
  4020b0:	e8bd 87f0 	ldmia.w	sp!, {r4, r5, r6, r7, r8, r9, sl, pc}
  4020b4:	428b      	cmp	r3, r1
  4020b6:	d907      	bls.n	4020c8 <__udivmoddi4+0xc8>
  4020b8:	2e00      	cmp	r6, #0
  4020ba:	d054      	beq.n	402166 <__udivmoddi4+0x166>
  4020bc:	2100      	movs	r1, #0
  4020be:	e886 0021 	stmia.w	r6, {r0, r5}
  4020c2:	4608      	mov	r0, r1
  4020c4:	e8bd 87f0 	ldmia.w	sp!, {r4, r5, r6, r7, r8, r9, sl, pc}
  4020c8:	fab3 f183 	clz	r1, r3
  4020cc:	2900      	cmp	r1, #0
  4020ce:	f040 808e 	bne.w	4021ee <__udivmoddi4+0x1ee>
  4020d2:	42ab      	cmp	r3, r5
  4020d4:	d302      	bcc.n	4020dc <__udivmoddi4+0xdc>
  4020d6:	4282      	cmp	r2, r0
  4020d8:	f200 80fa 	bhi.w	4022d0 <__udivmoddi4+0x2d0>
  4020dc:	1a84      	subs	r4, r0, r2
  4020de:	eb65 0503 	sbc.w	r5, r5, r3
  4020e2:	2001      	movs	r0, #1
  4020e4:	46ac      	mov	ip, r5
  4020e6:	2e00      	cmp	r6, #0
  4020e8:	d03f      	beq.n	40216a <__udivmoddi4+0x16a>
  4020ea:	e886 1010 	stmia.w	r6, {r4, ip}
  4020ee:	e8bd 87f0 	ldmia.w	sp!, {r4, r5, r6, r7, r8, r9, sl, pc}
  4020f2:	b912      	cbnz	r2, 4020fa <__udivmoddi4+0xfa>
  4020f4:	2701      	movs	r7, #1
  4020f6:	fbb7 f7f2 	udiv	r7, r7, r2
  4020fa:	fab7 fe87 	clz	lr, r7
  4020fe:	f1be 0f00 	cmp.w	lr, #0
  402102:	d134      	bne.n	40216e <__udivmoddi4+0x16e>
  402104:	1beb      	subs	r3, r5, r7
  402106:	0c3a      	lsrs	r2, r7, #16
  402108:	fa1f fc87 	uxth.w	ip, r7
  40210c:	2101      	movs	r1, #1
  40210e:	fbb3 f8f2 	udiv	r8, r3, r2
  402112:	0c25      	lsrs	r5, r4, #16
  402114:	fb02 3318 	mls	r3, r2, r8, r3
  402118:	ea45 4503 	orr.w	r5, r5, r3, lsl #16
  40211c:	fb0c f308 	mul.w	r3, ip, r8
  402120:	42ab      	cmp	r3, r5
  402122:	d907      	bls.n	402134 <__udivmoddi4+0x134>
  402124:	19ed      	adds	r5, r5, r7
  402126:	f108 30ff 	add.w	r0, r8, #4294967295
  40212a:	d202      	bcs.n	402132 <__udivmoddi4+0x132>
  40212c:	42ab      	cmp	r3, r5
  40212e:	f200 80d1 	bhi.w	4022d4 <__udivmoddi4+0x2d4>
  402132:	4680      	mov	r8, r0
  402134:	1aed      	subs	r5, r5, r3
  402136:	b2a3      	uxth	r3, r4
  402138:	fbb5 f0f2 	udiv	r0, r5, r2
  40213c:	fb02 5510 	mls	r5, r2, r0, r5
  402140:	ea43 4405 	orr.w	r4, r3, r5, lsl #16
  402144:	fb0c fc00 	mul.w	ip, ip, r0
  402148:	45a4      	cmp	ip, r4
  40214a:	d907      	bls.n	40215c <__udivmoddi4+0x15c>
  40214c:	19e4      	adds	r4, r4, r7
  40214e:	f100 33ff 	add.w	r3, r0, #4294967295
  402152:	d202      	bcs.n	40215a <__udivmoddi4+0x15a>
  402154:	45a4      	cmp	ip, r4
  402156:	f200 80b8 	bhi.w	4022ca <__udivmoddi4+0x2ca>
  40215a:	4618      	mov	r0, r3
  40215c:	eba4 040c 	sub.w	r4, r4, ip
  402160:	ea40 4008 	orr.w	r0, r0, r8, lsl #16
  402164:	e79d      	b.n	4020a2 <__udivmoddi4+0xa2>
  402166:	4631      	mov	r1, r6
  402168:	4630      	mov	r0, r6
  40216a:	e8bd 87f0 	ldmia.w	sp!, {r4, r5, r6, r7, r8, r9, sl, pc}
  40216e:	f1ce 0420 	rsb	r4, lr, #32
  402172:	fa05 f30e 	lsl.w	r3, r5, lr
  402176:	fa07 f70e 	lsl.w	r7, r7, lr
  40217a:	fa20 f804 	lsr.w	r8, r0, r4
  40217e:	0c3a      	lsrs	r2, r7, #16
  402180:	fa25 f404 	lsr.w	r4, r5, r4
  402184:	ea48 0803 	orr.w	r8, r8, r3
  402188:	fbb4 f1f2 	udiv	r1, r4, r2
  40218c:	ea4f 4518 	mov.w	r5, r8, lsr #16
  402190:	fb02 4411 	mls	r4, r2, r1, r4
  402194:	fa1f fc87 	uxth.w	ip, r7
  402198:	ea45 4504 	orr.w	r5, r5, r4, lsl #16
  40219c:	fb01 f30c 	mul.w	r3, r1, ip
  4021a0:	42ab      	cmp	r3, r5
  4021a2:	fa00 f40e 	lsl.w	r4, r0, lr
  4021a6:	d909      	bls.n	4021bc <__udivmoddi4+0x1bc>
  4021a8:	19ed      	adds	r5, r5, r7
  4021aa:	f101 30ff 	add.w	r0, r1, #4294967295
  4021ae:	f080 808a 	bcs.w	4022c6 <__udivmoddi4+0x2c6>
  4021b2:	42ab      	cmp	r3, r5
  4021b4:	f240 8087 	bls.w	4022c6 <__udivmoddi4+0x2c6>
  4021b8:	3902      	subs	r1, #2
  4021ba:	443d      	add	r5, r7
  4021bc:	1aeb      	subs	r3, r5, r3
  4021be:	fa1f f588 	uxth.w	r5, r8
  4021c2:	fbb3 f0f2 	udiv	r0, r3, r2
  4021c6:	fb02 3310 	mls	r3, r2, r0, r3
  4021ca:	ea45 4503 	orr.w	r5, r5, r3, lsl #16
  4021ce:	fb00 f30c 	mul.w	r3, r0, ip
  4021d2:	42ab      	cmp	r3, r5
  4021d4:	d907      	bls.n	4021e6 <__udivmoddi4+0x1e6>
  4021d6:	19ed      	adds	r5, r5, r7
  4021d8:	f100 38ff 	add.w	r8, r0, #4294967295
  4021dc:	d26f      	bcs.n	4022be <__udivmoddi4+0x2be>
  4021de:	42ab      	cmp	r3, r5
  4021e0:	d96d      	bls.n	4022be <__udivmoddi4+0x2be>
  4021e2:	3802      	subs	r0, #2
  4021e4:	443d      	add	r5, r7
  4021e6:	1aeb      	subs	r3, r5, r3
  4021e8:	ea40 4101 	orr.w	r1, r0, r1, lsl #16
  4021ec:	e78f      	b.n	40210e <__udivmoddi4+0x10e>
  4021ee:	f1c1 0720 	rsb	r7, r1, #32
  4021f2:	fa22 f807 	lsr.w	r8, r2, r7
  4021f6:	408b      	lsls	r3, r1
  4021f8:	fa05 f401 	lsl.w	r4, r5, r1
  4021fc:	ea48 0303 	orr.w	r3, r8, r3
  402200:	fa20 fe07 	lsr.w	lr, r0, r7
  402204:	ea4f 4c13 	mov.w	ip, r3, lsr #16
  402208:	40fd      	lsrs	r5, r7
  40220a:	ea4e 0e04 	orr.w	lr, lr, r4
  40220e:	fbb5 f9fc 	udiv	r9, r5, ip
  402212:	ea4f 441e 	mov.w	r4, lr, lsr #16
  402216:	fb0c 5519 	mls	r5, ip, r9, r5
  40221a:	fa1f f883 	uxth.w	r8, r3
  40221e:	ea44 4505 	orr.w	r5, r4, r5, lsl #16
  402222:	fb09 f408 	mul.w	r4, r9, r8
  402226:	42ac      	cmp	r4, r5
  402228:	fa02 f201 	lsl.w	r2, r2, r1
  40222c:	fa00 fa01 	lsl.w	sl, r0, r1
  402230:	d908      	bls.n	402244 <__udivmoddi4+0x244>
  402232:	18ed      	adds	r5, r5, r3
  402234:	f109 30ff 	add.w	r0, r9, #4294967295
  402238:	d243      	bcs.n	4022c2 <__udivmoddi4+0x2c2>
  40223a:	42ac      	cmp	r4, r5
  40223c:	d941      	bls.n	4022c2 <__udivmoddi4+0x2c2>
  40223e:	f1a9 0902 	sub.w	r9, r9, #2
  402242:	441d      	add	r5, r3
  402244:	1b2d      	subs	r5, r5, r4
  402246:	fa1f fe8e 	uxth.w	lr, lr
  40224a:	fbb5 f0fc 	udiv	r0, r5, ip
  40224e:	fb0c 5510 	mls	r5, ip, r0, r5
  402252:	ea4e 4405 	orr.w	r4, lr, r5, lsl #16
  402256:	fb00 f808 	mul.w	r8, r0, r8
  40225a:	45a0      	cmp	r8, r4
  40225c:	d907      	bls.n	40226e <__udivmoddi4+0x26e>
  40225e:	18e4      	adds	r4, r4, r3
  402260:	f100 35ff 	add.w	r5, r0, #4294967295
  402264:	d229      	bcs.n	4022ba <__udivmoddi4+0x2ba>
  402266:	45a0      	cmp	r8, r4
  402268:	d927      	bls.n	4022ba <__udivmoddi4+0x2ba>
  40226a:	3802      	subs	r0, #2
  40226c:	441c      	add	r4, r3
  40226e:	ea40 4009 	orr.w	r0, r0, r9, lsl #16
  402272:	eba4 0408 	sub.w	r4, r4, r8
  402276:	fba0 8902 	umull	r8, r9, r0, r2
  40227a:	454c      	cmp	r4, r9
  40227c:	46c6      	mov	lr, r8
  40227e:	464d      	mov	r5, r9
  402280:	d315      	bcc.n	4022ae <__udivmoddi4+0x2ae>
  402282:	d012      	beq.n	4022aa <__udivmoddi4+0x2aa>
  402284:	b156      	cbz	r6, 40229c <__udivmoddi4+0x29c>
  402286:	ebba 030e 	subs.w	r3, sl, lr
  40228a:	eb64 0405 	sbc.w	r4, r4, r5
  40228e:	fa04 f707 	lsl.w	r7, r4, r7
  402292:	40cb      	lsrs	r3, r1
  402294:	431f      	orrs	r7, r3
  402296:	40cc      	lsrs	r4, r1
  402298:	6037      	str	r7, [r6, #0]
  40229a:	6074      	str	r4, [r6, #4]
  40229c:	2100      	movs	r1, #0
  40229e:	e8bd 87f0 	ldmia.w	sp!, {r4, r5, r6, r7, r8, r9, sl, pc}
  4022a2:	4618      	mov	r0, r3
  4022a4:	e6f8      	b.n	402098 <__udivmoddi4+0x98>
  4022a6:	4690      	mov	r8, r2
  4022a8:	e6e0      	b.n	40206c <__udivmoddi4+0x6c>
  4022aa:	45c2      	cmp	sl, r8
  4022ac:	d2ea      	bcs.n	402284 <__udivmoddi4+0x284>
  4022ae:	ebb8 0e02 	subs.w	lr, r8, r2
  4022b2:	eb69 0503 	sbc.w	r5, r9, r3
  4022b6:	3801      	subs	r0, #1
  4022b8:	e7e4      	b.n	402284 <__udivmoddi4+0x284>
  4022ba:	4628      	mov	r0, r5
  4022bc:	e7d7      	b.n	40226e <__udivmoddi4+0x26e>
  4022be:	4640      	mov	r0, r8
  4022c0:	e791      	b.n	4021e6 <__udivmoddi4+0x1e6>
  4022c2:	4681      	mov	r9, r0
  4022c4:	e7be      	b.n	402244 <__udivmoddi4+0x244>
  4022c6:	4601      	mov	r1, r0
  4022c8:	e778      	b.n	4021bc <__udivmoddi4+0x1bc>
  4022ca:	3802      	subs	r0, #2
  4022cc:	443c      	add	r4, r7
  4022ce:	e745      	b.n	40215c <__udivmoddi4+0x15c>
  4022d0:	4608      	mov	r0, r1
  4022d2:	e708      	b.n	4020e6 <__udivmoddi4+0xe6>
  4022d4:	f1a8 0802 	sub.w	r8, r8, #2
  4022d8:	443d      	add	r5, r7
  4022da:	e72b      	b.n	402134 <__udivmoddi4+0x134>

004022dc <__aeabi_idiv0>:
  4022dc:	4770      	bx	lr
  4022de:	bf00      	nop

004022e0 <__libc_init_array>:
  4022e0:	b570      	push	{r4, r5, r6, lr}
  4022e2:	4e0f      	ldr	r6, [pc, #60]	; (402320 <__libc_init_array+0x40>)
  4022e4:	4d0f      	ldr	r5, [pc, #60]	; (402324 <__libc_init_array+0x44>)
  4022e6:	1b76      	subs	r6, r6, r5
  4022e8:	10b6      	asrs	r6, r6, #2
  4022ea:	bf18      	it	ne
  4022ec:	2400      	movne	r4, #0
  4022ee:	d005      	beq.n	4022fc <__libc_init_array+0x1c>
  4022f0:	3401      	adds	r4, #1
  4022f2:	f855 3b04 	ldr.w	r3, [r5], #4
  4022f6:	4798      	blx	r3
  4022f8:	42a6      	cmp	r6, r4
  4022fa:	d1f9      	bne.n	4022f0 <__libc_init_array+0x10>
  4022fc:	4e0a      	ldr	r6, [pc, #40]	; (402328 <__libc_init_array+0x48>)
  4022fe:	4d0b      	ldr	r5, [pc, #44]	; (40232c <__libc_init_array+0x4c>)
  402300:	1b76      	subs	r6, r6, r5
  402302:	f006 fa1d 	bl	408740 <_init>
  402306:	10b6      	asrs	r6, r6, #2
  402308:	bf18      	it	ne
  40230a:	2400      	movne	r4, #0
  40230c:	d006      	beq.n	40231c <__libc_init_array+0x3c>
  40230e:	3401      	adds	r4, #1
  402310:	f855 3b04 	ldr.w	r3, [r5], #4
  402314:	4798      	blx	r3
  402316:	42a6      	cmp	r6, r4
  402318:	d1f9      	bne.n	40230e <__libc_init_array+0x2e>
  40231a:	bd70      	pop	{r4, r5, r6, pc}
  40231c:	bd70      	pop	{r4, r5, r6, pc}
  40231e:	bf00      	nop
  402320:	0040874c 	.word	0x0040874c
  402324:	0040874c 	.word	0x0040874c
  402328:	00408754 	.word	0x00408754
  40232c:	0040874c 	.word	0x0040874c

00402330 <iprintf>:
  402330:	b40f      	push	{r0, r1, r2, r3}
  402332:	b500      	push	{lr}
  402334:	4907      	ldr	r1, [pc, #28]	; (402354 <iprintf+0x24>)
  402336:	b083      	sub	sp, #12
  402338:	ab04      	add	r3, sp, #16
  40233a:	6808      	ldr	r0, [r1, #0]
  40233c:	f853 2b04 	ldr.w	r2, [r3], #4
  402340:	6881      	ldr	r1, [r0, #8]
  402342:	9301      	str	r3, [sp, #4]
  402344:	f001 fbba 	bl	403abc <_vfiprintf_r>
  402348:	b003      	add	sp, #12
  40234a:	f85d eb04 	ldr.w	lr, [sp], #4
  40234e:	b004      	add	sp, #16
  402350:	4770      	bx	lr
  402352:	bf00      	nop
  402354:	20400010 	.word	0x20400010

00402358 <memset>:
  402358:	b470      	push	{r4, r5, r6}
  40235a:	0786      	lsls	r6, r0, #30
  40235c:	d046      	beq.n	4023ec <memset+0x94>
  40235e:	1e54      	subs	r4, r2, #1
  402360:	2a00      	cmp	r2, #0
  402362:	d041      	beq.n	4023e8 <memset+0x90>
  402364:	b2ca      	uxtb	r2, r1
  402366:	4603      	mov	r3, r0
  402368:	e002      	b.n	402370 <memset+0x18>
  40236a:	f114 34ff 	adds.w	r4, r4, #4294967295
  40236e:	d33b      	bcc.n	4023e8 <memset+0x90>
  402370:	f803 2b01 	strb.w	r2, [r3], #1
  402374:	079d      	lsls	r5, r3, #30
  402376:	d1f8      	bne.n	40236a <memset+0x12>
  402378:	2c03      	cmp	r4, #3
  40237a:	d92e      	bls.n	4023da <memset+0x82>
  40237c:	b2cd      	uxtb	r5, r1
  40237e:	ea45 2505 	orr.w	r5, r5, r5, lsl #8
  402382:	2c0f      	cmp	r4, #15
  402384:	ea45 4505 	orr.w	r5, r5, r5, lsl #16
  402388:	d919      	bls.n	4023be <memset+0x66>
  40238a:	f103 0210 	add.w	r2, r3, #16
  40238e:	4626      	mov	r6, r4
  402390:	3e10      	subs	r6, #16
  402392:	2e0f      	cmp	r6, #15
  402394:	f842 5c10 	str.w	r5, [r2, #-16]
  402398:	f842 5c0c 	str.w	r5, [r2, #-12]
  40239c:	f842 5c08 	str.w	r5, [r2, #-8]
  4023a0:	f842 5c04 	str.w	r5, [r2, #-4]
  4023a4:	f102 0210 	add.w	r2, r2, #16
  4023a8:	d8f2      	bhi.n	402390 <memset+0x38>
  4023aa:	f1a4 0210 	sub.w	r2, r4, #16
  4023ae:	f022 020f 	bic.w	r2, r2, #15
  4023b2:	f004 040f 	and.w	r4, r4, #15
  4023b6:	3210      	adds	r2, #16
  4023b8:	2c03      	cmp	r4, #3
  4023ba:	4413      	add	r3, r2
  4023bc:	d90d      	bls.n	4023da <memset+0x82>
  4023be:	461e      	mov	r6, r3
  4023c0:	4622      	mov	r2, r4
  4023c2:	3a04      	subs	r2, #4
  4023c4:	2a03      	cmp	r2, #3
  4023c6:	f846 5b04 	str.w	r5, [r6], #4
  4023ca:	d8fa      	bhi.n	4023c2 <memset+0x6a>
  4023cc:	1f22      	subs	r2, r4, #4
  4023ce:	f022 0203 	bic.w	r2, r2, #3
  4023d2:	3204      	adds	r2, #4
  4023d4:	4413      	add	r3, r2
  4023d6:	f004 0403 	and.w	r4, r4, #3
  4023da:	b12c      	cbz	r4, 4023e8 <memset+0x90>
  4023dc:	b2c9      	uxtb	r1, r1
  4023de:	441c      	add	r4, r3
  4023e0:	f803 1b01 	strb.w	r1, [r3], #1
  4023e4:	429c      	cmp	r4, r3
  4023e6:	d1fb      	bne.n	4023e0 <memset+0x88>
  4023e8:	bc70      	pop	{r4, r5, r6}
  4023ea:	4770      	bx	lr
  4023ec:	4614      	mov	r4, r2
  4023ee:	4603      	mov	r3, r0
