:020000040040BA
:10000000C02A4020910F40004110400041104000A4
:10001000411040004110400041104000000000002D
:10002000000000000000000000000000411040003F
:10003000411040000000000041104000411040000D
:10004000411040004110400041104000411040006C
:10005000411040004110400041104000411040005C
:100060004110400000000000DD074000F50740009F
:100070000D08400041104000411040004110400078
:10008000250840003D08400041104000411040005C
:10009000411040004110400041104000411040001C
:1000A000411040004110400041104000411040000C
:1000B00041104000411040004110400041104000FC
:1000C00041104000411040004110400041104000EC
:1000D00000000000411040000000000041104000FE
:1000E00041104000411040004110400041104000CC
:1000F00041104000411040004110400041104000BC
:1001000041104000411040004110400041104000AB
:10011000411040000000000000000000000000004E
:10012000411040004110400041104000411040008B
:10013000411040000000000041104000411040000C
:1001400010B5054C237833B9044B13B10448AFF311
:1001500000800123237010BDC00940200000000072
:100160006C8740000C4B43B10C480D4910B5AFF300
:1001700000800C48036823B910BD0A48036833B9EE
:100180007047094B002BF7D0BDE810401847064BCD
:10019000002BF5D0184700BF000000006C8740001E
:1001A000C40940206C8740000000000080B582B088
:1001B00000AF78607B68072B31D801A252F823F09A
:1001C0001D024000E1014000E9014000F101400052
:1001D000F901400001024000090240001302400002
:1001E0000020114B98471AE001200F4B984716E06A
:1001F00000200E4B984712E010200C4B98470EE061
:1002000020200A4B98470AE03E210020084B9847DF
:1002100005E03E210120064B984700E000BF00BFEB
:100220000837BD4680BD00BF55094000C1094000E8
:10023000310A400080B582B000AF78607B68072B40
:1002400026D801A252F823F0690240006D02400056
:100250006D0240007F0240007F0240007F024000AC
:100260007F0240007F024000012312E00B4B9847C1
:100270000346002B14BF01230023DBB209E0084B27
:1002800098470346002B14BF01230023DBB200E094
:10029000002318460837BD4680BD00BF8D094000C9
:1002A000A90A400080B483B000AF78607B68072B58
:1002B00025D801A252F823F0D9024000DF02400005
:1002C000E5024000EB024000EF024000F302400074
:1002D000F7024000FB0240004FF4FA4310E04FF4F5
:1002E00000430DE04FF400430AE0084B08E0084BE0
:1002F00006E0084B04E0074B02E0064B00E0002359
:1003000018460C37BD465DF8047B704700093D0078
:1003100000127A00001BB70080B582B000AF034620
:10032000FB7100BFFB791846054B9847034683F0E5
:100330000103DBB2002BF5D100BF0837BD4680BDFD
:100340003502400080B586B000AFF8607A603B604F
:100350000B46FB727B68002B07D13B68002B04D156
:10036000FB684FF470021A6019E0FB7A18460E4BD6
:10037000984702467B68B2FBF3F37B617B693A687E
:1003800002FB03F37B613B68013B1A04074B1340FC
:100390007A68D2B2134343F47C52FB681A6000BF00
:1003A0001837BD4680BD00BFA50240000000FF0712
:1003B00080B582B000AF786039603B68002B08D10F
:1003C000094B9847094A7B681B6843F000539362C6
:1003D00005E0064A7B681B6843F48033D36100BFA5
:1003E0000837BD4680BD00BFC50A400000060E406C
:1003F00080B582B000AF78607B68002B03D1054BDD
:100400009847034602E0044B9847034618460837CE
:10041000BD4680BDE10A4000FD0A400080B582B0C3
:1004200000AF0346FB71FB79033B042B08D8FB7933
:100430001846064B9847FB791846054B984700E04D
:1004400000BF00BF0837BD4680BD00BFAD01400002
:100450001903400080B582B000AF786000BF7868B3
:10046000044B98470346002BF9D000231846083761
:10047000BD4680BDF103400080B500AF0620054BAE
:100480009847024613469B0013449A0013441846AB
:1004900080BD00BFA502400080B500AF024B984769
:1004A0000346184680BD00BF7904400090B583B074
:1004B00000AF1348134B98470620134B9847381D3D
:1004C000192301220621114CA0473B1D002118468B
:1004D0000F4B984700200F4B984702200E4B984730
:1004E00000200E4B98470E4B98470E4B98470346FB
:1004F0001846044B984700BF0C37BD4690BD00BF5F
:1005000000A3E111B11140001D044000450340006B
:10051000B10340005504400055084000D108400098
:10052000491040009904400080B586B000AFF860E3
:10053000B9607A6000237B61FB68002B12D04FF01A
:10054000FF3313E00B4B1B680B4A1268B968104667
:100550009847BB680133BB607B6901337B617B6873
:10056000013B7B607B68002BECDC7B69184618370D
:10057000BD4680BD880A4020900A402080B586B0E4
:1005800000AFF860B9607A6000237B61FB68012BE3
:100590001ED0FB68022B1BD0FB68032B18D04FF03A
:1005A000FF3319E00E4B1A680E4B1868BB68591CD4
:1005B000B9601B78194690470346002B02DA4FF0CA
:1005C000FF3309E07B6901337B617B68013B7B6022
:1005D0007B68002BE6D17B6918461837BD4680BD85
:1005E0008C0A4020900A402080B487B000AFF860A9
:1005F000B9607A60FB687A685A64BB68B3F1C05F1F
:100600004AD0B3F1C05F08D8B3F1006F16D0B3F190
:10061000805F2CD0002B69D064E0B3F1205F65D0FF
:10062000B3F1205F03D8B3F1005F4AD05AE0B3F1D1
:10063000405F5BD0B3F1605F58D053E0FB681B6F45
:100640007B61FB681A6F7B68D9437B690B401A405A
:10065000FB681A67FB685B6F7B61FB685A6F7B689E
:10066000D9437B690B401A40FB685A673AE0FB6844
:100670001B6F7B617A687B691A43FB681A67FB68AA
:100680005B6F7B61FB685A6F7B68D9437B690B406A
:100690001A40FB685A6725E0FB681B6F7B61FB68AB
:1006A0001A6F7B68D9437B690B401A40FB681A6755
:1006B000FB685B6F7B617A687B691A43FB685A67EA
:1006C00010E0FB681B6F7B617A687B691A43FB68EB
:1006D0001A67FB685B6F7B617A687B691A43FB680A
:1006E0005A6700BFFB687A685A6000E000BF1C3799
:1006F000BD465DF8047B704780B483B000AF78607E
:100700007B68DB6C18460C37BD465DF8047B704790
:1007100080B483B000AF78607B689B6C18460C3760
:10072000BD465DF8047B704780B584B000AF78604B
:1007300039607868264B9847F8607868254B984769
:100740000246FB681340FB60FB68002B3CD0002393
:10075000BB6034E0204ABB681B0113441A683B6845
:100760009A4226D11C4ABB681B01134404331A6801
:10077000FB681340002B1CD0174ABB681B011344B5
:100780000C331B681449BA6812010A4410681249F4
:10079000BA6812010A4404321268114698470E4A98
:1007A000BB681B01134404331B68DB43FA68134026
:1007B000FB60BB680133BB60BB68062B03D8FB68DA
:1007C000002BC7D100E000BF00BF1037BD4680BD81
:1007D000F906400011074000DC09402080B500AF59
:1007E0000A210248024B984700BF80BD000E0E4010
:1007F0002907400080B500AF0B210248024B984703
:1008000000BF80BD00100E402907400080B500AF3A
:100810000C210248024B984700BF80BD00120E40D9
:100820002907400080B500AF10210248024B9847CD
:1008300000BF80BD00140E402907400080B500AF06
:1008400011210248024B984700BF80BD00160E40A0
:100850002907400080B483B000AF78607B68013B1B
:10086000032B1AD801A252F823F000BF7D084000E4
:10087000830840008B0840009308400000237B6001
:100880000EE04FF480737B600AE04FF440737B60AE
:1008900006E04FF400737B6002E000237B6000BF42
:1008A0000A490A4B1B6B23F440727B6813430B63AA
:1008B00000BF064B9B6E03F00803002BF9D000BF6E
:1008C0000C37BD465DF8047B704700BF00060E4044
:1008D00080B485B000AF78601D491D4B1B6B23F0C1
:1008E00070027B6813430B634FF48053FB6007E097
:1008F000FB68002B01D1012323E0FB68013BFB6077
:10090000134B9B6E03F00803002BF1D0104A104BE1
:100910001B6B23F0030343F0020313634FF4805374
:10092000FB6007E0FB68002B01D1012309E0FB68B5
:10093000013BFB60064B9B6E03F00803002BF1D0DC
:10094000002318461437BD465DF8047B704700BF8E
:1009500000060E4080B483B000AF78607B68012B46
:1009600005D10749064B9A68064B13438B60044B2D
:10097000054A1A6000BF0C37BD465DF8047B70471E
:1009800010180E40000010A5080000A580B400AFAC
:10099000094B5B6903F08003002B07D0074B9B6E6C
:1009A00003F08003002B01D0012300E00023184650
:1009B000BD465DF8047B704710180E4000060E40DF
:1009C00080B483B000AF78601549154B1A6A154B97
:1009D00013430B6200BF124B9B6E03F40033002BDA
:1009E000F9D00F490E4B1A6A0F4B13407A68134324
:1009F00043F45C130B6200BF094B9B6E03F400339E
:100A0000002BF9D00649064B1A6A084B134043F4F1
:100A10005C130B6200BF0C37BD465DF8047B70476A
:100A200000060E40080037008FFFC8FFFFFFC8FE1A
:100A300080B483B000AF786039607B68002B08D049
:100A40001349134B1B6A134A1A40134B13430B628F
:100A500018E00F490E4B1A6A104B13403A68120205
:100A600092B21A430E4B13430B6200BF084B9B6EAE
:100A700003F00103002BF9D00549054B1A6A094B15
:100A800013430B6200BF0C37BD465DF8047B704713
:100A900000060E40FCFFC8FE02003701FCFFC8FF45
:100AA000010037000000370180B400AF044B9B6E9B
:100AB00003F480331846BD465DF8047B704700BFE1
:100AC00000060E4080B400AF044B4FF000529A6213
:100AD00000BFBD465DF8047B704700BF00060E40B6
:100AE00080B400AF044B9B6E03F002031846BD4672
:100AF0005DF8047B704700BF00060E4080B400AF75
:100B0000044B9B6E03F040031846BD465DF8047B22
:100B1000704700BF00060E4080B483B000AF78601D
:100B20007B683F2B01D901232FE07B681F2B13D853
:100B3000194B9A6901217B6801FA03F31A400121DC
:100B40007B6801FA03F39A421ED0134A01217B68A5
:100B500001FA03F3136117E07B68203B7B600E4BC7
:100B6000D3F8082101217B6801FA03F31A4001211F
:100B70007B6801FA03F39A4206D0074A01217B6899
:100B800001FA03F3C2F80031002318460C37BD46C2
:100B90005DF8047B704700BF00060E4080B485B04E
:100BA00000AF786039600023FB607B68AC221A607C
:100BB0003B681A683B685B68B2FBF3F31B09FB6098
:100BC000FB68002B03D0FB68B3F5803F01D3012302
:100BD0000AE07B68FA681A623B689A687B685A6028
:100BE0007B6850221A60002318461437BD465DF812
:100BF000047B704780B483B000AF78607B685B692A
:100C000003F40073002B14BF01230023DBB218464A
:100C10000C37BD465DF8047B704780B483B000AFED
:100C200078600B46FB707B685B6903F00203002B66
:100C300001D1012303E0FA787B68DA6100231846CA
:100C40000C37BD465DF8047B704780B483B000AFBD
:100C5000786039607B685B6903F00103002B01D188
:100C6000012305E07B689B69DAB23B681A700023B8
:100C700018460C37BD465DF8047B704780B489B0D8
:100C800000AFF860B9607A60BB681A017B689A426D
:100C900002D81023FB6101E00823FB617B68DA00C6
:100CA000FB69B96801FB03F35B081A44FB69B96887
:100CB00001FB03F3B2FBF3F3BB61BB69DB087B61B0
:100CC000BB6903F007033B617B69002B03D07B69A1
:100CD000B3F5803F01D301230FE0FB69082B05D159
:100CE000FB685B6843F40022FB685A603B691A04A6
:100CF0007B691A43FB681A62002318462437BD46F5
:100D00005DF8047B7047000080B582B000AF78606A
:100D100078680D4B98477B6800225A607B680022F8
:100D20005A627B6800229A627868084B9847786814
:100D3000074B98477868074B98477868064B984761
:100D400000BF0837BD4680BDE90E4000FB0D4000E6
:100D50002F0E4000490E4000650E400080B584B063
:100D600000AFF860B9607A60F8681A4B98471A4B80
:100D700000221A60BB68002B09D0BB681B687A6828
:100D80001946F868154B98470346002B01D00123FC
:100D90001BE0BB685A68BB689B681A43BB681B6949
:100DA0001A43BB68DB681A430B4B1B6813430A4AA0
:100DB0001360094B1B68084A1360FB685A68064BAE
:100DC0001B681A43FB685A60002318461037BD465B
:100DD00080BD00BF090D40004C0A40207D0C400042
:100DE00080B483B000AF78607B6840221A6000BF97
:100DF0000C37BD465DF8047B704780B483B000AF0C
:100E000078607B6888221A6000BF0C37BD465DF8A9
:100E1000047B704780B483B000AF78607B68102299
:100E20001A6000BF0C37BD465DF8047B704780B484
:100E300083B000AF78607B6824221A6000BF0C3753
:100E4000BD465DF8047B704780B483B000AF786026
:100E50007B684FF480721A6000BF0C37BD465DF8A6
:100E6000047B704780B483B000AF78607B684FF438
:100E700000221A6000BF0C37BD465DF8047B704746
:100E800080B483B000AF786039607B685B6903F041
:100E90000203002B01D1012305E03B68C3F30802E4
:100EA0007B68DA61002318460C37BD465DF8047B89
:100EB000704780B483B000AF786039607B685B694D
:100EC00003F00103002B01D1012306E07B689B693D
:100ED000C3F308023B681A60002318460C37BD466E
:100EE0005DF8047B7047000080B483B000AF786089
:100EF0007B68044AC3F8E42000BF0C37BD465DF8A8
:100F0000047B70470041535580B483B000AFEFF3CA
:100F100010837B607B68002B0CBF01230023DBB2B6
:100F20003B6072B6BFF35F8F044B00221A703B68C0
:100F300018460C37BD465DF8047B70470A00402018
:100F400080B483B000AF78607B68002B14BF0123AE
:100F50000023DBB218460C37BD465DF8047B7047B2
:100F600080B582B000AF78607868074B9847034639
:100F7000002B05D0054B01221A70BFF35F8F62B6BC
:100F800000BF0837BD4680BD410F40000A00402029
:100F900080B584B000AF1E4BFB601E4BBB60FA688F
:100FA000BB689A420CD007E0BB681A1DBA60FA68A9
:100FB000111DF96012681A60BB68174A9342F3D397
:100FC000164BBB6004E0BB681A1DBA6000221A60B1
:100FD000BB68134A9342F6D3124BFB60124AFB687C
:100FE00023F07F039360114B98477860104A104BB1
:100FF0001B6843F470031360BFF34F8FBFF36F8F11
:1010000078680C4B98470C4B98470C4B9847FEE779
:101010006C87400000004020C0094020C0094020EB
:10102000BC0A40200000400000ED00E0090F400035
:1010300088ED00E0610F4000E1224000091F400000
:1010400080B400AFFEE7000080B400AF524B1B6BD2
:1010500003F00303012B14D0012B02D3022B38D051
:101060007AE04E4B5B6903F08003002B04D04C4BBD
:101070004FF400421A606FE0494B4FF4FA421A6095
:101080006AE0454B1B6A03F08073002B03D0444B8E
:10109000444A1A6060E0424B434A1A603E4B1B6A66
:1010A00003F07003102B04D0202B08D0002B0ED09F
:1010B0000EE03B4B1B685B00394A136008E0384B7D
:1010C0001A6813465B001344354A136000E000BF02
:1010D00042E0314B1B6A03F08073002B03D0304B8E
:1010E000304A1A601CE02E4B2F4A1A602A4B1B6AAA
:1010F00003F07003102B04D0202B08D0002B0ED04F
:101100000EE0274B1B685B00254A136008E0244B68
:101110001A6813465B001344214A136000E000BFC5
:101120001D4B1B6B03F00303022B14D11A4B9B6A5C
:101130001B0CC3F30A030133194A126802FB03F3C1
:10114000174A1360144B9B6ADBB2154A1268B2FB54
:10115000F3F3134A136000BF0F4B1B6B03F07003D4
:10116000702B08D10E4B1B68104AA2FB03235B08AF
:101170000B4A13600AE0084B1B6B1B0903F00703C3
:10118000074A126822FA03F3054A136000BFBD46FE
:101190005DF8047B704700BF00060E4010180E403B
:1011A0000C004020001BB70000093D00ABAAAAAA12
:1011B00080B483B000AF78607B68194A934204D84A
:1011C000184B4FF080621A6023E07B68164A934206
:1011D00003D8144B154A1A601BE07B68144A9342EB
:1011E00003D8104B134A1A6013E07B68124A9342EB
:1011F00003D80C4B114A1A600BE07B68104A9342EB
:1012000004D8084B4FF004221A6002E0054B0D4A47
:101210001A6000BF0C37BD465DF8047B704700BF05
:10122000FF2C3101000C0E40FF5962020001000446
:10123000FF86930300020004FFB3C404000300040C
:10124000FFE0F5050005000480B485B000AF7860CC
:10125000104BFB60104B1B68002B02D10E4B0F4A4A
:101260001A600D4B1B68BB60BA687B681A44FB6848
:101270009A4202DD4FF0FF3306E0074B1A687B68A5
:101280001344054A1360BB6818461437BD465DF821
:10129000047B7047FCFF4520500A4020C02C4020B2
:1012A00080B483B000AF78604FF0FF3318460C373E
:1012B000BD465DF8047B704780B483B000AF7860B2
:1012C00039603B684FF400525A60002318460C37CF
:1012D000BD465DF8047B704780B483B000AF786092
:1012E000012318460C37BD465DF8047B704780B477
:1012F00085B000AFF860B9607A60002318461437F3
:10130000BD465DF8047B704780B483B000AF786061
:101310007B68072B25D801A252F823F03D1340002B
:1013200043134000491340004F1340005313400043
:10133000571340005B1340005F1340004FF4FA4323
:1013400010E04FF400430DE04FF400430AE0084B77
:1013500008E0084B06E0084B04E0074B02E0064BB0
:1013600000E0002318460C37BD465DF8047B70474B
:1013700000093D0000127A00001BB70080B500AFE5
:101380000620054B9847024613469B0013449A00DB
:101390001344184680BD00BF0913400080B500AF5C
:1013A000024B98470346184680BD00BF7D1340009E
:1013B00080B500AF024B984703465B08184680BDD6
:1013C0007D13400080B582B000AF78607868034B31
:1013D000984700BF0837BD4680BD00BF190B4000CD
:1013E00080B58CB000AF78603960494B98470346B0
:1013F0007B623B681B68BB623B689B68FB623B6827
:101400001B68FB603B685B683B613B689B687B617A
:101410003B68DB68BB610023FB617B683D4A93420C
:1014200008D107203C4B984707F1240319467868F8
:101430003A4B98477B683A4A934208D10820364B8A
:10144000984707F1240319467868344B98477B681E
:10145000344A934208D12C202F4B984707F124039C
:10146000194678682D4B98477B682F4A934208D1DC
:101470002D20294B984707F1240319467868274BFC
:1014800098477B68294A934211D10D20224B9847F7
:101490001F4B9847024607F10C0319467868244B06
:1014A00098477868234B98477868234B98477B6820
:1014B000224A934211D10E20174B9847144B98475C
:1014C000024607F10C0319467868194B984778686B
:1014D000184B98477868184B98477B68184A93428E
:1014E00011D10F200C4B9847094B9847024607F142
:1014F0000C03194678680E4B984778680D4B98474F
:1015000078680D4B984700BF3037BD4680BD00BF9F
:10151000B113400000080E40C51340009D0B400071
:10152000000A0E40001A0E40001C0E40004002400F
:101530005D0D4000E10D4000150E400000800240AE
:1015400000C0024080B582B000AF78600B46FB70EF
:101550007B68364A93420AD100BFFB781946786807
:10156000334B98470346002BF7D101235AE07B68A1
:10157000304A93420AD100BFFB78194678682C4B59
:1015800098470346002BF7D101234BE07B682A4A9A
:1015900093420AD100BFFB7819467868244B9847DC
:1015A0000346002BF7D101233CE07B68234A93429A
:1015B0000AD100BFFB78194678681D4B984703464F
:1015C000002BF7D101232DE07B681D4A93420AD1FD
:1015D00000BFFB78194678681A4B98470346002BE2
:1015E000F7D101231EE07B68174A93420AD100BF5E
:1015F000FB7819467868134B98470346002BF7D1C0
:1016000001230FE07B68114A93420AD100BFFB78A7
:10161000194678680B4B98470346002BF7D10123F6
:1016200000E0002318460837BD4680BD00080E4084
:101630001B0C4000000A0E40001A0E40001C0E4019
:1016400000400240810E40000080024000C0024085
:1016500080B584B000AF786039600023FB607B68A0
:10166000344A934207D100BF39687868324B9847B3
:101670000346002BF8D17B68304A934207D100BF64
:10168000396878682C4B98470346002BF8D17B6863
:101690002B4A934207D100BF39687868264B984798
:1016A0000346002BF8D17B68264A934207D100BF3E
:1016B00039687868204B98470346002BF8D17B683F
:1016C000214A93420DD100BF07F10C0319467868F7
:1016D0001E4B98470346002BF6D1FB68DAB23B68F5
:1016E0001A707B681A4A93420DD100BF07F10C03B0
:1016F00019467868154B98470346002BF6D1FB68CE
:10170000DAB23B681A707B68124A93420DD100BF6F
:1017100007F10C03194678680C4B98470346002BD9
:10172000F6D1FB68DAB23B681A7000BF1037BD46CD
:1017300080BD00BF00080E404B0C4000000A0E4068
:10174000001A0E40001C0E4000400240B30E400044
:101750000080024000C0024080B582B000AF7860D7
:1017600039600F4A7B6813600E4B0F4A1A600F4BAB
:101770000F4A1A60396878680E4B98470E4B1B6801
:101780009B68002118460D4B98470B4B1B685B6804
:1017900000211846094B984700BF0837BD4680BD59
:1017A000900A40208C0A402045154000880A4020BD
:1017B00051164000E113400010004020F523400086
:1017C00090B585B000AF0B20154B98470A20144BFD
:1017D000984710224FF000511248134B98474FF48E
:1017E00000124FF0006111480F4B9847104A104B00
:1017F000D3F8143143F01003C2F814310D4B3C46BA
:101800000FCB84E80F000E20054B98473B46194646
:1018100009480A4B984700BF1437BD4690BD00BF2A
:10182000C513400000100E40E9054000000E0E40B8
:1018300000800840F48340000080024059174000B7
:1018400080B586B000AF0B20194B984701224FF0AE
:10185000C0511848184B984702224FF0C051154804
:10186000154B98473B4600221A605A609A60DA602E
:101870001A615A614FF416533B60C0237B604FF4EA
:101880000063BB600D200A4B98470C4B98470246FB
:101890003B4619460A480B4B984709480A4B98475C
:1018A00007480A4B984700BF1837BD4680BD00BFA8
:1018B000C513400000100E40E9054000B113400080
:1018C000004002405D0D4000E10D4000150E40005B
:1018D00080B586B000AF10201A4B98474FF40042F5
:1018E0004FF080511848194B98474FF480324FF011
:1018F00080511548154B98473B4600221A605A60A4
:101900009A60DA601A615A614FF416533B60C02343
:101910007B604FF40063BB600F200A4B98470C4B71
:10192000984702463B4619460A480B4B98470948D8
:101930000A4B984707480A4B984700BF1837BD46DF
:1019400080BD00BFC513400000140E40E9054000F3
:10195000B113400000C002405D0D4000E10D4000A9
:10196000150E400080B584B000AF78603960002368
:10197000FB6010E0FB685A1CFA603A6813441B785D
:1019800019467868094B984700BF7868084B984714
:101990000346002BF9D03A68FB6813441B78002BF0
:1019A000E8D1FB6818461037BD4680BD451540009C
:1019B000F50B400080B584B000AF7860396000233B
:1019C000FB603A68FB68134419467868124B9847E5
:1019D00011E03A68FB6813441B7819460F48104B16
:1019E0009847FB680133FB603A68FB68134419466B
:1019F0007868094B98473A68FB6813441B780A2BB0
:101A0000E7D13A68FB68134400221A70FB68184655
:101A10001037BD4680BD00BF511640000484400011
:101A2000312340002DE9F04F8BB000AF8049814851
:101A3000814B98477E497F487F4B98477C497D483A
:101A40007D4B98477D4B9847034619464FF000025F
:101A50000B461446DB1844EB04045B1844EB020409
:101A6000E60046EA5376DD002B4634465B1844EB2D
:101A700002044FEA441949EAD3694FEA431843463E
:101A80004C461946224641F22B734FF00004CD1804
:101A900042EB040628463146694C41F22C724FF065
:101AA0000003A04703460C461846664B9847664914
:101AB0006048614B9847614B9847034619464FF081
:101AC00000020B461446DB1844EB04045B1844EB9D
:101AD00002044FEAC40B4BEA537B4FEAC30A534656
:101AE0005C465B1844EB020462017A627A6A42EA5D
:101AF000D3627A625B013B62D7E908341946224619
:101B000041F22B734FF00004CD1842EB0406284637
:101B100031464B4C41F22C724FF00003A047034674
:101B20000C461846474B984748494248424B98470D
:101B3000424B9847034619464FF000020B461446A5
:101B4000DB1844EB04045B1844EB0204E000F8618A
:101B5000F86940EA5370F861DB00BB61D7E90634ED
:101B60005B1844EB020462017A617A6942EAD3624B
:101B70007A615B013B61D7E904341946224641F2A0
:101B80002B734FF00004CD1842EB04062846314673
:101B90002B4C41F22C724FF00003A04703460C4639
:101BA0001846284B98472A492248234B9847234BED
:101BB0009847034619464FF000020B461446DB18BF
:101BC00044EB04045B1844EB0204E000F860F8689E
:101BD00040EA5370F860DB00BB60D7E902345B1861
:101BE00044EB020462017A607A6842EAD3627A6066
:101BF0005B013B60D7E900341946224641F22B7362
:101C00004FF00004CD1842EB0406284631460C4C38
:101C100041F22C724FF00003A04703460C461846D1
:101C2000084B984700BF2C37BD46BDE8F08F00BF7A
:101C30000884400000400240651940009D134000A8
:101C4000D11F4000010040200C8440001884400057
:101C50002C8440002DE9F04F8FB000AF9F49A04881
:101C6000A04B98479D499E489E4B98479B499E484C
:101C70009C4B98479D4B9847034619464FF00002EE
:101C80000B461446DB1844EB04045B1844EB0204D7
:101C9000E60046EA5376DD002B4634465B1844EBFB
:101CA00002044FEA441949EAD3694FEA431843460C
:101CB0004C461946224641F22B734FF00004CD18D2
:101CC00042EB040628463146894C41F22C724FF013
:101CD0000003A04703460C461846864B98478649A2
:101CE0008148804B9847814B9847034619464FF0EF
:101CF00000020B461446DB1844EB04045B1844EB6B
:101D000002044FEAC40B4BEA537B4FEAC30A534623
:101D10005C465B1844EB020462017A637A6B42EA28
:101D2000D3627A635B013B63D7E90C3419462246E0
:101D300041F22B734FF00004CD1842EB0406284605
:101D400031466B4C41F22C724FF00003A047034622
:101D50000C461846674B984768496348614B98475B
:101D6000624B9847034619464FF000020B46144653
:101D7000DB1844EB04045B1844EB0204E000F86257
:101D8000F86A40EA5370F862DB00BB62D7E90A34B4
:101D90005B1844EB020462017A627A6A42EAD36217
:101DA0007A625B013B62D7E908341946224641F268
:101DB0002B734FF00004CD1842EB04062846314641
:101DC0004B4C41F22C724FF00003A04703460C46E7
:101DD0001846484B98474A494348424B9847434B1B
:101DE0009847034619464FF000020B461446DB188D
:101DF00044EB04045B1844EB0204E000F861F8696A
:101E000040EA5370F861DB00BB61D7E906345B1828
:101E100044EB020462017A617A6942EAD3627A6130
:101E20005B013B61D7E904341946224641F22B732A
:101E30004FF00004CD1842EB0406284631462C4CE6
:101E400041F22C724FF00003A04703460C4618469F
:101E5000284B98472B492448224B9847234B9847B7
:101E6000034619464FF000020B461446DB1844EBBC
:101E700004045B1844EB0204E000F860F86840EAF0
:101E80005370F860DB00BB60D7E902345B1844EBA9
:101E9000020462017A607A6842EAD3627A605B0186
:101EA0003B60D7E900341946224641F22B734FF0CC
:101EB0000004CD1842EB0406284631460C4C41F292
:101EC0002C724FF00003A04703460C461846094BFE
:101ED000984700BF3C37BD46BDE8F08F08844000FE
:101EE000004002406519400000C002409D134000C0
:101EF000D11F4000010040200C8440003C84400081
:101F0000508440006084400080B5B2B000AF214BE7
:101F10009847214B4FF400425A60204B9847204B82
:101F20009847204B9847204B9847204B984707F1FC
:101F3000640319461E481F4B984797F86430312BAD
:101F40000BD13B461C4A1D4918461D4B98473B4642
:101F5000194617481B4B9847E9E797F86430322B2E
:101F60000BD13B46184A15491846154B98473B4636
:101F700019460F48134B9847D9E73B46134A0F4978
:101F800018460F4B98473B46194609480D4B984752
:101F9000CDE700BFAD04400050180E40C11740000F
:101FA00041184000D1184000251A4000551C40003F
:101FB00000C00240B51940006C84400078844000A5
:101FC0009525400065194000808440008C844000C5
:101FD00053B94AB9002908BF00281CBF4FF0FF3190
:101FE0004FF0FF3000F07AB9ADF1080C6DE904CE86
:101FF00000F006F8DDF804E0DDE9022304B07047E4
:102000002DE9F0478C460D460446089E002B51D121
:102010008A4217466DD9B2FA82FEBEF1000F0BD08C
:10202000CEF1200C01FA0EF520FA0CFC02FA0EF7A4
:102030004CEA050C00FA0EF44FEA174A250CBCFBDB
:10204000FAF81FFA87F90AFB18CC45EA0C4508FB99
:1020500009F3AB420AD9ED1908F1FF3280F0238170
:10206000AB4240F22081A8F102083D44ED1AA4B22F
:10207000B5FBFAF00AFB105544EA054400FB09F9E8
:10208000A14509D9E41900F1FF3380F00A81A14587
:1020900040F2078102383C44A4EB090440EA0840BE
:1020A0000021002E61D024FA0EF400233460736006
:1020B000BDE8F0878B4207D9002E54D0002186E876
:1020C00021000846BDE8F087B3FA83F1002940F00B
:1020D0008E80AB4202D3824200F2FA80841A65EB12
:1020E00003050120AC46002E3FD086E81010BDE865
:1020F000F08712B90127B7FBF2F7B7FA87FEBEF1F6
:10210000000F34D1EB1B3A0C1FFA87FC0121B3FB03
:10211000F2F8250C02FB183345EA03450CFB08F3E3
:10212000AB4207D9ED1908F1FF3002D2AB4200F201
:10213000D1808046ED1AA3B2B5FBF2F002FB105538
:1021400043EA05440CFB00FCA44507D9E41900F15F
:10215000FF3302D2A44500F2B8801846A4EB0C0469
:1021600040EA08409DE731463046BDE8F087CEF1B1
:10217000200405FA0EF307FA0EF720FA04F83A0CD9
:1021800025FA04F448EA0308B4FBF2F14FEA1845D3
:1021900002FB11441FFA87FC45EA044501FB0CF3DE
:1021A000AB4200FA0EF409D9ED1901F1FF3080F0CD
:1021B0008A80AB4240F2878002393D44EB1A1FFA15
:1021C00088F5B3FBF2F002FB103345EA034500FB50
:1021D0000CF3AB4207D9ED1900F1FF386FD2AB42D7
:1021E0006DD902383D44EB1A40EA01418FE7C1F155
:1021F000200722FA07F88B4005FA01F448EA0303A6
:1022000020FA07FE4FEA134CFD404EEA040EB5FBE0
:10221000FCF94FEA1E440CFB19551FFA83F844EAF7
:10222000054509FB08F4AC4202FA01F200FA01FA92
:1022300008D9ED1809F1FF3043D2AC4241D9A9F1D8
:1022400002091D442D1B1FFA8EFEB5FBFCF00CFB92
:1022500010554EEA054400FB08F8A04507D9E418DC
:1022600000F1FF3529D2A04527D902381C4440EAA5
:102270000940A4EB0804A0FB02894C45C6464D4624
:1022800015D312D056B1BAEB0E0364EB050404FA71
:1022900007F7CB401F43CC40376074600021BDE896
:1022A000F0871846F8E69046E0E6C245EAD2B8EB79
:1022B000020E69EB03050138E4E72846D7E74046FC
:1022C00091E78146BEE7014678E702383C4445E79E
:1022D000084608E7A8F102083D442BE7704700BF15
:1022E00070B50F4E0F4D761BB61018BF002405D0E9
:1022F000013455F8043B9847A642F9D10A4E0B4DDC
:10230000761B06F01DFAB61018BF002406D0013463
:1023100055F8043B9847A642F9D170BD70BD00BF87
:102320004C8740004C874000548740004C87400059
:102330000FB400B5074983B004AB086853F8042B09
:102340008168019301F0BAFB03B05DF804EB04B0BF
:10235000704700BF1000402070B4860746D0541E5E
:10236000002A41D0CAB2034602E014F1FF343BD345
:1023700003F8012B9D07F8D1032C2ED9CDB245EAE5
:1023800005250F2C45EA054519D903F1100226460B
:10239000103E0F2E42F8105C42F80C5C42F8085CCC
:1023A00042F8045C02F11002F2D8A4F1100222F00B
:1023B0000F0204F00F041032032C13440DD91E46F3
:1023C0002246043A032A46F8045BFAD8221F22F078
:1023D00003020432134404F003042CB1C9B21C44B8
:1023E00003F8011B9C42FBD170BC704714460346A6
:1023F000C2E700BF00290CBF022200224FF4806315
:1024000000F000B82DE9F043614C256883B0044624
:102410000F4690461E4615B1AB6B002B64D0B8F149
:10242000020F06D0B8F1010F00F29F80002EC0F21B
:102430009C80636ED80734D52146284603F09AFA6B
:10244000216B41B104F14003994202D0284603F0C8
:102450000FFC00232363B4F90C300022A2616260F8
:102460001A063AD423F44A6323F00303B8F1020FA7
:10247000A3811DD001AB6A462146284603F0A4FE85
:10248000A3891843A081002E32D1009E304603F06C
:1024900013FF074600286BD0A38943F08003A38174
:1024A00028E0A3899905C7D4A06D03F089FEC3E78E
:1024B0000025616E002604F1430243F0020301206F
:1024C000A660CE07A38122602261606101D49805D5
:1024D0003ED5284603B0BDE8F0832169284603F0C5
:1024E000C7FBB4F90C30BDE7284603F09BFA96E72A
:1024F000002FCBD0AB6B002B33D0009BB4F90C205A
:1025000027609E421CBF42F40062A281B8F1010F15
:1025100004BF42F00102A28192B212F008032761C7
:1025200066610ED0D1071AD5656E7642002315F08C
:102530000105A661A36009D00025284603B0BDE8C7
:10254000F083A360656E15F00105F5D19305C0D445
:10255000A06D03F037FE284603B0BDE8F083A66007
:10256000F0E7284603F05EFAC7E74FF0FF35B0E723
:10257000DDF80090B14504D0484603F09DFE0746C3
:1025800020B9B4F90C304FF0FF3592E74E4683E79F
:10259000100040200EB4F0B59CB021AB0F4953F8A9
:1025A000042B019305466FF00044086802954FF430
:1025B00002774FF6FF7602A90695ADF814700494E1
:1025C0000794ADF8166000F00BF8029B00221A7019
:1025D0001CB0BDE8F04003B0704700BF10004020C1
:1025E0002DE9F04FC3B00C460B9192460F930C901F
:1025F00003F0D4FD03681A93184604F081FFA38901
:102600001990190603D52369002B01F003800023DC
:102610000DF1C809139315931493279326931893D8
:102620001B930993CDF89490C846169317939AF884
:1026300000305446E3B1252B02D119E0252B03D0FD
:1026400014F8013F002BF9D1A4EB0A0585B1269BB4
:10265000279AC8F800A001332A44072BC8F8045071
:10266000279226937FDC08F10808099B2B440993E5
:102670002378002B7FD000231A468DF87730194637
:102680000D939B464FF0FF3063780A9004F1010AE6
:102690000AF1010AA3F12000582800F2C183DFE803
:1026A00010F03802BF03BF034002BF03BF03BF03E4
:1026B000BF03BF03BF0345020302BF035D006B02FC
:1026C000BF0386029D039D039D039D039D039D0300
:1026D0009D039D039D03BF03BF03BF03BF03BF0350
:1026E000BF03BF03BF03BF03BF0337035703BF03CA
:1026F0005703BF03BF03BF03BF039803BF03BF0359
:10270000AD03BF03BF03BF03BF03BF035902BF0332
:10271000BF031E03BF03BF03BF03BF03BF03BF034A
:10272000BF03BF03BF03BF03C602DB025703570348
:1027300057038B02DB02BF03BF039002BF039D025E
:10274000CC01B4020802BF03E101BF037E00BF0356
:10275000BF030D020D980F9340420D904BF0040BF8
:102760009AF8003094E725AA0B990C9804F036FFEC
:1027700040B9C84679E7279B23B10C980B9925AA45
:1027800004F02CFF0B9B9B8913F0400F099B18BF93
:102790004FF0FF330993099843B0BDE8F08F1BF069
:1027A000200F119340F0DD810F9A1BF0100F13469C
:1027B00040F06E851BF0400F00F06A8514880432EB
:1027C000002501230F9200278DF877700A994A1C83
:1027D00000F065822BF08002079254EA050240F077
:1027E0006482002940F03C84002B40F0D7841BF029
:1027F00001030E9300F0048642AE302306F8413DFB
:102800000A9B0E9A9342B8BF134608930023129373
:1028100017B1089B01330893079B13F00203109331
:1028200002D0089B02330893079B13F0840540F005
:102830000E830D9B089AA3EB020BBBF1000F40F334
:102840000683BBF1100F279C269A29DD43462146BB
:10285000A84610270C9C0B9D06E0ABF1100BBBF1BA
:10286000100F03F1080318DD0132B748269210312A
:10287000072A279183E88100EFDD25AA2946204613
:1028800004F0ACFE00287FF47DAFABF1100BBBF180
:10289000100F2799269A4B46E6DC45460C4698468B
:1028A0000132A94B26925C44072A279488E808083D
:1028B00000F398849DF8777008F1080877B1269B9B
:1028C000013301340DF177010122072B2794269360
:1028D00088E8060000F3DB8308F10808109B6BB161
:1028E000269B013302341EA90222072B279426932C
:1028F00088E8060000F3D68308F10808802D00F070
:1029000015830A9B0E9A9F1A002F36DD102F269BE7
:102910008E4D27DD42462146B0464FF0100B2E4625
:102920000C9C0B9D04E0103F102F02F1080215DDF6
:1029300001331031072B2791269382E84008F2DDFE
:1029400025AA2946204604F049FE00287FF41AAF44
:10295000103F102F2799269B4A46E9DC35460C4646
:102960004646904601333C44072B2794269388E83B
:10297000A00000F3818308F10808079BDF0500F140
:102980006882269B0E99C8F8006001330C44072B1F
:102990002794C8F80410269300F34D8308F1080823
:1029A000079B5B073AD50D9B089A9D1A002D35DDD4
:1029B000102D269B20DD10260C9FDDF82CB004E0A6
:1029C000103D102D08F1080816DD01335E4A2693EC
:1029D0001034072B279488E84400F1DD25AA5946D6
:1029E000384604F0FBFD00287FF4CCAE103D102DDE
:1029F000279C269BC846E8DC0133534A26932C4487
:102A0000072B279488E8240008DD25AA0B990C9849
:102A100004F0E4FD00287FF4B5AE279C099B0D9AD5
:102A200008998A42ACBF9B185B180993002C40F0B0
:102A30000D8300232693C846F9E511931BF020036C
:102A400040F0E3811BF0100240F02E841BF04003A5
:102A500000F02A840F9913460A4604320C880F921C
:102A60000025B0E60F9A1193166800248DF8774080
:102A7000151D002E00F0A7860A9A531C00F0098647
:102A80002146304603F0ECFE002800F0E186831B6F
:102A90000E930A940F95CDF81CB023EAE3730893C4
:102AA00012949DF87770B3E69AF8003001222B213A
:102AB000EEE54BF0200B9AF80030E9E51193002A7F
:102AC00040F09587224B18931BF0200F40F01181A6
:102AD0000F9A1BF0100F134640F0E1831BF0400FDC
:102AE00000F0DD83043314880F9300251BF0010FE1
:102AF00000F00C8154EA050300F0088130239DF8B2
:102B000044208DF878308DF879204BF0020B0223A9
:102B100059E69AF8003000297FF4BAAD012220214D
:102B2000B6E54BF0010B9AF80030B1E50F9C236835
:102B30000D9318460028234603F10403FFF60AAE5E
:102B40000F939AF80030A3E5E0844000F084400041
:102B5000C08440004BF0100B1BF0200F11933FF48A
:102B600023AE0F9D073525F0070303F10802D3E9D3
:102B700000450F92012326E69AF800302A2B0AF12D
:102B8000010400F02787A3F130000928A24600F2D3
:102B9000AD8600231C461AF8013B04EB840400EBCD
:102BA0004404A3F130000928F5D90A9472E54BF0EA
:102BB000800B9AF800306BE54BF0400B9AF8003030
:102BC00066E59AF800306C2B03BF9AF801304BF0A1
:102BD000200B0AF1010A4BF0100B59E5002A40F0D6
:102BE00011871BF0200F40F0F9841BF0100F40F00C
:102BF000AC841BF0400F00F0A8840F9A13680432D5
:102C00000F92BDF824201A8011E50F99B34B0C6880
:102C100018933022782304318DF8793011934BF0DA
:102C2000020B0F9100258DF878200223CBE50F9938
:102C300011930A688DF8A02000230A461F468DF8DC
:102C40007730043201230893CDF81CB00A9712970D
:102C50000F920E9328AEDFE51193002A40F0EA862A
:102C60001BF0200F5DD11BF0100F40F008831BF00C
:102C7000400F00F004830F99B1F900400431E517CB
:102C800022462B460F91002A73F1000358DB0A9964
:102C90009DF877704A1C4FF001037FF49BAD54EA16
:102CA000050200F0DF81CDF81CB0012B00F07B8223
:102CB000022B40F0068218984E46230904F00F01BB
:102CC00043EA05732A091C461546435C06F8013D94
:102CD00054EA0503F1D1A9EB06030E9390E5119395
:102CE000002A40F0A3867E4B18931BF0200F3FF480
:102CF000EFAE0F9D073525F0070303F108021BF027
:102D0000010F0F92D3E900457FF4F4AE02235AE598
:102D10001193002A40F086864BF0100B1BF0200F19
:102D2000A1D00F9D073525F00705D5E90023002A1E
:102D300005F108011D4673F100030F911446A6DA50
:102D40002D27644265EB45058DF8777001233DE53D
:102D50001193002A40F062860F9D073525F0070386
:102D600003F108020F921A6815925B681493149B82
:102D7000159D23F00044284621464FF0FF32594B61
:102D800005F0FAFA002840F04A83284621464FF021
:102D9000FF32544B05F0D2FA002840F0408315A8CA
:102DA0000DC8149905F0C0FA002840F030859DF850
:102DB00077704D4E4D4B2BF08000079011980322F9
:102DC000002108920A914728D8BF1E460E92129100
:102DD0001EE54BF0080B9AF8003059E4A3F13000DF
:102DE00000231C461AF8013B04EB840400EB440466
:102DF000A3F130000928F5D90D944BE44BF0100BEA
:102E000011931BF020033FF41DAE0F9D073525F0F5
:102E1000070303F10802D3E900450F920023D2E42F
:102E20001193002A40F0E785119A002A3FF4A3ACE1
:102E3000002301211F4608918DF8A020CDF81CB079
:102E40008DF877300A9312930E9128AEE4E4279C14
:102E500034E5119B652B40F3A78015A80DC8149984
:102E600005F058FA002800F05081269B204AC8F847
:102E70000020013301340122072B27942693C8F840
:102E8000042000F36A8308F108081F9B139A279C0B
:102E9000934203DB079BDD077FF582AD269B1999E3
:102EA0001A9AC8F8002001330C44072BC8F8041004
:102EB0002794269300F39E8308F10808139B5E1E57
:102EC000002E7FF76DAD102E269B0A4D40F3F58145
:102ED00022461027DDF830B00B9C13E0C084400080
:102EE000AC844000FFFFEF7FA08440009C84400042
:102EF000DC844000F084400008F10808103E102EE9
:102F000040F3DA8101331032072B2792269388E8A9
:102F1000A000F1DD25AA2146584604F05FFB0028F9
:102F20007FF430AC279A269BC846E7E70D9B089AAA
:102F30009F1A002F7FF7E5AC102F269BB64D27DD9B
:102F400042462146B0464FF0100B2E460C9C0B9D7E
:102F500004E0103F102F02F1080215DD013310319B
:102F6000072B2791269382E84008F2DD25AA2946FF
:102F7000204604F033FB00287FF404AC103F102FF0
:102F80002799269B4A46E9DC35460C46464690463C
:102F900001333C44072B2794269388E8A00000F3D4
:102FA000328208F10808ACE4139B269F012B40F302
:102FB000FE81013701340123072F27942697C8F893
:102FC0000060C8F8043000F3038208F10808199A79
:102FD0001A9BC8F8003001371444072F279426970E
:102FE000C8F8042000F3008208F1080815A80DC8ED
:102FF000149905F08FF9139B002840F00181013BE3
:10300000013701361C44072F26972794C8F8006023
:10301000C8F8043000F3278108F108081B9AC8F8A3
:1030200004200137144421AB072F27942697C8F8B2
:1030300000307FF7B3AC25AA0B990C9804F0CEFAB8
:1030400000287FF49FAB279CC846A9E425AA0B99CA
:103050000C9804F0C3FA00283FF4EBACFFF792BBE6
:10306000DDF81CB0012B00F03481022B25D1CDF806
:103070001CB0002400251EE625AA0B990C9804F02C
:10308000ADFA00287FF47EAB279CC84675E425AADC
:103090000B990C9804F0A2FA00287FF473AB279CDC
:1030A000C8461BE425AA0B990C9804F097FA00284F
:1030B0007FF468AB279CC84620E4CDF81CB0002400
:1030C0000025494600E03146E20842EA4572E80838
:1030D00004F0070305461446303354EA050201F8AC
:1030E000013C01F1FF36EED1079AD2077FF5F3AD2F
:1030F000302B3FF4F0AD0239302306F8013CA9EB48
:1031000001030E930E46FFF77BBB1F99002940F386
:103110002E82129B139A9342A8BF1346002B1F4680
:103120000DDD269BC8F8006001333C44072B279433
:10313000C8F80470269300F31F8308F10808129B57
:10314000002FA8BFDB1B002B1F4640F3D680102F9B
:10315000269B314D40F3ED8142462146B0464FF06B
:10316000100B2E460C9C0B9D04E00832103F102FD4
:1031700040F3DB8101331031072B2791269382E83E
:103180004008F2DD25AA2946204604F027FA002847
:103190007FF4F8AA2799269B4A46E7E70A9B0E93F5
:1031A0004E46FFF72DBB002D08BF0A2CC0F08F80C4
:1031B0004E46204629460A220023FEF709FF3032F8
:1031C00006F8012D2046294600230A22FEF700FFBB
:1031D00004460D4654EA0503EBD1A9EB06030E9312
:1031E000FFF70EBB25AA0B990C9804F0F7F90028FD
:1031F0007FF4C8AA9DF87770279CC846FFF75EBB8E
:103200005E1E002E7FF70AAF102E034D22DD2246F0
:103210004FF0100B0C9C06E0F0844000103E102E86
:1032200008F1080815DD01371032072F279226977D
:1032300088E82008F2DD25AA0B99204604F0CEF993
:1032400000287FF49FAA103E102E279A269FC8467A
:10325000E9DC144601373444072F2794269788E881
:1032600060007FF7D9AE25AA0B990C9804F0B6F947
:1032700000287FF487AA279C269FC846CEE60F9A8F
:10328000146813460433E5170F9322462B46FAE4DD
:1032900004321C680F9201230025FFF794BA1C68C2
:1032A00004330F93002521E40F990A4604320C6879
:1032B0000F920025FFF787BA144601333444072BD9
:1032C0002794269388E860007FF768ABB3E6DDF8C3
:1032D0001CB0CDF81CB042AE3034012306F8414D8D
:1032E0000E93FFF78DBA25AA0B990C9804F076F986
:1032F00000287FF447AA279CC8461F9A139B9A422E
:1033000044DB079BD90741D4139B12989A1A1D1AC4
:103310009542A8BF1546002D0EDD2699C8F8045029
:10332000013106442C440729C8F8006027942691EF
:1033300000F33B8208F10808002DACBF561B16466F
:10334000002E7FF72DAB102E269BB04DB5DD22460B
:103350001027DDF830B00B9C04E008F10808103E9F
:10336000102EA9DD01331032072B2792269388E80F
:10337000A000F2DD25AA2146584604F02FF90028C6
:103380007FF400AA279A269BC846E8E7269B19984F
:103390001A99C8F8001001330444072B2794C8F881
:1033A0000400269300F3F58108F10808ACE7079BB9
:1033B000DA073FF5FEAD013701340123072F2794CB
:1033C0002697C8F80060C8F804307FF725AE4AE7B2
:1033D00025AA0B990C9804F001F900287FF4D2A9D2
:1033E000279C269FC846F2E525AA0B990C9804F065
:1033F000F5F800287FF4C6A9279C269FC846F5E566
:103400004E46FFF7FDB925AA0B990C9804F0E6F893
:1034100000287FF4B7A9279CC846FFF772BA159C0D
:1034200022462046149C2346214604F0A5FF00288E
:1034300040F086820A9B0133119B23F020030E93F8
:1034400000F0E281472B00F01E814BF4807307935C
:10345000149B1F1E159B0893BBBF3B4603F10047FF
:1034600000232D231093119B662B00F0BB81462B6C
:1034700000F0DF800E9B089A452B0CBF0A9B0A9D2B
:1034800023A820A908BF5D1C049003911FA8022156
:103490003B460290019500910C9801F0A1FA119B16
:1034A000672B064640F0E0811BF0010F00F04682DA
:1034B0007419169A0898179B394604F02BFF0028B8
:1034C00040F06581239BA34206D230215A1C2392EF
:1034D0001970239B9C42F9D89B1B13930E9B472B7F
:1034E00000F0E980119B652B40F3CD81119B662B89
:1034F0001F9B129300F09E81139B129A19469142D2
:1035000000F38A811BF0010F40F0138222EAE2737C
:10351000089367230E921193109B002B40F0C480F8
:103520000A939DF87770FFF773B935460C46464607
:10353000904601333C44072B2794269388E8A0004B
:103540003FF7D1AE08F10808D7E60F9A13680432A6
:103550000F92099A1A60FFF76AB825AA0B990C987E
:1035600004F03CF800287FF40DA9C8468DE4269BA2
:10357000274AC8F80020013301340122072B279481
:103580002693C8F8042072DC08F1080829B9139BB7
:103590001BB9079BD8077FF503AA269B19981A9A8F
:1035A000C8F80020013302462244072B2792C8F8AE
:1035B0000400269300F38D8108F108080029C0F269
:1035C00065811399C8F8006001338C18072B279484
:1035D0002693C8F804107FF7E1A92CE50F9A099902
:1035E0001368CD170846043229460F92C3E900013B
:1035F000FFF71DB825AA0B990C9803F0EFFF0028E0
:103600007FF4C0A8279CC84658E400BFF08440005F
:10361000DC84400040210C9802F056FE0B9A1060AA
:103620001061002800F0F2810B9A40235361FEF7ED
:10363000EEBF23A820A90A9C049003911FA8032190
:103640000290089A01943B4600910C9801F0C8F949
:1036500025460646119B462B06EB05047FF429AF51
:103660003378302B00F078811F9D2C4421E725AA68
:103670000B990C9803F0B2FF00287FF483A81F99E0
:10368000279CC84682E70A9B002B08BF01230A93A8
:10369000DBE630460A9403F033FF0F950E90CDF829
:1036A0001CB00346FFF7F9B92D2700238DF877707A
:1036B0000A93FFF7AEB81F9B12931A46033304DB3D
:1036C0000A9B19469142BFF617AF119B023B11931B
:1036D0009DF844308DF88430129B013B002B1F93E2
:1036E000BDBF129BC3F101032D222B22092B8DF8A4
:1036F000852040F316810DF193042046AB4D00E088
:10370000104685FB0312D917C1EBA20101EB810220
:10371000A3EB42023032092900F8012C0B4600F1DC
:10372000FF32EDDC30330238D9B2844202F8011C9A
:1037300040F265810DF18600134601E013F8011B8C
:1037400000F8011BA342F9D101339B1A0DF1860247
:10375000134421AA9B1A139A1B93012A13440E9314
:1037600040F319810E9B199A13440E9323EAE373D5
:10377000089300231293CFE625AA0B990C9803F027
:103780002DFF00287EF4FEAF279CC846D7E42346D1
:10379000A2E625AA0B990C9803F020FF00287EF4DE
:1037A000F1AF1F9A279CC846AEE525AA0B990C9845
:1037B00003F014FF00287EF4E5AF1F9A139B279CAB
:1037C0009A1AC846B8E50A9B1296062B28BF06230C
:1037D0000A96374608930F95CDF81CB00E93744E99
:1037E000FFF716B823A820A90A9D049003911FA8EB
:1037F00003210290089A01953B4600910C9801F034
:10380000EFF8064644192BE706230A931DE62D27F9
:103810008DF87770FFF7CDBA199A139B1344129A5B
:103820000E93002A40F3B08023EAE37308936723E2
:10383000119371E6002B40F3C3800A9A002A40F0EE
:1038400099801BF0010F40F0958008930E9363E67A
:103850000A9B08930E930A900F95CDF81CB0129016
:103860009DF87770FEF7D4BF119B472B7FF420AEF5
:103870001BF0010F7FF4EEAE239B9B1B13930E9B5B
:10388000472B3FF418AF1F9B129321E74F42103193
:10389000484D2FDA1024DDF830B004E008F10808B4
:1038A000103F102F26DD01331032072B279226936D
:1038B000C8F80050C8F80440F0DD25AA0B99584616
:1038C00003F08CFE00287EF45DAF279A269BC84645
:1038D000E6E725AA0B990C9803F080FE00287EF4F9
:1038E00051AF1F99279A269BC84667E600200A9089
:1038F000FEF7D0BE01333A44072B88E8A000279298
:10390000269308F108087FF75CAE25AA0B990C985E
:1039100003F064FE00287EF435AF279A269BC84644
:103920004FE6303330228DF887308DF8862022AB79
:103930000FE7129B199A13440E9375E7239BCBE56F
:10394000149B1D4E002BB6BF2D279DF877708DF868
:1039500077701A4BFFF72FBA169A0898179B3946BB
:1039600004F0D8FC00287FF47FAEC5F101051F9557
:103970002C449EE5129B199A13440A9A1A4422EA8F
:10398000E2730E920893C7E5129B0E9AC3F10103EE
:103990001A441346D0E71BF0010312937FF4E2AE02
:1039A0000E9B23EAE3730893B6E500BF676666667D
:1039B000D4844000F0844000A8844000A4844000E7
:1039C0000A9B13B91BF0010F02D0199B0133D4E7F6
:1039D00001233AE70F9D9AF80130286840EAE07029
:1039E0000A9028460430A2460F90FEF751BE8DF88B
:1039F0007710FFF767B88DF87710FFF715BA0DF15C
:103A00008603A6E68DF87710FFF7EBB80C9A0C2327
:103A100013604FF0FF330993FEF7BDBE8DF87710AA
:103A2000FFF79AB98DF87710FFF776B98DF8771010
:103A3000FFF759B98DF87710FFF712B92DE9F84F54
:103A40004B6E9C0493462FD59368126853B30E4671
:103A5000074602F1080919E920045FEA9A0817D01D
:103A6000043D002401E0A04510D0324655F8041F63
:103A7000384602F079F8431C04F10104F3D1002325
:103A8000CBF80830CBF80430BDE8F88FDBF808300D
:103A90002AF0030AA3EB0A03CBF8083009F108095E
:103AA000002BD8D10020EAE702F0C8F90023CBF8B8
:103AB0000830CBF80430BDE8F88F00BF2DE9F04F97
:103AC000ADB01D468B4690460793069018B1836BA8
:103AD000002B00F0F380DBF86430BBF90C00DF074B
:103AE00081B202D48E0540F1FC808C040AD4DBF84C
:103AF000643040F4005123F40053ABF80C10CBF8C1
:103B0000643089B2080740F1B380DBF81030002B35
:103B100000F0AE8001F01A030A2B00F0B5800023FC
:103B20000DF170090B93119310930393CDF83C9012
:103B3000CA46CDF810B098F800304446FBB1252BAA
:103B400002D11CE0252B03D014F8013F002BF9D142
:103B5000A4EB08059DB1109B119ACAF800800133AF
:103B60002A44072BCAF80450119210937ADD002AD8
:103B700040F0B084039B10922B44CA4603932378F1
:103B8000002B00F0E08300204FF000038DF8373069
:103B900004F1010862780546064603464FF0FF34FB
:103BA00008F10108A2F12001582900F2DE82DFE8C5
:103BB00011F02102DC02DC022902DC02DC02DC0260
:103BC000DC02DC02DC0289029502DC02A200BD02FA
:103BD000DC029F01A401A401A401A401A401A40189
:103BE000A401A401A401DC02DC02DC02DC02DC0290
:103BF000DC02DC02DC02DC02DC02B201DC02DC0200
:103C0000DC02DC02DC02DC02DC02DC02DC02DC02C4
:103C10009701DC02DC02DC02DC02DC029B01DC023C
:103C2000DC025302DC02DC02DC02DC02DC02DC022D
:103C3000DC02DC02DC02DC025A021B02DC02DC02D7
:103C4000DC026E021B02DC02DC027302DC02F50104
:103C500082010902D702DC029A02DC02A700DC0220
:103C6000DC022E020AF1080A039B2B44039386E729
:103C70005946069800F0ACFD18BBBBF80C1001F0DB
:103C80001A030A2B7FF44BAFBBF90E30002BFFF663
:103C900046AFDBF86430DB0705D48F0503D4DBF8CF
:103CA000580002F08FFA2B4642465946069800F01B
:103CB0004DFD039003982DB0BDE8F08F01F0B2FEEA
:103CC00009E7DBF86430D90704D4BBF80C309A0557
:103CD00040F1AA844FF0FF33039303982DB0BDE861
:103CE000F08FDBF8580002F06BFABBF90C0081B2E0
:103CF000FBE67642079243F0040398F800204FE772
:103D000008969E0600F150840799DD060A4600F1E8
:103D1000EF83580640F1EC830E880431002701221E
:103D200007914FF000018DF837100025611C00F05D
:103D3000168123F08001029156EA070140F01481B8
:103D4000002C40F05C83002A40F0B78313F001039D
:103D5000059300F057840DF1B00B30230BF8413D73
:103D6000059BA342B8BF234601930DB101330193D4
:103D7000029B13F00203099302D0019B02330193CB
:103D8000029B13F084030A9340F01782089B019A68
:103D90009D1A002D40F31182102D40F39084109B4A
:103DA000119AC44ED6461027A2461946069C07E033
:103DB00001F1020C0EF1080E0146103D102D11DD2F
:103DC000481C1032072811928EE8C0001090EFDDD9
:103DD000002A40F0E481103D102D11464FF0010CF7
:103DE000CE46EDDC54466146F2462A44072911923C
:103DF000CAF80060CAF80450109100F3EC829DF8F4
:103E000037500AF1080A481C002D40F0DE81099B5A
:103E1000002B00F0F88102320EA90223072811922C
:103E200010908AE80A0040F3EA81002A40F08C836F
:103E30000A9B802B4FF001001146CA4640F0E781F3
:103E4000089B019D5E1B002E40F3E181102E9A4DD0
:103E500040F35084D4461027A246069C07E001F1A7
:103E6000020E0CF1080C0146103E102E11DD481C0C
:103E70001032072811928CE8A0001090EFDD002A84
:103E800040F09D82103E102E4FF0010E1146CC46A0
:103E9000EDDC5446E2463244BEF1070F11928AE847
:103EA0006000CDF840E000F369830AF1080A0EF1E2
:103EB00001007146ABE1089613F0200240F08C83BC
:103EC00013F0100140F01A8313F0400200F0168343
:103ED00007980A460146043106880791002720E723
:103EE000089643F01003E7E7089643F0100308E74D
:103EF00043F0800398F8002052E6A2F1300100263A
:103F000018F8012B06EB860601EB4606A2F13001FC
:103F10000929F5D946E60896002840F0088443F0C0
:103F200010039E0600F14C83DD0600F1F382580673
:103F300040F1F082079DB5F900602A46F717043278
:103F4000304639460792002871F10002C0F25D83C5
:103F5000611C9DF837504FF001027FF4EAAE56EA3B
:103F6000070100F04D820293012A00F08C82022AA0
:103F700040F05C820B98CB46330906F00F0143EA10
:103F800007733A091E461746435C0BF8013D56EA93
:103F90000703F1D1A9EB0B030593E1E6002840F0FC
:103FA000C083990600F16783DA0600F1F1805B06B1
:103FB00040F1EE80079A136804320792BDF80C2096
:103FC0001A80B8E507983D4A08960B920668782251
:103FD000302104308DF8392043F002030790002788
:103FE0008DF8381002229CE60896002899D08DF8AA
:103FF000375096E798F80020002D7FF4D1AD0120CE
:104000002025CDE543F0010398F80020C8E5089687
:10401000002840F0938329490B919F0600F1E88224
:104020000798DE06014600F170825D0640F16D8260
:104030000431068807910027D80740F1228256EA0A
:10404000070100F01E8230218DF8392043F0020371
:104050008DF83810022264E60896002840F06B8341
:1040600017490B91D9E7079908960A688DF84820F7
:104070004FF000000A468DF837000432012001900D
:10408000079205900DF1480B0293002470E643F06F
:10409000400398F8002083E598F800206C2A03BFBD
:1040A00098F8012043F0200308F1010843F01003C1
:1040B00076E500BF0085400010854000C0844000C8
:1040C000AC84400007990E680A46002E02F10402F3
:1040D000FFF60FAE079298F8002061E598F80020EF
:1040E00001202B255CE507990896D1F800B04FF028
:1040F00000028DF837200E1DBBF1000F00F0E582A5
:10410000671C00F0C482224600215846019302F049
:10411000A7FB019B002800F0E582A0EB0B020592B3
:10412000079602939DF83750002419E698F800206E
:104130002A2A08F1010700F0E982A2F130010929D9
:10414000B8464FF000043FF62DAD18F8012B04EBF4
:10415000840401EB4404A2F130010929F5D921E5D9
:1041600043F0200398F800201AE50896002840F054
:10417000DB82002A00F0E78001218DF848204FF013
:10418000000201918DF8372005910DF1480B7BE776
:10419000079A136804320792039A1A60CBE40FAAB5
:1041A00004992046FFF74AFC002840F03981109915
:1041B000119A01F1010CCE46FFE51099119A481CA5
:1041C0009DF83750002D3FF422AE01320DF1370536
:1041D0000121072811921090CAF80050CAF8041063
:1041E00040F30881002A40F0BC81099B002B3FF47A
:1041F0001FAE0EAB022208461C931D92CA46014612
:104200000AF1080A01300A9B802B3FF419AE059B86
:10421000E41A002C2EDD102CB34D1EDDD6461026E0
:10422000069FDDF810A006E0881C0EF1080E194666
:10423000103C102C10DD4B1C1032072B11928EE815
:1042400060001093F0DD002A65D1103C102C4FF077
:1042500001001146CE46EEDCF246224407281192B8
:10426000CAF80050CAF80440109000F385800AF1A3
:10427000080A01300599CAF800B00A4407281192CB
:10428000CAF80410109040F38280002A40F0188190
:10429000029B1092580735D5089B01995C1A002C97
:1042A00040F3E780CA46102C40F3188210998F4ED5
:1042B000069FDDF810B0102506E0881C0AF1080AF8
:1042C0001946103C102C11DD4B1C1032072B11929B
:1042D000CAF80060CAF804501093EEDD42BB103CEF
:1042E000102C4FF001001146CA46EDDC224407288D
:1042F0001192CAF80060CAF80440109051DD002AFB
:1043000040F09B81039B089A01998A42ACBF9B189D
:104310005B1803934EE00FAA51463846FFF78EFB19
:10432000002840F03F811099119A481CCE467FE743
:104330000FAA59463846FFF781FB60B91099119AC8
:10434000481CCA46BDE7119BDDF810B0002B40F0B9
:10435000D48100231093DBF8643013F0010FBBF815
:104360000C3002D19A0540F1DE805B063FF5B2AC1D
:1043700003982DB0BDE8F08F002A40F00681059A21
:104380001D9201231192CDF870B01093CA460AF124
:10439000080A029B590704D5089B01995C1A002C56
:1043A00081DC039B089901988142ACBF5B181B1804
:1043B000039372BB00231093CA46FFF7BCBB0FAA3E
:1043C00004992046FFF73AFB50BB1099119A01F16E
:1043D000010ECC4648E5002A40F040819DF8371098
:1043E000002900F01B8101220DF1370110461D92BA
:1043F0001C91CA4601460AF1080A013007E5029BF2
:10440000012A00F09880022A0DD10293002600278D
:10441000B0E50FAA04990698FFF710FB0028C9D051
:10442000DDF810B097E7029300260027494600E028
:104430005946F20842EA4772F80806F007030746B1
:104440001646303356EA070201F8013C01F1FF3B02
:10445000EED1029AD6077FF59DAD302B3FF49AAD91
:10446000023930230BF8013CA9EB010305938B467D
:1044700076E4039B089A8A42ACBF9B185B180393AF
:1044800098E702224DE4002F08BF0A2E52D3CB46F4
:10449000304639460A220023FDF79AFD30320BF8E8
:1044A000012D3046394600230A22FDF791FD0646CC
:1044B0000F4656EA0703EBD16CE50594CB464FE473
:1044C0000FAA04990698FFF7B9FA0028A8D1119A03
:1044D000CA465EE70FAA04990698FFF7AFFA0028CC
:1044E0009ED1CA46FFF7C0BB108540000085400042
:1044F0000431166807910122002712E4079801464B
:1045000004310668079100270BE40E680431079117
:10451000002791E507990E680A46F71704320792BB
:10452000304639460FE5DBF8580001F04BFEBBF88A
:104530000C301AE7029B02930DF1B00B30360123C9
:104540000BF8416D05930BE40FAA04990698FFF749
:1045500075FA00287FF464AF1099119A481CCA4676
:1045600051E60FAA04990698FFF768FA00287FF42D
:1045700057AF1099119A481CCA4648E4002A40F0E7
:10458000918001201146CA4641E60FAA0499069877
:10459000FFF754FA00287FF443AF1098119A0130C6
:1045A000CA4667E6D346D6E6079E073626F00702D8
:1045B00002F10801D2E9006707910122FFF7B1BBC0
:1045C000079E073626F00706D6E9000106F1080225
:1045D000079206460F46B6E4079E073626F0070206
:1045E00002F10801D2E9006707910022FFF799BBA9
:1045F000079E073626F0070101F108000790D1E970
:10460000006719E5CB46FFF7ABBB2D25764267EB7C
:1046100047078DF837500122FFF788BB099BB3B9D4
:1046200011460120CA46F2E5DBF8580001F0CAFD48
:104630004FF0FF330393FFF750BB0FAA049906987E
:10464000FFF7FCF900287FF4EBAE119AA9E60EAB58
:1046500002221C931D920120CA46D0E50FAA04999C
:104660000698FFF7EBF900287FF4DAAE1099119A5B
:10467000481CCA46A4E5079A03991368CD17084653
:10468000043229460792C3E90001FFF754BA58469D
:104690000796029302F034FF002405909DF83750EE
:1046A000FFF75EBB0FAA04990698FFF7C7F9002829
:1046B0007FF4B6AE1099119A481CCA46A7E5109926
:1046C000119A204E0131FFF790BB062C28BF06241B
:1046D000059407960194DFF870B0D5E41098194E50
:1046E000013003E605949DF837500796029304467F
:1046F000FFF736BB8646FFF7CEBB06980FAA594692
:10470000FFF79CF900283FF424AE24E6079998F8B7
:1047100001200C68043144EAE474B8460791FFF7BD
:104720003FBA8DF837503CE48DF8375021E58DF8CD
:104730003750FFF7F4BB8DF8375091E48DF83750C0
:1047400069E400BF00854000D48440002DE9F041B9
:104750000C46ADF58D6D8989666EE589199621F057
:1047600002010646E069ADF80C1017464FF480616F
:10477000626AADF80E5098461AAD0023079016A84D
:1047800009920693009504950291059101F014FD9C
:1047900043463A4669463046FFF790F9051E07DB67
:1047A0003046694601F0E6F8002818BF4FF0FF35A3
:1047B000BDF80C305B0603D5A38943F04003A38109
:1047C000169801F0FBFC28460DF58D6DBDE8F081D3
:1047D00038B5304B1B6805460C4613B19A6B002A5E
:1047E00038D0B4F90C2093B218070CD52069A8B1C1
:1047F00013F001021ED0636900225B42A361A26034
:10480000F0B1002038BDD9063CD5580726D4206920
:1048100042F00803A3819BB20028E9D103F420727F
:10482000B2F5007FE4D02846214601F0FBFCA389C5
:104830002069DDE7990758BF6269A2600028E0D1CE
:10484000B4F90C301A06DDD543F04003A3814FF0D4
:10485000FF3038BD184601F0E5F8C2E7216B51B1D1
:1048600004F14003994204D0284601F001FAB4F95A
:104870000C200023236300232069636022F02402BC
:104880002060C5E742F0400209232B604FF0FF3063
:10489000A28138BD10004020024B13B1024800F045
:1048A00005B8704700000000955A400000230146FB
:1048B0001A46184602F0B6BF02690B69934200F32C
:1048C0008D802DE9F04F03F1FF3801F1140700F15D
:1048D000140B57F828205BF828304FEA880483B07F
:1048E0000132B3FBF2F90BEB0403009407EB040A6B
:1048F0000193B9F1000F39D000252E46BC46DE46A3
:104900005CF8044BDEF80030A2B209FB0255220C21
:104910002C0C09FB0242ADB2751B96B2C6EB1346D6
:1049200015FA83F306EB23469BB243EA0643E245BE
:104930004FEA12454EF8043B4FEA2646E0D2009B70
:104940005BF8033093B9019C231F9B450CD254F8AC
:10495000043C4BB9A4F1080302E01A68043B1AB9FD
:104960009B4508F1FF38F8D3C0F81080044602F0E8
:10497000CFFA00282EDB09F101095D46002357F824
:10498000041B28688AB29A1A0B0C12FA80F2C3EB45
:10499000104303EB224392B242EA0342BA4545F880
:1049A000042B4FEA2343EAD25BF828200BEB880361
:1049B00082B91A1F93450BD253F8042C42B9083B15
:1049C00002E01A68043B1AB99B4508F1FF38F8D396
:1049D000C4F81080484603B0BDE8F08F002070474F
:1049E0002DE9F04F016C9BB00446279E92469B46F2
:1049F00041B1426C4A60012393408B6002F0B0F8F1
:104A000000232364BBF1000F5D4635DB00233360D8
:104A10009D4BAB4315D0504659460022002303F06E
:104A200079FC804600282DD0269A01231360289B0C
:104A3000002B00F0BD809548186001381BB0BDE820
:104A4000F08F269A42F20F731360BAF1000F0DD166
:104A5000C5F3130555B9289B8D48002BEED000F106
:104A60000803289A13601BB0BDE8F08F289B894883
:104A7000002BE3D0C31CF4E701232BF00045336087
:104A8000AB46C5E718AA19AB0192009352465B46A4
:104A9000204602F0DDFA2B0D814671D0CBF31302D4
:104AA00042F07F51189FCDF850805046A3F2FF3658
:104AB00041F440110022784B03F010F86CA3D3E9C5
:104AC000002303F0BFF96CA3D3E9002303F008F837
:104AD000CDE90201304603F04FF969A3D3E9002381
:104AE00003F0B0F902460B46DDE9020102F0F8FFDF
:104AF000CDE9040103F056FC002202900023DDE919
:104B0000040103F011FC002840F07381029D162D72
:104B100000F25D81614B03EBC503D3E9000152460E
:104B20005B4603F01FFC002800F0C5816B1E02935A
:104B300000230E93BF1B7B1E069300F154810023BC
:104B40000893029B002BC0F24581069A0D931146F3
:104B50001944002306910C93249B092B2AD8052B7A
:104B600040F35B86043B24930025249B023B032BEC
:104B700000F24286DFE813F0D403C902DF036104C8
:104B8000189F199E3E4406F23243202B40F38E813B
:104B9000C3F1400306F212409D402AFA00F0284378
:104BA00003F0DAF80123013EA1F1F871149381E7D3
:104BB0003B4843E7002161642046259101F0AAFFAC
:104BC0004FF0FF330A93259A0F930123049020643A
:104BD00024920B93199B002BC0F2D980029A0E2AC3
:104BE00000F3D5802D4B03EBC203D3E90023CDE9BD
:104BF0000823259B002BC0F2BA83DDE908565046F6
:104C00002A463346594603F047FA03F0CBFB804669
:104C100003F0B2F82A46334603F014F90B46024675
:104C20005946504602F05AFF049D08F130032B709C
:104C30000A9B012B06460F4605F1010568D00022AC
:104C4000184B03F0FFF80022002306460F4603F03E
:104C500061FB002840F08880CDF82C904FF0000ACE
:104C6000DFF840B00C94DDE9088928E0AFF300805C
:104C700061436F63A787D23FB3C8608B288AC63F62
:104C8000FB799F501344D33F0000F07FDD84400048
:104C9000208540002C8540000000F83F68854000DA
:104CA000DC8440000000244003F0CCF80022002304
:104CB00006460F4603F02EFB002840F0C183424613
:104CC0004B463046394603F0E7F903F06BFB0446E8
:104CD00003F052F842464B4603F0B4F802460B4646
:104CE0003046394602F0FAFE04F1300E049E05F813
:104CF00001EBA5EB060E0A9EB645CDE9060152462C
:104D00005B46D1D1A046DDF82C900C9C06460F46A0
:104D100032463B463046394602F0E2FE06460F4632
:104D200002460B46DDE9080103F0FEFA48B93246B7
:104D30003B46DDE9080103F0EDFAA8B118F0010FD8
:104D400012D015F8018C049A6B1E04E09A4200F010
:104D5000018413F8018DB8F1390F03F10105F5D085
:104D600008F1010883F800804946204601F0F8FE6A
:104D70000022029B2A70269A01331360289B002B85
:104D800000F09E8304981D601BB0BDE8F08F0B9A65
:104D9000002A3ED0249A012A40F311830A9B0C9AE0
:104DA0005F1EBA42C0F28F83D71B0A9B002BC0F252
:104DB0008B84089D0A9B089A1A440892069A01213E
:104DC0001A442046069201F065FF064624E00123BE
:104DD0000E93AFE6089A029BD21A5B420C93002313
:104DE00008920D93B8E6C7F10103089300230693D8
:104DF000A7E6029D284602F0BFFF02460B46DDE90A
:104E0000040103F087FA00287FF480AE6B1E029342
:104E10007CE60C9F089D0B9E002D0CDD0699002959
:104E20000B4608DDA942089AA8BF2B46D21AED1AF4
:104E3000CB1A089206930C9BD3B10B9B002B00F06E
:104E4000B782002F10DD31463A46204601F0BEFF02
:104E50004A4601460646204601F026FF494680465E
:104E6000204601F07DFEC1460C9BDA1B40F0A1827A
:104E70000121204601F00EFF0D9B002B80461CDD1A
:104E800001461A46204601F0A1FF249B012B8046D3
:104E900040F3548200230C93D8F8103008EB8303BE
:104EA000186901F0A7FEC0F1200010E0C3F1200551
:104EB0000AFA05F074E60E903CE6249B012B40F3C1
:104EC000878200230C930D9B0120002BE4D1069ACE
:104ED000104410F01F0000F0A180C0F12003042B4B
:104EE00040F39E84089BC0F11C00034408931346C2
:104EF000034405440693089B002B05DD49461A46EA
:104F0000204601F0B3FF8146069B002B05DD41469C
:104F10001A46204601F0AAFF80460E9B002B40F067
:104F200086800A9B002B40F366820B9B002B00F0CF
:104F30009880002D05DD31462A46204601F096FF77
:104F400006460C9B002B40F0378306960A9B049A7A
:104F5000DDF818B0013BD3180B930AF001030C9352
:104F60001746C24651464846FFF7A6FC314605465D
:104F7000484601F0CDFF5A460A905146204601F0BE
:104F8000E3FFC268804605F13003002A40F02B821F
:104F900001464846089301F0BBFF41460690204673
:104FA00001F0DEFD069A089B32B9249921B90C9ACA
:104FB000002A00F0EF83249A0A990029C0F29F8208
:104FC00005D1249919B90C99002900F09882002A7A
:104FD00000F306830B9A3B7007F1010897424546A0
:104FE00000F00C83494600230A22204601F0C2FD4E
:104FF0005E45814631464FF000034FF00A022046DD
:1050000000F0EB8101F0B6FD5946064600230A2266
:10501000204601F0AFFD47468346A3E71C20089BCE
:1050200003440893069B03440544069363E7414603
:10503000484601F06DFF0028BFF673AF029F494656
:1050400000230A222046013F029701F093FD0B9BAB
:105050008146002B40F0B6830F9B002B40F3BF83AB
:105060000A93DDF810B00A9F5D4602E001F082FD70
:10507000814641464846FFF71FFC00F1300A05F81B
:1050800001ABA5EB0B03BB424FF00A024FF000034C
:1050900049462046EADB049B0A9A012AACBF9B18CA
:1050A00001331D464FF0000B49460122204601F016
:1050B000DDFE4146814601F02BFF002840F33D8292
:1050C00015F8012C04996B1E04E08B4200F0AE81B0
:1050D00013F8012D392A03F10105F6D001321A70B7
:1050E0004146204601F03CFD002E3FF43DAEBBF1B1
:1050F000000F05D0B34503D05946204601F030FDDE
:105100003146204601F02CFD2EE600230B93029B36
:10511000259A13440F930133012B1F461E460A9311
:10512000B8BF01270021172F61640AD90122042387
:105130005B0003F114008742114602F10102F7D22D
:105140006164204601F0E6FC0E2E049020643FF6D8
:1051500041AD002D3FF43EAD02990029CDE910ABE1
:1051600040F30282B84B01F00F020D1103EBC203B2
:10517000E906D3E9006740F1AE81B44B5046594689
:10518000D3E9082302F088FFCDE9120105F00F05ED
:105190004FF0030A8DB1DFF8B482EA0709D5304633
:1051A0003946D8E9002302F04DFE0AF1010A06460D
:1051B0000F466D1008F10808EFD13B463246DDE995
:1051C000120102F069FF074688460E9B43B1002298
:1051D0009F4B3846414603F0A7F8002840F08682EE
:1051E000504602F0C9FD3A46434602F02BFE994B69
:1051F000002202F075FC0A9B0546A1F15076002BB7
:1052000000F03E81029B15930A9B12930B9B002B8F
:1052100000F0FA81129A8C4B8F4903EBC20353E9D9
:105220000223002002F038FF2A46334602F056FCE3
:1052300082468B463846414603F0B4F8054602F0F4
:105240009BFD02460B463846414602F047FC30358E
:105250005FFA85F8049D06460F4685F800800246F1
:105260000B4650465946013503F07CF8002854D1CE
:1052700032463B460020764902F030FC02460B469F
:105280005046594603F06EF8002840F07082129A9A
:10529000012A00F01181129B049ACDF84890134422
:1052A00099460DE000206A4902F018FC52465B4620
:1052B00003F03AF8002840F058824D4500F0FA809B
:1052C000504659460022654B02F0BCFD0022634B5C
:1052D00082468B463046394602F0B4FD0F460646FC
:1052E00003F060F8804602F047FD02460B46304668
:1052F000394602F0F3FB08F130085FFA88F85246AD
:105300005B4605F8018B06460F4603F00DF8324662
:105310003B460028C6D0DDF84890159B029323E554
:1053200000230B93259B002B40F3DC801F461E4679
:105330000F930A93F6E601230B93F3E7BAF1000FFC
:105340007FF4A8ADCBF31303002B7FF4BAAD2BF0A1
:1053500000473F0D3F05002F00F00D82089B0133F1
:105360000893069B0133069301230C93ABE50A9B3C
:10537000002B3FF742AC40F021820022384BDDE9A0
:10538000080102F05FFD52465B4602F0E1FFDDF8E6
:1053900028804646002841D0259B049DDB4302938C
:1053A0004146204601F0DCFB002E3FF4DDACA7E6D1
:1053B0000C9A4946204601F009FD814658E5149AA9
:1053C000002A00F0878103F233430C9F089DF2E42A
:1053D000BAF1000F7FF475ADB4E701F0CBFB47469F
:1053E00006468346BEE501462046069301F0B8FB1B
:1053F0000122069BE0E5249B022B7FF796AD0A9BDA
:10540000002BC9D141460522204601F0B3FB0146DD
:105410008046484601F07CFD0028BDDD029A0499D3
:105420003123013202920B704D1CB9E7029A01320E
:105430000292049A3123137052E601230B9366E61D
:10544000DDF82C900C9C8FE468854000408540007E
:105450000000F03F00001C400000E03F000024403E
:1054600000001440504602F087FC3A46434602F0E2
:10547000E9FC0022C14B02F033FB0546A1F1507656
:1054800041460022BE4B384602F028FB2A463346EE
:1054900082468B4602F066FF8046002840F010816D
:1054A0002A4606F100435046594602F03DFF18B126
:1054B000464671E7DDF84890DDE910ABFFF78ABB9F
:1054C0000498FFF7BBBA0C9B0D9A0C97FB1A1A4471
:1054D0000D92002769E4DDE910234FF0020ACDE9BF
:1054E000122357E60021012361642046259301F031
:1054F00011FB259B049020640A930F9329E6002A50
:10550000D046CDF818B09A4611DD49460122204612
:1055100001F0ACFC4146814601F0FAFC002840F362
:105520004681BAF1390F00F0068105F1310AB34620
:1055300087F800A07D1C069ED2E504D11AF0010F69
:1055400001D0BDE5154615F8013C302B05F1FF32C1
:10555000F8D0C5E5049930220A70029A15F8018C3A
:1055600001320292FFF7FCBB00F0BB80029B5D4260
:10557000844B05F00F0203EBC203D3E90023DDE9FE
:10558000100102F05FFC2D110746884600F02C81C7
:105590007D4E4FF0020AEB0709D538464146D6E961
:1055A000002302F04FFC0AF1010A074688466D10FD
:1055B00006F10806EFD108E67168204601F0AAFA64
:1055C000336902339A00054606F10C010C3001F0F4
:1055D00097F929460122204601F048FC0690B5E4DF
:1055E000392BCDF818B0D04600F0A58003F1010AA0
:1055F000B34687F800A07D1C069E71E55A46D0464A
:10560000B3469A4616464FE5129B5E4901EBC3012D
:105610002A46334651E9020102F014FCCDE9160195
:105620003846414602F0BEFE054602F0A5FB0B4699
:1056300002464146384602F051FA129B0F46049941
:105640003035012B0D70064601F1010526D0129B65
:10565000049ADFF83CB1CDF8489013444FF0000AAB
:10566000994652465B463046394602F0EBFB0F4600
:10567000064602F097FE804602F07EFB08F13008F5
:1056800002460B463046394602F028FA05F8018BEF
:105690004D4506460F46E4D1DDF848903B4B0022CD
:1056A000DDE9160102F01CFA32463B4602F03CFEF0
:1056B000002846D0159B029315F8018CFFF743BBD9
:1056C0004FF000084646A9E6089B0A9A9D1A002357
:1056D000FFF771BB189B0C9F089DC3F13603FFF7C2
:1056E0006ABBDDE910784FF0020A6EE50A9B002BD9
:1056F0003FF4B8AE0F9B002B7FF7DEAE0022244BA9
:105700003846414602F09EFB074688460AF10100F2
:1057100002F032FB3A46434602F094FB0022174B5C
:1057200002F0DEF9029A0F9B1293013A0546A1F1AD
:10573000507615926AE53922B3463A70069E7D1C72
:10574000C0E4DDE916230020104902F0C7F9324613
:105750003B4602F007FE08B9AEE6154615F8013CD7
:10576000302B05F1FF32F8D0D7E5DDF84890159BD6
:105770000293FFF7E8BA0C97FFF7A5BB00001C40A7
:105780000000144068854000408540000000E03F74
:1057900000002440392BCDF818B0D046DDF828B0F1
:1057A0009A46C8D0BBF1000F3FF7BFAEBFE67FF40B
:1057B000BEAE1AF0010F3FF4BAAEB2E64FF00008E9
:1057C0004646E9E5314600230A22204601F0D2F997
:1057D0000F9B002B06460ADD0A93FFF7AABB249B0A
:1057E000022B23DC0F9B3BE44FF0020AEDE4249BE9
:1057F000022B1BDC0F9BEFE7002565642946204642
:1058000001F088F94FF0FF330A930F9301230490BE
:10581000259520640B93FFF7DDB90125FFF7A5B9A6
:105820003FF469ABC0F13C00FFF7F9BB0F9B0A9353
:10583000E5E500BFB1F90C309AB22DE9F0410D4613
:10584000110780463AD46A6843F40063002AAB81AA
:105850006FDDAC6A002C49D000229BB2D8F8006002
:10586000C8F8002013F4805267D02A6D5F0705D571
:1058700069682B6B521A0BB1EB6BD21A0023E969E2
:105880004046A047441C3CD0B5F90C302A692A6038
:1058900023F400630022AB81DB046A6047D4296BE8
:1058A000C8F8006011B305F14003994202D04046A8
:1058B00000F0DEF900202863BDE8F0812E69AEB16A
:1058C0002C682E6091070CBF6B690023A41BAB6092
:1058D0000AE0234632466F6AE9694046B847002825
:1058E000A4EB0004064404DD002CF2DC0020BDE83B
:1058F000F081AB8943F04003AB814FF0FF30BDE84E
:10590000F081D8F800401D2CF3D8194BE340DB435D
:1059100013F00103EDD1B5F90C206B6022F40063A4
:105920002969AB81DA042960B9D5002CB7D1286583
:10593000B5E7EA6B002A8CDCD8E70123E969404629
:10594000A047431C024602D0AB89AC6A8EE7D8F868
:105950000030002BF8D01D2B01D0162B02D1C8F837
:105960000060C3E7AB8943F04003AB81BDE8F08141
:105970000100402038B50D46044608B1836BBBB129
:10598000B5F90C0088B16B6EDB0701D4810517D522
:1059900020462946FFF74EFF6B6EDA07044602D415
:1059A000AB899B0507D5204638BD0446204638BD47
:1059B00000F038F8E4E7A86D00F004FC204638BD9C
:1059C000A86D00F0FDFBE3E7014900F0AFBB00BFAD
:1059D0006D79400010B5002304468181C2810360C7
:1059E0004360836043660361436183611946082213
:1059F0005C30FCF7B1FC07480749084A084B2062B5
:105A0000E4616162A262E36204F15800BDE8104003
:105A100000F0D2BB797440009D744000D9744000FE
:105A2000F974400010B50446124800F0C9FBA26B9F
:105A3000D2B904F53B731048C4F8E8320321C4F826
:105A4000E022E063C4F8E41260680421FFF7C2FFBB
:105A500001220921A068FFF7BDFF02221221E068A0
:105A6000FFF7B8FF0123A3630248BDE8104000F030
:105A7000A9BB00BFA00A4020C9594000014800F05E
:105A80009FBB00BFB40A4020014800F09BBB00BF91
:105A9000B40A402038B50A4C0A4D641BA4100AD041
:105AA00004F18043013B05EB8305013C55F80439C3
:105AB0009847002CF9D1BDE8384002F04BBE00BF3A
:105AC00064874000608740002DE9F04782B080463F
:105AD0008946144600F054FB012836D04A4604F1AA
:105AE0005C0301A9404601F04FFE421C064625D04A
:105AF000A8B39DF804E000250DF1040A09E023682D
:105B00005A1C226083F800E00135B54227D215F80F
:105B10000AE0A368013B002BA360F0DAA769BB424F
:105B200071462246404602DBBEF10A0FE7D101F082
:105B3000D3FD431CE8D102B0BDE8F087A38943F050
:105B40004003A38102B0BDE8F08709F1FF33FE2BCB
:105B5000C4D85FFA89FE06468DF804E0CBE74846D4
:105B600002B0BDE8F08700BF30B5536E13F0010FEF
:105B7000B2F90C30144683B005469AB201D19005B3
:105B80001CD5900406D4626E43F4005342F40052D4
:105B9000A381626628462246FFF796FF636EDA0706
:105BA000054602D4A3899B0502D5284603B030BD23
:105BB000A06D00F007FB284603B030BDA06D019139
:105BC00000F0FEFAB4F90C3001999AB2D9E700BF9F
:105BD000F8B5244F0C46064600F090FFBB685D68A0
:105BE000C4F57E610F3125F00305294421F47F615E
:105BF00021F00F01A1F58054B4F5805F07DB00218F
:105C0000304601F027FCBB682B44984204D0304654
:105C100000F07AFF0020F8BD6142304601F01AFC26
:105C200001300DD0104BBA6819682D1B45F00105E5
:105C30003046091B5560196000F066FF0120F8BD71
:105C40000021304601F006FCBA68831A0F2BDEDD16
:105C5000064C0549246843F00103001B53600860AB
:105C6000D5E700BFB0054020540A4020B8094020C5
:105C7000002944D02DE9F0410D46804600F03EFF5A
:105C800055F8047C694927F00103A5F10804E218DE
:105C90008E685068B24220F003005ED0FE0750606C
:105CA0000BD455F8087CE41B01F1080EA568754576
:105CB0003B446DD0E768EF60BD6015186D68ED0777
:105CC0003ED543F001026260E350B3F5007F17D286
:105CD000DB08581C9A104D6851F83070A7600123FA
:105CE000934001EBC0022B43083AE2604B6041F85D
:105CF0003040FC604046BDE8F04100F005BF704711
:105D00005A0A042A52D89A0902F13907FF0002F10F
:105D10003805C819CA59083890424FD0516821F047
:105D200003018B4232D292689042F7D1C368A060DF
:105D3000E3609C60C4604046BDE8F04100F0E4BE12
:105D400095683B4FBD42034440D0D068E86043F0C3
:105D5000010285606260E350B7E7FF07034407D4A0
:105D600055F8082CA41A1344A068E268C260906039
:105D7000304A126843F00100934260608C60B9D3EE
:105D80002D4B40461968FFF723FFB3E71046CDE7D8
:105D900011184968C90744D49168D268CA6003449D
:105DA00043F0010091606060E350A3E7142A16D825
:105DB00002F15C07FF0002F15B05AAE7AA100123CC
:105DC0004D6893402B434B600346B0E743F001021C
:105DD0004C610C61E560A5606260E3508AE7542A7B
:105DE00006D81A0B02F16F07FF0002F16E0590E76B
:105DF000B2F5AA7F06D8DA0B02F17807FF0002F1AC
:105E0000770586E740F25450824206D89A0C02F198
:105E10007D07FF0002F17C057BE74FF47E777E254E
:105E200077E743F001016160136063E7B00540204C
:105E3000B8054020BC094020840A40209368002B0C
:105E400073D02DE9F04F8B8983B00C461907009071
:105E5000164626D5226922B313F0020035682CD0ED
:105E60004FF00009B04FC846B246B84543464A46CF
:105E700028BF3B460098B8F1000F50D0E169666A30
:105E8000B047002858DDDAF808301B1A8144A8EB27
:105E90000008CAF80830002BE7D1002003B0BDE8A5
:105EA000F08F21460098FEF793FC002840F03381E4
:105EB000A389356813F00200D2D113F0010945D14E
:105EC0004F46019637B39A05D4F8088040F1838095
:105ED0004745C346C0F0AB8013F4906F40F0AC80F0
:105EE0002068BA465A46494600F0A4FDA2682368D5
:105EF000A2EB08025B44A2602360019A9368A3EBC3
:105F00000A03D144A7EB0A079360002BC5D0A389ED
:105F1000002FD8D1D5F800906F680835D2E7D5F8B2
:105F20000090D5F8048008359FE70020704721468F
:105F30000098FFF71FFD70B3B4F90C3043F0400335
:105F40004FF0FF30A38103B0BDE8F08F81463346A8
:105F50004E46A8469A464D464EB380B32068236904
:105F60006269B145CB4628BFB34698425F4604D923
:105F7000A36813449B4500F3A68093454BDB13466F
:105F8000676AE16900982A46B847071ED4DDB9EB75
:105F90000709CCD00120DAF80830DB1B3D44F61BA2
:105FA000CAF80830002B3FF478AF002ED5D108F1A5
:105FB000080313E9600098460833002EF9D03246F2
:105FC0000A21284600F04CFC002800F0A180013096
:105FD000A0EB0509C2E720682369984202D86369EB
:105FE0009F425DD2B84528BFB8464246494600F0B8
:105FF00021FDA3682268A3EB08034244A36022604A
:106000000BB1C24679E721460098FFF7B3FC0028A0
:1060100092D1C24671E75A46294600F00BFDA268AC
:106020002368A2EB0B025B44A2602360AFE7206809
:10603000B846BA46BB4655E762692068216902EB5B
:106040004208A0EB010A08EBD8780AF101004FEAF8
:10605000680838444045424684BF804642465B0556
:1060600044D51146009800F02FF98346002855D0FA
:106070005246216900F044FCA38923F4906343F065
:106080008003A3810BEB0A00A8EB0A03C4F810B04D
:10609000C4F814802060A360B846BA46BB4621E726
:1060A0006FF00041B94228BF39464A4691FBF3F1EF
:1060B0000098666A03FB01F3E169B047B0F1000A9A
:1060C0003FF71BAF38E71A462946019300F0B2FCB0
:1060D0002268019B00981A4422602146FFF74AFC7F
:1060E000019B00287FF428AF1F4650E7009801F07D
:1060F0000BF883460028C5D1009D21692846FFF78B
:10610000B7FDB4F90C300C2223F080032A6015E7A8
:1061100006F1010922E74FF0FF30BFE6009A0C2399
:106120001360B4F90C3009E700FCFF7F2DE9F84358
:1061300010F538771FD0884606464FF000097D6875
:10614000BC68013D11D4A389012B05F1FF3508D9A5
:10615000B4F90E3001332146304602D0C04749EA37
:1061600000096B1C04F16804EDD13F68002FE6D1F3
:106170004846BDE8F883B9464846BDE8F88300BF05
:10618000044B054A1B685B6B002B08BF134693F852
:10619000280170471000402044044020044A054B69
:1061A0001268506B002808BF1846F030704700BFD7
:1061B0001000402044044020704700BF704700BFDB
:1061C000704700BF704700BF70B50C46B1F90E10A4
:1061D000002990B015461E4614DB01AA01F028FCE8
:1061E00000280FDB029A02F47042A2F50052B2FAC4
:1061F00082F252094FF480634FF4006032602B60EA
:1062000010B070BDA289002312F08000336004D06A
:10621000402218462A6010B070BD4FF480632B6096
:1062200010B070BD8A8992070B4606D501F1430272
:1062300001211A601A6159617047F0B583B001AB52
:106240006A460C460646FFF7BFFF009905463046F2
:1062500000F03AF8B4F90C30D8B1019A154F009912
:10626000F76343F08003A3812060206161611AB964
:106270002B43A38103B0F0BD3046B4F90E1001F0FA
:10628000EBFBA0B1A38923F0030343F001031BB28E
:10629000EEE79A05EED423F0030304F1430243F042
:1062A00002030121A381226022616161E2E7B4F966
:1062B0000C30DDE7C9594000024B0146186800F078
:1062C00003B800BF100040202DE9F04F01F10B068C
:1062D000162E83B0054640F29E8036F0070600F188
:1062E000BD80B14200F2BA8000F008FCB6F5FC7F38
:1062F000C0F09382730A00F0B880042B00F2798119
:10630000B30903F1390003F1380EC300BF4F3B441A
:10631000A3F108015C68A14206D10CE0002A80F2DA
:10632000AA80E468A14206D0636823F003039A1BA5
:106330000F2AF3DD70463C69DFF8E4E2744500F0B3
:10634000AB81636823F003039A1B0F2A00F390814B
:10635000002AC7F814E0C7F810E080F29D80B3F57A
:10636000007F80F06181DB0803F1010C99107A68ED
:1063700057F83C80C4F8088001238B4007EBCC0120
:1063800013430839E1607B6047F83C40C8F80C4093
:106390008210012494409C4200F28B801C4206D162
:1063A00020F0030064001C4200F10400FAD007EB67
:1063B000C009CC468046DCF80C309C4507D16DE125
:1063C000002A80F27B81DB689C4500F06781596878
:1063D00021F003018A1B0F2AF2DDD3F80CC0D3F899
:1063E000088000939C19284646F0010642F00105FA
:1063F0005E60C8F80CC0CCF808807C613C61C4F8D1
:106400000CE0C4F808E065605A5000F07DFB009B8A
:1064100003F108041EE0102920D800F06FFB1026BD
:1064200018230220794F3B44A3F108025C68944290
:1064300000F03D816368E168A66823F0030323440C
:1064400028465A68F16042F001028E605A6000F0FE
:106450005BFB0834204603B0BDE8F08F00240C231A
:1064600020462B6003B0BDE8F08F40204FF400734E
:106470004FF03F0E4AE72344E1685A68A66842F0AD
:106480000102F16028468E605A6000F03DFB08343E
:10649000204603B0BDE8F08F234428465A6842F0F6
:1064A00001025A6000F030FB0834204603B0BDE81A
:1064B000F08FBC68636823F00308B04504D3A8EBF1
:1064C00006030F2B00F38580DFF85891504BD9F865
:1064D00000201B680132334404EB080A00F05581A8
:1064E00003F580530F3323F47F6B2BF00F0B5946CA
:1064F000284600F0AFFF411C024600F0FC808245B8
:1065000000F2F780434B19685944196000F04D813F
:10651000D9F8000001301BBFA2EB0A0A5144C9F8A8
:106520000020196012F0070100F01581C1F1080088
:10653000C1F580510244083102EB0B09C9F30B0984
:10654000A1EB0909494628460193009200F082FF19
:10655000431C9DE80C0000F04381801A484440F041
:1065600001001968BA604944BC425060196017D0F4
:10657000B8F10F0F40F2FB806068A8F10C0222F026
:10658000070204EB020E00F001004FF0050C10436F
:106590000F2A6060CEF804C0CEF808C000F2178160
:1065A0001D4BBC681A68914288BF19601B4B1A6862
:1065B0009142626888BF196022F003029642A2EB02
:1065C000060301D80F2B04DC284600F09DFA0024B6
:1065D00040E7A21943F0010346F001066660284631
:1065E000BA60536000F090FA0834204603B0BDE86A
:1065F000F08F142B71D9542B00F2A380330B03F1CD
:106600006F0003F16E0EC30080E600BFB0054020AE
:10661000840A4020540A40207C0A4020800A4020FE
:10662000B8054020B80940205A0A042A5BD9142A28
:1066300000F2AE8002F15C01C9005B3207EB010C95
:106640007958ACF1080C8C4500F088804A6822F03B
:106650000302934273D289688C45F7D1DCF80C2091
:106660007B68E260C4F808C09460CCF80C408FE608
:10667000A11946F0010C42F00106C4F804C02846F6
:1066800079613961C1F80CE0C1F808E04E60E25070
:1066900000F03AFA0834DDE67B6879E608F1010893
:1066A00018F0030F0CF1080C7FF485AE2DE0DC68C8
:1066B000A34208BF02303FF43EAEBBE619441C467D
:1066C0004A68DB6854F8086F42F001024A602846C5
:1066D000F3609E6000F018FABCE603F15C0003F181
:1066E0005B0EC30012E69A0902F13901C900383283
:1066F000A4E7BC4254D0BC68626822F003025DE7A4
:1067000059F80839994540F0868010F0030F00F1E0
:10671000FF30F5D17B6823EA04037B6064009C4270
:106720003FF6C7AE002C3FF4C4AE1C4240467FF497
:106730003EAE64001C4200F10400FAD037E68C46FD
:106740008CE7B3F5AA7F15D8F30B03F1780003F1BA
:10675000770EC300DAE54FF48051EDE67B689210C6
:10676000012101FA02F213437B60624679E70123BB
:10677000536029E740F25452934222D8B30C03F1FC
:106780007D0003F17C0EC300C0E503F1100BAEE603
:10679000542A29D81A0B02F16F01C9006E324DE755
:1067A000204B196859441960B2E6CAF30B0000285F
:1067B0007FF4AEAE08EB0B03BA6843F001035360FD
:1067C000EEE67F204FF47E734FF07E0E9EE504F1DF
:1067D000080128460093FFF74BFA009B1968DFE693
:1067E00001204FF00009BCE6B2F5AA7F05D8DA0B0C
:1067F00002F17801C900773220E740F254518A4211
:1068000005D89A0C02F17D01C9007C3216E74FF4DD
:106810007E717E2212E77B6880E7F00806F10803AC
:1068200000E600BF540A402082B049B15AB16BB1B2
:1068300013780B601278101C18BF012002B070474B
:1068400001A9002AF3D1104602B070476FF0010091
:10685000F4E700BF0000000000000000000000009E
:1068600001F0FF01102A2BDB10F0070F08D010F801
:10687000013B013A8B422DD010F0070F42B3F6D105
:10688000F0B441EA012141EA014122F007047FF01E
:1068900000070023F0E80256083C85EA010586EA75
:1068A000010685FA47F5A3FA87F586FA47F6A5FAB1
:1068B00087F68EB9EED1F0BC01F0FF0102F00702BD
:1068C00032B110F8013B013A83EA010313B1F8D168
:1068D0000020704701387047002D06BF3546033849
:1068E000073815F0010F07D1013015F4807F02BF82
:1068F000013015F4C03F0130F0BC0138704700BFD3
:10690000844641EA000313F003036DD1403A41D3BA
:1069100051F8043B40F8043B51F8043B40F8043B79
:1069200051F8043B40F8043B51F8043B40F8043B69
:1069300051F8043B40F8043B51F8043B40F8043B59
:1069400051F8043B40F8043B51F8043B40F8043B49
:1069500051F8043B40F8043B51F8043B40F8043B39
:1069600051F8043B40F8043B51F8043B40F8043B29
:1069700051F8043B40F8043B51F8043B40F8043B19
:1069800051F8043B40F8043B51F8043B40F8043B09
:10699000403ABDD2303211D351F8043B40F8043BA9
:1069A00051F8043B40F8043B51F8043B40F8043BE9
:1069B00051F8043B40F8043B103AEDD20C3205D3B9
:1069C00051F8043B40F8043B043AF9D2043208D0B1
:1069D000D2071CBF11F8013B00F8013B01D30B8823
:1069E00003806046704700BF082A13D38B078DD001
:1069F00010F003038AD0C3F10403D21ADB071CBFD3
:106A000011F8013B00F8013B80D331F8023B20F83C
:106A1000023B7BE7043AD9D3013A11F8013B00F875
:106A2000013BF9D20B7803704B7843708B788370FD
:106A3000604670478842F0B50DD98B1898420AD24B
:106A40008418002A51D0224613F8014D02F8014D56
:106A50009942F9D1F0BD0F2A48D941EA00039B07BA
:106A600046D100F1100401F11003154653F8106CE3
:106A700044F8106C53F80C6C44F80C6C53F8086C28
:106A800044F8086C103D53F8046C44F8046C0F2D66
:106A900003F1100304F11004E8D8A2F1100323F06D
:106AA0000F0302F00F0E1033BEF1030F194403441D
:106AB00021D91E1F0D467446043C55F8047B46F848
:106AC000047F032CF8D8AEF1040424F0030404344A
:106AD0002144234402F0030262B1013B0A4411F84D
:106AE000014B03F8014F8A42F9D1F0BD0346F3E7A9
:106AF0000346F2E7F0BD7246EEE700BF0148FFF73C
:106B00005FBB00BFA40A40200148FFF75BBB00BF8A
:106B1000A40A4020C36C70B505460C464BB153F82F
:106B2000240080B1026843F8242000230361C3607D
:106B300070BD2122042100F0D7FEE864034600283E
:106B4000EDD1002070BD012101FA04F6721D284626
:106B5000920000F0C9FE0028F3D044608660E4E7AC
:106B600031B1C36C4A6853F82200086043F8221020
:106B7000704700BFF0B50C6983B00D46064601F1C1
:106B8000140E0027DEF8000081B202FB0133010C75
:106B9000180C02FB01019BB2013703EB0143BC421D
:106BA0004EF8043B4FEA1143ECDC3BB1AA68944237
:106BB00007DA05EB8402013453612C61284603B0E7
:106BC000F0BD6968019301313046FFF7A3FF2A69E0
:106BD000023205F10C01074692000C30FFF790FEDF
:106BE000F26C6968019B52F82100286042F821503C
:106BF0003D46DEE7020C12040346B2B9030410203E
:106C000013F07F4F04BF1B02083013F0704F04BF16
:106C10001B01043013F0404F04BF9B000230002BD7
:106C200002DB5B0003D4202070470020E8E701303E
:106C3000704700BF036813F00702014607D0DA0768
:106C400021D4980721D49B080B600220704798B28A
:106C500098B1104613F0FF0F04BF1B0A08301A0743
:106C600004BF1B0904309A0704BF9B080230DA07EF
:106C700007D45B0804D1202070471B0C1020E9E7E3
:106C800001300B607047002070475B080B600120EB
:106C9000704700BF10B50C460121FFF73BFF0122F2
:106CA0004461026110BD00BF2DE9F04F0C69156908
:106CB000AC4283B08B46164604DA2246B3462C46D5
:106CC0000E461546DBF80830DBF8041004EB050827
:106CD0009845C8BF0131FFF71DFF00F1140909EB0A
:106CE000880AD145009005D24B46002143F8041B89
:106CF0009A45FBD806F1140C0CEB85030BF1140B31
:106D00009C450BEB840E4CD2CDF804A09A46DCF8DF
:106D10000050AFB2EFB100214D465E460C4656F82A
:106D2000042B286893B281B207FB0313120C010CE9
:106D3000234407FB021101EB13419BB243EA0143D9
:106D4000B64545F8043B4FEA1144E8D82C60DCF81E
:106D500000502D0C1DD0D9F8003048461C4659462D
:106D600000220E88240C05FB064422449BB243EA11
:106D7000024340F8043B51F8043B04681B0CA6B2E4
:106D800005FB036303EB12438E454FEA1342E8D839
:106D900003600CF1040CE24509F10409B7D8DDF8F1
:106DA00004A0B8F1000F0BDD5AF8043CAAF1040A64
:106DB0001BB105E05AF8043D13B9B8F10108F9D147
:106DC0000098C0F8108003B0BDE8F08F12F0030304
:106DD0002DE9F041144607462ED10D46A4101CD0D3
:106DE000BE6C96B3E3074FF0000806D4641014D0CD
:106DF0003068A8B10646E307F8D53246294638463A
:106E0000FFF752FFB5B16A68FB6C641053F82210AB
:106E1000296043F822500546EAD12846BDE8F081B2
:106E2000324631463846FFF73FFF3060C0F80080F9
:106E30000646E0E70546D9E75A1E0B4D002355F8F4
:106E40002220FFF797FE0546C8E701213846FFF7E5
:106E500061FE40F271210122002341610261064678
:106E6000B8640360BEE700BF308640002DE9F843F8
:106E700091460A698B684FEA691404EB020808F12D
:106E800001059D420E460746496804DD5B009D42B0
:106E900001F10101FADC3846FFF73CFE002C00F15D
:106EA000140306DD03EB8402002143F8041B9A421D
:106EB000FBD1346906F1140119F01F0901EB840EAE
:106EC0001DD0C9F1200C00220C6804FA09F4144307
:106ED00043F8044B51F8042B8E4522FA0CF2F3D8F8
:106EE0001A600AB108F10205FB6C7268013D53F8A3
:106EF00022100561316043F82260BDE8F883043B4D
:106F000051F8042B43F8042F8E45F9D8ECE700BF65
:106F100030B40B6905460069C01A0FD19B001435C7
:106F2000143119442B4401E09D4207D253F8044D1B
:106F300051F8042D9442F7D002D3012030BC7047A1
:106F40004FF0FF30FAE700BF2DE9F0410F690E4620
:106F500011697F1A002F904617D1890006F1140598
:106F600002F1140E6B18714401E09D425CD253F89B
:106F7000042D51F8044DA242F7D05ED233462C4680
:106F8000464675469846012705E058DB06F114058C
:106F900008F1140400277168FFF7BCFDD8F8103021
:106FA0003669C76004EB830CA64605EB860700F143
:106FB000140400235EF8041B55F8048B8AB213FAFC
:106FC00088F3090C9A1AC1EB184303EB224392B2DF
:106FD00042EA0342F44544F8042B4FEA2343E9D83C
:106FE000AF4217D9A446AE465EF8042B13FA82F3DB
:106FF000191401EB12419BB243EA014277454CF868
:10700000042B4FEA2143EFD8ED432F4427F0030729
:1070100004373C44043C22B954F8043D013E002BA3
:10702000FAD00661BDE8F0810021FFF773FD01226F
:10703000002302614361BDE8F0817446ABE733464B
:1070400006F1140402F11405164601279846A2E73A
:107050002DE9F04182B001211C46C3F30A571546C1
:10706000089EFFF757FDC4F3130480460FB144F4A4
:10707000801401941DB302A840F8085DFFF7DAFD03
:10708000002834D19DE80C00C8F81420002B0CBF58
:1070900001210221C8F81830C8F81010DFB908EB38
:1070A0008103A0F2324030601869FFF7A3FD099B0D
:1070B000C0EB41101860404602B0BDE8F08101A865
:1070C000FFF7B8FD019BC8F8143001212030C8F843
:1070D0001010002FE3D0099BA7F233470744C0F1FB
:1070E000350037601860404602B0BDE8F0819DE889
:1070F0000A00C0F1200203FA02F20A43C3400193DE
:10710000C8F81420C2E700BF002900F095802DE9DF
:10711000F04F0D46164683B0804606F10B07FFF789
:10712000EDFC55F804EC162F2EF00304A5F1080928
:107130003CD810221746BE423DD8944243DAC44B95
:10714000996809EB0400884200F0B480436823F09A
:10715000010101444968C9074CD51EF0010F00F038
:107160009B8031464046FFF7AFF8064600283AD0EC
:1071700055F8043C23F001034B44A0F108029A4265
:1071800000F02181221F242A00F20781132A00F235
:10719000DB8003462A46116819605168596092687D
:1071A0009A6029464046FEF763FD1CE027F007077A
:1071B000002F3A46BFDA00260C233046C8F80030CC
:1071C00003B0BDE8F08F2E46E31B0F2B1ED8D9F875
:1071D000043003F0010323434C44C9F804306368CE
:1071E00043F0010363604046FFF78EFC304603B076
:1071F000BDE8F08F23F00303E11891421FDBC36861
:1072000082682E46D3600C469A60DDE7D9F80420E8
:1072100009EB070102F001024C4443F0010317435C
:10722000C9F804704B60636843F001030831636080
:107230004046FEF71DFDD6E71146FFF745B81EF0A4
:10724000010F8ED155F8081CA9EB010ADAF80410D9
:1072500021F003010B442344934225DBC26881687B
:107260005646CA609160DAF80C1056F8080F221FD3
:10727000242AC160886000F29480132A6FD929689B
:10728000CAF808106968CAF80C101B2A00F2A2801C
:1072900008350AF1100263E055F8083CA9EB030A2F
:1072A000DAF8041021F0030163189342FFF659AF96
:1072B0005646D8E7416821F0030BA34407F11000BC
:1072C000834556DA1EF0010F7FF44BAF55F8081CCA
:1072D000A9EB010ADAF8041021F003018B445845A8
:1072E000E2DC5646DAF80C1056F8080F221F242A62
:1072F000C160886000F28F80132A40F28A8029687A
:10730000CAF808106968CAF80C101B2A00F28A80B3
:1073100008350AF110022968116069685160A9688E
:1073200091600AEB0701ABEB070242F001029960A2
:107330004A60DAF8043003F001031F434046CAF8FC
:107340000470FFF7E1FB51E72B6803606B68436053
:107350001B2A2DD800F1080305F108021BE732466D
:107360002968116069685160A96891601C46D1461E
:107370002AE709EB0701ABEB070B4BF00102996021
:107380004A6055F8043C03F001031F43404645F8AA
:10739000047CFFF7B9FB2E4628E72946FFF74AFB96
:1073A000FFE6294630461C46D146FFF743FB0BE774
:1073B000AB688360EB68C360242A17D000F1100328
:1073C00005F11002E7E650F8043C23F003031C44E7
:1073D0002E46F9E6A968CAF81010E968CAF8141030
:1073E000242A0CD010350AF11802B9E72B69036181
:1073F0006B69436105F1180200F11803CBE62A69B5
:10740000CAF818206A69CAF81C2018350AF1200247
:10741000A6E732467FE7294630460193FFF70AFB8D
:10742000019B7EE7A968CAF81010E968CAF8141031
:10743000242A03D010350AF118026CE72A69CAF829
:1074400018206A69CAF81C2018350AF1200262E780
:10745000B005402038B5074C002305460846236098
:10746000F9F7F2FE431C00D038BD2368002BFBD097
:107470002B6038BDB80A402010B50C46B1F90E108B
:1074800000F012FB002803DB236D0344236510BDCD
:10749000A38923F48053A38110BD00BF2DE9F041DF
:1074A0001646B1F90C201F46D3050C46054607D5F4
:1074B00000220223B1F90E1000F0E0FAB4F90C201A
:1074C000B4F90E1022F48052A2813B46324628467F
:1074D000BDE8F04100F090B910B50C46B1F90E10BE
:1074E00000F0CCFAA389421C0EBF23F4805343F46E
:1074F00080532065A38110BDB1F90E1000F024BAAD
:1075000090F800F06DE9024520F007016FF0000CE3
:1075100010F0070491F820F040F049804FF000048B
:107520006FF00700D1E9002391F840F000F1080066
:1075300082FA4CF2A4FA8CF283FA4CF3A2FA8CF39E
:107540004BBBD1E9022382FA4CF200F10800A4FA05
:107550008CF283FA4CF3A2FA8CF3E3B9D1E9042359
:1075600082FA4CF200F10800A4FA8CF283FA4CF390
:10757000A2FA8CF37BB9D1E9062301F1200182FA4A
:107580004CF200F10800A4FA8CF283FA4CF3A2FA50
:107590008CF3002BC6D0002A04BF04301A4612BA5E
:1075A000B2FA82F2FDE8024500EBD2007047D1E961
:1075B000002304F00305C4F100004FEAC50514F0F0
:1075C000040F91F840F00CFA05F562EA05021CBFC1
:1075D00063EA050362464FF00004A9E72DE9F04F86
:1075E000936883B09046002B70D082460C46176893
:1075F0008D68086842E0A38913F4906F2ED0656906
:10760000216905EB4505A0EB010B05EBD5750BF1E9
:1076100001006D103044A8422A4684BF05462A4620
:107620005B0538D511465046FEF74EFE00283CD08B
:107630005A4621690190FFF763F9A289019B22F460
:10764000906242F08002A281A5EB0B0203EB0B00DB
:10765000656123612060A2603546B3465A464946BB
:10766000FFF7E8F9D8F80830A2682068551B58449D
:107670009E1BA5602060C8F808603EB37E683B464C
:107680000837002EFAD0AE42D3F80090AB46B2D203
:107690003546B346E2E75046FFF736FD034600287D
:1076A000D2D121695046FEF7E3FA0C23CAF8003024
:1076B000A389002243F040034FF0FF30A381C8F8B4
:1076C0000820C8F8042003B0BDE8F08F0020C8F8F7
:1076D000040003B0BDE8F08FF8B50D461446064629
:1076E00010B1836B002B4BD0B4F90C20A369A360BD
:1076F00091B2080739D52369002B36D0EDB2890441
:107700002F4615D522686169D31A8B421CDA0133E2
:10771000A168501C0139A1602060157062699A420D
:107720001AD0A389DB0701D50A2D15D03846F8BD3C
:10773000616E42F4005221F40051A2812268616618
:107740006169D31A8B42E2DB21463046FEF712F91B
:1077500040B922680123DBE721463046FEF70AF9EB
:107760000028E3D04FF0FF37E0E721463046FDF731
:107770002FF80028F6D1B4F90C20236991B2BDE7A7
:10778000FEF750F9B0E700BFF0B5064685B01F46DA
:1077900089B1104C104D2468646B002C08BF2C4636
:1077A000D4F8E040A047431C03D100228A233A606A
:1077B000336005B0F0BD0C460649074A0968496BBD
:1077C000002908BF11462246D1F8E04001A9A04790
:1077D000E9E700BF100040204404402021B1FF2A07
:1077E00004D80A7001207047084670478A23036056
:1077F0004FF0FF30704700BF70B50D46084C114682
:1078000006461A46284600232360F8F7B7FE431CB5
:1078100000D070BD2368002BFBD0336070BD00BF6B
:10782000B80A40202DE9F8432C4D064628689846B2
:107830000F469146FEF7C4FC294B1C68D4F848312A
:10784000002B3ED05A681F2A1CDC02F1010E76B1D3
:1078500003EB82010124C1F88890D3F88801944099
:107860002043022EC3F88801C1F8088123D00232D8
:10787000C3F804E0286843F82270FEF7A3FC002058
:10788000BDE8F883174B0BB34FF4C870FEF714FD37
:107890000346D8B1D4F848210260002141600A466D
:1078A000C4F848014FF0010EC0F88811C0F88C11DF
:1078B000002EDCD0CCE7D3F88C110C43C3F88C41FC
:1078C000D5E704F5A673C4F84831BBE72868FEF78E
:1078D00079FC4FF0FF30BDE8F88300BF4004402042
:1078E00098844000B962400010B502FB01F1FEF738
:1078F000EBFC0446D8B150F8042C22F00302043A01
:10790000242A18D8132A14D900231B2A03604360A1
:1079100016D9242A8360C36011BF00F110020361ED
:10792000436100F118020023136053609360204606
:1079300010BD0246F7E70021FAF70EFD204610BD04
:1079400000F10802EFE700BF38B5074C00230546F9
:1079500008462360F9F7A4FC431C00D038BD236817
:10796000002BFBD02B6038BDB80A402070B559B150
:1079700005460C4610B1836B002B3CD0636ED807D4
:1079800005D5B4F90C302BB90026304670BDA3895B
:1079900099053CD521462846FDF74CFFE36A06468B
:1079A00033B1E169284698470028B8BF4FF0FF3649
:1079B000A3891A0622D4216B41B104F140039942F4
:1079C00002D02846FEF754F900232363616C21B1ED
:1079D0002846FEF74DF900236364FEF74FF8636E07
:1079E0000022DB07A2810ED5A06DFEF7E7FBFEF7B4
:1079F0004BF8304670BDFEF715F8BFE72169284601
:107A0000FEF736F9D7E7A06DFEF7DCFBECE7A06DDB
:107A1000FEF7D6FBB4F90C30002BBBD1666E16F026
:107A20000106B1D1A06DFEF7CDFB304670BD00BFA1
:107A300038B50B46074C054611461846002323600F
:107A4000F9F73AFC431C00D038BD2368002BFBD06B
:107A50002B6038BDB80A402038B5074C00230546D6
:107A600008462360F9F738FC431C00D038BD236872
:107A7000002BFBD02B6038BDB80A402070B50D46F6
:107A8000084C114606461A46284600232360F9F79B
:107A90002EFC431C00D070BD2368002BFBD033604C
:107AA00070BD00BFB80A402070B50D46084C1146A5
:107AB00006461A46284600232360F8F735FD431C86
:107AC00000D070BD2368002BFBD0336070BD00BFB9
:107AD000B80A402081F0004102E000BF83F000437B
:107AE00030B54FEA41044FEA430594EA050F08BF59
:107AF00090EA020F1FBF54EA000C55EA020C7FEA1D
:107B0000645C7FEA655C00F0E2804FEA5454D4EB99
:107B10005555B8BF6D420CDD2C4480EA020281EA63
:107B2000030382EA000083EA010180EA020281EA9B
:107B30000303362D88BF30BD11F0004F4FEA0131ED
:107B40004FF4801C4CEA113102D0404261EB4101FC
:107B500013F0004F4FEA03334CEA133302D0524282
:107B600063EB430394EA050F00F0A780A4F101043E
:107B7000D5F1200E0DDB02FA0EFC22FA05F2801878
:107B800041F1000103FA0EF2801843FA05F359415E
:107B90000EE0A5F120050EF1200E012A03FA0EFCDD
:107BA00028BF4CF0020C43FA05F3C01851EBE37107
:107BB00001F0004507D54FF0000EDCF1000C7EEB24
:107BC00000006EEB0101B1F5801F1BD3B1F5001F62
:107BD0000CD349085FEA30004FEA3C0C04F1010481
:107BE0004FEA445212F5800F80F09A80BCF1004FAA
:107BF00008BF5FEA500C50F1000041EB045141EA2C
:107C0000050130BD5FEA4C0C404141EB010111F42C
:107C1000801FA4F10104E9D191F0000F04BF0146D7
:107C20000020B1FA81F308BF2033A3F10B03B3F1B5
:107C300020020CDA0C3208DD02F1140CC2F10C0245
:107C400001FA0CF021FA02F10CE002F11402D8BFA3
:107C5000C2F1200C01FA02F120FA0CFCDCBF41EA6F
:107C60000C019040E41AA2BF01EB0451294330BD3E
:107C70006FEA04041F3C1CDA0C340EDC04F114041B
:107C8000C4F1200220FA04F001FA02F340EA0300F2
:107C900021FA04F345EA030130BDC4F10C04C4F138
:107CA000200220FA02F001FA04F340EA0300294618
:107CB00030BD21FA04F0294630BD94F0000F83F462
:107CC000801306BF81F480110134013D4EE77FEA45
:107CD000645C18BF7FEA655C29D094EA050F08BF91
:107CE00090EA020F05D054EA000C04BF1946104672
:107CF00030BD91EA030F1EBF0021002030BD5FEAB6
:107D0000545C05D14000494128BF41F0004130BDDD
:107D100014F580043CBF01F5801130BD01F0004531
:107D200045F0FE4141F470014FF0000030BD7FEAA4
:107D3000645C1ABF194610467FEA655C1CBF0B469F
:107D4000024650EA013406BF52EA033591EA030FB6
:107D500041F4002130BD00BF90F0000F04BF0021AE
:107D6000704730B54FF4806404F132044FF00005E1
:107D70004FF0000150E700BF90F0000F04BF00215A
:107D8000704730B54FF4806404F1320410F00045C0
:107D900048BF40424FF000013EE700BF42004FEABB
:107DA000E2014FEA31014FEA02701FBF12F07F4338
:107DB00093F07F4F81F06051704792F0000F14BF35
:107DC00093F07F4F704730B54FF4607401F0004579
:107DD00021F0004120E700BF50EA010208BF7047D0
:107DE00030B54FF000050AE050EA010208BF7047C5
:107DF00030B511F0004502D5404261EB41014FF42E
:107E0000806404F132045FEA915C3FF4DCAE4FF031
:107E100003025FEADC0C18BF03325FEADC0C18BF18
:107E2000033202EBDC02C2F1200300FA03FC20FA69
:107E300002F001FA03FE40EA0E0021FA02F11444B6
:107E4000C1E600BF70B54FF0FF0C4CF4E06C1CEACB
:107E500011541DBF1CEA135594EA0C0F95EA0C0F40
:107E600000F0DEF82C4481EA030621EA4C5123EAB3
:107E70004C5350EA013518BF52EA033541F48011E2
:107E800043F4801338D0A0FB02CE4FF00005E1FB95
:107E900002E506F00042E0FB03E54FF00006E1FBDF
:107EA00003569CF0000F18BF4EF0010EA4F1FF0422
:107EB000B6F5007F64F5407404D25FEA4E0E6D4162
:107EC00046EB060642EAC62141EA55514FEAC52073
:107ED00040EA5E504FEACE2EB4F1FD0C88BFBCF5EF
:107EE000E06F1ED8BEF1004F08BF5FEA500E50F1A0
:107EF000000041EB045170BD06F0004646EA010166
:107F000040EA020081EA0301B4EB5C04C2BFD4EB97
:107F10000C0541EA045170BD41F480114FF0000E90
:107F2000013C00F3AB8014F1360FDEBF002001F0FE
:107F3000004170BDC4F10004203C35DA0C341BDC78
:107F400004F11404C4F1200500FA05F320FA04F04A
:107F500001FA05F240EA020001F0004221F000417E
:107F600010EBD37021FA04F642EB06015EEA430EF1
:107F700008BF20EAD37070BDC4F10C04C4F1200521
:107F800000FA04F320FA05F001FA04F240EA0200D4
:107F900001F0004110EBD37041F100015EEA430EA5
:107FA00008BF20EAD37070BDC4F1200500FA05F2C5
:107FB0004EEA020E20FA04F301FA05F243EA020344
:107FC00021FA04F001F0004121FA04F220EA020053
:107FD00000EBD3705EEA430E08BF20EAD37070BD99
:107FE00094F0000F0FD101F00046400041EB010179
:107FF00011F4801F08BF013CF7D041EA060195F05B
:10800000000F18BF704703F00046520043EB030314
:1080100013F4801F08BF013DF7D043EA0603704701
:1080200094EA0C0F0CEA135518BF95EA0C0F0CD00C
:1080300050EA410618BF52EA4306D1D181EA030152
:1080400001F000414FF0000070BD50EA410606BF4C
:108050001046194652EA430619D094EA0C0F02D191
:1080600050EA013613D195EA0C0F05D152EA0336D6
:108070001CBF104619460AD181EA030101F00041F4
:1080800041F0FE4141F470014FF0000070BD41F03D
:10809000FE4141F4780170BD70B54FF0FF0C4CF417
:1080A000E06C1CEA11541DBF1CEA135594EA0C0F36
:1080B00095EA0C0F00F0A7F8A4EB050481EA030E83
:1080C00052EA03354FEA013100F088804FEA03336A
:1080D0004FF0805545EA131343EA12634FEA022238
:1080E00045EA111545EA10654FEA00260EF00041F9
:1080F0009D4208BF964244F1FD0404F5407402D24B
:108100005B084FEA3202B61A65EB03055B084FEADB
:1081100032024FF480104FF4002CB6EB020E75EBD8
:10812000030E22BFB61A754640EA0C005B084FEA00
:108130003202B6EB020E75EB030E22BFB61A75467D
:1081400040EA5C005B084FEA3202B6EB020E75EBC8
:10815000030E22BFB61A754640EA9C005B084FEA40
:108160003202B6EB020E75EB030E22BFB61A75464D
:1081700040EADC0055EA060E18D04FEA051545EA3C
:1081800016754FEA06164FEAC30343EA52734FEAE5
:10819000C2025FEA1C1CC0D111F4801F0BD141EA5E
:1081A00000014FF000004FF0004CB6E711F4801FC3
:1081B00004BF01430020B4F1FD0C88BFBCF5E06FA3
:1081C0003FF6AFAEB5EB030C04BFB6EB020C5FEAB3
:1081D000500C50F1000041EB045170BD0EF0004E08
:1081E0004EEA113114EB5C04C2BFD4EB0C0541EA3A
:1081F000045170BD41F480114FF0000E013C90E637
:1082000045EA060E8DE60CEA135594EA0C0F08BFFA
:1082100095EA0C0F3FF43BAF94EA0C0F0AD150EAF9
:1082200001347FF434AF95EA0C0F7FF425AF10468C
:1082300019462CE795EA0C0F06D152EA03353FF4B4
:10824000FDAE1046194622E750EA410618BF52EA31
:1082500043067FF4C5AE50EA41047FF40DAF52EA05
:1082600043057FF4EBAE12E74FF0FF3C06E000BFA2
:108270004FF0010C02E000BF4FF0010C4DF804CDAF
:108280004FEA410C7FEA6C5C4FEA430C18BF7FEA6F
:108290006C5C1BD001B050EA410C0CBF52EA430C9D
:1082A00091EA030F02BF90EA020F0020704710F11D
:1082B000000F91EA030F58BF994208BF90422CBFAC
:1082C000D8176FEAE37040F0010070474FEA410CA5
:1082D0007FEA6C5C02D150EA013C07D14FEA430CC3
:1082E0007FEA6C5CD6D152EA033CD3D05DF8040B34
:1082F000704700BF8446104662468C461946634666
:1083000000E000BF01B5FFF7B7FF002848BF10F13C
:10831000000F01BD4DF808EDFFF7F4FF0CBF012081
:1083200000205DF808FB00BF4DF808EDFFF7EAFFFD
:1083300034BF012000205DF808FB00BF4DF808EDB8
:10834000FFF7E0FF94BF012000205DF808FB00BFAD
:108350004DF808EDFFF7CEFF94BF012000205DF837
:1083600008FB00BF4DF808EDFFF7C4FF34BF012044
:1083700000205DF808FB00BF4FEA410C7FEA6C5C0F
:1083800002D150EA013C0AD14FEA430C7FEA6C5C0F
:1083900002D152EA033C02D14FF0000070474FF087
:1083A000010070474FEA410212F5001215D211D5B3
:1083B0006FF47873B3EB625212D94FEAC12343F0E2
:1083C000004343EA505311F0004F23FA02F018BF64
:1083D000404270474FF00000704750EA013005D12D
:1083E00011F0004008BF6FF0004070474FF00000F0
:1083F000704700BF00C20100C0000000000800007C
:1084000000000000256300004154000041542B523D
:10841000455345540000000041542B4E414D454DFD
:1084200065736154657374310000000041542B5032
:10843000494E3130313031300000000041542B4E74
:10844000414D454D65736154657374320000000001
:1084500041542B50494E323032303230000000004F
:1084600041542B504153533330333000506C6179B9
:1084700065722031000000002573200A0000000012
:10848000506C61796572203200000000496E76619F
:108490006C69646F0000000018004020494E4600DF
:1084A000696E66004E414E006E616E0030313233AF
:1084B00034353637383941424344454600000000E0
:1084C000303132333435363738396162636465664A
:1084D00000000000286E756C6C2900003000000060
:1084E000202020202020202020202020202020208C
:1084F000303030303030303030303030303030307C
:10850000202020202020202020202020202020206B
:10851000303030303030303030303030303030305B
:10852000496E66696E697479000000004E614E0004
:1085300043000000504F5349580000002E00000037
:108540000080E03779C34143176E05B5B5B893464F
:10855000F5F93FE9034F384D321D30F94877825A1B
:108560003CBF737FDD4F1575000000000000F03F39
:1085700000000000000024400000000000005940FE
:108580000000000000408F40000000000088C34051
:1085900000000000006AF8400000000080842E41C6
:1085A00000000000D01263410000000084D7974112
:1085B0000000000065CDCD41000000205FA0024218
:1085C000000000E876483742000000A2941A6D428D
:1085D000000040E59C30A2420000901EC4BCD64280
:1085E00000003426F56B0C430080E03779C341432B
:1085F00000A0D8855734764300C84E676DC1AB43A1
:10860000003D9160E458E143408CB5781DAF1544BE
:1086100050EFE2D6E41A4B4492D54D06CFF0804499
:10862000F64AE1C7022DB544B49DD9794378EA44AE
:1086300005000000190000007D000000002020203F
:108640002020202020202828282828202020202002
:1086500020202020202020202020202020881010D2
:10866000101010101010101010101010100404042E
:1086700004040404040404101010101010104141EC
:1086800041414141010101010101010101010101DA
:1086900001010101010101011010101010104242EE
:1086A00042424242020202020202020202020202AA
:1086B000020202020202020210101010200000004A
:1086C00000000000000000000000000000000000AA
:1086D000000000000000000000000000000000009A
:1086E000000000000000000000000000000000008A
:1086F000000000000000000000000000000000007A
:108700000000000000000000000000000000000069
:108710000000000000000000000000000000000059
:108720000000000000000000000000000000000049
:108730000000000000000000000000000000000039
:10874000F8B500BFF8BC08BC9E4670479948400089
:1087500065014000F8B500BFF8BC08BC9E467047F4
:048760004101400093
:088764009C98FF7F010000005A
:10876C00BFF35F8F0138FBD17047010000093D005A
:10877C00180040200000000000000000040340200E
:10878C006C034020D40340200000000000000000D7
:10879C0000000000000000000000000000000000CD
:1087AC0000000000000000000000000000000000BD
:1087BC0000000000000000000000000000000000AD
:1087CC00000000000000000000000000000000009D
:1087DC00000000000000000000000000000000008D
:1087EC00000000000000000000000000000000007D
:1087FC00000000000000000000000000000000006D
:10880C00000000000000000000000000000000005C
:10881C00000000000000000000000000000000004C
:10882C0001000000000000000E33CDAB34126DE6E9
:10883C00ECDE05000B000000000000000000000052
:10884C00000000000000000000000000000000001C
:10885C00000000000000000000000000000000000C
:10886C0000000000000000000000000000000000FC
:10887C0000000000000000000000000000000000EC
:108BAC00940A402043000000000000000000000078
:108BBC0000000000000000000000000000000000A9
:108BCC000000000043000000000000000000000056
:108BDC000000000000000000000000000000000089
:108BEC000000000043000000000000000000000036
:108BFC000000000000000000000000000000000069
:108C0C000000000043000000000000000000000015
:108C1C000000000000000000000000000000000048
:108C2C0000000000430000000000000000000000F5
:108C3C000000000000000000000000000000000028
:108C4C0000000000430000000000000000000000D5
:108C5C000000000000000000000000000000000008
:108C6C0000000000430000000000000000000000B5
:108C7C0000000000000000000000000000000000E8
:108C8C0000000000DD774000296840000000000073
:108C9C003C8640003C854000BC844000BC844000C5
:108CAC00BC844000BC844000BC844000BC844000B8
:108CBC00BC844000BC844000BC844000FFFFFFFF2C
:108CCC00FFFFFFFFFFFFFFFFFFFF0000010041530D
:108CDC0043494900000000000000000000000000B3
:108CEC0000000000000000000000000000004153E4
:108CFC004349490000000000000000000000000093
:108D0C000000000000000000000000000000000057
:108D1C000000000000000000B0054020B00540201D
:108D2C00B8054020B8054020C0054020C0054020B3
:108D3C00C8054020C8054020D0054020D005402063
:108D4C00D8054020D8054020E0054020E005402013
:108D5C00E8054020E8054020F0054020F0054020C3
:108D6C00F8054020F8054020000640200006402071
:108D7C00080640200806402010064020100640201F
:108D8C0018064020180640202006402020064020CF
:108D9C00280640202806402030064020300640207F
:108DAC00380640203806402040064020400640202F
:108DBC0048064020480640205006402050064020DF
:108DCC00580640205806402060064020600640208F
:108DDC00680640206806402070064020700640203F
:108DEC0078064020780640208006402080064020EF
:108DFC00880640208806402090064020900640209F
:108E0C009806402098064020A0064020A00640204E
:108E1C00A8064020A8064020B0064020B0064020FE
:108E2C00B8064020B8064020C0064020C0064020AE
:108E3C00C8064020C8064020D0064020D00640205E
:108E4C00D8064020D8064020E0064020E00640200E
:108E5C00E8064020E8064020F0064020F0064020BE
:108E6C00F8064020F806402000074020000740206C
:108E7C00080740200807402010074020100740201A
:108E8C0018074020180740202007402020074020CA
:108E9C00280740202807402030074020300740207A
:108EAC00380740203807402040074020400740202A
:108EBC0048074020480740205007402050074020DA
:108ECC00580740205807402060074020600740208A
:108EDC00680740206807402070074020700740203A
:108EEC0078074020780740208007402080074020EA
:108EFC00880740208807402090074020900740209A
:108F0C009807402098074020A0074020A007402049
:108F1C00A8074020A8074020B0074020B0074020F9
:108F2C00B8074020B8074020C0074020C0074020A9
:108F3C00C8074020C8074020D0074020D007402059
:108F4C00D8074020D8074020E0074020E007402009
:108F5C00E8074020E8074020F0074020F0074020B9
:108F6C00F8074020F8074020000840200008402067
:108F7C000808402008084020100840201008402015
:108F8C0018084020180840202008402020084020C5
:108F9C002808402028084020300840203008402075
:108FAC003808402038084020400840204008402025
:108FBC0048084020480840205008402050084020D5
:108FCC005808402058084020600840206008402085
:108FDC006808402068084020700840207008402035
:108FEC0078084020780840208008402080084020E5
:108FFC008808402088084020900840209008402095
:10900C009808402098084020A0084020A008402044
:10901C00A8084020A8084020B0084020B0084020F4
:10902C00B8084020B8084020C0084020C0084020A4
:10903C00C8084020C8084020D0084020D008402054
:10904C00D8084020D8084020E0084020E008402004
:10905C00E8084020E8084020F0084020F0084020B4
:10906C00F8084020F8084020000940200009402062
:10907C000809402008094020100940201009402010
:10908C0018094020180940202009402020094020C0
:10909C002809402028094020300940203009402070
:1090AC003809402038094020400940204009402020
:1090BC0048094020480940205009402050094020D0
:1090CC005809402058094020600940206009402080
:1090DC006809402068094020700940207009402030
:1090EC0078094020780940208009402080094020E0
:1090FC008809402088094020900940209009402090
:10910C009809402098094020A0094020A00940203F
:10911C00A8094020A8094020FFFFFFFF0000020023
:0400000500400F9117
:00000001FF
